{
  "_format": "hh-sol-artifact-1",
  "contractName": "LiveMintAuction",
  "sourceName": "contracts/LiveMint.sol",
  "abi": [
    {
      "inputs": [
        {
          "internalType": "address",
          "name": "_nftContract",
          "type": "address"
        }
      ],
      "stateMutability": "nonpayable",
      "type": "constructor"
    },
    {
      "anonymous": false,
      "inputs": [
        {
          "indexed": true,
          "internalType": "address",
          "name": "sender",
          "type": "address"
        },
        {
          "indexed": false,
          "internalType": "uint256",
          "name": "amount",
          "type": "uint256"
        },
        {
          "indexed": false,
          "internalType": "uint256",
          "name": "timestamp",
          "type": "uint256"
        }
      ],
      "name": "Bid",
      "type": "event"
    },
    {
      "anonymous": false,
      "inputs": [
        {
          "indexed": false,
          "internalType": "address[]",
          "name": "winningBidders",
          "type": "address[]"
        },
        {
          "indexed": false,
          "internalType": "uint256",
          "name": "timestamp",
          "type": "uint256"
        }
      ],
      "name": "End",
      "type": "event"
    },
    {
      "anonymous": false,
      "inputs": [
        {
          "indexed": false,
          "internalType": "uint256",
          "name": "highestBid",
          "type": "uint256"
        },
        {
          "indexed": false,
          "internalType": "uint256",
          "name": "timestamp",
          "type": "uint256"
        }
      ],
      "name": "Start",
      "type": "event"
    },
    {
      "anonymous": false,
      "inputs": [
        {
          "indexed": true,
          "internalType": "address",
          "name": "bidder",
          "type": "address"
        },
        {
          "indexed": false,
          "internalType": "uint256",
          "name": "amount",
          "type": "uint256"
        },
        {
          "indexed": false,
          "internalType": "uint256",
          "name": "timestamp",
          "type": "uint256"
        }
      ],
      "name": "Withdraw",
      "type": "event"
    },
    {
      "inputs": [],
      "name": "bid",
      "outputs": [],
      "stateMutability": "payable",
      "type": "function"
    },
    {
      "inputs": [
        {
          "internalType": "string",
          "name": "tokenURI",
          "type": "string"
        }
      ],
      "name": "end",
      "outputs": [],
      "stateMutability": "nonpayable",
      "type": "function"
    },
    {
      "inputs": [],
      "name": "endAt",
      "outputs": [
        {
          "internalType": "uint256",
          "name": "",
          "type": "uint256"
        }
      ],
      "stateMutability": "view",
      "type": "function"
    },
    {
      "inputs": [],
      "name": "ended",
      "outputs": [
        {
          "internalType": "bool",
          "name": "",
          "type": "bool"
        }
      ],
      "stateMutability": "view",
      "type": "function"
    },
    {
      "inputs": [],
      "name": "floorBid",
      "outputs": [
        {
          "internalType": "uint256",
          "name": "",
          "type": "uint256"
        }
      ],
      "stateMutability": "view",
      "type": "function"
    },
    {
      "inputs": [
        {
          "internalType": "address",
          "name": "",
          "type": "address"
        }
      ],
      "name": "fundsByBidder",
      "outputs": [
        {
          "internalType": "uint256",
          "name": "",
          "type": "uint256"
        }
      ],
      "stateMutability": "view",
      "type": "function"
    },
    {
      "inputs": [],
      "name": "getBid",
      "outputs": [
        {
          "internalType": "uint256",
          "name": "",
          "type": "uint256"
        }
      ],
      "stateMutability": "view",
      "type": "function"
    },
    {
      "inputs": [],
      "name": "getCurrentItem",
      "outputs": [
        {
          "internalType": "uint256",
          "name": "",
          "type": "uint256"
        }
      ],
      "stateMutability": "view",
      "type": "function"
    },
    {
      "inputs": [],
      "name": "getEndAt",
      "outputs": [
        {
          "internalType": "uint256",
          "name": "",
          "type": "uint256"
        }
      ],
      "stateMutability": "view",
      "type": "function"
    },
    {
      "inputs": [],
      "name": "getHighestBid",
      "outputs": [
        {
          "internalType": "uint256",
          "name": "",
          "type": "uint256"
        }
      ],
      "stateMutability": "view",
      "type": "function"
    },
    {
      "inputs": [],
      "name": "getLowestBid",
      "outputs": [
        {
          "internalType": "uint256",
          "name": "",
          "type": "uint256"
        }
      ],
      "stateMutability": "view",
      "type": "function"
    },
    {
      "inputs": [
        {
          "internalType": "uint256",
          "name": "totalNFTs",
          "type": "uint256"
        }
      ],
      "name": "getTop",
      "outputs": [
        {
          "internalType": "address[]",
          "name": "",
          "type": "address[]"
        }
      ],
      "stateMutability": "view",
      "type": "function"
    },
    {
      "inputs": [],
      "name": "isStarted",
      "outputs": [
        {
          "internalType": "bool",
          "name": "",
          "type": "bool"
        }
      ],
      "stateMutability": "view",
      "type": "function"
    },
    {
      "inputs": [],
      "name": "listSize",
      "outputs": [
        {
          "internalType": "uint256",
          "name": "",
          "type": "uint256"
        }
      ],
      "stateMutability": "view",
      "type": "function"
    },
    {
      "inputs": [],
      "name": "seller",
      "outputs": [
        {
          "internalType": "address payable",
          "name": "",
          "type": "address"
        }
      ],
      "stateMutability": "view",
      "type": "function"
    },
    {
      "inputs": [
        {
          "internalType": "uint256",
          "name": "timeOfAuction",
          "type": "uint256"
        },
        {
          "internalType": "uint256",
          "name": "startingBid",
          "type": "uint256"
        },
        {
          "internalType": "uint256",
          "name": "nftsToMint",
          "type": "uint256"
        }
      ],
      "name": "start",
      "outputs": [],
      "stateMutability": "nonpayable",
      "type": "function"
    },
    {
      "inputs": [],
      "name": "started",
      "outputs": [
        {
          "internalType": "bool",
          "name": "",
          "type": "bool"
        }
      ],
      "stateMutability": "view",
      "type": "function"
    },
    {
      "inputs": [],
      "name": "totalNFTs",
      "outputs": [
        {
          "internalType": "uint256",
          "name": "",
          "type": "uint256"
        }
      ],
      "stateMutability": "view",
      "type": "function"
    },
    {
      "inputs": [],
      "name": "withdraw",
      "outputs": [],
      "stateMutability": "payable",
      "type": "function"
    }
  ],
  "bytecode": "0x60806040523480156200001157600080fd5b5060405162003529380380620035298339818101604052810190620000379190620000df565b600160008190555033600260006101000a81548173ffffffffffffffffffffffffffffffffffffffff021916908373ffffffffffffffffffffffffffffffffffffffff16021790555080600460006101000a81548173ffffffffffffffffffffffffffffffffffffffff021916908373ffffffffffffffffffffffffffffffffffffffff1602179055505062000159565b600081519050620000d9816200013f565b92915050565b600060208284031215620000f257600080fd5b60006200010284828501620000c8565b91505092915050565b600062000118826200011f565b9050919050565b600073ffffffffffffffffffffffffffffffffffffffff82169050919050565b6200014a816200010b565b81146200015657600080fd5b50565b6133c080620001696000396000f3fe6080604052600436106101145760003560e01c80634979440a116100a05780637cc3ae8c116100645780637cc3ae8c146103415780638bbbe1af1461036c578063900a974e14610397578063972c5356146103c0578063ce10cf80146103eb57610114565b80634979440a1461026c578063544736e6146102975780635e3660b5146102c2578063641ccd83146102ed5780636f74a9ea1461031657610114565b80631998aeef116100e75780631998aeef146101c55780631df6554f146101cf5780631f2698ab146101fa57806337caa8b6146102255780633ccfd60b1461026257610114565b806308551a5314610119578063099a019d146101445780630d0e96da1461016f57806312fa6feb1461019a575b600080fd5b34801561012557600080fd5b5061012e610428565b60405161013b91906129c2565b60405180910390f35b34801561015057600080fd5b5061015961044e565b6040516101669190612c9a565b60405180910390f35b34801561017b57600080fd5b50610184610495565b6040516101919190612c9a565b60405180910390f35b3480156101a657600080fd5b506101af61049b565b6040516101bc9190612a9d565b60405180910390f35b6101cd6104ae565b005b3480156101db57600080fd5b506101e46108a7565b6040516101f19190612c9a565b60405180910390f35b34801561020657600080fd5b5061020f610950565b60405161021c9190612a9d565b60405180910390f35b34801561023157600080fd5b5061024c600480360381019061024791906125f6565b610963565b6040516102599190612a4b565b60405180910390f35b61026a610b55565b005b34801561027857600080fd5b50610281610ddb565b60405161028e9190612c9a565b60405180910390f35b3480156102a357600080fd5b506102ac610e72565b6040516102b99190612a9d565b60405180910390f35b3480156102ce57600080fd5b506102d7610e9a565b6040516102e49190612c9a565b60405180910390f35b3480156102f957600080fd5b50610314600480360381019061030f9190612648565b610ea4565b005b34801561032257600080fd5b5061032b611124565b6040516103389190612c9a565b60405180910390f35b34801561034d57600080fd5b506103566111d6565b6040516103639190612c9a565b60405180910390f35b34801561037857600080fd5b506103816111dc565b60405161038e9190612c9a565b60405180910390f35b3480156103a357600080fd5b506103be60048036038101906103b991906125b5565b6111e2565b005b3480156103cc57600080fd5b506103d56119ec565b6040516103e29190612c9a565b60405180910390f35b3480156103f757600080fd5b50610412600480360381019061040d9190612563565b6119f2565b60405161041f9190612c9a565b60405180910390f35b600260009054906101000a900473ffffffffffffffffffffffffffffffffffffffff1681565b6000600760003373ffffffffffffffffffffffffffffffffffffffff1673ffffffffffffffffffffffffffffffffffffffff16815260200190815260200160002054905090565b60065481565b600260159054906101000a900460ff1681565b600260149054906101000a900460ff166104fd576040517f08c379a00000000000000000000000000000000000000000000000000000000081526004016104f490612bda565b60405180910390fd5b6003544210610541576040517f08c379a000000000000000000000000000000000000000000000000000000000815260040161053890612b5a565b60405180910390fd5b600554600760003373ffffffffffffffffffffffffffffffffffffffff1673ffffffffffffffffffffffffffffffffffffffff168152602001908152602001600020543461058f9190612d94565b10156105d0576040517f08c379a00000000000000000000000000000000000000000000000000000000081526004016105c790612bfa565b60405180910390fd5b600060095460065411610639576105e8600654610963565b60016006546105f79190612e44565b8151811061062e577f4e487b7100000000000000000000000000000000000000000000000000000000600052603260045260246000fd5b602002602001015190505b600073ffffffffffffffffffffffffffffffffffffffff168173ffffffffffffffffffffffffffffffffffffffff161461073957600760008273ffffffffffffffffffffffffffffffffffffffff1673ffffffffffffffffffffffffffffffffffffffff16815260200190815260200160002054600760003373ffffffffffffffffffffffffffffffffffffffff1673ffffffffffffffffffffffffffffffffffffffff16815260200190815260200160002054346106f89190612d94565b11610738576040517f08c379a000000000000000000000000000000000000000000000000000000000815260040161072f90612b3a565b60405180910390fd5b5b600073ffffffffffffffffffffffffffffffffffffffff16600860003373ffffffffffffffffffffffffffffffffffffffff1673ffffffffffffffffffffffffffffffffffffffff16815260200190815260200160002060009054906101000a900473ffffffffffffffffffffffffffffffffffffffff1673ffffffffffffffffffffffffffffffffffffffff1614156107dc576107d73334611a0a565b6107e7565b6107e63334611ca1565b5b61012c426003546107f89190612e44565b10156108155761012c60035461080e9190612d94565b6003819055505b3373ffffffffffffffffffffffffffffffffffffffff167f19421268847f42dd61705778018ddfc43bcdce8517e7a630acb12f122c709481600760003373ffffffffffffffffffffffffffffffffffffffff1673ffffffffffffffffffffffffffffffffffffffff168152602001908152602001600020544260405161089c929190612cb5565b60405180910390a250565b6000806108b5600654610963565b905060008151905060076000836001846108cf9190612e44565b81518110610906577f4e487b7100000000000000000000000000000000000000000000000000000000600052603260045260246000fd5b602002602001015173ffffffffffffffffffffffffffffffffffffffff1673ffffffffffffffffffffffffffffffffffffffff168152602001908152602001600020549250505090565b600260149054906101000a900460ff1681565b6060600060095483111561097b57600954905061097f565b8290505b60008167ffffffffffffffff8111156109c1577f4e487b7100000000000000000000000000000000000000000000000000000000600052604160045260246000fd5b6040519080825280602002602001820160405280156109ef5781602001602082028036833780820191505090505b509050600060086000600173ffffffffffffffffffffffffffffffffffffffff1673ffffffffffffffffffffffffffffffffffffffff16815260200190815260200160002060009054906101000a900473ffffffffffffffffffffffffffffffffffffffff16905060005b83811015610b495781838281518110610a9c577f4e487b7100000000000000000000000000000000000000000000000000000000600052603260045260246000fd5b602002602001019073ffffffffffffffffffffffffffffffffffffffff16908173ffffffffffffffffffffffffffffffffffffffff1681525050600860008373ffffffffffffffffffffffffffffffffffffffff1673ffffffffffffffffffffffffffffffffffffffff16815260200190815260200160002060009054906101000a900473ffffffffffffffffffffffffffffffffffffffff16915080610b4290612fa5565b9050610a5a565b50819350505050919050565b60026000541415610b9b576040517f08c379a0000000000000000000000000000000000000000000000000000000008152600401610b9290612c5a565b60405180910390fd5b60026000819055506000610bb0600654610963565b905060005b600654811015610c81573373ffffffffffffffffffffffffffffffffffffffff16828281518110610c0f577f4e487b7100000000000000000000000000000000000000000000000000000000600052603260045260246000fd5b602002602001015173ffffffffffffffffffffffffffffffffffffffff161415610c6e576040517f08c379a0000000000000000000000000000000000000000000000000000000008152600401610c6590612b7a565b60405180910390fd5b8080610c7990612fa5565b915050610bb5565b506000600760003373ffffffffffffffffffffffffffffffffffffffff1673ffffffffffffffffffffffffffffffffffffffff168152602001908152602001600020549050610ccf33611cf9565b6000803373ffffffffffffffffffffffffffffffffffffffff1683604051610cf6906129ad565b60006040518083038185875af1925050503d8060008114610d33576040519150601f19603f3d011682016040523d82523d6000602084013e610d38565b606091505b509150915081610d7d576040517f08c379a0000000000000000000000000000000000000000000000000000000008152600401610d7490612c7a565b60405180910390fd5b3373ffffffffffffffffffffffffffffffffffffffff167ff279e6a1f5e320cca91135676d9cb6e44ca8a08c0b88342bcdb1144f6511b5688442604051610dc5929190612cb5565b60405180910390a2505050506001600081905550565b600080610de9600654610963565b90506007600082600081518110610e29577f4e487b7100000000000000000000000000000000000000000000000000000000600052603260045260246000fd5b602002602001015173ffffffffffffffffffffffffffffffffffffffff1673ffffffffffffffffffffffffffffffffffffffff1681526020019081526020016000205491505090565b6000600260149054906101000a900460ff1615610e925760019050610e97565b600090505b90565b6000600354905090565b60026000541415610eea576040517f08c379a0000000000000000000000000000000000000000000000000000000008152600401610ee190612c5a565b60405180910390fd5b6002600081905550600260149054906101000a900460ff1615610f42576040517f08c379a0000000000000000000000000000000000000000000000000000000008152600401610f3990612bba565b60405180910390fd5b600260009054906101000a900473ffffffffffffffffffffffffffffffffffffffff1673ffffffffffffffffffffffffffffffffffffffff163373ffffffffffffffffffffffffffffffffffffffff1614610fd2576040517f08c379a0000000000000000000000000000000000000000000000000000000008152600401610fc990612afa565b60405180910390fd5b80600681905550600160086000600173ffffffffffffffffffffffffffffffffffffffff1673ffffffffffffffffffffffffffffffffffffffff16815260200190815260200160002060006101000a81548173ffffffffffffffffffffffffffffffffffffffff021916908373ffffffffffffffffffffffffffffffffffffffff1602179055506000600460009054906101000a900473ffffffffffffffffffffffffffffffffffffffff1690506001600260146101000a81548160ff0219169083151502179055506000600260156101000a81548160ff021916908315150217905550603c846110c39190612dea565b426110ce9190612d94565b600381905550826005819055507f5a7d5f50ab70a39d193bf53f0fb995377776df93bb6fdcf1cd1868b7e0dd44ee6005544260405161110e929190612cb5565b60405180910390a1506001600081905550505050565b600080600460009054906101000a900473ffffffffffffffffffffffffffffffffffffffff16905060008173ffffffffffffffffffffffffffffffffffffffff16636c1438626040518163ffffffff1660e01b815260040160206040518083038186803b15801561119457600080fd5b505afa1580156111a8573d6000803e3d6000fd5b505050506040513d601f19601f820116820180604052508101906111cc919061261f565b9050809250505090565b60035481565b60055481565b60026000541415611228576040517f08c379a000000000000000000000000000000000000000000000000000000000815260040161121f90612c5a565b60405180910390fd5b6002600081905550600260149054906101000a900460ff1661127f576040517f08c379a000000000000000000000000000000000000000000000000000000000815260040161127690612b9a565b60405180910390fd5b6003544210156112c4576040517f08c379a00000000000000000000000000000000000000000000000000000000081526004016112bb90612b1a565b60405180910390fd5b600260159054906101000a900460ff1615611314576040517f08c379a000000000000000000000000000000000000000000000000000000000815260040161130b90612c3a565b60405180910390fd5b600260009054906101000a900473ffffffffffffffffffffffffffffffffffffffff1673ffffffffffffffffffffffffffffffffffffffff163373ffffffffffffffffffffffffffffffffffffffff16146113a4576040517f08c379a000000000000000000000000000000000000000000000000000000000815260040161139b90612ada565b60405180910390fd5b600060065490506113b56001611f5c565b6000600460009054906101000a900473ffffffffffffffffffffffffffffffffffffffff1690506001600260156101000a81548160ff0219169083151502179055506000600260146101000a81548160ff021916908315150217905550600061141d83610963565b905060005b81518110156119a457600073ffffffffffffffffffffffffffffffffffffffff1682828151811061147c577f4e487b7100000000000000000000000000000000000000000000000000000000600052603260045260246000fd5b602002602001015173ffffffffffffffffffffffffffffffffffffffff161461179d5760008373ffffffffffffffffffffffffffffffffffffffff1663d85d3d27876040518263ffffffff1660e01b81526004016114da9190612ab8565b602060405180830381600087803b1580156114f457600080fd5b505af1158015611508573d6000803e3d6000fd5b505050506040513d601f19601f8201168201806040525081019061152c919061261f565b90506000600460009054906101000a900473ffffffffffffffffffffffffffffffffffffffff1673ffffffffffffffffffffffffffffffffffffffff16636352211e836040518263ffffffff1660e01b815260040161158b9190612c9a565b60206040518083038186803b1580156115a357600080fd5b505afa1580156115b7573d6000803e3d6000fd5b505050506040513d601f19601f820116820180604052508101906115db919061258c565b9050600460009054906101000a900473ffffffffffffffffffffffffffffffffffffffff1673ffffffffffffffffffffffffffffffffffffffff166323b872dd82868681518110611655577f4e487b7100000000000000000000000000000000000000000000000000000000600052603260045260246000fd5b6020026020010151856040518463ffffffff1660e01b815260040161167c93929190612a14565b600060405180830381600087803b15801561169657600080fd5b505af11580156116aa573d6000803e3d6000fd5b50505050600260009054906101000a900473ffffffffffffffffffffffffffffffffffffffff1673ffffffffffffffffffffffffffffffffffffffff166108fc60076000878781518110611727577f4e487b7100000000000000000000000000000000000000000000000000000000600052603260045260246000fd5b602002602001015173ffffffffffffffffffffffffffffffffffffffff1673ffffffffffffffffffffffffffffffffffffffff168152602001908152602001600020549081150290604051600060405180830381858888f19350505050158015611795573d6000803e3d6000fd5b505050611991565b60008373ffffffffffffffffffffffffffffffffffffffff1663d85d3d27876040518263ffffffff1660e01b81526004016117d89190612ab8565b602060405180830381600087803b1580156117f257600080fd5b505af1158015611806573d6000803e3d6000fd5b505050506040513d601f19601f8201168201806040525081019061182a919061261f565b90506000600460009054906101000a900473ffffffffffffffffffffffffffffffffffffffff1673ffffffffffffffffffffffffffffffffffffffff16636352211e836040518263ffffffff1660e01b81526004016118899190612c9a565b60206040518083038186803b1580156118a157600080fd5b505afa1580156118b5573d6000803e3d6000fd5b505050506040513d601f19601f820116820180604052508101906118d9919061258c565b9050600460009054906101000a900473ffffffffffffffffffffffffffffffffffffffff1673ffffffffffffffffffffffffffffffffffffffff166323b872dd82600260009054906101000a900473ffffffffffffffffffffffffffffffffffffffff16856040518463ffffffff1660e01b815260040161195c939291906129dd565b600060405180830381600087803b15801561197657600080fd5b505af115801561198a573d6000803e3d6000fd5b5050505050505b808061199c90612fa5565b915050611422565b507f363577b4cda9ff8b076214caf0c0f713f5bc7aeca065acb1d81f546e9a655c6481426040516119d6929190612a6d565b60405180910390a1505050600160008190555050565b60095481565b60076020528060005260406000206000915090505481565b600073ffffffffffffffffffffffffffffffffffffffff16600860008473ffffffffffffffffffffffffffffffffffffffff1673ffffffffffffffffffffffffffffffffffffffff16815260200190815260200160002060009054906101000a900473ffffffffffffffffffffffffffffffffffffffff1673ffffffffffffffffffffffffffffffffffffffff1614611ad8576040517f08c379a0000000000000000000000000000000000000000000000000000000008152600401611acf90612c1a565b60405180910390fd5b6000611ae382611f72565b905081600760008573ffffffffffffffffffffffffffffffffffffffff1673ffffffffffffffffffffffffffffffffffffffff16815260200190815260200160002081905550600860008273ffffffffffffffffffffffffffffffffffffffff1673ffffffffffffffffffffffffffffffffffffffff16815260200190815260200160002060009054906101000a900473ffffffffffffffffffffffffffffffffffffffff16600860008573ffffffffffffffffffffffffffffffffffffffff1673ffffffffffffffffffffffffffffffffffffffff16815260200190815260200160002060006101000a81548173ffffffffffffffffffffffffffffffffffffffff021916908373ffffffffffffffffffffffffffffffffffffffff16021790555082600860008373ffffffffffffffffffffffffffffffffffffffff1673ffffffffffffffffffffffffffffffffffffffff16815260200190815260200160002060006101000a81548173ffffffffffffffffffffffffffffffffffffffff021916908373ffffffffffffffffffffffffffffffffffffffff16021790555060096000815480929190611c9790612fa5565b9190505550505050565b611cf58282600760008673ffffffffffffffffffffffffffffffffffffffff1673ffffffffffffffffffffffffffffffffffffffff16815260200190815260200160002054611cf09190612d94565b612067565b5050565b600073ffffffffffffffffffffffffffffffffffffffff16600860008373ffffffffffffffffffffffffffffffffffffffff1673ffffffffffffffffffffffffffffffffffffffff16815260200190815260200160002060009054906101000a900473ffffffffffffffffffffffffffffffffffffffff1673ffffffffffffffffffffffffffffffffffffffff161415611d9257600080fd5b6000611d9d826121e4565b9050600860008373ffffffffffffffffffffffffffffffffffffffff1673ffffffffffffffffffffffffffffffffffffffff16815260200190815260200160002060009054906101000a900473ffffffffffffffffffffffffffffffffffffffff16600860008373ffffffffffffffffffffffffffffffffffffffff1673ffffffffffffffffffffffffffffffffffffffff16815260200190815260200160002060006101000a81548173ffffffffffffffffffffffffffffffffffffffff021916908373ffffffffffffffffffffffffffffffffffffffff1602179055506000600860008473ffffffffffffffffffffffffffffffffffffffff1673ffffffffffffffffffffffffffffffffffffffff16815260200190815260200160002060006101000a81548173ffffffffffffffffffffffffffffffffffffffff021916908373ffffffffffffffffffffffffffffffffffffffff1602179055506000600760008473ffffffffffffffffffffffffffffffffffffffff1673ffffffffffffffffffffffffffffffffffffffff1681526020019081526020016000208190555060096000815480929190611f5390612f4a565b91905055505050565b6001816000016000828254019250508190555050565b600080600190505b60011561206057611feb8184600860008573ffffffffffffffffffffffffffffffffffffffff1673ffffffffffffffffffffffffffffffffffffffff16815260200190815260200160002060009054906101000a900473ffffffffffffffffffffffffffffffffffffffff16612309565b15611ff95780915050612062565b600860008273ffffffffffffffffffffffffffffffffffffffff1673ffffffffffffffffffffffffffffffffffffffff16815260200190815260200160002060009054906101000a900473ffffffffffffffffffffffffffffffffffffffff169050611f7a565b505b919050565b600073ffffffffffffffffffffffffffffffffffffffff16600860008473ffffffffffffffffffffffffffffffffffffffff1673ffffffffffffffffffffffffffffffffffffffff16815260200190815260200160002060009054906101000a900473ffffffffffffffffffffffffffffffffffffffff1673ffffffffffffffffffffffffffffffffffffffff16141561210057600080fd5b600061210b836121e4565b90506000600860008573ffffffffffffffffffffffffffffffffffffffff1673ffffffffffffffffffffffffffffffffffffffff16815260200190815260200160002060009054906101000a900473ffffffffffffffffffffffffffffffffffffffff16905061217c828483612309565b156121ca5782600760008673ffffffffffffffffffffffffffffffffffffffff1673ffffffffffffffffffffffffffffffffffffffff168152602001908152602001600020819055506121de565b6121d384611cf9565b6121dd8484611a0a565b5b50505050565b600080600190505b600173ffffffffffffffffffffffffffffffffffffffff16600860008373ffffffffffffffffffffffffffffffffffffffff1673ffffffffffffffffffffffffffffffffffffffff16815260200190815260200160002060009054906101000a900473ffffffffffffffffffffffffffffffffffffffff1673ffffffffffffffffffffffffffffffffffffffff16146122fe57612289838261240f565b156122975780915050612304565b600860008273ffffffffffffffffffffffffffffffffffffffff1673ffffffffffffffffffffffffffffffffffffffff16815260200190815260200160002060009054906101000a900473ffffffffffffffffffffffffffffffffffffffff1690506121ec565b60009150505b919050565b6000600173ffffffffffffffffffffffffffffffffffffffff168473ffffffffffffffffffffffffffffffffffffffff161480612385575082600760008673ffffffffffffffffffffffffffffffffffffffff1673ffffffffffffffffffffffffffffffffffffffff1681526020019081526020016000205410155b80156124065750600173ffffffffffffffffffffffffffffffffffffffff168273ffffffffffffffffffffffffffffffffffffffff1614806124055750600760008373ffffffffffffffffffffffffffffffffffffffff1673ffffffffffffffffffffffffffffffffffffffff1681526020019081526020016000205483115b5b90509392505050565b60008273ffffffffffffffffffffffffffffffffffffffff16600860008473ffffffffffffffffffffffffffffffffffffffff1673ffffffffffffffffffffffffffffffffffffffff16815260200190815260200160002060009054906101000a900473ffffffffffffffffffffffffffffffffffffffff1673ffffffffffffffffffffffffffffffffffffffff1614905092915050565b60006124ba6124b584612d03565b612cde565b9050828152602081018484840111156124d257600080fd5b6124dd848285612f08565b509392505050565b6000813590506124f48161335c565b92915050565b6000815190506125098161335c565b92915050565b600082601f83011261252057600080fd5b81356125308482602086016124a7565b91505092915050565b60008135905061254881613373565b92915050565b60008151905061255d81613373565b92915050565b60006020828403121561257557600080fd5b6000612583848285016124e5565b91505092915050565b60006020828403121561259e57600080fd5b60006125ac848285016124fa565b91505092915050565b6000602082840312156125c757600080fd5b600082013567ffffffffffffffff8111156125e157600080fd5b6125ed8482850161250f565b91505092915050565b60006020828403121561260857600080fd5b600061261684828501612539565b91505092915050565b60006020828403121561263157600080fd5b600061263f8482850161254e565b91505092915050565b60008060006060848603121561265d57600080fd5b600061266b86828701612539565b935050602061267c86828701612539565b925050604061268d86828701612539565b9150509250925092565b60006126a383836126cd565b60208301905092915050565b6126b881612ed2565b82525050565b6126c781612e8a565b82525050565b6126d681612e78565b82525050565b6126e581612e78565b82525050565b60006126f682612d44565b6127008185612d67565b935061270b83612d34565b8060005b8381101561273c5781516127238882612697565b975061272e83612d5a565b92505060018101905061270f565b5085935050505092915050565b61275281612e9c565b82525050565b600061276382612d4f565b61276d8185612d83565b935061277d818560208601612f17565b6127868161304c565b840191505092915050565b600061279e602383612d83565b91506127a98261305d565b604082019050919050565b60006127c1601e83612d83565b91506127cc826130ac565b602082019050919050565b60006127e4601983612d83565b91506127ef826130d5565b602082019050919050565b6000612807602a83612d83565b9150612812826130fe565b604082019050919050565b600061282a600683612d83565b91506128358261314d565b602082019050919050565b600061284d602a83612d83565b915061285882613176565b604082019050919050565b6000612870601f83612d83565b915061287b826131c5565b602082019050919050565b6000612893601083612d83565b915061289e826131ee565b602082019050919050565b60006128b6600c83612d83565b91506128c182613217565b602082019050919050565b60006128d9600083612d78565b91506128e482613240565b600082019050919050565b60006128fc602683612d83565b915061290782613243565b604082019050919050565b600061291f602583612d83565b915061292a82613292565b604082019050919050565b6000612942601683612d83565b915061294d826132e1565b602082019050919050565b6000612965601f83612d83565b91506129708261330a565b602082019050919050565b6000612988601283612d83565b915061299382613333565b602082019050919050565b6129a781612ec8565b82525050565b60006129b8826128cc565b9150819050919050565b60006020820190506129d760008301846126be565b92915050565b60006060820190506129f260008301866126dc565b6129ff60208301856126af565b612a0c604083018461299e565b949350505050565b6000606082019050612a2960008301866126dc565b612a3660208301856126dc565b612a43604083018461299e565b949350505050565b60006020820190508181036000830152612a6581846126eb565b905092915050565b60006040820190508181036000830152612a8781856126eb565b9050612a96602083018461299e565b9392505050565b6000602082019050612ab26000830184612749565b92915050565b60006020820190508181036000830152612ad28184612758565b905092915050565b60006020820190508181036000830152612af381612791565b9050919050565b60006020820190508181036000830152612b13816127b4565b9050919050565b60006020820190508181036000830152612b33816127d7565b9050919050565b60006020820190508181036000830152612b53816127fa565b9050919050565b60006020820190508181036000830152612b738161281d565b9050919050565b60006020820190508181036000830152612b9381612840565b9050919050565b60006020820190508181036000830152612bb381612863565b9050919050565b60006020820190508181036000830152612bd381612886565b9050919050565b60006020820190508181036000830152612bf3816128a9565b9050919050565b60006020820190508181036000830152612c13816128ef565b9050919050565b60006020820190508181036000830152612c3381612912565b9050919050565b60006020820190508181036000830152612c5381612935565b9050919050565b60006020820190508181036000830152612c7381612958565b9050919050565b60006020820190508181036000830152612c938161297b565b9050919050565b6000602082019050612caf600083018461299e565b92915050565b6000604082019050612cca600083018561299e565b612cd7602083018461299e565b9392505050565b6000612ce8612cf9565b9050612cf48282612f74565b919050565b6000604051905090565b600067ffffffffffffffff821115612d1e57612d1d61301d565b5b612d278261304c565b9050602081019050919050565b6000819050602082019050919050565b600081519050919050565b600081519050919050565b6000602082019050919050565b600082825260208201905092915050565b600081905092915050565b600082825260208201905092915050565b6000612d9f82612ec8565b9150612daa83612ec8565b9250827fffffffffffffffffffffffffffffffffffffffffffffffffffffffffffffffff03821115612ddf57612dde612fee565b5b828201905092915050565b6000612df582612ec8565b9150612e0083612ec8565b9250817fffffffffffffffffffffffffffffffffffffffffffffffffffffffffffffffff0483118215151615612e3957612e38612fee565b5b828202905092915050565b6000612e4f82612ec8565b9150612e5a83612ec8565b925082821015612e6d57612e6c612fee565b5b828203905092915050565b6000612e8382612ea8565b9050919050565b6000612e9582612ea8565b9050919050565b60008115159050919050565b600073ffffffffffffffffffffffffffffffffffffffff82169050919050565b6000819050919050565b6000612edd82612ee4565b9050919050565b6000612eef82612ef6565b9050919050565b6000612f0182612ea8565b9050919050565b82818337600083830152505050565b60005b83811015612f35578082015181840152602081019050612f1a565b83811115612f44576000848401525b50505050565b6000612f5582612ec8565b91506000821415612f6957612f68612fee565b5b600182039050919050565b612f7d8261304c565b810181811067ffffffffffffffff82111715612f9c57612f9b61301d565b5b80604052505050565b6000612fb082612ec8565b91507fffffffffffffffffffffffffffffffffffffffffffffffffffffffffffffffff821415612fe357612fe2612fee565b5b600182019050919050565b7f4e487b7100000000000000000000000000000000000000000000000000000000600052601160045260246000fd5b7f4e487b7100000000000000000000000000000000000000000000000000000000600052604160045260246000fd5b6000601f19601f8301169050919050565b7f4f6e6c79207468652073656c6c65722063616e20656e6420746865206175637460008201527f696f6e0000000000000000000000000000000000000000000000000000000000602082015250565b7f596f7520617265206e6f742074686520636f6e7472616374206f776e65720000600082015250565b7f41756374696f6e206973207374696c6c206f6e676f696e672100000000000000600082015250565b7f4d75737420626964206d6f7265207468616e20746865206c617374206869676860008201527f6573742062696464657200000000000000000000000000000000000000000000602082015250565b7f456e646564210000000000000000000000000000000000000000000000000000600082015250565b7f57696e6e696e6720426964646572732063616e6e6f742077697468647261772060008201527f7468656972206269647300000000000000000000000000000000000000000000602082015250565b7f5468652041756374696f6e206861736e27742073746172746564207965742e00600082015250565b7f416c726561647920537461727465642100000000000000000000000000000000600082015250565b7f4e6f7420737461727465642e0000000000000000000000000000000000000000600082015250565b50565b7f4d7573742042696420486967686572207468616e206f7220657175616c20746f60008201527f20466c6f6f720000000000000000000000000000000000000000000000000000602082015250565b7f596f75206d75737420696e6372656173652062696420746f206164642061206260008201527f6964646572000000000000000000000000000000000000000000000000000000602082015250565b7f41756374696f6e20616c726561647920656e6465642100000000000000000000600082015250565b7f5265656e7472616e637947756172643a207265656e7472616e742063616c6c00600082015250565b7f436f756c64206e6f742077697468647261770000000000000000000000000000600082015250565b61336581612e78565b811461337057600080fd5b50565b61337c81612ec8565b811461338757600080fd5b5056fea264697066735822122009aa430b5eeae53f5a8e966bcc9f0d8b0dbebe9723afa507209306d15c3cf12164736f6c63430008040033",
  "linkReferences": {},
  "deployedLinkReferences": {}
}