{
  "_format": "hh-sol-artifact-1",
  "contractName": "LiveMintAuction",
  "sourceName": "contracts/LiveMint.sol",
  "abi": [
    {
      "inputs": [
        {
          "internalType": "address",
          "name": "_nftContract",
          "type": "address"
        }
      ],
      "stateMutability": "nonpayable",
      "type": "constructor"
    },
    {
      "anonymous": false,
      "inputs": [
        {
          "indexed": true,
          "internalType": "address",
          "name": "sender",
          "type": "address"
        },
        {
          "indexed": false,
          "internalType": "uint256",
          "name": "amount",
          "type": "uint256"
        },
        {
          "indexed": false,
          "internalType": "uint256",
          "name": "tokenId",
          "type": "uint256"
        }
      ],
      "name": "Bid",
      "type": "event"
    },
    {
      "anonymous": false,
      "inputs": [
        {
          "indexed": false,
          "internalType": "address",
          "name": "highestBidder",
          "type": "address"
        },
        {
          "indexed": false,
          "internalType": "uint256",
          "name": "highestBid",
          "type": "uint256"
        },
        {
          "indexed": false,
          "internalType": "uint256",
          "name": "tokenId",
          "type": "uint256"
        }
      ],
      "name": "End",
      "type": "event"
    },
    {
      "anonymous": false,
      "inputs": [
        {
          "indexed": false,
          "internalType": "uint256",
          "name": "tokenId",
          "type": "uint256"
        },
        {
          "indexed": false,
          "internalType": "uint256",
          "name": "highestBid",
          "type": "uint256"
        }
      ],
      "name": "Start",
      "type": "event"
    },
    {
      "anonymous": false,
      "inputs": [
        {
          "indexed": true,
          "internalType": "address",
          "name": "bidder",
          "type": "address"
        },
        {
          "indexed": false,
          "internalType": "uint256",
          "name": "amount",
          "type": "uint256"
        }
      ],
      "name": "Withdraw",
      "type": "event"
    },
    {
      "inputs": [],
      "name": "bid",
      "outputs": [],
      "stateMutability": "payable",
      "type": "function"
    },
    {
      "inputs": [
        {
          "internalType": "uint256",
          "name": "",
          "type": "uint256"
        },
        {
          "internalType": "address",
          "name": "",
          "type": "address"
        }
      ],
      "name": "bids",
      "outputs": [
        {
          "internalType": "uint256",
          "name": "",
          "type": "uint256"
        }
      ],
      "stateMutability": "view",
      "type": "function"
    },
    {
      "inputs": [
        {
          "internalType": "string",
          "name": "tokenURI",
          "type": "string"
        }
      ],
      "name": "end",
      "outputs": [],
      "stateMutability": "nonpayable",
      "type": "function"
    },
    {
      "inputs": [],
      "name": "endAt",
      "outputs": [
        {
          "internalType": "uint256",
          "name": "",
          "type": "uint256"
        }
      ],
      "stateMutability": "view",
      "type": "function"
    },
    {
      "inputs": [],
      "name": "ended",
      "outputs": [
        {
          "internalType": "bool",
          "name": "",
          "type": "bool"
        }
      ],
      "stateMutability": "view",
      "type": "function"
    },
    {
      "inputs": [
        {
          "internalType": "uint256",
          "name": "",
          "type": "uint256"
        },
        {
          "internalType": "address",
          "name": "",
          "type": "address"
        }
      ],
      "name": "fundsByBidder",
      "outputs": [
        {
          "internalType": "uint256",
          "name": "",
          "type": "uint256"
        }
      ],
      "stateMutability": "view",
      "type": "function"
    },
    {
      "inputs": [
        {
          "internalType": "uint256",
          "name": "tokenId",
          "type": "uint256"
        }
      ],
      "name": "getBid",
      "outputs": [
        {
          "internalType": "uint256",
          "name": "",
          "type": "uint256"
        }
      ],
      "stateMutability": "view",
      "type": "function"
    },
    {
      "inputs": [],
      "name": "getCurrentItem",
      "outputs": [
        {
          "internalType": "uint256",
          "name": "",
          "type": "uint256"
        }
      ],
      "stateMutability": "view",
      "type": "function"
    },
    {
      "inputs": [],
      "name": "getEndAt",
      "outputs": [
        {
          "internalType": "uint256",
          "name": "",
          "type": "uint256"
        }
      ],
      "stateMutability": "view",
      "type": "function"
    },
    {
      "inputs": [
        {
          "internalType": "uint256",
          "name": "tokenId",
          "type": "uint256"
        }
      ],
      "name": "getHighestBidBidder",
      "outputs": [
        {
          "internalType": "uint256",
          "name": "",
          "type": "uint256"
        },
        {
          "internalType": "address",
          "name": "",
          "type": "address"
        }
      ],
      "stateMutability": "view",
      "type": "function"
    },
    {
      "inputs": [],
      "name": "highestBid",
      "outputs": [
        {
          "internalType": "uint256",
          "name": "",
          "type": "uint256"
        }
      ],
      "stateMutability": "view",
      "type": "function"
    },
    {
      "inputs": [],
      "name": "highestBidder",
      "outputs": [
        {
          "internalType": "address",
          "name": "",
          "type": "address"
        }
      ],
      "stateMutability": "view",
      "type": "function"
    },
    {
      "inputs": [],
      "name": "isStarted",
      "outputs": [
        {
          "internalType": "bool",
          "name": "",
          "type": "bool"
        }
      ],
      "stateMutability": "view",
      "type": "function"
    },
    {
      "inputs": [],
      "name": "nftId",
      "outputs": [
        {
          "internalType": "uint256",
          "name": "",
          "type": "uint256"
        }
      ],
      "stateMutability": "view",
      "type": "function"
    },
    {
      "inputs": [],
      "name": "seller",
      "outputs": [
        {
          "internalType": "address payable",
          "name": "",
          "type": "address"
        }
      ],
      "stateMutability": "view",
      "type": "function"
    },
    {
      "inputs": [
        {
          "internalType": "uint256",
          "name": "timeOfAuction",
          "type": "uint256"
        },
        {
          "internalType": "uint256",
          "name": "startingBid",
          "type": "uint256"
        }
      ],
      "name": "start",
      "outputs": [],
      "stateMutability": "nonpayable",
      "type": "function"
    },
    {
      "inputs": [],
      "name": "started",
      "outputs": [
        {
          "internalType": "bool",
          "name": "",
          "type": "bool"
        }
      ],
      "stateMutability": "view",
      "type": "function"
    },
    {
      "inputs": [],
      "name": "withdraw",
      "outputs": [],
      "stateMutability": "payable",
      "type": "function"
    }
  ],
  "bytecode": "0x60806040523480156200001157600080fd5b5060405162002051380380620020518339818101604052810190620000379190620000df565b600160008190555033600160006101000a81548173ffffffffffffffffffffffffffffffffffffffff021916908373ffffffffffffffffffffffffffffffffffffffff16021790555080600560006101000a81548173ffffffffffffffffffffffffffffffffffffffff021916908373ffffffffffffffffffffffffffffffffffffffff1602179055505062000159565b600081519050620000d9816200013f565b92915050565b600060208284031215620000f257600080fd5b60006200010284828501620000c8565b91505092915050565b600062000118826200011f565b9050919050565b600073ffffffffffffffffffffffffffffffffffffffff82169050919050565b6200014a816200010b565b81146200015657600080fd5b50565b611ee880620001696000396000f3fe6080604052600436106101095760003560e01c8063544736e6116100955780638fb4b573116100645780638fb4b57314610344578063900a974e1461036d57806391f9015714610396578063c6bc5182146103c1578063d57bde79146103ec57610109565b8063544736e6146102985780635e3660b5146102c35780636f74a9ea146102ee5780637cc3ae8c1461031957610109565b806326fe3065116100dc57806326fe30651461019957806331a906ed146101d65780633c889e6f146102145780633ccfd60b146102515780633f1ffcec1461025b57610109565b806308551a531461010e57806312fa6feb146101395780631998aeef146101645780631f2698ab1461016e575b600080fd5b34801561011a57600080fd5b50610123610417565b60405161013091906117cf565b60405180910390f35b34801561014557600080fd5b5061014e61043d565b60405161015b919061188f565b60405180910390f35b61016c610450565b005b34801561017a57600080fd5b506101836106fe565b604051610190919061188f565b60405180910390f35b3480156101a557600080fd5b506101c060048036038101906101bb919061157d565b610711565b6040516101cd91906119ec565b60405180910390f35b3480156101e257600080fd5b506101fd60048036038101906101f8919061152b565b610736565b60405161020b929190611a07565b60405180910390f35b34801561022057600080fd5b5061023b6004803603810190610236919061152b565b610768565b60405161024891906119ec565b60405180910390f35b6102596107c2565b005b34801561026757600080fd5b50610282600480360381019061027d919061157d565b61095f565b60405161028f91906119ec565b60405180910390f35b3480156102a457600080fd5b506102ad610984565b6040516102ba919061188f565b60405180910390f35b3480156102cf57600080fd5b506102d86109ac565b6040516102e591906119ec565b60405180910390f35b3480156102fa57600080fd5b506103036109b6565b60405161031091906119ec565b60405180910390f35b34801561032557600080fd5b5061032e610a68565b60405161033b91906119ec565b60405180910390f35b34801561035057600080fd5b5061036b600480360381019061036691906115b9565b610a6e565b005b34801561037957600080fd5b50610394600480360381019061038f91906114ea565b610c9b565b005b3480156103a257600080fd5b506103ab6113d3565b6040516103b891906117b4565b60405180910390f35b3480156103cd57600080fd5b506103d66113f9565b6040516103e391906119ec565b60405180910390f35b3480156103f857600080fd5b506104016113ff565b60405161040e91906119ec565b60405180910390f35b600160009054906101000a900473ffffffffffffffffffffffffffffffffffffffff1681565b600160159054906101000a900460ff1681565b600160149054906101000a900460ff1661049f576040517f08c379a00000000000000000000000000000000000000000000000000000000081526004016104969061198c565b60405180910390fd5b60025442106104e3576040517f08c379a00000000000000000000000000000000000000000000000000000000081526004016104da9061192c565b60405180910390fd5b60045434116104f157600080fd5b600073ffffffffffffffffffffffffffffffffffffffff16600360009054906101000a900473ffffffffffffffffffffffffffffffffffffffff1673ffffffffffffffffffffffffffffffffffffffff16146105d5576004546007600060065481526020019081526020016000206000600360009054906101000a900473ffffffffffffffffffffffffffffffffffffffff1673ffffffffffffffffffffffffffffffffffffffff1673ffffffffffffffffffffffffffffffffffffffff16815260200190815260200160002060008282546105cd9190611acb565b925050819055505b3460086000600654815260200190815260200160002060003373ffffffffffffffffffffffffffffffffffffffff1673ffffffffffffffffffffffffffffffffffffffff16815260200190815260200160002060008282546106379190611acb565b925050819055503460048190555033600360006101000a81548173ffffffffffffffffffffffffffffffffffffffff021916908373ffffffffffffffffffffffffffffffffffffffff160217905550600360009054906101000a900473ffffffffffffffffffffffffffffffffffffffff1673ffffffffffffffffffffffffffffffffffffffff167f19421268847f42dd61705778018ddfc43bcdce8517e7a630acb12f122c7094816004546006546040516106f4929190611a30565b60405180910390a2565b600160149054906101000a900460ff1681565b6008602052816000526040600020602052806000526040600020600091509150505481565b600080600454600360009054906101000a900473ffffffffffffffffffffffffffffffffffffffff1691509150915091565b60006007600083815260200190815260200160002060003373ffffffffffffffffffffffffffffffffffffffff1673ffffffffffffffffffffffffffffffffffffffff168152602001908152602001600020549050919050565b60026000541415610808576040517f08c379a00000000000000000000000000000000000000000000000000000000081526004016107ff906119cc565b60405180910390fd5b6002600081905550600060076000600654815260200190815260200160002060003373ffffffffffffffffffffffffffffffffffffffff1673ffffffffffffffffffffffffffffffffffffffff168152602001908152602001600020549050600060076000600654815260200190815260200160002060003373ffffffffffffffffffffffffffffffffffffffff1673ffffffffffffffffffffffffffffffffffffffff168152602001908152602001600020819055503373ffffffffffffffffffffffffffffffffffffffff166108fc829081150290604051600060405180830381858888f19350505050158015610905573d6000803e3d6000fd5b503373ffffffffffffffffffffffffffffffffffffffff167f884edad9ce6fa2440d8a54cc123490eb96d2768479d49ff9c7366125a94243648260405161094c91906119ec565b60405180910390a2506001600081905550565b6007602052816000526040600020602052806000526040600020600091509150505481565b6000600160149054906101000a900460ff16156109a457600190506109a9565b600090505b90565b6000600254905090565b600080600560009054906101000a900473ffffffffffffffffffffffffffffffffffffffff16905060008173ffffffffffffffffffffffffffffffffffffffff16636c1438626040518163ffffffff1660e01b815260040160206040518083038186803b158015610a2657600080fd5b505afa158015610a3a573d6000803e3d6000fd5b505050506040513d601f19601f82011682018060405250810190610a5e9190611554565b9050809250505090565b60025481565b600160149054906101000a900460ff1615610abe576040517f08c379a0000000000000000000000000000000000000000000000000000000008152600401610ab59061196c565b60405180910390fd5b600160009054906101000a900473ffffffffffffffffffffffffffffffffffffffff1673ffffffffffffffffffffffffffffffffffffffff163373ffffffffffffffffffffffffffffffffffffffff1614610b4e576040517f08c379a0000000000000000000000000000000000000000000000000000000008152600401610b45906118ec565b60405180910390fd5b6000600560009054906101000a900473ffffffffffffffffffffffffffffffffffffffff16905060008173ffffffffffffffffffffffffffffffffffffffff16636c1438626040518163ffffffff1660e01b815260040160206040518083038186803b158015610bbd57600080fd5b505afa158015610bd1573d6000803e3d6000fd5b505050506040513d601f19601f82011682018060405250810190610bf59190611554565b90508060068190555060018060146101000a81548160ff0219169083151502179055506000600160156101000a81548160ff021916908315150217905550603c84610c409190611b21565b42610c4b9190611acb565b600281905550826004819055507f5a7d5f50ab70a39d193bf53f0fb995377776df93bb6fdcf1cd1868b7e0dd44ee600654600454604051610c8d929190611a30565b60405180910390a150505050565b60026000541415610ce1576040517f08c379a0000000000000000000000000000000000000000000000000000000008152600401610cd8906119cc565b60405180910390fd5b6002600081905550600160149054906101000a900460ff16610d38576040517f08c379a0000000000000000000000000000000000000000000000000000000008152600401610d2f9061194c565b60405180910390fd5b600254421015610d7d576040517f08c379a0000000000000000000000000000000000000000000000000000000008152600401610d749061190c565b60405180910390fd5b600160159054906101000a900460ff1615610dcd576040517f08c379a0000000000000000000000000000000000000000000000000000000008152600401610dc4906119ac565b60405180910390fd5b600160009054906101000a900473ffffffffffffffffffffffffffffffffffffffff1673ffffffffffffffffffffffffffffffffffffffff163373ffffffffffffffffffffffffffffffffffffffff1614610e5d576040517f08c379a0000000000000000000000000000000000000000000000000000000008152600401610e54906118cc565b60405180910390fd5b6000600560009054906101000a900473ffffffffffffffffffffffffffffffffffffffff169050600073ffffffffffffffffffffffffffffffffffffffff16600360009054906101000a900473ffffffffffffffffffffffffffffffffffffffff1673ffffffffffffffffffffffffffffffffffffffff161461113d5760008173ffffffffffffffffffffffffffffffffffffffff1663d85d3d27846040518263ffffffff1660e01b8152600401610f1591906118aa565b602060405180830381600087803b158015610f2f57600080fd5b505af1158015610f43573d6000803e3d6000fd5b505050506040513d601f19601f82011682018060405250810190610f679190611554565b90506000600560009054906101000a900473ffffffffffffffffffffffffffffffffffffffff1673ffffffffffffffffffffffffffffffffffffffff16636352211e836040518263ffffffff1660e01b8152600401610fc691906119ec565b60206040518083038186803b158015610fde57600080fd5b505afa158015610ff2573d6000803e3d6000fd5b505050506040513d601f19601f8201168201806040525081019061101691906114c1565b9050600560009054906101000a900473ffffffffffffffffffffffffffffffffffffffff1673ffffffffffffffffffffffffffffffffffffffff166323b872dd82600360009054906101000a900473ffffffffffffffffffffffffffffffffffffffff16856040518463ffffffff1660e01b815260040161109993929190611821565b600060405180830381600087803b1580156110b357600080fd5b505af11580156110c7573d6000803e3d6000fd5b50505050600160009054906101000a900473ffffffffffffffffffffffffffffffffffffffff1673ffffffffffffffffffffffffffffffffffffffff166108fc6004549081150290604051600060405180830381858888f19350505050158015611135573d6000803e3d6000fd5b505050611331565b60008173ffffffffffffffffffffffffffffffffffffffff1663d85d3d27846040518263ffffffff1660e01b815260040161117891906118aa565b602060405180830381600087803b15801561119257600080fd5b505af11580156111a6573d6000803e3d6000fd5b505050506040513d601f19601f820116820180604052508101906111ca9190611554565b90506000600560009054906101000a900473ffffffffffffffffffffffffffffffffffffffff1673ffffffffffffffffffffffffffffffffffffffff16636352211e836040518263ffffffff1660e01b815260040161122991906119ec565b60206040518083038186803b15801561124157600080fd5b505afa158015611255573d6000803e3d6000fd5b505050506040513d601f19601f8201168201806040525081019061127991906114c1565b9050600560009054906101000a900473ffffffffffffffffffffffffffffffffffffffff1673ffffffffffffffffffffffffffffffffffffffff166323b872dd82600160009054906101000a900473ffffffffffffffffffffffffffffffffffffffff16856040518463ffffffff1660e01b81526004016112fc939291906117ea565b600060405180830381600087803b15801561131657600080fd5b505af115801561132a573d6000803e3d6000fd5b5050505050505b60018060156101000a81548160ff0219169083151502179055506000600160146101000a81548160ff0219169083151502179055507ff58cfa488d8d9ddd26ddfc3dd52f23711c05cb37db31bda0b1b27d1bdfb56e53600360009054906101000a900473ffffffffffffffffffffffffffffffffffffffff166004546006546040516113bf93929190611858565b60405180910390a150600160008190555050565b600360009054906101000a900473ffffffffffffffffffffffffffffffffffffffff1681565b60065481565b60045481565b600061141861141384611a7e565b611a59565b90508281526020810184848401111561143057600080fd5b61143b848285611c0b565b509392505050565b60008135905061145281611e84565b92915050565b60008151905061146781611e84565b92915050565b600082601f83011261147e57600080fd5b813561148e848260208601611405565b91505092915050565b6000813590506114a681611e9b565b92915050565b6000815190506114bb81611e9b565b92915050565b6000602082840312156114d357600080fd5b60006114e184828501611458565b91505092915050565b6000602082840312156114fc57600080fd5b600082013567ffffffffffffffff81111561151657600080fd5b6115228482850161146d565b91505092915050565b60006020828403121561153d57600080fd5b600061154b84828501611497565b91505092915050565b60006020828403121561156657600080fd5b6000611574848285016114ac565b91505092915050565b6000806040838503121561159057600080fd5b600061159e85828601611497565b92505060206115af85828601611443565b9150509250929050565b600080604083850312156115cc57600080fd5b60006115da85828601611497565b92505060206115eb85828601611497565b9150509250929050565b6115fe81611bd5565b82525050565b61160d81611b8d565b82525050565b61161c81611b7b565b82525050565b61162b81611b9f565b82525050565b600061163c82611aaf565b6116468185611aba565b9350611656818560208601611c1a565b61165f81611cdc565b840191505092915050565b6000611677602383611aba565b915061168282611ced565b604082019050919050565b600061169a601e83611aba565b91506116a582611d3c565b602082019050919050565b60006116bd601983611aba565b91506116c882611d65565b602082019050919050565b60006116e0600683611aba565b91506116eb82611d8e565b602082019050919050565b6000611703601f83611aba565b915061170e82611db7565b602082019050919050565b6000611726601083611aba565b915061173182611de0565b602082019050919050565b6000611749600c83611aba565b915061175482611e09565b602082019050919050565b600061176c601683611aba565b915061177782611e32565b602082019050919050565b600061178f601f83611aba565b915061179a82611e5b565b602082019050919050565b6117ae81611bcb565b82525050565b60006020820190506117c96000830184611613565b92915050565b60006020820190506117e46000830184611604565b92915050565b60006060820190506117ff6000830186611613565b61180c60208301856115f5565b61181960408301846117a5565b949350505050565b60006060820190506118366000830186611613565b6118436020830185611613565b61185060408301846117a5565b949350505050565b600060608201905061186d6000830186611613565b61187a60208301856117a5565b61188760408301846117a5565b949350505050565b60006020820190506118a46000830184611622565b92915050565b600060208201905081810360008301526118c48184611631565b905092915050565b600060208201905081810360008301526118e58161166a565b9050919050565b600060208201905081810360008301526119058161168d565b9050919050565b60006020820190508181036000830152611925816116b0565b9050919050565b60006020820190508181036000830152611945816116d3565b9050919050565b60006020820190508181036000830152611965816116f6565b9050919050565b6000602082019050818103600083015261198581611719565b9050919050565b600060208201905081810360008301526119a58161173c565b9050919050565b600060208201905081810360008301526119c58161175f565b9050919050565b600060208201905081810360008301526119e581611782565b9050919050565b6000602082019050611a0160008301846117a5565b92915050565b6000604082019050611a1c60008301856117a5565b611a296020830184611613565b9392505050565b6000604082019050611a4560008301856117a5565b611a5260208301846117a5565b9392505050565b6000611a63611a74565b9050611a6f8282611c4d565b919050565b6000604051905090565b600067ffffffffffffffff821115611a9957611a98611cad565b5b611aa282611cdc565b9050602081019050919050565b600081519050919050565b600082825260208201905092915050565b6000611ad682611bcb565b9150611ae183611bcb565b9250827fffffffffffffffffffffffffffffffffffffffffffffffffffffffffffffffff03821115611b1657611b15611c7e565b5b828201905092915050565b6000611b2c82611bcb565b9150611b3783611bcb565b9250817fffffffffffffffffffffffffffffffffffffffffffffffffffffffffffffffff0483118215151615611b7057611b6f611c7e565b5b828202905092915050565b6000611b8682611bab565b9050919050565b6000611b9882611bab565b9050919050565b60008115159050919050565b600073ffffffffffffffffffffffffffffffffffffffff82169050919050565b6000819050919050565b6000611be082611be7565b9050919050565b6000611bf282611bf9565b9050919050565b6000611c0482611bab565b9050919050565b82818337600083830152505050565b60005b83811015611c38578082015181840152602081019050611c1d565b83811115611c47576000848401525b50505050565b611c5682611cdc565b810181811067ffffffffffffffff82111715611c7557611c74611cad565b5b80604052505050565b7f4e487b7100000000000000000000000000000000000000000000000000000000600052601160045260246000fd5b7f4e487b7100000000000000000000000000000000000000000000000000000000600052604160045260246000fd5b6000601f19601f8301169050919050565b7f4f6e6c79207468652073656c6c65722063616e20656e6420746865206175637460008201527f696f6e0000000000000000000000000000000000000000000000000000000000602082015250565b7f596f7520617265206e6f742074686520636f6e7472616374206f776e65720000600082015250565b7f41756374696f6e206973207374696c6c206f6e676f696e672100000000000000600082015250565b7f456e646564210000000000000000000000000000000000000000000000000000600082015250565b7f5468652041756374696f6e206861736e27742073746172746564207965742e00600082015250565b7f416c726561647920537461727465642100000000000000000000000000000000600082015250565b7f4e6f7420737461727465642e0000000000000000000000000000000000000000600082015250565b7f41756374696f6e20616c726561647920656e6465642100000000000000000000600082015250565b7f5265656e7472616e637947756172643a207265656e7472616e742063616c6c00600082015250565b611e8d81611b7b565b8114611e9857600080fd5b50565b611ea481611bcb565b8114611eaf57600080fd5b5056fea26469706673582212202a48537ac1304dccc4a03306ee03efa73d54975c46e3d012ee738eb20a5ffbdd64736f6c63430008040033",
  "linkReferences": {},
  "deployedLinkReferences": {}
}