{
  "_format": "hh-sol-artifact-1",
  "contractName": "LiveMintFactory",
  "sourceName": "contracts/LiveMint.sol",
  "abi": [
    {
      "inputs": [
        {
          "internalType": "string",
          "name": "name",
          "type": "string"
        },
        {
          "internalType": "string",
          "name": "symbol",
          "type": "string"
        },
        {
          "internalType": "address payable",
          "name": "artist",
          "type": "address"
        },
        {
          "internalType": "uint256",
          "name": "_mintAmount",
          "type": "uint256"
        },
        {
          "internalType": "uint96",
          "name": "_royaltyValue",
          "type": "uint96"
        }
      ],
      "stateMutability": "nonpayable",
      "type": "constructor"
    },
    {
      "anonymous": false,
      "inputs": [
        {
          "indexed": true,
          "internalType": "address",
          "name": "owner",
          "type": "address"
        },
        {
          "indexed": true,
          "internalType": "address",
          "name": "approved",
          "type": "address"
        },
        {
          "indexed": true,
          "internalType": "uint256",
          "name": "tokenId",
          "type": "uint256"
        }
      ],
      "name": "Approval",
      "type": "event"
    },
    {
      "anonymous": false,
      "inputs": [
        {
          "indexed": true,
          "internalType": "address",
          "name": "owner",
          "type": "address"
        },
        {
          "indexed": true,
          "internalType": "address",
          "name": "operator",
          "type": "address"
        },
        {
          "indexed": false,
          "internalType": "bool",
          "name": "approved",
          "type": "bool"
        }
      ],
      "name": "ApprovalForAll",
      "type": "event"
    },
    {
      "anonymous": false,
      "inputs": [
        {
          "indexed": true,
          "internalType": "address",
          "name": "previousOwner",
          "type": "address"
        },
        {
          "indexed": true,
          "internalType": "address",
          "name": "newOwner",
          "type": "address"
        }
      ],
      "name": "OwnershipTransferred",
      "type": "event"
    },
    {
      "anonymous": false,
      "inputs": [
        {
          "indexed": true,
          "internalType": "address",
          "name": "from",
          "type": "address"
        },
        {
          "indexed": true,
          "internalType": "address",
          "name": "to",
          "type": "address"
        },
        {
          "indexed": true,
          "internalType": "uint256",
          "name": "tokenId",
          "type": "uint256"
        }
      ],
      "name": "Transfer",
      "type": "event"
    },
    {
      "inputs": [
        {
          "internalType": "address",
          "name": "to",
          "type": "address"
        },
        {
          "internalType": "uint256",
          "name": "tokenId",
          "type": "uint256"
        }
      ],
      "name": "approve",
      "outputs": [],
      "stateMutability": "nonpayable",
      "type": "function"
    },
    {
      "inputs": [
        {
          "internalType": "address",
          "name": "owner",
          "type": "address"
        }
      ],
      "name": "balanceOf",
      "outputs": [
        {
          "internalType": "uint256",
          "name": "",
          "type": "uint256"
        }
      ],
      "stateMutability": "view",
      "type": "function"
    },
    {
      "inputs": [
        {
          "internalType": "uint256",
          "name": "tokenId",
          "type": "uint256"
        }
      ],
      "name": "getApproved",
      "outputs": [
        {
          "internalType": "address",
          "name": "",
          "type": "address"
        }
      ],
      "stateMutability": "view",
      "type": "function"
    },
    {
      "inputs": [
        {
          "internalType": "address",
          "name": "owner",
          "type": "address"
        },
        {
          "internalType": "address",
          "name": "operator",
          "type": "address"
        }
      ],
      "name": "isApprovedForAll",
      "outputs": [
        {
          "internalType": "bool",
          "name": "",
          "type": "bool"
        }
      ],
      "stateMutability": "view",
      "type": "function"
    },
    {
      "inputs": [],
      "name": "mint",
      "outputs": [
        {
          "internalType": "uint256",
          "name": "",
          "type": "uint256"
        }
      ],
      "stateMutability": "nonpayable",
      "type": "function"
    },
    {
      "inputs": [],
      "name": "name",
      "outputs": [
        {
          "internalType": "string",
          "name": "",
          "type": "string"
        }
      ],
      "stateMutability": "view",
      "type": "function"
    },
    {
      "inputs": [],
      "name": "owner",
      "outputs": [
        {
          "internalType": "address",
          "name": "",
          "type": "address"
        }
      ],
      "stateMutability": "view",
      "type": "function"
    },
    {
      "inputs": [
        {
          "internalType": "uint256",
          "name": "tokenId",
          "type": "uint256"
        }
      ],
      "name": "ownerOf",
      "outputs": [
        {
          "internalType": "address",
          "name": "",
          "type": "address"
        }
      ],
      "stateMutability": "view",
      "type": "function"
    },
    {
      "inputs": [],
      "name": "renounceOwnership",
      "outputs": [],
      "stateMutability": "nonpayable",
      "type": "function"
    },
    {
      "inputs": [
        {
          "internalType": "uint256",
          "name": "_tokenId",
          "type": "uint256"
        },
        {
          "internalType": "uint256",
          "name": "_salePrice",
          "type": "uint256"
        }
      ],
      "name": "royaltyInfo",
      "outputs": [
        {
          "internalType": "address",
          "name": "",
          "type": "address"
        },
        {
          "internalType": "uint256",
          "name": "",
          "type": "uint256"
        }
      ],
      "stateMutability": "view",
      "type": "function"
    },
    {
      "inputs": [
        {
          "internalType": "address",
          "name": "from",
          "type": "address"
        },
        {
          "internalType": "address",
          "name": "to",
          "type": "address"
        },
        {
          "internalType": "uint256",
          "name": "tokenId",
          "type": "uint256"
        }
      ],
      "name": "safeTransferFrom",
      "outputs": [],
      "stateMutability": "nonpayable",
      "type": "function"
    },
    {
      "inputs": [
        {
          "internalType": "address",
          "name": "from",
          "type": "address"
        },
        {
          "internalType": "address",
          "name": "to",
          "type": "address"
        },
        {
          "internalType": "uint256",
          "name": "tokenId",
          "type": "uint256"
        },
        {
          "internalType": "bytes",
          "name": "_data",
          "type": "bytes"
        }
      ],
      "name": "safeTransferFrom",
      "outputs": [],
      "stateMutability": "nonpayable",
      "type": "function"
    },
    {
      "inputs": [
        {
          "internalType": "address",
          "name": "operator",
          "type": "address"
        },
        {
          "internalType": "bool",
          "name": "approved",
          "type": "bool"
        }
      ],
      "name": "setApprovalForAll",
      "outputs": [],
      "stateMutability": "nonpayable",
      "type": "function"
    },
    {
      "inputs": [
        {
          "internalType": "uint256",
          "name": "tokenId",
          "type": "uint256"
        },
        {
          "internalType": "string",
          "name": "tokenURI",
          "type": "string"
        }
      ],
      "name": "setTokenURI",
      "outputs": [],
      "stateMutability": "nonpayable",
      "type": "function"
    },
    {
      "inputs": [
        {
          "internalType": "bytes4",
          "name": "interfaceId",
          "type": "bytes4"
        }
      ],
      "name": "supportsInterface",
      "outputs": [
        {
          "internalType": "bool",
          "name": "",
          "type": "bool"
        }
      ],
      "stateMutability": "view",
      "type": "function"
    },
    {
      "inputs": [],
      "name": "symbol",
      "outputs": [
        {
          "internalType": "string",
          "name": "",
          "type": "string"
        }
      ],
      "stateMutability": "view",
      "type": "function"
    },
    {
      "inputs": [
        {
          "internalType": "uint256",
          "name": "tokenId",
          "type": "uint256"
        }
      ],
      "name": "tokenURI",
      "outputs": [
        {
          "internalType": "string",
          "name": "",
          "type": "string"
        }
      ],
      "stateMutability": "view",
      "type": "function"
    },
    {
      "inputs": [
        {
          "internalType": "address",
          "name": "from",
          "type": "address"
        },
        {
          "internalType": "address",
          "name": "to",
          "type": "address"
        },
        {
          "internalType": "uint256",
          "name": "tokenId",
          "type": "uint256"
        }
      ],
      "name": "transferFrom",
      "outputs": [],
      "stateMutability": "nonpayable",
      "type": "function"
    },
    {
      "inputs": [
        {
          "internalType": "address",
          "name": "newOwner",
          "type": "address"
        }
      ],
      "name": "transferOwnership",
      "outputs": [],
      "stateMutability": "nonpayable",
      "type": "function"
    }
  ],
  "bytecode": "0x60806040523480156200001157600080fd5b5060405162003e7c38038062003e7c83398181016040528101906200003791906200034e565b8484816000908051906020019062000051929190620001e7565b5080600190805190602001906200006a929190620001e7565b5050506200008d620000816200011960201b60201c565b6200012160201b60201c565b6001600a8190555082600d600c6101000a81548173ffffffffffffffffffffffffffffffffffffffff021916908373ffffffffffffffffffffffffffffffffffffffff16021790555081600c8190555080600d60006101000a8154816bffffffffffffffffffffffff02191690836bffffffffffffffffffffffff160217905550505050505062000616565b600033905090565b6000600760009054906101000a900473ffffffffffffffffffffffffffffffffffffffff16905081600760006101000a81548173ffffffffffffffffffffffffffffffffffffffff021916908373ffffffffffffffffffffffffffffffffffffffff1602179055508173ffffffffffffffffffffffffffffffffffffffff168173ffffffffffffffffffffffffffffffffffffffff167f8be0079c531659141344cd1fd0a4f28419497f9722a3daafe3b4186f6b6457e060405160405180910390a35050565b828054620001f590620004ed565b90600052602060002090601f01602090048101928262000219576000855562000265565b82601f106200023457805160ff191683800117855562000265565b8280016001018555821562000265579182015b828111156200026457825182559160200191906001019062000247565b5b50905062000274919062000278565b5090565b5b808211156200029357600081600090555060010162000279565b5090565b6000620002ae620002a8846200042b565b62000402565b905082815260208101848484011115620002c757600080fd5b620002d4848285620004b7565b509392505050565b600081519050620002ed81620005c8565b92915050565b600082601f8301126200030557600080fd5b81516200031784826020860162000297565b91505092915050565b6000815190506200033181620005e2565b92915050565b6000815190506200034881620005fc565b92915050565b600080600080600060a086880312156200036757600080fd5b600086015167ffffffffffffffff8111156200038257600080fd5b6200039088828901620002f3565b955050602086015167ffffffffffffffff811115620003ae57600080fd5b620003bc88828901620002f3565b9450506040620003cf88828901620002dc565b9350506060620003e28882890162000320565b9250506080620003f58882890162000337565b9150509295509295909350565b60006200040e62000421565b90506200041c828262000523565b919050565b6000604051905090565b600067ffffffffffffffff82111562000449576200044862000588565b5b6200045482620005b7565b9050602081019050919050565b60006200046e8262000475565b9050919050565b600073ffffffffffffffffffffffffffffffffffffffff82169050919050565b6000819050919050565b60006bffffffffffffffffffffffff82169050919050565b60005b83811015620004d7578082015181840152602081019050620004ba565b83811115620004e7576000848401525b50505050565b600060028204905060018216806200050657607f821691505b602082108114156200051d576200051c62000559565b5b50919050565b6200052e82620005b7565b810181811067ffffffffffffffff8211171562000550576200054f62000588565b5b80604052505050565b7f4e487b7100000000000000000000000000000000000000000000000000000000600052602260045260246000fd5b7f4e487b7100000000000000000000000000000000000000000000000000000000600052604160045260246000fd5b6000601f19601f8301169050919050565b620005d38162000461565b8114620005df57600080fd5b50565b620005ed8162000495565b8114620005f957600080fd5b50565b62000607816200049f565b81146200061357600080fd5b50565b61385680620006266000396000f3fe608060405234801561001057600080fd5b50600436106101215760003560e01c80636352211e116100ad578063a22cb46511610071578063a22cb46514610309578063b88d4fde14610325578063c87b56dd14610341578063e985e9c514610371578063f2fde38b146103a157610121565b80636352211e1461026357806370a0823114610293578063715018a6146102c35780638da5cb5b146102cd57806395d89b41146102eb57610121565b80631249c58b116100f45780631249c58b146101c0578063162094c4146101de57806323b872dd146101fa5780632a55205a1461021657806342842e0e1461024757610121565b806301ffc9a71461012657806306fdde0314610156578063081812fc14610174578063095ea7b3146101a4575b600080fd5b610140600480360381019061013b919061251c565b6103bd565b60405161014d9190612aad565b60405180910390f35b61015e6103cf565b60405161016b9190612ac8565b60405180910390f35b61018e6004803603810190610189919061256e565b610461565b60405161019b9190612a1d565b60405180910390f35b6101be60048036038101906101b991906124e0565b6104e6565b005b6101c86105fe565b6040516101d59190612daa565b60405180910390f35b6101f860048036038101906101f39190612597565b610786565b005b610214600480360381019061020f91906123da565b610810565b005b610230600480360381019061022b91906125eb565b610870565b60405161023e929190612a84565b60405180910390f35b610261600480360381019061025c91906123da565b610a5b565b005b61027d6004803603810190610278919061256e565b610a7b565b60405161028a9190612a1d565b60405180910390f35b6102ad60048036038101906102a89190612375565b610b2d565b6040516102ba9190612daa565b60405180910390f35b6102cb610be5565b005b6102d5610c6d565b6040516102e29190612a1d565b60405180910390f35b6102f3610c97565b6040516103009190612ac8565b60405180910390f35b610323600480360381019061031e91906124a4565b610d29565b005b61033f600480360381019061033a9190612429565b610d3f565b005b61035b6004803603810190610356919061256e565b610da1565b6040516103689190612ac8565b60405180910390f35b61038b6004803603810190610386919061239e565b610ef3565b6040516103989190612aad565b60405180910390f35b6103bb60048036038101906103b69190612375565b610f87565b005b60006103c88261107f565b9050919050565b6060600080546103de9061305a565b80601f016020809104026020016040519081016040528092919081815260200182805461040a9061305a565b80156104575780601f1061042c57610100808354040283529160200191610457565b820191906000526020600020905b81548152906001019060200180831161043a57829003601f168201915b5050505050905090565b600061046c826110f9565b6104ab576040517f08c379a00000000000000000000000000000000000000000000000000000000081526004016104a290612caa565b60405180910390fd5b6004600083815260200190815260200160002060009054906101000a900473ffffffffffffffffffffffffffffffffffffffff169050919050565b60006104f182610a7b565b90508073ffffffffffffffffffffffffffffffffffffffff168373ffffffffffffffffffffffffffffffffffffffff161415610562576040517f08c379a000000000000000000000000000000000000000000000000000000000815260040161055990612d0a565b60405180910390fd5b8073ffffffffffffffffffffffffffffffffffffffff16610581611165565b73ffffffffffffffffffffffffffffffffffffffff1614806105b057506105af816105aa611165565b610ef3565b5b6105ef576040517f08c379a00000000000000000000000000000000000000000000000000000000081526004016105e690612bea565b60405180910390fd5b6105f9838361116d565b505050565b60006002600a541415610646576040517f08c379a000000000000000000000000000000000000000000000000000000000815260040161063d90612d8a565b60405180910390fd5b6002600a81905550610656611165565b73ffffffffffffffffffffffffffffffffffffffff16610674610c6d565b73ffffffffffffffffffffffffffffffffffffffff16146106ca576040517f08c379a00000000000000000000000000000000000000000000000000000000081526004016106c190612cca565b60405180910390fd5b6106d4600b611226565b60006106e0600b61123c565b905080600c5411610726576040517f08c379a000000000000000000000000000000000000000000000000000000000815260040161071d90612aea565b60405180910390fd5b610730338261124a565b61077781600d600c9054906101000a900473ffffffffffffffffffffffffffffffffffffffff16600d60009054906101000a90046bffffffffffffffffffffffff16611424565b809150506001600a8190555090565b61078e611165565b73ffffffffffffffffffffffffffffffffffffffff166107ac610c6d565b73ffffffffffffffffffffffffffffffffffffffff1614610802576040517f08c379a00000000000000000000000000000000000000000000000000000000081526004016107f990612cca565b60405180910390fd5b61080c82826115cc565b5050565b61082161081b611165565b82611640565b610860576040517f08c379a000000000000000000000000000000000000000000000000000000000815260040161085790612d2a565b60405180910390fd5b61086b83838361171e565b505050565b6000806000600960008681526020019081526020016000206040518060400160405290816000820160009054906101000a900473ffffffffffffffffffffffffffffffffffffffff1673ffffffffffffffffffffffffffffffffffffffff1673ffffffffffffffffffffffffffffffffffffffff1681526020016000820160149054906101000a90046bffffffffffffffffffffffff166bffffffffffffffffffffffff166bffffffffffffffffffffffff16815250509050600073ffffffffffffffffffffffffffffffffffffffff16816000015173ffffffffffffffffffffffffffffffffffffffff161415610a065760086040518060400160405290816000820160009054906101000a900473ffffffffffffffffffffffffffffffffffffffff1673ffffffffffffffffffffffffffffffffffffffff1673ffffffffffffffffffffffffffffffffffffffff1681526020016000820160149054906101000a90046bffffffffffffffffffffffff166bffffffffffffffffffffffff166bffffffffffffffffffffffff168152505090505b6000610a10611985565b6bffffffffffffffffffffffff1682602001516bffffffffffffffffffffffff1686610a3c9190612f16565b610a469190612ee5565b90508160000151819350935050509250929050565b610a7683838360405180602001604052806000815250610d3f565b505050565b6000806002600084815260200190815260200160002060009054906101000a900473ffffffffffffffffffffffffffffffffffffffff169050600073ffffffffffffffffffffffffffffffffffffffff168173ffffffffffffffffffffffffffffffffffffffff161415610b24576040517f08c379a0000000000000000000000000000000000000000000000000000000008152600401610b1b90612c2a565b60405180910390fd5b80915050919050565b60008073ffffffffffffffffffffffffffffffffffffffff168273ffffffffffffffffffffffffffffffffffffffff161415610b9e576040517f08c379a0000000000000000000000000000000000000000000000000000000008152600401610b9590612c0a565b60405180910390fd5b600360008373ffffffffffffffffffffffffffffffffffffffff1673ffffffffffffffffffffffffffffffffffffffff168152602001908152602001600020549050919050565b610bed611165565b73ffffffffffffffffffffffffffffffffffffffff16610c0b610c6d565b73ffffffffffffffffffffffffffffffffffffffff1614610c61576040517f08c379a0000000000000000000000000000000000000000000000000000000008152600401610c5890612cca565b60405180910390fd5b610c6b600061198f565b565b6000600760009054906101000a900473ffffffffffffffffffffffffffffffffffffffff16905090565b606060018054610ca69061305a565b80601f0160208091040260200160405190810160405280929190818152602001828054610cd29061305a565b8015610d1f5780601f10610cf457610100808354040283529160200191610d1f565b820191906000526020600020905b815481529060010190602001808311610d0257829003601f168201915b5050505050905090565b610d3b610d34611165565b8383611a55565b5050565b610d50610d4a611165565b83611640565b610d8f576040517f08c379a0000000000000000000000000000000000000000000000000000000008152600401610d8690612d2a565b60405180910390fd5b610d9b84848484611bc2565b50505050565b6060610dac826110f9565b610deb576040517f08c379a0000000000000000000000000000000000000000000000000000000008152600401610de290612c8a565b60405180910390fd5b6000600660008481526020019081526020016000208054610e0b9061305a565b80601f0160208091040260200160405190810160405280929190818152602001828054610e379061305a565b8015610e845780601f10610e5957610100808354040283529160200191610e84565b820191906000526020600020905b815481529060010190602001808311610e6757829003601f168201915b505050505090506000610e95611c1e565b9050600081511415610eab578192505050610eee565b600082511115610ee0578082604051602001610ec89291906129f9565b60405160208183030381529060405292505050610eee565b610ee984611c35565b925050505b919050565b6000600560008473ffffffffffffffffffffffffffffffffffffffff1673ffffffffffffffffffffffffffffffffffffffff16815260200190815260200160002060008373ffffffffffffffffffffffffffffffffffffffff1673ffffffffffffffffffffffffffffffffffffffff16815260200190815260200160002060009054906101000a900460ff16905092915050565b610f8f611165565b73ffffffffffffffffffffffffffffffffffffffff16610fad610c6d565b73ffffffffffffffffffffffffffffffffffffffff1614611003576040517f08c379a0000000000000000000000000000000000000000000000000000000008152600401610ffa90612cca565b60405180910390fd5b600073ffffffffffffffffffffffffffffffffffffffff168173ffffffffffffffffffffffffffffffffffffffff161415611073576040517f08c379a000000000000000000000000000000000000000000000000000000000815260040161106a90612b2a565b60405180910390fd5b61107c8161198f565b50565b60007f2a55205a000000000000000000000000000000000000000000000000000000007bffffffffffffffffffffffffffffffffffffffffffffffffffffffff1916827bffffffffffffffffffffffffffffffffffffffffffffffffffffffff191614806110f257506110f182611cdc565b5b9050919050565b60008073ffffffffffffffffffffffffffffffffffffffff166002600084815260200190815260200160002060009054906101000a900473ffffffffffffffffffffffffffffffffffffffff1673ffffffffffffffffffffffffffffffffffffffff1614159050919050565b600033905090565b816004600083815260200190815260200160002060006101000a81548173ffffffffffffffffffffffffffffffffffffffff021916908373ffffffffffffffffffffffffffffffffffffffff160217905550808273ffffffffffffffffffffffffffffffffffffffff166111e083610a7b565b73ffffffffffffffffffffffffffffffffffffffff167f8c5be1e5ebec7d5bd14f71427d1e84f3dd0314c0f7b2291e5b200ac8c7c3b92560405160405180910390a45050565b6001816000016000828254019250508190555050565b600081600001549050919050565b600073ffffffffffffffffffffffffffffffffffffffff168273ffffffffffffffffffffffffffffffffffffffff1614156112ba576040517f08c379a00000000000000000000000000000000000000000000000000000000081526004016112b190612c6a565b60405180910390fd5b6112c3816110f9565b15611303576040517f08c379a00000000000000000000000000000000000000000000000000000000081526004016112fa90612b6a565b60405180910390fd5b61130f60008383611dbe565b6001600360008473ffffffffffffffffffffffffffffffffffffffff1673ffffffffffffffffffffffffffffffffffffffff168152602001908152602001600020600082825461135f9190612e8f565b92505081905550816002600083815260200190815260200160002060006101000a81548173ffffffffffffffffffffffffffffffffffffffff021916908373ffffffffffffffffffffffffffffffffffffffff160217905550808273ffffffffffffffffffffffffffffffffffffffff16600073ffffffffffffffffffffffffffffffffffffffff167fddf252ad1be2c89b69c2b068fc378daa952ba7f163c4a11628f55a4df523b3ef60405160405180910390a461142060008383611dc3565b5050565b61142c611985565b6bffffffffffffffffffffffff16816bffffffffffffffffffffffff16111561148a576040517f08c379a000000000000000000000000000000000000000000000000000000000815260040161148190612d6a565b60405180910390fd5b600073ffffffffffffffffffffffffffffffffffffffff168273ffffffffffffffffffffffffffffffffffffffff1614156114fa576040517f08c379a00000000000000000000000000000000000000000000000000000000081526004016114f190612d4a565b60405180910390fd5b60405180604001604052808373ffffffffffffffffffffffffffffffffffffffff168152602001826bffffffffffffffffffffffff168152506009600085815260200190815260200160002060008201518160000160006101000a81548173ffffffffffffffffffffffffffffffffffffffff021916908373ffffffffffffffffffffffffffffffffffffffff16021790555060208201518160000160146101000a8154816bffffffffffffffffffffffff02191690836bffffffffffffffffffffffff160217905550905050505050565b6115d5826110f9565b611614576040517f08c379a000000000000000000000000000000000000000000000000000000000815260040161160b90612c4a565b60405180910390fd5b8060066000848152602001908152602001600020908051906020019061163b929190612199565b505050565b600061164b826110f9565b61168a576040517f08c379a000000000000000000000000000000000000000000000000000000000815260040161168190612bca565b60405180910390fd5b600061169583610a7b565b90508073ffffffffffffffffffffffffffffffffffffffff168473ffffffffffffffffffffffffffffffffffffffff16148061170457508373ffffffffffffffffffffffffffffffffffffffff166116ec84610461565b73ffffffffffffffffffffffffffffffffffffffff16145b8061171557506117148185610ef3565b5b91505092915050565b8273ffffffffffffffffffffffffffffffffffffffff1661173e82610a7b565b73ffffffffffffffffffffffffffffffffffffffff1614611794576040517f08c379a000000000000000000000000000000000000000000000000000000000815260040161178b90612b4a565b60405180910390fd5b600073ffffffffffffffffffffffffffffffffffffffff168273ffffffffffffffffffffffffffffffffffffffff161415611804576040517f08c379a00000000000000000000000000000000000000000000000000000000081526004016117fb90612b8a565b60405180910390fd5b61180f838383611dbe565b61181a60008261116d565b6001600360008573ffffffffffffffffffffffffffffffffffffffff1673ffffffffffffffffffffffffffffffffffffffff168152602001908152602001600020600082825461186a9190612f70565b925050819055506001600360008473ffffffffffffffffffffffffffffffffffffffff1673ffffffffffffffffffffffffffffffffffffffff16815260200190815260200160002060008282546118c19190612e8f565b92505081905550816002600083815260200190815260200160002060006101000a81548173ffffffffffffffffffffffffffffffffffffffff021916908373ffffffffffffffffffffffffffffffffffffffff160217905550808273ffffffffffffffffffffffffffffffffffffffff168473ffffffffffffffffffffffffffffffffffffffff167fddf252ad1be2c89b69c2b068fc378daa952ba7f163c4a11628f55a4df523b3ef60405160405180910390a4611980838383611dc3565b505050565b6000612710905090565b6000600760009054906101000a900473ffffffffffffffffffffffffffffffffffffffff16905081600760006101000a81548173ffffffffffffffffffffffffffffffffffffffff021916908373ffffffffffffffffffffffffffffffffffffffff1602179055508173ffffffffffffffffffffffffffffffffffffffff168173ffffffffffffffffffffffffffffffffffffffff167f8be0079c531659141344cd1fd0a4f28419497f9722a3daafe3b4186f6b6457e060405160405180910390a35050565b8173ffffffffffffffffffffffffffffffffffffffff168373ffffffffffffffffffffffffffffffffffffffff161415611ac4576040517f08c379a0000000000000000000000000000000000000000000000000000000008152600401611abb90612baa565b60405180910390fd5b80600560008573ffffffffffffffffffffffffffffffffffffffff1673ffffffffffffffffffffffffffffffffffffffff16815260200190815260200160002060008473ffffffffffffffffffffffffffffffffffffffff1673ffffffffffffffffffffffffffffffffffffffff16815260200190815260200160002060006101000a81548160ff0219169083151502179055508173ffffffffffffffffffffffffffffffffffffffff168373ffffffffffffffffffffffffffffffffffffffff167f17307eab39ab6107e8899845ad3d59bd9653f200f220920489ca2b5937696c3183604051611bb59190612aad565b60405180910390a3505050565b611bcd84848461171e565b611bd984848484611dc8565b611c18576040517f08c379a0000000000000000000000000000000000000000000000000000000008152600401611c0f90612b0a565b60405180910390fd5b50505050565b606060405180602001604052806000815250905090565b6060611c40826110f9565b611c7f576040517f08c379a0000000000000000000000000000000000000000000000000000000008152600401611c7690612cea565b60405180910390fd5b6000611c89611c1e565b90506000815111611ca95760405180602001604052806000815250611cd4565b80611cb384611f5f565b604051602001611cc49291906129f9565b6040516020818303038152906040525b915050919050565b60007f80ac58cd000000000000000000000000000000000000000000000000000000007bffffffffffffffffffffffffffffffffffffffffffffffffffffffff1916827bffffffffffffffffffffffffffffffffffffffffffffffffffffffff19161480611da757507f5b5e139f000000000000000000000000000000000000000000000000000000007bffffffffffffffffffffffffffffffffffffffffffffffffffffffff1916827bffffffffffffffffffffffffffffffffffffffffffffffffffffffff1916145b80611db75750611db68261210c565b5b9050919050565b505050565b505050565b6000611de98473ffffffffffffffffffffffffffffffffffffffff16612176565b15611f52578373ffffffffffffffffffffffffffffffffffffffff1663150b7a02611e12611165565b8786866040518563ffffffff1660e01b8152600401611e349493929190612a38565b602060405180830381600087803b158015611e4e57600080fd5b505af1925050508015611e7f57506040513d601f19601f82011682018060405250810190611e7c9190612545565b60015b611f02573d8060008114611eaf576040519150601f19603f3d011682016040523d82523d6000602084013e611eb4565b606091505b50600081511415611efa576040517f08c379a0000000000000000000000000000000000000000000000000000000008152600401611ef190612b0a565b60405180910390fd5b805181602001fd5b63150b7a0260e01b7bffffffffffffffffffffffffffffffffffffffffffffffffffffffff1916817bffffffffffffffffffffffffffffffffffffffffffffffffffffffff191614915050611f57565b600190505b949350505050565b60606000821415611fa7576040518060400160405280600181526020017f30000000000000000000000000000000000000000000000000000000000000008152509050612107565b600082905060005b60008214611fd9578080611fc2906130bd565b915050600a82611fd29190612ee5565b9150611faf565b60008167ffffffffffffffff81111561201b577f4e487b7100000000000000000000000000000000000000000000000000000000600052604160045260246000fd5b6040519080825280601f01601f19166020018201604052801561204d5781602001600182028036833780820191505090505b5090505b60008514612100576001826120669190612f70565b9150600a856120759190613106565b60306120819190612e8f565b60f81b8183815181106120bd577f4e487b7100000000000000000000000000000000000000000000000000000000600052603260045260246000fd5b60200101907effffffffffffffffffffffffffffffffffffffffffffffffffffffffffffff1916908160001a905350600a856120f99190612ee5565b9450612051565b8093505050505b919050565b60007f01ffc9a7000000000000000000000000000000000000000000000000000000007bffffffffffffffffffffffffffffffffffffffffffffffffffffffff1916827bffffffffffffffffffffffffffffffffffffffffffffffffffffffff1916149050919050565b6000808273ffffffffffffffffffffffffffffffffffffffff163b119050919050565b8280546121a59061305a565b90600052602060002090601f0160209004810192826121c7576000855561220e565b82601f106121e057805160ff191683800117855561220e565b8280016001018555821561220e579182015b8281111561220d5782518255916020019190600101906121f2565b5b50905061221b919061221f565b5090565b5b80821115612238576000816000905550600101612220565b5090565b600061224f61224a84612dea565b612dc5565b90508281526020810184848401111561226757600080fd5b612272848285613018565b509392505050565b600061228d61228884612e1b565b612dc5565b9050828152602081018484840111156122a557600080fd5b6122b0848285613018565b509392505050565b6000813590506122c7816137c4565b92915050565b6000813590506122dc816137db565b92915050565b6000813590506122f1816137f2565b92915050565b600081519050612306816137f2565b92915050565b600082601f83011261231d57600080fd5b813561232d84826020860161223c565b91505092915050565b600082601f83011261234757600080fd5b813561235784826020860161227a565b91505092915050565b60008135905061236f81613809565b92915050565b60006020828403121561238757600080fd5b6000612395848285016122b8565b91505092915050565b600080604083850312156123b157600080fd5b60006123bf858286016122b8565b92505060206123d0858286016122b8565b9150509250929050565b6000806000606084860312156123ef57600080fd5b60006123fd868287016122b8565b935050602061240e868287016122b8565b925050604061241f86828701612360565b9150509250925092565b6000806000806080858703121561243f57600080fd5b600061244d878288016122b8565b945050602061245e878288016122b8565b935050604061246f87828801612360565b925050606085013567ffffffffffffffff81111561248c57600080fd5b6124988782880161230c565b91505092959194509250565b600080604083850312156124b757600080fd5b60006124c5858286016122b8565b92505060206124d6858286016122cd565b9150509250929050565b600080604083850312156124f357600080fd5b6000612501858286016122b8565b925050602061251285828601612360565b9150509250929050565b60006020828403121561252e57600080fd5b600061253c848285016122e2565b91505092915050565b60006020828403121561255757600080fd5b6000612565848285016122f7565b91505092915050565b60006020828403121561258057600080fd5b600061258e84828501612360565b91505092915050565b600080604083850312156125aa57600080fd5b60006125b885828601612360565b925050602083013567ffffffffffffffff8111156125d557600080fd5b6125e185828601612336565b9150509250929050565b600080604083850312156125fe57600080fd5b600061260c85828601612360565b925050602061261d85828601612360565b9150509250929050565b61263081612fa4565b82525050565b61263f81612fb6565b82525050565b600061265082612e4c565b61265a8185612e62565b935061266a818560208601613027565b612673816131f3565b840191505092915050565b600061268982612e57565b6126938185612e73565b93506126a3818560208601613027565b6126ac816131f3565b840191505092915050565b60006126c282612e57565b6126cc8185612e84565b93506126dc818560208601613027565b80840191505092915050565b60006126f5601483612e73565b915061270082613204565b602082019050919050565b6000612718603283612e73565b91506127238261322d565b604082019050919050565b600061273b602683612e73565b91506127468261327c565b604082019050919050565b600061275e602583612e73565b9150612769826132cb565b604082019050919050565b6000612781601c83612e73565b915061278c8261331a565b602082019050919050565b60006127a4602483612e73565b91506127af82613343565b604082019050919050565b60006127c7601983612e73565b91506127d282613392565b602082019050919050565b60006127ea602c83612e73565b91506127f5826133bb565b604082019050919050565b600061280d603883612e73565b91506128188261340a565b604082019050919050565b6000612830602a83612e73565b915061283b82613459565b604082019050919050565b6000612853602983612e73565b915061285e826134a8565b604082019050919050565b6000612876602e83612e73565b9150612881826134f7565b604082019050919050565b6000612899602083612e73565b91506128a482613546565b602082019050919050565b60006128bc603183612e73565b91506128c78261356f565b604082019050919050565b60006128df602c83612e73565b91506128ea826135be565b604082019050919050565b6000612902602083612e73565b915061290d8261360d565b602082019050919050565b6000612925602f83612e73565b915061293082613636565b604082019050919050565b6000612948602183612e73565b915061295382613685565b604082019050919050565b600061296b603183612e73565b9150612976826136d4565b604082019050919050565b600061298e601b83612e73565b915061299982613723565b602082019050919050565b60006129b1602a83612e73565b91506129bc8261374c565b604082019050919050565b60006129d4601f83612e73565b91506129df8261379b565b602082019050919050565b6129f38161300e565b82525050565b6000612a0582856126b7565b9150612a1182846126b7565b91508190509392505050565b6000602082019050612a326000830184612627565b92915050565b6000608082019050612a4d6000830187612627565b612a5a6020830186612627565b612a6760408301856129ea565b8181036060830152612a798184612645565b905095945050505050565b6000604082019050612a996000830185612627565b612aa660208301846129ea565b9392505050565b6000602082019050612ac26000830184612636565b92915050565b60006020820190508181036000830152612ae2818461267e565b905092915050565b60006020820190508181036000830152612b03816126e8565b9050919050565b60006020820190508181036000830152612b238161270b565b9050919050565b60006020820190508181036000830152612b438161272e565b9050919050565b60006020820190508181036000830152612b6381612751565b9050919050565b60006020820190508181036000830152612b8381612774565b9050919050565b60006020820190508181036000830152612ba381612797565b9050919050565b60006020820190508181036000830152612bc3816127ba565b9050919050565b60006020820190508181036000830152612be3816127dd565b9050919050565b60006020820190508181036000830152612c0381612800565b9050919050565b60006020820190508181036000830152612c2381612823565b9050919050565b60006020820190508181036000830152612c4381612846565b9050919050565b60006020820190508181036000830152612c6381612869565b9050919050565b60006020820190508181036000830152612c838161288c565b9050919050565b60006020820190508181036000830152612ca3816128af565b9050919050565b60006020820190508181036000830152612cc3816128d2565b9050919050565b60006020820190508181036000830152612ce3816128f5565b9050919050565b60006020820190508181036000830152612d0381612918565b9050919050565b60006020820190508181036000830152612d238161293b565b9050919050565b60006020820190508181036000830152612d438161295e565b9050919050565b60006020820190508181036000830152612d6381612981565b9050919050565b60006020820190508181036000830152612d83816129a4565b9050919050565b60006020820190508181036000830152612da3816129c7565b9050919050565b6000602082019050612dbf60008301846129ea565b92915050565b6000612dcf612de0565b9050612ddb828261308c565b919050565b6000604051905090565b600067ffffffffffffffff821115612e0557612e046131c4565b5b612e0e826131f3565b9050602081019050919050565b600067ffffffffffffffff821115612e3657612e356131c4565b5b612e3f826131f3565b9050602081019050919050565b600081519050919050565b600081519050919050565b600082825260208201905092915050565b600082825260208201905092915050565b600081905092915050565b6000612e9a8261300e565b9150612ea58361300e565b9250827fffffffffffffffffffffffffffffffffffffffffffffffffffffffffffffffff03821115612eda57612ed9613137565b5b828201905092915050565b6000612ef08261300e565b9150612efb8361300e565b925082612f0b57612f0a613166565b5b828204905092915050565b6000612f218261300e565b9150612f2c8361300e565b9250817fffffffffffffffffffffffffffffffffffffffffffffffffffffffffffffffff0483118215151615612f6557612f64613137565b5b828202905092915050565b6000612f7b8261300e565b9150612f868361300e565b925082821015612f9957612f98613137565b5b828203905092915050565b6000612faf82612fee565b9050919050565b60008115159050919050565b60007fffffffff0000000000000000000000000000000000000000000000000000000082169050919050565b600073ffffffffffffffffffffffffffffffffffffffff82169050919050565b6000819050919050565b82818337600083830152505050565b60005b8381101561304557808201518184015260208101905061302a565b83811115613054576000848401525b50505050565b6000600282049050600182168061307257607f821691505b6020821081141561308657613085613195565b5b50919050565b613095826131f3565b810181811067ffffffffffffffff821117156130b4576130b36131c4565b5b80604052505050565b60006130c88261300e565b91507fffffffffffffffffffffffffffffffffffffffffffffffffffffffffffffffff8214156130fb576130fa613137565b5b600182019050919050565b60006131118261300e565b915061311c8361300e565b92508261312c5761312b613166565b5b828206905092915050565b7f4e487b7100000000000000000000000000000000000000000000000000000000600052601160045260246000fd5b7f4e487b7100000000000000000000000000000000000000000000000000000000600052601260045260246000fd5b7f4e487b7100000000000000000000000000000000000000000000000000000000600052602260045260246000fd5b7f4e487b7100000000000000000000000000000000000000000000000000000000600052604160045260246000fd5b6000601f19601f8301169050919050565b7f4d696e7420416d6f756e74204578636565646564000000000000000000000000600082015250565b7f4552433732313a207472616e7366657220746f206e6f6e20455243373231526560008201527f63656976657220696d706c656d656e7465720000000000000000000000000000602082015250565b7f4f776e61626c653a206e6577206f776e657220697320746865207a65726f206160008201527f6464726573730000000000000000000000000000000000000000000000000000602082015250565b7f4552433732313a207472616e736665722066726f6d20696e636f72726563742060008201527f6f776e6572000000000000000000000000000000000000000000000000000000602082015250565b7f4552433732313a20746f6b656e20616c7265616479206d696e74656400000000600082015250565b7f4552433732313a207472616e7366657220746f20746865207a65726f2061646460008201527f7265737300000000000000000000000000000000000000000000000000000000602082015250565b7f4552433732313a20617070726f766520746f2063616c6c657200000000000000600082015250565b7f4552433732313a206f70657261746f7220717565727920666f72206e6f6e657860008201527f697374656e7420746f6b656e0000000000000000000000000000000000000000602082015250565b7f4552433732313a20617070726f76652063616c6c6572206973206e6f74206f7760008201527f6e6572206e6f7220617070726f76656420666f7220616c6c0000000000000000602082015250565b7f4552433732313a2062616c616e636520717565727920666f7220746865207a6560008201527f726f206164647265737300000000000000000000000000000000000000000000602082015250565b7f4552433732313a206f776e657220717565727920666f72206e6f6e657869737460008201527f656e7420746f6b656e0000000000000000000000000000000000000000000000602082015250565b7f45524337323155524953746f726167653a2055524920736574206f66206e6f6e60008201527f6578697374656e7420746f6b656e000000000000000000000000000000000000602082015250565b7f4552433732313a206d696e7420746f20746865207a65726f2061646472657373600082015250565b7f45524337323155524953746f726167653a2055524920717565727920666f722060008201527f6e6f6e6578697374656e7420746f6b656e000000000000000000000000000000602082015250565b7f4552433732313a20617070726f76656420717565727920666f72206e6f6e657860008201527f697374656e7420746f6b656e0000000000000000000000000000000000000000602082015250565b7f4f776e61626c653a2063616c6c6572206973206e6f7420746865206f776e6572600082015250565b7f4552433732314d657461646174613a2055524920717565727920666f72206e6f60008201527f6e6578697374656e7420746f6b656e0000000000000000000000000000000000602082015250565b7f4552433732313a20617070726f76616c20746f2063757272656e74206f776e6560008201527f7200000000000000000000000000000000000000000000000000000000000000602082015250565b7f4552433732313a207472616e736665722063616c6c6572206973206e6f74206f60008201527f776e6572206e6f7220617070726f766564000000000000000000000000000000602082015250565b7f455243323938313a20496e76616c696420706172616d65746572730000000000600082015250565b7f455243323938313a20726f79616c7479206665652077696c6c2065786365656460008201527f2073616c65507269636500000000000000000000000000000000000000000000602082015250565b7f5265656e7472616e637947756172643a207265656e7472616e742063616c6c00600082015250565b6137cd81612fa4565b81146137d857600080fd5b50565b6137e481612fb6565b81146137ef57600080fd5b50565b6137fb81612fc2565b811461380657600080fd5b50565b6138128161300e565b811461381d57600080fd5b5056fea2646970667358221220c25da7040981d255ed942356c47de7bf05e96e13dfe9355d3d91ae3c5650e3ca64736f6c63430008040033",
  "linkReferences": {},
  "deployedLinkReferences": {}
}