{
  "_format": "hh-sol-artifact-1",
  "contractName": "LiveMintAuction",
  "sourceName": "contracts/LiveMint.sol",
  "abi": [
    {
      "inputs": [
        {
          "internalType": "address",
          "name": "_nftContract",
          "type": "address"
        }
      ],
      "stateMutability": "nonpayable",
      "type": "constructor"
    },
    {
      "anonymous": false,
      "inputs": [
        {
          "indexed": true,
          "internalType": "address",
          "name": "sender",
          "type": "address"
        },
        {
          "indexed": false,
          "internalType": "uint256",
          "name": "amount",
          "type": "uint256"
        }
      ],
      "name": "Bid",
      "type": "event"
    },
    {
      "anonymous": false,
      "inputs": [
        {
          "indexed": false,
          "internalType": "address",
          "name": "highestBidder",
          "type": "address"
        },
        {
          "indexed": false,
          "internalType": "uint256",
          "name": "highestBid",
          "type": "uint256"
        }
      ],
      "name": "End",
      "type": "event"
    },
    {
      "anonymous": false,
      "inputs": [],
      "name": "Start",
      "type": "event"
    },
    {
      "anonymous": false,
      "inputs": [
        {
          "indexed": true,
          "internalType": "address",
          "name": "bidder",
          "type": "address"
        },
        {
          "indexed": false,
          "internalType": "uint256",
          "name": "amount",
          "type": "uint256"
        }
      ],
      "name": "Withdraw",
      "type": "event"
    },
    {
      "inputs": [],
      "name": "bid",
      "outputs": [],
      "stateMutability": "payable",
      "type": "function"
    },
    {
      "inputs": [
        {
          "internalType": "address",
          "name": "",
          "type": "address"
        }
      ],
      "name": "bids",
      "outputs": [
        {
          "internalType": "uint256",
          "name": "",
          "type": "uint256"
        }
      ],
      "stateMutability": "view",
      "type": "function"
    },
    {
      "inputs": [],
      "name": "end",
      "outputs": [],
      "stateMutability": "nonpayable",
      "type": "function"
    },
    {
      "inputs": [],
      "name": "endAt",
      "outputs": [
        {
          "internalType": "uint256",
          "name": "",
          "type": "uint256"
        }
      ],
      "stateMutability": "view",
      "type": "function"
    },
    {
      "inputs": [],
      "name": "ended",
      "outputs": [
        {
          "internalType": "bool",
          "name": "",
          "type": "bool"
        }
      ],
      "stateMutability": "view",
      "type": "function"
    },
    {
      "inputs": [],
      "name": "highestBid",
      "outputs": [
        {
          "internalType": "uint256",
          "name": "",
          "type": "uint256"
        }
      ],
      "stateMutability": "view",
      "type": "function"
    },
    {
      "inputs": [],
      "name": "highestBidder",
      "outputs": [
        {
          "internalType": "address",
          "name": "",
          "type": "address"
        }
      ],
      "stateMutability": "view",
      "type": "function"
    },
    {
      "inputs": [],
      "name": "nftId",
      "outputs": [
        {
          "internalType": "uint256",
          "name": "",
          "type": "uint256"
        }
      ],
      "stateMutability": "view",
      "type": "function"
    },
    {
      "inputs": [],
      "name": "seller",
      "outputs": [
        {
          "internalType": "address payable",
          "name": "",
          "type": "address"
        }
      ],
      "stateMutability": "view",
      "type": "function"
    },
    {
      "inputs": [
        {
          "internalType": "uint256",
          "name": "tokenId",
          "type": "uint256"
        },
        {
          "internalType": "string",
          "name": "tokenURI",
          "type": "string"
        }
      ],
      "name": "setTokenURI",
      "outputs": [],
      "stateMutability": "nonpayable",
      "type": "function"
    },
    {
      "inputs": [],
      "name": "start",
      "outputs": [],
      "stateMutability": "nonpayable",
      "type": "function"
    },
    {
      "inputs": [],
      "name": "started",
      "outputs": [
        {
          "internalType": "bool",
          "name": "",
          "type": "bool"
        }
      ],
      "stateMutability": "view",
      "type": "function"
    },
    {
      "inputs": [],
      "name": "withdraw",
      "outputs": [],
      "stateMutability": "payable",
      "type": "function"
    }
  ],
  "bytecode": "0x60806040523480156200001157600080fd5b5060405162001abe38038062001abe8339818101604052810190620000379190620000d6565b336000806101000a81548173ffffffffffffffffffffffffffffffffffffffff021916908373ffffffffffffffffffffffffffffffffffffffff16021790555080600460006101000a81548173ffffffffffffffffffffffffffffffffffffffff021916908373ffffffffffffffffffffffffffffffffffffffff1602179055505062000150565b600081519050620000d08162000136565b92915050565b600060208284031215620000e957600080fd5b6000620000f984828501620000bf565b91505092915050565b60006200010f8262000116565b9050919050565b600073ffffffffffffffffffffffffffffffffffffffff82169050919050565b620001418162000102565b81146200014d57600080fd5b50565b61195e80620001606000396000f3fe6080604052600436106100c25760003560e01c806362ea82db1161007f578063be9a655511610059578063be9a655514610218578063c6bc51821461022f578063d57bde791461025a578063efbe1c1c14610285576100c2565b806362ea82db146101855780637cc3ae8c146101c257806391f90157146101ed576100c2565b806308551a53146100c757806312fa6feb146100f2578063162094c41461011d5780631998aeef146101465780631f2698ab146101505780633ccfd60b1461017b575b600080fd5b3480156100d357600080fd5b506100dc61029c565b6040516100e9919061122b565b60405180910390f35b3480156100fe57600080fd5b506101076102c0565b60405161011491906112dd565b60405180910390f35b34801561012957600080fd5b50610144600480360381019061013f9190610f7f565b6102d3565b005b61014e6103fa565b005b34801561015c57600080fd5b50610165610628565b60405161017291906112dd565b60405180910390f35b61018361063b565b005b34801561019157600080fd5b506101ac60048036038101906101a79190610f2d565b6107c5565b6040516101b99190611458565b60405180910390f35b3480156101ce57600080fd5b506101d76107dd565b6040516101e49190611458565b60405180910390f35b3480156101f957600080fd5b506102026107e3565b60405161020f9190611210565b60405180910390f35b34801561022457600080fd5b5061022d610809565b005b34801561023b57600080fd5b506102446109f8565b6040516102519190611458565b60405180910390f35b34801561026657600080fd5b5061026f6109fe565b60405161027c9190611458565b60405180910390f35b34801561029157600080fd5b5061029a610a04565b005b60008054906101000a900473ffffffffffffffffffffffffffffffffffffffff1681565b600060159054906101000a900460ff1681565b3373ffffffffffffffffffffffffffffffffffffffff1660008054906101000a900473ffffffffffffffffffffffffffffffffffffffff1673ffffffffffffffffffffffffffffffffffffffff1614610361576040517f08c379a000000000000000000000000000000000000000000000000000000000815260040161035890611418565b60405180910390fd5b6000600460009054906101000a900473ffffffffffffffffffffffffffffffffffffffff1690508073ffffffffffffffffffffffffffffffffffffffff1663162094c484846040518363ffffffff1660e01b81526004016103c3929190611473565b600060405180830381600087803b1580156103dd57600080fd5b505af11580156103f1573d6000803e3d6000fd5b50505050505050565b600060149054906101000a900460ff16610449576040517f08c379a0000000000000000000000000000000000000000000000000000000008152600401610440906113d8565b60405180910390fd5b600154421061048d576040517f08c379a000000000000000000000000000000000000000000000000000000000815260040161048490611358565b60405180910390fd5b600354341161049b57600080fd5b600073ffffffffffffffffffffffffffffffffffffffff16600260009054906101000a900473ffffffffffffffffffffffffffffffffffffffff1673ffffffffffffffffffffffffffffffffffffffff161461056c5760035460066000600260009054906101000a900473ffffffffffffffffffffffffffffffffffffffff1673ffffffffffffffffffffffffffffffffffffffff1673ffffffffffffffffffffffffffffffffffffffff16815260200190815260200160002060008282546105649190611520565b925050819055505b3460038190555033600260006101000a81548173ffffffffffffffffffffffffffffffffffffffff021916908373ffffffffffffffffffffffffffffffffffffffff160217905550600260009054906101000a900473ffffffffffffffffffffffffffffffffffffffff1673ffffffffffffffffffffffffffffffffffffffff167fe684a55f31b79eca403df938249029212a5925ec6be8012e099b45bc1019e5d260035460405161061e9190611458565b60405180910390a2565b600060149054906101000a900460ff1681565b6000600660003373ffffffffffffffffffffffffffffffffffffffff1673ffffffffffffffffffffffffffffffffffffffff1681526020019081526020016000205490506000600660003373ffffffffffffffffffffffffffffffffffffffff1673ffffffffffffffffffffffffffffffffffffffff168152602001908152602001600020819055506000803373ffffffffffffffffffffffffffffffffffffffff16836040516106eb906111fb565b60006040518083038185875af1925050503d8060008114610728576040519150601f19603f3d011682016040523d82523d6000602084013e61072d565b606091505b509150915081610772576040517f08c379a000000000000000000000000000000000000000000000000000000000815260040161076990611438565b60405180910390fd5b3373ffffffffffffffffffffffffffffffffffffffff167f884edad9ce6fa2440d8a54cc123490eb96d2768479d49ff9c7366125a9424364846040516107b89190611458565b60405180910390a2505050565b60066020528060005260406000206000915090505481565b60015481565b600260009054906101000a900473ffffffffffffffffffffffffffffffffffffffff1681565b600060149054906101000a900460ff1615610859576040517f08c379a0000000000000000000000000000000000000000000000000000000008152600401610850906113b8565b60405180910390fd5b60008054906101000a900473ffffffffffffffffffffffffffffffffffffffff1673ffffffffffffffffffffffffffffffffffffffff163373ffffffffffffffffffffffffffffffffffffffff16146108e7576040517f08c379a00000000000000000000000000000000000000000000000000000000081526004016108de90611318565b60405180910390fd5b6000600460009054906101000a900473ffffffffffffffffffffffffffffffffffffffff16905060008173ffffffffffffffffffffffffffffffffffffffff16631249c58b6040518163ffffffff1660e01b8152600401602060405180830381600087803b15801561095857600080fd5b505af115801561096c573d6000803e3d6000fd5b505050506040513d601f19601f820116820180604052508101906109909190610f56565b9050806005819055506001600060146101000a81548160ff02191690831515021790555061012c426109c29190611520565b6001819055507f1b55ba3aa851a46be3b365aee5b5c140edd620d578922f3e8466d2cbd96f954b60405160405180910390a15050565b60055481565b60035481565b600060149054906101000a900460ff16610a53576040517f08c379a0000000000000000000000000000000000000000000000000000000008152600401610a4a90611378565b60405180910390fd5b600154421015610a98576040517f08c379a0000000000000000000000000000000000000000000000000000000008152600401610a8f90611338565b60405180910390fd5b600060159054906101000a900460ff1615610ae8576040517f08c379a0000000000000000000000000000000000000000000000000000000008152600401610adf906113f8565b60405180910390fd5b60008054906101000a900473ffffffffffffffffffffffffffffffffffffffff1673ffffffffffffffffffffffffffffffffffffffff163373ffffffffffffffffffffffffffffffffffffffff1614610b76576040517f08c379a0000000000000000000000000000000000000000000000000000000008152600401610b6d906112f8565b60405180910390fd5b600073ffffffffffffffffffffffffffffffffffffffff16600260009054906101000a900473ffffffffffffffffffffffffffffffffffffffff1673ffffffffffffffffffffffffffffffffffffffff1614610d5857600460009054906101000a900473ffffffffffffffffffffffffffffffffffffffff1673ffffffffffffffffffffffffffffffffffffffff166323b872dd30600260009054906101000a900473ffffffffffffffffffffffffffffffffffffffff166005546040518463ffffffff1660e01b8152600401610c4f9392919061127d565b600060405180830381600087803b158015610c6957600080fd5b505af1158015610c7d573d6000803e3d6000fd5b5050505060008060008054906101000a900473ffffffffffffffffffffffffffffffffffffffff1673ffffffffffffffffffffffffffffffffffffffff16600354604051610cca906111fb565b60006040518083038185875af1925050503d8060008114610d07576040519150601f19603f3d011682016040523d82523d6000602084013e610d0c565b606091505b509150915081610d51576040517f08c379a0000000000000000000000000000000000000000000000000000000008152600401610d4890611398565b60405180910390fd5b5050610e0c565b600460009054906101000a900473ffffffffffffffffffffffffffffffffffffffff1673ffffffffffffffffffffffffffffffffffffffff166323b872dd3060008054906101000a900473ffffffffffffffffffffffffffffffffffffffff166005546040518463ffffffff1660e01b8152600401610dd993929190611246565b600060405180830381600087803b158015610df357600080fd5b505af1158015610e07573d6000803e3d6000fd5b505050505b6001600060156101000a81548160ff0219169083151502179055507f7d7570b046e5ead3a4f3fbc9fa2445113625a1e79823776146316bafed6b8cc5600260009054906101000a900473ffffffffffffffffffffffffffffffffffffffff16600354604051610e7c9291906112b4565b60405180910390a1565b6000610e99610e94846114c8565b6114a3565b905082815260208101848484011115610eb157600080fd5b610ebc848285611606565b509392505050565b600081359050610ed3816118fa565b92915050565b600082601f830112610eea57600080fd5b8135610efa848260208601610e86565b91505092915050565b600081359050610f1281611911565b92915050565b600081519050610f2781611911565b92915050565b600060208284031215610f3f57600080fd5b6000610f4d84828501610ec4565b91505092915050565b600060208284031215610f6857600080fd5b6000610f7684828501610f18565b91505092915050565b60008060408385031215610f9257600080fd5b6000610fa085828601610f03565b925050602083013567ffffffffffffffff811115610fbd57600080fd5b610fc985828601610ed9565b9150509250929050565b610fdc816115d0565b82525050565b610feb81611588565b82525050565b610ffa81611576565b82525050565b6110098161159a565b82525050565b600061101a826114f9565b611024818561150f565b9350611034818560208601611615565b61103d816116d7565b840191505092915050565b600061105560238361150f565b9150611060826116e8565b604082019050919050565b6000611078601e8361150f565b915061108382611737565b602082019050919050565b600061109b60198361150f565b91506110a682611760565b602082019050919050565b60006110be60068361150f565b91506110c982611789565b602082019050919050565b60006110e1601f8361150f565b91506110ec826117b2565b602082019050919050565b600061110460158361150f565b915061110f826117db565b602082019050919050565b600061112760108361150f565b915061113282611804565b602082019050919050565b600061114a600c8361150f565b91506111558261182d565b602082019050919050565b600061116d600083611504565b915061117882611856565b600082019050919050565b600061119060168361150f565b915061119b82611859565b602082019050919050565b60006111b3602d8361150f565b91506111be82611882565b604082019050919050565b60006111d660128361150f565b91506111e1826118d1565b602082019050919050565b6111f5816115c6565b82525050565b600061120682611160565b9150819050919050565b60006020820190506112256000830184610ff1565b92915050565b60006020820190506112406000830184610fe2565b92915050565b600060608201905061125b6000830186610ff1565b6112686020830185610fd3565b61127560408301846111ec565b949350505050565b60006060820190506112926000830186610ff1565b61129f6020830185610ff1565b6112ac60408301846111ec565b949350505050565b60006040820190506112c96000830185610ff1565b6112d660208301846111ec565b9392505050565b60006020820190506112f26000830184611000565b92915050565b6000602082019050818103600083015261131181611048565b9050919050565b600060208201905081810360008301526113318161106b565b9050919050565b600060208201905081810360008301526113518161108e565b9050919050565b60006020820190508181036000830152611371816110b1565b9050919050565b60006020820190508181036000830152611391816110d4565b9050919050565b600060208201905081810360008301526113b1816110f7565b9050919050565b600060208201905081810360008301526113d18161111a565b9050919050565b600060208201905081810360008301526113f18161113d565b9050919050565b6000602082019050818103600083015261141181611183565b9050919050565b60006020820190508181036000830152611431816111a6565b9050919050565b60006020820190508181036000830152611451816111c9565b9050919050565b600060208201905061146d60008301846111ec565b92915050565b600060408201905061148860008301856111ec565b818103602083015261149a818461100f565b90509392505050565b60006114ad6114be565b90506114b98282611648565b919050565b6000604051905090565b600067ffffffffffffffff8211156114e3576114e26116a8565b5b6114ec826116d7565b9050602081019050919050565b600081519050919050565b600081905092915050565b600082825260208201905092915050565b600061152b826115c6565b9150611536836115c6565b9250827fffffffffffffffffffffffffffffffffffffffffffffffffffffffffffffffff0382111561156b5761156a611679565b5b828201905092915050565b6000611581826115a6565b9050919050565b6000611593826115a6565b9050919050565b60008115159050919050565b600073ffffffffffffffffffffffffffffffffffffffff82169050919050565b6000819050919050565b60006115db826115e2565b9050919050565b60006115ed826115f4565b9050919050565b60006115ff826115a6565b9050919050565b82818337600083830152505050565b60005b83811015611633578082015181840152602081019050611618565b83811115611642576000848401525b50505050565b611651826116d7565b810181811067ffffffffffffffff821117156116705761166f6116a8565b5b80604052505050565b7f4e487b7100000000000000000000000000000000000000000000000000000000600052601160045260246000fd5b7f4e487b7100000000000000000000000000000000000000000000000000000000600052604160045260246000fd5b6000601f19601f8301169050919050565b7f4f6e6c79207468652073656c6c65722063616e20656e6420746865206175637460008201527f696f6e0000000000000000000000000000000000000000000000000000000000602082015250565b7f596f7520617265206e6f742074686520636f6e7472616374206f776e65720000600082015250565b7f41756374696f6e206973207374696c6c206f6e676f696e672100000000000000600082015250565b7f456e646564210000000000000000000000000000000000000000000000000000600082015250565b7f5468652041756374696f6e206861736e27742073746172746564207965742e00600082015250565b7f436f756c64206e6f74207061792073656c6c6572210000000000000000000000600082015250565b7f416c726561647920537461727465642100000000000000000000000000000000600082015250565b7f4e6f7420737461727465642e0000000000000000000000000000000000000000600082015250565b50565b7f41756374696f6e20616c726561647920656e6465642100000000000000000000600082015250565b7f596f7520646f6e2774206861766520617574686f7269747920746f206368616e60008201527f676520546f6b656e205552497300000000000000000000000000000000000000602082015250565b7f436f756c64206e6f742077697468647261770000000000000000000000000000600082015250565b61190381611576565b811461190e57600080fd5b50565b61191a816115c6565b811461192557600080fd5b5056fea2646970667358221220560f2d911e8a57971015944c127d14804c34febd3d2eb71167b27ffba5f669e664736f6c63430008040033",
  "linkReferences": {},
  "deployedLinkReferences": {}
}