{
  "_format": "hh-sol-artifact-1",
  "contractName": "LiveMintAuction",
  "sourceName": "contracts/LiveMint.sol",
  "abi": [
    {
      "inputs": [
        {
          "internalType": "address",
          "name": "_nftContract",
          "type": "address"
        },
        {
          "internalType": "address",
          "name": "_payeeOne",
          "type": "address"
        },
        {
          "internalType": "address",
          "name": "_payeeTwo",
          "type": "address"
        },
        {
          "internalType": "uint256",
          "name": "_payeeOneFee",
          "type": "uint256"
        },
        {
          "internalType": "uint256",
          "name": "_payeeTwoFee",
          "type": "uint256"
        },
        {
          "internalType": "uint256",
          "name": "_nftyTunesFee",
          "type": "uint256"
        }
      ],
      "stateMutability": "nonpayable",
      "type": "constructor"
    },
    {
      "anonymous": false,
      "inputs": [
        {
          "indexed": true,
          "internalType": "address",
          "name": "sender",
          "type": "address"
        },
        {
          "indexed": false,
          "internalType": "uint256",
          "name": "amount",
          "type": "uint256"
        },
        {
          "indexed": false,
          "internalType": "uint256",
          "name": "timestamp",
          "type": "uint256"
        }
      ],
      "name": "Bid",
      "type": "event"
    },
    {
      "anonymous": false,
      "inputs": [
        {
          "indexed": false,
          "internalType": "address[]",
          "name": "winningBidders",
          "type": "address[]"
        },
        {
          "indexed": false,
          "internalType": "uint256",
          "name": "timestamp",
          "type": "uint256"
        }
      ],
      "name": "End",
      "type": "event"
    },
    {
      "anonymous": false,
      "inputs": [
        {
          "indexed": false,
          "internalType": "uint256",
          "name": "highestBid",
          "type": "uint256"
        },
        {
          "indexed": false,
          "internalType": "uint256",
          "name": "timestamp",
          "type": "uint256"
        }
      ],
      "name": "Start",
      "type": "event"
    },
    {
      "anonymous": false,
      "inputs": [
        {
          "indexed": true,
          "internalType": "address",
          "name": "bidder",
          "type": "address"
        },
        {
          "indexed": false,
          "internalType": "uint256",
          "name": "amount",
          "type": "uint256"
        },
        {
          "indexed": false,
          "internalType": "uint256",
          "name": "timestamp",
          "type": "uint256"
        }
      ],
      "name": "Withdraw",
      "type": "event"
    },
    {
      "inputs": [],
      "name": "bid",
      "outputs": [],
      "stateMutability": "payable",
      "type": "function"
    },
    {
      "inputs": [
        {
          "internalType": "string",
          "name": "tokenURI",
          "type": "string"
        }
      ],
      "name": "end",
      "outputs": [],
      "stateMutability": "nonpayable",
      "type": "function"
    },
    {
      "inputs": [],
      "name": "endAt",
      "outputs": [
        {
          "internalType": "uint256",
          "name": "",
          "type": "uint256"
        }
      ],
      "stateMutability": "view",
      "type": "function"
    },
    {
      "inputs": [],
      "name": "ended",
      "outputs": [
        {
          "internalType": "bool",
          "name": "",
          "type": "bool"
        }
      ],
      "stateMutability": "view",
      "type": "function"
    },
    {
      "inputs": [],
      "name": "floorBid",
      "outputs": [
        {
          "internalType": "uint256",
          "name": "",
          "type": "uint256"
        }
      ],
      "stateMutability": "view",
      "type": "function"
    },
    {
      "inputs": [
        {
          "internalType": "address",
          "name": "",
          "type": "address"
        }
      ],
      "name": "fundsByBidder",
      "outputs": [
        {
          "internalType": "uint256",
          "name": "",
          "type": "uint256"
        }
      ],
      "stateMutability": "view",
      "type": "function"
    },
    {
      "inputs": [],
      "name": "getBid",
      "outputs": [
        {
          "internalType": "uint256",
          "name": "",
          "type": "uint256"
        }
      ],
      "stateMutability": "view",
      "type": "function"
    },
    {
      "inputs": [],
      "name": "getCurrentItem",
      "outputs": [
        {
          "internalType": "uint256",
          "name": "",
          "type": "uint256"
        }
      ],
      "stateMutability": "view",
      "type": "function"
    },
    {
      "inputs": [],
      "name": "getEndAt",
      "outputs": [
        {
          "internalType": "uint256",
          "name": "",
          "type": "uint256"
        }
      ],
      "stateMutability": "view",
      "type": "function"
    },
    {
      "inputs": [],
      "name": "getHighestBid",
      "outputs": [
        {
          "internalType": "uint256",
          "name": "",
          "type": "uint256"
        }
      ],
      "stateMutability": "view",
      "type": "function"
    },
    {
      "inputs": [],
      "name": "getLowestBid",
      "outputs": [
        {
          "internalType": "uint256",
          "name": "",
          "type": "uint256"
        }
      ],
      "stateMutability": "view",
      "type": "function"
    },
    {
      "inputs": [
        {
          "internalType": "uint256",
          "name": "totalNFTs",
          "type": "uint256"
        }
      ],
      "name": "getTop",
      "outputs": [
        {
          "internalType": "address[]",
          "name": "",
          "type": "address[]"
        }
      ],
      "stateMutability": "view",
      "type": "function"
    },
    {
      "inputs": [],
      "name": "isStarted",
      "outputs": [
        {
          "internalType": "bool",
          "name": "",
          "type": "bool"
        }
      ],
      "stateMutability": "view",
      "type": "function"
    },
    {
      "inputs": [],
      "name": "listSize",
      "outputs": [
        {
          "internalType": "uint256",
          "name": "",
          "type": "uint256"
        }
      ],
      "stateMutability": "view",
      "type": "function"
    },
    {
      "inputs": [],
      "name": "nftyTunesFee",
      "outputs": [
        {
          "internalType": "uint256",
          "name": "",
          "type": "uint256"
        }
      ],
      "stateMutability": "view",
      "type": "function"
    },
    {
      "inputs": [],
      "name": "payeeFeeOne",
      "outputs": [
        {
          "internalType": "uint256",
          "name": "",
          "type": "uint256"
        }
      ],
      "stateMutability": "view",
      "type": "function"
    },
    {
      "inputs": [],
      "name": "payeeFeeTwo",
      "outputs": [
        {
          "internalType": "uint256",
          "name": "",
          "type": "uint256"
        }
      ],
      "stateMutability": "view",
      "type": "function"
    },
    {
      "inputs": [],
      "name": "payeeOne",
      "outputs": [
        {
          "internalType": "address payable",
          "name": "",
          "type": "address"
        }
      ],
      "stateMutability": "view",
      "type": "function"
    },
    {
      "inputs": [],
      "name": "payeeTwo",
      "outputs": [
        {
          "internalType": "address payable",
          "name": "",
          "type": "address"
        }
      ],
      "stateMutability": "view",
      "type": "function"
    },
    {
      "inputs": [],
      "name": "seller",
      "outputs": [
        {
          "internalType": "address payable",
          "name": "",
          "type": "address"
        }
      ],
      "stateMutability": "view",
      "type": "function"
    },
    {
      "inputs": [
        {
          "internalType": "uint256",
          "name": "timeOfAuction",
          "type": "uint256"
        },
        {
          "internalType": "uint256",
          "name": "startingBid",
          "type": "uint256"
        },
        {
          "internalType": "uint256",
          "name": "nftsToMint",
          "type": "uint256"
        }
      ],
      "name": "start",
      "outputs": [],
      "stateMutability": "nonpayable",
      "type": "function"
    },
    {
      "inputs": [],
      "name": "started",
      "outputs": [
        {
          "internalType": "bool",
          "name": "",
          "type": "bool"
        }
      ],
      "stateMutability": "view",
      "type": "function"
    },
    {
      "inputs": [],
      "name": "totalNFTs",
      "outputs": [
        {
          "internalType": "uint256",
          "name": "",
          "type": "uint256"
        }
      ],
      "stateMutability": "view",
      "type": "function"
    },
    {
      "inputs": [],
      "name": "withdraw",
      "outputs": [],
      "stateMutability": "payable",
      "type": "function"
    }
  ],
  "bytecode": "0x60806040523480156200001157600080fd5b5060405162003a5138038062003a51833981810160405281019062000037919062000192565b600160008190555033600260006101000a81548173ffffffffffffffffffffffffffffffffffffffff021916908373ffffffffffffffffffffffffffffffffffffffff16021790555084600360006101000a81548173ffffffffffffffffffffffffffffffffffffffff021916908373ffffffffffffffffffffffffffffffffffffffff16021790555083600460006101000a81548173ffffffffffffffffffffffffffffffffffffffff021916908373ffffffffffffffffffffffffffffffffffffffff16021790555082600581905550816006819055508060078190555085600a60006101000a81548173ffffffffffffffffffffffffffffffffffffffff021916908373ffffffffffffffffffffffffffffffffffffffff1602179055505050505050506200029a565b600081519050620001758162000266565b92915050565b6000815190506200018c8162000280565b92915050565b60008060008060008060c08789031215620001ac57600080fd5b6000620001bc89828a0162000164565b9650506020620001cf89828a0162000164565b9550506040620001e289828a0162000164565b9450506060620001f589828a016200017b565b93505060806200020889828a016200017b565b92505060a06200021b89828a016200017b565b9150509295509295509295565b600062000235826200023c565b9050919050565b600073ffffffffffffffffffffffffffffffffffffffff82169050919050565b6000819050919050565b620002718162000228565b81146200027d57600080fd5b50565b6200028b816200025c565b81146200029757600080fd5b50565b6137a780620002aa6000396000f3fe60806040526004361061014b5760003560e01c8063422701e8116100b65780637cc3ae8c1161006f5780637cc3ae8c146104245780638bbbe1af1461044f578063900a974e1461047a578063972c5356146104a3578063b3bf19e3146104ce578063ce10cf80146104f95761014b565b8063422701e8146103245780634979440a1461034f578063544736e61461037a5780635e3660b5146103a5578063641ccd83146103d05780636f74a9ea146103f95761014b565b80631df6554f116101085780631df6554f146102315780631f2698ab1461025c5780632f5d93ce14610287578063354cc762146102b257806337caa8b6146102dd5780633ccfd60b1461031a5761014b565b806308551a5314610150578063099a019d1461017b5780630beeb529146101a65780630d0e96da146101d157806312fa6feb146101fc5780631998aeef14610227575b600080fd5b34801561015c57600080fd5b50610165610536565b6040516101729190612d49565b60405180910390f35b34801561018757600080fd5b5061019061055c565b60405161019d9190613021565b60405180910390f35b3480156101b257600080fd5b506101bb6105a3565b6040516101c89190613021565b60405180910390f35b3480156101dd57600080fd5b506101e66105a9565b6040516101f39190613021565b60405180910390f35b34801561020857600080fd5b506102116105af565b60405161021e9190612e24565b60405180910390f35b61022f6105c2565b005b34801561023d57600080fd5b506102466109bb565b6040516102539190613021565b60405180910390f35b34801561026857600080fd5b50610271610a64565b60405161027e9190612e24565b60405180910390f35b34801561029357600080fd5b5061029c610a77565b6040516102a99190613021565b60405180910390f35b3480156102be57600080fd5b506102c7610a7d565b6040516102d49190613021565b60405180910390f35b3480156102e957600080fd5b5061030460048036038101906102ff919061297d565b610a83565b6040516103119190612dd2565b60405180910390f35b610322610c75565b005b34801561033057600080fd5b50610339610efb565b6040516103469190612d49565b60405180910390f35b34801561035b57600080fd5b50610364610f21565b6040516103719190613021565b60405180910390f35b34801561038657600080fd5b5061038f610fb8565b60405161039c9190612e24565b60405180910390f35b3480156103b157600080fd5b506103ba610fe0565b6040516103c79190613021565b60405180910390f35b3480156103dc57600080fd5b506103f760048036038101906103f291906129cf565b610fea565b005b34801561040557600080fd5b5061040e61126a565b60405161041b9190613021565b60405180910390f35b34801561043057600080fd5b5061043961131c565b6040516104469190613021565b60405180910390f35b34801561045b57600080fd5b50610464611322565b6040516104719190613021565b60405180910390f35b34801561048657600080fd5b506104a1600480360381019061049c919061293c565b611328565b005b3480156104af57600080fd5b506104b8611d4d565b6040516104c59190613021565b60405180910390f35b3480156104da57600080fd5b506104e3611d53565b6040516104f09190612d49565b60405180910390f35b34801561050557600080fd5b50610520600480360381019061051b91906128ea565b611d79565b60405161052d9190613021565b60405180910390f35b600260009054906101000a900473ffffffffffffffffffffffffffffffffffffffff1681565b6000600d60003373ffffffffffffffffffffffffffffffffffffffff1673ffffffffffffffffffffffffffffffffffffffff16815260200190815260200160002054905090565b60055481565b600c5481565b600860019054906101000a900460ff1681565b600860009054906101000a900460ff16610611576040517f08c379a000000000000000000000000000000000000000000000000000000000815260040161060890612f81565b60405180910390fd5b6009544210610655576040517f08c379a000000000000000000000000000000000000000000000000000000000815260040161064c90612ee1565b60405180910390fd5b600b54600d60003373ffffffffffffffffffffffffffffffffffffffff1673ffffffffffffffffffffffffffffffffffffffff16815260200190815260200160002054346106a3919061311b565b10156106e4576040517f08c379a00000000000000000000000000000000000000000000000000000000081526004016106db90612fa1565b60405180910390fd5b6000600f54600c541161074d576106fc600c54610a83565b6001600c5461070b91906131fc565b81518110610742577f4e487b7100000000000000000000000000000000000000000000000000000000600052603260045260246000fd5b602002602001015190505b600073ffffffffffffffffffffffffffffffffffffffff168173ffffffffffffffffffffffffffffffffffffffff161461084d57600d60008273ffffffffffffffffffffffffffffffffffffffff1673ffffffffffffffffffffffffffffffffffffffff16815260200190815260200160002054600d60003373ffffffffffffffffffffffffffffffffffffffff1673ffffffffffffffffffffffffffffffffffffffff168152602001908152602001600020543461080c919061311b565b1161084c576040517f08c379a000000000000000000000000000000000000000000000000000000000815260040161084390612ec1565b60405180910390fd5b5b600073ffffffffffffffffffffffffffffffffffffffff16600e60003373ffffffffffffffffffffffffffffffffffffffff1673ffffffffffffffffffffffffffffffffffffffff16815260200190815260200160002060009054906101000a900473ffffffffffffffffffffffffffffffffffffffff1673ffffffffffffffffffffffffffffffffffffffff1614156108f0576108eb3334611d91565b6108fb565b6108fa3334612028565b5b61012c4260095461090c91906131fc565b10156109295761012c600954610922919061311b565b6009819055505b3373ffffffffffffffffffffffffffffffffffffffff167f19421268847f42dd61705778018ddfc43bcdce8517e7a630acb12f122c709481600d60003373ffffffffffffffffffffffffffffffffffffffff1673ffffffffffffffffffffffffffffffffffffffff16815260200190815260200160002054426040516109b092919061303c565b60405180910390a250565b6000806109c9600c54610a83565b9050600081519050600d6000836001846109e391906131fc565b81518110610a1a577f4e487b7100000000000000000000000000000000000000000000000000000000600052603260045260246000fd5b602002602001015173ffffffffffffffffffffffffffffffffffffffff1673ffffffffffffffffffffffffffffffffffffffff168152602001908152602001600020549250505090565b600860009054906101000a900460ff1681565b60065481565b60075481565b60606000600f54831115610a9b57600f549050610a9f565b8290505b60008167ffffffffffffffff811115610ae1577f4e487b7100000000000000000000000000000000000000000000000000000000600052604160045260246000fd5b604051908082528060200260200182016040528015610b0f5781602001602082028036833780820191505090505b5090506000600e6000600173ffffffffffffffffffffffffffffffffffffffff1673ffffffffffffffffffffffffffffffffffffffff16815260200190815260200160002060009054906101000a900473ffffffffffffffffffffffffffffffffffffffff16905060005b83811015610c695781838281518110610bbc577f4e487b7100000000000000000000000000000000000000000000000000000000600052603260045260246000fd5b602002602001019073ffffffffffffffffffffffffffffffffffffffff16908173ffffffffffffffffffffffffffffffffffffffff1681525050600e60008373ffffffffffffffffffffffffffffffffffffffff1673ffffffffffffffffffffffffffffffffffffffff16815260200190815260200160002060009054906101000a900473ffffffffffffffffffffffffffffffffffffffff16915080610c629061335d565b9050610b7a565b50819350505050919050565b60026000541415610cbb576040517f08c379a0000000000000000000000000000000000000000000000000000000008152600401610cb290612fe1565b60405180910390fd5b60026000819055506000610cd0600c54610a83565b905060005b600c54811015610da1573373ffffffffffffffffffffffffffffffffffffffff16828281518110610d2f577f4e487b7100000000000000000000000000000000000000000000000000000000600052603260045260246000fd5b602002602001015173ffffffffffffffffffffffffffffffffffffffff161415610d8e576040517f08c379a0000000000000000000000000000000000000000000000000000000008152600401610d8590612f01565b60405180910390fd5b8080610d999061335d565b915050610cd5565b506000600d60003373ffffffffffffffffffffffffffffffffffffffff1673ffffffffffffffffffffffffffffffffffffffff168152602001908152602001600020549050610def33612080565b6000803373ffffffffffffffffffffffffffffffffffffffff1683604051610e1690612d34565b60006040518083038185875af1925050503d8060008114610e53576040519150601f19603f3d011682016040523d82523d6000602084013e610e58565b606091505b509150915081610e9d576040517f08c379a0000000000000000000000000000000000000000000000000000000008152600401610e9490613001565b60405180910390fd5b3373ffffffffffffffffffffffffffffffffffffffff167ff279e6a1f5e320cca91135676d9cb6e44ca8a08c0b88342bcdb1144f6511b5688442604051610ee592919061303c565b60405180910390a2505050506001600081905550565b600460009054906101000a900473ffffffffffffffffffffffffffffffffffffffff1681565b600080610f2f600c54610a83565b9050600d600082600081518110610f6f577f4e487b7100000000000000000000000000000000000000000000000000000000600052603260045260246000fd5b602002602001015173ffffffffffffffffffffffffffffffffffffffff1673ffffffffffffffffffffffffffffffffffffffff1681526020019081526020016000205491505090565b6000600860009054906101000a900460ff1615610fd85760019050610fdd565b600090505b90565b6000600954905090565b60026000541415611030576040517f08c379a000000000000000000000000000000000000000000000000000000000815260040161102790612fe1565b60405180910390fd5b6002600081905550600860009054906101000a900460ff1615611088576040517f08c379a000000000000000000000000000000000000000000000000000000000815260040161107f90612f61565b60405180910390fd5b600260009054906101000a900473ffffffffffffffffffffffffffffffffffffffff1673ffffffffffffffffffffffffffffffffffffffff163373ffffffffffffffffffffffffffffffffffffffff1614611118576040517f08c379a000000000000000000000000000000000000000000000000000000000815260040161110f90612e81565b60405180910390fd5b80600c819055506001600e6000600173ffffffffffffffffffffffffffffffffffffffff1673ffffffffffffffffffffffffffffffffffffffff16815260200190815260200160002060006101000a81548173ffffffffffffffffffffffffffffffffffffffff021916908373ffffffffffffffffffffffffffffffffffffffff1602179055506000600a60009054906101000a900473ffffffffffffffffffffffffffffffffffffffff1690506001600860006101000a81548160ff0219169083151502179055506000600860016101000a81548160ff021916908315150217905550603c8461120991906131a2565b42611214919061311b565b60098190555082600b819055507f5a7d5f50ab70a39d193bf53f0fb995377776df93bb6fdcf1cd1868b7e0dd44ee600b544260405161125492919061303c565b60405180910390a1506001600081905550505050565b600080600a60009054906101000a900473ffffffffffffffffffffffffffffffffffffffff16905060008173ffffffffffffffffffffffffffffffffffffffff16636c1438626040518163ffffffff1660e01b815260040160206040518083038186803b1580156112da57600080fd5b505afa1580156112ee573d6000803e3d6000fd5b505050506040513d601f19601f8201168201806040525081019061131291906129a6565b9050809250505090565b60095481565b600b5481565b6002600054141561136e576040517f08c379a000000000000000000000000000000000000000000000000000000000815260040161136590612fe1565b60405180910390fd5b6002600081905550600860009054906101000a900460ff166113c5576040517f08c379a00000000000000000000000000000000000000000000000000000000081526004016113bc90612f21565b60405180910390fd5b60095442101561140a576040517f08c379a000000000000000000000000000000000000000000000000000000000815260040161140190612ea1565b60405180910390fd5b600860019054906101000a900460ff161561145a576040517f08c379a000000000000000000000000000000000000000000000000000000000815260040161145190612fc1565b60405180910390fd5b600260009054906101000a900473ffffffffffffffffffffffffffffffffffffffff1673ffffffffffffffffffffffffffffffffffffffff163373ffffffffffffffffffffffffffffffffffffffff16146114ea576040517f08c379a00000000000000000000000000000000000000000000000000000000081526004016114e190612e61565b60405180910390fd5b6000600c5490506114fb60016122e3565b6000600a60009054906101000a900473ffffffffffffffffffffffffffffffffffffffff1690506001600860016101000a81548160ff0219169083151502179055506000600860006101000a81548160ff021916908315150217905550600061156383610a83565b905060005b8151811015611d0557600073ffffffffffffffffffffffffffffffffffffffff168282815181106115c2577f4e487b7100000000000000000000000000000000000000000000000000000000600052603260045260246000fd5b602002602001015173ffffffffffffffffffffffffffffffffffffffff1614611afe5760008373ffffffffffffffffffffffffffffffffffffffff1663d85d3d27876040518263ffffffff1660e01b81526004016116209190612e3f565b602060405180830381600087803b15801561163a57600080fd5b505af115801561164e573d6000803e3d6000fd5b505050506040513d601f19601f8201168201806040525081019061167291906129a6565b90506000600a60009054906101000a900473ffffffffffffffffffffffffffffffffffffffff1673ffffffffffffffffffffffffffffffffffffffff16636352211e836040518263ffffffff1660e01b81526004016116d19190613021565b60206040518083038186803b1580156116e957600080fd5b505afa1580156116fd573d6000803e3d6000fd5b505050506040513d601f19601f820116820180604052508101906117219190612913565b9050600a60009054906101000a900473ffffffffffffffffffffffffffffffffffffffff1673ffffffffffffffffffffffffffffffffffffffff166323b872dd8286868151811061179b577f4e487b7100000000000000000000000000000000000000000000000000000000600052603260045260246000fd5b6020026020010151856040518463ffffffff1660e01b81526004016117c293929190612d9b565b600060405180830381600087803b1580156117dc57600080fd5b505af11580156117f0573d6000803e3d6000fd5b50505050600260009054906101000a900473ffffffffffffffffffffffffffffffffffffffff1673ffffffffffffffffffffffffffffffffffffffff166108fc6064600754600d6000898981518110611872577f4e487b7100000000000000000000000000000000000000000000000000000000600052603260045260246000fd5b602002602001015173ffffffffffffffffffffffffffffffffffffffff1673ffffffffffffffffffffffffffffffffffffffff168152602001908152602001600020546118bf91906131a2565b6118c99190613171565b9081150290604051600060405180830381858888f193505050501580156118f4573d6000803e3d6000fd5b50600360009054906101000a900473ffffffffffffffffffffffffffffffffffffffff1673ffffffffffffffffffffffffffffffffffffffff166108fc6064600554600d6000898981518110611973577f4e487b7100000000000000000000000000000000000000000000000000000000600052603260045260246000fd5b602002602001015173ffffffffffffffffffffffffffffffffffffffff1673ffffffffffffffffffffffffffffffffffffffff168152602001908152602001600020546119c091906131a2565b6119ca9190613171565b9081150290604051600060405180830381858888f193505050501580156119f5573d6000803e3d6000fd5b50600460009054906101000a900473ffffffffffffffffffffffffffffffffffffffff1673ffffffffffffffffffffffffffffffffffffffff166108fc6064600654600d6000898981518110611a74577f4e487b7100000000000000000000000000000000000000000000000000000000600052603260045260246000fd5b602002602001015173ffffffffffffffffffffffffffffffffffffffff1673ffffffffffffffffffffffffffffffffffffffff16815260200190815260200160002054611ac191906131a2565b611acb9190613171565b9081150290604051600060405180830381858888f19350505050158015611af6573d6000803e3d6000fd5b505050611cf2565b60008373ffffffffffffffffffffffffffffffffffffffff1663d85d3d27876040518263ffffffff1660e01b8152600401611b399190612e3f565b602060405180830381600087803b158015611b5357600080fd5b505af1158015611b67573d6000803e3d6000fd5b505050506040513d601f19601f82011682018060405250810190611b8b91906129a6565b90506000600a60009054906101000a900473ffffffffffffffffffffffffffffffffffffffff1673ffffffffffffffffffffffffffffffffffffffff16636352211e836040518263ffffffff1660e01b8152600401611bea9190613021565b60206040518083038186803b158015611c0257600080fd5b505afa158015611c16573d6000803e3d6000fd5b505050506040513d601f19601f82011682018060405250810190611c3a9190612913565b9050600a60009054906101000a900473ffffffffffffffffffffffffffffffffffffffff1673ffffffffffffffffffffffffffffffffffffffff166323b872dd82600260009054906101000a900473ffffffffffffffffffffffffffffffffffffffff16856040518463ffffffff1660e01b8152600401611cbd93929190612d64565b600060405180830381600087803b158015611cd757600080fd5b505af1158015611ceb573d6000803e3d6000fd5b5050505050505b8080611cfd9061335d565b915050611568565b507f363577b4cda9ff8b076214caf0c0f713f5bc7aeca065acb1d81f546e9a655c648142604051611d37929190612df4565b60405180910390a1505050600160008190555050565b600f5481565b600360009054906101000a900473ffffffffffffffffffffffffffffffffffffffff1681565b600d6020528060005260406000206000915090505481565b600073ffffffffffffffffffffffffffffffffffffffff16600e60008473ffffffffffffffffffffffffffffffffffffffff1673ffffffffffffffffffffffffffffffffffffffff16815260200190815260200160002060009054906101000a900473ffffffffffffffffffffffffffffffffffffffff1673ffffffffffffffffffffffffffffffffffffffff1614611e5f576040517f08c379a0000000000000000000000000000000000000000000000000000000008152600401611e5690612f41565b60405180910390fd5b6000611e6a826122f9565b905081600d60008573ffffffffffffffffffffffffffffffffffffffff1673ffffffffffffffffffffffffffffffffffffffff16815260200190815260200160002081905550600e60008273ffffffffffffffffffffffffffffffffffffffff1673ffffffffffffffffffffffffffffffffffffffff16815260200190815260200160002060009054906101000a900473ffffffffffffffffffffffffffffffffffffffff16600e60008573ffffffffffffffffffffffffffffffffffffffff1673ffffffffffffffffffffffffffffffffffffffff16815260200190815260200160002060006101000a81548173ffffffffffffffffffffffffffffffffffffffff021916908373ffffffffffffffffffffffffffffffffffffffff16021790555082600e60008373ffffffffffffffffffffffffffffffffffffffff1673ffffffffffffffffffffffffffffffffffffffff16815260200190815260200160002060006101000a81548173ffffffffffffffffffffffffffffffffffffffff021916908373ffffffffffffffffffffffffffffffffffffffff160217905550600f600081548092919061201e9061335d565b9190505550505050565b61207c8282600d60008673ffffffffffffffffffffffffffffffffffffffff1673ffffffffffffffffffffffffffffffffffffffff16815260200190815260200160002054612077919061311b565b6123ee565b5050565b600073ffffffffffffffffffffffffffffffffffffffff16600e60008373ffffffffffffffffffffffffffffffffffffffff1673ffffffffffffffffffffffffffffffffffffffff16815260200190815260200160002060009054906101000a900473ffffffffffffffffffffffffffffffffffffffff1673ffffffffffffffffffffffffffffffffffffffff16141561211957600080fd5b60006121248261256b565b9050600e60008373ffffffffffffffffffffffffffffffffffffffff1673ffffffffffffffffffffffffffffffffffffffff16815260200190815260200160002060009054906101000a900473ffffffffffffffffffffffffffffffffffffffff16600e60008373ffffffffffffffffffffffffffffffffffffffff1673ffffffffffffffffffffffffffffffffffffffff16815260200190815260200160002060006101000a81548173ffffffffffffffffffffffffffffffffffffffff021916908373ffffffffffffffffffffffffffffffffffffffff1602179055506000600e60008473ffffffffffffffffffffffffffffffffffffffff1673ffffffffffffffffffffffffffffffffffffffff16815260200190815260200160002060006101000a81548173ffffffffffffffffffffffffffffffffffffffff021916908373ffffffffffffffffffffffffffffffffffffffff1602179055506000600d60008473ffffffffffffffffffffffffffffffffffffffff1673ffffffffffffffffffffffffffffffffffffffff16815260200190815260200160002081905550600f60008154809291906122da90613302565b91905055505050565b6001816000016000828254019250508190555050565b600080600190505b6001156123e7576123728184600e60008573ffffffffffffffffffffffffffffffffffffffff1673ffffffffffffffffffffffffffffffffffffffff16815260200190815260200160002060009054906101000a900473ffffffffffffffffffffffffffffffffffffffff16612690565b1561238057809150506123e9565b600e60008273ffffffffffffffffffffffffffffffffffffffff1673ffffffffffffffffffffffffffffffffffffffff16815260200190815260200160002060009054906101000a900473ffffffffffffffffffffffffffffffffffffffff169050612301565b505b919050565b600073ffffffffffffffffffffffffffffffffffffffff16600e60008473ffffffffffffffffffffffffffffffffffffffff1673ffffffffffffffffffffffffffffffffffffffff16815260200190815260200160002060009054906101000a900473ffffffffffffffffffffffffffffffffffffffff1673ffffffffffffffffffffffffffffffffffffffff16141561248757600080fd5b60006124928361256b565b90506000600e60008573ffffffffffffffffffffffffffffffffffffffff1673ffffffffffffffffffffffffffffffffffffffff16815260200190815260200160002060009054906101000a900473ffffffffffffffffffffffffffffffffffffffff169050612503828483612690565b156125515782600d60008673ffffffffffffffffffffffffffffffffffffffff1673ffffffffffffffffffffffffffffffffffffffff16815260200190815260200160002081905550612565565b61255a84612080565b6125648484611d91565b5b50505050565b600080600190505b600173ffffffffffffffffffffffffffffffffffffffff16600e60008373ffffffffffffffffffffffffffffffffffffffff1673ffffffffffffffffffffffffffffffffffffffff16815260200190815260200160002060009054906101000a900473ffffffffffffffffffffffffffffffffffffffff1673ffffffffffffffffffffffffffffffffffffffff1614612685576126108382612796565b1561261e578091505061268b565b600e60008273ffffffffffffffffffffffffffffffffffffffff1673ffffffffffffffffffffffffffffffffffffffff16815260200190815260200160002060009054906101000a900473ffffffffffffffffffffffffffffffffffffffff169050612573565b60009150505b919050565b6000600173ffffffffffffffffffffffffffffffffffffffff168473ffffffffffffffffffffffffffffffffffffffff16148061270c575082600d60008673ffffffffffffffffffffffffffffffffffffffff1673ffffffffffffffffffffffffffffffffffffffff1681526020019081526020016000205410155b801561278d5750600173ffffffffffffffffffffffffffffffffffffffff168273ffffffffffffffffffffffffffffffffffffffff16148061278c5750600d60008373ffffffffffffffffffffffffffffffffffffffff1673ffffffffffffffffffffffffffffffffffffffff1681526020019081526020016000205483115b5b90509392505050565b60008273ffffffffffffffffffffffffffffffffffffffff16600e60008473ffffffffffffffffffffffffffffffffffffffff1673ffffffffffffffffffffffffffffffffffffffff16815260200190815260200160002060009054906101000a900473ffffffffffffffffffffffffffffffffffffffff1673ffffffffffffffffffffffffffffffffffffffff1614905092915050565b600061284161283c8461308a565b613065565b90508281526020810184848401111561285957600080fd5b6128648482856132c0565b509392505050565b60008135905061287b81613743565b92915050565b60008151905061289081613743565b92915050565b600082601f8301126128a757600080fd5b81356128b784826020860161282e565b91505092915050565b6000813590506128cf8161375a565b92915050565b6000815190506128e48161375a565b92915050565b6000602082840312156128fc57600080fd5b600061290a8482850161286c565b91505092915050565b60006020828403121561292557600080fd5b600061293384828501612881565b91505092915050565b60006020828403121561294e57600080fd5b600082013567ffffffffffffffff81111561296857600080fd5b61297484828501612896565b91505092915050565b60006020828403121561298f57600080fd5b600061299d848285016128c0565b91505092915050565b6000602082840312156129b857600080fd5b60006129c6848285016128d5565b91505092915050565b6000806000606084860312156129e457600080fd5b60006129f2868287016128c0565b9350506020612a03868287016128c0565b9250506040612a14868287016128c0565b9150509250925092565b6000612a2a8383612a54565b60208301905092915050565b612a3f8161328a565b82525050565b612a4e81613242565b82525050565b612a5d81613230565b82525050565b612a6c81613230565b82525050565b6000612a7d826130cb565b612a8781856130ee565b9350612a92836130bb565b8060005b83811015612ac3578151612aaa8882612a1e565b9750612ab5836130e1565b925050600181019050612a96565b5085935050505092915050565b612ad981613254565b82525050565b6000612aea826130d6565b612af4818561310a565b9350612b048185602086016132cf565b612b0d81613433565b840191505092915050565b6000612b2560238361310a565b9150612b3082613444565b604082019050919050565b6000612b48601e8361310a565b9150612b5382613493565b602082019050919050565b6000612b6b60198361310a565b9150612b76826134bc565b602082019050919050565b6000612b8e602a8361310a565b9150612b99826134e5565b604082019050919050565b6000612bb160068361310a565b9150612bbc82613534565b602082019050919050565b6000612bd4602a8361310a565b9150612bdf8261355d565b604082019050919050565b6000612bf7601f8361310a565b9150612c02826135ac565b602082019050919050565b6000612c1a60298361310a565b9150612c25826135d5565b604082019050919050565b6000612c3d60108361310a565b9150612c4882613624565b602082019050919050565b6000612c60600c8361310a565b9150612c6b8261364d565b602082019050919050565b6000612c836000836130ff565b9150612c8e82613676565b600082019050919050565b6000612ca660268361310a565b9150612cb182613679565b604082019050919050565b6000612cc960168361310a565b9150612cd4826136c8565b602082019050919050565b6000612cec601f8361310a565b9150612cf7826136f1565b602082019050919050565b6000612d0f60128361310a565b9150612d1a8261371a565b602082019050919050565b612d2e81613280565b82525050565b6000612d3f82612c76565b9150819050919050565b6000602082019050612d5e6000830184612a45565b92915050565b6000606082019050612d796000830186612a63565b612d866020830185612a36565b612d936040830184612d25565b949350505050565b6000606082019050612db06000830186612a63565b612dbd6020830185612a63565b612dca6040830184612d25565b949350505050565b60006020820190508181036000830152612dec8184612a72565b905092915050565b60006040820190508181036000830152612e0e8185612a72565b9050612e1d6020830184612d25565b9392505050565b6000602082019050612e396000830184612ad0565b92915050565b60006020820190508181036000830152612e598184612adf565b905092915050565b60006020820190508181036000830152612e7a81612b18565b9050919050565b60006020820190508181036000830152612e9a81612b3b565b9050919050565b60006020820190508181036000830152612eba81612b5e565b9050919050565b60006020820190508181036000830152612eda81612b81565b9050919050565b60006020820190508181036000830152612efa81612ba4565b9050919050565b60006020820190508181036000830152612f1a81612bc7565b9050919050565b60006020820190508181036000830152612f3a81612bea565b9050919050565b60006020820190508181036000830152612f5a81612c0d565b9050919050565b60006020820190508181036000830152612f7a81612c30565b9050919050565b60006020820190508181036000830152612f9a81612c53565b9050919050565b60006020820190508181036000830152612fba81612c99565b9050919050565b60006020820190508181036000830152612fda81612cbc565b9050919050565b60006020820190508181036000830152612ffa81612cdf565b9050919050565b6000602082019050818103600083015261301a81612d02565b9050919050565b60006020820190506130366000830184612d25565b92915050565b60006040820190506130516000830185612d25565b61305e6020830184612d25565b9392505050565b600061306f613080565b905061307b828261332c565b919050565b6000604051905090565b600067ffffffffffffffff8211156130a5576130a4613404565b5b6130ae82613433565b9050602081019050919050565b6000819050602082019050919050565b600081519050919050565b600081519050919050565b6000602082019050919050565b600082825260208201905092915050565b600081905092915050565b600082825260208201905092915050565b600061312682613280565b915061313183613280565b9250827fffffffffffffffffffffffffffffffffffffffffffffffffffffffffffffffff03821115613166576131656133a6565b5b828201905092915050565b600061317c82613280565b915061318783613280565b925082613197576131966133d5565b5b828204905092915050565b60006131ad82613280565b91506131b883613280565b9250817fffffffffffffffffffffffffffffffffffffffffffffffffffffffffffffffff04831182151516156131f1576131f06133a6565b5b828202905092915050565b600061320782613280565b915061321283613280565b925082821015613225576132246133a6565b5b828203905092915050565b600061323b82613260565b9050919050565b600061324d82613260565b9050919050565b60008115159050919050565b600073ffffffffffffffffffffffffffffffffffffffff82169050919050565b6000819050919050565b60006132958261329c565b9050919050565b60006132a7826132ae565b9050919050565b60006132b982613260565b9050919050565b82818337600083830152505050565b60005b838110156132ed5780820151818401526020810190506132d2565b838111156132fc576000848401525b50505050565b600061330d82613280565b91506000821415613321576133206133a6565b5b600182039050919050565b61333582613433565b810181811067ffffffffffffffff8211171561335457613353613404565b5b80604052505050565b600061336882613280565b91507fffffffffffffffffffffffffffffffffffffffffffffffffffffffffffffffff82141561339b5761339a6133a6565b5b600182019050919050565b7f4e487b7100000000000000000000000000000000000000000000000000000000600052601160045260246000fd5b7f4e487b7100000000000000000000000000000000000000000000000000000000600052601260045260246000fd5b7f4e487b7100000000000000000000000000000000000000000000000000000000600052604160045260246000fd5b6000601f19601f8301169050919050565b7f4f6e6c79207468652073656c6c65722063616e20656e6420746865206175637460008201527f696f6e0000000000000000000000000000000000000000000000000000000000602082015250565b7f596f7520617265206e6f742074686520636f6e7472616374206f776e65720000600082015250565b7f41756374696f6e206973207374696c6c206f6e676f696e672100000000000000600082015250565b7f4d75737420626964206d6f7265207468616e20746865206c617374206869676860008201527f6573742062696464657200000000000000000000000000000000000000000000602082015250565b7f456e646564210000000000000000000000000000000000000000000000000000600082015250565b7f57696e6e696e6720426964646572732063616e6e6f742077697468647261772060008201527f7468656972206269647300000000000000000000000000000000000000000000602082015250565b7f5468652041756374696f6e206861736e27742073746172746564207965742e00600082015250565b7f596f75206d75737420696e637265617365207468652062696420746f2061646460008201527f2061206269646465720000000000000000000000000000000000000000000000602082015250565b7f416c726561647920537461727465642100000000000000000000000000000000600082015250565b7f4e6f7420737461727465642e0000000000000000000000000000000000000000600082015250565b50565b7f4d7573742042696420486967686572207468616e206f7220657175616c20746f60008201527f20466c6f6f720000000000000000000000000000000000000000000000000000602082015250565b7f41756374696f6e20616c726561647920656e6465642100000000000000000000600082015250565b7f5265656e7472616e637947756172643a207265656e7472616e742063616c6c00600082015250565b7f436f756c64206e6f742077697468647261770000000000000000000000000000600082015250565b61374c81613230565b811461375757600080fd5b50565b61376381613280565b811461376e57600080fd5b5056fea264697066735822122037d6538e0473f9ac1b2821fb5c11f5102726f60c70a348c8215204e99a7b8beb64736f6c63430008040033",
  "linkReferences": {},
  "deployedLinkReferences": {}
}