{
  "_format": "hh-sol-artifact-1",
  "contractName": "LiveMintFactory2",
  "sourceName": "contracts/LiveMint2.sol",
  "abi": [
    {
      "inputs": [
        {
          "internalType": "string",
          "name": "name",
          "type": "string"
        },
        {
          "internalType": "string",
          "name": "symbol",
          "type": "string"
        },
        {
          "internalType": "address payable",
          "name": "artist",
          "type": "address"
        },
        {
          "internalType": "uint256",
          "name": "_mintAmount",
          "type": "uint256"
        },
        {
          "internalType": "uint96",
          "name": "_royaltyValue",
          "type": "uint96"
        }
      ],
      "stateMutability": "nonpayable",
      "type": "constructor"
    },
    {
      "anonymous": false,
      "inputs": [
        {
          "indexed": true,
          "internalType": "address",
          "name": "owner",
          "type": "address"
        },
        {
          "indexed": true,
          "internalType": "address",
          "name": "approved",
          "type": "address"
        },
        {
          "indexed": true,
          "internalType": "uint256",
          "name": "tokenId",
          "type": "uint256"
        }
      ],
      "name": "Approval",
      "type": "event"
    },
    {
      "anonymous": false,
      "inputs": [
        {
          "indexed": true,
          "internalType": "address",
          "name": "owner",
          "type": "address"
        },
        {
          "indexed": true,
          "internalType": "address",
          "name": "operator",
          "type": "address"
        },
        {
          "indexed": false,
          "internalType": "bool",
          "name": "approved",
          "type": "bool"
        }
      ],
      "name": "ApprovalForAll",
      "type": "event"
    },
    {
      "anonymous": false,
      "inputs": [
        {
          "indexed": true,
          "internalType": "address",
          "name": "previousOwner",
          "type": "address"
        },
        {
          "indexed": true,
          "internalType": "address",
          "name": "newOwner",
          "type": "address"
        }
      ],
      "name": "OwnershipTransferred",
      "type": "event"
    },
    {
      "anonymous": false,
      "inputs": [
        {
          "indexed": true,
          "internalType": "address",
          "name": "from",
          "type": "address"
        },
        {
          "indexed": true,
          "internalType": "address",
          "name": "to",
          "type": "address"
        },
        {
          "indexed": true,
          "internalType": "uint256",
          "name": "tokenId",
          "type": "uint256"
        }
      ],
      "name": "Transfer",
      "type": "event"
    },
    {
      "inputs": [
        {
          "internalType": "address",
          "name": "to",
          "type": "address"
        },
        {
          "internalType": "uint256",
          "name": "tokenId",
          "type": "uint256"
        }
      ],
      "name": "approve",
      "outputs": [],
      "stateMutability": "nonpayable",
      "type": "function"
    },
    {
      "inputs": [
        {
          "internalType": "address",
          "name": "owner",
          "type": "address"
        }
      ],
      "name": "balanceOf",
      "outputs": [
        {
          "internalType": "uint256",
          "name": "",
          "type": "uint256"
        }
      ],
      "stateMutability": "view",
      "type": "function"
    },
    {
      "inputs": [
        {
          "internalType": "uint256",
          "name": "tokenId",
          "type": "uint256"
        }
      ],
      "name": "getApproved",
      "outputs": [
        {
          "internalType": "address",
          "name": "",
          "type": "address"
        }
      ],
      "stateMutability": "view",
      "type": "function"
    },
    {
      "inputs": [],
      "name": "getCurrentId",
      "outputs": [
        {
          "internalType": "uint256",
          "name": "",
          "type": "uint256"
        }
      ],
      "stateMutability": "view",
      "type": "function"
    },
    {
      "inputs": [
        {
          "internalType": "address",
          "name": "owner",
          "type": "address"
        },
        {
          "internalType": "address",
          "name": "operator",
          "type": "address"
        }
      ],
      "name": "isApprovedForAll",
      "outputs": [
        {
          "internalType": "bool",
          "name": "",
          "type": "bool"
        }
      ],
      "stateMutability": "view",
      "type": "function"
    },
    {
      "inputs": [
        {
          "internalType": "string",
          "name": "tokenURI",
          "type": "string"
        }
      ],
      "name": "mint",
      "outputs": [
        {
          "internalType": "uint256",
          "name": "",
          "type": "uint256"
        }
      ],
      "stateMutability": "nonpayable",
      "type": "function"
    },
    {
      "inputs": [],
      "name": "name",
      "outputs": [
        {
          "internalType": "string",
          "name": "",
          "type": "string"
        }
      ],
      "stateMutability": "view",
      "type": "function"
    },
    {
      "inputs": [],
      "name": "owner",
      "outputs": [
        {
          "internalType": "address",
          "name": "",
          "type": "address"
        }
      ],
      "stateMutability": "view",
      "type": "function"
    },
    {
      "inputs": [
        {
          "internalType": "uint256",
          "name": "tokenId",
          "type": "uint256"
        }
      ],
      "name": "ownerOf",
      "outputs": [
        {
          "internalType": "address",
          "name": "",
          "type": "address"
        }
      ],
      "stateMutability": "view",
      "type": "function"
    },
    {
      "inputs": [],
      "name": "renounceOwnership",
      "outputs": [],
      "stateMutability": "nonpayable",
      "type": "function"
    },
    {
      "inputs": [
        {
          "internalType": "uint256",
          "name": "_tokenId",
          "type": "uint256"
        },
        {
          "internalType": "uint256",
          "name": "_salePrice",
          "type": "uint256"
        }
      ],
      "name": "royaltyInfo",
      "outputs": [
        {
          "internalType": "address",
          "name": "",
          "type": "address"
        },
        {
          "internalType": "uint256",
          "name": "",
          "type": "uint256"
        }
      ],
      "stateMutability": "view",
      "type": "function"
    },
    {
      "inputs": [
        {
          "internalType": "address",
          "name": "from",
          "type": "address"
        },
        {
          "internalType": "address",
          "name": "to",
          "type": "address"
        },
        {
          "internalType": "uint256",
          "name": "tokenId",
          "type": "uint256"
        }
      ],
      "name": "safeTransferFrom",
      "outputs": [],
      "stateMutability": "nonpayable",
      "type": "function"
    },
    {
      "inputs": [
        {
          "internalType": "address",
          "name": "from",
          "type": "address"
        },
        {
          "internalType": "address",
          "name": "to",
          "type": "address"
        },
        {
          "internalType": "uint256",
          "name": "tokenId",
          "type": "uint256"
        },
        {
          "internalType": "bytes",
          "name": "_data",
          "type": "bytes"
        }
      ],
      "name": "safeTransferFrom",
      "outputs": [],
      "stateMutability": "nonpayable",
      "type": "function"
    },
    {
      "inputs": [
        {
          "internalType": "address",
          "name": "operator",
          "type": "address"
        },
        {
          "internalType": "bool",
          "name": "approved",
          "type": "bool"
        }
      ],
      "name": "setApprovalForAll",
      "outputs": [],
      "stateMutability": "nonpayable",
      "type": "function"
    },
    {
      "inputs": [
        {
          "internalType": "bytes4",
          "name": "interfaceId",
          "type": "bytes4"
        }
      ],
      "name": "supportsInterface",
      "outputs": [
        {
          "internalType": "bool",
          "name": "",
          "type": "bool"
        }
      ],
      "stateMutability": "view",
      "type": "function"
    },
    {
      "inputs": [],
      "name": "symbol",
      "outputs": [
        {
          "internalType": "string",
          "name": "",
          "type": "string"
        }
      ],
      "stateMutability": "view",
      "type": "function"
    },
    {
      "inputs": [
        {
          "internalType": "uint256",
          "name": "tokenId",
          "type": "uint256"
        }
      ],
      "name": "tokenURI",
      "outputs": [
        {
          "internalType": "string",
          "name": "",
          "type": "string"
        }
      ],
      "stateMutability": "view",
      "type": "function"
    },
    {
      "inputs": [
        {
          "internalType": "address",
          "name": "from",
          "type": "address"
        },
        {
          "internalType": "address",
          "name": "to",
          "type": "address"
        },
        {
          "internalType": "uint256",
          "name": "tokenId",
          "type": "uint256"
        }
      ],
      "name": "transferFrom",
      "outputs": [],
      "stateMutability": "nonpayable",
      "type": "function"
    },
    {
      "inputs": [
        {
          "internalType": "address",
          "name": "newOwner",
          "type": "address"
        }
      ],
      "name": "transferOwnership",
      "outputs": [],
      "stateMutability": "nonpayable",
      "type": "function"
    }
  ],
  "bytecode": "0x60806040523480156200001157600080fd5b5060405162003e1038038062003e1083398181016040528101906200003791906200034e565b8484816000908051906020019062000051929190620001e7565b5080600190805190602001906200006a929190620001e7565b5050506200008d620000816200011960201b60201c565b6200012160201b60201c565b6001600a8190555082600d600c6101000a81548173ffffffffffffffffffffffffffffffffffffffff021916908373ffffffffffffffffffffffffffffffffffffffff16021790555081600c8190555080600d60006101000a8154816bffffffffffffffffffffffff02191690836bffffffffffffffffffffffff160217905550505050505062000616565b600033905090565b6000600760009054906101000a900473ffffffffffffffffffffffffffffffffffffffff16905081600760006101000a81548173ffffffffffffffffffffffffffffffffffffffff021916908373ffffffffffffffffffffffffffffffffffffffff1602179055508173ffffffffffffffffffffffffffffffffffffffff168173ffffffffffffffffffffffffffffffffffffffff167f8be0079c531659141344cd1fd0a4f28419497f9722a3daafe3b4186f6b6457e060405160405180910390a35050565b828054620001f590620004ed565b90600052602060002090601f01602090048101928262000219576000855562000265565b82601f106200023457805160ff191683800117855562000265565b8280016001018555821562000265579182015b828111156200026457825182559160200191906001019062000247565b5b50905062000274919062000278565b5090565b5b808211156200029357600081600090555060010162000279565b5090565b6000620002ae620002a8846200042b565b62000402565b905082815260208101848484011115620002c757600080fd5b620002d4848285620004b7565b509392505050565b600081519050620002ed81620005c8565b92915050565b600082601f8301126200030557600080fd5b81516200031784826020860162000297565b91505092915050565b6000815190506200033181620005e2565b92915050565b6000815190506200034881620005fc565b92915050565b600080600080600060a086880312156200036757600080fd5b600086015167ffffffffffffffff8111156200038257600080fd5b6200039088828901620002f3565b955050602086015167ffffffffffffffff811115620003ae57600080fd5b620003bc88828901620002f3565b9450506040620003cf88828901620002dc565b9350506060620003e28882890162000320565b9250506080620003f58882890162000337565b9150509295509295909350565b60006200040e62000421565b90506200041c828262000523565b919050565b6000604051905090565b600067ffffffffffffffff82111562000449576200044862000588565b5b6200045482620005b7565b9050602081019050919050565b60006200046e8262000475565b9050919050565b600073ffffffffffffffffffffffffffffffffffffffff82169050919050565b6000819050919050565b60006bffffffffffffffffffffffff82169050919050565b60005b83811015620004d7578082015181840152602081019050620004ba565b83811115620004e7576000848401525b50505050565b600060028204905060018216806200050657607f821691505b602082108114156200051d576200051c62000559565b5b50919050565b6200052e82620005b7565b810181811067ffffffffffffffff8211171562000550576200054f62000588565b5b80604052505050565b7f4e487b7100000000000000000000000000000000000000000000000000000000600052602260045260246000fd5b7f4e487b7100000000000000000000000000000000000000000000000000000000600052604160045260246000fd5b6000601f19601f8301169050919050565b620005d38162000461565b8114620005df57600080fd5b50565b620005ed8162000495565b8114620005f957600080fd5b50565b62000607816200049f565b81146200061357600080fd5b50565b6137ea80620006266000396000f3fe608060405234801561001057600080fd5b50600436106101215760003560e01c806370a08231116100ad578063b88d4fde11610071578063b88d4fde14610309578063c87b56dd14610325578063d85d3d2714610355578063e985e9c514610385578063f2fde38b146103b557610121565b806370a0823114610277578063715018a6146102a75780638da5cb5b146102b157806395d89b41146102cf578063a22cb465146102ed57610121565b806323b872dd116100f457806323b872dd146101c05780632a55205a146101dc57806342842e0e1461020d5780636352211e146102295780636c1438621461025957610121565b806301ffc9a71461012657806306fdde0314610156578063081812fc14610174578063095ea7b3146101a4575b600080fd5b610140600480360381019061013b91906124c3565b6103d1565b60405161014d9190612a41565b60405180910390f35b61015e6103e3565b60405161016b9190612a5c565b60405180910390f35b61018e60048036038101906101899190612556565b610475565b60405161019b91906129b1565b60405180910390f35b6101be60048036038101906101b99190612487565b6104fa565b005b6101da60048036038101906101d59190612381565b610612565b005b6101f660048036038101906101f1919061257f565b610672565b604051610204929190612a18565b60405180910390f35b61022760048036038101906102229190612381565b61085d565b005b610243600480360381019061023e9190612556565b61087d565b60405161025091906129b1565b60405180910390f35b61026161092f565b60405161026e9190612d3e565b60405180910390f35b610291600480360381019061028c919061231c565b610940565b60405161029e9190612d3e565b60405180910390f35b6102af6109f8565b005b6102b9610a80565b6040516102c691906129b1565b60405180910390f35b6102d7610aaa565b6040516102e49190612a5c565b60405180910390f35b6103076004803603810190610302919061244b565b610b3c565b005b610323600480360381019061031e91906123d0565b610b52565b005b61033f600480360381019061033a9190612556565b610bb4565b60405161034c9190612a5c565b60405180910390f35b61036f600480360381019061036a9190612515565b610d06565b60405161037c9190612d3e565b60405180910390f35b61039f600480360381019061039a9190612345565b610e9a565b6040516103ac9190612a41565b60405180910390f35b6103cf60048036038101906103ca919061231c565b610f2e565b005b60006103dc82611026565b9050919050565b6060600080546103f290612fee565b80601f016020809104026020016040519081016040528092919081815260200182805461041e90612fee565b801561046b5780601f106104405761010080835404028352916020019161046b565b820191906000526020600020905b81548152906001019060200180831161044e57829003601f168201915b5050505050905090565b6000610480826110a0565b6104bf576040517f08c379a00000000000000000000000000000000000000000000000000000000081526004016104b690612c3e565b60405180910390fd5b6004600083815260200190815260200160002060009054906101000a900473ffffffffffffffffffffffffffffffffffffffff169050919050565b60006105058261087d565b90508073ffffffffffffffffffffffffffffffffffffffff168373ffffffffffffffffffffffffffffffffffffffff161415610576576040517f08c379a000000000000000000000000000000000000000000000000000000000815260040161056d90612c9e565b60405180910390fd5b8073ffffffffffffffffffffffffffffffffffffffff1661059561110c565b73ffffffffffffffffffffffffffffffffffffffff1614806105c457506105c3816105be61110c565b610e9a565b5b610603576040517f08c379a00000000000000000000000000000000000000000000000000000000081526004016105fa90612b7e565b60405180910390fd5b61060d8383611114565b505050565b61062361061d61110c565b826111cd565b610662576040517f08c379a000000000000000000000000000000000000000000000000000000000815260040161065990612cbe565b60405180910390fd5b61066d8383836112ab565b505050565b6000806000600960008681526020019081526020016000206040518060400160405290816000820160009054906101000a900473ffffffffffffffffffffffffffffffffffffffff1673ffffffffffffffffffffffffffffffffffffffff1673ffffffffffffffffffffffffffffffffffffffff1681526020016000820160149054906101000a90046bffffffffffffffffffffffff166bffffffffffffffffffffffff166bffffffffffffffffffffffff16815250509050600073ffffffffffffffffffffffffffffffffffffffff16816000015173ffffffffffffffffffffffffffffffffffffffff1614156108085760086040518060400160405290816000820160009054906101000a900473ffffffffffffffffffffffffffffffffffffffff1673ffffffffffffffffffffffffffffffffffffffff1673ffffffffffffffffffffffffffffffffffffffff1681526020016000820160149054906101000a90046bffffffffffffffffffffffff166bffffffffffffffffffffffff166bffffffffffffffffffffffff168152505090505b6000610812611512565b6bffffffffffffffffffffffff1682602001516bffffffffffffffffffffffff168661083e9190612eaa565b6108489190612e79565b90508160000151819350935050509250929050565b61087883838360405180602001604052806000815250610b52565b505050565b6000806002600084815260200190815260200160002060009054906101000a900473ffffffffffffffffffffffffffffffffffffffff169050600073ffffffffffffffffffffffffffffffffffffffff168173ffffffffffffffffffffffffffffffffffffffff161415610926576040517f08c379a000000000000000000000000000000000000000000000000000000000815260040161091d90612bbe565b60405180910390fd5b80915050919050565b600061093b600b61151c565b905090565b60008073ffffffffffffffffffffffffffffffffffffffff168273ffffffffffffffffffffffffffffffffffffffff1614156109b1576040517f08c379a00000000000000000000000000000000000000000000000000000000081526004016109a890612b9e565b60405180910390fd5b600360008373ffffffffffffffffffffffffffffffffffffffff1673ffffffffffffffffffffffffffffffffffffffff168152602001908152602001600020549050919050565b610a0061110c565b73ffffffffffffffffffffffffffffffffffffffff16610a1e610a80565b73ffffffffffffffffffffffffffffffffffffffff1614610a74576040517f08c379a0000000000000000000000000000000000000000000000000000000008152600401610a6b90612c5e565b60405180910390fd5b610a7e600061152a565b565b6000600760009054906101000a900473ffffffffffffffffffffffffffffffffffffffff16905090565b606060018054610ab990612fee565b80601f0160208091040260200160405190810160405280929190818152602001828054610ae590612fee565b8015610b325780601f10610b0757610100808354040283529160200191610b32565b820191906000526020600020905b815481529060010190602001808311610b1557829003601f168201915b5050505050905090565b610b4e610b4761110c565b83836115f0565b5050565b610b63610b5d61110c565b836111cd565b610ba2576040517f08c379a0000000000000000000000000000000000000000000000000000000008152600401610b9990612cbe565b60405180910390fd5b610bae8484848461175d565b50505050565b6060610bbf826110a0565b610bfe576040517f08c379a0000000000000000000000000000000000000000000000000000000008152600401610bf590612c1e565b60405180910390fd5b6000600660008481526020019081526020016000208054610c1e90612fee565b80601f0160208091040260200160405190810160405280929190818152602001828054610c4a90612fee565b8015610c975780601f10610c6c57610100808354040283529160200191610c97565b820191906000526020600020905b815481529060010190602001808311610c7a57829003601f168201915b505050505090506000610ca86117b9565b9050600081511415610cbe578192505050610d01565b600082511115610cf3578082604051602001610cdb92919061298d565b60405160208183030381529060405292505050610d01565b610cfc846117d0565b925050505b919050565b60006002600a541415610d4e576040517f08c379a0000000000000000000000000000000000000000000000000000000008152600401610d4590612d1e565b60405180910390fd5b6002600a81905550610d5e61110c565b73ffffffffffffffffffffffffffffffffffffffff16610d7c610a80565b73ffffffffffffffffffffffffffffffffffffffff1614610dd2576040517f08c379a0000000000000000000000000000000000000000000000000000000008152600401610dc990612c5e565b60405180910390fd5b6000610dde600b61151c565b905080600c5411610e24576040517f08c379a0000000000000000000000000000000000000000000000000000000008152600401610e1b90612a7e565b60405180910390fd5b610e2e3382611877565b610e7581600d600c9054906101000a900473ffffffffffffffffffffffffffffffffffffffff16600d60009054906101000a90046bffffffffffffffffffffffff16611a51565b610e7f8184611bf9565b610e89600b611c6d565b809150506001600a81905550919050565b6000600560008473ffffffffffffffffffffffffffffffffffffffff1673ffffffffffffffffffffffffffffffffffffffff16815260200190815260200160002060008373ffffffffffffffffffffffffffffffffffffffff1673ffffffffffffffffffffffffffffffffffffffff16815260200190815260200160002060009054906101000a900460ff16905092915050565b610f3661110c565b73ffffffffffffffffffffffffffffffffffffffff16610f54610a80565b73ffffffffffffffffffffffffffffffffffffffff1614610faa576040517f08c379a0000000000000000000000000000000000000000000000000000000008152600401610fa190612c5e565b60405180910390fd5b600073ffffffffffffffffffffffffffffffffffffffff168173ffffffffffffffffffffffffffffffffffffffff16141561101a576040517f08c379a000000000000000000000000000000000000000000000000000000000815260040161101190612abe565b60405180910390fd5b6110238161152a565b50565b60007f2a55205a000000000000000000000000000000000000000000000000000000007bffffffffffffffffffffffffffffffffffffffffffffffffffffffff1916827bffffffffffffffffffffffffffffffffffffffffffffffffffffffff19161480611099575061109882611c83565b5b9050919050565b60008073ffffffffffffffffffffffffffffffffffffffff166002600084815260200190815260200160002060009054906101000a900473ffffffffffffffffffffffffffffffffffffffff1673ffffffffffffffffffffffffffffffffffffffff1614159050919050565b600033905090565b816004600083815260200190815260200160002060006101000a81548173ffffffffffffffffffffffffffffffffffffffff021916908373ffffffffffffffffffffffffffffffffffffffff160217905550808273ffffffffffffffffffffffffffffffffffffffff166111878361087d565b73ffffffffffffffffffffffffffffffffffffffff167f8c5be1e5ebec7d5bd14f71427d1e84f3dd0314c0f7b2291e5b200ac8c7c3b92560405160405180910390a45050565b60006111d8826110a0565b611217576040517f08c379a000000000000000000000000000000000000000000000000000000000815260040161120e90612b5e565b60405180910390fd5b60006112228361087d565b90508073ffffffffffffffffffffffffffffffffffffffff168473ffffffffffffffffffffffffffffffffffffffff16148061129157508373ffffffffffffffffffffffffffffffffffffffff1661127984610475565b73ffffffffffffffffffffffffffffffffffffffff16145b806112a257506112a18185610e9a565b5b91505092915050565b8273ffffffffffffffffffffffffffffffffffffffff166112cb8261087d565b73ffffffffffffffffffffffffffffffffffffffff1614611321576040517f08c379a000000000000000000000000000000000000000000000000000000000815260040161131890612ade565b60405180910390fd5b600073ffffffffffffffffffffffffffffffffffffffff168273ffffffffffffffffffffffffffffffffffffffff161415611391576040517f08c379a000000000000000000000000000000000000000000000000000000000815260040161138890612b1e565b60405180910390fd5b61139c838383611d65565b6113a7600082611114565b6001600360008573ffffffffffffffffffffffffffffffffffffffff1673ffffffffffffffffffffffffffffffffffffffff16815260200190815260200160002060008282546113f79190612f04565b925050819055506001600360008473ffffffffffffffffffffffffffffffffffffffff1673ffffffffffffffffffffffffffffffffffffffff168152602001908152602001600020600082825461144e9190612e23565b92505081905550816002600083815260200190815260200160002060006101000a81548173ffffffffffffffffffffffffffffffffffffffff021916908373ffffffffffffffffffffffffffffffffffffffff160217905550808273ffffffffffffffffffffffffffffffffffffffff168473ffffffffffffffffffffffffffffffffffffffff167fddf252ad1be2c89b69c2b068fc378daa952ba7f163c4a11628f55a4df523b3ef60405160405180910390a461150d838383611d6a565b505050565b6000612710905090565b600081600001549050919050565b6000600760009054906101000a900473ffffffffffffffffffffffffffffffffffffffff16905081600760006101000a81548173ffffffffffffffffffffffffffffffffffffffff021916908373ffffffffffffffffffffffffffffffffffffffff1602179055508173ffffffffffffffffffffffffffffffffffffffff168173ffffffffffffffffffffffffffffffffffffffff167f8be0079c531659141344cd1fd0a4f28419497f9722a3daafe3b4186f6b6457e060405160405180910390a35050565b8173ffffffffffffffffffffffffffffffffffffffff168373ffffffffffffffffffffffffffffffffffffffff16141561165f576040517f08c379a000000000000000000000000000000000000000000000000000000000815260040161165690612b3e565b60405180910390fd5b80600560008573ffffffffffffffffffffffffffffffffffffffff1673ffffffffffffffffffffffffffffffffffffffff16815260200190815260200160002060008473ffffffffffffffffffffffffffffffffffffffff1673ffffffffffffffffffffffffffffffffffffffff16815260200190815260200160002060006101000a81548160ff0219169083151502179055508173ffffffffffffffffffffffffffffffffffffffff168373ffffffffffffffffffffffffffffffffffffffff167f17307eab39ab6107e8899845ad3d59bd9653f200f220920489ca2b5937696c31836040516117509190612a41565b60405180910390a3505050565b6117688484846112ab565b61177484848484611d6f565b6117b3576040517f08c379a00000000000000000000000000000000000000000000000000000000081526004016117aa90612a9e565b60405180910390fd5b50505050565b606060405180602001604052806000815250905090565b60606117db826110a0565b61181a576040517f08c379a000000000000000000000000000000000000000000000000000000000815260040161181190612c7e565b60405180910390fd5b60006118246117b9565b90506000815111611844576040518060200160405280600081525061186f565b8061184e84611f06565b60405160200161185f92919061298d565b6040516020818303038152906040525b915050919050565b600073ffffffffffffffffffffffffffffffffffffffff168273ffffffffffffffffffffffffffffffffffffffff1614156118e7576040517f08c379a00000000000000000000000000000000000000000000000000000000081526004016118de90612bfe565b60405180910390fd5b6118f0816110a0565b15611930576040517f08c379a000000000000000000000000000000000000000000000000000000000815260040161192790612afe565b60405180910390fd5b61193c60008383611d65565b6001600360008473ffffffffffffffffffffffffffffffffffffffff1673ffffffffffffffffffffffffffffffffffffffff168152602001908152602001600020600082825461198c9190612e23565b92505081905550816002600083815260200190815260200160002060006101000a81548173ffffffffffffffffffffffffffffffffffffffff021916908373ffffffffffffffffffffffffffffffffffffffff160217905550808273ffffffffffffffffffffffffffffffffffffffff16600073ffffffffffffffffffffffffffffffffffffffff167fddf252ad1be2c89b69c2b068fc378daa952ba7f163c4a11628f55a4df523b3ef60405160405180910390a4611a4d60008383611d6a565b5050565b611a59611512565b6bffffffffffffffffffffffff16816bffffffffffffffffffffffff161115611ab7576040517f08c379a0000000000000000000000000000000000000000000000000000000008152600401611aae90612cfe565b60405180910390fd5b600073ffffffffffffffffffffffffffffffffffffffff168273ffffffffffffffffffffffffffffffffffffffff161415611b27576040517f08c379a0000000000000000000000000000000000000000000000000000000008152600401611b1e90612cde565b60405180910390fd5b60405180604001604052808373ffffffffffffffffffffffffffffffffffffffff168152602001826bffffffffffffffffffffffff168152506009600085815260200190815260200160002060008201518160000160006101000a81548173ffffffffffffffffffffffffffffffffffffffff021916908373ffffffffffffffffffffffffffffffffffffffff16021790555060208201518160000160146101000a8154816bffffffffffffffffffffffff02191690836bffffffffffffffffffffffff160217905550905050505050565b611c02826110a0565b611c41576040517f08c379a0000000000000000000000000000000000000000000000000000000008152600401611c3890612bde565b60405180910390fd5b80600660008481526020019081526020016000209080519060200190611c68929190612140565b505050565b6001816000016000828254019250508190555050565b60007f80ac58cd000000000000000000000000000000000000000000000000000000007bffffffffffffffffffffffffffffffffffffffffffffffffffffffff1916827bffffffffffffffffffffffffffffffffffffffffffffffffffffffff19161480611d4e57507f5b5e139f000000000000000000000000000000000000000000000000000000007bffffffffffffffffffffffffffffffffffffffffffffffffffffffff1916827bffffffffffffffffffffffffffffffffffffffffffffffffffffffff1916145b80611d5e5750611d5d826120b3565b5b9050919050565b505050565b505050565b6000611d908473ffffffffffffffffffffffffffffffffffffffff1661211d565b15611ef9578373ffffffffffffffffffffffffffffffffffffffff1663150b7a02611db961110c565b8786866040518563ffffffff1660e01b8152600401611ddb94939291906129cc565b602060405180830381600087803b158015611df557600080fd5b505af1925050508015611e2657506040513d601f19601f82011682018060405250810190611e2391906124ec565b60015b611ea9573d8060008114611e56576040519150601f19603f3d011682016040523d82523d6000602084013e611e5b565b606091505b50600081511415611ea1576040517f08c379a0000000000000000000000000000000000000000000000000000000008152600401611e9890612a9e565b60405180910390fd5b805181602001fd5b63150b7a0260e01b7bffffffffffffffffffffffffffffffffffffffffffffffffffffffff1916817bffffffffffffffffffffffffffffffffffffffffffffffffffffffff191614915050611efe565b600190505b949350505050565b60606000821415611f4e576040518060400160405280600181526020017f300000000000000000000000000000000000000000000000000000000000000081525090506120ae565b600082905060005b60008214611f80578080611f6990613051565b915050600a82611f799190612e79565b9150611f56565b60008167ffffffffffffffff811115611fc2577f4e487b7100000000000000000000000000000000000000000000000000000000600052604160045260246000fd5b6040519080825280601f01601f191660200182016040528015611ff45781602001600182028036833780820191505090505b5090505b600085146120a75760018261200d9190612f04565b9150600a8561201c919061309a565b60306120289190612e23565b60f81b818381518110612064577f4e487b7100000000000000000000000000000000000000000000000000000000600052603260045260246000fd5b60200101907effffffffffffffffffffffffffffffffffffffffffffffffffffffffffffff1916908160001a905350600a856120a09190612e79565b9450611ff8565b8093505050505b919050565b60007f01ffc9a7000000000000000000000000000000000000000000000000000000007bffffffffffffffffffffffffffffffffffffffffffffffffffffffff1916827bffffffffffffffffffffffffffffffffffffffffffffffffffffffff1916149050919050565b6000808273ffffffffffffffffffffffffffffffffffffffff163b119050919050565b82805461214c90612fee565b90600052602060002090601f01602090048101928261216e57600085556121b5565b82601f1061218757805160ff19168380011785556121b5565b828001600101855582156121b5579182015b828111156121b4578251825591602001919060010190612199565b5b5090506121c291906121c6565b5090565b5b808211156121df5760008160009055506001016121c7565b5090565b60006121f66121f184612d7e565b612d59565b90508281526020810184848401111561220e57600080fd5b612219848285612fac565b509392505050565b600061223461222f84612daf565b612d59565b90508281526020810184848401111561224c57600080fd5b612257848285612fac565b509392505050565b60008135905061226e81613758565b92915050565b6000813590506122838161376f565b92915050565b60008135905061229881613786565b92915050565b6000815190506122ad81613786565b92915050565b600082601f8301126122c457600080fd5b81356122d48482602086016121e3565b91505092915050565b600082601f8301126122ee57600080fd5b81356122fe848260208601612221565b91505092915050565b6000813590506123168161379d565b92915050565b60006020828403121561232e57600080fd5b600061233c8482850161225f565b91505092915050565b6000806040838503121561235857600080fd5b60006123668582860161225f565b92505060206123778582860161225f565b9150509250929050565b60008060006060848603121561239657600080fd5b60006123a48682870161225f565b93505060206123b58682870161225f565b92505060406123c686828701612307565b9150509250925092565b600080600080608085870312156123e657600080fd5b60006123f48782880161225f565b94505060206124058782880161225f565b935050604061241687828801612307565b925050606085013567ffffffffffffffff81111561243357600080fd5b61243f878288016122b3565b91505092959194509250565b6000806040838503121561245e57600080fd5b600061246c8582860161225f565b925050602061247d85828601612274565b9150509250929050565b6000806040838503121561249a57600080fd5b60006124a88582860161225f565b92505060206124b985828601612307565b9150509250929050565b6000602082840312156124d557600080fd5b60006124e384828501612289565b91505092915050565b6000602082840312156124fe57600080fd5b600061250c8482850161229e565b91505092915050565b60006020828403121561252757600080fd5b600082013567ffffffffffffffff81111561254157600080fd5b61254d848285016122dd565b91505092915050565b60006020828403121561256857600080fd5b600061257684828501612307565b91505092915050565b6000806040838503121561259257600080fd5b60006125a085828601612307565b92505060206125b185828601612307565b9150509250929050565b6125c481612f38565b82525050565b6125d381612f4a565b82525050565b60006125e482612de0565b6125ee8185612df6565b93506125fe818560208601612fbb565b61260781613187565b840191505092915050565b600061261d82612deb565b6126278185612e07565b9350612637818560208601612fbb565b61264081613187565b840191505092915050565b600061265682612deb565b6126608185612e18565b9350612670818560208601612fbb565b80840191505092915050565b6000612689601483612e07565b915061269482613198565b602082019050919050565b60006126ac603283612e07565b91506126b7826131c1565b604082019050919050565b60006126cf602683612e07565b91506126da82613210565b604082019050919050565b60006126f2602583612e07565b91506126fd8261325f565b604082019050919050565b6000612715601c83612e07565b9150612720826132ae565b602082019050919050565b6000612738602483612e07565b9150612743826132d7565b604082019050919050565b600061275b601983612e07565b915061276682613326565b602082019050919050565b600061277e602c83612e07565b91506127898261334f565b604082019050919050565b60006127a1603883612e07565b91506127ac8261339e565b604082019050919050565b60006127c4602a83612e07565b91506127cf826133ed565b604082019050919050565b60006127e7602983612e07565b91506127f28261343c565b604082019050919050565b600061280a602e83612e07565b91506128158261348b565b604082019050919050565b600061282d602083612e07565b9150612838826134da565b602082019050919050565b6000612850603183612e07565b915061285b82613503565b604082019050919050565b6000612873602c83612e07565b915061287e82613552565b604082019050919050565b6000612896602083612e07565b91506128a1826135a1565b602082019050919050565b60006128b9602f83612e07565b91506128c4826135ca565b604082019050919050565b60006128dc602183612e07565b91506128e782613619565b604082019050919050565b60006128ff603183612e07565b915061290a82613668565b604082019050919050565b6000612922601b83612e07565b915061292d826136b7565b602082019050919050565b6000612945602a83612e07565b9150612950826136e0565b604082019050919050565b6000612968601f83612e07565b91506129738261372f565b602082019050919050565b61298781612fa2565b82525050565b6000612999828561264b565b91506129a5828461264b565b91508190509392505050565b60006020820190506129c660008301846125bb565b92915050565b60006080820190506129e160008301876125bb565b6129ee60208301866125bb565b6129fb604083018561297e565b8181036060830152612a0d81846125d9565b905095945050505050565b6000604082019050612a2d60008301856125bb565b612a3a602083018461297e565b9392505050565b6000602082019050612a5660008301846125ca565b92915050565b60006020820190508181036000830152612a768184612612565b905092915050565b60006020820190508181036000830152612a978161267c565b9050919050565b60006020820190508181036000830152612ab78161269f565b9050919050565b60006020820190508181036000830152612ad7816126c2565b9050919050565b60006020820190508181036000830152612af7816126e5565b9050919050565b60006020820190508181036000830152612b1781612708565b9050919050565b60006020820190508181036000830152612b378161272b565b9050919050565b60006020820190508181036000830152612b578161274e565b9050919050565b60006020820190508181036000830152612b7781612771565b9050919050565b60006020820190508181036000830152612b9781612794565b9050919050565b60006020820190508181036000830152612bb7816127b7565b9050919050565b60006020820190508181036000830152612bd7816127da565b9050919050565b60006020820190508181036000830152612bf7816127fd565b9050919050565b60006020820190508181036000830152612c1781612820565b9050919050565b60006020820190508181036000830152612c3781612843565b9050919050565b60006020820190508181036000830152612c5781612866565b9050919050565b60006020820190508181036000830152612c7781612889565b9050919050565b60006020820190508181036000830152612c97816128ac565b9050919050565b60006020820190508181036000830152612cb7816128cf565b9050919050565b60006020820190508181036000830152612cd7816128f2565b9050919050565b60006020820190508181036000830152612cf781612915565b9050919050565b60006020820190508181036000830152612d1781612938565b9050919050565b60006020820190508181036000830152612d378161295b565b9050919050565b6000602082019050612d53600083018461297e565b92915050565b6000612d63612d74565b9050612d6f8282613020565b919050565b6000604051905090565b600067ffffffffffffffff821115612d9957612d98613158565b5b612da282613187565b9050602081019050919050565b600067ffffffffffffffff821115612dca57612dc9613158565b5b612dd382613187565b9050602081019050919050565b600081519050919050565b600081519050919050565b600082825260208201905092915050565b600082825260208201905092915050565b600081905092915050565b6000612e2e82612fa2565b9150612e3983612fa2565b9250827fffffffffffffffffffffffffffffffffffffffffffffffffffffffffffffffff03821115612e6e57612e6d6130cb565b5b828201905092915050565b6000612e8482612fa2565b9150612e8f83612fa2565b925082612e9f57612e9e6130fa565b5b828204905092915050565b6000612eb582612fa2565b9150612ec083612fa2565b9250817fffffffffffffffffffffffffffffffffffffffffffffffffffffffffffffffff0483118215151615612ef957612ef86130cb565b5b828202905092915050565b6000612f0f82612fa2565b9150612f1a83612fa2565b925082821015612f2d57612f2c6130cb565b5b828203905092915050565b6000612f4382612f82565b9050919050565b60008115159050919050565b60007fffffffff0000000000000000000000000000000000000000000000000000000082169050919050565b600073ffffffffffffffffffffffffffffffffffffffff82169050919050565b6000819050919050565b82818337600083830152505050565b60005b83811015612fd9578082015181840152602081019050612fbe565b83811115612fe8576000848401525b50505050565b6000600282049050600182168061300657607f821691505b6020821081141561301a57613019613129565b5b50919050565b61302982613187565b810181811067ffffffffffffffff8211171561304857613047613158565b5b80604052505050565b600061305c82612fa2565b91507fffffffffffffffffffffffffffffffffffffffffffffffffffffffffffffffff82141561308f5761308e6130cb565b5b600182019050919050565b60006130a582612fa2565b91506130b083612fa2565b9250826130c0576130bf6130fa565b5b828206905092915050565b7f4e487b7100000000000000000000000000000000000000000000000000000000600052601160045260246000fd5b7f4e487b7100000000000000000000000000000000000000000000000000000000600052601260045260246000fd5b7f4e487b7100000000000000000000000000000000000000000000000000000000600052602260045260246000fd5b7f4e487b7100000000000000000000000000000000000000000000000000000000600052604160045260246000fd5b6000601f19601f8301169050919050565b7f4d696e7420416d6f756e74204578636565646564000000000000000000000000600082015250565b7f4552433732313a207472616e7366657220746f206e6f6e20455243373231526560008201527f63656976657220696d706c656d656e7465720000000000000000000000000000602082015250565b7f4f776e61626c653a206e6577206f776e657220697320746865207a65726f206160008201527f6464726573730000000000000000000000000000000000000000000000000000602082015250565b7f4552433732313a207472616e736665722066726f6d20696e636f72726563742060008201527f6f776e6572000000000000000000000000000000000000000000000000000000602082015250565b7f4552433732313a20746f6b656e20616c7265616479206d696e74656400000000600082015250565b7f4552433732313a207472616e7366657220746f20746865207a65726f2061646460008201527f7265737300000000000000000000000000000000000000000000000000000000602082015250565b7f4552433732313a20617070726f766520746f2063616c6c657200000000000000600082015250565b7f4552433732313a206f70657261746f7220717565727920666f72206e6f6e657860008201527f697374656e7420746f6b656e0000000000000000000000000000000000000000602082015250565b7f4552433732313a20617070726f76652063616c6c6572206973206e6f74206f7760008201527f6e6572206e6f7220617070726f76656420666f7220616c6c0000000000000000602082015250565b7f4552433732313a2062616c616e636520717565727920666f7220746865207a6560008201527f726f206164647265737300000000000000000000000000000000000000000000602082015250565b7f4552433732313a206f776e657220717565727920666f72206e6f6e657869737460008201527f656e7420746f6b656e0000000000000000000000000000000000000000000000602082015250565b7f45524337323155524953746f726167653a2055524920736574206f66206e6f6e60008201527f6578697374656e7420746f6b656e000000000000000000000000000000000000602082015250565b7f4552433732313a206d696e7420746f20746865207a65726f2061646472657373600082015250565b7f45524337323155524953746f726167653a2055524920717565727920666f722060008201527f6e6f6e6578697374656e7420746f6b656e000000000000000000000000000000602082015250565b7f4552433732313a20617070726f76656420717565727920666f72206e6f6e657860008201527f697374656e7420746f6b656e0000000000000000000000000000000000000000602082015250565b7f4f776e61626c653a2063616c6c6572206973206e6f7420746865206f776e6572600082015250565b7f4552433732314d657461646174613a2055524920717565727920666f72206e6f60008201527f6e6578697374656e7420746f6b656e0000000000000000000000000000000000602082015250565b7f4552433732313a20617070726f76616c20746f2063757272656e74206f776e6560008201527f7200000000000000000000000000000000000000000000000000000000000000602082015250565b7f4552433732313a207472616e736665722063616c6c6572206973206e6f74206f60008201527f776e6572206e6f7220617070726f766564000000000000000000000000000000602082015250565b7f455243323938313a20496e76616c696420706172616d65746572730000000000600082015250565b7f455243323938313a20726f79616c7479206665652077696c6c2065786365656460008201527f2073616c65507269636500000000000000000000000000000000000000000000602082015250565b7f5265656e7472616e637947756172643a207265656e7472616e742063616c6c00600082015250565b61376181612f38565b811461376c57600080fd5b50565b61377881612f4a565b811461378357600080fd5b50565b61378f81612f56565b811461379a57600080fd5b50565b6137a681612fa2565b81146137b157600080fd5b5056fea26469706673582212202fd2eb398fa1d79de3254fe86eadf78e9b0c05f4a8b25f30b886f44ef4647bb964736f6c63430008040033",
  "linkReferences": {},
  "deployedLinkReferences": {}
}