{
  "_format": "hh-sol-artifact-1",
  "contractName": "LiveMintAuction2",
  "sourceName": "contracts/LiveMint2.sol",
  "abi": [
    {
      "inputs": [
        {
          "internalType": "address",
          "name": "_nftContract",
          "type": "address"
        }
      ],
      "stateMutability": "nonpayable",
      "type": "constructor"
    },
    {
      "anonymous": false,
      "inputs": [
        {
          "indexed": true,
          "internalType": "address",
          "name": "sender",
          "type": "address"
        },
        {
          "indexed": false,
          "internalType": "uint256",
          "name": "amount",
          "type": "uint256"
        },
        {
          "indexed": false,
          "internalType": "uint256",
          "name": "tokenId",
          "type": "uint256"
        }
      ],
      "name": "Bid",
      "type": "event"
    },
    {
      "anonymous": false,
      "inputs": [
        {
          "indexed": false,
          "internalType": "address",
          "name": "highestBidder",
          "type": "address"
        },
        {
          "indexed": false,
          "internalType": "uint256",
          "name": "highestBid",
          "type": "uint256"
        },
        {
          "indexed": false,
          "internalType": "uint256",
          "name": "tokenId",
          "type": "uint256"
        }
      ],
      "name": "End",
      "type": "event"
    },
    {
      "anonymous": false,
      "inputs": [
        {
          "indexed": false,
          "internalType": "uint256",
          "name": "tokenId",
          "type": "uint256"
        },
        {
          "indexed": false,
          "internalType": "uint256",
          "name": "highestBid",
          "type": "uint256"
        }
      ],
      "name": "Start",
      "type": "event"
    },
    {
      "anonymous": false,
      "inputs": [
        {
          "indexed": true,
          "internalType": "address",
          "name": "bidder",
          "type": "address"
        },
        {
          "indexed": false,
          "internalType": "uint256",
          "name": "amount",
          "type": "uint256"
        }
      ],
      "name": "Withdraw",
      "type": "event"
    },
    {
      "inputs": [],
      "name": "bid",
      "outputs": [],
      "stateMutability": "payable",
      "type": "function"
    },
    {
      "inputs": [
        {
          "internalType": "uint256",
          "name": "",
          "type": "uint256"
        },
        {
          "internalType": "address",
          "name": "",
          "type": "address"
        }
      ],
      "name": "bids",
      "outputs": [
        {
          "internalType": "uint256",
          "name": "",
          "type": "uint256"
        }
      ],
      "stateMutability": "view",
      "type": "function"
    },
    {
      "inputs": [
        {
          "internalType": "string",
          "name": "tokenURI",
          "type": "string"
        }
      ],
      "name": "end",
      "outputs": [],
      "stateMutability": "nonpayable",
      "type": "function"
    },
    {
      "inputs": [],
      "name": "endAt",
      "outputs": [
        {
          "internalType": "uint256",
          "name": "",
          "type": "uint256"
        }
      ],
      "stateMutability": "view",
      "type": "function"
    },
    {
      "inputs": [],
      "name": "ended",
      "outputs": [
        {
          "internalType": "bool",
          "name": "",
          "type": "bool"
        }
      ],
      "stateMutability": "view",
      "type": "function"
    },
    {
      "inputs": [
        {
          "internalType": "uint256",
          "name": "",
          "type": "uint256"
        },
        {
          "internalType": "address",
          "name": "",
          "type": "address"
        }
      ],
      "name": "fundsByBidder",
      "outputs": [
        {
          "internalType": "uint256",
          "name": "",
          "type": "uint256"
        }
      ],
      "stateMutability": "view",
      "type": "function"
    },
    {
      "inputs": [
        {
          "internalType": "uint256",
          "name": "tokenId",
          "type": "uint256"
        }
      ],
      "name": "getBid",
      "outputs": [
        {
          "internalType": "uint256",
          "name": "",
          "type": "uint256"
        }
      ],
      "stateMutability": "view",
      "type": "function"
    },
    {
      "inputs": [],
      "name": "getCurrentItem",
      "outputs": [
        {
          "internalType": "uint256",
          "name": "",
          "type": "uint256"
        }
      ],
      "stateMutability": "view",
      "type": "function"
    },
    {
      "inputs": [],
      "name": "getEndAt",
      "outputs": [
        {
          "internalType": "uint256",
          "name": "",
          "type": "uint256"
        }
      ],
      "stateMutability": "view",
      "type": "function"
    },
    {
      "inputs": [
        {
          "internalType": "uint256",
          "name": "tokenId",
          "type": "uint256"
        }
      ],
      "name": "getHighestBidBidder",
      "outputs": [
        {
          "internalType": "uint256",
          "name": "",
          "type": "uint256"
        },
        {
          "internalType": "address",
          "name": "",
          "type": "address"
        }
      ],
      "stateMutability": "view",
      "type": "function"
    },
    {
      "inputs": [],
      "name": "highestBid",
      "outputs": [
        {
          "internalType": "uint256",
          "name": "",
          "type": "uint256"
        }
      ],
      "stateMutability": "view",
      "type": "function"
    },
    {
      "inputs": [],
      "name": "highestBidder",
      "outputs": [
        {
          "internalType": "address",
          "name": "",
          "type": "address"
        }
      ],
      "stateMutability": "view",
      "type": "function"
    },
    {
      "inputs": [],
      "name": "isStarted",
      "outputs": [
        {
          "internalType": "bool",
          "name": "",
          "type": "bool"
        }
      ],
      "stateMutability": "view",
      "type": "function"
    },
    {
      "inputs": [],
      "name": "nftId",
      "outputs": [
        {
          "internalType": "uint256",
          "name": "",
          "type": "uint256"
        }
      ],
      "stateMutability": "view",
      "type": "function"
    },
    {
      "inputs": [],
      "name": "seller",
      "outputs": [
        {
          "internalType": "address payable",
          "name": "",
          "type": "address"
        }
      ],
      "stateMutability": "view",
      "type": "function"
    },
    {
      "inputs": [
        {
          "internalType": "uint256",
          "name": "timeOfAuction",
          "type": "uint256"
        },
        {
          "internalType": "uint256",
          "name": "startingBid",
          "type": "uint256"
        }
      ],
      "name": "start",
      "outputs": [],
      "stateMutability": "nonpayable",
      "type": "function"
    },
    {
      "inputs": [],
      "name": "started",
      "outputs": [
        {
          "internalType": "bool",
          "name": "",
          "type": "bool"
        }
      ],
      "stateMutability": "view",
      "type": "function"
    },
    {
      "inputs": [],
      "name": "withdraw",
      "outputs": [],
      "stateMutability": "payable",
      "type": "function"
    }
  ],
  "bytecode": "0x60806040523480156200001157600080fd5b50604051620020a7380380620020a78339818101604052810190620000379190620000df565b600160008190555033600160006101000a81548173ffffffffffffffffffffffffffffffffffffffff021916908373ffffffffffffffffffffffffffffffffffffffff16021790555080600560006101000a81548173ffffffffffffffffffffffffffffffffffffffff021916908373ffffffffffffffffffffffffffffffffffffffff1602179055505062000159565b600081519050620000d9816200013f565b92915050565b600060208284031215620000f257600080fd5b60006200010284828501620000c8565b91505092915050565b600062000118826200011f565b9050919050565b600073ffffffffffffffffffffffffffffffffffffffff82169050919050565b6200014a816200010b565b81146200015657600080fd5b50565b611f3e80620001696000396000f3fe6080604052600436106101095760003560e01c8063544736e6116100955780638fb4b573116100645780638fb4b57314610344578063900a974e1461036d57806391f9015714610396578063c6bc5182146103c1578063d57bde79146103ec57610109565b8063544736e6146102985780635e3660b5146102c35780636f74a9ea146102ee5780637cc3ae8c1461031957610109565b806326fe3065116100dc57806326fe30651461019957806331a906ed146101d65780633c889e6f146102145780633ccfd60b146102515780633f1ffcec1461025b57610109565b806308551a531461010e57806312fa6feb146101395780631998aeef146101645780631f2698ab1461016e575b600080fd5b34801561011a57600080fd5b50610123610417565b6040516101309190611825565b60405180910390f35b34801561014557600080fd5b5061014e61043d565b60405161015b91906118e5565b60405180910390f35b61016c610450565b005b34801561017a57600080fd5b506101836106fe565b60405161019091906118e5565b60405180910390f35b3480156101a557600080fd5b506101c060048036038101906101bb91906115d3565b610711565b6040516101cd9190611a42565b60405180910390f35b3480156101e257600080fd5b506101fd60048036038101906101f89190611581565b610736565b60405161020b929190611a5d565b60405180910390f35b34801561022057600080fd5b5061023b60048036038101906102369190611581565b610768565b6040516102489190611a42565b60405180910390f35b6102596107c2565b005b34801561026757600080fd5b50610282600480360381019061027d91906115d3565b61095f565b60405161028f9190611a42565b60405180910390f35b3480156102a457600080fd5b506102ad610984565b6040516102ba91906118e5565b60405180910390f35b3480156102cf57600080fd5b506102d86109ac565b6040516102e59190611a42565b60405180910390f35b3480156102fa57600080fd5b506103036109b6565b6040516103109190611a42565b60405180910390f35b34801561032557600080fd5b5061032e610a68565b60405161033b9190611a42565b60405180910390f35b34801561035057600080fd5b5061036b6004803603810190610366919061160f565b610a6e565b005b34801561037957600080fd5b50610394600480360381019061038f9190611540565b610cf1565b005b3480156103a257600080fd5b506103ab611429565b6040516103b8919061180a565b60405180910390f35b3480156103cd57600080fd5b506103d661144f565b6040516103e39190611a42565b60405180910390f35b3480156103f857600080fd5b50610401611455565b60405161040e9190611a42565b60405180910390f35b600160009054906101000a900473ffffffffffffffffffffffffffffffffffffffff1681565b600160159054906101000a900460ff1681565b600160149054906101000a900460ff1661049f576040517f08c379a0000000000000000000000000000000000000000000000000000000008152600401610496906119e2565b60405180910390fd5b60025442106104e3576040517f08c379a00000000000000000000000000000000000000000000000000000000081526004016104da90611982565b60405180910390fd5b60045434116104f157600080fd5b600073ffffffffffffffffffffffffffffffffffffffff16600360009054906101000a900473ffffffffffffffffffffffffffffffffffffffff1673ffffffffffffffffffffffffffffffffffffffff16146105d5576004546007600060065481526020019081526020016000206000600360009054906101000a900473ffffffffffffffffffffffffffffffffffffffff1673ffffffffffffffffffffffffffffffffffffffff1673ffffffffffffffffffffffffffffffffffffffff16815260200190815260200160002060008282546105cd9190611b21565b925050819055505b3460086000600654815260200190815260200160002060003373ffffffffffffffffffffffffffffffffffffffff1673ffffffffffffffffffffffffffffffffffffffff16815260200190815260200160002060008282546106379190611b21565b925050819055503460048190555033600360006101000a81548173ffffffffffffffffffffffffffffffffffffffff021916908373ffffffffffffffffffffffffffffffffffffffff160217905550600360009054906101000a900473ffffffffffffffffffffffffffffffffffffffff1673ffffffffffffffffffffffffffffffffffffffff167f19421268847f42dd61705778018ddfc43bcdce8517e7a630acb12f122c7094816004546006546040516106f4929190611a86565b60405180910390a2565b600160149054906101000a900460ff1681565b6008602052816000526040600020602052806000526040600020600091509150505481565b600080600454600360009054906101000a900473ffffffffffffffffffffffffffffffffffffffff1691509150915091565b60006007600083815260200190815260200160002060003373ffffffffffffffffffffffffffffffffffffffff1673ffffffffffffffffffffffffffffffffffffffff168152602001908152602001600020549050919050565b60026000541415610808576040517f08c379a00000000000000000000000000000000000000000000000000000000081526004016107ff90611a22565b60405180910390fd5b6002600081905550600060076000600654815260200190815260200160002060003373ffffffffffffffffffffffffffffffffffffffff1673ffffffffffffffffffffffffffffffffffffffff168152602001908152602001600020549050600060076000600654815260200190815260200160002060003373ffffffffffffffffffffffffffffffffffffffff1673ffffffffffffffffffffffffffffffffffffffff168152602001908152602001600020819055503373ffffffffffffffffffffffffffffffffffffffff166108fc829081150290604051600060405180830381858888f19350505050158015610905573d6000803e3d6000fd5b503373ffffffffffffffffffffffffffffffffffffffff167f884edad9ce6fa2440d8a54cc123490eb96d2768479d49ff9c7366125a94243648260405161094c9190611a42565b60405180910390a2506001600081905550565b6007602052816000526040600020602052806000526040600020600091509150505481565b6000600160149054906101000a900460ff16156109a457600190506109a9565b600090505b90565b6000600254905090565b600080600560009054906101000a900473ffffffffffffffffffffffffffffffffffffffff16905060008173ffffffffffffffffffffffffffffffffffffffff16636c1438626040518163ffffffff1660e01b815260040160206040518083038186803b158015610a2657600080fd5b505afa158015610a3a573d6000803e3d6000fd5b505050506040513d601f19601f82011682018060405250810190610a5e91906115aa565b9050809250505090565b60025481565b60026000541415610ab4576040517f08c379a0000000000000000000000000000000000000000000000000000000008152600401610aab90611a22565b60405180910390fd5b6002600081905550600160149054906101000a900460ff1615610b0c576040517f08c379a0000000000000000000000000000000000000000000000000000000008152600401610b03906119c2565b60405180910390fd5b600160009054906101000a900473ffffffffffffffffffffffffffffffffffffffff1673ffffffffffffffffffffffffffffffffffffffff163373ffffffffffffffffffffffffffffffffffffffff1614610b9c576040517f08c379a0000000000000000000000000000000000000000000000000000000008152600401610b9390611942565b60405180910390fd5b6000600560009054906101000a900473ffffffffffffffffffffffffffffffffffffffff16905060008173ffffffffffffffffffffffffffffffffffffffff16636c1438626040518163ffffffff1660e01b815260040160206040518083038186803b158015610c0b57600080fd5b505afa158015610c1f573d6000803e3d6000fd5b505050506040513d601f19601f82011682018060405250810190610c4391906115aa565b90508060068190555060018060146101000a81548160ff0219169083151502179055506000600160156101000a81548160ff021916908315150217905550603c84610c8e9190611b77565b42610c999190611b21565b600281905550826004819055507f5a7d5f50ab70a39d193bf53f0fb995377776df93bb6fdcf1cd1868b7e0dd44ee600654600454604051610cdb929190611a86565b60405180910390a1505060016000819055505050565b60026000541415610d37576040517f08c379a0000000000000000000000000000000000000000000000000000000008152600401610d2e90611a22565b60405180910390fd5b6002600081905550600160149054906101000a900460ff16610d8e576040517f08c379a0000000000000000000000000000000000000000000000000000000008152600401610d85906119a2565b60405180910390fd5b600254421015610dd3576040517f08c379a0000000000000000000000000000000000000000000000000000000008152600401610dca90611962565b60405180910390fd5b600160159054906101000a900460ff1615610e23576040517f08c379a0000000000000000000000000000000000000000000000000000000008152600401610e1a90611a02565b60405180910390fd5b600160009054906101000a900473ffffffffffffffffffffffffffffffffffffffff1673ffffffffffffffffffffffffffffffffffffffff163373ffffffffffffffffffffffffffffffffffffffff1614610eb3576040517f08c379a0000000000000000000000000000000000000000000000000000000008152600401610eaa90611922565b60405180910390fd5b6000600560009054906101000a900473ffffffffffffffffffffffffffffffffffffffff16905060018060156101000a81548160ff0219169083151502179055506000600160146101000a81548160ff021916908315150217905550600073ffffffffffffffffffffffffffffffffffffffff16600360009054906101000a900473ffffffffffffffffffffffffffffffffffffffff1673ffffffffffffffffffffffffffffffffffffffff16146111c85760008173ffffffffffffffffffffffffffffffffffffffff1663d85d3d27846040518263ffffffff1660e01b8152600401610fa09190611900565b602060405180830381600087803b158015610fba57600080fd5b505af1158015610fce573d6000803e3d6000fd5b505050506040513d601f19601f82011682018060405250810190610ff291906115aa565b90506000600560009054906101000a900473ffffffffffffffffffffffffffffffffffffffff1673ffffffffffffffffffffffffffffffffffffffff16636352211e836040518263ffffffff1660e01b81526004016110519190611a42565b60206040518083038186803b15801561106957600080fd5b505afa15801561107d573d6000803e3d6000fd5b505050506040513d601f19601f820116820180604052508101906110a19190611517565b9050600560009054906101000a900473ffffffffffffffffffffffffffffffffffffffff1673ffffffffffffffffffffffffffffffffffffffff166323b872dd82600360009054906101000a900473ffffffffffffffffffffffffffffffffffffffff16856040518463ffffffff1660e01b815260040161112493929190611877565b600060405180830381600087803b15801561113e57600080fd5b505af1158015611152573d6000803e3d6000fd5b50505050600160009054906101000a900473ffffffffffffffffffffffffffffffffffffffff1673ffffffffffffffffffffffffffffffffffffffff166108fc6004549081150290604051600060405180830381858888f193505050501580156111c0573d6000803e3d6000fd5b5050506113bc565b60008173ffffffffffffffffffffffffffffffffffffffff1663d85d3d27846040518263ffffffff1660e01b81526004016112039190611900565b602060405180830381600087803b15801561121d57600080fd5b505af1158015611231573d6000803e3d6000fd5b505050506040513d601f19601f8201168201806040525081019061125591906115aa565b90506000600560009054906101000a900473ffffffffffffffffffffffffffffffffffffffff1673ffffffffffffffffffffffffffffffffffffffff16636352211e836040518263ffffffff1660e01b81526004016112b49190611a42565b60206040518083038186803b1580156112cc57600080fd5b505afa1580156112e0573d6000803e3d6000fd5b505050506040513d601f19601f820116820180604052508101906113049190611517565b9050600560009054906101000a900473ffffffffffffffffffffffffffffffffffffffff1673ffffffffffffffffffffffffffffffffffffffff166323b872dd82600160009054906101000a900473ffffffffffffffffffffffffffffffffffffffff16856040518463ffffffff1660e01b815260040161138793929190611840565b600060405180830381600087803b1580156113a157600080fd5b505af11580156113b5573d6000803e3d6000fd5b5050505050505b7ff58cfa488d8d9ddd26ddfc3dd52f23711c05cb37db31bda0b1b27d1bdfb56e53600360009054906101000a900473ffffffffffffffffffffffffffffffffffffffff16600454600654604051611415939291906118ae565b60405180910390a150600160008190555050565b600360009054906101000a900473ffffffffffffffffffffffffffffffffffffffff1681565b60065481565b60045481565b600061146e61146984611ad4565b611aaf565b90508281526020810184848401111561148657600080fd5b611491848285611c61565b509392505050565b6000813590506114a881611eda565b92915050565b6000815190506114bd81611eda565b92915050565b600082601f8301126114d457600080fd5b81356114e484826020860161145b565b91505092915050565b6000813590506114fc81611ef1565b92915050565b60008151905061151181611ef1565b92915050565b60006020828403121561152957600080fd5b6000611537848285016114ae565b91505092915050565b60006020828403121561155257600080fd5b600082013567ffffffffffffffff81111561156c57600080fd5b611578848285016114c3565b91505092915050565b60006020828403121561159357600080fd5b60006115a1848285016114ed565b91505092915050565b6000602082840312156115bc57600080fd5b60006115ca84828501611502565b91505092915050565b600080604083850312156115e657600080fd5b60006115f4858286016114ed565b925050602061160585828601611499565b9150509250929050565b6000806040838503121561162257600080fd5b6000611630858286016114ed565b9250506020611641858286016114ed565b9150509250929050565b61165481611c2b565b82525050565b61166381611be3565b82525050565b61167281611bd1565b82525050565b61168181611bf5565b82525050565b600061169282611b05565b61169c8185611b10565b93506116ac818560208601611c70565b6116b581611d32565b840191505092915050565b60006116cd602383611b10565b91506116d882611d43565b604082019050919050565b60006116f0601e83611b10565b91506116fb82611d92565b602082019050919050565b6000611713601983611b10565b915061171e82611dbb565b602082019050919050565b6000611736600683611b10565b915061174182611de4565b602082019050919050565b6000611759601f83611b10565b915061176482611e0d565b602082019050919050565b600061177c601083611b10565b915061178782611e36565b602082019050919050565b600061179f600c83611b10565b91506117aa82611e5f565b602082019050919050565b60006117c2601683611b10565b91506117cd82611e88565b602082019050919050565b60006117e5601f83611b10565b91506117f082611eb1565b602082019050919050565b61180481611c21565b82525050565b600060208201905061181f6000830184611669565b92915050565b600060208201905061183a600083018461165a565b92915050565b60006060820190506118556000830186611669565b611862602083018561164b565b61186f60408301846117fb565b949350505050565b600060608201905061188c6000830186611669565b6118996020830185611669565b6118a660408301846117fb565b949350505050565b60006060820190506118c36000830186611669565b6118d060208301856117fb565b6118dd60408301846117fb565b949350505050565b60006020820190506118fa6000830184611678565b92915050565b6000602082019050818103600083015261191a8184611687565b905092915050565b6000602082019050818103600083015261193b816116c0565b9050919050565b6000602082019050818103600083015261195b816116e3565b9050919050565b6000602082019050818103600083015261197b81611706565b9050919050565b6000602082019050818103600083015261199b81611729565b9050919050565b600060208201905081810360008301526119bb8161174c565b9050919050565b600060208201905081810360008301526119db8161176f565b9050919050565b600060208201905081810360008301526119fb81611792565b9050919050565b60006020820190508181036000830152611a1b816117b5565b9050919050565b60006020820190508181036000830152611a3b816117d8565b9050919050565b6000602082019050611a5760008301846117fb565b92915050565b6000604082019050611a7260008301856117fb565b611a7f6020830184611669565b9392505050565b6000604082019050611a9b60008301856117fb565b611aa860208301846117fb565b9392505050565b6000611ab9611aca565b9050611ac58282611ca3565b919050565b6000604051905090565b600067ffffffffffffffff821115611aef57611aee611d03565b5b611af882611d32565b9050602081019050919050565b600081519050919050565b600082825260208201905092915050565b6000611b2c82611c21565b9150611b3783611c21565b9250827fffffffffffffffffffffffffffffffffffffffffffffffffffffffffffffffff03821115611b6c57611b6b611cd4565b5b828201905092915050565b6000611b8282611c21565b9150611b8d83611c21565b9250817fffffffffffffffffffffffffffffffffffffffffffffffffffffffffffffffff0483118215151615611bc657611bc5611cd4565b5b828202905092915050565b6000611bdc82611c01565b9050919050565b6000611bee82611c01565b9050919050565b60008115159050919050565b600073ffffffffffffffffffffffffffffffffffffffff82169050919050565b6000819050919050565b6000611c3682611c3d565b9050919050565b6000611c4882611c4f565b9050919050565b6000611c5a82611c01565b9050919050565b82818337600083830152505050565b60005b83811015611c8e578082015181840152602081019050611c73565b83811115611c9d576000848401525b50505050565b611cac82611d32565b810181811067ffffffffffffffff82111715611ccb57611cca611d03565b5b80604052505050565b7f4e487b7100000000000000000000000000000000000000000000000000000000600052601160045260246000fd5b7f4e487b7100000000000000000000000000000000000000000000000000000000600052604160045260246000fd5b6000601f19601f8301169050919050565b7f4f6e6c79207468652073656c6c65722063616e20656e6420746865206175637460008201527f696f6e0000000000000000000000000000000000000000000000000000000000602082015250565b7f596f7520617265206e6f742074686520636f6e7472616374206f776e65720000600082015250565b7f41756374696f6e206973207374696c6c206f6e676f696e672100000000000000600082015250565b7f456e646564210000000000000000000000000000000000000000000000000000600082015250565b7f5468652041756374696f6e206861736e27742073746172746564207965742e00600082015250565b7f416c726561647920537461727465642100000000000000000000000000000000600082015250565b7f4e6f7420737461727465642e0000000000000000000000000000000000000000600082015250565b7f41756374696f6e20616c726561647920656e6465642100000000000000000000600082015250565b7f5265656e7472616e637947756172643a207265656e7472616e742063616c6c00600082015250565b611ee381611bd1565b8114611eee57600080fd5b50565b611efa81611c21565b8114611f0557600080fd5b5056fea2646970667358221220a5c39a5fa2f24024bab8624a743f0fe513c3d8b2c6a7290c2181b8f9acc3226564736f6c63430008040033",
  "linkReferences": {},
  "deployedLinkReferences": {}
}