{
  "_format": "hh-sol-artifact-1",
  "contractName": "LazyNFT",
  "sourceName": "contracts/LazyMint.sol",
  "abi": [
    {
      "inputs": [
        {
          "internalType": "address payable",
          "name": "minter",
          "type": "address"
        }
      ],
      "stateMutability": "nonpayable",
      "type": "constructor"
    },
    {
      "anonymous": false,
      "inputs": [
        {
          "indexed": true,
          "internalType": "address",
          "name": "owner",
          "type": "address"
        },
        {
          "indexed": true,
          "internalType": "address",
          "name": "approved",
          "type": "address"
        },
        {
          "indexed": true,
          "internalType": "uint256",
          "name": "tokenId",
          "type": "uint256"
        }
      ],
      "name": "Approval",
      "type": "event"
    },
    {
      "anonymous": false,
      "inputs": [
        {
          "indexed": true,
          "internalType": "address",
          "name": "owner",
          "type": "address"
        },
        {
          "indexed": true,
          "internalType": "address",
          "name": "operator",
          "type": "address"
        },
        {
          "indexed": false,
          "internalType": "bool",
          "name": "approved",
          "type": "bool"
        }
      ],
      "name": "ApprovalForAll",
      "type": "event"
    },
    {
      "anonymous": false,
      "inputs": [
        {
          "indexed": true,
          "internalType": "bytes32",
          "name": "role",
          "type": "bytes32"
        },
        {
          "indexed": true,
          "internalType": "bytes32",
          "name": "previousAdminRole",
          "type": "bytes32"
        },
        {
          "indexed": true,
          "internalType": "bytes32",
          "name": "newAdminRole",
          "type": "bytes32"
        }
      ],
      "name": "RoleAdminChanged",
      "type": "event"
    },
    {
      "anonymous": false,
      "inputs": [
        {
          "indexed": true,
          "internalType": "bytes32",
          "name": "role",
          "type": "bytes32"
        },
        {
          "indexed": true,
          "internalType": "address",
          "name": "account",
          "type": "address"
        },
        {
          "indexed": true,
          "internalType": "address",
          "name": "sender",
          "type": "address"
        }
      ],
      "name": "RoleGranted",
      "type": "event"
    },
    {
      "anonymous": false,
      "inputs": [
        {
          "indexed": true,
          "internalType": "bytes32",
          "name": "role",
          "type": "bytes32"
        },
        {
          "indexed": true,
          "internalType": "address",
          "name": "account",
          "type": "address"
        },
        {
          "indexed": true,
          "internalType": "address",
          "name": "sender",
          "type": "address"
        }
      ],
      "name": "RoleRevoked",
      "type": "event"
    },
    {
      "anonymous": false,
      "inputs": [
        {
          "indexed": true,
          "internalType": "address",
          "name": "from",
          "type": "address"
        },
        {
          "indexed": true,
          "internalType": "address",
          "name": "to",
          "type": "address"
        },
        {
          "indexed": true,
          "internalType": "uint256",
          "name": "tokenId",
          "type": "uint256"
        }
      ],
      "name": "Transfer",
      "type": "event"
    },
    {
      "inputs": [],
      "name": "DEFAULT_ADMIN_ROLE",
      "outputs": [
        {
          "internalType": "bytes32",
          "name": "",
          "type": "bytes32"
        }
      ],
      "stateMutability": "view",
      "type": "function"
    },
    {
      "inputs": [],
      "name": "MINTER_ROLE",
      "outputs": [
        {
          "internalType": "bytes32",
          "name": "",
          "type": "bytes32"
        }
      ],
      "stateMutability": "view",
      "type": "function"
    },
    {
      "inputs": [
        {
          "internalType": "address",
          "name": "to",
          "type": "address"
        },
        {
          "internalType": "uint256",
          "name": "tokenId",
          "type": "uint256"
        }
      ],
      "name": "approve",
      "outputs": [],
      "stateMutability": "nonpayable",
      "type": "function"
    },
    {
      "inputs": [],
      "name": "availableToWithdraw",
      "outputs": [
        {
          "internalType": "uint256",
          "name": "",
          "type": "uint256"
        }
      ],
      "stateMutability": "view",
      "type": "function"
    },
    {
      "inputs": [
        {
          "internalType": "address",
          "name": "owner",
          "type": "address"
        }
      ],
      "name": "balanceOf",
      "outputs": [
        {
          "internalType": "uint256",
          "name": "",
          "type": "uint256"
        }
      ],
      "stateMutability": "view",
      "type": "function"
    },
    {
      "inputs": [
        {
          "internalType": "uint256",
          "name": "tokenId",
          "type": "uint256"
        }
      ],
      "name": "getApproved",
      "outputs": [
        {
          "internalType": "address",
          "name": "",
          "type": "address"
        }
      ],
      "stateMutability": "view",
      "type": "function"
    },
    {
      "inputs": [
        {
          "internalType": "bytes32",
          "name": "role",
          "type": "bytes32"
        }
      ],
      "name": "getRoleAdmin",
      "outputs": [
        {
          "internalType": "bytes32",
          "name": "",
          "type": "bytes32"
        }
      ],
      "stateMutability": "view",
      "type": "function"
    },
    {
      "inputs": [
        {
          "internalType": "bytes32",
          "name": "role",
          "type": "bytes32"
        },
        {
          "internalType": "address",
          "name": "account",
          "type": "address"
        }
      ],
      "name": "grantRole",
      "outputs": [],
      "stateMutability": "nonpayable",
      "type": "function"
    },
    {
      "inputs": [
        {
          "internalType": "bytes32",
          "name": "role",
          "type": "bytes32"
        },
        {
          "internalType": "address",
          "name": "account",
          "type": "address"
        }
      ],
      "name": "hasRole",
      "outputs": [
        {
          "internalType": "bool",
          "name": "",
          "type": "bool"
        }
      ],
      "stateMutability": "view",
      "type": "function"
    },
    {
      "inputs": [
        {
          "internalType": "address",
          "name": "owner",
          "type": "address"
        },
        {
          "internalType": "address",
          "name": "operator",
          "type": "address"
        }
      ],
      "name": "isApprovedForAll",
      "outputs": [
        {
          "internalType": "bool",
          "name": "",
          "type": "bool"
        }
      ],
      "stateMutability": "view",
      "type": "function"
    },
    {
      "inputs": [],
      "name": "name",
      "outputs": [
        {
          "internalType": "string",
          "name": "",
          "type": "string"
        }
      ],
      "stateMutability": "view",
      "type": "function"
    },
    {
      "inputs": [
        {
          "internalType": "uint256",
          "name": "tokenId",
          "type": "uint256"
        }
      ],
      "name": "ownerOf",
      "outputs": [
        {
          "internalType": "address",
          "name": "",
          "type": "address"
        }
      ],
      "stateMutability": "view",
      "type": "function"
    },
    {
      "inputs": [
        {
          "internalType": "address",
          "name": "redeemer",
          "type": "address"
        },
        {
          "components": [
            {
              "internalType": "uint256",
              "name": "tokenId",
              "type": "uint256"
            },
            {
              "internalType": "uint256",
              "name": "minPrice",
              "type": "uint256"
            },
            {
              "internalType": "string",
              "name": "uri",
              "type": "string"
            }
          ],
          "internalType": "struct LazyNFT.NFTVoucher",
          "name": "voucher",
          "type": "tuple"
        },
        {
          "internalType": "bytes",
          "name": "signature",
          "type": "bytes"
        }
      ],
      "name": "redeem",
      "outputs": [
        {
          "internalType": "uint256",
          "name": "",
          "type": "uint256"
        }
      ],
      "stateMutability": "payable",
      "type": "function"
    },
    {
      "inputs": [
        {
          "internalType": "bytes32",
          "name": "role",
          "type": "bytes32"
        },
        {
          "internalType": "address",
          "name": "account",
          "type": "address"
        }
      ],
      "name": "renounceRole",
      "outputs": [],
      "stateMutability": "nonpayable",
      "type": "function"
    },
    {
      "inputs": [
        {
          "internalType": "bytes32",
          "name": "role",
          "type": "bytes32"
        },
        {
          "internalType": "address",
          "name": "account",
          "type": "address"
        }
      ],
      "name": "revokeRole",
      "outputs": [],
      "stateMutability": "nonpayable",
      "type": "function"
    },
    {
      "inputs": [
        {
          "internalType": "address",
          "name": "from",
          "type": "address"
        },
        {
          "internalType": "address",
          "name": "to",
          "type": "address"
        },
        {
          "internalType": "uint256",
          "name": "tokenId",
          "type": "uint256"
        }
      ],
      "name": "safeTransferFrom",
      "outputs": [],
      "stateMutability": "nonpayable",
      "type": "function"
    },
    {
      "inputs": [
        {
          "internalType": "address",
          "name": "from",
          "type": "address"
        },
        {
          "internalType": "address",
          "name": "to",
          "type": "address"
        },
        {
          "internalType": "uint256",
          "name": "tokenId",
          "type": "uint256"
        },
        {
          "internalType": "bytes",
          "name": "_data",
          "type": "bytes"
        }
      ],
      "name": "safeTransferFrom",
      "outputs": [],
      "stateMutability": "nonpayable",
      "type": "function"
    },
    {
      "inputs": [
        {
          "internalType": "address",
          "name": "operator",
          "type": "address"
        },
        {
          "internalType": "bool",
          "name": "approved",
          "type": "bool"
        }
      ],
      "name": "setApprovalForAll",
      "outputs": [],
      "stateMutability": "nonpayable",
      "type": "function"
    },
    {
      "inputs": [
        {
          "internalType": "bytes4",
          "name": "interfaceId",
          "type": "bytes4"
        }
      ],
      "name": "supportsInterface",
      "outputs": [
        {
          "internalType": "bool",
          "name": "",
          "type": "bool"
        }
      ],
      "stateMutability": "view",
      "type": "function"
    },
    {
      "inputs": [],
      "name": "symbol",
      "outputs": [
        {
          "internalType": "string",
          "name": "",
          "type": "string"
        }
      ],
      "stateMutability": "view",
      "type": "function"
    },
    {
      "inputs": [
        {
          "internalType": "uint256",
          "name": "tokenId",
          "type": "uint256"
        }
      ],
      "name": "tokenURI",
      "outputs": [
        {
          "internalType": "string",
          "name": "",
          "type": "string"
        }
      ],
      "stateMutability": "view",
      "type": "function"
    },
    {
      "inputs": [
        {
          "internalType": "address",
          "name": "from",
          "type": "address"
        },
        {
          "internalType": "address",
          "name": "to",
          "type": "address"
        },
        {
          "internalType": "uint256",
          "name": "tokenId",
          "type": "uint256"
        }
      ],
      "name": "transferFrom",
      "outputs": [],
      "stateMutability": "nonpayable",
      "type": "function"
    },
    {
      "inputs": [],
      "name": "withdraw",
      "outputs": [],
      "stateMutability": "nonpayable",
      "type": "function"
    }
  ],
  "bytecode": "0x6101406040523480156200001257600080fd5b5060405162005005380380620050058339818101604052810190620000389190620004b0565b6040518060400160405280600f81526020017f4c617a794e46542d566f756368657200000000000000000000000000000000008152506040518060400160405280600181526020017f31000000000000000000000000000000000000000000000000000000000000008152506040518060400160405280600781526020017f4c617a794e4654000000000000000000000000000000000000000000000000008152506040518060400160405280600381526020017f4c415a0000000000000000000000000000000000000000000000000000000000815250816000908051906020019062000128929190620003e9565b50806001908051906020019062000141929190620003e9565b50505060008280519060200120905060008280519060200120905060007f8b73c3c69bb8fe3d512ecc4cf759cc79239f7b179b0ffacaa9a75d522b39400f90508260e081815250508161010081815250504660a08181525050620001ad8184846200023260201b60201c565b608081815250503073ffffffffffffffffffffffffffffffffffffffff1660c08173ffffffffffffffffffffffffffffffffffffffff1660601b8152505080610120818152505050505050506200022b7f9f2df0fed2c77648de5860a4cc508cd0818c85b8b8a1ab4ceeef8d981c8956a6826200026e60201b60201c565b5062000647565b600083838346306040516020016200024f9594939291906200050f565b6040516020818303038152906040528051906020012090509392505050565b6200028082826200028460201b60201c565b5050565b6200029682826200037660201b60201c565b620003725760016007600084815260200190815260200160002060000160008373ffffffffffffffffffffffffffffffffffffffff1673ffffffffffffffffffffffffffffffffffffffff16815260200190815260200160002060006101000a81548160ff02191690831515021790555062000317620003e160201b60201c565b73ffffffffffffffffffffffffffffffffffffffff168173ffffffffffffffffffffffffffffffffffffffff16837f2f8788117e7eff1d82e926ec794901d17c78024a50270940304540a733656f0d60405160405180910390a45b5050565b60006007600084815260200190815260200160002060000160008373ffffffffffffffffffffffffffffffffffffffff1673ffffffffffffffffffffffffffffffffffffffff16815260200190815260200160002060009054906101000a900460ff16905092915050565b600033905090565b828054620003f790620005c8565b90600052602060002090601f0160209004810192826200041b576000855562000467565b82601f106200043657805160ff191683800117855562000467565b8280016001018555821562000467579182015b828111156200046657825182559160200191906001019062000449565b5b5090506200047691906200047a565b5090565b5b80821115620004955760008160009055506001016200047b565b5090565b600081519050620004aa816200062d565b92915050565b600060208284031215620004c357600080fd5b6000620004d38482850162000499565b91505092915050565b620004e7816200056c565b82525050565b620004f88162000594565b82525050565b6200050981620005be565b82525050565b600060a082019050620005266000830188620004ed565b620005356020830187620004ed565b620005446040830186620004ed565b620005536060830185620004fe565b620005626080830184620004dc565b9695505050505050565b600062000579826200059e565b9050919050565b60006200058d826200059e565b9050919050565b6000819050919050565b600073ffffffffffffffffffffffffffffffffffffffff82169050919050565b6000819050919050565b60006002820490506001821680620005e157607f821691505b60208210811415620005f857620005f7620005fe565b5b50919050565b7f4e487b7100000000000000000000000000000000000000000000000000000000600052602260045260246000fd5b620006388162000580565b81146200064457600080fd5b50565b60805160a05160c05160601c60e051610100516101205161496b6200069a6000396000612afb01526000612b3d01526000612b1c01526000612a5101526000612aa701526000612ad0015261496b6000f3fe6080604052600436106101405760003560e01c80636352211e116100b6578063b88d4fde1161006f578063b88d4fde14610471578063c87b56dd1461049a578063d5391393146104d7578063d547741f14610502578063e322ad2b1461052b578063e985e9c51461055657610140565b80636352211e1461033b57806370a082311461037857806391d14854146103b557806395d89b41146103f2578063a217fddf1461041d578063a22cb4651461044857610140565b806323b872dd1161010857806323b872dd14610243578063248a9ca31461026c5780632f2ff15d146102a957806336568abe146102d25780633ccfd60b146102fb57806342842e0e1461031257610140565b806301ffc9a71461014557806306fdde0314610182578063081812fc146101ad578063095ea7b3146101ea5780631c098e9014610213575b600080fd5b34801561015157600080fd5b5061016c6004803603810190610167919061316f565b610593565b6040516101799190613846565b60405180910390f35b34801561018e57600080fd5b506101976105b5565b6040516101a49190613959565b60405180910390f35b3480156101b957600080fd5b506101d460048036038101906101cf91906131c1565b610647565b6040516101e191906137df565b60405180910390f35b3480156101f657600080fd5b50610211600480360381019061020c91906130ce565b6106cc565b005b61022d6004803603810190610228919061304f565b6107e4565b60405161023a9190613c9b565b60405180910390f35b34801561024f57600080fd5b5061026a60048036038101906102659190612f49565b610985565b005b34801561027857600080fd5b50610293600480360381019061028e919061310a565b6109e5565b6040516102a09190613861565b60405180910390f35b3480156102b557600080fd5b506102d060048036038101906102cb9190613133565b610a05565b005b3480156102de57600080fd5b506102f960048036038101906102f49190613133565b610a2e565b005b34801561030757600080fd5b50610310610ab1565b005b34801561031e57600080fd5b5061033960048036038101906103349190612f49565b610bf3565b005b34801561034757600080fd5b50610362600480360381019061035d91906131c1565b610c13565b60405161036f91906137df565b60405180910390f35b34801561038457600080fd5b5061039f600480360381019061039a9190612ee4565b610cc5565b6040516103ac9190613c9b565b60405180910390f35b3480156103c157600080fd5b506103dc60048036038101906103d79190613133565b610d7d565b6040516103e99190613846565b60405180910390f35b3480156103fe57600080fd5b50610407610de8565b6040516104149190613959565b60405180910390f35b34801561042957600080fd5b50610432610e7a565b60405161043f9190613861565b60405180910390f35b34801561045457600080fd5b5061046f600480360381019061046a9190613013565b610e81565b005b34801561047d57600080fd5b5061049860048036038101906104939190612f98565b610e97565b005b3480156104a657600080fd5b506104c160048036038101906104bc91906131c1565b610ef9565b6040516104ce9190613959565b60405180910390f35b3480156104e357600080fd5b506104ec61104b565b6040516104f99190613861565b60405180910390f35b34801561050e57600080fd5b5061052960048036038101906105249190613133565b61106f565b005b34801561053757600080fd5b50610540611098565b60405161054d9190613c9b565b60405180910390f35b34801561056257600080fd5b5061057d60048036038101906105789190612f0d565b6110df565b60405161058a9190613846565b60405180910390f35b600061059e82611173565b806105ae57506105ad82611255565b5b9050919050565b6060600080546105c490613fbd565b80601f01602080910402602001604051908101604052809291908181526020018280546105f090613fbd565b801561063d5780601f106106125761010080835404028352916020019161063d565b820191906000526020600020905b81548152906001019060200180831161062057829003601f168201915b5050505050905090565b6000610652826112cf565b610691576040517f08c379a000000000000000000000000000000000000000000000000000000000815260040161068890613bbb565b60405180910390fd5b6004600083815260200190815260200160002060009054906101000a900473ffffffffffffffffffffffffffffffffffffffff169050919050565b60006106d782610c13565b90508073ffffffffffffffffffffffffffffffffffffffff168373ffffffffffffffffffffffffffffffffffffffff161415610748576040517f08c379a000000000000000000000000000000000000000000000000000000000815260040161073f90613c1b565b60405180910390fd5b8073ffffffffffffffffffffffffffffffffffffffff1661076761133b565b73ffffffffffffffffffffffffffffffffffffffff16148061079657506107958161079061133b565b6110df565b5b6107d5576040517f08c379a00000000000000000000000000000000000000000000000000000000081526004016107cc90613abb565b60405180910390fd5b6107df8383611343565b505050565b6000806107f184846113fc565b905061081d7f9f2df0fed2c77648de5860a4cc508cd0818c85b8b8a1ab4ceeef8d981c8956a682610d7d565b61085c576040517f08c379a000000000000000000000000000000000000000000000000000000000815260040161085390613c3b565b60405180910390fd5b83602001353410156108a3576040517f08c379a000000000000000000000000000000000000000000000000000000000815260040161089a90613b5b565b60405180910390fd5b6108b181856000013561142e565b61091184600001358580604001906108c99190613cb6565b8080601f016020809104026020016040519081016040528093929190818152602001838380828437600081840152601f19601f82011690508083019250505050505050611608565b6109208186866000013561167c565b34600860008373ffffffffffffffffffffffffffffffffffffffff1673ffffffffffffffffffffffffffffffffffffffff168152602001908152602001600020600082825461096f9190613db1565b9250508190555083600001359150509392505050565b61099661099061133b565b826118e3565b6109d5576040517f08c379a00000000000000000000000000000000000000000000000000000000081526004016109cc90613c5b565b60405180910390fd5b6109e083838361167c565b505050565b600060076000838152602001908152602001600020600101549050919050565b610a0e826109e5565b610a1f81610a1a61133b565b6119c1565b610a298383611a5e565b505050565b610a3661133b565b73ffffffffffffffffffffffffffffffffffffffff168173ffffffffffffffffffffffffffffffffffffffff1614610aa3576040517f08c379a0000000000000000000000000000000000000000000000000000000008152600401610a9a90613c7b565b60405180910390fd5b610aad8282611b3f565b5050565b610adb7f9f2df0fed2c77648de5860a4cc508cd0818c85b8b8a1ab4ceeef8d981c8956a633610d7d565b610b1a576040517f08c379a0000000000000000000000000000000000000000000000000000000008152600401610b1190613bfb565b60405180910390fd5b60003390506000600860008373ffffffffffffffffffffffffffffffffffffffff1673ffffffffffffffffffffffffffffffffffffffff1681526020019081526020016000205490506000600860008473ffffffffffffffffffffffffffffffffffffffff1673ffffffffffffffffffffffffffffffffffffffff168152602001908152602001600020819055508173ffffffffffffffffffffffffffffffffffffffff166108fc829081150290604051600060405180830381858888f19350505050158015610bee573d6000803e3d6000fd5b505050565b610c0e83838360405180602001604052806000815250610e97565b505050565b6000806002600084815260200190815260200160002060009054906101000a900473ffffffffffffffffffffffffffffffffffffffff169050600073ffffffffffffffffffffffffffffffffffffffff168173ffffffffffffffffffffffffffffffffffffffff161415610cbc576040517f08c379a0000000000000000000000000000000000000000000000000000000008152600401610cb390613afb565b60405180910390fd5b80915050919050565b60008073ffffffffffffffffffffffffffffffffffffffff168273ffffffffffffffffffffffffffffffffffffffff161415610d36576040517f08c379a0000000000000000000000000000000000000000000000000000000008152600401610d2d90613adb565b60405180910390fd5b600360008373ffffffffffffffffffffffffffffffffffffffff1673ffffffffffffffffffffffffffffffffffffffff168152602001908152602001600020549050919050565b60006007600084815260200190815260200160002060000160008373ffffffffffffffffffffffffffffffffffffffff1673ffffffffffffffffffffffffffffffffffffffff16815260200190815260200160002060009054906101000a900460ff16905092915050565b606060018054610df790613fbd565b80601f0160208091040260200160405190810160405280929190818152602001828054610e2390613fbd565b8015610e705780601f10610e4557610100808354040283529160200191610e70565b820191906000526020600020905b815481529060010190602001808311610e5357829003601f168201915b5050505050905090565b6000801b81565b610e93610e8c61133b565b8383611c21565b5050565b610ea8610ea261133b565b836118e3565b610ee7576040517f08c379a0000000000000000000000000000000000000000000000000000000008152600401610ede90613c5b565b60405180910390fd5b610ef384848484611d8e565b50505050565b6060610f04826112cf565b610f43576040517f08c379a0000000000000000000000000000000000000000000000000000000008152600401610f3a90613b9b565b60405180910390fd5b6000600660008481526020019081526020016000208054610f6390613fbd565b80601f0160208091040260200160405190810160405280929190818152602001828054610f8f90613fbd565b8015610fdc5780601f10610fb157610100808354040283529160200191610fdc565b820191906000526020600020905b815481529060010190602001808311610fbf57829003601f168201915b505050505090506000610fed611dea565b9050600081511415611003578192505050611046565b600082511115611038578082604051602001611020929190613724565b60405160208183030381529060405292505050611046565b61104184611e01565b925050505b919050565b7f9f2df0fed2c77648de5860a4cc508cd0818c85b8b8a1ab4ceeef8d981c8956a681565b611078826109e5565b6110898161108461133b565b6119c1565b6110938383611b3f565b505050565b6000600860003373ffffffffffffffffffffffffffffffffffffffff1673ffffffffffffffffffffffffffffffffffffffff16815260200190815260200160002054905090565b6000600560008473ffffffffffffffffffffffffffffffffffffffff1673ffffffffffffffffffffffffffffffffffffffff16815260200190815260200160002060008373ffffffffffffffffffffffffffffffffffffffff1673ffffffffffffffffffffffffffffffffffffffff16815260200190815260200160002060009054906101000a900460ff16905092915050565b60007f80ac58cd000000000000000000000000000000000000000000000000000000007bffffffffffffffffffffffffffffffffffffffffffffffffffffffff1916827bffffffffffffffffffffffffffffffffffffffffffffffffffffffff1916148061123e57507f5b5e139f000000000000000000000000000000000000000000000000000000007bffffffffffffffffffffffffffffffffffffffffffffffffffffffff1916827bffffffffffffffffffffffffffffffffffffffffffffffffffffffff1916145b8061124e575061124d82611ea8565b5b9050919050565b60007f7965db0b000000000000000000000000000000000000000000000000000000007bffffffffffffffffffffffffffffffffffffffffffffffffffffffff1916827bffffffffffffffffffffffffffffffffffffffffffffffffffffffff191614806112c857506112c782611173565b5b9050919050565b60008073ffffffffffffffffffffffffffffffffffffffff166002600084815260200190815260200160002060009054906101000a900473ffffffffffffffffffffffffffffffffffffffff1673ffffffffffffffffffffffffffffffffffffffff1614159050919050565b600033905090565b816004600083815260200190815260200160002060006101000a81548173ffffffffffffffffffffffffffffffffffffffff021916908373ffffffffffffffffffffffffffffffffffffffff160217905550808273ffffffffffffffffffffffffffffffffffffffff166113b683610c13565b73ffffffffffffffffffffffffffffffffffffffff167f8c5be1e5ebec7d5bd14f71427d1e84f3dd0314c0f7b2291e5b200ac8c7c3b92560405160405180910390a45050565b60008061140884611f12565b90506114258361141783611f9d565b611fcd90919063ffffffff16565b91505092915050565b600073ffffffffffffffffffffffffffffffffffffffff168273ffffffffffffffffffffffffffffffffffffffff16141561149e576040517f08c379a000000000000000000000000000000000000000000000000000000000815260040161149590613b7b565b60405180910390fd5b6114a7816112cf565b156114e7576040517f08c379a00000000000000000000000000000000000000000000000000000000081526004016114de90613a1b565b60405180910390fd5b6114f360008383611ff4565b6001600360008473ffffffffffffffffffffffffffffffffffffffff1673ffffffffffffffffffffffffffffffffffffffff16815260200190815260200160002060008282546115439190613db1565b92505081905550816002600083815260200190815260200160002060006101000a81548173ffffffffffffffffffffffffffffffffffffffff021916908373ffffffffffffffffffffffffffffffffffffffff160217905550808273ffffffffffffffffffffffffffffffffffffffff16600073ffffffffffffffffffffffffffffffffffffffff167fddf252ad1be2c89b69c2b068fc378daa952ba7f163c4a11628f55a4df523b3ef60405160405180910390a461160460008383611ff9565b5050565b611611826112cf565b611650576040517f08c379a000000000000000000000000000000000000000000000000000000000815260040161164790613b1b565b60405180910390fd5b80600660008481526020019081526020016000209080519060200190611677929190612d40565b505050565b8273ffffffffffffffffffffffffffffffffffffffff1661169c82610c13565b73ffffffffffffffffffffffffffffffffffffffff16146116f2576040517f08c379a00000000000000000000000000000000000000000000000000000000081526004016116e9906139fb565b60405180910390fd5b600073ffffffffffffffffffffffffffffffffffffffff168273ffffffffffffffffffffffffffffffffffffffff161415611762576040517f08c379a000000000000000000000000000000000000000000000000000000000815260040161175990613a3b565b60405180910390fd5b61176d838383611ff4565b611778600082611343565b6001600360008573ffffffffffffffffffffffffffffffffffffffff1673ffffffffffffffffffffffffffffffffffffffff16815260200190815260200160002060008282546117c89190613e92565b925050819055506001600360008473ffffffffffffffffffffffffffffffffffffffff1673ffffffffffffffffffffffffffffffffffffffff168152602001908152602001600020600082825461181f9190613db1565b92505081905550816002600083815260200190815260200160002060006101000a81548173ffffffffffffffffffffffffffffffffffffffff021916908373ffffffffffffffffffffffffffffffffffffffff160217905550808273ffffffffffffffffffffffffffffffffffffffff168473ffffffffffffffffffffffffffffffffffffffff167fddf252ad1be2c89b69c2b068fc378daa952ba7f163c4a11628f55a4df523b3ef60405160405180910390a46118de838383611ff9565b505050565b60006118ee826112cf565b61192d576040517f08c379a000000000000000000000000000000000000000000000000000000000815260040161192490613a9b565b60405180910390fd5b600061193883610c13565b90508073ffffffffffffffffffffffffffffffffffffffff168473ffffffffffffffffffffffffffffffffffffffff1614806119a757508373ffffffffffffffffffffffffffffffffffffffff1661198f84610647565b73ffffffffffffffffffffffffffffffffffffffff16145b806119b857506119b781856110df565b5b91505092915050565b6119cb8282610d7d565b611a5a576119f08173ffffffffffffffffffffffffffffffffffffffff166014611ffe565b6119fe8360001c6020611ffe565b604051602001611a0f9291906137a5565b6040516020818303038152906040526040517f08c379a0000000000000000000000000000000000000000000000000000000008152600401611a519190613959565b60405180910390fd5b5050565b611a688282610d7d565b611b3b5760016007600084815260200190815260200160002060000160008373ffffffffffffffffffffffffffffffffffffffff1673ffffffffffffffffffffffffffffffffffffffff16815260200190815260200160002060006101000a81548160ff021916908315150217905550611ae061133b565b73ffffffffffffffffffffffffffffffffffffffff168173ffffffffffffffffffffffffffffffffffffffff16837f2f8788117e7eff1d82e926ec794901d17c78024a50270940304540a733656f0d60405160405180910390a45b5050565b611b498282610d7d565b15611c1d5760006007600084815260200190815260200160002060000160008373ffffffffffffffffffffffffffffffffffffffff1673ffffffffffffffffffffffffffffffffffffffff16815260200190815260200160002060006101000a81548160ff021916908315150217905550611bc261133b565b73ffffffffffffffffffffffffffffffffffffffff168173ffffffffffffffffffffffffffffffffffffffff16837ff6391f5c32d9c69d2a47ea670b442974b53935d1edc7fd64eb21e047a839171b60405160405180910390a45b5050565b8173ffffffffffffffffffffffffffffffffffffffff168373ffffffffffffffffffffffffffffffffffffffff161415611c90576040517f08c379a0000000000000000000000000000000000000000000000000000000008152600401611c8790613a5b565b60405180910390fd5b80600560008573ffffffffffffffffffffffffffffffffffffffff1673ffffffffffffffffffffffffffffffffffffffff16815260200190815260200160002060008473ffffffffffffffffffffffffffffffffffffffff1673ffffffffffffffffffffffffffffffffffffffff16815260200190815260200160002060006101000a81548160ff0219169083151502179055508173ffffffffffffffffffffffffffffffffffffffff168373ffffffffffffffffffffffffffffffffffffffff167f17307eab39ab6107e8899845ad3d59bd9653f200f220920489ca2b5937696c3183604051611d819190613846565b60405180910390a3505050565b611d9984848461167c565b611da5848484846122f8565b611de4576040517f08c379a0000000000000000000000000000000000000000000000000000000008152600401611ddb906139db565b60405180910390fd5b50505050565b606060405180602001604052806000815250905090565b6060611e0c826112cf565b611e4b576040517f08c379a0000000000000000000000000000000000000000000000000000000008152600401611e4290613bdb565b60405180910390fd5b6000611e55611dea565b90506000815111611e755760405180602001604052806000815250611ea0565b80611e7f8461248f565b604051602001611e90929190613724565b6040516020818303038152906040525b915050919050565b60007f01ffc9a7000000000000000000000000000000000000000000000000000000007bffffffffffffffffffffffffffffffffffffffffffffffffffffffff1916827bffffffffffffffffffffffffffffffffffffffffffffffffffffffff1916149050919050565b6000611f967f6316f9ddd4d59a364f3b95c26bab9d392c3380ace0fff15e91ed76f0d8bcd15a83600001358460200135858060400190611f529190613cb6565b604051611f6092919061370b565b6040518091039020604051602001611f7b94939291906138cf565b6040516020818303038152906040528051906020012061263c565b9050919050565b600081604051602001611fb09190613748565b604051602081830303815290604052805190602001209050919050565b6000806000611fdc8585612656565b91509150611fe9816126d9565b819250505092915050565b505050565b505050565b6060600060028360026120119190613e38565b61201b9190613db1565b67ffffffffffffffff81111561205a577f4e487b7100000000000000000000000000000000000000000000000000000000600052604160045260246000fd5b6040519080825280601f01601f19166020018201604052801561208c5781602001600182028036833780820191505090505b5090507f3000000000000000000000000000000000000000000000000000000000000000816000815181106120ea577f4e487b7100000000000000000000000000000000000000000000000000000000600052603260045260246000fd5b60200101907effffffffffffffffffffffffffffffffffffffffffffffffffffffffffffff1916908160001a9053507f780000000000000000000000000000000000000000000000000000000000000081600181518110612174577f4e487b7100000000000000000000000000000000000000000000000000000000600052603260045260246000fd5b60200101907effffffffffffffffffffffffffffffffffffffffffffffffffffffffffffff1916908160001a905350600060018460026121b49190613e38565b6121be9190613db1565b90505b60018111156122aa577f3031323334353637383961626364656600000000000000000000000000000000600f861660108110612226577f4e487b7100000000000000000000000000000000000000000000000000000000600052603260045260246000fd5b1a60f81b828281518110612263577f4e487b7100000000000000000000000000000000000000000000000000000000600052603260045260246000fd5b60200101907effffffffffffffffffffffffffffffffffffffffffffffffffffffffffffff1916908160001a905350600485901c9450806122a390613f93565b90506121c1565b50600084146122ee576040517f08c379a00000000000000000000000000000000000000000000000000000000081526004016122e59061399b565b60405180910390fd5b8091505092915050565b60006123198473ffffffffffffffffffffffffffffffffffffffff16612a2a565b15612482578373ffffffffffffffffffffffffffffffffffffffff1663150b7a0261234261133b565b8786866040518563ffffffff1660e01b815260040161236494939291906137fa565b602060405180830381600087803b15801561237e57600080fd5b505af19250505080156123af57506040513d601f19601f820116820180604052508101906123ac9190613198565b60015b612432573d80600081146123df576040519150601f19603f3d011682016040523d82523d6000602084013e6123e4565b606091505b5060008151141561242a576040517f08c379a0000000000000000000000000000000000000000000000000000000008152600401612421906139db565b60405180910390fd5b805181602001fd5b63150b7a0260e01b7bffffffffffffffffffffffffffffffffffffffffffffffffffffffff1916817bffffffffffffffffffffffffffffffffffffffffffffffffffffffff191614915050612487565b600190505b949350505050565b606060008214156124d7576040518060400160405280600181526020017f30000000000000000000000000000000000000000000000000000000000000008152509050612637565b600082905060005b600082146125095780806124f290614020565b915050600a826125029190613e07565b91506124df565b60008167ffffffffffffffff81111561254b577f4e487b7100000000000000000000000000000000000000000000000000000000600052604160045260246000fd5b6040519080825280601f01601f19166020018201604052801561257d5781602001600182028036833780820191505090505b5090505b60008514612630576001826125969190613e92565b9150600a856125a59190614073565b60306125b19190613db1565b60f81b8183815181106125ed577f4e487b7100000000000000000000000000000000000000000000000000000000600052603260045260246000fd5b60200101907effffffffffffffffffffffffffffffffffffffffffffffffffffffffffffff1916908160001a905350600a856126299190613e07565b9450612581565b8093505050505b919050565b600061264f612649612a4d565b83612b67565b9050919050565b6000806041835114156126985760008060006020860151925060408601519150606086015160001a905061268c87828585612b9a565b945094505050506126d2565b6040835114156126c95760008060208501519150604085015190506126be868383612ca7565b9350935050506126d2565b60006002915091505b9250929050565b60006004811115612713577f4e487b7100000000000000000000000000000000000000000000000000000000600052602160045260246000fd5b81600481111561274c577f4e487b7100000000000000000000000000000000000000000000000000000000600052602160045260246000fd5b141561275757612a27565b60016004811115612791577f4e487b7100000000000000000000000000000000000000000000000000000000600052602160045260246000fd5b8160048111156127ca577f4e487b7100000000000000000000000000000000000000000000000000000000600052602160045260246000fd5b141561280b576040517f08c379a00000000000000000000000000000000000000000000000000000000081526004016128029061397b565b60405180910390fd5b60026004811115612845577f4e487b7100000000000000000000000000000000000000000000000000000000600052602160045260246000fd5b81600481111561287e577f4e487b7100000000000000000000000000000000000000000000000000000000600052602160045260246000fd5b14156128bf576040517f08c379a00000000000000000000000000000000000000000000000000000000081526004016128b6906139bb565b60405180910390fd5b600360048111156128f9577f4e487b7100000000000000000000000000000000000000000000000000000000600052602160045260246000fd5b816004811115612932577f4e487b7100000000000000000000000000000000000000000000000000000000600052602160045260246000fd5b1415612973576040517f08c379a000000000000000000000000000000000000000000000000000000000815260040161296a90613a7b565b60405180910390fd5b6004808111156129ac577f4e487b7100000000000000000000000000000000000000000000000000000000600052602160045260246000fd5b8160048111156129e5577f4e487b7100000000000000000000000000000000000000000000000000000000600052602160045260246000fd5b1415612a26576040517f08c379a0000000000000000000000000000000000000000000000000000000008152600401612a1d90613b3b565b60405180910390fd5b5b50565b6000808273ffffffffffffffffffffffffffffffffffffffff163b119050919050565b60007f000000000000000000000000000000000000000000000000000000000000000073ffffffffffffffffffffffffffffffffffffffff163073ffffffffffffffffffffffffffffffffffffffff16148015612ac957507f000000000000000000000000000000000000000000000000000000000000000046145b15612af6577f00000000000000000000000000000000000000000000000000000000000000009050612b64565b612b617f00000000000000000000000000000000000000000000000000000000000000007f00000000000000000000000000000000000000000000000000000000000000007f0000000000000000000000000000000000000000000000000000000000000000612d06565b90505b90565b60008282604051602001612b7c92919061376e565b60405160208183030381529060405280519060200120905092915050565b6000807f7fffffffffffffffffffffffffffffff5d576e7357a4501ddfe92f46681b20a08360001c1115612bd5576000600391509150612c9e565b601b8560ff1614158015612bed5750601c8560ff1614155b15612bff576000600491509150612c9e565b600060018787878760405160008152602001604052604051612c249493929190613914565b6020604051602081039080840390855afa158015612c46573d6000803e3d6000fd5b505050602060405103519050600073ffffffffffffffffffffffffffffffffffffffff168173ffffffffffffffffffffffffffffffffffffffff161415612c9557600060019250925050612c9e565b80600092509250505b94509492505050565b60008060007f7fffffffffffffffffffffffffffffffffffffffffffffffffffffffffffffff60001b841690506000601b60ff8660001c901c612cea9190613db1565b9050612cf887828885612b9a565b935093505050935093915050565b60008383834630604051602001612d2195949392919061387c565b6040516020818303038152906040528051906020012090509392505050565b828054612d4c90613fbd565b90600052602060002090601f016020900481019282612d6e5760008555612db5565b82601f10612d8757805160ff1916838001178555612db5565b82800160010185558215612db5579182015b82811115612db4578251825591602001919060010190612d99565b5b509050612dc29190612dc6565b5090565b5b80821115612ddf576000816000905550600101612dc7565b5090565b6000612df6612df184613d32565b613d0d565b905082815260208101848484011115612e0e57600080fd5b612e19848285613f51565b509392505050565b600081359050612e30816148c2565b92915050565b600081359050612e45816148d9565b92915050565b600081359050612e5a816148f0565b92915050565b600081359050612e6f81614907565b92915050565b600081519050612e8481614907565b92915050565b600082601f830112612e9b57600080fd5b8135612eab848260208601612de3565b91505092915050565b600060608284031215612ec657600080fd5b81905092915050565b600081359050612ede8161491e565b92915050565b600060208284031215612ef657600080fd5b6000612f0484828501612e21565b91505092915050565b60008060408385031215612f2057600080fd5b6000612f2e85828601612e21565b9250506020612f3f85828601612e21565b9150509250929050565b600080600060608486031215612f5e57600080fd5b6000612f6c86828701612e21565b9350506020612f7d86828701612e21565b9250506040612f8e86828701612ecf565b9150509250925092565b60008060008060808587031215612fae57600080fd5b6000612fbc87828801612e21565b9450506020612fcd87828801612e21565b9350506040612fde87828801612ecf565b925050606085013567ffffffffffffffff811115612ffb57600080fd5b61300787828801612e8a565b91505092959194509250565b6000806040838503121561302657600080fd5b600061303485828601612e21565b925050602061304585828601612e36565b9150509250929050565b60008060006060848603121561306457600080fd5b600061307286828701612e21565b935050602084013567ffffffffffffffff81111561308f57600080fd5b61309b86828701612eb4565b925050604084013567ffffffffffffffff8111156130b857600080fd5b6130c486828701612e8a565b9150509250925092565b600080604083850312156130e157600080fd5b60006130ef85828601612e21565b925050602061310085828601612ecf565b9150509250929050565b60006020828403121561311c57600080fd5b600061312a84828501612e4b565b91505092915050565b6000806040838503121561314657600080fd5b600061315485828601612e4b565b925050602061316585828601612e21565b9150509250929050565b60006020828403121561318157600080fd5b600061318f84828501612e60565b91505092915050565b6000602082840312156131aa57600080fd5b60006131b884828501612e75565b91505092915050565b6000602082840312156131d357600080fd5b60006131e184828501612ecf565b91505092915050565b6131f381613ec6565b82525050565b61320281613ed8565b82525050565b61321181613ee4565b82525050565b61322861322382613ee4565b614069565b82525050565b600061323a8385613d8a565b9350613247838584613f51565b82840190509392505050565b600061325e82613d63565b6132688185613d79565b9350613278818560208601613f60565b61328181614160565b840191505092915050565b600061329782613d6e565b6132a18185613d95565b93506132b1818560208601613f60565b6132ba81614160565b840191505092915050565b60006132d082613d6e565b6132da8185613da6565b93506132ea818560208601613f60565b80840191505092915050565b6000613303601883613d95565b915061330e82614171565b602082019050919050565b6000613326602083613d95565b91506133318261419a565b602082019050919050565b6000613349601f83613d95565b9150613354826141c3565b602082019050919050565b600061336c601c83613da6565b9150613377826141ec565b601c82019050919050565b600061338f603283613d95565b915061339a82614215565b604082019050919050565b60006133b2602583613d95565b91506133bd82614264565b604082019050919050565b60006133d5601c83613d95565b91506133e0826142b3565b602082019050919050565b60006133f8600283613da6565b9150613403826142dc565b600282019050919050565b600061341b602483613d95565b915061342682614305565b604082019050919050565b600061343e601983613d95565b915061344982614354565b602082019050919050565b6000613461602283613d95565b915061346c8261437d565b604082019050919050565b6000613484602c83613d95565b915061348f826143cc565b604082019050919050565b60006134a7603883613d95565b91506134b28261441b565b604082019050919050565b60006134ca602a83613d95565b91506134d58261446a565b604082019050919050565b60006134ed602983613d95565b91506134f8826144b9565b604082019050919050565b6000613510602e83613d95565b915061351b82614508565b604082019050919050565b6000613533602283613d95565b915061353e82614557565b604082019050919050565b6000613556601c83613d95565b9150613561826145a6565b602082019050919050565b6000613579602083613d95565b9150613584826145cf565b602082019050919050565b600061359c603183613d95565b91506135a7826145f8565b604082019050919050565b60006135bf602c83613d95565b91506135ca82614647565b604082019050919050565b60006135e2602f83613d95565b91506135ed82614696565b604082019050919050565b6000613605602483613d95565b9150613610826146e5565b604082019050919050565b6000613628602183613d95565b915061363382614734565b604082019050919050565b600061364b602183613d95565b915061365682614783565b604082019050919050565b600061366e603183613d95565b9150613679826147d2565b604082019050919050565b6000613691601783613da6565b915061369c82614821565b601782019050919050565b60006136b4601183613da6565b91506136bf8261484a565b601182019050919050565b60006136d7602f83613d95565b91506136e282614873565b604082019050919050565b6136f681613f3a565b82525050565b61370581613f44565b82525050565b600061371882848661322e565b91508190509392505050565b600061373082856132c5565b915061373c82846132c5565b91508190509392505050565b60006137538261335f565b915061375f8284613217565b60208201915081905092915050565b6000613779826133eb565b91506137858285613217565b6020820191506137958284613217565b6020820191508190509392505050565b60006137b082613684565b91506137bc82856132c5565b91506137c7826136a7565b91506137d382846132c5565b91508190509392505050565b60006020820190506137f460008301846131ea565b92915050565b600060808201905061380f60008301876131ea565b61381c60208301866131ea565b61382960408301856136ed565b818103606083015261383b8184613253565b905095945050505050565b600060208201905061385b60008301846131f9565b92915050565b60006020820190506138766000830184613208565b92915050565b600060a0820190506138916000830188613208565b61389e6020830187613208565b6138ab6040830186613208565b6138b860608301856136ed565b6138c560808301846131ea565b9695505050505050565b60006080820190506138e46000830187613208565b6138f160208301866136ed565b6138fe60408301856136ed565b61390b6060830184613208565b95945050505050565b60006080820190506139296000830187613208565b61393660208301866136fc565b6139436040830185613208565b6139506060830184613208565b95945050505050565b60006020820190508181036000830152613973818461328c565b905092915050565b60006020820190508181036000830152613994816132f6565b9050919050565b600060208201905081810360008301526139b481613319565b9050919050565b600060208201905081810360008301526139d48161333c565b9050919050565b600060208201905081810360008301526139f481613382565b9050919050565b60006020820190508181036000830152613a14816133a5565b9050919050565b60006020820190508181036000830152613a34816133c8565b9050919050565b60006020820190508181036000830152613a548161340e565b9050919050565b60006020820190508181036000830152613a7481613431565b9050919050565b60006020820190508181036000830152613a9481613454565b9050919050565b60006020820190508181036000830152613ab481613477565b9050919050565b60006020820190508181036000830152613ad48161349a565b9050919050565b60006020820190508181036000830152613af4816134bd565b9050919050565b60006020820190508181036000830152613b14816134e0565b9050919050565b60006020820190508181036000830152613b3481613503565b9050919050565b60006020820190508181036000830152613b5481613526565b9050919050565b60006020820190508181036000830152613b7481613549565b9050919050565b60006020820190508181036000830152613b948161356c565b9050919050565b60006020820190508181036000830152613bb48161358f565b9050919050565b60006020820190508181036000830152613bd4816135b2565b9050919050565b60006020820190508181036000830152613bf4816135d5565b9050919050565b60006020820190508181036000830152613c14816135f8565b9050919050565b60006020820190508181036000830152613c348161361b565b9050919050565b60006020820190508181036000830152613c548161363e565b9050919050565b60006020820190508181036000830152613c7481613661565b9050919050565b60006020820190508181036000830152613c94816136ca565b9050919050565b6000602082019050613cb060008301846136ed565b92915050565b60008083356001602003843603038112613ccf57600080fd5b80840192508235915067ffffffffffffffff821115613ced57600080fd5b602083019250600182023603831315613d0557600080fd5b509250929050565b6000613d17613d28565b9050613d238282613fef565b919050565b6000604051905090565b600067ffffffffffffffff821115613d4d57613d4c614131565b5b613d5682614160565b9050602081019050919050565b600081519050919050565b600081519050919050565b600082825260208201905092915050565b600081905092915050565b600082825260208201905092915050565b600081905092915050565b6000613dbc82613f3a565b9150613dc783613f3a565b9250827fffffffffffffffffffffffffffffffffffffffffffffffffffffffffffffffff03821115613dfc57613dfb6140a4565b5b828201905092915050565b6000613e1282613f3a565b9150613e1d83613f3a565b925082613e2d57613e2c6140d3565b5b828204905092915050565b6000613e4382613f3a565b9150613e4e83613f3a565b9250817fffffffffffffffffffffffffffffffffffffffffffffffffffffffffffffffff0483118215151615613e8757613e866140a4565b5b828202905092915050565b6000613e9d82613f3a565b9150613ea883613f3a565b925082821015613ebb57613eba6140a4565b5b828203905092915050565b6000613ed182613f1a565b9050919050565b60008115159050919050565b6000819050919050565b60007fffffffff0000000000000000000000000000000000000000000000000000000082169050919050565b600073ffffffffffffffffffffffffffffffffffffffff82169050919050565b6000819050919050565b600060ff82169050919050565b82818337600083830152505050565b60005b83811015613f7e578082015181840152602081019050613f63565b83811115613f8d576000848401525b50505050565b6000613f9e82613f3a565b91506000821415613fb257613fb16140a4565b5b600182039050919050565b60006002820490506001821680613fd557607f821691505b60208210811415613fe957613fe8614102565b5b50919050565b613ff882614160565b810181811067ffffffffffffffff8211171561401757614016614131565b5b80604052505050565b600061402b82613f3a565b91507fffffffffffffffffffffffffffffffffffffffffffffffffffffffffffffffff82141561405e5761405d6140a4565b5b600182019050919050565b6000819050919050565b600061407e82613f3a565b915061408983613f3a565b925082614099576140986140d3565b5b828206905092915050565b7f4e487b7100000000000000000000000000000000000000000000000000000000600052601160045260246000fd5b7f4e487b7100000000000000000000000000000000000000000000000000000000600052601260045260246000fd5b7f4e487b7100000000000000000000000000000000000000000000000000000000600052602260045260246000fd5b7f4e487b7100000000000000000000000000000000000000000000000000000000600052604160045260246000fd5b6000601f19601f8301169050919050565b7f45434453413a20696e76616c6964207369676e61747572650000000000000000600082015250565b7f537472696e67733a20686578206c656e67746820696e73756666696369656e74600082015250565b7f45434453413a20696e76616c6964207369676e6174757265206c656e67746800600082015250565b7f19457468657265756d205369676e6564204d6573736167653a0a333200000000600082015250565b7f4552433732313a207472616e7366657220746f206e6f6e20455243373231526560008201527f63656976657220696d706c656d656e7465720000000000000000000000000000602082015250565b7f4552433732313a207472616e736665722066726f6d20696e636f72726563742060008201527f6f776e6572000000000000000000000000000000000000000000000000000000602082015250565b7f4552433732313a20746f6b656e20616c7265616479206d696e74656400000000600082015250565b7f1901000000000000000000000000000000000000000000000000000000000000600082015250565b7f4552433732313a207472616e7366657220746f20746865207a65726f2061646460008201527f7265737300000000000000000000000000000000000000000000000000000000602082015250565b7f4552433732313a20617070726f766520746f2063616c6c657200000000000000600082015250565b7f45434453413a20696e76616c6964207369676e6174757265202773272076616c60008201527f7565000000000000000000000000000000000000000000000000000000000000602082015250565b7f4552433732313a206f70657261746f7220717565727920666f72206e6f6e657860008201527f697374656e7420746f6b656e0000000000000000000000000000000000000000602082015250565b7f4552433732313a20617070726f76652063616c6c6572206973206e6f74206f7760008201527f6e6572206e6f7220617070726f76656420666f7220616c6c0000000000000000602082015250565b7f4552433732313a2062616c616e636520717565727920666f7220746865207a6560008201527f726f206164647265737300000000000000000000000000000000000000000000602082015250565b7f4552433732313a206f776e657220717565727920666f72206e6f6e657869737460008201527f656e7420746f6b656e0000000000000000000000000000000000000000000000602082015250565b7f45524337323155524953746f726167653a2055524920736574206f66206e6f6e60008201527f6578697374656e7420746f6b656e000000000000000000000000000000000000602082015250565b7f45434453413a20696e76616c6964207369676e6174757265202776272076616c60008201527f7565000000000000000000000000000000000000000000000000000000000000602082015250565b7f496e73756666696369656e742066756e647320746f2072656465656d00000000600082015250565b7f4552433732313a206d696e7420746f20746865207a65726f2061646472657373600082015250565b7f45524337323155524953746f726167653a2055524920717565727920666f722060008201527f6e6f6e6578697374656e7420746f6b656e000000000000000000000000000000602082015250565b7f4552433732313a20617070726f76656420717565727920666f72206e6f6e657860008201527f697374656e7420746f6b656e0000000000000000000000000000000000000000602082015250565b7f4552433732314d657461646174613a2055524920717565727920666f72206e6f60008201527f6e6578697374656e7420746f6b656e0000000000000000000000000000000000602082015250565b7f4f6e6c7920617574686f72697a6564206d696e746572732063616e207769746860008201527f6472617700000000000000000000000000000000000000000000000000000000602082015250565b7f4552433732313a20617070726f76616c20746f2063757272656e74206f776e6560008201527f7200000000000000000000000000000000000000000000000000000000000000602082015250565b7f5369676e617475726520696e76616c6964206f7220756e617574686f72697a6560008201527f6400000000000000000000000000000000000000000000000000000000000000602082015250565b7f4552433732313a207472616e736665722063616c6c6572206973206e6f74206f60008201527f776e6572206e6f7220617070726f766564000000000000000000000000000000602082015250565b7f416363657373436f6e74726f6c3a206163636f756e7420000000000000000000600082015250565b7f206973206d697373696e6720726f6c6520000000000000000000000000000000600082015250565b7f416363657373436f6e74726f6c3a2063616e206f6e6c792072656e6f756e636560008201527f20726f6c657320666f722073656c660000000000000000000000000000000000602082015250565b6148cb81613ec6565b81146148d657600080fd5b50565b6148e281613ed8565b81146148ed57600080fd5b50565b6148f981613ee4565b811461490457600080fd5b50565b61491081613eee565b811461491b57600080fd5b50565b61492781613f3a565b811461493257600080fd5b5056fea264697066735822122099fefb499ab0b6c8369dc584ed4662acfbde0b2672e7173e6c2cec139e0f718d64736f6c63430008040033",
  "linkReferences": {},
  "deployedLinkReferences": {}
}