{
  "_format": "hh-sol-artifact-1",
  "contractName": "LiveMintAuctionMultiple",
  "sourceName": "contracts/LiveMintMultiple.sol",
  "abi": [
    {
      "inputs": [
        {
          "internalType": "address",
          "name": "_nftContract",
          "type": "address"
        },
        {
          "internalType": "address",
          "name": "_payeeOne",
          "type": "address"
        },
        {
          "internalType": "address",
          "name": "_payeeTwo",
          "type": "address"
        },
        {
          "internalType": "uint256",
          "name": "_payeeOneFee",
          "type": "uint256"
        },
        {
          "internalType": "uint256",
          "name": "_payeeTwoFee",
          "type": "uint256"
        },
        {
          "internalType": "uint256",
          "name": "_nftyTunesFee",
          "type": "uint256"
        }
      ],
      "stateMutability": "nonpayable",
      "type": "constructor"
    },
    {
      "anonymous": false,
      "inputs": [
        {
          "indexed": true,
          "internalType": "address",
          "name": "sender",
          "type": "address"
        },
        {
          "indexed": false,
          "internalType": "uint256",
          "name": "amount",
          "type": "uint256"
        },
        {
          "indexed": false,
          "internalType": "uint256",
          "name": "timestamp",
          "type": "uint256"
        }
      ],
      "name": "Bid",
      "type": "event"
    },
    {
      "anonymous": false,
      "inputs": [
        {
          "indexed": false,
          "internalType": "address[]",
          "name": "winningBidders",
          "type": "address[]"
        },
        {
          "indexed": false,
          "internalType": "uint256",
          "name": "timestamp",
          "type": "uint256"
        }
      ],
      "name": "End",
      "type": "event"
    },
    {
      "anonymous": false,
      "inputs": [
        {
          "indexed": false,
          "internalType": "uint256",
          "name": "highestBid",
          "type": "uint256"
        },
        {
          "indexed": false,
          "internalType": "uint256",
          "name": "timestamp",
          "type": "uint256"
        }
      ],
      "name": "Start",
      "type": "event"
    },
    {
      "anonymous": false,
      "inputs": [
        {
          "indexed": true,
          "internalType": "address",
          "name": "bidder",
          "type": "address"
        },
        {
          "indexed": false,
          "internalType": "uint256",
          "name": "amount",
          "type": "uint256"
        },
        {
          "indexed": false,
          "internalType": "uint256",
          "name": "timestamp",
          "type": "uint256"
        }
      ],
      "name": "Withdraw",
      "type": "event"
    },
    {
      "inputs": [],
      "name": "bid",
      "outputs": [],
      "stateMutability": "payable",
      "type": "function"
    },
    {
      "inputs": [
        {
          "internalType": "string[]",
          "name": "tokenURI",
          "type": "string[]"
        }
      ],
      "name": "end",
      "outputs": [],
      "stateMutability": "nonpayable",
      "type": "function"
    },
    {
      "inputs": [],
      "name": "endAt",
      "outputs": [
        {
          "internalType": "uint256",
          "name": "",
          "type": "uint256"
        }
      ],
      "stateMutability": "view",
      "type": "function"
    },
    {
      "inputs": [],
      "name": "ended",
      "outputs": [
        {
          "internalType": "bool",
          "name": "",
          "type": "bool"
        }
      ],
      "stateMutability": "view",
      "type": "function"
    },
    {
      "inputs": [],
      "name": "floorBid",
      "outputs": [
        {
          "internalType": "uint256",
          "name": "",
          "type": "uint256"
        }
      ],
      "stateMutability": "view",
      "type": "function"
    },
    {
      "inputs": [
        {
          "internalType": "address",
          "name": "",
          "type": "address"
        }
      ],
      "name": "fundsByBidder",
      "outputs": [
        {
          "internalType": "uint256",
          "name": "",
          "type": "uint256"
        }
      ],
      "stateMutability": "view",
      "type": "function"
    },
    {
      "inputs": [],
      "name": "getBid",
      "outputs": [
        {
          "internalType": "uint256",
          "name": "",
          "type": "uint256"
        }
      ],
      "stateMutability": "view",
      "type": "function"
    },
    {
      "inputs": [],
      "name": "getCurrentItem",
      "outputs": [
        {
          "internalType": "uint256",
          "name": "",
          "type": "uint256"
        }
      ],
      "stateMutability": "view",
      "type": "function"
    },
    {
      "inputs": [],
      "name": "getEndAt",
      "outputs": [
        {
          "internalType": "uint256",
          "name": "",
          "type": "uint256"
        }
      ],
      "stateMutability": "view",
      "type": "function"
    },
    {
      "inputs": [],
      "name": "getHighestBid",
      "outputs": [
        {
          "internalType": "uint256",
          "name": "",
          "type": "uint256"
        }
      ],
      "stateMutability": "view",
      "type": "function"
    },
    {
      "inputs": [],
      "name": "getLowestBid",
      "outputs": [
        {
          "internalType": "uint256",
          "name": "",
          "type": "uint256"
        }
      ],
      "stateMutability": "view",
      "type": "function"
    },
    {
      "inputs": [
        {
          "internalType": "uint256",
          "name": "totalNFTs",
          "type": "uint256"
        }
      ],
      "name": "getTop",
      "outputs": [
        {
          "internalType": "address[]",
          "name": "",
          "type": "address[]"
        }
      ],
      "stateMutability": "view",
      "type": "function"
    },
    {
      "inputs": [],
      "name": "isStarted",
      "outputs": [
        {
          "internalType": "bool",
          "name": "",
          "type": "bool"
        }
      ],
      "stateMutability": "view",
      "type": "function"
    },
    {
      "inputs": [],
      "name": "listSize",
      "outputs": [
        {
          "internalType": "uint256",
          "name": "",
          "type": "uint256"
        }
      ],
      "stateMutability": "view",
      "type": "function"
    },
    {
      "inputs": [],
      "name": "nftyTunesFee",
      "outputs": [
        {
          "internalType": "uint256",
          "name": "",
          "type": "uint256"
        }
      ],
      "stateMutability": "view",
      "type": "function"
    },
    {
      "inputs": [],
      "name": "payeeFeeOne",
      "outputs": [
        {
          "internalType": "uint256",
          "name": "",
          "type": "uint256"
        }
      ],
      "stateMutability": "view",
      "type": "function"
    },
    {
      "inputs": [],
      "name": "payeeFeeTwo",
      "outputs": [
        {
          "internalType": "uint256",
          "name": "",
          "type": "uint256"
        }
      ],
      "stateMutability": "view",
      "type": "function"
    },
    {
      "inputs": [],
      "name": "payeeOne",
      "outputs": [
        {
          "internalType": "address payable",
          "name": "",
          "type": "address"
        }
      ],
      "stateMutability": "view",
      "type": "function"
    },
    {
      "inputs": [],
      "name": "payeeTwo",
      "outputs": [
        {
          "internalType": "address payable",
          "name": "",
          "type": "address"
        }
      ],
      "stateMutability": "view",
      "type": "function"
    },
    {
      "inputs": [],
      "name": "seller",
      "outputs": [
        {
          "internalType": "address payable",
          "name": "",
          "type": "address"
        }
      ],
      "stateMutability": "view",
      "type": "function"
    },
    {
      "inputs": [
        {
          "internalType": "uint256",
          "name": "timeOfAuction",
          "type": "uint256"
        },
        {
          "internalType": "uint256",
          "name": "startingBid",
          "type": "uint256"
        },
        {
          "internalType": "uint256",
          "name": "nftsToMint",
          "type": "uint256"
        }
      ],
      "name": "start",
      "outputs": [],
      "stateMutability": "nonpayable",
      "type": "function"
    },
    {
      "inputs": [],
      "name": "started",
      "outputs": [
        {
          "internalType": "bool",
          "name": "",
          "type": "bool"
        }
      ],
      "stateMutability": "view",
      "type": "function"
    },
    {
      "inputs": [],
      "name": "totalNFTs",
      "outputs": [
        {
          "internalType": "uint256",
          "name": "",
          "type": "uint256"
        }
      ],
      "stateMutability": "view",
      "type": "function"
    },
    {
      "inputs": [],
      "name": "withdraw",
      "outputs": [],
      "stateMutability": "payable",
      "type": "function"
    }
  ],
  "bytecode": "0x60806040523480156200001157600080fd5b5060405162003a2938038062003a29833981810160405281019062000037919062000192565b600160008190555033600260006101000a81548173ffffffffffffffffffffffffffffffffffffffff021916908373ffffffffffffffffffffffffffffffffffffffff16021790555084600360006101000a81548173ffffffffffffffffffffffffffffffffffffffff021916908373ffffffffffffffffffffffffffffffffffffffff16021790555083600460006101000a81548173ffffffffffffffffffffffffffffffffffffffff021916908373ffffffffffffffffffffffffffffffffffffffff16021790555082600581905550816006819055508060078190555085600a60006101000a81548173ffffffffffffffffffffffffffffffffffffffff021916908373ffffffffffffffffffffffffffffffffffffffff1602179055505050505050506200029a565b600081519050620001758162000266565b92915050565b6000815190506200018c8162000280565b92915050565b60008060008060008060c08789031215620001ac57600080fd5b6000620001bc89828a0162000164565b9650506020620001cf89828a0162000164565b9550506040620001e289828a0162000164565b9450506060620001f589828a016200017b565b93505060806200020889828a016200017b565b92505060a06200021b89828a016200017b565b9150509295509295509295565b600062000235826200023c565b9050919050565b600073ffffffffffffffffffffffffffffffffffffffff82169050919050565b6000819050919050565b620002718162000228565b81146200027d57600080fd5b50565b6200028b816200025c565b81146200029757600080fd5b50565b61377f80620002aa6000396000f3fe60806040526004361061014b5760003560e01c8063422701e8116100b65780637cc3ae8c1161006f5780637cc3ae8c1461042457806385b438341461044f5780638bbbe1af14610478578063972c5356146104a3578063b3bf19e3146104ce578063ce10cf80146104f95761014b565b8063422701e8146103245780634979440a1461034f578063544736e61461037a5780635e3660b5146103a5578063641ccd83146103d05780636f74a9ea146103f95761014b565b80631df6554f116101085780631df6554f146102315780631f2698ab1461025c5780632f5d93ce14610287578063354cc762146102b257806337caa8b6146102dd5780633ccfd60b1461031a5761014b565b806308551a5314610150578063099a019d1461017b5780630beeb529146101a65780630d0e96da146101d157806312fa6feb146101fc5780631998aeef14610227575b600080fd5b34801561015c57600080fd5b50610165610536565b6040516101729190612dbc565b60405180910390f35b34801561018757600080fd5b5061019061055c565b60405161019d9190613096565b60405180910390f35b3480156101b257600080fd5b506101bb6105a3565b6040516101c89190613096565b60405180910390f35b3480156101dd57600080fd5b506101e66105a9565b6040516101f39190613096565b60405180910390f35b34801561020857600080fd5b506102116105af565b60405161021e9190612e97565b60405180910390f35b61022f6105c2565b005b34801561023d57600080fd5b506102466109bb565b6040516102539190613096565b60405180910390f35b34801561026857600080fd5b50610271610a64565b60405161027e9190612e97565b60405180910390f35b34801561029357600080fd5b5061029c610a77565b6040516102a99190613096565b60405180910390f35b3480156102be57600080fd5b506102c7610a7d565b6040516102d49190613096565b60405180910390f35b3480156102e957600080fd5b5061030460048036038101906102ff91906129fc565b610a83565b6040516103119190612e45565b60405180910390f35b610322610c75565b005b34801561033057600080fd5b50610339610efb565b6040516103469190612dbc565b60405180910390f35b34801561035b57600080fd5b50610364610f21565b6040516103719190613096565b60405180910390f35b34801561038657600080fd5b5061038f610fb8565b60405161039c9190612e97565b60405180910390f35b3480156103b157600080fd5b506103ba610fe0565b6040516103c79190613096565b60405180910390f35b3480156103dc57600080fd5b506103f760048036038101906103f29190612a4e565b610fea565b005b34801561040557600080fd5b5061040e61126a565b60405161041b9190613096565b60405180910390f35b34801561043057600080fd5b5061043961131c565b6040516104469190613096565b60405180910390f35b34801561045b57600080fd5b50610476600480360381019061047191906129b7565b611322565b005b34801561048457600080fd5b5061048d611de0565b60405161049a9190613096565b60405180910390f35b3480156104af57600080fd5b506104b8611de6565b6040516104c59190613096565b60405180910390f35b3480156104da57600080fd5b506104e3611dec565b6040516104f09190612dbc565b60405180910390f35b34801561050557600080fd5b50610520600480360381019061051b9190612965565b611e12565b60405161052d9190613096565b60405180910390f35b600260009054906101000a900473ffffffffffffffffffffffffffffffffffffffff1681565b6000600d60003373ffffffffffffffffffffffffffffffffffffffff1673ffffffffffffffffffffffffffffffffffffffff16815260200190815260200160002054905090565b60055481565b600c5481565b600860019054906101000a900460ff1681565b600860009054906101000a900460ff16610611576040517f08c379a000000000000000000000000000000000000000000000000000000000815260040161060890612ff6565b60405180910390fd5b6009544210610655576040517f08c379a000000000000000000000000000000000000000000000000000000000815260040161064c90612f56565b60405180910390fd5b600b54600d60003373ffffffffffffffffffffffffffffffffffffffff1673ffffffffffffffffffffffffffffffffffffffff16815260200190815260200160002054346106a39190613186565b10156106e4576040517f08c379a00000000000000000000000000000000000000000000000000000000081526004016106db90613016565b60405180910390fd5b6000600f54600c541161074d576106fc600c54610a83565b6001600c5461070b9190613267565b81518110610742577f4e487b7100000000000000000000000000000000000000000000000000000000600052603260045260246000fd5b602002602001015190505b600073ffffffffffffffffffffffffffffffffffffffff168173ffffffffffffffffffffffffffffffffffffffff161461084d57600d60008273ffffffffffffffffffffffffffffffffffffffff1673ffffffffffffffffffffffffffffffffffffffff16815260200190815260200160002054600d60003373ffffffffffffffffffffffffffffffffffffffff1673ffffffffffffffffffffffffffffffffffffffff168152602001908152602001600020543461080c9190613186565b1161084c576040517f08c379a000000000000000000000000000000000000000000000000000000000815260040161084390612f36565b60405180910390fd5b5b600073ffffffffffffffffffffffffffffffffffffffff16600e60003373ffffffffffffffffffffffffffffffffffffffff1673ffffffffffffffffffffffffffffffffffffffff16815260200190815260200160002060009054906101000a900473ffffffffffffffffffffffffffffffffffffffff1673ffffffffffffffffffffffffffffffffffffffff1614156108f0576108eb3334611e2a565b6108fb565b6108fa33346120c1565b5b61012c4260095461090c9190613267565b10156109295761012c6009546109229190613186565b6009819055505b3373ffffffffffffffffffffffffffffffffffffffff167f19421268847f42dd61705778018ddfc43bcdce8517e7a630acb12f122c709481600d60003373ffffffffffffffffffffffffffffffffffffffff1673ffffffffffffffffffffffffffffffffffffffff16815260200190815260200160002054426040516109b09291906130b1565b60405180910390a250565b6000806109c9600c54610a83565b9050600081519050600d6000836001846109e39190613267565b81518110610a1a577f4e487b7100000000000000000000000000000000000000000000000000000000600052603260045260246000fd5b602002602001015173ffffffffffffffffffffffffffffffffffffffff1673ffffffffffffffffffffffffffffffffffffffff168152602001908152602001600020549250505090565b600860009054906101000a900460ff1681565b60065481565b60075481565b60606000600f54831115610a9b57600f549050610a9f565b8290505b60008167ffffffffffffffff811115610ae1577f4e487b7100000000000000000000000000000000000000000000000000000000600052604160045260246000fd5b604051908082528060200260200182016040528015610b0f5781602001602082028036833780820191505090505b5090506000600e6000600173ffffffffffffffffffffffffffffffffffffffff1673ffffffffffffffffffffffffffffffffffffffff16815260200190815260200160002060009054906101000a900473ffffffffffffffffffffffffffffffffffffffff16905060005b83811015610c695781838281518110610bbc577f4e487b7100000000000000000000000000000000000000000000000000000000600052603260045260246000fd5b602002602001019073ffffffffffffffffffffffffffffffffffffffff16908173ffffffffffffffffffffffffffffffffffffffff1681525050600e60008373ffffffffffffffffffffffffffffffffffffffff1673ffffffffffffffffffffffffffffffffffffffff16815260200190815260200160002060009054906101000a900473ffffffffffffffffffffffffffffffffffffffff16915080610c6290613364565b9050610b7a565b50819350505050919050565b60026000541415610cbb576040517f08c379a0000000000000000000000000000000000000000000000000000000008152600401610cb290613056565b60405180910390fd5b60026000819055506000610cd0600c54610a83565b905060005b600c54811015610da1573373ffffffffffffffffffffffffffffffffffffffff16828281518110610d2f577f4e487b7100000000000000000000000000000000000000000000000000000000600052603260045260246000fd5b602002602001015173ffffffffffffffffffffffffffffffffffffffff161415610d8e576040517f08c379a0000000000000000000000000000000000000000000000000000000008152600401610d8590612f76565b60405180910390fd5b8080610d9990613364565b915050610cd5565b506000600d60003373ffffffffffffffffffffffffffffffffffffffff1673ffffffffffffffffffffffffffffffffffffffff168152602001908152602001600020549050610def33612119565b6000803373ffffffffffffffffffffffffffffffffffffffff1683604051610e1690612da7565b60006040518083038185875af1925050503d8060008114610e53576040519150601f19603f3d011682016040523d82523d6000602084013e610e58565b606091505b509150915081610e9d576040517f08c379a0000000000000000000000000000000000000000000000000000000008152600401610e9490613076565b60405180910390fd5b3373ffffffffffffffffffffffffffffffffffffffff167ff279e6a1f5e320cca91135676d9cb6e44ca8a08c0b88342bcdb1144f6511b5688442604051610ee59291906130b1565b60405180910390a2505050506001600081905550565b600460009054906101000a900473ffffffffffffffffffffffffffffffffffffffff1681565b600080610f2f600c54610a83565b9050600d600082600081518110610f6f577f4e487b7100000000000000000000000000000000000000000000000000000000600052603260045260246000fd5b602002602001015173ffffffffffffffffffffffffffffffffffffffff1673ffffffffffffffffffffffffffffffffffffffff1681526020019081526020016000205491505090565b6000600860009054906101000a900460ff1615610fd85760019050610fdd565b600090505b90565b6000600954905090565b60026000541415611030576040517f08c379a000000000000000000000000000000000000000000000000000000000815260040161102790613056565b60405180910390fd5b6002600081905550600860009054906101000a900460ff1615611088576040517f08c379a000000000000000000000000000000000000000000000000000000000815260040161107f90612fd6565b60405180910390fd5b600260009054906101000a900473ffffffffffffffffffffffffffffffffffffffff1673ffffffffffffffffffffffffffffffffffffffff163373ffffffffffffffffffffffffffffffffffffffff1614611118576040517f08c379a000000000000000000000000000000000000000000000000000000000815260040161110f90612ef6565b60405180910390fd5b80600c819055506001600e6000600173ffffffffffffffffffffffffffffffffffffffff1673ffffffffffffffffffffffffffffffffffffffff16815260200190815260200160002060006101000a81548173ffffffffffffffffffffffffffffffffffffffff021916908373ffffffffffffffffffffffffffffffffffffffff1602179055506000600a60009054906101000a900473ffffffffffffffffffffffffffffffffffffffff1690506001600860006101000a81548160ff0219169083151502179055506000600860016101000a81548160ff021916908315150217905550603c84611209919061320d565b426112149190613186565b60098190555082600b819055507f5a7d5f50ab70a39d193bf53f0fb995377776df93bb6fdcf1cd1868b7e0dd44ee600b54426040516112549291906130b1565b60405180910390a1506001600081905550505050565b600080600a60009054906101000a900473ffffffffffffffffffffffffffffffffffffffff16905060008173ffffffffffffffffffffffffffffffffffffffff16636c1438626040518163ffffffff1660e01b815260040160206040518083038186803b1580156112da57600080fd5b505afa1580156112ee573d6000803e3d6000fd5b505050506040513d601f19601f820116820180604052508101906113129190612a25565b9050809250505090565b60095481565b60026000541415611368576040517f08c379a000000000000000000000000000000000000000000000000000000000815260040161135f90613056565b60405180910390fd5b6002600081905550600860009054906101000a900460ff166113bf576040517f08c379a00000000000000000000000000000000000000000000000000000000081526004016113b690612f96565b60405180910390fd5b600954421015611404576040517f08c379a00000000000000000000000000000000000000000000000000000000081526004016113fb90612f16565b60405180910390fd5b600860019054906101000a900460ff1615611454576040517f08c379a000000000000000000000000000000000000000000000000000000000815260040161144b90613036565b60405180910390fd5b600260009054906101000a900473ffffffffffffffffffffffffffffffffffffffff1673ffffffffffffffffffffffffffffffffffffffff163373ffffffffffffffffffffffffffffffffffffffff16146114e4576040517f08c379a00000000000000000000000000000000000000000000000000000000081526004016114db90612ed6565b60405180910390fd5b6000600c5490506114f5600161237c565b6000600a60009054906101000a900473ffffffffffffffffffffffffffffffffffffffff1690506001600860016101000a81548160ff0219169083151502179055506000600860006101000a81548160ff021916908315150217905550600061155d83610a83565b905060005b85859050811015611d9757600073ffffffffffffffffffffffffffffffffffffffff168282815181106115be577f4e487b7100000000000000000000000000000000000000000000000000000000600052603260045260246000fd5b602002602001015173ffffffffffffffffffffffffffffffffffffffff1614611b455760008373ffffffffffffffffffffffffffffffffffffffff1663d85d3d27888885818110611638577f4e487b7100000000000000000000000000000000000000000000000000000000600052603260045260246000fd5b905060200281019061164a91906130da565b6040518363ffffffff1660e01b8152600401611667929190612eb2565b602060405180830381600087803b15801561168157600080fd5b505af1158015611695573d6000803e3d6000fd5b505050506040513d601f19601f820116820180604052508101906116b99190612a25565b90506000600a60009054906101000a900473ffffffffffffffffffffffffffffffffffffffff1673ffffffffffffffffffffffffffffffffffffffff16636352211e836040518263ffffffff1660e01b81526004016117189190613096565b60206040518083038186803b15801561173057600080fd5b505afa158015611744573d6000803e3d6000fd5b505050506040513d601f19601f82011682018060405250810190611768919061298e565b9050600a60009054906101000a900473ffffffffffffffffffffffffffffffffffffffff1673ffffffffffffffffffffffffffffffffffffffff166323b872dd828686815181106117e2577f4e487b7100000000000000000000000000000000000000000000000000000000600052603260045260246000fd5b6020026020010151856040518463ffffffff1660e01b815260040161180993929190612e0e565b600060405180830381600087803b15801561182357600080fd5b505af1158015611837573d6000803e3d6000fd5b50505050600260009054906101000a900473ffffffffffffffffffffffffffffffffffffffff1673ffffffffffffffffffffffffffffffffffffffff166108fc6064600754600d60008989815181106118b9577f4e487b7100000000000000000000000000000000000000000000000000000000600052603260045260246000fd5b602002602001015173ffffffffffffffffffffffffffffffffffffffff1673ffffffffffffffffffffffffffffffffffffffff16815260200190815260200160002054611906919061320d565b61191091906131dc565b9081150290604051600060405180830381858888f1935050505015801561193b573d6000803e3d6000fd5b50600360009054906101000a900473ffffffffffffffffffffffffffffffffffffffff1673ffffffffffffffffffffffffffffffffffffffff166108fc6064600554600d60008989815181106119ba577f4e487b7100000000000000000000000000000000000000000000000000000000600052603260045260246000fd5b602002602001015173ffffffffffffffffffffffffffffffffffffffff1673ffffffffffffffffffffffffffffffffffffffff16815260200190815260200160002054611a07919061320d565b611a1191906131dc565b9081150290604051600060405180830381858888f19350505050158015611a3c573d6000803e3d6000fd5b50600460009054906101000a900473ffffffffffffffffffffffffffffffffffffffff1673ffffffffffffffffffffffffffffffffffffffff166108fc6064600654600d6000898981518110611abb577f4e487b7100000000000000000000000000000000000000000000000000000000600052603260045260246000fd5b602002602001015173ffffffffffffffffffffffffffffffffffffffff1673ffffffffffffffffffffffffffffffffffffffff16815260200190815260200160002054611b08919061320d565b611b1291906131dc565b9081150290604051600060405180830381858888f19350505050158015611b3d573d6000803e3d6000fd5b505050611d84565b60008373ffffffffffffffffffffffffffffffffffffffff1663d85d3d27888885818110611b9c577f4e487b7100000000000000000000000000000000000000000000000000000000600052603260045260246000fd5b9050602002810190611bae91906130da565b6040518363ffffffff1660e01b8152600401611bcb929190612eb2565b602060405180830381600087803b158015611be557600080fd5b505af1158015611bf9573d6000803e3d6000fd5b505050506040513d601f19601f82011682018060405250810190611c1d9190612a25565b90506000600a60009054906101000a900473ffffffffffffffffffffffffffffffffffffffff1673ffffffffffffffffffffffffffffffffffffffff16636352211e836040518263ffffffff1660e01b8152600401611c7c9190613096565b60206040518083038186803b158015611c9457600080fd5b505afa158015611ca8573d6000803e3d6000fd5b505050506040513d601f19601f82011682018060405250810190611ccc919061298e565b9050600a60009054906101000a900473ffffffffffffffffffffffffffffffffffffffff1673ffffffffffffffffffffffffffffffffffffffff166323b872dd82600260009054906101000a900473ffffffffffffffffffffffffffffffffffffffff16856040518463ffffffff1660e01b8152600401611d4f93929190612dd7565b600060405180830381600087803b158015611d6957600080fd5b505af1158015611d7d573d6000803e3d6000fd5b5050505050505b8080611d8f90613364565b915050611562565b507f363577b4cda9ff8b076214caf0c0f713f5bc7aeca065acb1d81f546e9a655c648142604051611dc9929190612e67565b60405180910390a150505060016000819055505050565b600b5481565b600f5481565b600360009054906101000a900473ffffffffffffffffffffffffffffffffffffffff1681565b600d6020528060005260406000206000915090505481565b600073ffffffffffffffffffffffffffffffffffffffff16600e60008473ffffffffffffffffffffffffffffffffffffffff1673ffffffffffffffffffffffffffffffffffffffff16815260200190815260200160002060009054906101000a900473ffffffffffffffffffffffffffffffffffffffff1673ffffffffffffffffffffffffffffffffffffffff1614611ef8576040517f08c379a0000000000000000000000000000000000000000000000000000000008152600401611eef90612fb6565b60405180910390fd5b6000611f0382612392565b905081600d60008573ffffffffffffffffffffffffffffffffffffffff1673ffffffffffffffffffffffffffffffffffffffff16815260200190815260200160002081905550600e60008273ffffffffffffffffffffffffffffffffffffffff1673ffffffffffffffffffffffffffffffffffffffff16815260200190815260200160002060009054906101000a900473ffffffffffffffffffffffffffffffffffffffff16600e60008573ffffffffffffffffffffffffffffffffffffffff1673ffffffffffffffffffffffffffffffffffffffff16815260200190815260200160002060006101000a81548173ffffffffffffffffffffffffffffffffffffffff021916908373ffffffffffffffffffffffffffffffffffffffff16021790555082600e60008373ffffffffffffffffffffffffffffffffffffffff1673ffffffffffffffffffffffffffffffffffffffff16815260200190815260200160002060006101000a81548173ffffffffffffffffffffffffffffffffffffffff021916908373ffffffffffffffffffffffffffffffffffffffff160217905550600f60008154809291906120b790613364565b9190505550505050565b6121158282600d60008673ffffffffffffffffffffffffffffffffffffffff1673ffffffffffffffffffffffffffffffffffffffff168152602001908152602001600020546121109190613186565b612487565b5050565b600073ffffffffffffffffffffffffffffffffffffffff16600e60008373ffffffffffffffffffffffffffffffffffffffff1673ffffffffffffffffffffffffffffffffffffffff16815260200190815260200160002060009054906101000a900473ffffffffffffffffffffffffffffffffffffffff1673ffffffffffffffffffffffffffffffffffffffff1614156121b257600080fd5b60006121bd82612604565b9050600e60008373ffffffffffffffffffffffffffffffffffffffff1673ffffffffffffffffffffffffffffffffffffffff16815260200190815260200160002060009054906101000a900473ffffffffffffffffffffffffffffffffffffffff16600e60008373ffffffffffffffffffffffffffffffffffffffff1673ffffffffffffffffffffffffffffffffffffffff16815260200190815260200160002060006101000a81548173ffffffffffffffffffffffffffffffffffffffff021916908373ffffffffffffffffffffffffffffffffffffffff1602179055506000600e60008473ffffffffffffffffffffffffffffffffffffffff1673ffffffffffffffffffffffffffffffffffffffff16815260200190815260200160002060006101000a81548173ffffffffffffffffffffffffffffffffffffffff021916908373ffffffffffffffffffffffffffffffffffffffff1602179055506000600d60008473ffffffffffffffffffffffffffffffffffffffff1673ffffffffffffffffffffffffffffffffffffffff16815260200190815260200160002081905550600f60008154809291906123739061333a565b91905055505050565b6001816000016000828254019250508190555050565b600080600190505b6001156124805761240b8184600e60008573ffffffffffffffffffffffffffffffffffffffff1673ffffffffffffffffffffffffffffffffffffffff16815260200190815260200160002060009054906101000a900473ffffffffffffffffffffffffffffffffffffffff16612729565b156124195780915050612482565b600e60008273ffffffffffffffffffffffffffffffffffffffff1673ffffffffffffffffffffffffffffffffffffffff16815260200190815260200160002060009054906101000a900473ffffffffffffffffffffffffffffffffffffffff16905061239a565b505b919050565b600073ffffffffffffffffffffffffffffffffffffffff16600e60008473ffffffffffffffffffffffffffffffffffffffff1673ffffffffffffffffffffffffffffffffffffffff16815260200190815260200160002060009054906101000a900473ffffffffffffffffffffffffffffffffffffffff1673ffffffffffffffffffffffffffffffffffffffff16141561252057600080fd5b600061252b83612604565b90506000600e60008573ffffffffffffffffffffffffffffffffffffffff1673ffffffffffffffffffffffffffffffffffffffff16815260200190815260200160002060009054906101000a900473ffffffffffffffffffffffffffffffffffffffff16905061259c828483612729565b156125ea5782600d60008673ffffffffffffffffffffffffffffffffffffffff1673ffffffffffffffffffffffffffffffffffffffff168152602001908152602001600020819055506125fe565b6125f384612119565b6125fd8484611e2a565b5b50505050565b600080600190505b600173ffffffffffffffffffffffffffffffffffffffff16600e60008373ffffffffffffffffffffffffffffffffffffffff1673ffffffffffffffffffffffffffffffffffffffff16815260200190815260200160002060009054906101000a900473ffffffffffffffffffffffffffffffffffffffff1673ffffffffffffffffffffffffffffffffffffffff161461271e576126a9838261282f565b156126b75780915050612724565b600e60008273ffffffffffffffffffffffffffffffffffffffff1673ffffffffffffffffffffffffffffffffffffffff16815260200190815260200160002060009054906101000a900473ffffffffffffffffffffffffffffffffffffffff16905061260c565b60009150505b919050565b6000600173ffffffffffffffffffffffffffffffffffffffff168473ffffffffffffffffffffffffffffffffffffffff1614806127a5575082600d60008673ffffffffffffffffffffffffffffffffffffffff1673ffffffffffffffffffffffffffffffffffffffff1681526020019081526020016000205410155b80156128265750600173ffffffffffffffffffffffffffffffffffffffff168273ffffffffffffffffffffffffffffffffffffffff1614806128255750600d60008373ffffffffffffffffffffffffffffffffffffffff1673ffffffffffffffffffffffffffffffffffffffff1681526020019081526020016000205483115b5b90509392505050565b60008273ffffffffffffffffffffffffffffffffffffffff16600e60008473ffffffffffffffffffffffffffffffffffffffff1673ffffffffffffffffffffffffffffffffffffffff16815260200190815260200160002060009054906101000a900473ffffffffffffffffffffffffffffffffffffffff1673ffffffffffffffffffffffffffffffffffffffff1614905092915050565b6000813590506128d68161371b565b92915050565b6000815190506128eb8161371b565b92915050565b60008083601f84011261290357600080fd5b8235905067ffffffffffffffff81111561291c57600080fd5b60208301915083602082028301111561293457600080fd5b9250929050565b60008135905061294a81613732565b92915050565b60008151905061295f81613732565b92915050565b60006020828403121561297757600080fd5b6000612985848285016128c7565b91505092915050565b6000602082840312156129a057600080fd5b60006129ae848285016128dc565b91505092915050565b600080602083850312156129ca57600080fd5b600083013567ffffffffffffffff8111156129e457600080fd5b6129f0858286016128f1565b92509250509250929050565b600060208284031215612a0e57600080fd5b6000612a1c8482850161293b565b91505092915050565b600060208284031215612a3757600080fd5b6000612a4584828501612950565b91505092915050565b600080600060608486031215612a6357600080fd5b6000612a718682870161293b565b9350506020612a828682870161293b565b9250506040612a938682870161293b565b9150509250925092565b6000612aa98383612ad3565b60208301905092915050565b612abe816132f5565b82525050565b612acd816132ad565b82525050565b612adc8161329b565b82525050565b612aeb8161329b565b82525050565b6000612afc82613141565b612b068185613159565b9350612b1183613131565b8060005b83811015612b42578151612b298882612a9d565b9750612b348361314c565b925050600181019050612b15565b5085935050505092915050565b612b58816132bf565b82525050565b6000612b6a8385613175565b9350612b7783858461332b565b612b808361340b565b840190509392505050565b6000612b98602383613175565b9150612ba38261341c565b604082019050919050565b6000612bbb601e83613175565b9150612bc68261346b565b602082019050919050565b6000612bde601983613175565b9150612be982613494565b602082019050919050565b6000612c01602a83613175565b9150612c0c826134bd565b604082019050919050565b6000612c24600683613175565b9150612c2f8261350c565b602082019050919050565b6000612c47602a83613175565b9150612c5282613535565b604082019050919050565b6000612c6a601f83613175565b9150612c7582613584565b602082019050919050565b6000612c8d602983613175565b9150612c98826135ad565b604082019050919050565b6000612cb0601083613175565b9150612cbb826135fc565b602082019050919050565b6000612cd3600c83613175565b9150612cde82613625565b602082019050919050565b6000612cf660008361316a565b9150612d018261364e565b600082019050919050565b6000612d19602683613175565b9150612d2482613651565b604082019050919050565b6000612d3c601683613175565b9150612d47826136a0565b602082019050919050565b6000612d5f601f83613175565b9150612d6a826136c9565b602082019050919050565b6000612d82601283613175565b9150612d8d826136f2565b602082019050919050565b612da1816132eb565b82525050565b6000612db282612ce9565b9150819050919050565b6000602082019050612dd16000830184612ac4565b92915050565b6000606082019050612dec6000830186612ae2565b612df96020830185612ab5565b612e066040830184612d98565b949350505050565b6000606082019050612e236000830186612ae2565b612e306020830185612ae2565b612e3d6040830184612d98565b949350505050565b60006020820190508181036000830152612e5f8184612af1565b905092915050565b60006040820190508181036000830152612e818185612af1565b9050612e906020830184612d98565b9392505050565b6000602082019050612eac6000830184612b4f565b92915050565b60006020820190508181036000830152612ecd818486612b5e565b90509392505050565b60006020820190508181036000830152612eef81612b8b565b9050919050565b60006020820190508181036000830152612f0f81612bae565b9050919050565b60006020820190508181036000830152612f2f81612bd1565b9050919050565b60006020820190508181036000830152612f4f81612bf4565b9050919050565b60006020820190508181036000830152612f6f81612c17565b9050919050565b60006020820190508181036000830152612f8f81612c3a565b9050919050565b60006020820190508181036000830152612faf81612c5d565b9050919050565b60006020820190508181036000830152612fcf81612c80565b9050919050565b60006020820190508181036000830152612fef81612ca3565b9050919050565b6000602082019050818103600083015261300f81612cc6565b9050919050565b6000602082019050818103600083015261302f81612d0c565b9050919050565b6000602082019050818103600083015261304f81612d2f565b9050919050565b6000602082019050818103600083015261306f81612d52565b9050919050565b6000602082019050818103600083015261308f81612d75565b9050919050565b60006020820190506130ab6000830184612d98565b92915050565b60006040820190506130c66000830185612d98565b6130d36020830184612d98565b9392505050565b600080833560016020038436030381126130f357600080fd5b80840192508235915067ffffffffffffffff82111561311157600080fd5b60208301925060018202360383131561312957600080fd5b509250929050565b6000819050602082019050919050565b600081519050919050565b6000602082019050919050565b600082825260208201905092915050565b600081905092915050565b600082825260208201905092915050565b6000613191826132eb565b915061319c836132eb565b9250827fffffffffffffffffffffffffffffffffffffffffffffffffffffffffffffffff038211156131d1576131d06133ad565b5b828201905092915050565b60006131e7826132eb565b91506131f2836132eb565b925082613202576132016133dc565b5b828204905092915050565b6000613218826132eb565b9150613223836132eb565b9250817fffffffffffffffffffffffffffffffffffffffffffffffffffffffffffffffff048311821515161561325c5761325b6133ad565b5b828202905092915050565b6000613272826132eb565b915061327d836132eb565b9250828210156132905761328f6133ad565b5b828203905092915050565b60006132a6826132cb565b9050919050565b60006132b8826132cb565b9050919050565b60008115159050919050565b600073ffffffffffffffffffffffffffffffffffffffff82169050919050565b6000819050919050565b600061330082613307565b9050919050565b600061331282613319565b9050919050565b6000613324826132cb565b9050919050565b82818337600083830152505050565b6000613345826132eb565b91506000821415613359576133586133ad565b5b600182039050919050565b600061336f826132eb565b91507fffffffffffffffffffffffffffffffffffffffffffffffffffffffffffffffff8214156133a2576133a16133ad565b5b600182019050919050565b7f4e487b7100000000000000000000000000000000000000000000000000000000600052601160045260246000fd5b7f4e487b7100000000000000000000000000000000000000000000000000000000600052601260045260246000fd5b6000601f19601f8301169050919050565b7f4f6e6c79207468652073656c6c65722063616e20656e6420746865206175637460008201527f696f6e0000000000000000000000000000000000000000000000000000000000602082015250565b7f596f7520617265206e6f742074686520636f6e7472616374206f776e65720000600082015250565b7f41756374696f6e206973207374696c6c206f6e676f696e672100000000000000600082015250565b7f4d75737420626964206d6f7265207468616e20746865206c617374206869676860008201527f6573742062696464657200000000000000000000000000000000000000000000602082015250565b7f456e646564210000000000000000000000000000000000000000000000000000600082015250565b7f57696e6e696e6720426964646572732063616e6e6f742077697468647261772060008201527f7468656972206269647300000000000000000000000000000000000000000000602082015250565b7f5468652041756374696f6e206861736e27742073746172746564207965742e00600082015250565b7f596f75206d75737420696e637265617365207468652062696420746f2061646460008201527f2061206269646465720000000000000000000000000000000000000000000000602082015250565b7f416c726561647920537461727465642100000000000000000000000000000000600082015250565b7f4e6f7420737461727465642e0000000000000000000000000000000000000000600082015250565b50565b7f4d7573742042696420486967686572207468616e206f7220657175616c20746f60008201527f20466c6f6f720000000000000000000000000000000000000000000000000000602082015250565b7f41756374696f6e20616c726561647920656e6465642100000000000000000000600082015250565b7f5265656e7472616e637947756172643a207265656e7472616e742063616c6c00600082015250565b7f436f756c64206e6f742077697468647261770000000000000000000000000000600082015250565b6137248161329b565b811461372f57600080fd5b50565b61373b816132eb565b811461374657600080fd5b5056fea264697066735822122047ed461c9653aa53e0e46a8d40b083794bb8f1fc1d304054b1e25988a8e4617b64736f6c63430008040033",
  "linkReferences": {},
  "deployedLinkReferences": {}
}