{
  "_format": "hh-sol-artifact-1",
  "contractName": "LazyFactory",
  "sourceName": "contracts/LazyFactory.sol",
  "abi": [
    {
      "inputs": [
        {
          "internalType": "address payable",
          "name": "marketplaceAddress",
          "type": "address"
        },
        {
          "internalType": "string",
          "name": "name",
          "type": "string"
        },
        {
          "internalType": "string",
          "name": "symbol",
          "type": "string"
        },
        {
          "internalType": "address payable",
          "name": "artist",
          "type": "address"
        }
      ],
      "stateMutability": "nonpayable",
      "type": "constructor"
    },
    {
      "anonymous": false,
      "inputs": [
        {
          "indexed": true,
          "internalType": "address",
          "name": "owner",
          "type": "address"
        },
        {
          "indexed": true,
          "internalType": "address",
          "name": "approved",
          "type": "address"
        },
        {
          "indexed": true,
          "internalType": "uint256",
          "name": "tokenId",
          "type": "uint256"
        }
      ],
      "name": "Approval",
      "type": "event"
    },
    {
      "anonymous": false,
      "inputs": [
        {
          "indexed": true,
          "internalType": "address",
          "name": "owner",
          "type": "address"
        },
        {
          "indexed": true,
          "internalType": "address",
          "name": "operator",
          "type": "address"
        },
        {
          "indexed": false,
          "internalType": "bool",
          "name": "approved",
          "type": "bool"
        }
      ],
      "name": "ApprovalForAll",
      "type": "event"
    },
    {
      "anonymous": false,
      "inputs": [
        {
          "indexed": true,
          "internalType": "uint256",
          "name": "tokenId",
          "type": "uint256"
        }
      ],
      "name": "RedeemedAndMinted",
      "type": "event"
    },
    {
      "anonymous": false,
      "inputs": [
        {
          "indexed": true,
          "internalType": "bytes32",
          "name": "role",
          "type": "bytes32"
        },
        {
          "indexed": true,
          "internalType": "bytes32",
          "name": "previousAdminRole",
          "type": "bytes32"
        },
        {
          "indexed": true,
          "internalType": "bytes32",
          "name": "newAdminRole",
          "type": "bytes32"
        }
      ],
      "name": "RoleAdminChanged",
      "type": "event"
    },
    {
      "anonymous": false,
      "inputs": [
        {
          "indexed": true,
          "internalType": "bytes32",
          "name": "role",
          "type": "bytes32"
        },
        {
          "indexed": true,
          "internalType": "address",
          "name": "account",
          "type": "address"
        },
        {
          "indexed": true,
          "internalType": "address",
          "name": "sender",
          "type": "address"
        }
      ],
      "name": "RoleGranted",
      "type": "event"
    },
    {
      "anonymous": false,
      "inputs": [
        {
          "indexed": true,
          "internalType": "bytes32",
          "name": "role",
          "type": "bytes32"
        },
        {
          "indexed": true,
          "internalType": "address",
          "name": "account",
          "type": "address"
        },
        {
          "indexed": true,
          "internalType": "address",
          "name": "sender",
          "type": "address"
        }
      ],
      "name": "RoleRevoked",
      "type": "event"
    },
    {
      "anonymous": false,
      "inputs": [
        {
          "indexed": true,
          "internalType": "address",
          "name": "from",
          "type": "address"
        },
        {
          "indexed": true,
          "internalType": "address",
          "name": "to",
          "type": "address"
        },
        {
          "indexed": true,
          "internalType": "uint256",
          "name": "tokenId",
          "type": "uint256"
        }
      ],
      "name": "Transfer",
      "type": "event"
    },
    {
      "inputs": [],
      "name": "DEFAULT_ADMIN_ROLE",
      "outputs": [
        {
          "internalType": "bytes32",
          "name": "",
          "type": "bytes32"
        }
      ],
      "stateMutability": "view",
      "type": "function"
    },
    {
      "inputs": [],
      "name": "SIGNER_ROLE",
      "outputs": [
        {
          "internalType": "bytes32",
          "name": "",
          "type": "bytes32"
        }
      ],
      "stateMutability": "view",
      "type": "function"
    },
    {
      "inputs": [
        {
          "internalType": "address",
          "name": "to",
          "type": "address"
        },
        {
          "internalType": "uint256",
          "name": "tokenId",
          "type": "uint256"
        }
      ],
      "name": "approve",
      "outputs": [],
      "stateMutability": "nonpayable",
      "type": "function"
    },
    {
      "inputs": [
        {
          "internalType": "address",
          "name": "owner",
          "type": "address"
        }
      ],
      "name": "balanceOf",
      "outputs": [
        {
          "internalType": "uint256",
          "name": "",
          "type": "uint256"
        }
      ],
      "stateMutability": "view",
      "type": "function"
    },
    {
      "inputs": [
        {
          "internalType": "uint256",
          "name": "tokenId",
          "type": "uint256"
        }
      ],
      "name": "getApproved",
      "outputs": [
        {
          "internalType": "address",
          "name": "",
          "type": "address"
        }
      ],
      "stateMutability": "view",
      "type": "function"
    },
    {
      "inputs": [],
      "name": "getChainID",
      "outputs": [
        {
          "internalType": "uint256",
          "name": "",
          "type": "uint256"
        }
      ],
      "stateMutability": "view",
      "type": "function"
    },
    {
      "inputs": [
        {
          "internalType": "bytes32",
          "name": "role",
          "type": "bytes32"
        }
      ],
      "name": "getRoleAdmin",
      "outputs": [
        {
          "internalType": "bytes32",
          "name": "",
          "type": "bytes32"
        }
      ],
      "stateMutability": "view",
      "type": "function"
    },
    {
      "inputs": [
        {
          "internalType": "bytes32",
          "name": "role",
          "type": "bytes32"
        },
        {
          "internalType": "address",
          "name": "account",
          "type": "address"
        }
      ],
      "name": "grantRole",
      "outputs": [],
      "stateMutability": "nonpayable",
      "type": "function"
    },
    {
      "inputs": [
        {
          "internalType": "bytes32",
          "name": "role",
          "type": "bytes32"
        },
        {
          "internalType": "address",
          "name": "account",
          "type": "address"
        }
      ],
      "name": "hasRole",
      "outputs": [
        {
          "internalType": "bool",
          "name": "",
          "type": "bool"
        }
      ],
      "stateMutability": "view",
      "type": "function"
    },
    {
      "inputs": [
        {
          "internalType": "address",
          "name": "owner",
          "type": "address"
        },
        {
          "internalType": "address",
          "name": "operator",
          "type": "address"
        }
      ],
      "name": "isApprovedForAll",
      "outputs": [
        {
          "internalType": "bool",
          "name": "",
          "type": "bool"
        }
      ],
      "stateMutability": "view",
      "type": "function"
    },
    {
      "inputs": [],
      "name": "name",
      "outputs": [
        {
          "internalType": "string",
          "name": "",
          "type": "string"
        }
      ],
      "stateMutability": "view",
      "type": "function"
    },
    {
      "inputs": [
        {
          "internalType": "uint256",
          "name": "tokenId",
          "type": "uint256"
        }
      ],
      "name": "ownerOf",
      "outputs": [
        {
          "internalType": "address",
          "name": "",
          "type": "address"
        }
      ],
      "stateMutability": "view",
      "type": "function"
    },
    {
      "inputs": [
        {
          "internalType": "address",
          "name": "buyer",
          "type": "address"
        },
        {
          "components": [
            {
              "internalType": "string",
              "name": "title",
              "type": "string"
            },
            {
              "internalType": "uint256",
              "name": "artworkId",
              "type": "uint256"
            },
            {
              "internalType": "string",
              "name": "edition",
              "type": "string"
            },
            {
              "internalType": "uint256",
              "name": "priceWei",
              "type": "uint256"
            },
            {
              "internalType": "string",
              "name": "tokenUri",
              "type": "string"
            },
            {
              "internalType": "string",
              "name": "content",
              "type": "string"
            },
            {
              "internalType": "bytes",
              "name": "signature",
              "type": "bytes"
            }
          ],
          "internalType": "struct LazyFactory.Voucher",
          "name": "voucher",
          "type": "tuple"
        },
        {
          "internalType": "uint256",
          "name": "nftyFee",
          "type": "uint256"
        }
      ],
      "name": "redeem",
      "outputs": [],
      "stateMutability": "payable",
      "type": "function"
    },
    {
      "inputs": [
        {
          "internalType": "bytes32",
          "name": "role",
          "type": "bytes32"
        },
        {
          "internalType": "address",
          "name": "account",
          "type": "address"
        }
      ],
      "name": "renounceRole",
      "outputs": [],
      "stateMutability": "nonpayable",
      "type": "function"
    },
    {
      "inputs": [
        {
          "internalType": "bytes32",
          "name": "role",
          "type": "bytes32"
        },
        {
          "internalType": "address",
          "name": "account",
          "type": "address"
        }
      ],
      "name": "revokeRole",
      "outputs": [],
      "stateMutability": "nonpayable",
      "type": "function"
    },
    {
      "inputs": [
        {
          "internalType": "address",
          "name": "from",
          "type": "address"
        },
        {
          "internalType": "address",
          "name": "to",
          "type": "address"
        },
        {
          "internalType": "uint256",
          "name": "tokenId",
          "type": "uint256"
        }
      ],
      "name": "safeTransferFrom",
      "outputs": [],
      "stateMutability": "nonpayable",
      "type": "function"
    },
    {
      "inputs": [
        {
          "internalType": "address",
          "name": "from",
          "type": "address"
        },
        {
          "internalType": "address",
          "name": "to",
          "type": "address"
        },
        {
          "internalType": "uint256",
          "name": "tokenId",
          "type": "uint256"
        },
        {
          "internalType": "bytes",
          "name": "_data",
          "type": "bytes"
        }
      ],
      "name": "safeTransferFrom",
      "outputs": [],
      "stateMutability": "nonpayable",
      "type": "function"
    },
    {
      "inputs": [
        {
          "internalType": "address",
          "name": "operator",
          "type": "address"
        },
        {
          "internalType": "bool",
          "name": "approved",
          "type": "bool"
        }
      ],
      "name": "setApprovalForAll",
      "outputs": [],
      "stateMutability": "nonpayable",
      "type": "function"
    },
    {
      "inputs": [
        {
          "internalType": "bytes4",
          "name": "interfaceId",
          "type": "bytes4"
        }
      ],
      "name": "supportsInterface",
      "outputs": [
        {
          "internalType": "bool",
          "name": "",
          "type": "bool"
        }
      ],
      "stateMutability": "view",
      "type": "function"
    },
    {
      "inputs": [],
      "name": "symbol",
      "outputs": [
        {
          "internalType": "string",
          "name": "",
          "type": "string"
        }
      ],
      "stateMutability": "view",
      "type": "function"
    },
    {
      "inputs": [
        {
          "internalType": "uint256",
          "name": "tokenId",
          "type": "uint256"
        }
      ],
      "name": "tokenURI",
      "outputs": [
        {
          "internalType": "string",
          "name": "",
          "type": "string"
        }
      ],
      "stateMutability": "view",
      "type": "function"
    },
    {
      "inputs": [
        {
          "internalType": "address",
          "name": "from",
          "type": "address"
        },
        {
          "internalType": "address",
          "name": "to",
          "type": "address"
        },
        {
          "internalType": "uint256",
          "name": "tokenId",
          "type": "uint256"
        }
      ],
      "name": "transferFrom",
      "outputs": [],
      "stateMutability": "nonpayable",
      "type": "function"
    }
  ],
  "bytecode": "0x6101406040523480156200001257600080fd5b5060405162005313380380620053138339818101604052810190620000389190620005af565b6040518060400160405280600481526020017f4e465459000000000000000000000000000000000000000000000000000000008152506040518060400160405280600181526020017f31000000000000000000000000000000000000000000000000000000000000008152506040518060400160405280601081526020017f4e66747954756e657320546f6b656e73000000000000000000000000000000008152506040518060400160405280600481526020017f4e4654590000000000000000000000000000000000000000000000000000000081525081600090805190602001906200012892919062000476565b5080600190805190602001906200014192919062000476565b50505060008280519060200120905060008280519060200120905060007f8b73c3c69bb8fe3d512ecc4cf759cc79239f7b179b0ffacaa9a75d522b39400f90508260e081815250508161010081815250504660a08181525050620001ad818484620002bf60201b60201c565b608081815250503073ffffffffffffffffffffffffffffffffffffffff1660c08173ffffffffffffffffffffffffffffffffffffffff1660601b8152505080610120818152505050505050506001600881905550620002337fe2f4eaae4a9751e85a3e4a7b9587827a877f29914755229b07a7b2da98285f7082620002fb60201b60201c565b83600960006101000a81548173ffffffffffffffffffffffffffffffffffffffff021916908373ffffffffffffffffffffffffffffffffffffffff16021790555080600a60006101000a81548173ffffffffffffffffffffffffffffffffffffffff021916908373ffffffffffffffffffffffffffffffffffffffff16021790555050505050620008c3565b60008383834630604051602001620002dc95949392919062000680565b6040516020818303038152906040528051906020012090509392505050565b6200030d82826200031160201b60201c565b5050565b6200032382826200040360201b60201c565b620003ff5760016007600084815260200190815260200160002060000160008373ffffffffffffffffffffffffffffffffffffffff1673ffffffffffffffffffffffffffffffffffffffff16815260200190815260200160002060006101000a81548160ff021916908315150217905550620003a46200046e60201b60201c565b73ffffffffffffffffffffffffffffffffffffffff168173ffffffffffffffffffffffffffffffffffffffff16837f2f8788117e7eff1d82e926ec794901d17c78024a50270940304540a733656f0d60405160405180910390a45b5050565b60006007600084815260200190815260200160002060000160008373ffffffffffffffffffffffffffffffffffffffff1673ffffffffffffffffffffffffffffffffffffffff16815260200190815260200160002060009054906101000a900460ff16905092915050565b600033905090565b8280546200048490620007ce565b90600052602060002090601f016020900481019282620004a85760008555620004f4565b82601f10620004c357805160ff1916838001178555620004f4565b82800160010185558215620004f4579182015b82811115620004f3578251825591602001919060010190620004d6565b5b50905062000503919062000507565b5090565b5b808211156200052257600081600090555060010162000508565b5090565b60006200053d620005378462000706565b620006dd565b9050828152602081018484840111156200055657600080fd5b6200056384828562000798565b509392505050565b6000815190506200057c81620008a9565b92915050565b600082601f8301126200059457600080fd5b8151620005a684826020860162000526565b91505092915050565b60008060008060808587031215620005c657600080fd5b6000620005d6878288016200056b565b945050602085015167ffffffffffffffff811115620005f457600080fd5b620006028782880162000582565b935050604085015167ffffffffffffffff8111156200062057600080fd5b6200062e8782880162000582565b925050606062000641878288016200056b565b91505092959194509250565b62000658816200073c565b82525050565b620006698162000764565b82525050565b6200067a816200078e565b82525050565b600060a0820190506200069760008301886200065e565b620006a660208301876200065e565b620006b560408301866200065e565b620006c460608301856200066f565b620006d360808301846200064d565b9695505050505050565b6000620006e9620006fc565b9050620006f7828262000804565b919050565b6000604051905090565b600067ffffffffffffffff82111562000724576200072362000869565b5b6200072f8262000898565b9050602081019050919050565b600062000749826200076e565b9050919050565b60006200075d826200076e565b9050919050565b6000819050919050565b600073ffffffffffffffffffffffffffffffffffffffff82169050919050565b6000819050919050565b60005b83811015620007b85780820151818401526020810190506200079b565b83811115620007c8576000848401525b50505050565b60006002820490506001821680620007e757607f821691505b60208210811415620007fe57620007fd6200083a565b5b50919050565b6200080f8262000898565b810181811067ffffffffffffffff8211171562000831576200083062000869565b5b80604052505050565b7f4e487b7100000000000000000000000000000000000000000000000000000000600052602260045260246000fd5b7f4e487b7100000000000000000000000000000000000000000000000000000000600052604160045260246000fd5b6000601f19601f8301169050919050565b620008b48162000750565b8114620008c057600080fd5b50565b60805160a05160c05160601c60e05161010051610120516149fd620009166000396000612b5001526000612b9201526000612b7101526000612aa601526000612afc01526000612b2501526149fd6000f3fe6080604052600436106101355760003560e01c806370a08231116100ab578063a22cb4651161006f578063a22cb4651461044c578063b88d4fde14610475578063c87b56dd1461049e578063d547741f146104db578063e57a579214610504578063e985e9c51461052057610135565b806370a082311461035157806391d148541461038e57806395d89b41146103cb578063a1ebf35d146103f6578063a217fddf1461042157610135565b8063248a9ca3116100fd578063248a9ca3146102315780632f2ff15d1461026e57806336568abe1461029757806342842e0e146102c0578063564b81ef146102e95780636352211e1461031457610135565b806301ffc9a71461013a57806306fdde0314610177578063081812fc146101a2578063095ea7b3146101df57806323b872dd14610208575b600080fd5b34801561014657600080fd5b50610161600480360381019061015c91906131ac565b61055d565b60405161016e919061385d565b60405180910390f35b34801561018357600080fd5b5061018c61057f565b604051610199919061399a565b60405180910390f35b3480156101ae57600080fd5b506101c960048036038101906101c491906131fe565b610611565b6040516101d691906137f6565b60405180910390f35b3480156101eb57600080fd5b506102066004803603810190610201919061310b565b610696565b005b34801561021457600080fd5b5061022f600480360381019061022a9190612f9e565b6107ae565b005b34801561023d57600080fd5b5061025860048036038101906102539190613147565b61080e565b6040516102659190613878565b60405180910390f35b34801561027a57600080fd5b5061029560048036038101906102909190613170565b61082e565b005b3480156102a357600080fd5b506102be60048036038101906102b99190613170565b610857565b005b3480156102cc57600080fd5b506102e760048036038101906102e29190612f9e565b6108da565b005b3480156102f557600080fd5b506102fe6108fa565b60405161030b9190613cfc565b60405180910390f35b34801561032057600080fd5b5061033b600480360381019061033691906131fe565b610907565b60405161034891906137f6565b60405180910390f35b34801561035d57600080fd5b5061037860048036038101906103739190612f39565b6109b9565b6040516103859190613cfc565b60405180910390f35b34801561039a57600080fd5b506103b560048036038101906103b09190613170565b610a71565b6040516103c2919061385d565b60405180910390f35b3480156103d757600080fd5b506103e0610adc565b6040516103ed919061399a565b60405180910390f35b34801561040257600080fd5b5061040b610b6e565b6040516104189190613878565b60405180910390f35b34801561042d57600080fd5b50610436610b92565b6040516104439190613878565b60405180910390f35b34801561045857600080fd5b50610473600480360381019061046e9190613068565b610b99565b005b34801561048157600080fd5b5061049c60048036038101906104979190612fed565b610baf565b005b3480156104aa57600080fd5b506104c560048036038101906104c091906131fe565b610c11565b6040516104d2919061399a565b60405180910390f35b3480156104e757600080fd5b5061050260048036038101906104fd9190613170565b610d63565b005b61051e600480360381019061051991906130a4565b610d8c565b005b34801561052c57600080fd5b5061054760048036038101906105429190612f62565b6110af565b604051610554919061385d565b60405180910390f35b600061056882611143565b80610578575061057782611225565b5b9050919050565b60606000805461058e90614075565b80601f01602080910402602001604051908101604052809291908181526020018280546105ba90614075565b80156106075780601f106105dc57610100808354040283529160200191610607565b820191906000526020600020905b8154815290600101906020018083116105ea57829003601f168201915b5050505050905090565b600061061c8261129f565b61065b576040517f08c379a000000000000000000000000000000000000000000000000000000000815260040161065290613bfc565b60405180910390fd5b6004600083815260200190815260200160002060009054906101000a900473ffffffffffffffffffffffffffffffffffffffff169050919050565b60006106a182610907565b90508073ffffffffffffffffffffffffffffffffffffffff168373ffffffffffffffffffffffffffffffffffffffff161415610712576040517f08c379a000000000000000000000000000000000000000000000000000000000815260040161070990613c5c565b60405180910390fd5b8073ffffffffffffffffffffffffffffffffffffffff1661073161130b565b73ffffffffffffffffffffffffffffffffffffffff161480610760575061075f8161075a61130b565b6110af565b5b61079f576040517f08c379a000000000000000000000000000000000000000000000000000000000815260040161079690613afc565b60405180910390fd5b6107a98383611313565b505050565b6107bf6107b961130b565b826113cc565b6107fe576040517f08c379a00000000000000000000000000000000000000000000000000000000081526004016107f590613c9c565b60405180910390fd5b6108098383836114aa565b505050565b600060076000838152602001908152602001600020600101549050919050565b6108378261080e565b6108488161084361130b565b611711565b61085283836117ae565b505050565b61085f61130b565b73ffffffffffffffffffffffffffffffffffffffff168173ffffffffffffffffffffffffffffffffffffffff16146108cc576040517f08c379a00000000000000000000000000000000000000000000000000000000081526004016108c390613cdc565b60405180910390fd5b6108d6828261188f565b5050565b6108f583838360405180602001604052806000815250610baf565b505050565b6000804690508091505090565b6000806002600084815260200190815260200160002060009054906101000a900473ffffffffffffffffffffffffffffffffffffffff169050600073ffffffffffffffffffffffffffffffffffffffff168173ffffffffffffffffffffffffffffffffffffffff1614156109b0576040517f08c379a00000000000000000000000000000000000000000000000000000000081526004016109a790613b3c565b60405180910390fd5b80915050919050565b60008073ffffffffffffffffffffffffffffffffffffffff168273ffffffffffffffffffffffffffffffffffffffff161415610a2a576040517f08c379a0000000000000000000000000000000000000000000000000000000008152600401610a2190613b1c565b60405180910390fd5b600360008373ffffffffffffffffffffffffffffffffffffffff1673ffffffffffffffffffffffffffffffffffffffff168152602001908152602001600020549050919050565b60006007600084815260200190815260200160002060000160008373ffffffffffffffffffffffffffffffffffffffff1673ffffffffffffffffffffffffffffffffffffffff16815260200190815260200160002060009054906101000a900460ff16905092915050565b606060018054610aeb90614075565b80601f0160208091040260200160405190810160405280929190818152602001828054610b1790614075565b8015610b645780601f10610b3957610100808354040283529160200191610b64565b820191906000526020600020905b815481529060010190602001808311610b4757829003601f168201915b5050505050905090565b7fe2f4eaae4a9751e85a3e4a7b9587827a877f29914755229b07a7b2da98285f7081565b6000801b81565b610bab610ba461130b565b8383611971565b5050565b610bc0610bba61130b565b836113cc565b610bff576040517f08c379a0000000000000000000000000000000000000000000000000000000008152600401610bf690613c9c565b60405180910390fd5b610c0b84848484611ade565b50505050565b6060610c1c8261129f565b610c5b576040517f08c379a0000000000000000000000000000000000000000000000000000000008152600401610c5290613bdc565b60405180910390fd5b6000600660008481526020019081526020016000208054610c7b90614075565b80601f0160208091040260200160405190810160405280929190818152602001828054610ca790614075565b8015610cf45780601f10610cc957610100808354040283529160200191610cf4565b820191906000526020600020905b815481529060010190602001808311610cd757829003601f168201915b505050505090506000610d05611b3a565b9050600081511415610d1b578192505050610d5e565b600082511115610d50578082604051602001610d38929190613761565b60405160208183030381529060405292505050610d5e565b610d5984611b51565b925050505b919050565b610d6c8261080e565b610d7d81610d7861130b565b611711565b610d87838361188f565b505050565b60026008541415610dd2576040517f08c379a0000000000000000000000000000000000000000000000000000000008152600401610dc990613cbc565b60405180910390fd5b60026008819055506000610de583611bf8565b905082606001353414610e2d576040517f08c379a0000000000000000000000000000000000000000000000000000000008152600401610e2490613c7c565b60405180910390fd5b8373ffffffffffffffffffffffffffffffffffffffff168173ffffffffffffffffffffffffffffffffffffffff161415610e9c576040517f08c379a0000000000000000000000000000000000000000000000000000000008152600401610e9390613b7c565b60405180910390fd5b610ec67fe2f4eaae4a9751e85a3e4a7b9587827a877f29914755229b07a7b2da98285f7082610a71565b610f05576040517f08c379a0000000000000000000000000000000000000000000000000000000008152600401610efc90613c1c565b60405180910390fd5b610f13818460200135611c6a565b610f738360200135848060800190610f2b9190613d6e565b8080601f016020809104026020016040519081016040528093929190818152602001838380828437600081840152601f19601f82011690508083019250505050505050611e44565b610fa0600960009054906101000a900473ffffffffffffffffffffffffffffffffffffffff166001610b99565b610faf818585602001356114aa565b60003490508173ffffffffffffffffffffffffffffffffffffffff166108fc8483610fda9190613f4a565b9081150290604051600060405180830381858888f19350505050158015611005573d6000803e3d6000fd5b50600960009054906101000a900473ffffffffffffffffffffffffffffffffffffffff1673ffffffffffffffffffffffffffffffffffffffff166108fc849081150290604051600060405180830381858888f1935050505015801561106e573d6000803e3d6000fd5b5083602001357fe925326602e433d1e45b5c79b4ff305e4a75ea3a9c63be961abb9e36bd29b47c60405160405180910390a250506001600881905550505050565b6000600560008473ffffffffffffffffffffffffffffffffffffffff1673ffffffffffffffffffffffffffffffffffffffff16815260200190815260200160002060008373ffffffffffffffffffffffffffffffffffffffff1673ffffffffffffffffffffffffffffffffffffffff16815260200190815260200160002060009054906101000a900460ff16905092915050565b60007f80ac58cd000000000000000000000000000000000000000000000000000000007bffffffffffffffffffffffffffffffffffffffffffffffffffffffff1916827bffffffffffffffffffffffffffffffffffffffffffffffffffffffff1916148061120e57507f5b5e139f000000000000000000000000000000000000000000000000000000007bffffffffffffffffffffffffffffffffffffffffffffffffffffffff1916827bffffffffffffffffffffffffffffffffffffffffffffffffffffffff1916145b8061121e575061121d82611eb8565b5b9050919050565b60007f7965db0b000000000000000000000000000000000000000000000000000000007bffffffffffffffffffffffffffffffffffffffffffffffffffffffff1916827bffffffffffffffffffffffffffffffffffffffffffffffffffffffff19161480611298575061129782611143565b5b9050919050565b60008073ffffffffffffffffffffffffffffffffffffffff166002600084815260200190815260200160002060009054906101000a900473ffffffffffffffffffffffffffffffffffffffff1673ffffffffffffffffffffffffffffffffffffffff1614159050919050565b600033905090565b816004600083815260200190815260200160002060006101000a81548173ffffffffffffffffffffffffffffffffffffffff021916908373ffffffffffffffffffffffffffffffffffffffff160217905550808273ffffffffffffffffffffffffffffffffffffffff1661138683610907565b73ffffffffffffffffffffffffffffffffffffffff167f8c5be1e5ebec7d5bd14f71427d1e84f3dd0314c0f7b2291e5b200ac8c7c3b92560405160405180910390a45050565b60006113d78261129f565b611416576040517f08c379a000000000000000000000000000000000000000000000000000000000815260040161140d90613adc565b60405180910390fd5b600061142183610907565b90508073ffffffffffffffffffffffffffffffffffffffff168473ffffffffffffffffffffffffffffffffffffffff16148061149057508373ffffffffffffffffffffffffffffffffffffffff1661147884610611565b73ffffffffffffffffffffffffffffffffffffffff16145b806114a157506114a081856110af565b5b91505092915050565b8273ffffffffffffffffffffffffffffffffffffffff166114ca82610907565b73ffffffffffffffffffffffffffffffffffffffff1614611520576040517f08c379a000000000000000000000000000000000000000000000000000000000815260040161151790613a3c565b60405180910390fd5b600073ffffffffffffffffffffffffffffffffffffffff168273ffffffffffffffffffffffffffffffffffffffff161415611590576040517f08c379a000000000000000000000000000000000000000000000000000000000815260040161158790613a7c565b60405180910390fd5b61159b838383611f22565b6115a6600082611313565b6001600360008573ffffffffffffffffffffffffffffffffffffffff1673ffffffffffffffffffffffffffffffffffffffff16815260200190815260200160002060008282546115f69190613f4a565b925050819055506001600360008473ffffffffffffffffffffffffffffffffffffffff1673ffffffffffffffffffffffffffffffffffffffff168152602001908152602001600020600082825461164d9190613e69565b92505081905550816002600083815260200190815260200160002060006101000a81548173ffffffffffffffffffffffffffffffffffffffff021916908373ffffffffffffffffffffffffffffffffffffffff160217905550808273ffffffffffffffffffffffffffffffffffffffff168473ffffffffffffffffffffffffffffffffffffffff167fddf252ad1be2c89b69c2b068fc378daa952ba7f163c4a11628f55a4df523b3ef60405160405180910390a461170c838383611f27565b505050565b61171b8282610a71565b6117aa576117408173ffffffffffffffffffffffffffffffffffffffff166014611f2c565b61174e8360001c6020611f2c565b60405160200161175f9291906137bc565b6040516020818303038152906040526040517f08c379a00000000000000000000000000000000000000000000000000000000081526004016117a1919061399a565b60405180910390fd5b5050565b6117b88282610a71565b61188b5760016007600084815260200190815260200160002060000160008373ffffffffffffffffffffffffffffffffffffffff1673ffffffffffffffffffffffffffffffffffffffff16815260200190815260200160002060006101000a81548160ff02191690831515021790555061183061130b565b73ffffffffffffffffffffffffffffffffffffffff168173ffffffffffffffffffffffffffffffffffffffff16837f2f8788117e7eff1d82e926ec794901d17c78024a50270940304540a733656f0d60405160405180910390a45b5050565b6118998282610a71565b1561196d5760006007600084815260200190815260200160002060000160008373ffffffffffffffffffffffffffffffffffffffff1673ffffffffffffffffffffffffffffffffffffffff16815260200190815260200160002060006101000a81548160ff02191690831515021790555061191261130b565b73ffffffffffffffffffffffffffffffffffffffff168173ffffffffffffffffffffffffffffffffffffffff16837ff6391f5c32d9c69d2a47ea670b442974b53935d1edc7fd64eb21e047a839171b60405160405180910390a45b5050565b8173ffffffffffffffffffffffffffffffffffffffff168373ffffffffffffffffffffffffffffffffffffffff1614156119e0576040517f08c379a00000000000000000000000000000000000000000000000000000000081526004016119d790613a9c565b60405180910390fd5b80600560008573ffffffffffffffffffffffffffffffffffffffff1673ffffffffffffffffffffffffffffffffffffffff16815260200190815260200160002060008473ffffffffffffffffffffffffffffffffffffffff1673ffffffffffffffffffffffffffffffffffffffff16815260200190815260200160002060006101000a81548160ff0219169083151502179055508173ffffffffffffffffffffffffffffffffffffffff168373ffffffffffffffffffffffffffffffffffffffff167f17307eab39ab6107e8899845ad3d59bd9653f200f220920489ca2b5937696c3183604051611ad1919061385d565b60405180910390a3505050565b611ae98484846114aa565b611af584848484612226565b611b34576040517f08c379a0000000000000000000000000000000000000000000000000000000008152600401611b2b90613a1c565b60405180910390fd5b50505050565b606060405180602001604052806000815250905090565b6060611b5c8261129f565b611b9b576040517f08c379a0000000000000000000000000000000000000000000000000000000008152600401611b9290613c3c565b60405180910390fd5b6000611ba5611b3a565b90506000815111611bc55760405180602001604052806000815250611bf0565b80611bcf846123bd565b604051602001611be0929190613761565b6040516020818303038152906040525b915050919050565b600080611c048361256a565b9050611c6281848060c00190611c1a9190613d17565b8080601f016020809104026020016040519081016040528093929190818152602001838380828437600081840152601f19601f8201169050808301925050505050505061266a565b915050919050565b600073ffffffffffffffffffffffffffffffffffffffff168273ffffffffffffffffffffffffffffffffffffffff161415611cda576040517f08c379a0000000000000000000000000000000000000000000000000000000008152600401611cd190613bbc565b60405180910390fd5b611ce38161129f565b15611d23576040517f08c379a0000000000000000000000000000000000000000000000000000000008152600401611d1a90613a5c565b60405180910390fd5b611d2f60008383611f22565b6001600360008473ffffffffffffffffffffffffffffffffffffffff1673ffffffffffffffffffffffffffffffffffffffff1681526020019081526020016000206000828254611d7f9190613e69565b92505081905550816002600083815260200190815260200160002060006101000a81548173ffffffffffffffffffffffffffffffffffffffff021916908373ffffffffffffffffffffffffffffffffffffffff160217905550808273ffffffffffffffffffffffffffffffffffffffff16600073ffffffffffffffffffffffffffffffffffffffff167fddf252ad1be2c89b69c2b068fc378daa952ba7f163c4a11628f55a4df523b3ef60405160405180910390a4611e4060008383611f27565b5050565b611e4d8261129f565b611e8c576040517f08c379a0000000000000000000000000000000000000000000000000000000008152600401611e8390613b5c565b60405180910390fd5b80600660008481526020019081526020016000209080519060200190611eb3929190612d95565b505050565b60007f01ffc9a7000000000000000000000000000000000000000000000000000000007bffffffffffffffffffffffffffffffffffffffffffffffffffffffff1916827bffffffffffffffffffffffffffffffffffffffffffffffffffffffff1916149050919050565b505050565b505050565b606060006002836002611f3f9190613ef0565b611f499190613e69565b67ffffffffffffffff811115611f88577f4e487b7100000000000000000000000000000000000000000000000000000000600052604160045260246000fd5b6040519080825280601f01601f191660200182016040528015611fba5781602001600182028036833780820191505090505b5090507f300000000000000000000000000000000000000000000000000000000000000081600081518110612018577f4e487b7100000000000000000000000000000000000000000000000000000000600052603260045260246000fd5b60200101907effffffffffffffffffffffffffffffffffffffffffffffffffffffffffffff1916908160001a9053507f7800000000000000000000000000000000000000000000000000000000000000816001815181106120a2577f4e487b7100000000000000000000000000000000000000000000000000000000600052603260045260246000fd5b60200101907effffffffffffffffffffffffffffffffffffffffffffffffffffffffffffff1916908160001a905350600060018460026120e29190613ef0565b6120ec9190613e69565b90505b60018111156121d8577f3031323334353637383961626364656600000000000000000000000000000000600f861660108110612154577f4e487b7100000000000000000000000000000000000000000000000000000000600052603260045260246000fd5b1a60f81b828281518110612191577f4e487b7100000000000000000000000000000000000000000000000000000000600052603260045260246000fd5b60200101907effffffffffffffffffffffffffffffffffffffffffffffffffffffffffffff1916908160001a905350600485901c9450806121d19061404b565b90506120ef565b506000841461221c576040517f08c379a0000000000000000000000000000000000000000000000000000000008152600401612213906139dc565b60405180910390fd5b8091505092915050565b60006122478473ffffffffffffffffffffffffffffffffffffffff16612691565b156123b0578373ffffffffffffffffffffffffffffffffffffffff1663150b7a0261227061130b565b8786866040518563ffffffff1660e01b81526004016122929493929190613811565b602060405180830381600087803b1580156122ac57600080fd5b505af19250505080156122dd57506040513d601f19601f820116820180604052508101906122da91906131d5565b60015b612360573d806000811461230d576040519150601f19603f3d011682016040523d82523d6000602084013e612312565b606091505b50600081511415612358576040517f08c379a000000000000000000000000000000000000000000000000000000000815260040161234f90613a1c565b60405180910390fd5b805181602001fd5b63150b7a0260e01b7bffffffffffffffffffffffffffffffffffffffffffffffffffffffff1916817bffffffffffffffffffffffffffffffffffffffffffffffffffffffff1916149150506123b5565b600190505b949350505050565b60606000821415612405576040518060400160405280600181526020017f30000000000000000000000000000000000000000000000000000000000000008152509050612565565b600082905060005b60008214612437578080612420906140d8565b915050600a826124309190613ebf565b915061240d565b60008167ffffffffffffffff811115612479577f4e487b7100000000000000000000000000000000000000000000000000000000600052604160045260246000fd5b6040519080825280601f01601f1916602001820160405280156124ab5781602001600182028036833780820191505090505b5090505b6000851461255e576001826124c49190613f4a565b9150600a856124d3919061412b565b60306124df9190613e69565b60f81b81838151811061251b577f4e487b7100000000000000000000000000000000000000000000000000000000600052603260045260246000fd5b60200101907effffffffffffffffffffffffffffffffffffffffffffffffffffffffffffff1916908160001a905350600a856125579190613ebf565b94506124af565b8093505050505b919050565b60006126637f7ecec4596a619512934b51c2d248d90e394ff4d167bbbc44cb98b0d0d3e4d3418380600001906125a09190613d6e565b6040516125ae929190613748565b604051809103902084602001358580604001906125cb9190613d6e565b6040516125d9929190613748565b604051809103902086606001358780608001906125f69190613d6e565b604051612604929190613748565b6040518091039020888060a0019061261c9190613d6e565b60405161262a929190613748565b604051809103902060405160200161264897969594939291906138e6565b604051602081830303815290604052805190602001206126b4565b9050919050565b600080600061267985856126ce565b9150915061268681612751565b819250505092915050565b6000808273ffffffffffffffffffffffffffffffffffffffff163b119050919050565b60006126c76126c1612aa2565b83612bbc565b9050919050565b6000806041835114156127105760008060006020860151925060408601519150606086015160001a905061270487828585612bef565b9450945050505061274a565b604083511415612741576000806020850151915060408501519050612736868383612cfc565b93509350505061274a565b60006002915091505b9250929050565b6000600481111561278b577f4e487b7100000000000000000000000000000000000000000000000000000000600052602160045260246000fd5b8160048111156127c4577f4e487b7100000000000000000000000000000000000000000000000000000000600052602160045260246000fd5b14156127cf57612a9f565b60016004811115612809577f4e487b7100000000000000000000000000000000000000000000000000000000600052602160045260246000fd5b816004811115612842577f4e487b7100000000000000000000000000000000000000000000000000000000600052602160045260246000fd5b1415612883576040517f08c379a000000000000000000000000000000000000000000000000000000000815260040161287a906139bc565b60405180910390fd5b600260048111156128bd577f4e487b7100000000000000000000000000000000000000000000000000000000600052602160045260246000fd5b8160048111156128f6577f4e487b7100000000000000000000000000000000000000000000000000000000600052602160045260246000fd5b1415612937576040517f08c379a000000000000000000000000000000000000000000000000000000000815260040161292e906139fc565b60405180910390fd5b60036004811115612971577f4e487b7100000000000000000000000000000000000000000000000000000000600052602160045260246000fd5b8160048111156129aa577f4e487b7100000000000000000000000000000000000000000000000000000000600052602160045260246000fd5b14156129eb576040517f08c379a00000000000000000000000000000000000000000000000000000000081526004016129e290613abc565b60405180910390fd5b600480811115612a24577f4e487b7100000000000000000000000000000000000000000000000000000000600052602160045260246000fd5b816004811115612a5d577f4e487b7100000000000000000000000000000000000000000000000000000000600052602160045260246000fd5b1415612a9e576040517f08c379a0000000000000000000000000000000000000000000000000000000008152600401612a9590613b9c565b60405180910390fd5b5b50565b60007f000000000000000000000000000000000000000000000000000000000000000073ffffffffffffffffffffffffffffffffffffffff163073ffffffffffffffffffffffffffffffffffffffff16148015612b1e57507f000000000000000000000000000000000000000000000000000000000000000046145b15612b4b577f00000000000000000000000000000000000000000000000000000000000000009050612bb9565b612bb67f00000000000000000000000000000000000000000000000000000000000000007f00000000000000000000000000000000000000000000000000000000000000007f0000000000000000000000000000000000000000000000000000000000000000612d5b565b90505b90565b60008282604051602001612bd1929190613785565b60405160208183030381529060405280519060200120905092915050565b6000807f7fffffffffffffffffffffffffffffff5d576e7357a4501ddfe92f46681b20a08360001c1115612c2a576000600391509150612cf3565b601b8560ff1614158015612c425750601c8560ff1614155b15612c54576000600491509150612cf3565b600060018787878760405160008152602001604052604051612c799493929190613955565b6020604051602081039080840390855afa158015612c9b573d6000803e3d6000fd5b505050602060405103519050600073ffffffffffffffffffffffffffffffffffffffff168173ffffffffffffffffffffffffffffffffffffffff161415612cea57600060019250925050612cf3565b80600092509250505b94509492505050565b60008060007f7fffffffffffffffffffffffffffffffffffffffffffffffffffffffffffffff60001b841690506000601b60ff8660001c901c612d3f9190613e69565b9050612d4d87828885612bef565b935093505050935093915050565b60008383834630604051602001612d76959493929190613893565b6040516020818303038152906040528051906020012090509392505050565b828054612da190614075565b90600052602060002090601f016020900481019282612dc35760008555612e0a565b82601f10612ddc57805160ff1916838001178555612e0a565b82800160010185558215612e0a579182015b82811115612e09578251825591602001919060010190612dee565b5b509050612e179190612e1b565b5090565b5b80821115612e34576000816000905550600101612e1c565b5090565b6000612e4b612e4684613dea565b613dc5565b905082815260208101848484011115612e6357600080fd5b612e6e848285614009565b509392505050565b600081359050612e8581614954565b92915050565b600081359050612e9a8161496b565b92915050565b600081359050612eaf81614982565b92915050565b600081359050612ec481614999565b92915050565b600081519050612ed981614999565b92915050565b600082601f830112612ef057600080fd5b8135612f00848260208601612e38565b91505092915050565b600060e08284031215612f1b57600080fd5b81905092915050565b600081359050612f33816149b0565b92915050565b600060208284031215612f4b57600080fd5b6000612f5984828501612e76565b91505092915050565b60008060408385031215612f7557600080fd5b6000612f8385828601612e76565b9250506020612f9485828601612e76565b9150509250929050565b600080600060608486031215612fb357600080fd5b6000612fc186828701612e76565b9350506020612fd286828701612e76565b9250506040612fe386828701612f24565b9150509250925092565b6000806000806080858703121561300357600080fd5b600061301187828801612e76565b945050602061302287828801612e76565b935050604061303387828801612f24565b925050606085013567ffffffffffffffff81111561305057600080fd5b61305c87828801612edf565b91505092959194509250565b6000806040838503121561307b57600080fd5b600061308985828601612e76565b925050602061309a85828601612e8b565b9150509250929050565b6000806000606084860312156130b957600080fd5b60006130c786828701612e76565b935050602084013567ffffffffffffffff8111156130e457600080fd5b6130f086828701612f09565b925050604061310186828701612f24565b9150509250925092565b6000806040838503121561311e57600080fd5b600061312c85828601612e76565b925050602061313d85828601612f24565b9150509250929050565b60006020828403121561315957600080fd5b600061316784828501612ea0565b91505092915050565b6000806040838503121561318357600080fd5b600061319185828601612ea0565b92505060206131a285828601612e76565b9150509250929050565b6000602082840312156131be57600080fd5b60006131cc84828501612eb5565b91505092915050565b6000602082840312156131e757600080fd5b60006131f584828501612eca565b91505092915050565b60006020828403121561321057600080fd5b600061321e84828501612f24565b91505092915050565b61323081613f7e565b82525050565b61323f81613f90565b82525050565b61324e81613f9c565b82525050565b61326561326082613f9c565b614121565b82525050565b60006132778385613e42565b9350613284838584614009565b82840190509392505050565b600061329b82613e1b565b6132a58185613e31565b93506132b5818560208601614018565b6132be81614218565b840191505092915050565b60006132d482613e26565b6132de8185613e4d565b93506132ee818560208601614018565b6132f781614218565b840191505092915050565b600061330d82613e26565b6133178185613e5e565b9350613327818560208601614018565b80840191505092915050565b6000613340601883613e4d565b915061334b82614229565b602082019050919050565b6000613363602083613e4d565b915061336e82614252565b602082019050919050565b6000613386601f83613e4d565b91506133918261427b565b602082019050919050565b60006133a9603283613e4d565b91506133b4826142a4565b604082019050919050565b60006133cc602583613e4d565b91506133d7826142f3565b604082019050919050565b60006133ef601c83613e4d565b91506133fa82614342565b602082019050919050565b6000613412600283613e5e565b915061341d8261436b565b600282019050919050565b6000613435602483613e4d565b915061344082614394565b604082019050919050565b6000613458601983613e4d565b9150613463826143e3565b602082019050919050565b600061347b602283613e4d565b91506134868261440c565b604082019050919050565b600061349e602c83613e4d565b91506134a98261445b565b604082019050919050565b60006134c1603883613e4d565b91506134cc826144aa565b604082019050919050565b60006134e4602a83613e4d565b91506134ef826144f9565b604082019050919050565b6000613507602983613e4d565b915061351282614548565b604082019050919050565b600061352a602e83613e4d565b915061353582614597565b604082019050919050565b600061354d602383613e4d565b9150613558826145e6565b604082019050919050565b6000613570602283613e4d565b915061357b82614635565b604082019050919050565b6000613593602083613e4d565b915061359e82614684565b602082019050919050565b60006135b6603183613e4d565b91506135c1826146ad565b604082019050919050565b60006135d9602c83613e4d565b91506135e4826146fc565b604082019050919050565b60006135fc601183613e4d565b91506136078261474b565b602082019050919050565b600061361f602f83613e4d565b915061362a82614774565b604082019050919050565b6000613642602183613e4d565b915061364d826147c3565b604082019050919050565b6000613665601783613e4d565b915061367082614812565b602082019050919050565b6000613688603183613e4d565b91506136938261483b565b604082019050919050565b60006136ab601783613e5e565b91506136b68261488a565b601782019050919050565b60006136ce601f83613e4d565b91506136d9826148b3565b602082019050919050565b60006136f1601183613e5e565b91506136fc826148dc565b601182019050919050565b6000613714602f83613e4d565b915061371f82614905565b604082019050919050565b61373381613ff2565b82525050565b61374281613ffc565b82525050565b600061375582848661326b565b91508190509392505050565b600061376d8285613302565b91506137798284613302565b91508190509392505050565b600061379082613405565b915061379c8285613254565b6020820191506137ac8284613254565b6020820191508190509392505050565b60006137c78261369e565b91506137d38285613302565b91506137de826136e4565b91506137ea8284613302565b91508190509392505050565b600060208201905061380b6000830184613227565b92915050565b60006080820190506138266000830187613227565b6138336020830186613227565b613840604083018561372a565b81810360608301526138528184613290565b905095945050505050565b60006020820190506138726000830184613236565b92915050565b600060208201905061388d6000830184613245565b92915050565b600060a0820190506138a86000830188613245565b6138b56020830187613245565b6138c26040830186613245565b6138cf606083018561372a565b6138dc6080830184613227565b9695505050505050565b600060e0820190506138fb600083018a613245565b6139086020830189613245565b613915604083018861372a565b6139226060830187613245565b61392f608083018661372a565b61393c60a0830185613245565b61394960c0830184613245565b98975050505050505050565b600060808201905061396a6000830187613245565b6139776020830186613739565b6139846040830185613245565b6139916060830184613245565b95945050505050565b600060208201905081810360008301526139b481846132c9565b905092915050565b600060208201905081810360008301526139d581613333565b9050919050565b600060208201905081810360008301526139f581613356565b9050919050565b60006020820190508181036000830152613a1581613379565b9050919050565b60006020820190508181036000830152613a358161339c565b9050919050565b60006020820190508181036000830152613a55816133bf565b9050919050565b60006020820190508181036000830152613a75816133e2565b9050919050565b60006020820190508181036000830152613a9581613428565b9050919050565b60006020820190508181036000830152613ab58161344b565b9050919050565b60006020820190508181036000830152613ad58161346e565b9050919050565b60006020820190508181036000830152613af581613491565b9050919050565b60006020820190508181036000830152613b15816134b4565b9050919050565b60006020820190508181036000830152613b35816134d7565b9050919050565b60006020820190508181036000830152613b55816134fa565b9050919050565b60006020820190508181036000830152613b758161351d565b9050919050565b60006020820190508181036000830152613b9581613540565b9050919050565b60006020820190508181036000830152613bb581613563565b9050919050565b60006020820190508181036000830152613bd581613586565b9050919050565b60006020820190508181036000830152613bf5816135a9565b9050919050565b60006020820190508181036000830152613c15816135cc565b9050919050565b60006020820190508181036000830152613c35816135ef565b9050919050565b60006020820190508181036000830152613c5581613612565b9050919050565b60006020820190508181036000830152613c7581613635565b9050919050565b60006020820190508181036000830152613c9581613658565b9050919050565b60006020820190508181036000830152613cb58161367b565b9050919050565b60006020820190508181036000830152613cd5816136c1565b9050919050565b60006020820190508181036000830152613cf581613707565b9050919050565b6000602082019050613d11600083018461372a565b92915050565b60008083356001602003843603038112613d3057600080fd5b80840192508235915067ffffffffffffffff821115613d4e57600080fd5b602083019250600182023603831315613d6657600080fd5b509250929050565b60008083356001602003843603038112613d8757600080fd5b80840192508235915067ffffffffffffffff821115613da557600080fd5b602083019250600182023603831315613dbd57600080fd5b509250929050565b6000613dcf613de0565b9050613ddb82826140a7565b919050565b6000604051905090565b600067ffffffffffffffff821115613e0557613e046141e9565b5b613e0e82614218565b9050602081019050919050565b600081519050919050565b600081519050919050565b600082825260208201905092915050565b600081905092915050565b600082825260208201905092915050565b600081905092915050565b6000613e7482613ff2565b9150613e7f83613ff2565b9250827fffffffffffffffffffffffffffffffffffffffffffffffffffffffffffffffff03821115613eb457613eb361415c565b5b828201905092915050565b6000613eca82613ff2565b9150613ed583613ff2565b925082613ee557613ee461418b565b5b828204905092915050565b6000613efb82613ff2565b9150613f0683613ff2565b9250817fffffffffffffffffffffffffffffffffffffffffffffffffffffffffffffffff0483118215151615613f3f57613f3e61415c565b5b828202905092915050565b6000613f5582613ff2565b9150613f6083613ff2565b925082821015613f7357613f7261415c565b5b828203905092915050565b6000613f8982613fd2565b9050919050565b60008115159050919050565b6000819050919050565b60007fffffffff0000000000000000000000000000000000000000000000000000000082169050919050565b600073ffffffffffffffffffffffffffffffffffffffff82169050919050565b6000819050919050565b600060ff82169050919050565b82818337600083830152505050565b60005b8381101561403657808201518184015260208101905061401b565b83811115614045576000848401525b50505050565b600061405682613ff2565b9150600082141561406a5761406961415c565b5b600182039050919050565b6000600282049050600182168061408d57607f821691505b602082108114156140a1576140a06141ba565b5b50919050565b6140b082614218565b810181811067ffffffffffffffff821117156140cf576140ce6141e9565b5b80604052505050565b60006140e382613ff2565b91507fffffffffffffffffffffffffffffffffffffffffffffffffffffffffffffffff8214156141165761411561415c565b5b600182019050919050565b6000819050919050565b600061413682613ff2565b915061414183613ff2565b9250826141515761415061418b565b5b828206905092915050565b7f4e487b7100000000000000000000000000000000000000000000000000000000600052601160045260246000fd5b7f4e487b7100000000000000000000000000000000000000000000000000000000600052601260045260246000fd5b7f4e487b7100000000000000000000000000000000000000000000000000000000600052602260045260246000fd5b7f4e487b7100000000000000000000000000000000000000000000000000000000600052604160045260246000fd5b6000601f19601f8301169050919050565b7f45434453413a20696e76616c6964207369676e61747572650000000000000000600082015250565b7f537472696e67733a20686578206c656e67746820696e73756666696369656e74600082015250565b7f45434453413a20696e76616c6964207369676e6174757265206c656e67746800600082015250565b7f4552433732313a207472616e7366657220746f206e6f6e20455243373231526560008201527f63656976657220696d706c656d656e7465720000000000000000000000000000602082015250565b7f4552433732313a207472616e736665722066726f6d20696e636f72726563742060008201527f6f776e6572000000000000000000000000000000000000000000000000000000602082015250565b7f4552433732313a20746f6b656e20616c7265616479206d696e74656400000000600082015250565b7f1901000000000000000000000000000000000000000000000000000000000000600082015250565b7f4552433732313a207472616e7366657220746f20746865207a65726f2061646460008201527f7265737300000000000000000000000000000000000000000000000000000000602082015250565b7f4552433732313a20617070726f766520746f2063616c6c657200000000000000600082015250565b7f45434453413a20696e76616c6964207369676e6174757265202773272076616c60008201527f7565000000000000000000000000000000000000000000000000000000000000602082015250565b7f4552433732313a206f70657261746f7220717565727920666f72206e6f6e657860008201527f697374656e7420746f6b656e0000000000000000000000000000000000000000602082015250565b7f4552433732313a20617070726f76652063616c6c6572206973206e6f74206f7760008201527f6e6572206e6f7220617070726f76656420666f7220616c6c0000000000000000602082015250565b7f4552433732313a2062616c616e636520717565727920666f7220746865207a6560008201527f726f206164647265737300000000000000000000000000000000000000000000602082015250565b7f4552433732313a206f776e657220717565727920666f72206e6f6e657869737460008201527f656e7420746f6b656e0000000000000000000000000000000000000000000000602082015250565b7f45524337323155524953746f726167653a2055524920736574206f66206e6f6e60008201527f6578697374656e7420746f6b656e000000000000000000000000000000000000602082015250565b7f596f752063616e206e6f7420707572636861736520796f7572206f776e20746f60008201527f6b656e0000000000000000000000000000000000000000000000000000000000602082015250565b7f45434453413a20696e76616c6964207369676e6174757265202776272076616c60008201527f7565000000000000000000000000000000000000000000000000000000000000602082015250565b7f4552433732313a206d696e7420746f20746865207a65726f2061646472657373600082015250565b7f45524337323155524953746f726167653a2055524920717565727920666f722060008201527f6e6f6e6578697374656e7420746f6b656e000000000000000000000000000000602082015250565b7f4552433732313a20617070726f76656420717565727920666f72206e6f6e657860008201527f697374656e7420746f6b656e0000000000000000000000000000000000000000602082015250565b7f496e76616c6964205369676e6174757265000000000000000000000000000000600082015250565b7f4552433732314d657461646174613a2055524920717565727920666f72206e6f60008201527f6e6578697374656e7420746f6b656e0000000000000000000000000000000000602082015250565b7f4552433732313a20617070726f76616c20746f2063757272656e74206f776e6560008201527f7200000000000000000000000000000000000000000000000000000000000000602082015250565b7f456e7465722074686520636f7272656374207072696365000000000000000000600082015250565b7f4552433732313a207472616e736665722063616c6c6572206973206e6f74206f60008201527f776e6572206e6f7220617070726f766564000000000000000000000000000000602082015250565b7f416363657373436f6e74726f6c3a206163636f756e7420000000000000000000600082015250565b7f5265656e7472616e637947756172643a207265656e7472616e742063616c6c00600082015250565b7f206973206d697373696e6720726f6c6520000000000000000000000000000000600082015250565b7f416363657373436f6e74726f6c3a2063616e206f6e6c792072656e6f756e636560008201527f20726f6c657320666f722073656c660000000000000000000000000000000000602082015250565b61495d81613f7e565b811461496857600080fd5b50565b61497481613f90565b811461497f57600080fd5b50565b61498b81613f9c565b811461499657600080fd5b50565b6149a281613fa6565b81146149ad57600080fd5b50565b6149b981613ff2565b81146149c457600080fd5b5056fea264697066735822122056c3aadeaffea6c3021d183f831864eec50136772d75e29122e35293718f31eb64736f6c63430008040033",
  "linkReferences": {},
  "deployedLinkReferences": {}
}