{
  "_format": "hh-sol-artifact-1",
  "contractName": "LiveMintAuctionFactoryStorage",
  "sourceName": "contracts/LiveMintFactoryWAuction.sol",
  "abi": [
    {
      "inputs": [],
      "stateMutability": "nonpayable",
      "type": "constructor"
    },
    {
      "anonymous": false,
      "inputs": [
        {
          "indexed": false,
          "internalType": "address",
          "name": "payeeOne",
          "type": "address"
        },
        {
          "indexed": false,
          "internalType": "address",
          "name": "payeeTwo",
          "type": "address"
        },
        {
          "indexed": false,
          "internalType": "address",
          "name": "payeeThree",
          "type": "address"
        },
        {
          "indexed": false,
          "internalType": "uint256",
          "name": "payeeFeeOne",
          "type": "uint256"
        },
        {
          "indexed": false,
          "internalType": "uint256",
          "name": "payeeFeeTwo",
          "type": "uint256"
        },
        {
          "indexed": false,
          "internalType": "uint256",
          "name": "payeeFeeThree",
          "type": "uint256"
        },
        {
          "indexed": false,
          "internalType": "address",
          "name": "nftContract",
          "type": "address"
        }
      ],
      "name": "AuctionCreated",
      "type": "event"
    },
    {
      "anonymous": false,
      "inputs": [
        {
          "indexed": true,
          "internalType": "address",
          "name": "sender",
          "type": "address"
        },
        {
          "indexed": false,
          "internalType": "uint256",
          "name": "amount",
          "type": "uint256"
        },
        {
          "indexed": false,
          "internalType": "uint256",
          "name": "timestamp",
          "type": "uint256"
        },
        {
          "indexed": true,
          "internalType": "address",
          "name": "nftContract",
          "type": "address"
        }
      ],
      "name": "Bid",
      "type": "event"
    },
    {
      "anonymous": false,
      "inputs": [
        {
          "indexed": false,
          "internalType": "address[]",
          "name": "winningBidders",
          "type": "address[]"
        },
        {
          "indexed": false,
          "internalType": "uint256",
          "name": "timestamp",
          "type": "uint256"
        },
        {
          "indexed": true,
          "internalType": "address",
          "name": "nftContract",
          "type": "address"
        }
      ],
      "name": "End",
      "type": "event"
    },
    {
      "anonymous": false,
      "inputs": [
        {
          "indexed": false,
          "internalType": "uint256",
          "name": "highestBid",
          "type": "uint256"
        },
        {
          "indexed": false,
          "internalType": "uint256",
          "name": "timestamp",
          "type": "uint256"
        },
        {
          "indexed": true,
          "internalType": "address",
          "name": "nftContract",
          "type": "address"
        }
      ],
      "name": "Start",
      "type": "event"
    },
    {
      "anonymous": false,
      "inputs": [
        {
          "indexed": true,
          "internalType": "address",
          "name": "bidder",
          "type": "address"
        },
        {
          "indexed": false,
          "internalType": "uint256",
          "name": "amount",
          "type": "uint256"
        },
        {
          "indexed": false,
          "internalType": "uint256",
          "name": "timestamp",
          "type": "uint256"
        },
        {
          "indexed": true,
          "internalType": "address",
          "name": "nftContract",
          "type": "address"
        }
      ],
      "name": "Withdraw",
      "type": "event"
    },
    {
      "inputs": [],
      "name": "_auctionsCreated",
      "outputs": [
        {
          "internalType": "uint256",
          "name": "_value",
          "type": "uint256"
        }
      ],
      "stateMutability": "view",
      "type": "function"
    },
    {
      "inputs": [
        {
          "internalType": "address",
          "name": "nftContract",
          "type": "address"
        }
      ],
      "name": "bid",
      "outputs": [],
      "stateMutability": "payable",
      "type": "function"
    },
    {
      "inputs": [
        {
          "internalType": "string",
          "name": "tokenURI",
          "type": "string"
        },
        {
          "internalType": "address",
          "name": "nftContract",
          "type": "address"
        }
      ],
      "name": "end",
      "outputs": [],
      "stateMutability": "nonpayable",
      "type": "function"
    },
    {
      "inputs": [
        {
          "internalType": "address",
          "name": "nftContract",
          "type": "address"
        }
      ],
      "name": "getBid",
      "outputs": [
        {
          "internalType": "uint256",
          "name": "",
          "type": "uint256"
        }
      ],
      "stateMutability": "view",
      "type": "function"
    },
    {
      "inputs": [
        {
          "internalType": "address",
          "name": "nftContract",
          "type": "address"
        }
      ],
      "name": "getCurrentItem",
      "outputs": [
        {
          "internalType": "uint256",
          "name": "",
          "type": "uint256"
        }
      ],
      "stateMutability": "view",
      "type": "function"
    },
    {
      "inputs": [
        {
          "internalType": "address",
          "name": "nftContract",
          "type": "address"
        }
      ],
      "name": "getEndAt",
      "outputs": [
        {
          "internalType": "uint256",
          "name": "",
          "type": "uint256"
        }
      ],
      "stateMutability": "view",
      "type": "function"
    },
    {
      "inputs": [
        {
          "internalType": "address",
          "name": "nftContract",
          "type": "address"
        }
      ],
      "name": "getHighestBid",
      "outputs": [
        {
          "internalType": "uint256",
          "name": "",
          "type": "uint256"
        }
      ],
      "stateMutability": "view",
      "type": "function"
    },
    {
      "inputs": [
        {
          "internalType": "address",
          "name": "nftContract",
          "type": "address"
        }
      ],
      "name": "getLowestBid",
      "outputs": [
        {
          "internalType": "uint256",
          "name": "",
          "type": "uint256"
        }
      ],
      "stateMutability": "view",
      "type": "function"
    },
    {
      "inputs": [
        {
          "internalType": "uint256",
          "name": "totalNFTs",
          "type": "uint256"
        },
        {
          "internalType": "address",
          "name": "nftContract",
          "type": "address"
        }
      ],
      "name": "getTop",
      "outputs": [
        {
          "internalType": "address[]",
          "name": "",
          "type": "address[]"
        }
      ],
      "stateMutability": "view",
      "type": "function"
    },
    {
      "inputs": [
        {
          "internalType": "address",
          "name": "",
          "type": "address"
        }
      ],
      "name": "idToAuction",
      "outputs": [
        {
          "internalType": "bool",
          "name": "started",
          "type": "bool"
        },
        {
          "internalType": "bool",
          "name": "ended",
          "type": "bool"
        },
        {
          "internalType": "uint256",
          "name": "endAt",
          "type": "uint256"
        },
        {
          "internalType": "uint256",
          "name": "timeOfAuction",
          "type": "uint256"
        },
        {
          "internalType": "address",
          "name": "nftContract",
          "type": "address"
        },
        {
          "internalType": "uint256",
          "name": "floorBid",
          "type": "uint256"
        },
        {
          "internalType": "uint256",
          "name": "totalNFTs",
          "type": "uint256"
        },
        {
          "internalType": "uint256",
          "name": "listSize",
          "type": "uint256"
        }
      ],
      "stateMutability": "view",
      "type": "function"
    },
    {
      "inputs": [
        {
          "internalType": "address",
          "name": "nftContract",
          "type": "address"
        }
      ],
      "name": "isStarted",
      "outputs": [
        {
          "internalType": "bool",
          "name": "",
          "type": "bool"
        }
      ],
      "stateMutability": "view",
      "type": "function"
    },
    {
      "inputs": [
        {
          "internalType": "address",
          "name": "_nftContract",
          "type": "address"
        },
        {
          "internalType": "address",
          "name": "_payeeOne",
          "type": "address"
        },
        {
          "internalType": "address",
          "name": "_payeeTwo",
          "type": "address"
        },
        {
          "internalType": "address",
          "name": "_payeeThree",
          "type": "address"
        },
        {
          "internalType": "uint256",
          "name": "_payeeOneFee",
          "type": "uint256"
        },
        {
          "internalType": "uint256",
          "name": "_payeeTwoFee",
          "type": "uint256"
        },
        {
          "internalType": "uint256",
          "name": "_payeeThreeFee",
          "type": "uint256"
        }
      ],
      "name": "setupAuction",
      "outputs": [],
      "stateMutability": "nonpayable",
      "type": "function"
    },
    {
      "inputs": [
        {
          "internalType": "uint256",
          "name": "timeOfAuction",
          "type": "uint256"
        },
        {
          "internalType": "uint256",
          "name": "startingBid",
          "type": "uint256"
        },
        {
          "internalType": "uint256",
          "name": "nftsToMint",
          "type": "uint256"
        },
        {
          "internalType": "address",
          "name": "nftContract",
          "type": "address"
        }
      ],
      "name": "start",
      "outputs": [],
      "stateMutability": "nonpayable",
      "type": "function"
    },
    {
      "inputs": [
        {
          "internalType": "address",
          "name": "nftContract",
          "type": "address"
        }
      ],
      "name": "withdraw",
      "outputs": [],
      "stateMutability": "payable",
      "type": "function"
    }
  ],
  "bytecode": "0x608060405234801561001057600080fd5b506001600081905550615002806100286000396000f3fe6080604052600436106100dd5760003560e01c80637286648b1161007f578063a3892d3911610059578063a3892d39146102e1578063afffcbea1461030a578063c8b342ab14610347578063d7d874dd14610384576100dd565b80637286648b1461025f57806376ac863c1461029c5780639cf5453d146102c5576100dd565b8063274bc4fc116100bb578063274bc4fc14610199578063416df1af146101d657806351cff8d91461021a5780636bcaccfa14610236576100dd565b80630279cb7d146100e2578063137cb58e1461011f57806323a750491461015c575b600080fd5b3480156100ee57600080fd5b506101096004803603810190610104919061400f565b6103af565b604051610116919061463b565b60405180910390f35b34801561012b57600080fd5b506101466004803603810190610141919061400f565b610419565b60405161015391906148c4565b60405180910390f35b34801561016857600080fd5b50610183600480360381019061017e919061400f565b610465565b60405161019091906148c4565b60405180910390f35b3480156101a557600080fd5b506101c060048036038101906101bb919061400f565b61057f565b6040516101cd91906148c4565b60405180910390f35b3480156101e257600080fd5b506101fd60048036038101906101f8919061400f565b610611565b604051610211989796959493929190614656565b60405180910390f35b610234600480360381019061022f919061400f565b610693565b005b34801561024257600080fd5b5061025d600480360381019061025891906141b8565b6109f3565b005b34801561026b57600080fd5b506102866004803603810190610281919061400f565b610f38565b60405161029391906148c4565b60405180910390f35b3480156102a857600080fd5b506102c360048036038101906102be9190614061565b611064565b005b6102df60048036038101906102da919061400f565b6112f3565b005b3480156102ed57600080fd5b50610308600480360381019061030391906140ff565b611ac7565b005b34801561031657600080fd5b50610331600480360381019061032c919061417c565b612a17565b60405161033e91906145e9565b60405180910390f35b34801561035357600080fd5b5061036e6004803603810190610369919061400f565b612d8e565b60405161037b91906148c4565b60405180910390f35b34801561039057600080fd5b50610399612e17565b6040516103a691906148c4565b60405180910390f35b6000600260008373ffffffffffffffffffffffffffffffffffffffff1673ffffffffffffffffffffffffffffffffffffffff16815260200190815260200160002060020160009054906101000a900460ff161561040f5760019050610414565b600090505b919050565b6000600260008373ffffffffffffffffffffffffffffffffffffffff1673ffffffffffffffffffffffffffffffffffffffff168152602001908152602001600020600301549050919050565b6000806104b4600260008573ffffffffffffffffffffffffffffffffffffffff1673ffffffffffffffffffffffffffffffffffffffff1681526020019081526020016000206007015484612a17565b9050600260008473ffffffffffffffffffffffffffffffffffffffff1673ffffffffffffffffffffffffffffffffffffffff168152602001908152602001600020600901600082600081518110610534577f4e487b7100000000000000000000000000000000000000000000000000000000600052603260045260246000fd5b602002602001015173ffffffffffffffffffffffffffffffffffffffff1673ffffffffffffffffffffffffffffffffffffffff16815260200190815260200160002054915050919050565b60008082905060008173ffffffffffffffffffffffffffffffffffffffff16636c1438626040518163ffffffff1660e01b815260040160206040518083038186803b1580156105cd57600080fd5b505afa1580156105e1573d6000803e3d6000fd5b505050506040513d601f19601f820116820180604052508101906106059190614153565b90508092505050919050565b60026020528060005260406000206000915090508060020160009054906101000a900460ff16908060020160019054906101000a900460ff16908060030154908060040154908060050160009054906101000a900473ffffffffffffffffffffffffffffffffffffffff16908060060154908060070154908060080154905088565b600260005414156106d9576040517f08c379a00000000000000000000000000000000000000000000000000000000081526004016106d090614884565b60405180910390fd5b6002600081905550600061072f600260008473ffffffffffffffffffffffffffffffffffffffff1673ffffffffffffffffffffffffffffffffffffffff1681526020019081526020016000206007015483612a17565b905060005b600260008473ffffffffffffffffffffffffffffffffffffffff1673ffffffffffffffffffffffffffffffffffffffff16815260200190815260200160002060070154811015610840573373ffffffffffffffffffffffffffffffffffffffff168282815181106107ce577f4e487b7100000000000000000000000000000000000000000000000000000000600052603260045260246000fd5b602002602001015173ffffffffffffffffffffffffffffffffffffffff16141561082d576040517f08c379a0000000000000000000000000000000000000000000000000000000008152600401610824906147a4565b60405180910390fd5b808061083890614bb8565b915050610734565b506000600260008473ffffffffffffffffffffffffffffffffffffffff1673ffffffffffffffffffffffffffffffffffffffff16815260200190815260200160002060090160003373ffffffffffffffffffffffffffffffffffffffff1673ffffffffffffffffffffffffffffffffffffffff1681526020019081526020016000205490506108cf3384612e23565b6000803373ffffffffffffffffffffffffffffffffffffffff16836040516108f690614513565b60006040518083038185875af1925050503d8060008114610933576040519150601f19603f3d011682016040523d82523d6000602084013e610938565b606091505b50915091508161097d576040517f08c379a0000000000000000000000000000000000000000000000000000000008152600401610974906148a4565b60405180910390fd5b8473ffffffffffffffffffffffffffffffffffffffff163373ffffffffffffffffffffffffffffffffffffffff167f8166bf25f8a2b7ed3c85049207da4358d16edbed977d23fa2ee6f0dde3ec213285426040516109dc9291906148df565b60405180910390a350505050600160008190555050565b60026000541415610a39576040517f08c379a0000000000000000000000000000000000000000000000000000000008152600401610a3090614884565b60405180910390fd5b6002600081905550600260008273ffffffffffffffffffffffffffffffffffffffff1673ffffffffffffffffffffffffffffffffffffffff16815260200190815260200160002060020160009054906101000a900460ff1615610ad1576040517f08c379a0000000000000000000000000000000000000000000000000000000008152600401610ac890614804565b60405180910390fd5b610b4e600260008373ffffffffffffffffffffffffffffffffffffffff1673ffffffffffffffffffffffffffffffffffffffff16815260200190815260200160002060000160006001815260200190815260200160002060009054906101000a900473ffffffffffffffffffffffffffffffffffffffff16613208565b600260008273ffffffffffffffffffffffffffffffffffffffff1673ffffffffffffffffffffffffffffffffffffffff16815260200190815260200160002060000160006001815260200190815260200160002060009054906101000a900473ffffffffffffffffffffffffffffffffffffffff1673ffffffffffffffffffffffffffffffffffffffff163373ffffffffffffffffffffffffffffffffffffffff1614610c30576040517f08c379a0000000000000000000000000000000000000000000000000000000008152600401610c2790614724565b60405180910390fd5b81600260008373ffffffffffffffffffffffffffffffffffffffff1673ffffffffffffffffffffffffffffffffffffffff168152602001908152602001600020600701819055506001600260008373ffffffffffffffffffffffffffffffffffffffff1673ffffffffffffffffffffffffffffffffffffffff168152602001908152602001600020600a016000600173ffffffffffffffffffffffffffffffffffffffff1673ffffffffffffffffffffffffffffffffffffffff16815260200190815260200160002060006101000a81548173ffffffffffffffffffffffffffffffffffffffff021916908373ffffffffffffffffffffffffffffffffffffffff16021790555060008190506001600260008473ffffffffffffffffffffffffffffffffffffffff1673ffffffffffffffffffffffffffffffffffffffff16815260200190815260200160002060020160006101000a81548160ff0219169083151502179055506000600260008473ffffffffffffffffffffffffffffffffffffffff1673ffffffffffffffffffffffffffffffffffffffff16815260200190815260200160002060020160016101000a81548160ff021916908315150217905550603c85610dff9190614a45565b42610e0a91906149be565b600260008473ffffffffffffffffffffffffffffffffffffffff1673ffffffffffffffffffffffffffffffffffffffff1681526020019081526020016000206003018190555083600260008473ffffffffffffffffffffffffffffffffffffffff1673ffffffffffffffffffffffffffffffffffffffff168152602001908152602001600020600601819055508173ffffffffffffffffffffffffffffffffffffffff167f2290d5bc9b54eda2793963126fd9f1cf53cda62338c6839dbb95ed1ed1ab1d38600260008573ffffffffffffffffffffffffffffffffffffffff1673ffffffffffffffffffffffffffffffffffffffff1681526020019081526020016000206006015442604051610f219291906148df565b60405180910390a250600160008190555050505050565b600080610f87600260008573ffffffffffffffffffffffffffffffffffffffff1673ffffffffffffffffffffffffffffffffffffffff1681526020019081526020016000206007015484612a17565b9050600081519050600260008573ffffffffffffffffffffffffffffffffffffffff1673ffffffffffffffffffffffffffffffffffffffff168152602001908152602001600020600901600083600184610fe19190614a9f565b81518110611018577f4e487b7100000000000000000000000000000000000000000000000000000000600052603260045260246000fd5b602002602001015173ffffffffffffffffffffffffffffffffffffffff1673ffffffffffffffffffffffffffffffffffffffff1681526020019081526020016000205492505050919050565b6000600260008973ffffffffffffffffffffffffffffffffffffffff1673ffffffffffffffffffffffffffffffffffffffff1681526020019081526020016000209050868160000160006001815260200190815260200160002060006101000a81548173ffffffffffffffffffffffffffffffffffffffff021916908373ffffffffffffffffffffffffffffffffffffffff160217905550858160000160006002815260200190815260200160002060006101000a81548173ffffffffffffffffffffffffffffffffffffffff021916908373ffffffffffffffffffffffffffffffffffffffff160217905550848160000160006003815260200190815260200160002060006101000a81548173ffffffffffffffffffffffffffffffffffffffff021916908373ffffffffffffffffffffffffffffffffffffffff16021790555083816001016000600181526020019081526020016000208190555082816001016000600281526020019081526020016000208190555081816001016000600381526020019081526020016000208190555060008160020160006101000a81548160ff02191690831515021790555060008160020160016101000a81548160ff0219169083151502179055506000816003018190555060008160040181905550878160050160006101000a81548173ffffffffffffffffffffffffffffffffffffffff021916908373ffffffffffffffffffffffffffffffffffffffff1602179055506000816006018190555060008160070181905550600081600801819055507f589ecc317a03e0d220dce8b8543b0f0b532b364ebe386ba0bdc6535e7f47bb148787878787878e6040516112e19796959493929190614543565b60405180910390a15050505050505050565b600260008273ffffffffffffffffffffffffffffffffffffffff1673ffffffffffffffffffffffffffffffffffffffff16815260200190815260200160002060020160009054906101000a900460ff16611382576040517f08c379a000000000000000000000000000000000000000000000000000000000815260040161137990614824565b60405180910390fd5b600260008273ffffffffffffffffffffffffffffffffffffffff1673ffffffffffffffffffffffffffffffffffffffff168152602001908152602001600020600301544210611406576040517f08c379a00000000000000000000000000000000000000000000000000000000081526004016113fd90614784565b60405180910390fd5b600260008273ffffffffffffffffffffffffffffffffffffffff1673ffffffffffffffffffffffffffffffffffffffff16815260200190815260200160002060060154600260008373ffffffffffffffffffffffffffffffffffffffff1673ffffffffffffffffffffffffffffffffffffffff16815260200190815260200160002060090160003373ffffffffffffffffffffffffffffffffffffffff1673ffffffffffffffffffffffffffffffffffffffff16815260200190815260200160002054346114d491906149be565b1015611515576040517f08c379a000000000000000000000000000000000000000000000000000000000815260040161150c90614844565b60405180910390fd5b6000600260008373ffffffffffffffffffffffffffffffffffffffff1673ffffffffffffffffffffffffffffffffffffffff16815260200190815260200160002060080154600260008473ffffffffffffffffffffffffffffffffffffffff1673ffffffffffffffffffffffffffffffffffffffff168152602001908152602001600020600701541161167f576115ee600260008473ffffffffffffffffffffffffffffffffffffffff1673ffffffffffffffffffffffffffffffffffffffff1681526020019081526020016000206007015483612a17565b6001600260008573ffffffffffffffffffffffffffffffffffffffff1673ffffffffffffffffffffffffffffffffffffffff1681526020019081526020016000206007015461163d9190614a9f565b81518110611674577f4e487b7100000000000000000000000000000000000000000000000000000000600052603260045260246000fd5b602002602001015190505b600073ffffffffffffffffffffffffffffffffffffffff168173ffffffffffffffffffffffffffffffffffffffff16146117ff57600260008373ffffffffffffffffffffffffffffffffffffffff1673ffffffffffffffffffffffffffffffffffffffff16815260200190815260200160002060090160008273ffffffffffffffffffffffffffffffffffffffff1673ffffffffffffffffffffffffffffffffffffffff16815260200190815260200160002054600260008473ffffffffffffffffffffffffffffffffffffffff1673ffffffffffffffffffffffffffffffffffffffff16815260200190815260200160002060090160003373ffffffffffffffffffffffffffffffffffffffff1673ffffffffffffffffffffffffffffffffffffffff16815260200190815260200160002054346117be91906149be565b116117fe576040517f08c379a00000000000000000000000000000000000000000000000000000000081526004016117f590614764565b60405180910390fd5b5b600073ffffffffffffffffffffffffffffffffffffffff16600260008473ffffffffffffffffffffffffffffffffffffffff1673ffffffffffffffffffffffffffffffffffffffff168152602001908152602001600020600a0160003373ffffffffffffffffffffffffffffffffffffffff1673ffffffffffffffffffffffffffffffffffffffff16815260200190815260200160002060009054906101000a900473ffffffffffffffffffffffffffffffffffffffff1673ffffffffffffffffffffffffffffffffffffffff1614156118e3576118de3334846132a1565b6118ef565b6118ee3334846136ba565b5b61012c42600260008573ffffffffffffffffffffffffffffffffffffffff1673ffffffffffffffffffffffffffffffffffffffff168152602001908152602001600020600301546119409190614a9f565b10156119dd5761012c600260008473ffffffffffffffffffffffffffffffffffffffff1673ffffffffffffffffffffffffffffffffffffffff1681526020019081526020016000206003015461199691906149be565b600260008473ffffffffffffffffffffffffffffffffffffffff1673ffffffffffffffffffffffffffffffffffffffff168152602001908152602001600020600301819055505b8173ffffffffffffffffffffffffffffffffffffffff163373ffffffffffffffffffffffffffffffffffffffff167f5118828676a5960cb632c3ded45cd5703dcdee61941d17541ccfdaf4b5d5632f600260008673ffffffffffffffffffffffffffffffffffffffff1673ffffffffffffffffffffffffffffffffffffffff16815260200190815260200160002060090160003373ffffffffffffffffffffffffffffffffffffffff1673ffffffffffffffffffffffffffffffffffffffff1681526020019081526020016000205442604051611abb9291906148df565b60405180910390a35050565b60026000541415611b0d576040517f08c379a0000000000000000000000000000000000000000000000000000000008152600401611b0490614884565b60405180910390fd5b6002600081905550600260008273ffffffffffffffffffffffffffffffffffffffff1673ffffffffffffffffffffffffffffffffffffffff16815260200190815260200160002060020160009054906101000a900460ff16611ba4576040517f08c379a0000000000000000000000000000000000000000000000000000000008152600401611b9b906147c4565b60405180910390fd5b600260008273ffffffffffffffffffffffffffffffffffffffff1673ffffffffffffffffffffffffffffffffffffffff16815260200190815260200160002060030154421015611c29576040517f08c379a0000000000000000000000000000000000000000000000000000000008152600401611c2090614744565b60405180910390fd5b600260008273ffffffffffffffffffffffffffffffffffffffff1673ffffffffffffffffffffffffffffffffffffffff16815260200190815260200160002060020160019054906101000a900460ff1615611cb9576040517f08c379a0000000000000000000000000000000000000000000000000000000008152600401611cb090614864565b60405180910390fd5b600260008273ffffffffffffffffffffffffffffffffffffffff1673ffffffffffffffffffffffffffffffffffffffff16815260200190815260200160002060000160006001815260200190815260200160002060009054906101000a900473ffffffffffffffffffffffffffffffffffffffff1673ffffffffffffffffffffffffffffffffffffffff163373ffffffffffffffffffffffffffffffffffffffff1614611d9b576040517f08c379a0000000000000000000000000000000000000000000000000000000008152600401611d9290614704565b60405180910390fd5b6000600260008373ffffffffffffffffffffffffffffffffffffffff1673ffffffffffffffffffffffffffffffffffffffff168152602001908152602001600020600701549050611dec6001613754565b60008290506001600260008573ffffffffffffffffffffffffffffffffffffffff1673ffffffffffffffffffffffffffffffffffffffff16815260200190815260200160002060020160016101000a81548160ff0219169083151502179055506000600260008573ffffffffffffffffffffffffffffffffffffffff1673ffffffffffffffffffffffffffffffffffffffff16815260200190815260200160002060020160006101000a81548160ff0219169083151502179055506000611eb38385612a17565b905060005b81518110156129b757600073ffffffffffffffffffffffffffffffffffffffff16828281518110611f12577f4e487b7100000000000000000000000000000000000000000000000000000000600052603260045260246000fd5b602002602001015173ffffffffffffffffffffffffffffffffffffffff161461272c5760008373ffffffffffffffffffffffffffffffffffffffff16631c351a9d88600260008a73ffffffffffffffffffffffffffffffffffffffff1673ffffffffffffffffffffffffffffffffffffffff16815260200190815260200160002060000160006001815260200190815260200160002060009054906101000a900473ffffffffffffffffffffffffffffffffffffffff166040518363ffffffff1660e01b8152600401611fe69291906146d4565b602060405180830381600087803b15801561200057600080fd5b505af1158015612014573d6000803e3d6000fd5b505050506040513d601f19601f820116820180604052508101906120389190614153565b905060008673ffffffffffffffffffffffffffffffffffffffff16636352211e836040518263ffffffff1660e01b815260040161207591906148c4565b60206040518083038186803b15801561208d57600080fd5b505afa1580156120a1573d6000803e3d6000fd5b505050506040513d601f19601f820116820180604052508101906120c59190614038565b90508673ffffffffffffffffffffffffffffffffffffffff166323b872dd8286868151811061211d577f4e487b7100000000000000000000000000000000000000000000000000000000600052603260045260246000fd5b6020026020010151856040518463ffffffff1660e01b8152600401612144939291906145b2565b600060405180830381600087803b15801561215e57600080fd5b505af1158015612172573d6000803e3d6000fd5b50505050600260008873ffffffffffffffffffffffffffffffffffffffff1673ffffffffffffffffffffffffffffffffffffffff16815260200190815260200160002060000160006001815260200190815260200160002060009054906101000a900473ffffffffffffffffffffffffffffffffffffffff1673ffffffffffffffffffffffffffffffffffffffff166108fc6064600260008b73ffffffffffffffffffffffffffffffffffffffff1673ffffffffffffffffffffffffffffffffffffffff16815260200190815260200160002060010160006001815260200190815260200160002054600260008c73ffffffffffffffffffffffffffffffffffffffff1673ffffffffffffffffffffffffffffffffffffffff16815260200190815260200160002060090160008989815181106122d8577f4e487b7100000000000000000000000000000000000000000000000000000000600052603260045260246000fd5b602002602001015173ffffffffffffffffffffffffffffffffffffffff1673ffffffffffffffffffffffffffffffffffffffff168152602001908152602001600020546123259190614a45565b61232f9190614a14565b9081150290604051600060405180830381858888f1935050505015801561235a573d6000803e3d6000fd5b50600260008873ffffffffffffffffffffffffffffffffffffffff1673ffffffffffffffffffffffffffffffffffffffff16815260200190815260200160002060000160006002815260200190815260200160002060009054906101000a900473ffffffffffffffffffffffffffffffffffffffff1673ffffffffffffffffffffffffffffffffffffffff166108fc6064600260008b73ffffffffffffffffffffffffffffffffffffffff1673ffffffffffffffffffffffffffffffffffffffff16815260200190815260200160002060010160006002815260200190815260200160002054600260008c73ffffffffffffffffffffffffffffffffffffffff1673ffffffffffffffffffffffffffffffffffffffff16815260200190815260200160002060090160008989815181106124bd577f4e487b7100000000000000000000000000000000000000000000000000000000600052603260045260246000fd5b602002602001015173ffffffffffffffffffffffffffffffffffffffff1673ffffffffffffffffffffffffffffffffffffffff1681526020019081526020016000205461250a9190614a45565b6125149190614a14565b9081150290604051600060405180830381858888f1935050505015801561253f573d6000803e3d6000fd5b50600260008873ffffffffffffffffffffffffffffffffffffffff1673ffffffffffffffffffffffffffffffffffffffff16815260200190815260200160002060000160006003815260200190815260200160002060009054906101000a900473ffffffffffffffffffffffffffffffffffffffff1673ffffffffffffffffffffffffffffffffffffffff166108fc6064600260008b73ffffffffffffffffffffffffffffffffffffffff1673ffffffffffffffffffffffffffffffffffffffff16815260200190815260200160002060010160006003815260200190815260200160002054600260008c73ffffffffffffffffffffffffffffffffffffffff1673ffffffffffffffffffffffffffffffffffffffff16815260200190815260200160002060090160008989815181106126a2577f4e487b7100000000000000000000000000000000000000000000000000000000600052603260045260246000fd5b602002602001015173ffffffffffffffffffffffffffffffffffffffff1673ffffffffffffffffffffffffffffffffffffffff168152602001908152602001600020546126ef9190614a45565b6126f99190614a14565b9081150290604051600060405180830381858888f19350505050158015612724573d6000803e3d6000fd5b5050506129a4565b60008373ffffffffffffffffffffffffffffffffffffffff16631c351a9d88600260008a73ffffffffffffffffffffffffffffffffffffffff1673ffffffffffffffffffffffffffffffffffffffff16815260200190815260200160002060000160006001815260200190815260200160002060009054906101000a900473ffffffffffffffffffffffffffffffffffffffff166040518363ffffffff1660e01b81526004016127dd9291906146d4565b602060405180830381600087803b1580156127f757600080fd5b505af115801561280b573d6000803e3d6000fd5b505050506040513d601f19601f8201168201806040525081019061282f9190614153565b905060008673ffffffffffffffffffffffffffffffffffffffff16636352211e836040518263ffffffff1660e01b815260040161286c91906148c4565b60206040518083038186803b15801561288457600080fd5b505afa158015612898573d6000803e3d6000fd5b505050506040513d601f19601f820116820180604052508101906128bc9190614038565b90508673ffffffffffffffffffffffffffffffffffffffff166323b872dd82600260008b73ffffffffffffffffffffffffffffffffffffffff1673ffffffffffffffffffffffffffffffffffffffff16815260200190815260200160002060000160006001815260200190815260200160002060009054906101000a900473ffffffffffffffffffffffffffffffffffffffff16856040518463ffffffff1660e01b815260040161296f939291906145b2565b600060405180830381600087803b15801561298957600080fd5b505af115801561299d573d6000803e3d6000fd5b5050505050505b80806129af90614bb8565b915050611eb8565b508373ffffffffffffffffffffffffffffffffffffffff167f4e1954dd133afa794ca5eedfaf47724e1b20a296f2ef1c22c9fedbcf0d06d0968242604051612a0092919061460b565b60405180910390a250505060016000819055505050565b60606000600260008473ffffffffffffffffffffffffffffffffffffffff1673ffffffffffffffffffffffffffffffffffffffff16815260200190815260200160002060080154600260008573ffffffffffffffffffffffffffffffffffffffff1673ffffffffffffffffffffffffffffffffffffffff168152602001908152602001600020600701541115612af157600260008473ffffffffffffffffffffffffffffffffffffffff1673ffffffffffffffffffffffffffffffffffffffff168152602001908152602001600020600801549050612b37565b600260008473ffffffffffffffffffffffffffffffffffffffff1673ffffffffffffffffffffffffffffffffffffffff1681526020019081526020016000206007015490505b60008167ffffffffffffffff811115612b79577f4e487b7100000000000000000000000000000000000000000000000000000000600052604160045260246000fd5b604051908082528060200260200182016040528015612ba75781602001602082028036833780820191505090505b5090506000600260008673ffffffffffffffffffffffffffffffffffffffff1673ffffffffffffffffffffffffffffffffffffffff168152602001908152602001600020600a016000600173ffffffffffffffffffffffffffffffffffffffff1673ffffffffffffffffffffffffffffffffffffffff16815260200190815260200160002060009054906101000a900473ffffffffffffffffffffffffffffffffffffffff16905060005b83811015612d815781838281518110612c94577f4e487b7100000000000000000000000000000000000000000000000000000000600052603260045260246000fd5b602002602001019073ffffffffffffffffffffffffffffffffffffffff16908173ffffffffffffffffffffffffffffffffffffffff1681525050600260008773ffffffffffffffffffffffffffffffffffffffff1673ffffffffffffffffffffffffffffffffffffffff168152602001908152602001600020600a0160008373ffffffffffffffffffffffffffffffffffffffff1673ffffffffffffffffffffffffffffffffffffffff16815260200190815260200160002060009054906101000a900473ffffffffffffffffffffffffffffffffffffffff16915080612d7a90614bb8565b9050612c52565b5081935050505092915050565b6000600260008373ffffffffffffffffffffffffffffffffffffffff1673ffffffffffffffffffffffffffffffffffffffff16815260200190815260200160002060090160003373ffffffffffffffffffffffffffffffffffffffff1673ffffffffffffffffffffffffffffffffffffffff168152602001908152602001600020549050919050565b60018060000154905081565b600073ffffffffffffffffffffffffffffffffffffffff16600260008373ffffffffffffffffffffffffffffffffffffffff1673ffffffffffffffffffffffffffffffffffffffff168152602001908152602001600020600a0160008473ffffffffffffffffffffffffffffffffffffffff1673ffffffffffffffffffffffffffffffffffffffff16815260200190815260200160002060009054906101000a900473ffffffffffffffffffffffffffffffffffffffff1673ffffffffffffffffffffffffffffffffffffffff161415612efc57600080fd5b6000612f08838361376a565b9050600260008373ffffffffffffffffffffffffffffffffffffffff1673ffffffffffffffffffffffffffffffffffffffff168152602001908152602001600020600a0160008473ffffffffffffffffffffffffffffffffffffffff1673ffffffffffffffffffffffffffffffffffffffff16815260200190815260200160002060009054906101000a900473ffffffffffffffffffffffffffffffffffffffff16600260008473ffffffffffffffffffffffffffffffffffffffff1673ffffffffffffffffffffffffffffffffffffffff168152602001908152602001600020600a0160008373ffffffffffffffffffffffffffffffffffffffff1673ffffffffffffffffffffffffffffffffffffffff16815260200190815260200160002060006101000a81548173ffffffffffffffffffffffffffffffffffffffff021916908373ffffffffffffffffffffffffffffffffffffffff1602179055506000600260008473ffffffffffffffffffffffffffffffffffffffff1673ffffffffffffffffffffffffffffffffffffffff168152602001908152602001600020600a0160008573ffffffffffffffffffffffffffffffffffffffff1673ffffffffffffffffffffffffffffffffffffffff16815260200190815260200160002060006101000a81548173ffffffffffffffffffffffffffffffffffffffff021916908373ffffffffffffffffffffffffffffffffffffffff1602179055506000600260008473ffffffffffffffffffffffffffffffffffffffff1673ffffffffffffffffffffffffffffffffffffffff16815260200190815260200160002060090160008573ffffffffffffffffffffffffffffffffffffffff1673ffffffffffffffffffffffffffffffffffffffff16815260200190815260200160002081905550600260008373ffffffffffffffffffffffffffffffffffffffff1673ffffffffffffffffffffffffffffffffffffffff16815260200190815260200160002060080160008154809291906131fe90614b5d565b9190505550505050565b61329e8160405160240161321c9190614528565b6040516020818303038152906040527f2c2ecbc2000000000000000000000000000000000000000000000000000000007bffffffffffffffffffffffffffffffffffffffffffffffffffffffff19166020820180517bffffffffffffffffffffffffffffffffffffffffffffffffffffffff8381831617835250505050613911565b50565b600073ffffffffffffffffffffffffffffffffffffffff16600260008373ffffffffffffffffffffffffffffffffffffffff1673ffffffffffffffffffffffffffffffffffffffff168152602001908152602001600020600a0160008573ffffffffffffffffffffffffffffffffffffffff1673ffffffffffffffffffffffffffffffffffffffff16815260200190815260200160002060009054906101000a900473ffffffffffffffffffffffffffffffffffffffff1673ffffffffffffffffffffffffffffffffffffffff16146133af576040517f08c379a00000000000000000000000000000000000000000000000000000000081526004016133a6906147e4565b60405180910390fd5b60006133bb838361393a565b905082600260008473ffffffffffffffffffffffffffffffffffffffff1673ffffffffffffffffffffffffffffffffffffffff16815260200190815260200160002060090160008673ffffffffffffffffffffffffffffffffffffffff1673ffffffffffffffffffffffffffffffffffffffff16815260200190815260200160002081905550600260008373ffffffffffffffffffffffffffffffffffffffff1673ffffffffffffffffffffffffffffffffffffffff168152602001908152602001600020600a0160008273ffffffffffffffffffffffffffffffffffffffff1673ffffffffffffffffffffffffffffffffffffffff16815260200190815260200160002060009054906101000a900473ffffffffffffffffffffffffffffffffffffffff16600260008473ffffffffffffffffffffffffffffffffffffffff1673ffffffffffffffffffffffffffffffffffffffff168152602001908152602001600020600a0160008673ffffffffffffffffffffffffffffffffffffffff1673ffffffffffffffffffffffffffffffffffffffff16815260200190815260200160002060006101000a81548173ffffffffffffffffffffffffffffffffffffffff021916908373ffffffffffffffffffffffffffffffffffffffff16021790555083600260008473ffffffffffffffffffffffffffffffffffffffff1673ffffffffffffffffffffffffffffffffffffffff168152602001908152602001600020600a0160008373ffffffffffffffffffffffffffffffffffffffff1673ffffffffffffffffffffffffffffffffffffffff16815260200190815260200160002060006101000a81548173ffffffffffffffffffffffffffffffffffffffff021916908373ffffffffffffffffffffffffffffffffffffffff160217905550600260008373ffffffffffffffffffffffffffffffffffffffff1673ffffffffffffffffffffffffffffffffffffffff16815260200190815260200160002060080160008154809291906136af90614bb8565b919050555050505050565b61374f8383600260008573ffffffffffffffffffffffffffffffffffffffff1673ffffffffffffffffffffffffffffffffffffffff16815260200190815260200160002060090160008773ffffffffffffffffffffffffffffffffffffffff1673ffffffffffffffffffffffffffffffffffffffff1681526020019081526020016000205461374991906149be565b83613ab1565b505050565b6001816000016000828254019250508190555050565b600080600190505b600173ffffffffffffffffffffffffffffffffffffffff16600260008573ffffffffffffffffffffffffffffffffffffffff1673ffffffffffffffffffffffffffffffffffffffff168152602001908152602001600020600a0160008373ffffffffffffffffffffffffffffffffffffffff1673ffffffffffffffffffffffffffffffffffffffff16815260200190815260200160002060009054906101000a900473ffffffffffffffffffffffffffffffffffffffff1673ffffffffffffffffffffffffffffffffffffffff161461390557613850848285613cf3565b1561385e578091505061390b565b600260008473ffffffffffffffffffffffffffffffffffffffff1673ffffffffffffffffffffffffffffffffffffffff168152602001908152602001600020600a0160008273ffffffffffffffffffffffffffffffffffffffff1673ffffffffffffffffffffffffffffffffffffffff16815260200190815260200160002060009054906101000a900473ffffffffffffffffffffffffffffffffffffffff169050613772565b60009150505b92915050565b60008151905060006a636f6e736f6c652e6c6f679050602083016000808483855afa5050505050565b600080600190505b600115613aa9576139f48185600260008773ffffffffffffffffffffffffffffffffffffffff1673ffffffffffffffffffffffffffffffffffffffff168152602001908152602001600020600a0160008573ffffffffffffffffffffffffffffffffffffffff1673ffffffffffffffffffffffffffffffffffffffff16815260200190815260200160002060009054906101000a900473ffffffffffffffffffffffffffffffffffffffff1686613dcc565b15613a025780915050613aab565b600260008473ffffffffffffffffffffffffffffffffffffffff1673ffffffffffffffffffffffffffffffffffffffff168152602001908152602001600020600a0160008273ffffffffffffffffffffffffffffffffffffffff1673ffffffffffffffffffffffffffffffffffffffff16815260200190815260200160002060009054906101000a900473ffffffffffffffffffffffffffffffffffffffff169050613942565b505b92915050565b600073ffffffffffffffffffffffffffffffffffffffff16600260008373ffffffffffffffffffffffffffffffffffffffff1673ffffffffffffffffffffffffffffffffffffffff168152602001908152602001600020600a0160008573ffffffffffffffffffffffffffffffffffffffff1673ffffffffffffffffffffffffffffffffffffffff16815260200190815260200160002060009054906101000a900473ffffffffffffffffffffffffffffffffffffffff1673ffffffffffffffffffffffffffffffffffffffff161415613b8a57600080fd5b6000613b96848361376a565b90506000600260008473ffffffffffffffffffffffffffffffffffffffff1673ffffffffffffffffffffffffffffffffffffffff168152602001908152602001600020600a0160008673ffffffffffffffffffffffffffffffffffffffff1673ffffffffffffffffffffffffffffffffffffffff16815260200190815260200160002060009054906101000a900473ffffffffffffffffffffffffffffffffffffffff169050613c4882858386613dcc565b15613cd65783600260008573ffffffffffffffffffffffffffffffffffffffff1673ffffffffffffffffffffffffffffffffffffffff16815260200190815260200160002060090160008773ffffffffffffffffffffffffffffffffffffffff1673ffffffffffffffffffffffffffffffffffffffff16815260200190815260200160002081905550613cec565b613ce08584612e23565b613ceb8585856132a1565b5b5050505050565b60008373ffffffffffffffffffffffffffffffffffffffff16600260008473ffffffffffffffffffffffffffffffffffffffff1673ffffffffffffffffffffffffffffffffffffffff168152602001908152602001600020600a0160008573ffffffffffffffffffffffffffffffffffffffff1673ffffffffffffffffffffffffffffffffffffffff16815260200190815260200160002060009054906101000a900473ffffffffffffffffffffffffffffffffffffffff1673ffffffffffffffffffffffffffffffffffffffff161490509392505050565b6000600173ffffffffffffffffffffffffffffffffffffffff168573ffffffffffffffffffffffffffffffffffffffff161480613e88575083600260008473ffffffffffffffffffffffffffffffffffffffff1673ffffffffffffffffffffffffffffffffffffffff16815260200190815260200160002060090160008773ffffffffffffffffffffffffffffffffffffffff1673ffffffffffffffffffffffffffffffffffffffff1681526020019081526020016000205410155b8015613f495750600173ffffffffffffffffffffffffffffffffffffffff168373ffffffffffffffffffffffffffffffffffffffff161480613f485750600260008373ffffffffffffffffffffffffffffffffffffffff1673ffffffffffffffffffffffffffffffffffffffff16815260200190815260200160002060090160008473ffffffffffffffffffffffffffffffffffffffff1673ffffffffffffffffffffffffffffffffffffffff1681526020019081526020016000205484115b5b9050949350505050565b6000613f66613f618461492d565b614908565b905082815260208101848484011115613f7e57600080fd5b613f89848285614b1b565b509392505050565b600081359050613fa081614f9e565b92915050565b600081519050613fb581614f9e565b92915050565b600082601f830112613fcc57600080fd5b8135613fdc848260208601613f53565b91505092915050565b600081359050613ff481614fb5565b92915050565b60008151905061400981614fb5565b92915050565b60006020828403121561402157600080fd5b600061402f84828501613f91565b91505092915050565b60006020828403121561404a57600080fd5b600061405884828501613fa6565b91505092915050565b600080600080600080600060e0888a03121561407c57600080fd5b600061408a8a828b01613f91565b975050602061409b8a828b01613f91565b96505060406140ac8a828b01613f91565b95505060606140bd8a828b01613f91565b94505060806140ce8a828b01613fe5565b93505060a06140df8a828b01613fe5565b92505060c06140f08a828b01613fe5565b91505092959891949750929550565b6000806040838503121561411257600080fd5b600083013567ffffffffffffffff81111561412c57600080fd5b61413885828601613fbb565b925050602061414985828601613f91565b9150509250929050565b60006020828403121561416557600080fd5b600061417384828501613ffa565b91505092915050565b6000806040838503121561418f57600080fd5b600061419d85828601613fe5565b92505060206141ae85828601613f91565b9150509250929050565b600080600080608085870312156141ce57600080fd5b60006141dc87828801613fe5565b94505060206141ed87828801613fe5565b93505060406141fe87828801613fe5565b925050606061420f87828801613f91565b91505092959194509250565b60006142278383614233565b60208301905092915050565b61423c81614ad3565b82525050565b61424b81614ad3565b82525050565b600061425c8261496e565b6142668185614991565b93506142718361495e565b8060005b838110156142a2578151614289888261421b565b975061429483614984565b925050600181019050614275565b5085935050505092915050565b6142b881614ae5565b82525050565b60006142c982614979565b6142d381856149ad565b93506142e3818560208601614b2a565b6142ec81614c8e565b840191505092915050565b60006143046023836149ad565b915061430f82614c9f565b604082019050919050565b6000614327601e836149ad565b915061433282614cee565b602082019050919050565b600061434a6019836149ad565b915061435582614d17565b602082019050919050565b600061436d602a836149ad565b915061437882614d40565b604082019050919050565b60006143906006836149ad565b915061439b82614d8f565b602082019050919050565b60006143b3602a836149ad565b91506143be82614db8565b604082019050919050565b60006143d6601f836149ad565b91506143e182614e07565b602082019050919050565b60006143f96029836149ad565b915061440482614e30565b604082019050919050565b600061441c6010836149ad565b915061442782614e7f565b602082019050919050565b600061443f600c836149ad565b915061444a82614ea8565b602082019050919050565b60006144626000836149a2565b915061446d82614ed1565b600082019050919050565b60006144856026836149ad565b915061449082614ed4565b604082019050919050565b60006144a86016836149ad565b91506144b382614f23565b602082019050919050565b60006144cb601f836149ad565b91506144d682614f4c565b602082019050919050565b60006144ee6012836149ad565b91506144f982614f75565b602082019050919050565b61450d81614b11565b82525050565b600061451e82614455565b9150819050919050565b600060208201905061453d6000830184614242565b92915050565b600060e082019050614558600083018a614242565b6145656020830189614242565b6145726040830188614242565b61457f6060830187614504565b61458c6080830186614504565b61459960a0830185614504565b6145a660c0830184614242565b98975050505050505050565b60006060820190506145c76000830186614242565b6145d46020830185614242565b6145e16040830184614504565b949350505050565b600060208201905081810360008301526146038184614251565b905092915050565b600060408201905081810360008301526146258185614251565b90506146346020830184614504565b9392505050565b600060208201905061465060008301846142af565b92915050565b60006101008201905061466c600083018b6142af565b614679602083018a6142af565b6146866040830189614504565b6146936060830188614504565b6146a06080830187614242565b6146ad60a0830186614504565b6146ba60c0830185614504565b6146c760e0830184614504565b9998505050505050505050565b600060408201905081810360008301526146ee81856142be565b90506146fd6020830184614242565b9392505050565b6000602082019050818103600083015261471d816142f7565b9050919050565b6000602082019050818103600083015261473d8161431a565b9050919050565b6000602082019050818103600083015261475d8161433d565b9050919050565b6000602082019050818103600083015261477d81614360565b9050919050565b6000602082019050818103600083015261479d81614383565b9050919050565b600060208201905081810360008301526147bd816143a6565b9050919050565b600060208201905081810360008301526147dd816143c9565b9050919050565b600060208201905081810360008301526147fd816143ec565b9050919050565b6000602082019050818103600083015261481d8161440f565b9050919050565b6000602082019050818103600083015261483d81614432565b9050919050565b6000602082019050818103600083015261485d81614478565b9050919050565b6000602082019050818103600083015261487d8161449b565b9050919050565b6000602082019050818103600083015261489d816144be565b9050919050565b600060208201905081810360008301526148bd816144e1565b9050919050565b60006020820190506148d96000830184614504565b92915050565b60006040820190506148f46000830185614504565b6149016020830184614504565b9392505050565b6000614912614923565b905061491e8282614b87565b919050565b6000604051905090565b600067ffffffffffffffff82111561494857614947614c5f565b5b61495182614c8e565b9050602081019050919050565b6000819050602082019050919050565b600081519050919050565b600081519050919050565b6000602082019050919050565b600082825260208201905092915050565b600081905092915050565b600082825260208201905092915050565b60006149c982614b11565b91506149d483614b11565b9250827fffffffffffffffffffffffffffffffffffffffffffffffffffffffffffffffff03821115614a0957614a08614c01565b5b828201905092915050565b6000614a1f82614b11565b9150614a2a83614b11565b925082614a3a57614a39614c30565b5b828204905092915050565b6000614a5082614b11565b9150614a5b83614b11565b9250817fffffffffffffffffffffffffffffffffffffffffffffffffffffffffffffffff0483118215151615614a9457614a93614c01565b5b828202905092915050565b6000614aaa82614b11565b9150614ab583614b11565b925082821015614ac857614ac7614c01565b5b828203905092915050565b6000614ade82614af1565b9050919050565b60008115159050919050565b600073ffffffffffffffffffffffffffffffffffffffff82169050919050565b6000819050919050565b82818337600083830152505050565b60005b83811015614b48578082015181840152602081019050614b2d565b83811115614b57576000848401525b50505050565b6000614b6882614b11565b91506000821415614b7c57614b7b614c01565b5b600182039050919050565b614b9082614c8e565b810181811067ffffffffffffffff82111715614baf57614bae614c5f565b5b80604052505050565b6000614bc382614b11565b91507fffffffffffffffffffffffffffffffffffffffffffffffffffffffffffffffff821415614bf657614bf5614c01565b5b600182019050919050565b7f4e487b7100000000000000000000000000000000000000000000000000000000600052601160045260246000fd5b7f4e487b7100000000000000000000000000000000000000000000000000000000600052601260045260246000fd5b7f4e487b7100000000000000000000000000000000000000000000000000000000600052604160045260246000fd5b6000601f19601f8301169050919050565b7f4f6e6c79207468652073656c6c65722063616e20656e6420746865206175637460008201527f696f6e0000000000000000000000000000000000000000000000000000000000602082015250565b7f596f7520617265206e6f742074686520636f6e7472616374206f776e65720000600082015250565b7f41756374696f6e206973207374696c6c206f6e676f696e672100000000000000600082015250565b7f4d75737420626964206d6f7265207468616e20746865206c617374206869676860008201527f6573742062696464657200000000000000000000000000000000000000000000602082015250565b7f456e646564210000000000000000000000000000000000000000000000000000600082015250565b7f57696e6e696e6720426964646572732063616e6e6f742077697468647261772060008201527f7468656972206269647300000000000000000000000000000000000000000000602082015250565b7f5468652041756374696f6e206861736e27742073746172746564207965742e00600082015250565b7f596f75206d75737420696e637265617365207468652062696420746f2061646460008201527f2061206269646465720000000000000000000000000000000000000000000000602082015250565b7f416c726561647920537461727465642100000000000000000000000000000000600082015250565b7f4e6f7420737461727465642e0000000000000000000000000000000000000000600082015250565b50565b7f4d7573742042696420486967686572207468616e206f7220657175616c20746f60008201527f20466c6f6f720000000000000000000000000000000000000000000000000000602082015250565b7f41756374696f6e20616c726561647920656e6465642100000000000000000000600082015250565b7f5265656e7472616e637947756172643a207265656e7472616e742063616c6c00600082015250565b7f436f756c64206e6f742077697468647261770000000000000000000000000000600082015250565b614fa781614ad3565b8114614fb257600080fd5b50565b614fbe81614b11565b8114614fc957600080fd5b5056fea2646970667358221220f23a6a9f80579d2603115c883aa1ef30ad7d3d9e02550d2b9e756841f5d204bf64736f6c63430008040033",
  "linkReferences": {},
  "deployedLinkReferences": {}
}