{
  "_format": "hh-sol-artifact-1",
  "contractName": "LiveMintFactory",
  "sourceName": "contracts/LiveMintFactoryWAuction.sol",
  "abi": [
    {
      "anonymous": false,
      "inputs": [
        {
          "indexed": true,
          "internalType": "address",
          "name": "owner",
          "type": "address"
        },
        {
          "indexed": true,
          "internalType": "address",
          "name": "approved",
          "type": "address"
        },
        {
          "indexed": true,
          "internalType": "uint256",
          "name": "tokenId",
          "type": "uint256"
        }
      ],
      "name": "Approval",
      "type": "event"
    },
    {
      "anonymous": false,
      "inputs": [
        {
          "indexed": true,
          "internalType": "address",
          "name": "owner",
          "type": "address"
        },
        {
          "indexed": true,
          "internalType": "address",
          "name": "operator",
          "type": "address"
        },
        {
          "indexed": false,
          "internalType": "bool",
          "name": "approved",
          "type": "bool"
        }
      ],
      "name": "ApprovalForAll",
      "type": "event"
    },
    {
      "anonymous": false,
      "inputs": [
        {
          "indexed": false,
          "internalType": "uint8",
          "name": "version",
          "type": "uint8"
        }
      ],
      "name": "Initialized",
      "type": "event"
    },
    {
      "anonymous": false,
      "inputs": [
        {
          "indexed": true,
          "internalType": "bytes32",
          "name": "role",
          "type": "bytes32"
        },
        {
          "indexed": true,
          "internalType": "bytes32",
          "name": "previousAdminRole",
          "type": "bytes32"
        },
        {
          "indexed": true,
          "internalType": "bytes32",
          "name": "newAdminRole",
          "type": "bytes32"
        }
      ],
      "name": "RoleAdminChanged",
      "type": "event"
    },
    {
      "anonymous": false,
      "inputs": [
        {
          "indexed": true,
          "internalType": "bytes32",
          "name": "role",
          "type": "bytes32"
        },
        {
          "indexed": true,
          "internalType": "address",
          "name": "account",
          "type": "address"
        },
        {
          "indexed": true,
          "internalType": "address",
          "name": "sender",
          "type": "address"
        }
      ],
      "name": "RoleGranted",
      "type": "event"
    },
    {
      "anonymous": false,
      "inputs": [
        {
          "indexed": true,
          "internalType": "bytes32",
          "name": "role",
          "type": "bytes32"
        },
        {
          "indexed": true,
          "internalType": "address",
          "name": "account",
          "type": "address"
        },
        {
          "indexed": true,
          "internalType": "address",
          "name": "sender",
          "type": "address"
        }
      ],
      "name": "RoleRevoked",
      "type": "event"
    },
    {
      "anonymous": false,
      "inputs": [
        {
          "indexed": true,
          "internalType": "address",
          "name": "from",
          "type": "address"
        },
        {
          "indexed": true,
          "internalType": "address",
          "name": "to",
          "type": "address"
        },
        {
          "indexed": true,
          "internalType": "uint256",
          "name": "tokenId",
          "type": "uint256"
        }
      ],
      "name": "Transfer",
      "type": "event"
    },
    {
      "inputs": [],
      "name": "DEFAULT_ADMIN_ROLE",
      "outputs": [
        {
          "internalType": "bytes32",
          "name": "",
          "type": "bytes32"
        }
      ],
      "stateMutability": "view",
      "type": "function"
    },
    {
      "inputs": [
        {
          "internalType": "address",
          "name": "to",
          "type": "address"
        },
        {
          "internalType": "uint256",
          "name": "tokenId",
          "type": "uint256"
        }
      ],
      "name": "approve",
      "outputs": [],
      "stateMutability": "nonpayable",
      "type": "function"
    },
    {
      "inputs": [
        {
          "internalType": "address",
          "name": "owner",
          "type": "address"
        }
      ],
      "name": "balanceOf",
      "outputs": [
        {
          "internalType": "uint256",
          "name": "",
          "type": "uint256"
        }
      ],
      "stateMutability": "view",
      "type": "function"
    },
    {
      "inputs": [
        {
          "internalType": "uint256",
          "name": "tokenId",
          "type": "uint256"
        }
      ],
      "name": "getApproved",
      "outputs": [
        {
          "internalType": "address",
          "name": "",
          "type": "address"
        }
      ],
      "stateMutability": "view",
      "type": "function"
    },
    {
      "inputs": [],
      "name": "getCurrentId",
      "outputs": [
        {
          "internalType": "uint256",
          "name": "",
          "type": "uint256"
        }
      ],
      "stateMutability": "view",
      "type": "function"
    },
    {
      "inputs": [
        {
          "internalType": "bytes32",
          "name": "role",
          "type": "bytes32"
        }
      ],
      "name": "getRoleAdmin",
      "outputs": [
        {
          "internalType": "bytes32",
          "name": "",
          "type": "bytes32"
        }
      ],
      "stateMutability": "view",
      "type": "function"
    },
    {
      "inputs": [
        {
          "internalType": "bytes32",
          "name": "role",
          "type": "bytes32"
        },
        {
          "internalType": "address",
          "name": "account",
          "type": "address"
        }
      ],
      "name": "grantRole",
      "outputs": [],
      "stateMutability": "nonpayable",
      "type": "function"
    },
    {
      "inputs": [
        {
          "internalType": "bytes32",
          "name": "role",
          "type": "bytes32"
        },
        {
          "internalType": "address",
          "name": "account",
          "type": "address"
        }
      ],
      "name": "hasRole",
      "outputs": [
        {
          "internalType": "bool",
          "name": "",
          "type": "bool"
        }
      ],
      "stateMutability": "view",
      "type": "function"
    },
    {
      "inputs": [
        {
          "internalType": "string",
          "name": "name",
          "type": "string"
        },
        {
          "internalType": "string",
          "name": "symbol",
          "type": "string"
        },
        {
          "internalType": "address",
          "name": "auctionAddress",
          "type": "address"
        },
        {
          "internalType": "uint256",
          "name": "_mintAmount",
          "type": "uint256"
        },
        {
          "internalType": "uint96",
          "name": "_royaltyValue",
          "type": "uint96"
        }
      ],
      "name": "initialize",
      "outputs": [],
      "stateMutability": "nonpayable",
      "type": "function"
    },
    {
      "inputs": [
        {
          "internalType": "address",
          "name": "owner",
          "type": "address"
        },
        {
          "internalType": "address",
          "name": "operator",
          "type": "address"
        }
      ],
      "name": "isApprovedForAll",
      "outputs": [
        {
          "internalType": "bool",
          "name": "",
          "type": "bool"
        }
      ],
      "stateMutability": "view",
      "type": "function"
    },
    {
      "inputs": [
        {
          "internalType": "string",
          "name": "tokenURI",
          "type": "string"
        },
        {
          "internalType": "address",
          "name": "theArtist",
          "type": "address"
        }
      ],
      "name": "mint",
      "outputs": [
        {
          "internalType": "uint256",
          "name": "",
          "type": "uint256"
        }
      ],
      "stateMutability": "nonpayable",
      "type": "function"
    },
    {
      "inputs": [],
      "name": "name",
      "outputs": [
        {
          "internalType": "string",
          "name": "",
          "type": "string"
        }
      ],
      "stateMutability": "view",
      "type": "function"
    },
    {
      "inputs": [
        {
          "internalType": "uint256",
          "name": "tokenId",
          "type": "uint256"
        }
      ],
      "name": "ownerOf",
      "outputs": [
        {
          "internalType": "address",
          "name": "",
          "type": "address"
        }
      ],
      "stateMutability": "view",
      "type": "function"
    },
    {
      "inputs": [
        {
          "internalType": "bytes32",
          "name": "role",
          "type": "bytes32"
        },
        {
          "internalType": "address",
          "name": "account",
          "type": "address"
        }
      ],
      "name": "renounceRole",
      "outputs": [],
      "stateMutability": "nonpayable",
      "type": "function"
    },
    {
      "inputs": [
        {
          "internalType": "bytes32",
          "name": "role",
          "type": "bytes32"
        },
        {
          "internalType": "address",
          "name": "account",
          "type": "address"
        }
      ],
      "name": "revokeRole",
      "outputs": [],
      "stateMutability": "nonpayable",
      "type": "function"
    },
    {
      "inputs": [
        {
          "internalType": "uint256",
          "name": "_tokenId",
          "type": "uint256"
        },
        {
          "internalType": "uint256",
          "name": "_salePrice",
          "type": "uint256"
        }
      ],
      "name": "royaltyInfo",
      "outputs": [
        {
          "internalType": "address",
          "name": "",
          "type": "address"
        },
        {
          "internalType": "uint256",
          "name": "",
          "type": "uint256"
        }
      ],
      "stateMutability": "view",
      "type": "function"
    },
    {
      "inputs": [
        {
          "internalType": "address",
          "name": "from",
          "type": "address"
        },
        {
          "internalType": "address",
          "name": "to",
          "type": "address"
        },
        {
          "internalType": "uint256",
          "name": "tokenId",
          "type": "uint256"
        }
      ],
      "name": "safeTransferFrom",
      "outputs": [],
      "stateMutability": "nonpayable",
      "type": "function"
    },
    {
      "inputs": [
        {
          "internalType": "address",
          "name": "from",
          "type": "address"
        },
        {
          "internalType": "address",
          "name": "to",
          "type": "address"
        },
        {
          "internalType": "uint256",
          "name": "tokenId",
          "type": "uint256"
        },
        {
          "internalType": "bytes",
          "name": "data",
          "type": "bytes"
        }
      ],
      "name": "safeTransferFrom",
      "outputs": [],
      "stateMutability": "nonpayable",
      "type": "function"
    },
    {
      "inputs": [
        {
          "internalType": "address",
          "name": "operator",
          "type": "address"
        },
        {
          "internalType": "bool",
          "name": "approved",
          "type": "bool"
        }
      ],
      "name": "setApprovalForAll",
      "outputs": [],
      "stateMutability": "nonpayable",
      "type": "function"
    },
    {
      "inputs": [
        {
          "internalType": "bytes4",
          "name": "interfaceId",
          "type": "bytes4"
        }
      ],
      "name": "supportsInterface",
      "outputs": [
        {
          "internalType": "bool",
          "name": "",
          "type": "bool"
        }
      ],
      "stateMutability": "view",
      "type": "function"
    },
    {
      "inputs": [],
      "name": "symbol",
      "outputs": [
        {
          "internalType": "string",
          "name": "",
          "type": "string"
        }
      ],
      "stateMutability": "view",
      "type": "function"
    },
    {
      "inputs": [
        {
          "internalType": "uint256",
          "name": "tokenId",
          "type": "uint256"
        }
      ],
      "name": "tokenURI",
      "outputs": [
        {
          "internalType": "string",
          "name": "",
          "type": "string"
        }
      ],
      "stateMutability": "view",
      "type": "function"
    },
    {
      "inputs": [
        {
          "internalType": "address",
          "name": "from",
          "type": "address"
        },
        {
          "internalType": "address",
          "name": "to",
          "type": "address"
        },
        {
          "internalType": "uint256",
          "name": "tokenId",
          "type": "uint256"
        }
      ],
      "name": "transferFrom",
      "outputs": [],
      "stateMutability": "nonpayable",
      "type": "function"
    }
  ],
  "bytecode": "0x608060405261271060ff5534801561001657600080fd5b50613f27806100266000396000f3fe608060405234801561001057600080fd5b506004361061014d5760003560e01c80636352211e116100c3578063a22cb4651161007c578063a22cb465146103d7578063b1ebcbfe146103f3578063b88d4fde1461040f578063c87b56dd1461042b578063d547741f1461045b578063e985e9c5146104775761014d565b80636352211e146102ed5780636c1438621461031d57806370a082311461033b57806391d148541461036b57806395d89b411461039b578063a217fddf146103b95761014d565b806323b872dd1161011557806323b872dd1461021c578063248a9ca3146102385780632a55205a146102685780632f2ff15d1461029957806336568abe146102b557806342842e0e146102d15761014d565b806301ffc9a71461015257806306fdde0314610182578063081812fc146101a0578063095ea7b3146101d05780631c351a9d146101ec575b600080fd5b61016c60048036038101906101679190612b57565b6104a7565b60405161017991906131c3565b60405180910390f35b61018a610528565b6040516101979190613214565b60405180910390f35b6101ba60048036038101906101b59190612ca4565b6105ba565b6040516101c79190613133565b60405180910390f35b6101ea60048036038101906101e59190612ab6565b610600565b005b61020660048036038101906102019190612ba9565b610718565b60405161021391906134b6565b60405180910390f35b610236600480360381019061023191906129b0565b610805565b005b610252600480360381019061024d9190612af2565b610865565b60405161025f91906131de565b60405180910390f35b610282600480360381019061027d9190612ccd565b610885565b60405161029092919061319a565b60405180910390f35b6102b360048036038101906102ae9190612b1b565b610a70565b005b6102cf60048036038101906102ca9190612b1b565b610a91565b005b6102eb60048036038101906102e691906129b0565b610b14565b005b61030760048036038101906103029190612ca4565b610b34565b6040516103149190613133565b60405180910390f35b610325610bbb565b60405161033291906134b6565b60405180910390f35b6103556004803603810190610350919061294b565b610bcc565b60405161036291906134b6565b60405180910390f35b61038560048036038101906103809190612b1b565b610c84565b60405161039291906131c3565b60405180910390f35b6103a3610cef565b6040516103b09190613214565b60405180910390f35b6103c1610d81565b6040516103ce91906131de565b60405180910390f35b6103f160048036038101906103ec9190612a7a565b610d88565b005b61040d60048036038101906104089190612bfd565b610d9e565b005b610429600480360381019061042491906129ff565b610f92565b005b61044560048036038101906104409190612ca4565b610ff4565b6040516104529190613214565b60405180910390f35b61047560048036038101906104709190612b1b565b6110e8565b005b610491600480360381019061048c9190612974565b611109565b60405161049e91906131c3565b60405180910390f35b60006104b28261119d565b806104c257506104c18261127f565b5b806104d257506104d1826112f9565b5b8061052157506301ffc9a760e01b7bffffffffffffffffffffffffffffffffffffffffffffffffffffffff1916827bffffffffffffffffffffffffffffffffffffffffffffffffffffffff1916145b9050919050565b6060606580546105379061379d565b80601f01602080910402602001604051908101604052809291908181526020018280546105639061379d565b80156105b05780601f10610585576101008083540402835291602001916105b0565b820191906000526020600020905b81548152906001019060200180831161059357829003601f168201915b5050505050905090565b60006105c582611373565b6069600083815260200190815260200160002060009054906101000a900473ffffffffffffffffffffffffffffffffffffffff169050919050565b600061060b82610b34565b90508073ffffffffffffffffffffffffffffffffffffffff168373ffffffffffffffffffffffffffffffffffffffff16141561067c576040517f08c379a0000000000000000000000000000000000000000000000000000000008152600401610673906133d6565b60405180910390fd5b8073ffffffffffffffffffffffffffffffffffffffff1661069b6113be565b73ffffffffffffffffffffffffffffffffffffffff1614806106ca57506106c9816106c46113be565b611109565b5b610709576040517f08c379a000000000000000000000000000000000000000000000000000000000815260040161070090613416565b60405180910390fd5b61071383836113c6565b505050565b600060fc60009054906101000a900473ffffffffffffffffffffffffffffffffffffffff1673ffffffffffffffffffffffffffffffffffffffff163373ffffffffffffffffffffffffffffffffffffffff16146107aa576040517f08c379a00000000000000000000000000000000000000000000000000000000081526004016107a1906133f6565b60405180910390fd5b60006107b660fb61147f565b90506107c2338261148d565b6107e7818460fe60009054906101000a90046bffffffffffffffffffffffff166116a7565b6107f1818561184f565b6107fb60fb6118c4565b8091505092915050565b6108166108106113be565b826118da565b610855576040517f08c379a000000000000000000000000000000000000000000000000000000000815260040161084c90613256565b60405180910390fd5b61086083838361196f565b505050565b600060c96000838152602001908152602001600020600101549050919050565b6000806000609860008681526020019081526020016000206040518060400160405290816000820160009054906101000a900473ffffffffffffffffffffffffffffffffffffffff1673ffffffffffffffffffffffffffffffffffffffff1673ffffffffffffffffffffffffffffffffffffffff1681526020016000820160149054906101000a90046bffffffffffffffffffffffff166bffffffffffffffffffffffff166bffffffffffffffffffffffff16815250509050600073ffffffffffffffffffffffffffffffffffffffff16816000015173ffffffffffffffffffffffffffffffffffffffff161415610a1b5760976040518060400160405290816000820160009054906101000a900473ffffffffffffffffffffffffffffffffffffffff1673ffffffffffffffffffffffffffffffffffffffff1673ffffffffffffffffffffffffffffffffffffffff1681526020016000820160149054906101000a90046bffffffffffffffffffffffff166bffffffffffffffffffffffff166bffffffffffffffffffffffff168152505090505b6000610a25611c65565b6bffffffffffffffffffffffff1682602001516bffffffffffffffffffffffff1686610a519190613622565b610a5b91906135f1565b90508160000151819350935050509250929050565b610a7982610865565b610a8281611c6f565b610a8c8383611c83565b505050565b610a996113be565b73ffffffffffffffffffffffffffffffffffffffff168173ffffffffffffffffffffffffffffffffffffffff1614610b06576040517f08c379a0000000000000000000000000000000000000000000000000000000008152600401610afd90613496565b60405180910390fd5b610b108282611d64565b5050565b610b2f83838360405180602001604052806000815250610f92565b505050565b600080610b4083611e46565b9050600073ffffffffffffffffffffffffffffffffffffffff168173ffffffffffffffffffffffffffffffffffffffff161415610bb2576040517f08c379a0000000000000000000000000000000000000000000000000000000008152600401610ba9906133b6565b60405180910390fd5b80915050919050565b6000610bc760fb61147f565b905090565b60008073ffffffffffffffffffffffffffffffffffffffff168273ffffffffffffffffffffffffffffffffffffffff161415610c3d576040517f08c379a0000000000000000000000000000000000000000000000000000000008152600401610c3490613316565b60405180910390fd5b606860008373ffffffffffffffffffffffffffffffffffffffff1673ffffffffffffffffffffffffffffffffffffffff168152602001908152602001600020549050919050565b600060c9600084815260200190815260200160002060000160008373ffffffffffffffffffffffffffffffffffffffff1673ffffffffffffffffffffffffffffffffffffffff16815260200190815260200160002060009054906101000a900460ff16905092915050565b606060668054610cfe9061379d565b80601f0160208091040260200160405190810160405280929190818152602001828054610d2a9061379d565b8015610d775780601f10610d4c57610100808354040283529160200191610d77565b820191906000526020600020905b815481529060010190602001808311610d5a57829003601f168201915b5050505050905090565b6000801b81565b610d9a610d936113be565b8383611e83565b5050565b60008060019054906101000a900460ff16159050808015610dcf5750600160008054906101000a900460ff1660ff16105b80610dfc5750610dde30611ff0565b158015610dfb5750600160008054906101000a900460ff1660ff16145b5b610e3b576040517f08c379a0000000000000000000000000000000000000000000000000000000008152600401610e3290613336565b60405180910390fd5b60016000806101000a81548160ff021916908360ff1602179055508015610e78576001600060016101000a81548160ff0219169083151502179055505b61271060fe60009054906101000a90046bffffffffffffffffffffffff166bffffffffffffffffffffffff1610610eae57600080fd5b8360fc60006101000a81548173ffffffffffffffffffffffffffffffffffffffff021916908373ffffffffffffffffffffffffffffffffffffffff1602179055508260fd819055508160fe60006101000a8154816bffffffffffffffffffffffff02191690836bffffffffffffffffffffffff160217905550610f318686612013565b8015610f8a5760008060016101000a81548160ff0219169083151502179055507f7f26b83ff96e1f2b6a682f133852f6798a09c465da95921460cefb38474024986001604051610f8191906131f9565b60405180910390a15b505050505050565b610fa3610f9d6113be565b836118da565b610fe2576040517f08c379a0000000000000000000000000000000000000000000000000000000008152600401610fd990613256565b60405180910390fd5b610fee84848484612070565b50505050565b6060610fff826120cc565b61103e576040517f08c379a000000000000000000000000000000000000000000000000000000000815260040161103590613396565b60405180910390fd5b60006101006000848152602001908152602001600020805461105f9061379d565b80601f016020809104026020016040519081016040528092919081815260200182805461108b9061379d565b80156110d85780601f106110ad576101008083540402835291602001916110d8565b820191906000526020600020905b8154815290600101906020018083116110bb57829003601f168201915b5050505050905080915050919050565b6110f182610865565b6110fa81611c6f565b6111048383611d64565b505050565b6000606a60008473ffffffffffffffffffffffffffffffffffffffff1673ffffffffffffffffffffffffffffffffffffffff16815260200190815260200160002060008373ffffffffffffffffffffffffffffffffffffffff1673ffffffffffffffffffffffffffffffffffffffff16815260200190815260200160002060009054906101000a900460ff16905092915050565b60007f80ac58cd000000000000000000000000000000000000000000000000000000007bffffffffffffffffffffffffffffffffffffffffffffffffffffffff1916827bffffffffffffffffffffffffffffffffffffffffffffffffffffffff1916148061126857507f5b5e139f000000000000000000000000000000000000000000000000000000007bffffffffffffffffffffffffffffffffffffffffffffffffffffffff1916827bffffffffffffffffffffffffffffffffffffffffffffffffffffffff1916145b8061127857506112778261210d565b5b9050919050565b60007f2a55205a000000000000000000000000000000000000000000000000000000007bffffffffffffffffffffffffffffffffffffffffffffffffffffffff1916827bffffffffffffffffffffffffffffffffffffffffffffffffffffffff191614806112f257506112f18261119d565b5b9050919050565b60007f7965db0b000000000000000000000000000000000000000000000000000000007bffffffffffffffffffffffffffffffffffffffffffffffffffffffff1916827bffffffffffffffffffffffffffffffffffffffffffffffffffffffff1916148061136c575061136b8261127f565b5b9050919050565b61137c816120cc565b6113bb576040517f08c379a00000000000000000000000000000000000000000000000000000000081526004016113b2906133b6565b60405180910390fd5b50565b600033905090565b816069600083815260200190815260200160002060006101000a81548173ffffffffffffffffffffffffffffffffffffffff021916908373ffffffffffffffffffffffffffffffffffffffff160217905550808273ffffffffffffffffffffffffffffffffffffffff1661143983610b34565b73ffffffffffffffffffffffffffffffffffffffff167f8c5be1e5ebec7d5bd14f71427d1e84f3dd0314c0f7b2291e5b200ac8c7c3b92560405160405180910390a45050565b600081600001549050919050565b600073ffffffffffffffffffffffffffffffffffffffff168273ffffffffffffffffffffffffffffffffffffffff1614156114fd576040517f08c379a00000000000000000000000000000000000000000000000000000000081526004016114f490613356565b60405180910390fd5b611506816120cc565b15611546576040517f08c379a000000000000000000000000000000000000000000000000000000000815260040161153d906132b6565b60405180910390fd5b61155260008383612177565b61155b816120cc565b1561159b576040517f08c379a0000000000000000000000000000000000000000000000000000000008152600401611592906132b6565b60405180910390fd5b6001606860008473ffffffffffffffffffffffffffffffffffffffff1673ffffffffffffffffffffffffffffffffffffffff16815260200190815260200160002060008282540192505081905550816067600083815260200190815260200160002060006101000a81548173ffffffffffffffffffffffffffffffffffffffff021916908373ffffffffffffffffffffffffffffffffffffffff160217905550808273ffffffffffffffffffffffffffffffffffffffff16600073ffffffffffffffffffffffffffffffffffffffff167fddf252ad1be2c89b69c2b068fc378daa952ba7f163c4a11628f55a4df523b3ef60405160405180910390a46116a36000838361217c565b5050565b6116af611c65565b6bffffffffffffffffffffffff16816bffffffffffffffffffffffff16111561170d576040517f08c379a000000000000000000000000000000000000000000000000000000000815260040161170490613476565b60405180910390fd5b600073ffffffffffffffffffffffffffffffffffffffff168273ffffffffffffffffffffffffffffffffffffffff16141561177d576040517f08c379a000000000000000000000000000000000000000000000000000000000815260040161177490613436565b60405180910390fd5b60405180604001604052808373ffffffffffffffffffffffffffffffffffffffff168152602001826bffffffffffffffffffffffff168152506098600085815260200190815260200160002060008201518160000160006101000a81548173ffffffffffffffffffffffffffffffffffffffff021916908373ffffffffffffffffffffffffffffffffffffffff16021790555060208201518160000160146101000a8154816bffffffffffffffffffffffff02191690836bffffffffffffffffffffffff160217905550905050505050565b611858826120cc565b611897576040517f08c379a000000000000000000000000000000000000000000000000000000000815260040161188e90613376565b60405180910390fd5b80610100600084815260200190815260200160002090805190602001906118bf929190612745565b505050565b6001816000016000828254019250508190555050565b6000806118e683610b34565b90508073ffffffffffffffffffffffffffffffffffffffff168473ffffffffffffffffffffffffffffffffffffffff16148061192857506119278185611109565b5b8061196657508373ffffffffffffffffffffffffffffffffffffffff1661194e846105ba565b73ffffffffffffffffffffffffffffffffffffffff16145b91505092915050565b8273ffffffffffffffffffffffffffffffffffffffff1661198f82610b34565b73ffffffffffffffffffffffffffffffffffffffff16146119e5576040517f08c379a00000000000000000000000000000000000000000000000000000000081526004016119dc90613296565b60405180910390fd5b600073ffffffffffffffffffffffffffffffffffffffff168273ffffffffffffffffffffffffffffffffffffffff161415611a55576040517f08c379a0000000000000000000000000000000000000000000000000000000008152600401611a4c906132d6565b60405180910390fd5b611a60838383612177565b8273ffffffffffffffffffffffffffffffffffffffff16611a8082610b34565b73ffffffffffffffffffffffffffffffffffffffff1614611ad6576040517f08c379a0000000000000000000000000000000000000000000000000000000008152600401611acd90613296565b60405180910390fd5b6069600082815260200190815260200160002060006101000a81549073ffffffffffffffffffffffffffffffffffffffff02191690556001606860008573ffffffffffffffffffffffffffffffffffffffff1673ffffffffffffffffffffffffffffffffffffffff168152602001908152602001600020600082825403925050819055506001606860008473ffffffffffffffffffffffffffffffffffffffff1673ffffffffffffffffffffffffffffffffffffffff16815260200190815260200160002060008282540192505081905550816067600083815260200190815260200160002060006101000a81548173ffffffffffffffffffffffffffffffffffffffff021916908373ffffffffffffffffffffffffffffffffffffffff160217905550808273ffffffffffffffffffffffffffffffffffffffff168473ffffffffffffffffffffffffffffffffffffffff167fddf252ad1be2c89b69c2b068fc378daa952ba7f163c4a11628f55a4df523b3ef60405160405180910390a4611c6083838361217c565b505050565b6000612710905090565b611c8081611c7b6113be565b612181565b50565b611c8d8282610c84565b611d6057600160c9600084815260200190815260200160002060000160008373ffffffffffffffffffffffffffffffffffffffff1673ffffffffffffffffffffffffffffffffffffffff16815260200190815260200160002060006101000a81548160ff021916908315150217905550611d056113be565b73ffffffffffffffffffffffffffffffffffffffff168173ffffffffffffffffffffffffffffffffffffffff16837f2f8788117e7eff1d82e926ec794901d17c78024a50270940304540a733656f0d60405160405180910390a45b5050565b611d6e8282610c84565b15611e4257600060c9600084815260200190815260200160002060000160008373ffffffffffffffffffffffffffffffffffffffff1673ffffffffffffffffffffffffffffffffffffffff16815260200190815260200160002060006101000a81548160ff021916908315150217905550611de76113be565b73ffffffffffffffffffffffffffffffffffffffff168173ffffffffffffffffffffffffffffffffffffffff16837ff6391f5c32d9c69d2a47ea670b442974b53935d1edc7fd64eb21e047a839171b60405160405180910390a45b5050565b60006067600083815260200190815260200160002060009054906101000a900473ffffffffffffffffffffffffffffffffffffffff169050919050565b8173ffffffffffffffffffffffffffffffffffffffff168373ffffffffffffffffffffffffffffffffffffffff161415611ef2576040517f08c379a0000000000000000000000000000000000000000000000000000000008152600401611ee9906132f6565b60405180910390fd5b80606a60008573ffffffffffffffffffffffffffffffffffffffff1673ffffffffffffffffffffffffffffffffffffffff16815260200190815260200160002060008473ffffffffffffffffffffffffffffffffffffffff1673ffffffffffffffffffffffffffffffffffffffff16815260200190815260200160002060006101000a81548160ff0219169083151502179055508173ffffffffffffffffffffffffffffffffffffffff168373ffffffffffffffffffffffffffffffffffffffff167f17307eab39ab6107e8899845ad3d59bd9653f200f220920489ca2b5937696c3183604051611fe391906131c3565b60405180910390a3505050565b6000808273ffffffffffffffffffffffffffffffffffffffff163b119050919050565b600060019054906101000a900460ff16612062576040517f08c379a000000000000000000000000000000000000000000000000000000000815260040161205990613456565b60405180910390fd5b61206c8282612206565b5050565b61207b84848461196f565b61208784848484612287565b6120c6576040517f08c379a00000000000000000000000000000000000000000000000000000000081526004016120bd90613276565b60405180910390fd5b50505050565b60008073ffffffffffffffffffffffffffffffffffffffff166120ee83611e46565b73ffffffffffffffffffffffffffffffffffffffff1614159050919050565b60007f01ffc9a7000000000000000000000000000000000000000000000000000000007bffffffffffffffffffffffffffffffffffffffffffffffffffffffff1916827bffffffffffffffffffffffffffffffffffffffffffffffffffffffff1916149050919050565b505050565b505050565b61218b8282610c84565b612202576121988161241e565b6121a68360001c602061244b565b6040516020016121b79291906130f9565b6040516020818303038152906040526040517f08c379a00000000000000000000000000000000000000000000000000000000081526004016121f99190613214565b60405180910390fd5b5050565b600060019054906101000a900460ff16612255576040517f08c379a000000000000000000000000000000000000000000000000000000000815260040161224c90613456565b60405180910390fd5b816065908051906020019061226b929190612745565b508060669080519060200190612282929190612745565b505050565b60006122a88473ffffffffffffffffffffffffffffffffffffffff16611ff0565b15612411578373ffffffffffffffffffffffffffffffffffffffff1663150b7a026122d16113be565b8786866040518563ffffffff1660e01b81526004016122f3949392919061314e565b602060405180830381600087803b15801561230d57600080fd5b505af192505050801561233e57506040513d601f19601f8201168201806040525081019061233b9190612b80565b60015b6123c1573d806000811461236e576040519150601f19603f3d011682016040523d82523d6000602084013e612373565b606091505b506000815114156123b9576040517f08c379a00000000000000000000000000000000000000000000000000000000081526004016123b090613276565b60405180910390fd5b805181602001fd5b63150b7a0260e01b7bffffffffffffffffffffffffffffffffffffffffffffffffffffffff1916817bffffffffffffffffffffffffffffffffffffffffffffffffffffffff191614915050612416565b600190505b949350505050565b60606124448273ffffffffffffffffffffffffffffffffffffffff16601460ff1661244b565b9050919050565b60606000600283600261245e9190613622565b612468919061359b565b67ffffffffffffffff8111156124a7577f4e487b7100000000000000000000000000000000000000000000000000000000600052604160045260246000fd5b6040519080825280601f01601f1916602001820160405280156124d95781602001600182028036833780820191505090505b5090507f300000000000000000000000000000000000000000000000000000000000000081600081518110612537577f4e487b7100000000000000000000000000000000000000000000000000000000600052603260045260246000fd5b60200101907effffffffffffffffffffffffffffffffffffffffffffffffffffffffffffff1916908160001a9053507f7800000000000000000000000000000000000000000000000000000000000000816001815181106125c1577f4e487b7100000000000000000000000000000000000000000000000000000000600052603260045260246000fd5b60200101907effffffffffffffffffffffffffffffffffffffffffffffffffffffffffffff1916908160001a905350600060018460026126019190613622565b61260b919061359b565b90505b60018111156126f7577f3031323334353637383961626364656600000000000000000000000000000000600f861660108110612673577f4e487b7100000000000000000000000000000000000000000000000000000000600052603260045260246000fd5b1a60f81b8282815181106126b0577f4e487b7100000000000000000000000000000000000000000000000000000000600052603260045260246000fd5b60200101907effffffffffffffffffffffffffffffffffffffffffffffffffffffffffffff1916908160001a905350600485901c9450806126f090613773565b905061260e565b506000841461273b576040517f08c379a000000000000000000000000000000000000000000000000000000000815260040161273290613236565b60405180910390fd5b8091505092915050565b8280546127519061379d565b90600052602060002090601f01602090048101928261277357600085556127ba565b82601f1061278c57805160ff19168380011785556127ba565b828001600101855582156127ba579182015b828111156127b957825182559160200191906001019061279e565b5b5090506127c791906127cb565b5090565b5b808211156127e45760008160009055506001016127cc565b5090565b60006127fb6127f6846134f6565b6134d1565b90508281526020810184848401111561281357600080fd5b61281e848285613731565b509392505050565b600061283961283484613527565b6134d1565b90508281526020810184848401111561285157600080fd5b61285c848285613731565b509392505050565b60008135905061287381613e67565b92915050565b60008135905061288881613e7e565b92915050565b60008135905061289d81613e95565b92915050565b6000813590506128b281613eac565b92915050565b6000815190506128c781613eac565b92915050565b600082601f8301126128de57600080fd5b81356128ee8482602086016127e8565b91505092915050565b600082601f83011261290857600080fd5b8135612918848260208601612826565b91505092915050565b60008135905061293081613ec3565b92915050565b60008135905061294581613eda565b92915050565b60006020828403121561295d57600080fd5b600061296b84828501612864565b91505092915050565b6000806040838503121561298757600080fd5b600061299585828601612864565b92505060206129a685828601612864565b9150509250929050565b6000806000606084860312156129c557600080fd5b60006129d386828701612864565b93505060206129e486828701612864565b92505060406129f586828701612921565b9150509250925092565b60008060008060808587031215612a1557600080fd5b6000612a2387828801612864565b9450506020612a3487828801612864565b9350506040612a4587828801612921565b925050606085013567ffffffffffffffff811115612a6257600080fd5b612a6e878288016128cd565b91505092959194509250565b60008060408385031215612a8d57600080fd5b6000612a9b85828601612864565b9250506020612aac85828601612879565b9150509250929050565b60008060408385031215612ac957600080fd5b6000612ad785828601612864565b9250506020612ae885828601612921565b9150509250929050565b600060208284031215612b0457600080fd5b6000612b128482850161288e565b91505092915050565b60008060408385031215612b2e57600080fd5b6000612b3c8582860161288e565b9250506020612b4d85828601612864565b9150509250929050565b600060208284031215612b6957600080fd5b6000612b77848285016128a3565b91505092915050565b600060208284031215612b9257600080fd5b6000612ba0848285016128b8565b91505092915050565b60008060408385031215612bbc57600080fd5b600083013567ffffffffffffffff811115612bd657600080fd5b612be2858286016128f7565b9250506020612bf385828601612864565b9150509250929050565b600080600080600060a08688031215612c1557600080fd5b600086013567ffffffffffffffff811115612c2f57600080fd5b612c3b888289016128f7565b955050602086013567ffffffffffffffff811115612c5857600080fd5b612c64888289016128f7565b9450506040612c7588828901612864565b9350506060612c8688828901612921565b9250506080612c9788828901612936565b9150509295509295909350565b600060208284031215612cb657600080fd5b6000612cc484828501612921565b91505092915050565b60008060408385031215612ce057600080fd5b6000612cee85828601612921565b9250506020612cff85828601612921565b9150509250929050565b612d128161367c565b82525050565b612d218161368e565b82525050565b612d308161369a565b82525050565b6000612d4182613558565b612d4b818561356e565b9350612d5b818560208601613740565b612d64816138bc565b840191505092915050565b612d788161371f565b82525050565b6000612d8982613563565b612d93818561357f565b9350612da3818560208601613740565b612dac816138bc565b840191505092915050565b6000612dc282613563565b612dcc8185613590565b9350612ddc818560208601613740565b80840191505092915050565b6000612df560208361357f565b9150612e00826138cd565b602082019050919050565b6000612e18602d8361357f565b9150612e23826138f6565b604082019050919050565b6000612e3b60328361357f565b9150612e4682613945565b604082019050919050565b6000612e5e60258361357f565b9150612e6982613994565b604082019050919050565b6000612e81601c8361357f565b9150612e8c826139e3565b602082019050919050565b6000612ea460248361357f565b9150612eaf82613a0c565b604082019050919050565b6000612ec760198361357f565b9150612ed282613a5b565b602082019050919050565b6000612eea60298361357f565b9150612ef582613a84565b604082019050919050565b6000612f0d602e8361357f565b9150612f1882613ad3565b604082019050919050565b6000612f3060208361357f565b9150612f3b82613b22565b602082019050919050565b6000612f53602c8361357f565b9150612f5e82613b4b565b604082019050919050565b6000612f76602f8361357f565b9150612f8182613b9a565b604082019050919050565b6000612f9960188361357f565b9150612fa482613be9565b602082019050919050565b6000612fbc60218361357f565b9150612fc782613c12565b604082019050919050565b6000612fdf60278361357f565b9150612fea82613c61565b604082019050919050565b6000613002603d8361357f565b915061300d82613cb0565b604082019050919050565b6000613025601b8361357f565b915061303082613cff565b602082019050919050565b6000613048602b8361357f565b915061305382613d28565b604082019050919050565b600061306b601783613590565b915061307682613d77565b601782019050919050565b600061308e602a8361357f565b915061309982613da0565b604082019050919050565b60006130b1601183613590565b91506130bc82613def565b601182019050919050565b60006130d4602f8361357f565b91506130df82613e18565b604082019050919050565b6130f3816136f0565b82525050565b60006131048261305e565b91506131108285612db7565b915061311b826130a4565b91506131278284612db7565b91508190509392505050565b60006020820190506131486000830184612d09565b92915050565b60006080820190506131636000830187612d09565b6131706020830186612d09565b61317d60408301856130ea565b818103606083015261318f8184612d36565b905095945050505050565b60006040820190506131af6000830185612d09565b6131bc60208301846130ea565b9392505050565b60006020820190506131d86000830184612d18565b92915050565b60006020820190506131f36000830184612d27565b92915050565b600060208201905061320e6000830184612d6f565b92915050565b6000602082019050818103600083015261322e8184612d7e565b905092915050565b6000602082019050818103600083015261324f81612de8565b9050919050565b6000602082019050818103600083015261326f81612e0b565b9050919050565b6000602082019050818103600083015261328f81612e2e565b9050919050565b600060208201905081810360008301526132af81612e51565b9050919050565b600060208201905081810360008301526132cf81612e74565b9050919050565b600060208201905081810360008301526132ef81612e97565b9050919050565b6000602082019050818103600083015261330f81612eba565b9050919050565b6000602082019050818103600083015261332f81612edd565b9050919050565b6000602082019050818103600083015261334f81612f00565b9050919050565b6000602082019050818103600083015261336f81612f23565b9050919050565b6000602082019050818103600083015261338f81612f46565b9050919050565b600060208201905081810360008301526133af81612f69565b9050919050565b600060208201905081810360008301526133cf81612f8c565b9050919050565b600060208201905081810360008301526133ef81612faf565b9050919050565b6000602082019050818103600083015261340f81612fd2565b9050919050565b6000602082019050818103600083015261342f81612ff5565b9050919050565b6000602082019050818103600083015261344f81613018565b9050919050565b6000602082019050818103600083015261346f8161303b565b9050919050565b6000602082019050818103600083015261348f81613081565b9050919050565b600060208201905081810360008301526134af816130c7565b9050919050565b60006020820190506134cb60008301846130ea565b92915050565b60006134db6134ec565b90506134e782826137cf565b919050565b6000604051905090565b600067ffffffffffffffff8211156135115761351061388d565b5b61351a826138bc565b9050602081019050919050565b600067ffffffffffffffff8211156135425761354161388d565b5b61354b826138bc565b9050602081019050919050565b600081519050919050565b600081519050919050565b600082825260208201905092915050565b600082825260208201905092915050565b600081905092915050565b60006135a6826136f0565b91506135b1836136f0565b9250827fffffffffffffffffffffffffffffffffffffffffffffffffffffffffffffffff038211156135e6576135e5613800565b5b828201905092915050565b60006135fc826136f0565b9150613607836136f0565b9250826136175761361661382f565b5b828204905092915050565b600061362d826136f0565b9150613638836136f0565b9250817fffffffffffffffffffffffffffffffffffffffffffffffffffffffffffffffff048311821515161561367157613670613800565b5b828202905092915050565b6000613687826136d0565b9050919050565b60008115159050919050565b6000819050919050565b60007fffffffff0000000000000000000000000000000000000000000000000000000082169050919050565b600073ffffffffffffffffffffffffffffffffffffffff82169050919050565b6000819050919050565b600060ff82169050919050565b60006bffffffffffffffffffffffff82169050919050565b600061372a826136fa565b9050919050565b82818337600083830152505050565b60005b8381101561375e578082015181840152602081019050613743565b8381111561376d576000848401525b50505050565b600061377e826136f0565b9150600082141561379257613791613800565b5b600182039050919050565b600060028204905060018216806137b557607f821691505b602082108114156137c9576137c861385e565b5b50919050565b6137d8826138bc565b810181811067ffffffffffffffff821117156137f7576137f661388d565b5b80604052505050565b7f4e487b7100000000000000000000000000000000000000000000000000000000600052601160045260246000fd5b7f4e487b7100000000000000000000000000000000000000000000000000000000600052601260045260246000fd5b7f4e487b7100000000000000000000000000000000000000000000000000000000600052602260045260246000fd5b7f4e487b7100000000000000000000000000000000000000000000000000000000600052604160045260246000fd5b6000601f19601f8301169050919050565b7f537472696e67733a20686578206c656e67746820696e73756666696369656e74600082015250565b7f4552433732313a2063616c6c6572206973206e6f7420746f6b656e206f776e6560008201527f72206f7220617070726f76656400000000000000000000000000000000000000602082015250565b7f4552433732313a207472616e7366657220746f206e6f6e20455243373231526560008201527f63656976657220696d706c656d656e7465720000000000000000000000000000602082015250565b7f4552433732313a207472616e736665722066726f6d20696e636f72726563742060008201527f6f776e6572000000000000000000000000000000000000000000000000000000602082015250565b7f4552433732313a20746f6b656e20616c7265616479206d696e74656400000000600082015250565b7f4552433732313a207472616e7366657220746f20746865207a65726f2061646460008201527f7265737300000000000000000000000000000000000000000000000000000000602082015250565b7f4552433732313a20617070726f766520746f2063616c6c657200000000000000600082015250565b7f4552433732313a2061646472657373207a65726f206973206e6f74206120766160008201527f6c6964206f776e65720000000000000000000000000000000000000000000000602082015250565b7f496e697469616c697a61626c653a20636f6e747261637420697320616c72656160008201527f647920696e697469616c697a6564000000000000000000000000000000000000602082015250565b7f4552433732313a206d696e7420746f20746865207a65726f2061646472657373600082015250565b7f4552433732314d657461646174613a2055524920736574206f66206e6f6e657860008201527f697374656e7420746f6b656e0000000000000000000000000000000000000000602082015250565b7f4552433732314d657461646174613a2055524920717565727920666f72206e6f60008201527f6e6578697374656e7420746f6b656e0000000000000000000000000000000000602082015250565b7f4552433732313a20696e76616c696420746f6b656e2049440000000000000000600082015250565b7f4552433732313a20617070726f76616c20746f2063757272656e74206f776e6560008201527f7200000000000000000000000000000000000000000000000000000000000000602082015250565b7f4f6e6c79207468652061756374696f6e20636f6e74726163742063616e20636160008201527f6c6c207468697300000000000000000000000000000000000000000000000000602082015250565b7f4552433732313a20617070726f76652063616c6c6572206973206e6f7420746f60008201527f6b656e206f776e6572206f7220617070726f76656420666f7220616c6c000000602082015250565b7f455243323938313a20496e76616c696420706172616d65746572730000000000600082015250565b7f496e697469616c697a61626c653a20636f6e7472616374206973206e6f74206960008201527f6e697469616c697a696e67000000000000000000000000000000000000000000602082015250565b7f416363657373436f6e74726f6c3a206163636f756e7420000000000000000000600082015250565b7f455243323938313a20726f79616c7479206665652077696c6c2065786365656460008201527f2073616c65507269636500000000000000000000000000000000000000000000602082015250565b7f206973206d697373696e6720726f6c6520000000000000000000000000000000600082015250565b7f416363657373436f6e74726f6c3a2063616e206f6e6c792072656e6f756e636560008201527f20726f6c657320666f722073656c660000000000000000000000000000000000602082015250565b613e708161367c565b8114613e7b57600080fd5b50565b613e878161368e565b8114613e9257600080fd5b50565b613e9e8161369a565b8114613ea957600080fd5b50565b613eb5816136a4565b8114613ec057600080fd5b50565b613ecc816136f0565b8114613ed757600080fd5b50565b613ee381613707565b8114613eee57600080fd5b5056fea2646970667358221220aaabfbf4e11a929c857938deaa7d202618b2621f6e1bafd2c94f164759bd2b7664736f6c63430008040033",
  "linkReferences": {},
  "deployedLinkReferences": {}
}