{
  "_format": "hh-sol-artifact-1",
  "contractName": "MintFactoryClone",
  "sourceName": "contracts/LiveMintFactoryWAuction.sol",
  "abi": [
    {
      "inputs": [
        {
          "internalType": "address",
          "name": "_mintFactoryImplementation",
          "type": "address"
        }
      ],
      "stateMutability": "nonpayable",
      "type": "constructor"
    },
    {
      "anonymous": false,
      "inputs": [
        {
          "indexed": false,
          "internalType": "address",
          "name": "nftyCoin",
          "type": "address"
        }
      ],
      "name": "NftyCoinCreated",
      "type": "event"
    },
    {
      "anonymous": false,
      "inputs": [
        {
          "indexed": true,
          "internalType": "address",
          "name": "previousOwner",
          "type": "address"
        },
        {
          "indexed": true,
          "internalType": "address",
          "name": "newOwner",
          "type": "address"
        }
      ],
      "name": "OwnershipTransferred",
      "type": "event"
    },
    {
      "inputs": [
        {
          "internalType": "uint256",
          "name": "",
          "type": "uint256"
        }
      ],
      "name": "NftyTunesAddresses",
      "outputs": [
        {
          "internalType": "address",
          "name": "",
          "type": "address"
        }
      ],
      "stateMutability": "view",
      "type": "function"
    },
    {
      "inputs": [
        {
          "internalType": "string",
          "name": "name",
          "type": "string"
        },
        {
          "internalType": "string",
          "name": "symbol",
          "type": "string"
        },
        {
          "internalType": "address payable",
          "name": "artist",
          "type": "address"
        },
        {
          "internalType": "uint256",
          "name": "_mintAmount",
          "type": "uint256"
        },
        {
          "internalType": "uint96",
          "name": "_royaltyValue",
          "type": "uint96"
        }
      ],
      "name": "createERC721Token",
      "outputs": [
        {
          "internalType": "address",
          "name": "",
          "type": "address"
        }
      ],
      "stateMutability": "nonpayable",
      "type": "function"
    },
    {
      "inputs": [],
      "name": "mintFactoryImplementation",
      "outputs": [
        {
          "internalType": "address",
          "name": "",
          "type": "address"
        }
      ],
      "stateMutability": "view",
      "type": "function"
    },
    {
      "inputs": [],
      "name": "owner",
      "outputs": [
        {
          "internalType": "address",
          "name": "",
          "type": "address"
        }
      ],
      "stateMutability": "view",
      "type": "function"
    },
    {
      "inputs": [],
      "name": "renounceOwnership",
      "outputs": [],
      "stateMutability": "nonpayable",
      "type": "function"
    },
    {
      "inputs": [
        {
          "internalType": "address",
          "name": "_mintFactoryImplementation",
          "type": "address"
        }
      ],
      "name": "setMintFactoryImplementation",
      "outputs": [],
      "stateMutability": "nonpayable",
      "type": "function"
    },
    {
      "inputs": [
        {
          "internalType": "address",
          "name": "newOwner",
          "type": "address"
        }
      ],
      "name": "transferOwnership",
      "outputs": [],
      "stateMutability": "nonpayable",
      "type": "function"
    }
  ],
  "bytecode": "0x60806040523480156200001157600080fd5b5060405162000ff638038062000ff6833981810160405281019062000037919062000182565b620000576200004b6200009f60201b60201c565b620000a760201b60201c565b80600160006101000a81548173ffffffffffffffffffffffffffffffffffffffff021916908373ffffffffffffffffffffffffffffffffffffffff16021790555050620001fc565b600033905090565b60008060009054906101000a900473ffffffffffffffffffffffffffffffffffffffff169050816000806101000a81548173ffffffffffffffffffffffffffffffffffffffff021916908373ffffffffffffffffffffffffffffffffffffffff1602179055508173ffffffffffffffffffffffffffffffffffffffff168173ffffffffffffffffffffffffffffffffffffffff167f8be0079c531659141344cd1fd0a4f28419497f9722a3daafe3b4186f6b6457e060405160405180910390a35050565b6000815190506200017c81620001e2565b92915050565b6000602082840312156200019557600080fd5b6000620001a5848285016200016b565b91505092915050565b6000620001bb82620001c2565b9050919050565b600073ffffffffffffffffffffffffffffffffffffffff82169050919050565b620001ed81620001ae565b8114620001f957600080fd5b50565b610dea806200020c6000396000f3fe608060405234801561001057600080fd5b506004361061007d5760003560e01c80638da5cb5b1161005b5780638da5cb5b146100da5780639a8be414146100f8578063d076924114610128578063f2fde38b146101445761007d565b806328edabca14610082578063715018a6146100a057806375aa569d146100aa575b600080fd5b61008a610160565b6040516100979190610a1a565b60405180910390f35b6100a8610186565b005b6100c460048036038101906100bf9190610913565b61020e565b6040516100d19190610a1a565b60405180910390f35b6100e261024d565b6040516100ef9190610a1a565b60405180910390f35b610112600480360381019061010d919061086c565b610276565b60405161011f9190610a1a565b60405180910390f35b610142600480360381019061013d9190610843565b61036c565b005b61015e60048036038101906101599190610843565b61042c565b005b600160009054906101000a900473ffffffffffffffffffffffffffffffffffffffff1681565b61018e610524565b73ffffffffffffffffffffffffffffffffffffffff166101ac61024d565b73ffffffffffffffffffffffffffffffffffffffff1614610202576040517f08c379a00000000000000000000000000000000000000000000000000000000081526004016101f990610ad6565b60405180910390fd5b61020c600061052c565b565b6002818154811061021e57600080fd5b906000526020600020016000915054906101000a900473ffffffffffffffffffffffffffffffffffffffff1681565b60008060009054906101000a900473ffffffffffffffffffffffffffffffffffffffff16905090565b6000806102a4600160009054906101000a900473ffffffffffffffffffffffffffffffffffffffff166105f0565b90506102af816106c5565b60008190508073ffffffffffffffffffffffffffffffffffffffff1663b1ebcbfe89898989896040518663ffffffff1660e01b81526004016102f5959493929190610a35565b600060405180830381600087803b15801561030f57600080fd5b505af1158015610323573d6000803e3d6000fd5b505050507ff45e256e8b424d2768bea6a96ed29c805613f24355641d25fa065417f7289be4826040516103569190610a1a565b60405180910390a1819250505095945050505050565b610374610524565b73ffffffffffffffffffffffffffffffffffffffff1661039261024d565b73ffffffffffffffffffffffffffffffffffffffff16146103e8576040517f08c379a00000000000000000000000000000000000000000000000000000000081526004016103df90610ad6565b60405180910390fd5b80600160006101000a81548173ffffffffffffffffffffffffffffffffffffffff021916908373ffffffffffffffffffffffffffffffffffffffff16021790555050565b610434610524565b73ffffffffffffffffffffffffffffffffffffffff1661045261024d565b73ffffffffffffffffffffffffffffffffffffffff16146104a8576040517f08c379a000000000000000000000000000000000000000000000000000000000815260040161049f90610ad6565b60405180910390fd5b600073ffffffffffffffffffffffffffffffffffffffff168173ffffffffffffffffffffffffffffffffffffffff161415610518576040517f08c379a000000000000000000000000000000000000000000000000000000000815260040161050f90610a96565b60405180910390fd5b6105218161052c565b50565b600033905090565b60008060009054906101000a900473ffffffffffffffffffffffffffffffffffffffff169050816000806101000a81548173ffffffffffffffffffffffffffffffffffffffff021916908373ffffffffffffffffffffffffffffffffffffffff1602179055508173ffffffffffffffffffffffffffffffffffffffff168173ffffffffffffffffffffffffffffffffffffffff167f8be0079c531659141344cd1fd0a4f28419497f9722a3daafe3b4186f6b6457e060405160405180910390a35050565b60006040517f3d602d80600a3d3981f3363d3d373d3d3d363d7300000000000000000000000081528260601b60148201527f5af43d82803e903d91602b57fd5bf3000000000000000000000000000000000060288201526037816000f0915050600073ffffffffffffffffffffffffffffffffffffffff168173ffffffffffffffffffffffffffffffffffffffff1614156106c0576040517f08c379a00000000000000000000000000000000000000000000000000000000081526004016106b790610ab6565b60405180910390fd5b919050565b61075b816040516024016106d99190610a1a565b6040516020818303038152906040527f2c2ecbc2000000000000000000000000000000000000000000000000000000007bffffffffffffffffffffffffffffffffffffffffffffffffffffffff19166020820180517bffffffffffffffffffffffffffffffffffffffffffffffffffffffff838183161783525050505061075e565b50565b60008151905060006a636f6e736f6c652e6c6f679050602083016000808483855afa5050505050565b600061079a61079584610b1b565b610af6565b9050828152602081018484840111156107b257600080fd5b6107bd848285610c04565b509392505050565b6000813590506107d481610d58565b92915050565b6000813590506107e981610d6f565b92915050565b600082601f83011261080057600080fd5b8135610810848260208601610787565b91505092915050565b60008135905061082881610d86565b92915050565b60008135905061083d81610d9d565b92915050565b60006020828403121561085557600080fd5b6000610863848285016107c5565b91505092915050565b600080600080600060a0868803121561088457600080fd5b600086013567ffffffffffffffff81111561089e57600080fd5b6108aa888289016107ef565b955050602086013567ffffffffffffffff8111156108c757600080fd5b6108d3888289016107ef565b94505060406108e4888289016107da565b93505060606108f588828901610819565b92505060806109068882890161082e565b9150509295509295909350565b60006020828403121561092557600080fd5b600061093384828501610819565b91505092915050565b61094581610bce565b82525050565b61095481610b68565b82525050565b600061096582610b4c565b61096f8185610b57565b935061097f818560208601610c13565b61098881610ca6565b840191505092915050565b60006109a0602683610b57565b91506109ab82610cb7565b604082019050919050565b60006109c3601683610b57565b91506109ce82610d06565b602082019050919050565b60006109e6602083610b57565b91506109f182610d2f565b602082019050919050565b610a0581610bac565b82525050565b610a1481610bb6565b82525050565b6000602082019050610a2f600083018461094b565b92915050565b600060a0820190508181036000830152610a4f818861095a565b90508181036020830152610a63818761095a565b9050610a72604083018661093c565b610a7f60608301856109fc565b610a8c6080830184610a0b565b9695505050505050565b60006020820190508181036000830152610aaf81610993565b9050919050565b60006020820190508181036000830152610acf816109b6565b9050919050565b60006020820190508181036000830152610aef816109d9565b9050919050565b6000610b00610b11565b9050610b0c8282610c46565b919050565b6000604051905090565b600067ffffffffffffffff821115610b3657610b35610c77565b5b610b3f82610ca6565b9050602081019050919050565b600081519050919050565b600082825260208201905092915050565b6000610b7382610b8c565b9050919050565b6000610b8582610b8c565b9050919050565b600073ffffffffffffffffffffffffffffffffffffffff82169050919050565b6000819050919050565b60006bffffffffffffffffffffffff82169050919050565b6000610bd982610be0565b9050919050565b6000610beb82610bf2565b9050919050565b6000610bfd82610b8c565b9050919050565b82818337600083830152505050565b60005b83811015610c31578082015181840152602081019050610c16565b83811115610c40576000848401525b50505050565b610c4f82610ca6565b810181811067ffffffffffffffff82111715610c6e57610c6d610c77565b5b80604052505050565b7f4e487b7100000000000000000000000000000000000000000000000000000000600052604160045260246000fd5b6000601f19601f8301169050919050565b7f4f776e61626c653a206e6577206f776e657220697320746865207a65726f206160008201527f6464726573730000000000000000000000000000000000000000000000000000602082015250565b7f455243313136373a20637265617465206661696c656400000000000000000000600082015250565b7f4f776e61626c653a2063616c6c6572206973206e6f7420746865206f776e6572600082015250565b610d6181610b68565b8114610d6c57600080fd5b50565b610d7881610b7a565b8114610d8357600080fd5b50565b610d8f81610bac565b8114610d9a57600080fd5b50565b610da681610bb6565b8114610db157600080fd5b5056fea2646970667358221220f3d4aa1c8456523917728a581242bad80719dbe5c13e2a3cacb7ee7528afc3e464736f6c63430008040033",
  "linkReferences": {},
  "deployedLinkReferences": {}
}