{
  "_format": "hh-sol-artifact-1",
  "contractName": "LiveMintFactorySingle",
  "sourceName": "contracts/LiveMintSingle.sol",
  "abi": [
    {
      "inputs": [
        {
          "internalType": "string",
          "name": "name",
          "type": "string"
        },
        {
          "internalType": "string",
          "name": "symbol",
          "type": "string"
        },
        {
          "internalType": "address payable",
          "name": "artist",
          "type": "address"
        },
        {
          "internalType": "uint256",
          "name": "_mintAmount",
          "type": "uint256"
        },
        {
          "internalType": "uint96",
          "name": "_royaltyValue",
          "type": "uint96"
        }
      ],
      "stateMutability": "nonpayable",
      "type": "constructor"
    },
    {
      "anonymous": false,
      "inputs": [
        {
          "indexed": true,
          "internalType": "address",
          "name": "owner",
          "type": "address"
        },
        {
          "indexed": true,
          "internalType": "address",
          "name": "approved",
          "type": "address"
        },
        {
          "indexed": true,
          "internalType": "uint256",
          "name": "tokenId",
          "type": "uint256"
        }
      ],
      "name": "Approval",
      "type": "event"
    },
    {
      "anonymous": false,
      "inputs": [
        {
          "indexed": true,
          "internalType": "address",
          "name": "owner",
          "type": "address"
        },
        {
          "indexed": true,
          "internalType": "address",
          "name": "operator",
          "type": "address"
        },
        {
          "indexed": false,
          "internalType": "bool",
          "name": "approved",
          "type": "bool"
        }
      ],
      "name": "ApprovalForAll",
      "type": "event"
    },
    {
      "anonymous": false,
      "inputs": [
        {
          "indexed": true,
          "internalType": "address",
          "name": "previousOwner",
          "type": "address"
        },
        {
          "indexed": true,
          "internalType": "address",
          "name": "newOwner",
          "type": "address"
        }
      ],
      "name": "OwnershipTransferred",
      "type": "event"
    },
    {
      "anonymous": false,
      "inputs": [
        {
          "indexed": true,
          "internalType": "address",
          "name": "from",
          "type": "address"
        },
        {
          "indexed": true,
          "internalType": "address",
          "name": "to",
          "type": "address"
        },
        {
          "indexed": true,
          "internalType": "uint256",
          "name": "tokenId",
          "type": "uint256"
        }
      ],
      "name": "Transfer",
      "type": "event"
    },
    {
      "inputs": [
        {
          "internalType": "address",
          "name": "to",
          "type": "address"
        },
        {
          "internalType": "uint256",
          "name": "tokenId",
          "type": "uint256"
        }
      ],
      "name": "approve",
      "outputs": [],
      "stateMutability": "nonpayable",
      "type": "function"
    },
    {
      "inputs": [
        {
          "internalType": "address",
          "name": "owner",
          "type": "address"
        }
      ],
      "name": "balanceOf",
      "outputs": [
        {
          "internalType": "uint256",
          "name": "",
          "type": "uint256"
        }
      ],
      "stateMutability": "view",
      "type": "function"
    },
    {
      "inputs": [
        {
          "internalType": "uint256",
          "name": "tokenId",
          "type": "uint256"
        }
      ],
      "name": "getApproved",
      "outputs": [
        {
          "internalType": "address",
          "name": "",
          "type": "address"
        }
      ],
      "stateMutability": "view",
      "type": "function"
    },
    {
      "inputs": [],
      "name": "getCurrentId",
      "outputs": [
        {
          "internalType": "uint256",
          "name": "",
          "type": "uint256"
        }
      ],
      "stateMutability": "view",
      "type": "function"
    },
    {
      "inputs": [
        {
          "internalType": "address",
          "name": "owner",
          "type": "address"
        },
        {
          "internalType": "address",
          "name": "operator",
          "type": "address"
        }
      ],
      "name": "isApprovedForAll",
      "outputs": [
        {
          "internalType": "bool",
          "name": "",
          "type": "bool"
        }
      ],
      "stateMutability": "view",
      "type": "function"
    },
    {
      "inputs": [
        {
          "internalType": "string",
          "name": "tokenURI",
          "type": "string"
        }
      ],
      "name": "mint",
      "outputs": [
        {
          "internalType": "uint256",
          "name": "",
          "type": "uint256"
        }
      ],
      "stateMutability": "nonpayable",
      "type": "function"
    },
    {
      "inputs": [],
      "name": "name",
      "outputs": [
        {
          "internalType": "string",
          "name": "",
          "type": "string"
        }
      ],
      "stateMutability": "view",
      "type": "function"
    },
    {
      "inputs": [],
      "name": "owner",
      "outputs": [
        {
          "internalType": "address",
          "name": "",
          "type": "address"
        }
      ],
      "stateMutability": "view",
      "type": "function"
    },
    {
      "inputs": [
        {
          "internalType": "uint256",
          "name": "tokenId",
          "type": "uint256"
        }
      ],
      "name": "ownerOf",
      "outputs": [
        {
          "internalType": "address",
          "name": "",
          "type": "address"
        }
      ],
      "stateMutability": "view",
      "type": "function"
    },
    {
      "inputs": [],
      "name": "renounceOwnership",
      "outputs": [],
      "stateMutability": "nonpayable",
      "type": "function"
    },
    {
      "inputs": [
        {
          "internalType": "uint256",
          "name": "_tokenId",
          "type": "uint256"
        },
        {
          "internalType": "uint256",
          "name": "_salePrice",
          "type": "uint256"
        }
      ],
      "name": "royaltyInfo",
      "outputs": [
        {
          "internalType": "address",
          "name": "",
          "type": "address"
        },
        {
          "internalType": "uint256",
          "name": "",
          "type": "uint256"
        }
      ],
      "stateMutability": "view",
      "type": "function"
    },
    {
      "inputs": [
        {
          "internalType": "address",
          "name": "from",
          "type": "address"
        },
        {
          "internalType": "address",
          "name": "to",
          "type": "address"
        },
        {
          "internalType": "uint256",
          "name": "tokenId",
          "type": "uint256"
        }
      ],
      "name": "safeTransferFrom",
      "outputs": [],
      "stateMutability": "nonpayable",
      "type": "function"
    },
    {
      "inputs": [
        {
          "internalType": "address",
          "name": "from",
          "type": "address"
        },
        {
          "internalType": "address",
          "name": "to",
          "type": "address"
        },
        {
          "internalType": "uint256",
          "name": "tokenId",
          "type": "uint256"
        },
        {
          "internalType": "bytes",
          "name": "_data",
          "type": "bytes"
        }
      ],
      "name": "safeTransferFrom",
      "outputs": [],
      "stateMutability": "nonpayable",
      "type": "function"
    },
    {
      "inputs": [
        {
          "internalType": "address",
          "name": "operator",
          "type": "address"
        },
        {
          "internalType": "bool",
          "name": "approved",
          "type": "bool"
        }
      ],
      "name": "setApprovalForAll",
      "outputs": [],
      "stateMutability": "nonpayable",
      "type": "function"
    },
    {
      "inputs": [
        {
          "internalType": "bytes4",
          "name": "interfaceId",
          "type": "bytes4"
        }
      ],
      "name": "supportsInterface",
      "outputs": [
        {
          "internalType": "bool",
          "name": "",
          "type": "bool"
        }
      ],
      "stateMutability": "view",
      "type": "function"
    },
    {
      "inputs": [],
      "name": "symbol",
      "outputs": [
        {
          "internalType": "string",
          "name": "",
          "type": "string"
        }
      ],
      "stateMutability": "view",
      "type": "function"
    },
    {
      "inputs": [
        {
          "internalType": "uint256",
          "name": "tokenId",
          "type": "uint256"
        }
      ],
      "name": "tokenURI",
      "outputs": [
        {
          "internalType": "string",
          "name": "",
          "type": "string"
        }
      ],
      "stateMutability": "view",
      "type": "function"
    },
    {
      "inputs": [
        {
          "internalType": "address",
          "name": "from",
          "type": "address"
        },
        {
          "internalType": "address",
          "name": "to",
          "type": "address"
        },
        {
          "internalType": "uint256",
          "name": "tokenId",
          "type": "uint256"
        }
      ],
      "name": "transferFrom",
      "outputs": [],
      "stateMutability": "nonpayable",
      "type": "function"
    },
    {
      "inputs": [
        {
          "internalType": "address",
          "name": "newOwner",
          "type": "address"
        }
      ],
      "name": "transferOwnership",
      "outputs": [],
      "stateMutability": "nonpayable",
      "type": "function"
    }
  ],
  "bytecode": "0x60806040523480156200001157600080fd5b5060405162003d6038038062003d6083398181016040528101906200003791906200034e565b8484816000908051906020019062000051929190620001e7565b5080600190805190602001906200006a929190620001e7565b5050506200008d620000816200011960201b60201c565b6200012160201b60201c565b6001600a8190555082600d600c6101000a81548173ffffffffffffffffffffffffffffffffffffffff021916908373ffffffffffffffffffffffffffffffffffffffff16021790555081600c8190555080600d60006101000a8154816bffffffffffffffffffffffff02191690836bffffffffffffffffffffffff160217905550505050505062000616565b600033905090565b6000600760009054906101000a900473ffffffffffffffffffffffffffffffffffffffff16905081600760006101000a81548173ffffffffffffffffffffffffffffffffffffffff021916908373ffffffffffffffffffffffffffffffffffffffff1602179055508173ffffffffffffffffffffffffffffffffffffffff168173ffffffffffffffffffffffffffffffffffffffff167f8be0079c531659141344cd1fd0a4f28419497f9722a3daafe3b4186f6b6457e060405160405180910390a35050565b828054620001f590620004ed565b90600052602060002090601f01602090048101928262000219576000855562000265565b82601f106200023457805160ff191683800117855562000265565b8280016001018555821562000265579182015b828111156200026457825182559160200191906001019062000247565b5b50905062000274919062000278565b5090565b5b808211156200029357600081600090555060010162000279565b5090565b6000620002ae620002a8846200042b565b62000402565b905082815260208101848484011115620002c757600080fd5b620002d4848285620004b7565b509392505050565b600081519050620002ed81620005c8565b92915050565b600082601f8301126200030557600080fd5b81516200031784826020860162000297565b91505092915050565b6000815190506200033181620005e2565b92915050565b6000815190506200034881620005fc565b92915050565b600080600080600060a086880312156200036757600080fd5b600086015167ffffffffffffffff8111156200038257600080fd5b6200039088828901620002f3565b955050602086015167ffffffffffffffff811115620003ae57600080fd5b620003bc88828901620002f3565b9450506040620003cf88828901620002dc565b9350506060620003e28882890162000320565b9250506080620003f58882890162000337565b9150509295509295909350565b60006200040e62000421565b90506200041c828262000523565b919050565b6000604051905090565b600067ffffffffffffffff82111562000449576200044862000588565b5b6200045482620005b7565b9050602081019050919050565b60006200046e8262000475565b9050919050565b600073ffffffffffffffffffffffffffffffffffffffff82169050919050565b6000819050919050565b60006bffffffffffffffffffffffff82169050919050565b60005b83811015620004d7578082015181840152602081019050620004ba565b83811115620004e7576000848401525b50505050565b600060028204905060018216806200050657607f821691505b602082108114156200051d576200051c62000559565b5b50919050565b6200052e82620005b7565b810181811067ffffffffffffffff8211171562000550576200054f62000588565b5b80604052505050565b7f4e487b7100000000000000000000000000000000000000000000000000000000600052602260045260246000fd5b7f4e487b7100000000000000000000000000000000000000000000000000000000600052604160045260246000fd5b6000601f19601f8301169050919050565b620005d38162000461565b8114620005df57600080fd5b50565b620005ed8162000495565b8114620005f957600080fd5b50565b62000607816200049f565b81146200061357600080fd5b50565b61373a80620006266000396000f3fe608060405234801561001057600080fd5b50600436106101215760003560e01c806370a08231116100ad578063b88d4fde11610071578063b88d4fde14610309578063c87b56dd14610325578063d85d3d2714610355578063e985e9c514610385578063f2fde38b146103b557610121565b806370a0823114610277578063715018a6146102a75780638da5cb5b146102b157806395d89b41146102cf578063a22cb465146102ed57610121565b806323b872dd116100f457806323b872dd146101c05780632a55205a146101dc57806342842e0e1461020d5780636352211e146102295780636c1438621461025957610121565b806301ffc9a71461012657806306fdde0314610156578063081812fc14610174578063095ea7b3146101a4575b600080fd5b610140600480360381019061013b919061247f565b6103d1565b60405161014d91906129da565b60405180910390f35b61015e6103e3565b60405161016b91906129f5565b60405180910390f35b61018e60048036038101906101899190612512565b610475565b60405161019b919061294a565b60405180910390f35b6101be60048036038101906101b99190612443565b6104fa565b005b6101da60048036038101906101d5919061233d565b610612565b005b6101f660048036038101906101f1919061253b565b610672565b6040516102049291906129b1565b60405180910390f35b6102276004803603810190610222919061233d565b61085d565b005b610243600480360381019061023e9190612512565b61087d565b604051610250919061294a565b60405180910390f35b61026161092f565b60405161026e9190612cb7565b60405180910390f35b610291600480360381019061028c91906122d8565b610940565b60405161029e9190612cb7565b60405180910390f35b6102af6109f8565b005b6102b9610a80565b6040516102c6919061294a565b60405180910390f35b6102d7610aaa565b6040516102e491906129f5565b60405180910390f35b61030760048036038101906103029190612407565b610b3c565b005b610323600480360381019061031e919061238c565b610b52565b005b61033f600480360381019061033a9190612512565b610bb4565b60405161034c91906129f5565b60405180910390f35b61036f600480360381019061036a91906124d1565b610d06565b60405161037c9190612cb7565b60405180910390f35b61039f600480360381019061039a9190612301565b610e56565b6040516103ac91906129da565b60405180910390f35b6103cf60048036038101906103ca91906122d8565b610eea565b005b60006103dc82610fe2565b9050919050565b6060600080546103f290612f67565b80601f016020809104026020016040519081016040528092919081815260200182805461041e90612f67565b801561046b5780601f106104405761010080835404028352916020019161046b565b820191906000526020600020905b81548152906001019060200180831161044e57829003601f168201915b5050505050905090565b60006104808261105c565b6104bf576040517f08c379a00000000000000000000000000000000000000000000000000000000081526004016104b690612bb7565b60405180910390fd5b6004600083815260200190815260200160002060009054906101000a900473ffffffffffffffffffffffffffffffffffffffff169050919050565b60006105058261087d565b90508073ffffffffffffffffffffffffffffffffffffffff168373ffffffffffffffffffffffffffffffffffffffff161415610576576040517f08c379a000000000000000000000000000000000000000000000000000000000815260040161056d90612c17565b60405180910390fd5b8073ffffffffffffffffffffffffffffffffffffffff166105956110c8565b73ffffffffffffffffffffffffffffffffffffffff1614806105c457506105c3816105be6110c8565b610e56565b5b610603576040517f08c379a00000000000000000000000000000000000000000000000000000000081526004016105fa90612af7565b60405180910390fd5b61060d83836110d0565b505050565b61062361061d6110c8565b82611189565b610662576040517f08c379a000000000000000000000000000000000000000000000000000000000815260040161065990612c37565b60405180910390fd5b61066d838383611267565b505050565b6000806000600960008681526020019081526020016000206040518060400160405290816000820160009054906101000a900473ffffffffffffffffffffffffffffffffffffffff1673ffffffffffffffffffffffffffffffffffffffff1673ffffffffffffffffffffffffffffffffffffffff1681526020016000820160149054906101000a90046bffffffffffffffffffffffff166bffffffffffffffffffffffff166bffffffffffffffffffffffff16815250509050600073ffffffffffffffffffffffffffffffffffffffff16816000015173ffffffffffffffffffffffffffffffffffffffff1614156108085760086040518060400160405290816000820160009054906101000a900473ffffffffffffffffffffffffffffffffffffffff1673ffffffffffffffffffffffffffffffffffffffff1673ffffffffffffffffffffffffffffffffffffffff1681526020016000820160149054906101000a90046bffffffffffffffffffffffff166bffffffffffffffffffffffff166bffffffffffffffffffffffff168152505090505b60006108126114ce565b6bffffffffffffffffffffffff1682602001516bffffffffffffffffffffffff168661083e9190612e23565b6108489190612df2565b90508160000151819350935050509250929050565b61087883838360405180602001604052806000815250610b52565b505050565b6000806002600084815260200190815260200160002060009054906101000a900473ffffffffffffffffffffffffffffffffffffffff169050600073ffffffffffffffffffffffffffffffffffffffff168173ffffffffffffffffffffffffffffffffffffffff161415610926576040517f08c379a000000000000000000000000000000000000000000000000000000000815260040161091d90612b37565b60405180910390fd5b80915050919050565b600061093b600b6114d8565b905090565b60008073ffffffffffffffffffffffffffffffffffffffff168273ffffffffffffffffffffffffffffffffffffffff1614156109b1576040517f08c379a00000000000000000000000000000000000000000000000000000000081526004016109a890612b17565b60405180910390fd5b600360008373ffffffffffffffffffffffffffffffffffffffff1673ffffffffffffffffffffffffffffffffffffffff168152602001908152602001600020549050919050565b610a006110c8565b73ffffffffffffffffffffffffffffffffffffffff16610a1e610a80565b73ffffffffffffffffffffffffffffffffffffffff1614610a74576040517f08c379a0000000000000000000000000000000000000000000000000000000008152600401610a6b90612bd7565b60405180910390fd5b610a7e60006114e6565b565b6000600760009054906101000a900473ffffffffffffffffffffffffffffffffffffffff16905090565b606060018054610ab990612f67565b80601f0160208091040260200160405190810160405280929190818152602001828054610ae590612f67565b8015610b325780601f10610b0757610100808354040283529160200191610b32565b820191906000526020600020905b815481529060010190602001808311610b1557829003601f168201915b5050505050905090565b610b4e610b476110c8565b83836115ac565b5050565b610b63610b5d6110c8565b83611189565b610ba2576040517f08c379a0000000000000000000000000000000000000000000000000000000008152600401610b9990612c37565b60405180910390fd5b610bae84848484611719565b50505050565b6060610bbf8261105c565b610bfe576040517f08c379a0000000000000000000000000000000000000000000000000000000008152600401610bf590612b97565b60405180910390fd5b6000600660008481526020019081526020016000208054610c1e90612f67565b80601f0160208091040260200160405190810160405280929190818152602001828054610c4a90612f67565b8015610c975780601f10610c6c57610100808354040283529160200191610c97565b820191906000526020600020905b815481529060010190602001808311610c7a57829003601f168201915b505050505090506000610ca8611775565b9050600081511415610cbe578192505050610d01565b600082511115610cf3578082604051602001610cdb929190612926565b60405160208183030381529060405292505050610d01565b610cfc8461178c565b925050505b919050565b60006002600a541415610d4e576040517f08c379a0000000000000000000000000000000000000000000000000000000008152600401610d4590612c97565b60405180910390fd5b6002600a81905550610d5e6110c8565b73ffffffffffffffffffffffffffffffffffffffff16610d7c610a80565b73ffffffffffffffffffffffffffffffffffffffff1614610dd2576040517f08c379a0000000000000000000000000000000000000000000000000000000008152600401610dc990612bd7565b60405180910390fd5b6000610dde600b6114d8565b9050610dea3382611833565b610e3181600d600c9054906101000a900473ffffffffffffffffffffffffffffffffffffffff16600d60009054906101000a90046bffffffffffffffffffffffff16611a0d565b610e3b8184611bb5565b610e45600b611c29565b809150506001600a81905550919050565b6000600560008473ffffffffffffffffffffffffffffffffffffffff1673ffffffffffffffffffffffffffffffffffffffff16815260200190815260200160002060008373ffffffffffffffffffffffffffffffffffffffff1673ffffffffffffffffffffffffffffffffffffffff16815260200190815260200160002060009054906101000a900460ff16905092915050565b610ef26110c8565b73ffffffffffffffffffffffffffffffffffffffff16610f10610a80565b73ffffffffffffffffffffffffffffffffffffffff1614610f66576040517f08c379a0000000000000000000000000000000000000000000000000000000008152600401610f5d90612bd7565b60405180910390fd5b600073ffffffffffffffffffffffffffffffffffffffff168173ffffffffffffffffffffffffffffffffffffffff161415610fd6576040517f08c379a0000000000000000000000000000000000000000000000000000000008152600401610fcd90612a37565b60405180910390fd5b610fdf816114e6565b50565b60007f2a55205a000000000000000000000000000000000000000000000000000000007bffffffffffffffffffffffffffffffffffffffffffffffffffffffff1916827bffffffffffffffffffffffffffffffffffffffffffffffffffffffff19161480611055575061105482611c3f565b5b9050919050565b60008073ffffffffffffffffffffffffffffffffffffffff166002600084815260200190815260200160002060009054906101000a900473ffffffffffffffffffffffffffffffffffffffff1673ffffffffffffffffffffffffffffffffffffffff1614159050919050565b600033905090565b816004600083815260200190815260200160002060006101000a81548173ffffffffffffffffffffffffffffffffffffffff021916908373ffffffffffffffffffffffffffffffffffffffff160217905550808273ffffffffffffffffffffffffffffffffffffffff166111438361087d565b73ffffffffffffffffffffffffffffffffffffffff167f8c5be1e5ebec7d5bd14f71427d1e84f3dd0314c0f7b2291e5b200ac8c7c3b92560405160405180910390a45050565b60006111948261105c565b6111d3576040517f08c379a00000000000000000000000000000000000000000000000000000000081526004016111ca90612ad7565b60405180910390fd5b60006111de8361087d565b90508073ffffffffffffffffffffffffffffffffffffffff168473ffffffffffffffffffffffffffffffffffffffff16148061124d57508373ffffffffffffffffffffffffffffffffffffffff1661123584610475565b73ffffffffffffffffffffffffffffffffffffffff16145b8061125e575061125d8185610e56565b5b91505092915050565b8273ffffffffffffffffffffffffffffffffffffffff166112878261087d565b73ffffffffffffffffffffffffffffffffffffffff16146112dd576040517f08c379a00000000000000000000000000000000000000000000000000000000081526004016112d490612a57565b60405180910390fd5b600073ffffffffffffffffffffffffffffffffffffffff168273ffffffffffffffffffffffffffffffffffffffff16141561134d576040517f08c379a000000000000000000000000000000000000000000000000000000000815260040161134490612a97565b60405180910390fd5b611358838383611d21565b6113636000826110d0565b6001600360008573ffffffffffffffffffffffffffffffffffffffff1673ffffffffffffffffffffffffffffffffffffffff16815260200190815260200160002060008282546113b39190612e7d565b925050819055506001600360008473ffffffffffffffffffffffffffffffffffffffff1673ffffffffffffffffffffffffffffffffffffffff168152602001908152602001600020600082825461140a9190612d9c565b92505081905550816002600083815260200190815260200160002060006101000a81548173ffffffffffffffffffffffffffffffffffffffff021916908373ffffffffffffffffffffffffffffffffffffffff160217905550808273ffffffffffffffffffffffffffffffffffffffff168473ffffffffffffffffffffffffffffffffffffffff167fddf252ad1be2c89b69c2b068fc378daa952ba7f163c4a11628f55a4df523b3ef60405160405180910390a46114c9838383611d26565b505050565b6000612710905090565b600081600001549050919050565b6000600760009054906101000a900473ffffffffffffffffffffffffffffffffffffffff16905081600760006101000a81548173ffffffffffffffffffffffffffffffffffffffff021916908373ffffffffffffffffffffffffffffffffffffffff1602179055508173ffffffffffffffffffffffffffffffffffffffff168173ffffffffffffffffffffffffffffffffffffffff167f8be0079c531659141344cd1fd0a4f28419497f9722a3daafe3b4186f6b6457e060405160405180910390a35050565b8173ffffffffffffffffffffffffffffffffffffffff168373ffffffffffffffffffffffffffffffffffffffff16141561161b576040517f08c379a000000000000000000000000000000000000000000000000000000000815260040161161290612ab7565b60405180910390fd5b80600560008573ffffffffffffffffffffffffffffffffffffffff1673ffffffffffffffffffffffffffffffffffffffff16815260200190815260200160002060008473ffffffffffffffffffffffffffffffffffffffff1673ffffffffffffffffffffffffffffffffffffffff16815260200190815260200160002060006101000a81548160ff0219169083151502179055508173ffffffffffffffffffffffffffffffffffffffff168373ffffffffffffffffffffffffffffffffffffffff167f17307eab39ab6107e8899845ad3d59bd9653f200f220920489ca2b5937696c318360405161170c91906129da565b60405180910390a3505050565b611724848484611267565b61173084848484611d2b565b61176f576040517f08c379a000000000000000000000000000000000000000000000000000000000815260040161176690612a17565b60405180910390fd5b50505050565b606060405180602001604052806000815250905090565b60606117978261105c565b6117d6576040517f08c379a00000000000000000000000000000000000000000000000000000000081526004016117cd90612bf7565b60405180910390fd5b60006117e0611775565b90506000815111611800576040518060200160405280600081525061182b565b8061180a84611ec2565b60405160200161181b929190612926565b6040516020818303038152906040525b915050919050565b600073ffffffffffffffffffffffffffffffffffffffff168273ffffffffffffffffffffffffffffffffffffffff1614156118a3576040517f08c379a000000000000000000000000000000000000000000000000000000000815260040161189a90612b77565b60405180910390fd5b6118ac8161105c565b156118ec576040517f08c379a00000000000000000000000000000000000000000000000000000000081526004016118e390612a77565b60405180910390fd5b6118f860008383611d21565b6001600360008473ffffffffffffffffffffffffffffffffffffffff1673ffffffffffffffffffffffffffffffffffffffff16815260200190815260200160002060008282546119489190612d9c565b92505081905550816002600083815260200190815260200160002060006101000a81548173ffffffffffffffffffffffffffffffffffffffff021916908373ffffffffffffffffffffffffffffffffffffffff160217905550808273ffffffffffffffffffffffffffffffffffffffff16600073ffffffffffffffffffffffffffffffffffffffff167fddf252ad1be2c89b69c2b068fc378daa952ba7f163c4a11628f55a4df523b3ef60405160405180910390a4611a0960008383611d26565b5050565b611a156114ce565b6bffffffffffffffffffffffff16816bffffffffffffffffffffffff161115611a73576040517f08c379a0000000000000000000000000000000000000000000000000000000008152600401611a6a90612c77565b60405180910390fd5b600073ffffffffffffffffffffffffffffffffffffffff168273ffffffffffffffffffffffffffffffffffffffff161415611ae3576040517f08c379a0000000000000000000000000000000000000000000000000000000008152600401611ada90612c57565b60405180910390fd5b60405180604001604052808373ffffffffffffffffffffffffffffffffffffffff168152602001826bffffffffffffffffffffffff168152506009600085815260200190815260200160002060008201518160000160006101000a81548173ffffffffffffffffffffffffffffffffffffffff021916908373ffffffffffffffffffffffffffffffffffffffff16021790555060208201518160000160146101000a8154816bffffffffffffffffffffffff02191690836bffffffffffffffffffffffff160217905550905050505050565b611bbe8261105c565b611bfd576040517f08c379a0000000000000000000000000000000000000000000000000000000008152600401611bf490612b57565b60405180910390fd5b80600660008481526020019081526020016000209080519060200190611c249291906120fc565b505050565b6001816000016000828254019250508190555050565b60007f80ac58cd000000000000000000000000000000000000000000000000000000007bffffffffffffffffffffffffffffffffffffffffffffffffffffffff1916827bffffffffffffffffffffffffffffffffffffffffffffffffffffffff19161480611d0a57507f5b5e139f000000000000000000000000000000000000000000000000000000007bffffffffffffffffffffffffffffffffffffffffffffffffffffffff1916827bffffffffffffffffffffffffffffffffffffffffffffffffffffffff1916145b80611d1a5750611d198261206f565b5b9050919050565b505050565b505050565b6000611d4c8473ffffffffffffffffffffffffffffffffffffffff166120d9565b15611eb5578373ffffffffffffffffffffffffffffffffffffffff1663150b7a02611d756110c8565b8786866040518563ffffffff1660e01b8152600401611d979493929190612965565b602060405180830381600087803b158015611db157600080fd5b505af1925050508015611de257506040513d601f19601f82011682018060405250810190611ddf91906124a8565b60015b611e65573d8060008114611e12576040519150601f19603f3d011682016040523d82523d6000602084013e611e17565b606091505b50600081511415611e5d576040517f08c379a0000000000000000000000000000000000000000000000000000000008152600401611e5490612a17565b60405180910390fd5b805181602001fd5b63150b7a0260e01b7bffffffffffffffffffffffffffffffffffffffffffffffffffffffff1916817bffffffffffffffffffffffffffffffffffffffffffffffffffffffff191614915050611eba565b600190505b949350505050565b60606000821415611f0a576040518060400160405280600181526020017f3000000000000000000000000000000000000000000000000000000000000000815250905061206a565b600082905060005b60008214611f3c578080611f2590612fca565b915050600a82611f359190612df2565b9150611f12565b60008167ffffffffffffffff811115611f7e577f4e487b7100000000000000000000000000000000000000000000000000000000600052604160045260246000fd5b6040519080825280601f01601f191660200182016040528015611fb05781602001600182028036833780820191505090505b5090505b6000851461206357600182611fc99190612e7d565b9150600a85611fd89190613013565b6030611fe49190612d9c565b60f81b818381518110612020577f4e487b7100000000000000000000000000000000000000000000000000000000600052603260045260246000fd5b60200101907effffffffffffffffffffffffffffffffffffffffffffffffffffffffffffff1916908160001a905350600a8561205c9190612df2565b9450611fb4565b8093505050505b919050565b60007f01ffc9a7000000000000000000000000000000000000000000000000000000007bffffffffffffffffffffffffffffffffffffffffffffffffffffffff1916827bffffffffffffffffffffffffffffffffffffffffffffffffffffffff1916149050919050565b6000808273ffffffffffffffffffffffffffffffffffffffff163b119050919050565b82805461210890612f67565b90600052602060002090601f01602090048101928261212a5760008555612171565b82601f1061214357805160ff1916838001178555612171565b82800160010185558215612171579182015b82811115612170578251825591602001919060010190612155565b5b50905061217e9190612182565b5090565b5b8082111561219b576000816000905550600101612183565b5090565b60006121b26121ad84612cf7565b612cd2565b9050828152602081018484840111156121ca57600080fd5b6121d5848285612f25565b509392505050565b60006121f06121eb84612d28565b612cd2565b90508281526020810184848401111561220857600080fd5b612213848285612f25565b509392505050565b60008135905061222a816136a8565b92915050565b60008135905061223f816136bf565b92915050565b600081359050612254816136d6565b92915050565b600081519050612269816136d6565b92915050565b600082601f83011261228057600080fd5b813561229084826020860161219f565b91505092915050565b600082601f8301126122aa57600080fd5b81356122ba8482602086016121dd565b91505092915050565b6000813590506122d2816136ed565b92915050565b6000602082840312156122ea57600080fd5b60006122f88482850161221b565b91505092915050565b6000806040838503121561231457600080fd5b60006123228582860161221b565b92505060206123338582860161221b565b9150509250929050565b60008060006060848603121561235257600080fd5b60006123608682870161221b565b93505060206123718682870161221b565b9250506040612382868287016122c3565b9150509250925092565b600080600080608085870312156123a257600080fd5b60006123b08782880161221b565b94505060206123c18782880161221b565b93505060406123d2878288016122c3565b925050606085013567ffffffffffffffff8111156123ef57600080fd5b6123fb8782880161226f565b91505092959194509250565b6000806040838503121561241a57600080fd5b60006124288582860161221b565b925050602061243985828601612230565b9150509250929050565b6000806040838503121561245657600080fd5b60006124648582860161221b565b9250506020612475858286016122c3565b9150509250929050565b60006020828403121561249157600080fd5b600061249f84828501612245565b91505092915050565b6000602082840312156124ba57600080fd5b60006124c88482850161225a565b91505092915050565b6000602082840312156124e357600080fd5b600082013567ffffffffffffffff8111156124fd57600080fd5b61250984828501612299565b91505092915050565b60006020828403121561252457600080fd5b6000612532848285016122c3565b91505092915050565b6000806040838503121561254e57600080fd5b600061255c858286016122c3565b925050602061256d858286016122c3565b9150509250929050565b61258081612eb1565b82525050565b61258f81612ec3565b82525050565b60006125a082612d59565b6125aa8185612d6f565b93506125ba818560208601612f34565b6125c381613100565b840191505092915050565b60006125d982612d64565b6125e38185612d80565b93506125f3818560208601612f34565b6125fc81613100565b840191505092915050565b600061261282612d64565b61261c8185612d91565b935061262c818560208601612f34565b80840191505092915050565b6000612645603283612d80565b915061265082613111565b604082019050919050565b6000612668602683612d80565b915061267382613160565b604082019050919050565b600061268b602583612d80565b9150612696826131af565b604082019050919050565b60006126ae601c83612d80565b91506126b9826131fe565b602082019050919050565b60006126d1602483612d80565b91506126dc82613227565b604082019050919050565b60006126f4601983612d80565b91506126ff82613276565b602082019050919050565b6000612717602c83612d80565b91506127228261329f565b604082019050919050565b600061273a603883612d80565b9150612745826132ee565b604082019050919050565b600061275d602a83612d80565b91506127688261333d565b604082019050919050565b6000612780602983612d80565b915061278b8261338c565b604082019050919050565b60006127a3602e83612d80565b91506127ae826133db565b604082019050919050565b60006127c6602083612d80565b91506127d18261342a565b602082019050919050565b60006127e9603183612d80565b91506127f482613453565b604082019050919050565b600061280c602c83612d80565b9150612817826134a2565b604082019050919050565b600061282f602083612d80565b915061283a826134f1565b602082019050919050565b6000612852602f83612d80565b915061285d8261351a565b604082019050919050565b6000612875602183612d80565b915061288082613569565b604082019050919050565b6000612898603183612d80565b91506128a3826135b8565b604082019050919050565b60006128bb601b83612d80565b91506128c682613607565b602082019050919050565b60006128de602a83612d80565b91506128e982613630565b604082019050919050565b6000612901601f83612d80565b915061290c8261367f565b602082019050919050565b61292081612f1b565b82525050565b60006129328285612607565b915061293e8284612607565b91508190509392505050565b600060208201905061295f6000830184612577565b92915050565b600060808201905061297a6000830187612577565b6129876020830186612577565b6129946040830185612917565b81810360608301526129a68184612595565b905095945050505050565b60006040820190506129c66000830185612577565b6129d36020830184612917565b9392505050565b60006020820190506129ef6000830184612586565b92915050565b60006020820190508181036000830152612a0f81846125ce565b905092915050565b60006020820190508181036000830152612a3081612638565b9050919050565b60006020820190508181036000830152612a508161265b565b9050919050565b60006020820190508181036000830152612a708161267e565b9050919050565b60006020820190508181036000830152612a90816126a1565b9050919050565b60006020820190508181036000830152612ab0816126c4565b9050919050565b60006020820190508181036000830152612ad0816126e7565b9050919050565b60006020820190508181036000830152612af08161270a565b9050919050565b60006020820190508181036000830152612b108161272d565b9050919050565b60006020820190508181036000830152612b3081612750565b9050919050565b60006020820190508181036000830152612b5081612773565b9050919050565b60006020820190508181036000830152612b7081612796565b9050919050565b60006020820190508181036000830152612b90816127b9565b9050919050565b60006020820190508181036000830152612bb0816127dc565b9050919050565b60006020820190508181036000830152612bd0816127ff565b9050919050565b60006020820190508181036000830152612bf081612822565b9050919050565b60006020820190508181036000830152612c1081612845565b9050919050565b60006020820190508181036000830152612c3081612868565b9050919050565b60006020820190508181036000830152612c508161288b565b9050919050565b60006020820190508181036000830152612c70816128ae565b9050919050565b60006020820190508181036000830152612c90816128d1565b9050919050565b60006020820190508181036000830152612cb0816128f4565b9050919050565b6000602082019050612ccc6000830184612917565b92915050565b6000612cdc612ced565b9050612ce88282612f99565b919050565b6000604051905090565b600067ffffffffffffffff821115612d1257612d116130d1565b5b612d1b82613100565b9050602081019050919050565b600067ffffffffffffffff821115612d4357612d426130d1565b5b612d4c82613100565b9050602081019050919050565b600081519050919050565b600081519050919050565b600082825260208201905092915050565b600082825260208201905092915050565b600081905092915050565b6000612da782612f1b565b9150612db283612f1b565b9250827fffffffffffffffffffffffffffffffffffffffffffffffffffffffffffffffff03821115612de757612de6613044565b5b828201905092915050565b6000612dfd82612f1b565b9150612e0883612f1b565b925082612e1857612e17613073565b5b828204905092915050565b6000612e2e82612f1b565b9150612e3983612f1b565b9250817fffffffffffffffffffffffffffffffffffffffffffffffffffffffffffffffff0483118215151615612e7257612e71613044565b5b828202905092915050565b6000612e8882612f1b565b9150612e9383612f1b565b925082821015612ea657612ea5613044565b5b828203905092915050565b6000612ebc82612efb565b9050919050565b60008115159050919050565b60007fffffffff0000000000000000000000000000000000000000000000000000000082169050919050565b600073ffffffffffffffffffffffffffffffffffffffff82169050919050565b6000819050919050565b82818337600083830152505050565b60005b83811015612f52578082015181840152602081019050612f37565b83811115612f61576000848401525b50505050565b60006002820490506001821680612f7f57607f821691505b60208210811415612f9357612f926130a2565b5b50919050565b612fa282613100565b810181811067ffffffffffffffff82111715612fc157612fc06130d1565b5b80604052505050565b6000612fd582612f1b565b91507fffffffffffffffffffffffffffffffffffffffffffffffffffffffffffffffff82141561300857613007613044565b5b600182019050919050565b600061301e82612f1b565b915061302983612f1b565b92508261303957613038613073565b5b828206905092915050565b7f4e487b7100000000000000000000000000000000000000000000000000000000600052601160045260246000fd5b7f4e487b7100000000000000000000000000000000000000000000000000000000600052601260045260246000fd5b7f4e487b7100000000000000000000000000000000000000000000000000000000600052602260045260246000fd5b7f4e487b7100000000000000000000000000000000000000000000000000000000600052604160045260246000fd5b6000601f19601f8301169050919050565b7f4552433732313a207472616e7366657220746f206e6f6e20455243373231526560008201527f63656976657220696d706c656d656e7465720000000000000000000000000000602082015250565b7f4f776e61626c653a206e6577206f776e657220697320746865207a65726f206160008201527f6464726573730000000000000000000000000000000000000000000000000000602082015250565b7f4552433732313a207472616e736665722066726f6d20696e636f72726563742060008201527f6f776e6572000000000000000000000000000000000000000000000000000000602082015250565b7f4552433732313a20746f6b656e20616c7265616479206d696e74656400000000600082015250565b7f4552433732313a207472616e7366657220746f20746865207a65726f2061646460008201527f7265737300000000000000000000000000000000000000000000000000000000602082015250565b7f4552433732313a20617070726f766520746f2063616c6c657200000000000000600082015250565b7f4552433732313a206f70657261746f7220717565727920666f72206e6f6e657860008201527f697374656e7420746f6b656e0000000000000000000000000000000000000000602082015250565b7f4552433732313a20617070726f76652063616c6c6572206973206e6f74206f7760008201527f6e6572206e6f7220617070726f76656420666f7220616c6c0000000000000000602082015250565b7f4552433732313a2062616c616e636520717565727920666f7220746865207a6560008201527f726f206164647265737300000000000000000000000000000000000000000000602082015250565b7f4552433732313a206f776e657220717565727920666f72206e6f6e657869737460008201527f656e7420746f6b656e0000000000000000000000000000000000000000000000602082015250565b7f45524337323155524953746f726167653a2055524920736574206f66206e6f6e60008201527f6578697374656e7420746f6b656e000000000000000000000000000000000000602082015250565b7f4552433732313a206d696e7420746f20746865207a65726f2061646472657373600082015250565b7f45524337323155524953746f726167653a2055524920717565727920666f722060008201527f6e6f6e6578697374656e7420746f6b656e000000000000000000000000000000602082015250565b7f4552433732313a20617070726f76656420717565727920666f72206e6f6e657860008201527f697374656e7420746f6b656e0000000000000000000000000000000000000000602082015250565b7f4f776e61626c653a2063616c6c6572206973206e6f7420746865206f776e6572600082015250565b7f4552433732314d657461646174613a2055524920717565727920666f72206e6f60008201527f6e6578697374656e7420746f6b656e0000000000000000000000000000000000602082015250565b7f4552433732313a20617070726f76616c20746f2063757272656e74206f776e6560008201527f7200000000000000000000000000000000000000000000000000000000000000602082015250565b7f4552433732313a207472616e736665722063616c6c6572206973206e6f74206f60008201527f776e6572206e6f7220617070726f766564000000000000000000000000000000602082015250565b7f455243323938313a20496e76616c696420706172616d65746572730000000000600082015250565b7f455243323938313a20726f79616c7479206665652077696c6c2065786365656460008201527f2073616c65507269636500000000000000000000000000000000000000000000602082015250565b7f5265656e7472616e637947756172643a207265656e7472616e742063616c6c00600082015250565b6136b181612eb1565b81146136bc57600080fd5b50565b6136c881612ec3565b81146136d357600080fd5b50565b6136df81612ecf565b81146136ea57600080fd5b50565b6136f681612f1b565b811461370157600080fd5b5056fea2646970667358221220d1d8f0fab6dff297897cb5ba3342f67b1dc212251909a1c656f1c72a38742ab464736f6c63430008040033",
  "linkReferences": {},
  "deployedLinkReferences": {}
}