{
  "_format": "hh-sol-artifact-1",
  "contractName": "Collection",
  "sourceName": "contracts/NFTMarketplace.sol",
  "abi": [
    {
      "inputs": [
        {
          "internalType": "bytes32",
          "name": "_root",
          "type": "bytes32"
        }
      ],
      "stateMutability": "nonpayable",
      "type": "constructor"
    },
    {
      "inputs": [],
      "name": "ApprovalCallerNotOwnerNorApproved",
      "type": "error"
    },
    {
      "inputs": [],
      "name": "ApprovalQueryForNonexistentToken",
      "type": "error"
    },
    {
      "inputs": [],
      "name": "ApprovalToCurrentOwner",
      "type": "error"
    },
    {
      "inputs": [],
      "name": "ApproveToCaller",
      "type": "error"
    },
    {
      "inputs": [],
      "name": "BalanceQueryForZeroAddress",
      "type": "error"
    },
    {
      "inputs": [],
      "name": "MintToZeroAddress",
      "type": "error"
    },
    {
      "inputs": [],
      "name": "MintZeroQuantity",
      "type": "error"
    },
    {
      "inputs": [],
      "name": "OwnerQueryForNonexistentToken",
      "type": "error"
    },
    {
      "inputs": [],
      "name": "TransferCallerNotOwnerNorApproved",
      "type": "error"
    },
    {
      "inputs": [],
      "name": "TransferFromIncorrectOwner",
      "type": "error"
    },
    {
      "inputs": [],
      "name": "TransferToNonERC721ReceiverImplementer",
      "type": "error"
    },
    {
      "inputs": [],
      "name": "TransferToZeroAddress",
      "type": "error"
    },
    {
      "anonymous": false,
      "inputs": [
        {
          "indexed": true,
          "internalType": "address",
          "name": "owner",
          "type": "address"
        },
        {
          "indexed": true,
          "internalType": "address",
          "name": "approved",
          "type": "address"
        },
        {
          "indexed": true,
          "internalType": "uint256",
          "name": "tokenId",
          "type": "uint256"
        }
      ],
      "name": "Approval",
      "type": "event"
    },
    {
      "anonymous": false,
      "inputs": [
        {
          "indexed": true,
          "internalType": "address",
          "name": "owner",
          "type": "address"
        },
        {
          "indexed": true,
          "internalType": "address",
          "name": "operator",
          "type": "address"
        },
        {
          "indexed": false,
          "internalType": "bool",
          "name": "approved",
          "type": "bool"
        }
      ],
      "name": "ApprovalForAll",
      "type": "event"
    },
    {
      "anonymous": false,
      "inputs": [
        {
          "indexed": true,
          "internalType": "address",
          "name": "previousOwner",
          "type": "address"
        },
        {
          "indexed": true,
          "internalType": "address",
          "name": "newOwner",
          "type": "address"
        }
      ],
      "name": "OwnershipTransferred",
      "type": "event"
    },
    {
      "anonymous": false,
      "inputs": [
        {
          "indexed": true,
          "internalType": "address",
          "name": "from",
          "type": "address"
        },
        {
          "indexed": true,
          "internalType": "address",
          "name": "to",
          "type": "address"
        },
        {
          "indexed": true,
          "internalType": "uint256",
          "name": "tokenId",
          "type": "uint256"
        }
      ],
      "name": "Transfer",
      "type": "event"
    },
    {
      "inputs": [
        {
          "internalType": "address",
          "name": "to",
          "type": "address"
        },
        {
          "internalType": "uint256",
          "name": "tokenId",
          "type": "uint256"
        }
      ],
      "name": "approve",
      "outputs": [],
      "stateMutability": "nonpayable",
      "type": "function"
    },
    {
      "inputs": [
        {
          "internalType": "address",
          "name": "owner",
          "type": "address"
        }
      ],
      "name": "balanceOf",
      "outputs": [
        {
          "internalType": "uint256",
          "name": "",
          "type": "uint256"
        }
      ],
      "stateMutability": "view",
      "type": "function"
    },
    {
      "inputs": [],
      "name": "baseExtension",
      "outputs": [
        {
          "internalType": "string",
          "name": "",
          "type": "string"
        }
      ],
      "stateMutability": "view",
      "type": "function"
    },
    {
      "inputs": [],
      "name": "baseURI",
      "outputs": [
        {
          "internalType": "string",
          "name": "",
          "type": "string"
        }
      ],
      "stateMutability": "view",
      "type": "function"
    },
    {
      "inputs": [],
      "name": "cost",
      "outputs": [
        {
          "internalType": "uint256",
          "name": "",
          "type": "uint256"
        }
      ],
      "stateMutability": "view",
      "type": "function"
    },
    {
      "inputs": [
        {
          "internalType": "uint256",
          "name": "tokenId",
          "type": "uint256"
        }
      ],
      "name": "getApproved",
      "outputs": [
        {
          "internalType": "address",
          "name": "",
          "type": "address"
        }
      ],
      "stateMutability": "view",
      "type": "function"
    },
    {
      "inputs": [],
      "name": "getRoot",
      "outputs": [
        {
          "internalType": "bytes32",
          "name": "",
          "type": "bytes32"
        }
      ],
      "stateMutability": "view",
      "type": "function"
    },
    {
      "inputs": [],
      "name": "isAllowListActive",
      "outputs": [
        {
          "internalType": "bool",
          "name": "",
          "type": "bool"
        }
      ],
      "stateMutability": "view",
      "type": "function"
    },
    {
      "inputs": [
        {
          "internalType": "address",
          "name": "owner",
          "type": "address"
        },
        {
          "internalType": "address",
          "name": "operator",
          "type": "address"
        }
      ],
      "name": "isApprovedForAll",
      "outputs": [
        {
          "internalType": "bool",
          "name": "",
          "type": "bool"
        }
      ],
      "stateMutability": "view",
      "type": "function"
    },
    {
      "inputs": [],
      "name": "isMintActive",
      "outputs": [
        {
          "internalType": "bool",
          "name": "",
          "type": "bool"
        }
      ],
      "stateMutability": "view",
      "type": "function"
    },
    {
      "inputs": [],
      "name": "maxMintAmount",
      "outputs": [
        {
          "internalType": "uint256",
          "name": "",
          "type": "uint256"
        }
      ],
      "stateMutability": "view",
      "type": "function"
    },
    {
      "inputs": [],
      "name": "maxSupply",
      "outputs": [
        {
          "internalType": "uint256",
          "name": "",
          "type": "uint256"
        }
      ],
      "stateMutability": "view",
      "type": "function"
    },
    {
      "inputs": [
        {
          "internalType": "address",
          "name": "_to",
          "type": "address"
        },
        {
          "internalType": "uint256",
          "name": "_mintAmount",
          "type": "uint256"
        }
      ],
      "name": "mint",
      "outputs": [],
      "stateMutability": "payable",
      "type": "function"
    },
    {
      "inputs": [],
      "name": "name",
      "outputs": [
        {
          "internalType": "string",
          "name": "",
          "type": "string"
        }
      ],
      "stateMutability": "view",
      "type": "function"
    },
    {
      "inputs": [],
      "name": "owner",
      "outputs": [
        {
          "internalType": "address",
          "name": "",
          "type": "address"
        }
      ],
      "stateMutability": "view",
      "type": "function"
    },
    {
      "inputs": [
        {
          "internalType": "uint256",
          "name": "tokenId",
          "type": "uint256"
        }
      ],
      "name": "ownerOf",
      "outputs": [
        {
          "internalType": "address",
          "name": "",
          "type": "address"
        }
      ],
      "stateMutability": "view",
      "type": "function"
    },
    {
      "inputs": [
        {
          "internalType": "bool",
          "name": "_state",
          "type": "bool"
        }
      ],
      "name": "pause",
      "outputs": [],
      "stateMutability": "nonpayable",
      "type": "function"
    },
    {
      "inputs": [],
      "name": "paused",
      "outputs": [
        {
          "internalType": "bool",
          "name": "",
          "type": "bool"
        }
      ],
      "stateMutability": "view",
      "type": "function"
    },
    {
      "inputs": [],
      "name": "renounceOwnership",
      "outputs": [],
      "stateMutability": "nonpayable",
      "type": "function"
    },
    {
      "inputs": [],
      "name": "root",
      "outputs": [
        {
          "internalType": "bytes32",
          "name": "",
          "type": "bytes32"
        }
      ],
      "stateMutability": "view",
      "type": "function"
    },
    {
      "inputs": [
        {
          "internalType": "address",
          "name": "from",
          "type": "address"
        },
        {
          "internalType": "address",
          "name": "to",
          "type": "address"
        },
        {
          "internalType": "uint256",
          "name": "tokenId",
          "type": "uint256"
        }
      ],
      "name": "safeTransferFrom",
      "outputs": [],
      "stateMutability": "nonpayable",
      "type": "function"
    },
    {
      "inputs": [
        {
          "internalType": "address",
          "name": "from",
          "type": "address"
        },
        {
          "internalType": "address",
          "name": "to",
          "type": "address"
        },
        {
          "internalType": "uint256",
          "name": "tokenId",
          "type": "uint256"
        },
        {
          "internalType": "bytes",
          "name": "_data",
          "type": "bytes"
        }
      ],
      "name": "safeTransferFrom",
      "outputs": [],
      "stateMutability": "nonpayable",
      "type": "function"
    },
    {
      "inputs": [
        {
          "internalType": "address",
          "name": "operator",
          "type": "address"
        },
        {
          "internalType": "bool",
          "name": "approved",
          "type": "bool"
        }
      ],
      "name": "setApprovalForAll",
      "outputs": [],
      "stateMutability": "nonpayable",
      "type": "function"
    },
    {
      "inputs": [
        {
          "internalType": "string",
          "name": "_newBaseExtension",
          "type": "string"
        }
      ],
      "name": "setBaseExtension",
      "outputs": [],
      "stateMutability": "nonpayable",
      "type": "function"
    },
    {
      "inputs": [
        {
          "internalType": "string",
          "name": "_newBaseURI",
          "type": "string"
        }
      ],
      "name": "setBaseURI",
      "outputs": [],
      "stateMutability": "nonpayable",
      "type": "function"
    },
    {
      "inputs": [
        {
          "internalType": "bool",
          "name": "_isAllowListActive",
          "type": "bool"
        }
      ],
      "name": "setIsAllowListActive",
      "outputs": [],
      "stateMutability": "nonpayable",
      "type": "function"
    },
    {
      "inputs": [
        {
          "internalType": "bool",
          "name": "_isMintActive",
          "type": "bool"
        }
      ],
      "name": "setIsMintActive",
      "outputs": [],
      "stateMutability": "nonpayable",
      "type": "function"
    },
    {
      "inputs": [
        {
          "internalType": "uint256",
          "name": "_newmaxMintAmount",
          "type": "uint256"
        }
      ],
      "name": "setmaxMintAmount",
      "outputs": [],
      "stateMutability": "nonpayable",
      "type": "function"
    },
    {
      "inputs": [
        {
          "internalType": "bytes4",
          "name": "interfaceId",
          "type": "bytes4"
        }
      ],
      "name": "supportsInterface",
      "outputs": [
        {
          "internalType": "bool",
          "name": "",
          "type": "bool"
        }
      ],
      "stateMutability": "view",
      "type": "function"
    },
    {
      "inputs": [],
      "name": "symbol",
      "outputs": [
        {
          "internalType": "string",
          "name": "",
          "type": "string"
        }
      ],
      "stateMutability": "view",
      "type": "function"
    },
    {
      "inputs": [
        {
          "internalType": "uint256",
          "name": "tokenId",
          "type": "uint256"
        }
      ],
      "name": "tokenURI",
      "outputs": [
        {
          "internalType": "string",
          "name": "",
          "type": "string"
        }
      ],
      "stateMutability": "view",
      "type": "function"
    },
    {
      "inputs": [],
      "name": "totalSupply",
      "outputs": [
        {
          "internalType": "uint256",
          "name": "",
          "type": "uint256"
        }
      ],
      "stateMutability": "view",
      "type": "function"
    },
    {
      "inputs": [
        {
          "internalType": "address",
          "name": "from",
          "type": "address"
        },
        {
          "internalType": "address",
          "name": "to",
          "type": "address"
        },
        {
          "internalType": "uint256",
          "name": "tokenId",
          "type": "uint256"
        }
      ],
      "name": "transferFrom",
      "outputs": [],
      "stateMutability": "nonpayable",
      "type": "function"
    },
    {
      "inputs": [
        {
          "internalType": "address",
          "name": "newOwner",
          "type": "address"
        }
      ],
      "name": "transferOwnership",
      "outputs": [],
      "stateMutability": "nonpayable",
      "type": "function"
    },
    {
      "inputs": [
        {
          "internalType": "address",
          "name": "_owner",
          "type": "address"
        }
      ],
      "name": "walletOfOwner",
      "outputs": [
        {
          "internalType": "uint256[]",
          "name": "",
          "type": "uint256[]"
        }
      ],
      "stateMutability": "view",
      "type": "function"
    },
    {
      "inputs": [
        {
          "internalType": "bytes32[]",
          "name": "_merkleProof",
          "type": "bytes32[]"
        },
        {
          "internalType": "address",
          "name": "_to",
          "type": "address"
        },
        {
          "internalType": "uint256",
          "name": "_mintAmount",
          "type": "uint256"
        }
      ],
      "name": "whitelistMint",
      "outputs": [],
      "stateMutability": "payable",
      "type": "function"
    },
    {
      "inputs": [],
      "name": "withdraw",
      "outputs": [],
      "stateMutability": "payable",
      "type": "function"
    }
  ],
  "bytecode": "0x60806040526040518060400160405280600581526020017f2e6a736f6e000000000000000000000000000000000000000000000000000000815250600a908051906020019062000051929190620002a2565b506611c37937e08000600b556064600c556064600d556000600e60006101000a81548160ff0219169083151502179055506000600e60016101000a81548160ff0219169083151502179055506000600e60026101000a81548160ff021916908315150217905550348015620000c557600080fd5b506040516200468a3803806200468a8339818101604052810190620000eb919062000369565b6040518060400160405280600a81526020017f426f6e42756e6e696573000000000000000000000000000000000000000000008152506040518060400160405280600381526020017f42424e000000000000000000000000000000000000000000000000000000000081525081600290805190602001906200016f929190620002a2565b50806003908051906020019062000188929190620002a2565b5062000199620001cf60201b60201c565b6000819055505050620001c1620001b5620001d460201b60201c565b620001dc60201b60201c565b80600f81905550506200041e565b600090565b600033905090565b6000600860009054906101000a900473ffffffffffffffffffffffffffffffffffffffff16905081600860006101000a81548173ffffffffffffffffffffffffffffffffffffffff021916908373ffffffffffffffffffffffffffffffffffffffff1602179055508173ffffffffffffffffffffffffffffffffffffffff168173ffffffffffffffffffffffffffffffffffffffff167f8be0079c531659141344cd1fd0a4f28419497f9722a3daafe3b4186f6b6457e060405160405180910390a35050565b828054620002b0906200039f565b90600052602060002090601f016020900481019282620002d4576000855562000320565b82601f10620002ef57805160ff191683800117855562000320565b8280016001018555821562000320579182015b828111156200031f57825182559160200191906001019062000302565b5b5090506200032f919062000333565b5090565b5b808211156200034e57600081600090555060010162000334565b5090565b600081519050620003638162000404565b92915050565b6000602082840312156200037c57600080fd5b60006200038c8482850162000352565b91505092915050565b6000819050919050565b60006002820490506001821680620003b857607f821691505b60208210811415620003cf57620003ce620003d5565b5b50919050565b7f4e487b7100000000000000000000000000000000000000000000000000000000600052602260045260246000fd5b6200040f8162000395565b81146200041b57600080fd5b50565b61425c806200042e6000396000f3fe60806040526004361061021a5760003560e01c80636281ecdd11610123578063a22cb465116100ab578063da3ef23f1161006f578063da3ef23f14610786578063e985e9c5146107af578063ebf0c717146107ec578063f2fde38b14610817578063fa4e25b4146108405761021a565b8063a22cb465146106a1578063b88d4fde146106ca578063c6682862146106f3578063c87b56dd1461071e578063d5abeb011461075b5761021a565b8063715018a6116100f2578063715018a6146105e2578063718bc4af146105f95780637f00c7a6146106225780638da5cb5b1461064b57806395d89b41146106765761021a565b80636281ecdd146105215780636352211e1461053d5780636c0360eb1461057a57806370a08231146105a55761021a565b806329fc6bae116101a6578063438b630011610175578063438b63001461043a57806355f804b3146104775780635b92ac0d146104a05780635c975abb146104cb5780635ca1e165146104f65761021a565b806329fc6bae146103c05780633ccfd60b146103eb57806340c10f19146103f557806342842e0e146104115761021a565b8063095ea7b3116101ed578063095ea7b3146102ed57806313faede61461031657806318160ddd14610341578063239c70ae1461036c57806323b872dd146103975761021a565b806301ffc9a71461021f57806302329a291461025c57806306fdde0314610285578063081812fc146102b0575b600080fd5b34801561022b57600080fd5b5061024660048036038101906102419190613522565b610869565b60405161025391906139c5565b60405180910390f35b34801561026857600080fd5b50610283600480360381019061027e91906134f9565b61094b565b005b34801561029157600080fd5b5061029a6109e4565b6040516102a791906139fb565b60405180910390f35b3480156102bc57600080fd5b506102d760048036038101906102d291906135b5565b610a76565b6040516102e4919061393c565b60405180910390f35b3480156102f957600080fd5b50610314600480360381019061030f9190613451565b610af2565b005b34801561032257600080fd5b5061032b610bfd565b6040516103389190613b1d565b60405180910390f35b34801561034d57600080fd5b50610356610c03565b6040516103639190613b1d565b60405180910390f35b34801561037857600080fd5b50610381610c1a565b60405161038e9190613b1d565b60405180910390f35b3480156103a357600080fd5b506103be60048036038101906103b9919061334b565b610c20565b005b3480156103cc57600080fd5b506103d5610c30565b6040516103e291906139c5565b60405180910390f35b6103f3610c43565b005b61040f600480360381019061040a9190613451565b610cff565b005b34801561041d57600080fd5b506104386004803603810190610433919061334b565b610ea2565b005b34801561044657600080fd5b50610461600480360381019061045c91906132e6565b610ec2565b60405161046e91906139a3565b60405180910390f35b34801561048357600080fd5b5061049e60048036038101906104999190613574565b611014565b005b3480156104ac57600080fd5b506104b56110aa565b6040516104c291906139c5565b60405180910390f35b3480156104d757600080fd5b506104e06110bd565b6040516104ed91906139c5565b60405180910390f35b34801561050257600080fd5b5061050b6110d0565b60405161051891906139e0565b60405180910390f35b61053b6004803603810190610536919061348d565b611156565b005b34801561054957600080fd5b50610564600480360381019061055f91906135b5565b6113a3565b604051610571919061393c565b60405180910390f35b34801561058657600080fd5b5061058f6113b9565b60405161059c91906139fb565b60405180910390f35b3480156105b157600080fd5b506105cc60048036038101906105c791906132e6565b611447565b6040516105d99190613b1d565b60405180910390f35b3480156105ee57600080fd5b506105f7611517565b005b34801561060557600080fd5b50610620600480360381019061061b91906134f9565b61159f565b005b34801561062e57600080fd5b50610649600480360381019061064491906135b5565b611638565b005b34801561065757600080fd5b506106606116be565b60405161066d919061393c565b60405180910390f35b34801561068257600080fd5b5061068b6116e8565b60405161069891906139fb565b60405180910390f35b3480156106ad57600080fd5b506106c860048036038101906106c39190613415565b61177a565b005b3480156106d657600080fd5b506106f160048036038101906106ec919061339a565b6118f2565b005b3480156106ff57600080fd5b5061070861196e565b60405161071591906139fb565b60405180910390f35b34801561072a57600080fd5b50610745600480360381019061074091906135b5565b6119fc565b60405161075291906139fb565b60405180910390f35b34801561076757600080fd5b50610770611ab6565b60405161077d9190613b1d565b60405180910390f35b34801561079257600080fd5b506107ad60048036038101906107a89190613574565b611abc565b005b3480156107bb57600080fd5b506107d660048036038101906107d1919061330f565b611b52565b6040516107e391906139c5565b60405180910390f35b3480156107f857600080fd5b50610801611be6565b60405161080e91906139e0565b60405180910390f35b34801561082357600080fd5b5061083e600480360381019061083991906132e6565b611bec565b005b34801561084c57600080fd5b50610867600480360381019061086291906134f9565b611ce4565b005b60007f80ac58cd000000000000000000000000000000000000000000000000000000007bffffffffffffffffffffffffffffffffffffffffffffffffffffffff1916827bffffffffffffffffffffffffffffffffffffffffffffffffffffffff1916148061093457507f5b5e139f000000000000000000000000000000000000000000000000000000007bffffffffffffffffffffffffffffffffffffffffffffffffffffffff1916827bffffffffffffffffffffffffffffffffffffffffffffffffffffffff1916145b80610944575061094382611d7d565b5b9050919050565b610953611de7565b73ffffffffffffffffffffffffffffffffffffffff166109716116be565b73ffffffffffffffffffffffffffffffffffffffff16146109c7576040517f08c379a00000000000000000000000000000000000000000000000000000000081526004016109be90613a7d565b60405180910390fd5b80600e60006101000a81548160ff02191690831515021790555050565b6060600280546109f390613e25565b80601f0160208091040260200160405190810160405280929190818152602001828054610a1f90613e25565b8015610a6c5780601f10610a4157610100808354040283529160200191610a6c565b820191906000526020600020905b815481529060010190602001808311610a4f57829003601f168201915b5050505050905090565b6000610a8182611def565b610ab7576040517fcf4700e400000000000000000000000000000000000000000000000000000000815260040160405180910390fd5b6006600083815260200190815260200160002060009054906101000a900473ffffffffffffffffffffffffffffffffffffffff169050919050565b6000610afd826113a3565b90508073ffffffffffffffffffffffffffffffffffffffff168373ffffffffffffffffffffffffffffffffffffffff161415610b65576040517f943f7b8c00000000000000000000000000000000000000000000000000000000815260040160405180910390fd5b8073ffffffffffffffffffffffffffffffffffffffff16610b84611de7565b73ffffffffffffffffffffffffffffffffffffffff1614158015610bb65750610bb481610baf611de7565b611b52565b155b15610bed576040517fcfb3b94200000000000000000000000000000000000000000000000000000000815260040160405180910390fd5b610bf8838383611e3d565b505050565b600b5481565b6000610c0d611eef565b6001546000540303905090565b600d5481565b610c2b838383611ef4565b505050565b600e60019054906101000a900460ff1681565b610c4b611de7565b73ffffffffffffffffffffffffffffffffffffffff16610c696116be565b73ffffffffffffffffffffffffffffffffffffffff1614610cbf576040517f08c379a0000000000000000000000000000000000000000000000000000000008152600401610cb690613a7d565b60405180910390fd5b3373ffffffffffffffffffffffffffffffffffffffff166108fc479081150290604051600060405180830381858888f19350505050610cfd57600080fd5b565b6000610d09610c03565b9050600e60009054906101000a900460ff1615610d2557600080fd5b60008211610d68576040517f08c379a0000000000000000000000000000000000000000000000000000000008152600401610d5f90613abd565b60405180910390fd5b600d54821115610dad576040517f08c379a0000000000000000000000000000000000000000000000000000000008152600401610da490613add565b60405180910390fd5b60008282610dbb9190613c50565b600c54610dc89190613d31565b1015610e09576040517f08c379a0000000000000000000000000000000000000000000000000000000008152600401610e0090613a1d565b60405180910390fd5b610e116116be565b73ffffffffffffffffffffffffffffffffffffffff163373ffffffffffffffffffffffffffffffffffffffff1614610e935781600b54610e519190613cd7565b3414610e92576040517f08c379a0000000000000000000000000000000000000000000000000000000008152600401610e8990613afd565b60405180910390fd5b5b610e9d83836123aa565b505050565b610ebd838383604051806020016040528060008152506118f2565b505050565b60606000610ecf83611447565b905060008167ffffffffffffffff811115610f13577f4e487b7100000000000000000000000000000000000000000000000000000000600052604160045260246000fd5b604051908082528060200260200182016040528015610f415781602001602082028036833780820191505090505b5090506000805b8381108015610f595750600c548211155b15611008576000610f69836113a3565b90508673ffffffffffffffffffffffffffffffffffffffff168173ffffffffffffffffffffffffffffffffffffffff161415610ff45782848381518110610fd9577f4e487b7100000000000000000000000000000000000000000000000000000000600052603260045260246000fd5b6020026020010181815250508180610ff090613e88565b9250505b8280610fff90613e88565b93505050610f48565b82945050505050919050565b61101c611de7565b73ffffffffffffffffffffffffffffffffffffffff1661103a6116be565b73ffffffffffffffffffffffffffffffffffffffff1614611090576040517f08c379a000000000000000000000000000000000000000000000000000000000815260040161108790613a7d565b60405180910390fd5b80600990805190602001906110a692919061307d565b5050565b600e60029054906101000a900460ff1681565b600e60009054906101000a900460ff1681565b60006110da611de7565b73ffffffffffffffffffffffffffffffffffffffff166110f86116be565b73ffffffffffffffffffffffffffffffffffffffff161461114e576040517f08c379a000000000000000000000000000000000000000000000000000000000815260040161114590613a7d565b60405180910390fd5b600f54905090565b60003360405160200161116991906138f0565b604051602081830303815290604052805190602001209050600061118b610c03565b90506111db868680806020026020016040519081016040528093929190818152602001838360200280828437600081840152601f19601f82011690508083019250505050505050600f54846123c8565b61121a576040517f08c379a000000000000000000000000000000000000000000000000000000000815260040161121190613a5d565b60405180910390fd5b6000831161125d576040517f08c379a000000000000000000000000000000000000000000000000000000000815260040161125490613abd565b60405180910390fd5b600d548311156112a2576040517f08c379a000000000000000000000000000000000000000000000000000000000815260040161129990613add565b60405180910390fd5b6112ab816123df565b600083826112b99190613c50565b600c546112c69190613d31565b1015611307576040517f08c379a00000000000000000000000000000000000000000000000000000000081526004016112fe90613a1d565b60405180910390fd5b61130f6116be565b73ffffffffffffffffffffffffffffffffffffffff163373ffffffffffffffffffffffffffffffffffffffff16146113915782600b5461134f9190613cd7565b3414611390576040517f08c379a000000000000000000000000000000000000000000000000000000000815260040161138790613afd565b60405180910390fd5b5b61139b84846123aa565b505050505050565b60006113ae82612478565b600001519050919050565b600980546113c690613e25565b80601f01602080910402602001604051908101604052809291908181526020018280546113f290613e25565b801561143f5780601f106114145761010080835404028352916020019161143f565b820191906000526020600020905b81548152906001019060200180831161142257829003601f168201915b505050505081565b60008073ffffffffffffffffffffffffffffffffffffffff168273ffffffffffffffffffffffffffffffffffffffff1614156114af576040517f8f4eb60400000000000000000000000000000000000000000000000000000000815260040160405180910390fd5b600560008373ffffffffffffffffffffffffffffffffffffffff1673ffffffffffffffffffffffffffffffffffffffff16815260200190815260200160002060000160009054906101000a900467ffffffffffffffff1667ffffffffffffffff169050919050565b61151f611de7565b73ffffffffffffffffffffffffffffffffffffffff1661153d6116be565b73ffffffffffffffffffffffffffffffffffffffff1614611593576040517f08c379a000000000000000000000000000000000000000000000000000000000815260040161158a90613a7d565b60405180910390fd5b61159d6000612707565b565b6115a7611de7565b73ffffffffffffffffffffffffffffffffffffffff166115c56116be565b73ffffffffffffffffffffffffffffffffffffffff161461161b576040517f08c379a000000000000000000000000000000000000000000000000000000000815260040161161290613a7d565b60405180910390fd5b80600e60016101000a81548160ff02191690831515021790555050565b611640611de7565b73ffffffffffffffffffffffffffffffffffffffff1661165e6116be565b73ffffffffffffffffffffffffffffffffffffffff16146116b4576040517f08c379a00000000000000000000000000000000000000000000000000000000081526004016116ab90613a7d565b60405180910390fd5b80600d8190555050565b6000600860009054906101000a900473ffffffffffffffffffffffffffffffffffffffff16905090565b6060600380546116f790613e25565b80601f016020809104026020016040519081016040528092919081815260200182805461172390613e25565b80156117705780601f1061174557610100808354040283529160200191611770565b820191906000526020600020905b81548152906001019060200180831161175357829003601f168201915b5050505050905090565b611782611de7565b73ffffffffffffffffffffffffffffffffffffffff168273ffffffffffffffffffffffffffffffffffffffff1614156117e7576040517fb06307db00000000000000000000000000000000000000000000000000000000815260040160405180910390fd5b80600760006117f4611de7565b73ffffffffffffffffffffffffffffffffffffffff1673ffffffffffffffffffffffffffffffffffffffff16815260200190815260200160002060008473ffffffffffffffffffffffffffffffffffffffff1673ffffffffffffffffffffffffffffffffffffffff16815260200190815260200160002060006101000a81548160ff0219169083151502179055508173ffffffffffffffffffffffffffffffffffffffff166118a1611de7565b73ffffffffffffffffffffffffffffffffffffffff167f17307eab39ab6107e8899845ad3d59bd9653f200f220920489ca2b5937696c31836040516118e691906139c5565b60405180910390a35050565b6118fd848484611ef4565b61191c8373ffffffffffffffffffffffffffffffffffffffff166127cd565b8015611931575061192f848484846127f0565b155b15611968576040517fd1a57ed600000000000000000000000000000000000000000000000000000000815260040160405180910390fd5b50505050565b600a805461197b90613e25565b80601f01602080910402602001604051908101604052809291908181526020018280546119a790613e25565b80156119f45780601f106119c9576101008083540402835291602001916119f4565b820191906000526020600020905b8154815290600101906020018083116119d757829003601f168201915b505050505081565b6060611a0782611def565b611a46576040517f08c379a0000000000000000000000000000000000000000000000000000000008152600401611a3d90613a9d565b60405180910390fd5b611a56611a51612950565b612970565b6000611a60612950565b90506000815111611a805760405180602001604052806000815250611aae565b80611a8a84612a09565b600a604051602001611a9e9392919061390b565b6040516020818303038152906040525b915050919050565b600c5481565b611ac4611de7565b73ffffffffffffffffffffffffffffffffffffffff16611ae26116be565b73ffffffffffffffffffffffffffffffffffffffff1614611b38576040517f08c379a0000000000000000000000000000000000000000000000000000000008152600401611b2f90613a7d565b60405180910390fd5b80600a9080519060200190611b4e92919061307d565b5050565b6000600760008473ffffffffffffffffffffffffffffffffffffffff1673ffffffffffffffffffffffffffffffffffffffff16815260200190815260200160002060008373ffffffffffffffffffffffffffffffffffffffff1673ffffffffffffffffffffffffffffffffffffffff16815260200190815260200160002060009054906101000a900460ff16905092915050565b600f5481565b611bf4611de7565b73ffffffffffffffffffffffffffffffffffffffff16611c126116be565b73ffffffffffffffffffffffffffffffffffffffff1614611c68576040517f08c379a0000000000000000000000000000000000000000000000000000000008152600401611c5f90613a7d565b60405180910390fd5b600073ffffffffffffffffffffffffffffffffffffffff168173ffffffffffffffffffffffffffffffffffffffff161415611cd8576040517f08c379a0000000000000000000000000000000000000000000000000000000008152600401611ccf90613a3d565b60405180910390fd5b611ce181612707565b50565b611cec611de7565b73ffffffffffffffffffffffffffffffffffffffff16611d0a6116be565b73ffffffffffffffffffffffffffffffffffffffff1614611d60576040517f08c379a0000000000000000000000000000000000000000000000000000000008152600401611d5790613a7d565b60405180910390fd5b80600e60026101000a81548160ff02191690831515021790555050565b60007f01ffc9a7000000000000000000000000000000000000000000000000000000007bffffffffffffffffffffffffffffffffffffffffffffffffffffffff1916827bffffffffffffffffffffffffffffffffffffffffffffffffffffffff1916149050919050565b600033905090565b600081611dfa611eef565b11158015611e09575060005482105b8015611e36575060046000838152602001908152602001600020600001601c9054906101000a900460ff16155b9050919050565b826006600084815260200190815260200160002060006101000a81548173ffffffffffffffffffffffffffffffffffffffff021916908373ffffffffffffffffffffffffffffffffffffffff160217905550818373ffffffffffffffffffffffffffffffffffffffff168273ffffffffffffffffffffffffffffffffffffffff167f8c5be1e5ebec7d5bd14f71427d1e84f3dd0314c0f7b2291e5b200ac8c7c3b92560405160405180910390a4505050565b600090565b6000611eff82612478565b90508373ffffffffffffffffffffffffffffffffffffffff16816000015173ffffffffffffffffffffffffffffffffffffffff1614611f6a576040517fa114810000000000000000000000000000000000000000000000000000000000815260040160405180910390fd5b60008473ffffffffffffffffffffffffffffffffffffffff16611f8b611de7565b73ffffffffffffffffffffffffffffffffffffffff161480611fba5750611fb985611fb4611de7565b611b52565b5b80611fff5750611fc8611de7565b73ffffffffffffffffffffffffffffffffffffffff16611fe784610a76565b73ffffffffffffffffffffffffffffffffffffffff16145b905080612038576040517f59c896be00000000000000000000000000000000000000000000000000000000815260040160405180910390fd5b600073ffffffffffffffffffffffffffffffffffffffff168473ffffffffffffffffffffffffffffffffffffffff16141561209f576040517fea553b3400000000000000000000000000000000000000000000000000000000815260040160405180910390fd5b6120ac8585856001612bb6565b6120b860008487611e3d565b6001600560008773ffffffffffffffffffffffffffffffffffffffff1673ffffffffffffffffffffffffffffffffffffffff16815260200190815260200160002060000160008282829054906101000a900467ffffffffffffffff160392506101000a81548167ffffffffffffffff021916908367ffffffffffffffff1602179055506001600560008673ffffffffffffffffffffffffffffffffffffffff1673ffffffffffffffffffffffffffffffffffffffff16815260200190815260200160002060000160008282829054906101000a900467ffffffffffffffff160192506101000a81548167ffffffffffffffff021916908367ffffffffffffffff1602179055506000600460008581526020019081526020016000209050848160000160006101000a81548173ffffffffffffffffffffffffffffffffffffffff021916908373ffffffffffffffffffffffffffffffffffffffff160217905550428160000160146101000a81548167ffffffffffffffff021916908367ffffffffffffffff16021790555060006001850190506000600460008381526020019081526020016000209050600073ffffffffffffffffffffffffffffffffffffffff168160000160009054906101000a900473ffffffffffffffffffffffffffffffffffffffff1673ffffffffffffffffffffffffffffffffffffffff16141561233857600054821461233757878160000160006101000a81548173ffffffffffffffffffffffffffffffffffffffff021916908373ffffffffffffffffffffffffffffffffffffffff16021790555084602001518160000160146101000a81548167ffffffffffffffff021916908367ffffffffffffffff1602179055505b5b505050828473ffffffffffffffffffffffffffffffffffffffff168673ffffffffffffffffffffffffffffffffffffffff167fddf252ad1be2c89b69c2b068fc378daa952ba7f163c4a11628f55a4df523b3ef60405160405180910390a46123a38585856001612bbc565b5050505050565b6123c4828260405180602001604052806000815250612bc2565b5050565b6000826123d58584612bd4565b1490509392505050565b612475816040516024016123f39190613b1d565b6040516020818303038152906040527ff5b1bba9000000000000000000000000000000000000000000000000000000007bffffffffffffffffffffffffffffffffffffffffffffffffffffffff19166020820180517bffffffffffffffffffffffffffffffffffffffffffffffffffffffff8381831617835250505050612c6f565b50565b612480613103565b60008290508061248e611eef565b1115801561249d575060005481105b156126d0576000600460008381526020019081526020016000206040518060600160405290816000820160009054906101000a900473ffffffffffffffffffffffffffffffffffffffff1673ffffffffffffffffffffffffffffffffffffffff1673ffffffffffffffffffffffffffffffffffffffff1681526020016000820160149054906101000a900467ffffffffffffffff1667ffffffffffffffff1667ffffffffffffffff16815260200160008201601c9054906101000a900460ff161515151581525050905080604001516126ce57600073ffffffffffffffffffffffffffffffffffffffff16816000015173ffffffffffffffffffffffffffffffffffffffff16146125b2578092505050612702565b5b6001156126cd57818060019003925050600460008381526020019081526020016000206040518060600160405290816000820160009054906101000a900473ffffffffffffffffffffffffffffffffffffffff1673ffffffffffffffffffffffffffffffffffffffff1673ffffffffffffffffffffffffffffffffffffffff1681526020016000820160149054906101000a900467ffffffffffffffff1667ffffffffffffffff1667ffffffffffffffff16815260200160008201601c9054906101000a900460ff1615151515815250509050600073ffffffffffffffffffffffffffffffffffffffff16816000015173ffffffffffffffffffffffffffffffffffffffff16146126c8578092505050612702565b6125b3565b5b505b6040517fdf2d9b4200000000000000000000000000000000000000000000000000000000815260040160405180910390fd5b919050565b6000600860009054906101000a900473ffffffffffffffffffffffffffffffffffffffff16905081600860006101000a81548173ffffffffffffffffffffffffffffffffffffffff021916908373ffffffffffffffffffffffffffffffffffffffff1602179055508173ffffffffffffffffffffffffffffffffffffffff168173ffffffffffffffffffffffffffffffffffffffff167f8be0079c531659141344cd1fd0a4f28419497f9722a3daafe3b4186f6b6457e060405160405180910390a35050565b6000808273ffffffffffffffffffffffffffffffffffffffff163b119050919050565b60008373ffffffffffffffffffffffffffffffffffffffff1663150b7a02612816611de7565b8786866040518563ffffffff1660e01b81526004016128389493929190613957565b602060405180830381600087803b15801561285257600080fd5b505af192505050801561288357506040513d601f19601f82011682018060405250810190612880919061354b565b60015b6128fd573d80600081146128b3576040519150601f19603f3d011682016040523d82523d6000602084013e6128b8565b606091505b506000815114156128f5576040517fd1a57ed600000000000000000000000000000000000000000000000000000000815260040160405180910390fd5b805181602001fd5b63150b7a0260e01b7bffffffffffffffffffffffffffffffffffffffffffffffffffffffff1916817bffffffffffffffffffffffffffffffffffffffffffffffffffffffff191614915050949350505050565b60606040518060600160405280603681526020016141f160369139905090565b612a068160405160240161298491906139fb565b6040516020818303038152906040527f41304fac000000000000000000000000000000000000000000000000000000007bffffffffffffffffffffffffffffffffffffffffffffffffffffffff19166020820180517bffffffffffffffffffffffffffffffffffffffffffffffffffffffff8381831617835250505050612c6f565b50565b60606000821415612a51576040518060400160405280600181526020017f30000000000000000000000000000000000000000000000000000000000000008152509050612bb1565b600082905060005b60008214612a83578080612a6c90613e88565b915050600a82612a7c9190613ca6565b9150612a59565b60008167ffffffffffffffff811115612ac5577f4e487b7100000000000000000000000000000000000000000000000000000000600052604160045260246000fd5b6040519080825280601f01601f191660200182016040528015612af75781602001600182028036833780820191505090505b5090505b60008514612baa57600182612b109190613d31565b9150600a85612b1f9190613ef5565b6030612b2b9190613c50565b60f81b818381518110612b67577f4e487b7100000000000000000000000000000000000000000000000000000000600052603260045260246000fd5b60200101907effffffffffffffffffffffffffffffffffffffffffffffffffffffffffffff1916908160001a905350600a85612ba39190613ca6565b9450612afb565b8093505050505b919050565b50505050565b50505050565b612bcf8383836001612c98565b505050565b60008082905060005b8451811015612c64576000858281518110612c21577f4e487b7100000000000000000000000000000000000000000000000000000000600052603260045260246000fd5b60200260200101519050808311612c4357612c3c8382613066565b9250612c50565b612c4d8184613066565b92505b508080612c5c90613e88565b915050612bdd565b508091505092915050565b60008151905060006a636f6e736f6c652e6c6f679050602083016000808483855afa5050505050565b600080549050600073ffffffffffffffffffffffffffffffffffffffff168573ffffffffffffffffffffffffffffffffffffffff161415612d05576040517f2e07630000000000000000000000000000000000000000000000000000000000815260040160405180910390fd5b6000841415612d40576040517fb562e8dd00000000000000000000000000000000000000000000000000000000815260040160405180910390fd5b612d4d6000868387612bb6565b83600560008773ffffffffffffffffffffffffffffffffffffffff1673ffffffffffffffffffffffffffffffffffffffff16815260200190815260200160002060000160008282829054906101000a900467ffffffffffffffff160192506101000a81548167ffffffffffffffff021916908367ffffffffffffffff16021790555083600560008773ffffffffffffffffffffffffffffffffffffffff1673ffffffffffffffffffffffffffffffffffffffff16815260200190815260200160002060000160088282829054906101000a900467ffffffffffffffff160192506101000a81548167ffffffffffffffff021916908367ffffffffffffffff160217905550846004600083815260200190815260200160002060000160006101000a81548173ffffffffffffffffffffffffffffffffffffffff021916908373ffffffffffffffffffffffffffffffffffffffff160217905550426004600083815260200190815260200160002060000160146101000a81548167ffffffffffffffff021916908367ffffffffffffffff160217905550600081905060008582019050838015612f175750612f168773ffffffffffffffffffffffffffffffffffffffff166127cd565b5b15612fdd575b818773ffffffffffffffffffffffffffffffffffffffff16600073ffffffffffffffffffffffffffffffffffffffff167fddf252ad1be2c89b69c2b068fc378daa952ba7f163c4a11628f55a4df523b3ef60405160405180910390a4612f8c60008884806001019550886127f0565b612fc2576040517fd1a57ed600000000000000000000000000000000000000000000000000000000815260040160405180910390fd5b80821415612f1d578260005414612fd857600080fd5b613049565b5b818060010192508773ffffffffffffffffffffffffffffffffffffffff16600073ffffffffffffffffffffffffffffffffffffffff167fddf252ad1be2c89b69c2b068fc378daa952ba7f163c4a11628f55a4df523b3ef60405160405180910390a480821415612fde575b81600081905550505061305f6000868387612bbc565b5050505050565b600082600052816020526040600020905092915050565b82805461308990613e25565b90600052602060002090601f0160209004810192826130ab57600085556130f2565b82601f106130c457805160ff19168380011785556130f2565b828001600101855582156130f2579182015b828111156130f15782518255916020019190600101906130d6565b5b5090506130ff9190613146565b5090565b6040518060600160405280600073ffffffffffffffffffffffffffffffffffffffff168152602001600067ffffffffffffffff1681526020016000151581525090565b5b8082111561315f576000816000905550600101613147565b5090565b600061317661317184613b5d565b613b38565b90508281526020810184848401111561318e57600080fd5b613199848285613de3565b509392505050565b60006131b46131af84613b8e565b613b38565b9050828152602081018484840111156131cc57600080fd5b6131d7848285613de3565b509392505050565b6000813590506131ee81614194565b92915050565b60008083601f84011261320657600080fd5b8235905067ffffffffffffffff81111561321f57600080fd5b60208301915083602082028301111561323757600080fd5b9250929050565b60008135905061324d816141ab565b92915050565b600081359050613262816141c2565b92915050565b600081519050613277816141c2565b92915050565b600082601f83011261328e57600080fd5b813561329e848260208601613163565b91505092915050565b600082601f8301126132b857600080fd5b81356132c88482602086016131a1565b91505092915050565b6000813590506132e0816141d9565b92915050565b6000602082840312156132f857600080fd5b6000613306848285016131df565b91505092915050565b6000806040838503121561332257600080fd5b6000613330858286016131df565b9250506020613341858286016131df565b9150509250929050565b60008060006060848603121561336057600080fd5b600061336e868287016131df565b935050602061337f868287016131df565b9250506040613390868287016132d1565b9150509250925092565b600080600080608085870312156133b057600080fd5b60006133be878288016131df565b94505060206133cf878288016131df565b93505060406133e0878288016132d1565b925050606085013567ffffffffffffffff8111156133fd57600080fd5b6134098782880161327d565b91505092959194509250565b6000806040838503121561342857600080fd5b6000613436858286016131df565b92505060206134478582860161323e565b9150509250929050565b6000806040838503121561346457600080fd5b6000613472858286016131df565b9250506020613483858286016132d1565b9150509250929050565b600080600080606085870312156134a357600080fd5b600085013567ffffffffffffffff8111156134bd57600080fd5b6134c9878288016131f4565b945094505060206134dc878288016131df565b92505060406134ed878288016132d1565b91505092959194509250565b60006020828403121561350b57600080fd5b60006135198482850161323e565b91505092915050565b60006020828403121561353457600080fd5b600061354284828501613253565b91505092915050565b60006020828403121561355d57600080fd5b600061356b84828501613268565b91505092915050565b60006020828403121561358657600080fd5b600082013567ffffffffffffffff8111156135a057600080fd5b6135ac848285016132a7565b91505092915050565b6000602082840312156135c757600080fd5b60006135d5848285016132d1565b91505092915050565b60006135ea83836138d2565b60208301905092915050565b6135ff81613d65565b82525050565b61361661361182613d65565b613ed1565b82525050565b600061362782613be4565b6136318185613c12565b935061363c83613bbf565b8060005b8381101561366d57815161365488826135de565b975061365f83613c05565b925050600181019050613640565b5085935050505092915050565b61368381613d77565b82525050565b61369281613d83565b82525050565b60006136a382613bef565b6136ad8185613c23565b93506136bd818560208601613df2565b6136c681613fe2565b840191505092915050565b60006136dc82613bfa565b6136e68185613c34565b93506136f6818560208601613df2565b6136ff81613fe2565b840191505092915050565b600061371582613bfa565b61371f8185613c45565b935061372f818560208601613df2565b80840191505092915050565b6000815461374881613e25565b6137528186613c45565b9450600182166000811461376d576001811461377e576137b1565b60ff198316865281860193506137b1565b61378785613bcf565b60005b838110156137a95781548189015260018201915060208101905061378a565b838801955050505b50505092915050565b60006137c7600883613c34565b91506137d282614000565b602082019050919050565b60006137ea602683613c34565b91506137f582614029565b604082019050919050565b600061380d601583613c34565b915061381882614078565b602082019050919050565b6000613830602083613c34565b915061383b826140a1565b602082019050919050565b6000613853602f83613c34565b915061385e826140ca565b604082019050919050565b6000613876601383613c34565b915061388182614119565b602082019050919050565b6000613899601883613c34565b91506138a482614142565b602082019050919050565b60006138bc601883613c34565b91506138c78261416b565b602082019050919050565b6138db81613dd9565b82525050565b6138ea81613dd9565b82525050565b60006138fc8284613605565b60148201915081905092915050565b6000613917828661370a565b9150613923828561370a565b915061392f828461373b565b9150819050949350505050565b600060208201905061395160008301846135f6565b92915050565b600060808201905061396c60008301876135f6565b61397960208301866135f6565b61398660408301856138e1565b81810360608301526139988184613698565b905095945050505050565b600060208201905081810360008301526139bd818461361c565b905092915050565b60006020820190506139da600083018461367a565b92915050565b60006020820190506139f56000830184613689565b92915050565b60006020820190508181036000830152613a1581846136d1565b905092915050565b60006020820190508181036000830152613a36816137ba565b9050919050565b60006020820190508181036000830152613a56816137dd565b9050919050565b60006020820190508181036000830152613a7681613800565b9050919050565b60006020820190508181036000830152613a9681613823565b9050919050565b60006020820190508181036000830152613ab681613846565b9050919050565b60006020820190508181036000830152613ad681613869565b9050919050565b60006020820190508181036000830152613af68161388c565b9050919050565b60006020820190508181036000830152613b16816138af565b9050919050565b6000602082019050613b3260008301846138e1565b92915050565b6000613b42613b53565b9050613b4e8282613e57565b919050565b6000604051905090565b600067ffffffffffffffff821115613b7857613b77613fb3565b5b613b8182613fe2565b9050602081019050919050565b600067ffffffffffffffff821115613ba957613ba8613fb3565b5b613bb282613fe2565b9050602081019050919050565b6000819050602082019050919050565b60008190508160005260206000209050919050565b600081519050919050565b600081519050919050565b600081519050919050565b6000602082019050919050565b600082825260208201905092915050565b600082825260208201905092915050565b600082825260208201905092915050565b600081905092915050565b6000613c5b82613dd9565b9150613c6683613dd9565b9250827fffffffffffffffffffffffffffffffffffffffffffffffffffffffffffffffff03821115613c9b57613c9a613f26565b5b828201905092915050565b6000613cb182613dd9565b9150613cbc83613dd9565b925082613ccc57613ccb613f55565b5b828204905092915050565b6000613ce282613dd9565b9150613ced83613dd9565b9250817fffffffffffffffffffffffffffffffffffffffffffffffffffffffffffffffff0483118215151615613d2657613d25613f26565b5b828202905092915050565b6000613d3c82613dd9565b9150613d4783613dd9565b925082821015613d5a57613d59613f26565b5b828203905092915050565b6000613d7082613db9565b9050919050565b60008115159050919050565b6000819050919050565b60007fffffffff0000000000000000000000000000000000000000000000000000000082169050919050565b600073ffffffffffffffffffffffffffffffffffffffff82169050919050565b6000819050919050565b82818337600083830152505050565b60005b83811015613e10578082015181840152602081019050613df5565b83811115613e1f576000848401525b50505050565b60006002820490506001821680613e3d57607f821691505b60208210811415613e5157613e50613f84565b5b50919050565b613e6082613fe2565b810181811067ffffffffffffffff82111715613e7f57613e7e613fb3565b5b80604052505050565b6000613e9382613dd9565b91507fffffffffffffffffffffffffffffffffffffffffffffffffffffffffffffffff821415613ec657613ec5613f26565b5b600182019050919050565b6000613edc82613ee3565b9050919050565b6000613eee82613ff3565b9050919050565b6000613f0082613dd9565b9150613f0b83613dd9565b925082613f1b57613f1a613f55565b5b828206905092915050565b7f4e487b7100000000000000000000000000000000000000000000000000000000600052601160045260246000fd5b7f4e487b7100000000000000000000000000000000000000000000000000000000600052601260045260246000fd5b7f4e487b7100000000000000000000000000000000000000000000000000000000600052602260045260246000fd5b7f4e487b7100000000000000000000000000000000000000000000000000000000600052604160045260246000fd5b6000601f19601f8301169050919050565b60008160601b9050919050565b7f536f6c64204f7574000000000000000000000000000000000000000000000000600082015250565b7f4f776e61626c653a206e6577206f776e657220697320746865207a65726f206160008201527f6464726573730000000000000000000000000000000000000000000000000000602082015250565b7f496e76616c6964204d65726b6c652050726f6f662e0000000000000000000000600082015250565b7f4f776e61626c653a2063616c6c6572206973206e6f7420746865206f776e6572600082015250565b7f4552433732314d657461646174613a2055524920717565727920666f72206e6f60008201527f6e6578697374656e7420746f6b656e0000000000000000000000000000000000602082015250565b7f43616e2774206d696e74203020416d6f756e7400000000000000000000000000600082015250565b7f43616e2774206d696e74206d6f7265207468616e206d61780000000000000000600082015250565b7f4e65656420746f2073656e6420302e3035206574686572210000000000000000600082015250565b61419d81613d65565b81146141a857600080fd5b50565b6141b481613d77565b81146141bf57600080fd5b50565b6141cb81613d8d565b81146141d657600080fd5b50565b6141e281613dd9565b81146141ed57600080fd5b5056fe697066733a2f2f516d6534576459555a5544696953537077756359434670734c53575867683858534b75514368357068576f5845642fa2646970667358221220ef975d52162870a1b897657cc907f54ab90d3daace2031dab9ab38eae5ffaa1f64736f6c63430008040033",
  "linkReferences": {},
  "deployedLinkReferences": {}
}