{
    "_format": "hh-sol-artifact-1",
    "contractName": "LazyFactory",
    "sourceName": "contracts/NFTMarketplace.sol",
    "abi": [
        {
            "inputs": [
                {
                    "internalType": "address payable",
                    "name": "marketplaceAddress",
                    "type": "address"
                },
                {
                    "internalType": "string",
                    "name": "name",
                    "type": "string"
                },
                {
                    "internalType": "string",
                    "name": "symbol",
                    "type": "string"
                },
                {
                    "internalType": "address payable",
                    "name": "artist",
                    "type": "address"
                }
            ],
            "stateMutability": "nonpayable",
            "type": "constructor"
        },
        {
            "anonymous": false,
            "inputs": [
                {
                    "indexed": true,
                    "internalType": "address",
                    "name": "owner",
                    "type": "address"
                },
                {
                    "indexed": true,
                    "internalType": "address",
                    "name": "approved",
                    "type": "address"
                },
                {
                    "indexed": true,
                    "internalType": "uint256",
                    "name": "tokenId",
                    "type": "uint256"
                }
            ],
            "name": "Approval",
            "type": "event"
        },
        {
            "anonymous": false,
            "inputs": [
                {
                    "indexed": true,
                    "internalType": "address",
                    "name": "owner",
                    "type": "address"
                },
                {
                    "indexed": true,
                    "internalType": "address",
                    "name": "operator",
                    "type": "address"
                },
                {
                    "indexed": false,
                    "internalType": "bool",
                    "name": "approved",
                    "type": "bool"
                }
            ],
            "name": "ApprovalForAll",
            "type": "event"
        },
        {
            "anonymous": false,
            "inputs": [
                {
                    "indexed": true,
                    "internalType": "uint256",
                    "name": "tokenId",
                    "type": "uint256"
                }
            ],
            "name": "RedeemedAndMinted",
            "type": "event"
        },
        {
            "anonymous": false,
            "inputs": [
                {
                    "indexed": true,
                    "internalType": "bytes32",
                    "name": "role",
                    "type": "bytes32"
                },
                {
                    "indexed": true,
                    "internalType": "bytes32",
                    "name": "previousAdminRole",
                    "type": "bytes32"
                },
                {
                    "indexed": true,
                    "internalType": "bytes32",
                    "name": "newAdminRole",
                    "type": "bytes32"
                }
            ],
            "name": "RoleAdminChanged",
            "type": "event"
        },
        {
            "anonymous": false,
            "inputs": [
                {
                    "indexed": true,
                    "internalType": "bytes32",
                    "name": "role",
                    "type": "bytes32"
                },
                {
                    "indexed": true,
                    "internalType": "address",
                    "name": "account",
                    "type": "address"
                },
                {
                    "indexed": true,
                    "internalType": "address",
                    "name": "sender",
                    "type": "address"
                }
            ],
            "name": "RoleGranted",
            "type": "event"
        },
        {
            "anonymous": false,
            "inputs": [
                {
                    "indexed": true,
                    "internalType": "bytes32",
                    "name": "role",
                    "type": "bytes32"
                },
                {
                    "indexed": true,
                    "internalType": "address",
                    "name": "account",
                    "type": "address"
                },
                {
                    "indexed": true,
                    "internalType": "address",
                    "name": "sender",
                    "type": "address"
                }
            ],
            "name": "RoleRevoked",
            "type": "event"
        },
        {
            "anonymous": false,
            "inputs": [
                {
                    "indexed": true,
                    "internalType": "address",
                    "name": "from",
                    "type": "address"
                },
                {
                    "indexed": true,
                    "internalType": "address",
                    "name": "to",
                    "type": "address"
                },
                {
                    "indexed": true,
                    "internalType": "uint256",
                    "name": "tokenId",
                    "type": "uint256"
                }
            ],
            "name": "Transfer",
            "type": "event"
        },
        {
            "inputs": [],
            "name": "DEFAULT_ADMIN_ROLE",
            "outputs": [
                {
                    "internalType": "bytes32",
                    "name": "",
                    "type": "bytes32"
                }
            ],
            "stateMutability": "view",
            "type": "function"
        },
        {
            "inputs": [],
            "name": "SIGNER_ROLE",
            "outputs": [
                {
                    "internalType": "bytes32",
                    "name": "",
                    "type": "bytes32"
                }
            ],
            "stateMutability": "view",
            "type": "function"
        },
        {
            "inputs": [
                {
                    "internalType": "address",
                    "name": "to",
                    "type": "address"
                },
                {
                    "internalType": "uint256",
                    "name": "tokenId",
                    "type": "uint256"
                }
            ],
            "name": "approve",
            "outputs": [],
            "stateMutability": "nonpayable",
            "type": "function"
        },
        {
            "inputs": [
                {
                    "internalType": "address",
                    "name": "owner",
                    "type": "address"
                }
            ],
            "name": "balanceOf",
            "outputs": [
                {
                    "internalType": "uint256",
                    "name": "",
                    "type": "uint256"
                }
            ],
            "stateMutability": "view",
            "type": "function"
        },
        {
            "inputs": [
                {
                    "internalType": "uint256",
                    "name": "tokenId",
                    "type": "uint256"
                }
            ],
            "name": "getApproved",
            "outputs": [
                {
                    "internalType": "address",
                    "name": "",
                    "type": "address"
                }
            ],
            "stateMutability": "view",
            "type": "function"
        },
        {
            "inputs": [],
            "name": "getChainID",
            "outputs": [
                {
                    "internalType": "uint256",
                    "name": "",
                    "type": "uint256"
                }
            ],
            "stateMutability": "view",
            "type": "function"
        },
        {
            "inputs": [
                {
                    "internalType": "bytes32",
                    "name": "role",
                    "type": "bytes32"
                }
            ],
            "name": "getRoleAdmin",
            "outputs": [
                {
                    "internalType": "bytes32",
                    "name": "",
                    "type": "bytes32"
                }
            ],
            "stateMutability": "view",
            "type": "function"
        },
        {
            "inputs": [
                {
                    "internalType": "bytes32",
                    "name": "role",
                    "type": "bytes32"
                },
                {
                    "internalType": "address",
                    "name": "account",
                    "type": "address"
                }
            ],
            "name": "grantRole",
            "outputs": [],
            "stateMutability": "nonpayable",
            "type": "function"
        },
        {
            "inputs": [
                {
                    "internalType": "bytes32",
                    "name": "role",
                    "type": "bytes32"
                },
                {
                    "internalType": "address",
                    "name": "account",
                    "type": "address"
                }
            ],
            "name": "hasRole",
            "outputs": [
                {
                    "internalType": "bool",
                    "name": "",
                    "type": "bool"
                }
            ],
            "stateMutability": "view",
            "type": "function"
        },
        {
            "inputs": [
                {
                    "internalType": "address",
                    "name": "owner",
                    "type": "address"
                },
                {
                    "internalType": "address",
                    "name": "operator",
                    "type": "address"
                }
            ],
            "name": "isApprovedForAll",
            "outputs": [
                {
                    "internalType": "bool",
                    "name": "",
                    "type": "bool"
                }
            ],
            "stateMutability": "view",
            "type": "function"
        },
        {
            "inputs": [],
            "name": "name",
            "outputs": [
                {
                    "internalType": "string",
                    "name": "",
                    "type": "string"
                }
            ],
            "stateMutability": "view",
            "type": "function"
        },
        {
            "inputs": [
                {
                    "internalType": "uint256",
                    "name": "tokenId",
                    "type": "uint256"
                }
            ],
            "name": "ownerOf",
            "outputs": [
                {
                    "internalType": "address",
                    "name": "",
                    "type": "address"
                }
            ],
            "stateMutability": "view",
            "type": "function"
        },
        {
            "inputs": [
                {
                    "internalType": "address",
                    "name": "buyer",
                    "type": "address"
                },
                {
                    "components": [
                        {
                            "internalType": "uint256",
                            "name": "artworkId",
                            "type": "uint256"
                        },
                        {
                            "internalType": "string",
                            "name": "title",
                            "type": "string"
                        },
                        {
                            "internalType": "uint256",
                            "name": "priceWei",
                            "type": "uint256"
                        },
                        {
                            "internalType": "string",
                            "name": "tokenUri",
                            "type": "string"
                        },
                        {
                            "internalType": "string",
                            "name": "content",
                            "type": "string"
                        },
                        {
                            "internalType": "uint256",
                            "name": "royalty",
                            "type": "uint256"
                        },
                        {
                            "internalType": "bytes",
                            "name": "signature",
                            "type": "bytes"
                        }
                    ],
                    "internalType": "struct LazyFactory.Voucher",
                    "name": "voucher",
                    "type": "tuple"
                },
                {
                    "internalType": "address",
                    "name": "signer",
                    "type": "address"
                }
            ],
            "name": "redeem",
            "outputs": [],
            "stateMutability": "payable",
            "type": "function"
        },
        {
            "inputs": [
                {
                    "internalType": "bytes32",
                    "name": "role",
                    "type": "bytes32"
                },
                {
                    "internalType": "address",
                    "name": "account",
                    "type": "address"
                }
            ],
            "name": "renounceRole",
            "outputs": [],
            "stateMutability": "nonpayable",
            "type": "function"
        },
        {
            "inputs": [
                {
                    "internalType": "bytes32",
                    "name": "role",
                    "type": "bytes32"
                },
                {
                    "internalType": "address",
                    "name": "account",
                    "type": "address"
                }
            ],
            "name": "revokeRole",
            "outputs": [],
            "stateMutability": "nonpayable",
            "type": "function"
        },
        {
            "inputs": [
                {
                    "internalType": "address",
                    "name": "from",
                    "type": "address"
                },
                {
                    "internalType": "address",
                    "name": "to",
                    "type": "address"
                },
                {
                    "internalType": "uint256",
                    "name": "tokenId",
                    "type": "uint256"
                }
            ],
            "name": "safeTransferFrom",
            "outputs": [],
            "stateMutability": "nonpayable",
            "type": "function"
        },
        {
            "inputs": [
                {
                    "internalType": "address",
                    "name": "from",
                    "type": "address"
                },
                {
                    "internalType": "address",
                    "name": "to",
                    "type": "address"
                },
                {
                    "internalType": "uint256",
                    "name": "tokenId",
                    "type": "uint256"
                },
                {
                    "internalType": "bytes",
                    "name": "_data",
                    "type": "bytes"
                }
            ],
            "name": "safeTransferFrom",
            "outputs": [],
            "stateMutability": "nonpayable",
            "type": "function"
        },
        {
            "inputs": [
                {
                    "internalType": "address",
                    "name": "operator",
                    "type": "address"
                },
                {
                    "internalType": "bool",
                    "name": "approved",
                    "type": "bool"
                }
            ],
            "name": "setApprovalForAll",
            "outputs": [],
            "stateMutability": "nonpayable",
            "type": "function"
        },
        {
            "inputs": [
                {
                    "internalType": "bytes4",
                    "name": "interfaceId",
                    "type": "bytes4"
                }
            ],
            "name": "supportsInterface",
            "outputs": [
                {
                    "internalType": "bool",
                    "name": "",
                    "type": "bool"
                }
            ],
            "stateMutability": "view",
            "type": "function"
        },
        {
            "inputs": [],
            "name": "symbol",
            "outputs": [
                {
                    "internalType": "string",
                    "name": "",
                    "type": "string"
                }
            ],
            "stateMutability": "view",
            "type": "function"
        },
        {
            "inputs": [
                {
                    "internalType": "uint256",
                    "name": "tokenId",
                    "type": "uint256"
                }
            ],
            "name": "tokenURI",
            "outputs": [
                {
                    "internalType": "string",
                    "name": "",
                    "type": "string"
                }
            ],
            "stateMutability": "view",
            "type": "function"
        },
        {
            "inputs": [
                {
                    "internalType": "address",
                    "name": "from",
                    "type": "address"
                },
                {
                    "internalType": "address",
                    "name": "to",
                    "type": "address"
                },
                {
                    "internalType": "uint256",
                    "name": "tokenId",
                    "type": "uint256"
                }
            ],
            "name": "transferFrom",
            "outputs": [],
            "stateMutability": "nonpayable",
            "type": "function"
        }
    ],
    "bytecode": "0x61014060405266038d7ea4c68000600c553480156200001d57600080fd5b506040516200430e3803806200430e8339818101604052810190620000439190620005ba565b6040518060400160405280600481526020017f4e465459000000000000000000000000000000000000000000000000000000008152506040518060400160405280600181526020017f31000000000000000000000000000000000000000000000000000000000000008152506040518060400160405280601081526020017f4e66747954756e657320546f6b656e73000000000000000000000000000000008152506040518060400160405280600481526020017f4e4654590000000000000000000000000000000000000000000000000000000081525081600090805190602001906200013392919062000481565b5080600190805190602001906200014c92919062000481565b50505060008280519060200120905060008280519060200120905060007f8b73c3c69bb8fe3d512ecc4cf759cc79239f7b179b0ffacaa9a75d522b39400f90508260e081815250508161010081815250504660a08181525050620001b8818484620002ca60201b60201c565b608081815250503073ffffffffffffffffffffffffffffffffffffffff1660c08173ffffffffffffffffffffffffffffffffffffffff1660601b81525050806101208181525050505050505060016008819055506200023e7fe2f4eaae4a9751e85a3e4a7b9587827a877f29914755229b07a7b2da98285f70826200030660201b60201c565b83600a60006101000a81548173ffffffffffffffffffffffffffffffffffffffff021916908373ffffffffffffffffffffffffffffffffffffffff16021790555080600b60006101000a81548173ffffffffffffffffffffffffffffffffffffffff021916908373ffffffffffffffffffffffffffffffffffffffff16021790555050505050620008ce565b60008383834630604051602001620002e79594939291906200068b565b6040516020818303038152906040528051906020012090509392505050565b6200031882826200031c60201b60201c565b5050565b6200032e82826200040e60201b60201c565b6200040a5760016007600084815260200190815260200160002060000160008373ffffffffffffffffffffffffffffffffffffffff1673ffffffffffffffffffffffffffffffffffffffff16815260200190815260200160002060006101000a81548160ff021916908315150217905550620003af6200047960201b60201c565b73ffffffffffffffffffffffffffffffffffffffff168173ffffffffffffffffffffffffffffffffffffffff16837f2f8788117e7eff1d82e926ec794901d17c78024a50270940304540a733656f0d60405160405180910390a45b5050565b60006007600084815260200190815260200160002060000160008373ffffffffffffffffffffffffffffffffffffffff1673ffffffffffffffffffffffffffffffffffffffff16815260200190815260200160002060009054906101000a900460ff16905092915050565b600033905090565b8280546200048f90620007d9565b90600052602060002090601f016020900481019282620004b35760008555620004ff565b82601f10620004ce57805160ff1916838001178555620004ff565b82800160010185558215620004ff579182015b82811115620004fe578251825591602001919060010190620004e1565b5b5090506200050e919062000512565b5090565b5b808211156200052d57600081600090555060010162000513565b5090565b600062000548620005428462000711565b620006e8565b9050828152602081018484840111156200056157600080fd5b6200056e848285620007a3565b509392505050565b6000815190506200058781620008b4565b92915050565b600082601f8301126200059f57600080fd5b8151620005b184826020860162000531565b91505092915050565b60008060008060808587031215620005d157600080fd5b6000620005e18782880162000576565b945050602085015167ffffffffffffffff811115620005ff57600080fd5b6200060d878288016200058d565b935050604085015167ffffffffffffffff8111156200062b57600080fd5b62000639878288016200058d565b92505060606200064c8782880162000576565b91505092959194509250565b620006638162000747565b82525050565b62000674816200076f565b82525050565b620006858162000799565b82525050565b600060a082019050620006a2600083018862000669565b620006b1602083018762000669565b620006c0604083018662000669565b620006cf60608301856200067a565b620006de608083018462000658565b9695505050505050565b6000620006f462000707565b90506200070282826200080f565b919050565b6000604051905090565b600067ffffffffffffffff8211156200072f576200072e62000874565b5b6200073a82620008a3565b9050602081019050919050565b6000620007548262000779565b9050919050565b6000620007688262000779565b9050919050565b6000819050919050565b600073ffffffffffffffffffffffffffffffffffffffff82169050919050565b6000819050919050565b60005b83811015620007c3578082015181840152602081019050620007a6565b83811115620007d3576000848401525b50505050565b60006002820490506001821680620007f257607f821691505b6020821081141562000809576200080862000845565b5b50919050565b6200081a82620008a3565b810181811067ffffffffffffffff821117156200083c576200083b62000874565b5b80604052505050565b7f4e487b7100000000000000000000000000000000000000000000000000000000600052602260045260246000fd5b7f4e487b7100000000000000000000000000000000000000000000000000000000600052604160045260246000fd5b6000601f19601f8301169050919050565b620008bf816200075b565b8114620008cb57600080fd5b50565b60805160a05160c05160601c60e05161010051610120516139ff6200090f6000396000505060005050600050506000505060005050600050506139ff6000f3fe6080604052600436106101355760003560e01c806370a08231116100ab578063a217fddf1161006f578063a217fddf1461043d578063a22cb46514610468578063b88d4fde14610491578063c87b56dd146104ba578063d547741f146104f7578063e985e9c51461052057610135565b806370a082311461035157806391d148541461038e57806395d89b41146103cb578063976ad12a146103f6578063a1ebf35d1461041257610135565b8063248a9ca3116100fd578063248a9ca3146102315780632f2ff15d1461026e57806336568abe1461029757806342842e0e146102c0578063564b81ef146102e95780636352211e1461031457610135565b806301ffc9a71461013a57806306fdde0314610177578063081812fc146101a2578063095ea7b3146101df57806323b872dd14610208575b600080fd5b34801561014657600080fd5b50610161600480360381019061015c91906126ad565b61055d565b60405161016e9190612c79565b60405180910390f35b34801561018357600080fd5b5061018c61057f565b6040516101999190612caf565b60405180910390f35b3480156101ae57600080fd5b506101c960048036038101906101c491906126ff565b610611565b6040516101d69190612b9a565b60405180910390f35b3480156101eb57600080fd5b506102066004803603810190610201919061260c565b610696565b005b34801561021457600080fd5b5061022f600480360381019061022a919061249f565b6107ae565b005b34801561023d57600080fd5b5061025860048036038101906102539190612648565b61080e565b6040516102659190612c94565b60405180910390f35b34801561027a57600080fd5b5061029560048036038101906102909190612671565b61082e565b005b3480156102a357600080fd5b506102be60048036038101906102b99190612671565b610857565b005b3480156102cc57600080fd5b506102e760048036038101906102e2919061249f565b6108da565b005b3480156102f557600080fd5b506102fe6108fa565b60405161030b9190612f31565b60405180910390f35b34801561032057600080fd5b5061033b600480360381019061033691906126ff565b610907565b6040516103489190612b9a565b60405180910390f35b34801561035d57600080fd5b506103786004803603810190610373919061243a565b6109b9565b6040516103859190612f31565b60405180910390f35b34801561039a57600080fd5b506103b560048036038101906103b09190612671565b610a71565b6040516103c29190612c79565b60405180910390f35b3480156103d757600080fd5b506103e0610adc565b6040516103ed9190612caf565b60405180910390f35b610410600480360381019061040b91906125a5565b610b6e565b005b34801561041e57600080fd5b50610427610ee8565b6040516104349190612c94565b60405180910390f35b34801561044957600080fd5b50610452610f0c565b60405161045f9190612c94565b60405180910390f35b34801561047457600080fd5b5061048f600480360381019061048a9190612569565b610f13565b005b34801561049d57600080fd5b506104b860048036038101906104b391906124ee565b610f29565b005b3480156104c657600080fd5b506104e160048036038101906104dc91906126ff565b610f8b565b6040516104ee9190612caf565b60405180910390f35b34801561050357600080fd5b5061051e60048036038101906105199190612671565b6110dd565b005b34801561052c57600080fd5b5061054760048036038101906105429190612463565b611106565b6040516105549190612c79565b60405180910390f35b60006105688261119a565b8061057857506105778261127c565b5b9050919050565b60606000805461058e9061323b565b80601f01602080910402602001604051908101604052809291908181526020018280546105ba9061323b565b80156106075780601f106105dc57610100808354040283529160200191610607565b820191906000526020600020905b8154815290600101906020018083116105ea57829003601f168201915b5050505050905090565b600061061c826112f6565b61065b576040517f08c379a000000000000000000000000000000000000000000000000000000000815260040161065290612e31565b60405180910390fd5b6004600083815260200190815260200160002060009054906101000a900473ffffffffffffffffffffffffffffffffffffffff169050919050565b60006106a182610907565b90508073ffffffffffffffffffffffffffffffffffffffff168373ffffffffffffffffffffffffffffffffffffffff161415610712576040517f08c379a000000000000000000000000000000000000000000000000000000000815260040161070990612e91565b60405180910390fd5b8073ffffffffffffffffffffffffffffffffffffffff16610731611362565b73ffffffffffffffffffffffffffffffffffffffff161480610760575061075f8161075a611362565b611106565b5b61079f576040517f08c379a000000000000000000000000000000000000000000000000000000000815260040161079690612d91565b60405180910390fd5b6107a9838361136a565b505050565b6107bf6107b9611362565b82611423565b6107fe576040517f08c379a00000000000000000000000000000000000000000000000000000000081526004016107f590612ed1565b60405180910390fd5b610809838383611501565b505050565b600060076000838152602001908152602001600020600101549050919050565b6108378261080e565b61084881610843611362565b611768565b6108528383611805565b505050565b61085f611362565b73ffffffffffffffffffffffffffffffffffffffff168173ffffffffffffffffffffffffffffffffffffffff16146108cc576040517f08c379a00000000000000000000000000000000000000000000000000000000081526004016108c390612f11565b60405180910390fd5b6108d682826118e6565b5050565b6108f583838360405180602001604052806000815250610f29565b505050565b6000804690508091505090565b6000806002600084815260200190815260200160002060009054906101000a900473ffffffffffffffffffffffffffffffffffffffff169050600073ffffffffffffffffffffffffffffffffffffffff168173ffffffffffffffffffffffffffffffffffffffff1614156109b0576040517f08c379a00000000000000000000000000000000000000000000000000000000081526004016109a790612dd1565b60405180910390fd5b80915050919050565b60008073ffffffffffffffffffffffffffffffffffffffff168273ffffffffffffffffffffffffffffffffffffffff161415610a2a576040517f08c379a0000000000000000000000000000000000000000000000000000000008152600401610a2190612db1565b60405180910390fd5b600360008373ffffffffffffffffffffffffffffffffffffffff1673ffffffffffffffffffffffffffffffffffffffff168152602001908152602001600020549050919050565b60006007600084815260200190815260200160002060000160008373ffffffffffffffffffffffffffffffffffffffff1673ffffffffffffffffffffffffffffffffffffffff16815260200190815260200160002060009054906101000a900460ff16905092915050565b606060018054610aeb9061323b565b80601f0160208091040260200160405190810160405280929190818152602001828054610b179061323b565b8015610b645780601f10610b3957610100808354040283529160200191610b64565b820191906000526020600020905b815481529060010190602001808311610b4757829003601f168201915b5050505050905090565b60026008541415610bb4576040517f08c379a0000000000000000000000000000000000000000000000000000000008152600401610bab90612ef1565b60405180910390fd5b6002600881905550600081905082604001353414610c07576040517f08c379a0000000000000000000000000000000000000000000000000000000008152600401610bfe90612eb1565b60405180910390fd5b8373ffffffffffffffffffffffffffffffffffffffff168173ffffffffffffffffffffffffffffffffffffffff161415610c76576040517f08c379a0000000000000000000000000000000000000000000000000000000008152600401610c6d90612df1565b60405180910390fd5b610ca07fe2f4eaae4a9751e85a3e4a7b9587827a877f29914755229b07a7b2da98285f7082610a71565b610cdf576040517f08c379a0000000000000000000000000000000000000000000000000000000008152600401610cd690612e51565b60405180910390fd5b610d0c600a60009054906101000a900473ffffffffffffffffffffffffffffffffffffffff166001610f13565b6000600a60009054906101000a900473ffffffffffffffffffffffffffffffffffffffff16905060003490508173ffffffffffffffffffffffffffffffffffffffff166306846dd730878060600190610d659190612f4c565b858a600001358b60a001358b336040518963ffffffff1660e01b8152600401610d95989796959493929190612c01565b602060405180830381600087803b158015610daf57600080fd5b505af1158015610dc3573d6000803e3d6000fd5b505050506040513d601f19601f82011682018060405250810190610de79190612728565b508273ffffffffffffffffffffffffffffffffffffffff166108fc600c5483610e10919061311d565b9081150290604051600060405180830381858888f19350505050158015610e3b573d6000803e3d6000fd5b50600a60009054906101000a900473ffffffffffffffffffffffffffffffffffffffff1673ffffffffffffffffffffffffffffffffffffffff166108fc600c549081150290604051600060405180830381858888f19350505050158015610ea6573d6000803e3d6000fd5b5084600001357fe925326602e433d1e45b5c79b4ff305e4a75ea3a9c63be961abb9e36bd29b47c60405160405180910390a25050506001600881905550505050565b7fe2f4eaae4a9751e85a3e4a7b9587827a877f29914755229b07a7b2da98285f7081565b6000801b81565b610f25610f1e611362565b83836119c8565b5050565b610f3a610f34611362565b83611423565b610f79576040517f08c379a0000000000000000000000000000000000000000000000000000000008152600401610f7090612ed1565b60405180910390fd5b610f8584848484611b35565b50505050565b6060610f96826112f6565b610fd5576040517f08c379a0000000000000000000000000000000000000000000000000000000008152600401610fcc90612e11565b60405180910390fd5b6000600660008481526020019081526020016000208054610ff59061323b565b80601f01602080910402602001604051908101604052809291908181526020018280546110219061323b565b801561106e5780601f106110435761010080835404028352916020019161106e565b820191906000526020600020905b81548152906001019060200180831161105157829003601f168201915b50505050509050600061107f611b91565b90506000815114156110955781925050506110d8565b6000825111156110ca5780826040516020016110b2929190612b3c565b604051602081830303815290604052925050506110d8565b6110d384611ba8565b925050505b919050565b6110e68261080e565b6110f7816110f2611362565b611768565b61110183836118e6565b505050565b6000600560008473ffffffffffffffffffffffffffffffffffffffff1673ffffffffffffffffffffffffffffffffffffffff16815260200190815260200160002060008373ffffffffffffffffffffffffffffffffffffffff1673ffffffffffffffffffffffffffffffffffffffff16815260200190815260200160002060009054906101000a900460ff16905092915050565b60007f80ac58cd000000000000000000000000000000000000000000000000000000007bffffffffffffffffffffffffffffffffffffffffffffffffffffffff1916827bffffffffffffffffffffffffffffffffffffffffffffffffffffffff1916148061126557507f5b5e139f000000000000000000000000000000000000000000000000000000007bffffffffffffffffffffffffffffffffffffffffffffffffffffffff1916827bffffffffffffffffffffffffffffffffffffffffffffffffffffffff1916145b80611275575061127482611c4f565b5b9050919050565b60007f7965db0b000000000000000000000000000000000000000000000000000000007bffffffffffffffffffffffffffffffffffffffffffffffffffffffff1916827bffffffffffffffffffffffffffffffffffffffffffffffffffffffff191614806112ef57506112ee8261119a565b5b9050919050565b60008073ffffffffffffffffffffffffffffffffffffffff166002600084815260200190815260200160002060009054906101000a900473ffffffffffffffffffffffffffffffffffffffff1673ffffffffffffffffffffffffffffffffffffffff1614159050919050565b600033905090565b816004600083815260200190815260200160002060006101000a81548173ffffffffffffffffffffffffffffffffffffffff021916908373ffffffffffffffffffffffffffffffffffffffff160217905550808273ffffffffffffffffffffffffffffffffffffffff166113dd83610907565b73ffffffffffffffffffffffffffffffffffffffff167f8c5be1e5ebec7d5bd14f71427d1e84f3dd0314c0f7b2291e5b200ac8c7c3b92560405160405180910390a45050565b600061142e826112f6565b61146d576040517f08c379a000000000000000000000000000000000000000000000000000000000815260040161146490612d71565b60405180910390fd5b600061147883610907565b90508073ffffffffffffffffffffffffffffffffffffffff168473ffffffffffffffffffffffffffffffffffffffff1614806114e757508373ffffffffffffffffffffffffffffffffffffffff166114cf84610611565b73ffffffffffffffffffffffffffffffffffffffff16145b806114f857506114f78185611106565b5b91505092915050565b8273ffffffffffffffffffffffffffffffffffffffff1661152182610907565b73ffffffffffffffffffffffffffffffffffffffff1614611577576040517f08c379a000000000000000000000000000000000000000000000000000000000815260040161156e90612d11565b60405180910390fd5b600073ffffffffffffffffffffffffffffffffffffffff168273ffffffffffffffffffffffffffffffffffffffff1614156115e7576040517f08c379a00000000000000000000000000000000000000000000000000000000081526004016115de90612d31565b60405180910390fd5b6115f2838383611cb9565b6115fd60008261136a565b6001600360008573ffffffffffffffffffffffffffffffffffffffff1673ffffffffffffffffffffffffffffffffffffffff168152602001908152602001600020600082825461164d919061311d565b925050819055506001600360008473ffffffffffffffffffffffffffffffffffffffff1673ffffffffffffffffffffffffffffffffffffffff16815260200190815260200160002060008282546116a4919061303c565b92505081905550816002600083815260200190815260200160002060006101000a81548173ffffffffffffffffffffffffffffffffffffffff021916908373ffffffffffffffffffffffffffffffffffffffff160217905550808273ffffffffffffffffffffffffffffffffffffffff168473ffffffffffffffffffffffffffffffffffffffff167fddf252ad1be2c89b69c2b068fc378daa952ba7f163c4a11628f55a4df523b3ef60405160405180910390a4611763838383611cbe565b505050565b6117728282610a71565b611801576117978173ffffffffffffffffffffffffffffffffffffffff166014611cc3565b6117a58360001c6020611cc3565b6040516020016117b6929190612b60565b6040516020818303038152906040526040517f08c379a00000000000000000000000000000000000000000000000000000000081526004016117f89190612caf565b60405180910390fd5b5050565b61180f8282610a71565b6118e25760016007600084815260200190815260200160002060000160008373ffffffffffffffffffffffffffffffffffffffff1673ffffffffffffffffffffffffffffffffffffffff16815260200190815260200160002060006101000a81548160ff021916908315150217905550611887611362565b73ffffffffffffffffffffffffffffffffffffffff168173ffffffffffffffffffffffffffffffffffffffff16837f2f8788117e7eff1d82e926ec794901d17c78024a50270940304540a733656f0d60405160405180910390a45b5050565b6118f08282610a71565b156119c45760006007600084815260200190815260200160002060000160008373ffffffffffffffffffffffffffffffffffffffff1673ffffffffffffffffffffffffffffffffffffffff16815260200190815260200160002060006101000a81548160ff021916908315150217905550611969611362565b73ffffffffffffffffffffffffffffffffffffffff168173ffffffffffffffffffffffffffffffffffffffff16837ff6391f5c32d9c69d2a47ea670b442974b53935d1edc7fd64eb21e047a839171b60405160405180910390a45b5050565b8173ffffffffffffffffffffffffffffffffffffffff168373ffffffffffffffffffffffffffffffffffffffff161415611a37576040517f08c379a0000000000000000000000000000000000000000000000000000000008152600401611a2e90612d51565b60405180910390fd5b80600560008573ffffffffffffffffffffffffffffffffffffffff1673ffffffffffffffffffffffffffffffffffffffff16815260200190815260200160002060008473ffffffffffffffffffffffffffffffffffffffff1673ffffffffffffffffffffffffffffffffffffffff16815260200190815260200160002060006101000a81548160ff0219169083151502179055508173ffffffffffffffffffffffffffffffffffffffff168373ffffffffffffffffffffffffffffffffffffffff167f17307eab39ab6107e8899845ad3d59bd9653f200f220920489ca2b5937696c3183604051611b289190612c79565b60405180910390a3505050565b611b40848484611501565b611b4c84848484611fbd565b611b8b576040517f08c379a0000000000000000000000000000000000000000000000000000000008152600401611b8290612cf1565b60405180910390fd5b50505050565b606060405180602001604052806000815250905090565b6060611bb3826112f6565b611bf2576040517f08c379a0000000000000000000000000000000000000000000000000000000008152600401611be990612e71565b60405180910390fd5b6000611bfc611b91565b90506000815111611c1c5760405180602001604052806000815250611c47565b80611c2684612154565b604051602001611c37929190612b3c565b6040516020818303038152906040525b915050919050565b60007f01ffc9a7000000000000000000000000000000000000000000000000000000007bffffffffffffffffffffffffffffffffffffffffffffffffffffffff1916827bffffffffffffffffffffffffffffffffffffffffffffffffffffffff1916149050919050565b505050565b505050565b606060006002836002611cd691906130c3565b611ce0919061303c565b67ffffffffffffffff811115611d1f577f4e487b7100000000000000000000000000000000000000000000000000000000600052604160045260246000fd5b6040519080825280601f01601f191660200182016040528015611d515781602001600182028036833780820191505090505b5090507f300000000000000000000000000000000000000000000000000000000000000081600081518110611daf577f4e487b7100000000000000000000000000000000000000000000000000000000600052603260045260246000fd5b60200101907effffffffffffffffffffffffffffffffffffffffffffffffffffffffffffff1916908160001a9053507f780000000000000000000000000000000000000000000000000000000000000081600181518110611e39577f4e487b7100000000000000000000000000000000000000000000000000000000600052603260045260246000fd5b60200101907effffffffffffffffffffffffffffffffffffffffffffffffffffffffffffff1916908160001a90535060006001846002611e7991906130c3565b611e83919061303c565b90505b6001811115611f6f577f3031323334353637383961626364656600000000000000000000000000000000600f861660108110611eeb577f4e487b7100000000000000000000000000000000000000000000000000000000600052603260045260246000fd5b1a60f81b828281518110611f28577f4e487b7100000000000000000000000000000000000000000000000000000000600052603260045260246000fd5b60200101907effffffffffffffffffffffffffffffffffffffffffffffffffffffffffffff1916908160001a905350600485901c945080611f6890613211565b9050611e86565b5060008414611fb3576040517f08c379a0000000000000000000000000000000000000000000000000000000008152600401611faa90612cd1565b60405180910390fd5b8091505092915050565b6000611fde8473ffffffffffffffffffffffffffffffffffffffff16612301565b15612147578373ffffffffffffffffffffffffffffffffffffffff1663150b7a02612007611362565b8786866040518563ffffffff1660e01b81526004016120299493929190612bb5565b602060405180830381600087803b15801561204357600080fd5b505af192505050801561207457506040513d601f19601f8201168201806040525081019061207191906126d6565b60015b6120f7573d80600081146120a4576040519150601f19603f3d011682016040523d82523d6000602084013e6120a9565b606091505b506000815114156120ef576040517f08c379a00000000000000000000000000000000000000000000000000000000081526004016120e690612cf1565b60405180910390fd5b805181602001fd5b63150b7a0260e01b7bffffffffffffffffffffffffffffffffffffffffffffffffffffffff1916817bffffffffffffffffffffffffffffffffffffffffffffffffffffffff19161491505061214c565b600190505b949350505050565b6060600082141561219c576040518060400160405280600181526020017f300000000000000000000000000000000000000000000000000000000000000081525090506122fc565b600082905060005b600082146121ce5780806121b79061329e565b915050600a826121c79190613092565b91506121a4565b60008167ffffffffffffffff811115612210577f4e487b7100000000000000000000000000000000000000000000000000000000600052604160045260246000fd5b6040519080825280601f01601f1916602001820160405280156122425781602001600182028036833780820191505090505b5090505b600085146122f55760018261225b919061311d565b9150600a8561226a91906132e7565b6030612276919061303c565b60f81b8183815181106122b2577f4e487b7100000000000000000000000000000000000000000000000000000000600052603260045260246000fd5b60200101907effffffffffffffffffffffffffffffffffffffffffffffffffffffffffffff1916908160001a905350600a856122ee9190613092565b9450612246565b8093505050505b919050565b6000808273ffffffffffffffffffffffffffffffffffffffff163b119050919050565b600061233761233284612fc8565b612fa3565b90508281526020810184848401111561234f57600080fd5b61235a8482856131cf565b509392505050565b60008135905061237181613956565b92915050565b6000813590506123868161396d565b92915050565b60008135905061239b81613984565b92915050565b6000813590506123b08161399b565b92915050565b6000815190506123c58161399b565b92915050565b600082601f8301126123dc57600080fd5b81356123ec848260208601612324565b91505092915050565b600060e0828403121561240757600080fd5b81905092915050565b60008135905061241f816139b2565b92915050565b600081519050612434816139b2565b92915050565b60006020828403121561244c57600080fd5b600061245a84828501612362565b91505092915050565b6000806040838503121561247657600080fd5b600061248485828601612362565b925050602061249585828601612362565b9150509250929050565b6000806000606084860312156124b457600080fd5b60006124c286828701612362565b93505060206124d386828701612362565b92505060406124e486828701612410565b9150509250925092565b6000806000806080858703121561250457600080fd5b600061251287828801612362565b945050602061252387828801612362565b935050604061253487828801612410565b925050606085013567ffffffffffffffff81111561255157600080fd5b61255d878288016123cb565b91505092959194509250565b6000806040838503121561257c57600080fd5b600061258a85828601612362565b925050602061259b85828601612377565b9150509250929050565b6000806000606084860312156125ba57600080fd5b60006125c886828701612362565b935050602084013567ffffffffffffffff8111156125e557600080fd5b6125f1868287016123f5565b925050604061260286828701612362565b9150509250925092565b6000806040838503121561261f57600080fd5b600061262d85828601612362565b925050602061263e85828601612410565b9150509250929050565b60006020828403121561265a57600080fd5b60006126688482850161238c565b91505092915050565b6000806040838503121561268457600080fd5b60006126928582860161238c565b92505060206126a385828601612362565b9150509250929050565b6000602082840312156126bf57600080fd5b60006126cd848285016123a1565b91505092915050565b6000602082840312156126e857600080fd5b60006126f6848285016123b6565b91505092915050565b60006020828403121561271157600080fd5b600061271f84828501612410565b91505092915050565b60006020828403121561273a57600080fd5b600061274884828501612425565b91505092915050565b61275a81613151565b82525050565b61276981613163565b82525050565b6127788161316f565b82525050565b600061278982612ff9565b612793818561300f565b93506127a38185602086016131de565b6127ac816133d4565b840191505092915050565b60006127c38385613020565b93506127d08385846131cf565b6127d9836133d4565b840190509392505050565b60006127ef82613004565b6127f98185613020565b93506128098185602086016131de565b612812816133d4565b840191505092915050565b600061282882613004565b6128328185613031565b93506128428185602086016131de565b80840191505092915050565b600061285b602083613020565b9150612866826133e5565b602082019050919050565b600061287e603283613020565b91506128898261340e565b604082019050919050565b60006128a1602583613020565b91506128ac8261345d565b604082019050919050565b60006128c4602483613020565b91506128cf826134ac565b604082019050919050565b60006128e7601983613020565b91506128f2826134fb565b602082019050919050565b600061290a602c83613020565b915061291582613524565b604082019050919050565b600061292d603883613020565b915061293882613573565b604082019050919050565b6000612950602a83613020565b915061295b826135c2565b604082019050919050565b6000612973602983613020565b915061297e82613611565b604082019050919050565b6000612996602383613020565b91506129a182613660565b604082019050919050565b60006129b9603183613020565b91506129c4826136af565b604082019050919050565b60006129dc602c83613020565b91506129e7826136fe565b604082019050919050565b60006129ff601183613020565b9150612a0a8261374d565b602082019050919050565b6000612a22602f83613020565b9150612a2d82613776565b604082019050919050565b6000612a45602183613020565b9150612a50826137c5565b604082019050919050565b6000612a68601783613020565b9150612a7382613814565b602082019050919050565b6000612a8b603183613020565b9150612a968261383d565b604082019050919050565b6000612aae601783613031565b9150612ab98261388c565b601782019050919050565b6000612ad1601f83613020565b9150612adc826138b5565b602082019050919050565b6000612af4601183613031565b9150612aff826138de565b601182019050919050565b6000612b17602f83613020565b9150612b2282613907565b604082019050919050565b612b36816131c5565b82525050565b6000612b48828561281d565b9150612b54828461281d565b91508190509392505050565b6000612b6b82612aa1565b9150612b77828561281d565b9150612b8282612ae7565b9150612b8e828461281d565b91508190509392505050565b6000602082019050612baf6000830184612751565b92915050565b6000608082019050612bca6000830187612751565b612bd76020830186612751565b612be46040830185612b2d565b8181036060830152612bf6818461277e565b905095945050505050565b600060e082019050612c16600083018b612751565b8181036020830152612c2981898b6127b7565b9050612c386040830188612b2d565b612c456060830187612b2d565b612c526080830186612b2d565b612c5f60a0830185612751565b612c6c60c0830184612751565b9998505050505050505050565b6000602082019050612c8e6000830184612760565b92915050565b6000602082019050612ca9600083018461276f565b92915050565b60006020820190508181036000830152612cc981846127e4565b905092915050565b60006020820190508181036000830152612cea8161284e565b9050919050565b60006020820190508181036000830152612d0a81612871565b9050919050565b60006020820190508181036000830152612d2a81612894565b9050919050565b60006020820190508181036000830152612d4a816128b7565b9050919050565b60006020820190508181036000830152612d6a816128da565b9050919050565b60006020820190508181036000830152612d8a816128fd565b9050919050565b60006020820190508181036000830152612daa81612920565b9050919050565b60006020820190508181036000830152612dca81612943565b9050919050565b60006020820190508181036000830152612dea81612966565b9050919050565b60006020820190508181036000830152612e0a81612989565b9050919050565b60006020820190508181036000830152612e2a816129ac565b9050919050565b60006020820190508181036000830152612e4a816129cf565b9050919050565b60006020820190508181036000830152612e6a816129f2565b9050919050565b60006020820190508181036000830152612e8a81612a15565b9050919050565b60006020820190508181036000830152612eaa81612a38565b9050919050565b60006020820190508181036000830152612eca81612a5b565b9050919050565b60006020820190508181036000830152612eea81612a7e565b9050919050565b60006020820190508181036000830152612f0a81612ac4565b9050919050565b60006020820190508181036000830152612f2a81612b0a565b9050919050565b6000602082019050612f466000830184612b2d565b92915050565b60008083356001602003843603038112612f6557600080fd5b80840192508235915067ffffffffffffffff821115612f8357600080fd5b602083019250600182023603831315612f9b57600080fd5b509250929050565b6000612fad612fbe565b9050612fb9828261326d565b919050565b6000604051905090565b600067ffffffffffffffff821115612fe357612fe26133a5565b5b612fec826133d4565b9050602081019050919050565b600081519050919050565b600081519050919050565b600082825260208201905092915050565b600082825260208201905092915050565b600081905092915050565b6000613047826131c5565b9150613052836131c5565b9250827fffffffffffffffffffffffffffffffffffffffffffffffffffffffffffffffff0382111561308757613086613318565b5b828201905092915050565b600061309d826131c5565b91506130a8836131c5565b9250826130b8576130b7613347565b5b828204905092915050565b60006130ce826131c5565b91506130d9836131c5565b9250817fffffffffffffffffffffffffffffffffffffffffffffffffffffffffffffffff048311821515161561311257613111613318565b5b828202905092915050565b6000613128826131c5565b9150613133836131c5565b92508282101561314657613145613318565b5b828203905092915050565b600061315c826131a5565b9050919050565b60008115159050919050565b6000819050919050565b60007fffffffff0000000000000000000000000000000000000000000000000000000082169050919050565b600073ffffffffffffffffffffffffffffffffffffffff82169050919050565b6000819050919050565b82818337600083830152505050565b60005b838110156131fc5780820151818401526020810190506131e1565b8381111561320b576000848401525b50505050565b600061321c826131c5565b915060008214156132305761322f613318565b5b600182039050919050565b6000600282049050600182168061325357607f821691505b6020821081141561326757613266613376565b5b50919050565b613276826133d4565b810181811067ffffffffffffffff82111715613295576132946133a5565b5b80604052505050565b60006132a9826131c5565b91507fffffffffffffffffffffffffffffffffffffffffffffffffffffffffffffffff8214156132dc576132db613318565b5b600182019050919050565b60006132f2826131c5565b91506132fd836131c5565b92508261330d5761330c613347565b5b828206905092915050565b7f4e487b7100000000000000000000000000000000000000000000000000000000600052601160045260246000fd5b7f4e487b7100000000000000000000000000000000000000000000000000000000600052601260045260246000fd5b7f4e487b7100000000000000000000000000000000000000000000000000000000600052602260045260246000fd5b7f4e487b7100000000000000000000000000000000000000000000000000000000600052604160045260246000fd5b6000601f19601f8301169050919050565b7f537472696e67733a20686578206c656e67746820696e73756666696369656e74600082015250565b7f4552433732313a207472616e7366657220746f206e6f6e20455243373231526560008201527f63656976657220696d706c656d656e7465720000000000000000000000000000602082015250565b7f4552433732313a207472616e736665722066726f6d20696e636f72726563742060008201527f6f776e6572000000000000000000000000000000000000000000000000000000602082015250565b7f4552433732313a207472616e7366657220746f20746865207a65726f2061646460008201527f7265737300000000000000000000000000000000000000000000000000000000602082015250565b7f4552433732313a20617070726f766520746f2063616c6c657200000000000000600082015250565b7f4552433732313a206f70657261746f7220717565727920666f72206e6f6e657860008201527f697374656e7420746f6b656e0000000000000000000000000000000000000000602082015250565b7f4552433732313a20617070726f76652063616c6c6572206973206e6f74206f7760008201527f6e6572206e6f7220617070726f76656420666f7220616c6c0000000000000000602082015250565b7f4552433732313a2062616c616e636520717565727920666f7220746865207a6560008201527f726f206164647265737300000000000000000000000000000000000000000000602082015250565b7f4552433732313a206f776e657220717565727920666f72206e6f6e657869737460008201527f656e7420746f6b656e0000000000000000000000000000000000000000000000602082015250565b7f596f752063616e206e6f7420707572636861736520796f7572206f776e20746f60008201527f6b656e0000000000000000000000000000000000000000000000000000000000602082015250565b7f45524337323155524953746f726167653a2055524920717565727920666f722060008201527f6e6f6e6578697374656e7420746f6b656e000000000000000000000000000000602082015250565b7f4552433732313a20617070726f76656420717565727920666f72206e6f6e657860008201527f697374656e7420746f6b656e0000000000000000000000000000000000000000602082015250565b7f496e76616c6964205369676e6174757265000000000000000000000000000000600082015250565b7f4552433732314d657461646174613a2055524920717565727920666f72206e6f60008201527f6e6578697374656e7420746f6b656e0000000000000000000000000000000000602082015250565b7f4552433732313a20617070726f76616c20746f2063757272656e74206f776e6560008201527f7200000000000000000000000000000000000000000000000000000000000000602082015250565b7f456e7465722074686520636f7272656374207072696365000000000000000000600082015250565b7f4552433732313a207472616e736665722063616c6c6572206973206e6f74206f60008201527f776e6572206e6f7220617070726f766564000000000000000000000000000000602082015250565b7f416363657373436f6e74726f6c3a206163636f756e7420000000000000000000600082015250565b7f5265656e7472616e637947756172643a207265656e7472616e742063616c6c00600082015250565b7f206973206d697373696e6720726f6c6520000000000000000000000000000000600082015250565b7f416363657373436f6e74726f6c3a2063616e206f6e6c792072656e6f756e636560008201527f20726f6c657320666f722073656c660000000000000000000000000000000000602082015250565b61395f81613151565b811461396a57600080fd5b50565b61397681613163565b811461398157600080fd5b50565b61398d8161316f565b811461399857600080fd5b50565b6139a481613179565b81146139af57600080fd5b50565b6139bb816131c5565b81146139c657600080fd5b5056fea264697066735822122020233c4f4ef6aeb36491961e9e695dd8a9aae1acc2e910471dab90f2efd0c93d64736f6c63430008040033",
    "linkReferences": {},
    "deployedLinkReferences": {}
}