{
  "_format": "hh-sol-artifact-1",
  "contractName": "NFTMarketplaceStorage",
  "sourceName": "contracts/NFTMarketplace.sol",
  "abi": [
    {
      "inputs": [
        {
          "internalType": "address",
          "name": "_WETH",
          "type": "address"
        }
      ],
      "stateMutability": "nonpayable",
      "type": "constructor"
    },
    {
      "anonymous": false,
      "inputs": [
        {
          "indexed": true,
          "internalType": "uint256",
          "name": "tokenId",
          "type": "uint256"
        },
        {
          "indexed": false,
          "internalType": "address",
          "name": "seller",
          "type": "address"
        },
        {
          "indexed": false,
          "internalType": "address",
          "name": "owner",
          "type": "address"
        },
        {
          "indexed": false,
          "internalType": "address",
          "name": "publisher",
          "type": "address"
        },
        {
          "indexed": false,
          "internalType": "address",
          "name": "publisherTwo",
          "type": "address"
        },
        {
          "indexed": false,
          "internalType": "address",
          "name": "tokenAddress",
          "type": "address"
        },
        {
          "indexed": false,
          "internalType": "uint256",
          "name": "price",
          "type": "uint256"
        },
        {
          "indexed": false,
          "internalType": "uint256",
          "name": "royalty",
          "type": "uint256"
        },
        {
          "indexed": false,
          "internalType": "bool",
          "name": "sold",
          "type": "bool"
        },
        {
          "indexed": false,
          "internalType": "bool",
          "name": "bred",
          "type": "bool"
        }
      ],
      "name": "MarketItemCreated",
      "type": "event"
    },
    {
      "anonymous": false,
      "inputs": [
        {
          "indexed": true,
          "internalType": "address",
          "name": "previousOwner",
          "type": "address"
        },
        {
          "indexed": true,
          "internalType": "address",
          "name": "newOwner",
          "type": "address"
        }
      ],
      "name": "OwnershipTransferred",
      "type": "event"
    },
    {
      "anonymous": false,
      "inputs": [
        {
          "indexed": true,
          "internalType": "uint256",
          "name": "bid",
          "type": "uint256"
        },
        {
          "indexed": false,
          "internalType": "address",
          "name": "bidder",
          "type": "address"
        }
      ],
      "name": "bidPlaced",
      "type": "event"
    },
    {
      "inputs": [],
      "name": "SIGNER_ROLE",
      "outputs": [
        {
          "internalType": "bytes32",
          "name": "",
          "type": "bytes32"
        }
      ],
      "stateMutability": "view",
      "type": "function"
    },
    {
      "inputs": [
        {
          "internalType": "address",
          "name": "tokenAddress",
          "type": "address"
        },
        {
          "internalType": "uint256",
          "name": "tokenId",
          "type": "uint256"
        }
      ],
      "name": "checkIfItemExists",
      "outputs": [
        {
          "internalType": "bool",
          "name": "",
          "type": "bool"
        }
      ],
      "stateMutability": "view",
      "type": "function"
    },
    {
      "inputs": [
        {
          "internalType": "address",
          "name": "seller",
          "type": "address"
        }
      ],
      "name": "fetchItemsListed",
      "outputs": [
        {
          "components": [
            {
              "internalType": "uint256",
              "name": "tokenId",
              "type": "uint256"
            },
            {
              "internalType": "address payable",
              "name": "seller",
              "type": "address"
            },
            {
              "internalType": "address payable",
              "name": "owner",
              "type": "address"
            },
            {
              "internalType": "address payable",
              "name": "publisher",
              "type": "address"
            },
            {
              "internalType": "address payable",
              "name": "publisherTwo",
              "type": "address"
            },
            {
              "internalType": "address",
              "name": "tokenAddress",
              "type": "address"
            },
            {
              "internalType": "uint256",
              "name": "price",
              "type": "uint256"
            },
            {
              "internalType": "uint256",
              "name": "royalty",
              "type": "uint256"
            },
            {
              "internalType": "bool",
              "name": "sold",
              "type": "bool"
            },
            {
              "internalType": "bool",
              "name": "bred",
              "type": "bool"
            }
          ],
          "internalType": "struct NFTMarketplaceStorage.MarketItem[]",
          "name": "",
          "type": "tuple[]"
        }
      ],
      "stateMutability": "view",
      "type": "function"
    },
    {
      "inputs": [],
      "name": "fetchMarketItems",
      "outputs": [
        {
          "components": [
            {
              "internalType": "uint256",
              "name": "tokenId",
              "type": "uint256"
            },
            {
              "internalType": "address payable",
              "name": "seller",
              "type": "address"
            },
            {
              "internalType": "address payable",
              "name": "owner",
              "type": "address"
            },
            {
              "internalType": "address payable",
              "name": "publisher",
              "type": "address"
            },
            {
              "internalType": "address payable",
              "name": "publisherTwo",
              "type": "address"
            },
            {
              "internalType": "address",
              "name": "tokenAddress",
              "type": "address"
            },
            {
              "internalType": "uint256",
              "name": "price",
              "type": "uint256"
            },
            {
              "internalType": "uint256",
              "name": "royalty",
              "type": "uint256"
            },
            {
              "internalType": "bool",
              "name": "sold",
              "type": "bool"
            },
            {
              "internalType": "bool",
              "name": "bred",
              "type": "bool"
            }
          ],
          "internalType": "struct NFTMarketplaceStorage.MarketItem[]",
          "name": "",
          "type": "tuple[]"
        }
      ],
      "stateMutability": "view",
      "type": "function"
    },
    {
      "inputs": [],
      "name": "fetchMyNFTs",
      "outputs": [
        {
          "components": [
            {
              "internalType": "uint256",
              "name": "tokenId",
              "type": "uint256"
            },
            {
              "internalType": "address payable",
              "name": "seller",
              "type": "address"
            },
            {
              "internalType": "address payable",
              "name": "owner",
              "type": "address"
            },
            {
              "internalType": "address payable",
              "name": "publisher",
              "type": "address"
            },
            {
              "internalType": "address payable",
              "name": "publisherTwo",
              "type": "address"
            },
            {
              "internalType": "address",
              "name": "tokenAddress",
              "type": "address"
            },
            {
              "internalType": "uint256",
              "name": "price",
              "type": "uint256"
            },
            {
              "internalType": "uint256",
              "name": "royalty",
              "type": "uint256"
            },
            {
              "internalType": "bool",
              "name": "sold",
              "type": "bool"
            },
            {
              "internalType": "bool",
              "name": "bred",
              "type": "bool"
            }
          ],
          "internalType": "struct NFTMarketplaceStorage.MarketItem[]",
          "name": "",
          "type": "tuple[]"
        }
      ],
      "stateMutability": "view",
      "type": "function"
    },
    {
      "inputs": [
        {
          "internalType": "uint256",
          "name": "marketItemId",
          "type": "uint256"
        },
        {
          "internalType": "address",
          "name": "bidder",
          "type": "address"
        }
      ],
      "name": "getItemBid",
      "outputs": [
        {
          "internalType": "uint256",
          "name": "",
          "type": "uint256"
        }
      ],
      "stateMutability": "view",
      "type": "function"
    },
    {
      "inputs": [
        {
          "internalType": "uint256",
          "name": "marketItemId",
          "type": "uint256"
        }
      ],
      "name": "getItemBred",
      "outputs": [
        {
          "internalType": "bool",
          "name": "",
          "type": "bool"
        }
      ],
      "stateMutability": "view",
      "type": "function"
    },
    {
      "inputs": [
        {
          "internalType": "uint256",
          "name": "marketItemId",
          "type": "uint256"
        }
      ],
      "name": "getItemOwner",
      "outputs": [
        {
          "internalType": "address",
          "name": "",
          "type": "address"
        }
      ],
      "stateMutability": "view",
      "type": "function"
    },
    {
      "inputs": [
        {
          "internalType": "uint256",
          "name": "marketItemId",
          "type": "uint256"
        }
      ],
      "name": "getItemPrice",
      "outputs": [
        {
          "internalType": "uint256",
          "name": "",
          "type": "uint256"
        }
      ],
      "stateMutability": "view",
      "type": "function"
    },
    {
      "inputs": [
        {
          "internalType": "uint256",
          "name": "marketItemId",
          "type": "uint256"
        }
      ],
      "name": "getItemPublisherOne",
      "outputs": [
        {
          "internalType": "address",
          "name": "",
          "type": "address"
        }
      ],
      "stateMutability": "view",
      "type": "function"
    },
    {
      "inputs": [
        {
          "internalType": "uint256",
          "name": "marketItemId",
          "type": "uint256"
        }
      ],
      "name": "getItemPublisherTwo",
      "outputs": [
        {
          "internalType": "address",
          "name": "",
          "type": "address"
        }
      ],
      "stateMutability": "view",
      "type": "function"
    },
    {
      "inputs": [
        {
          "internalType": "uint256",
          "name": "marketItemId",
          "type": "uint256"
        }
      ],
      "name": "getItemRoyalty",
      "outputs": [
        {
          "internalType": "uint256",
          "name": "",
          "type": "uint256"
        }
      ],
      "stateMutability": "view",
      "type": "function"
    },
    {
      "inputs": [
        {
          "internalType": "uint256",
          "name": "marketItemId",
          "type": "uint256"
        }
      ],
      "name": "getItemSeller",
      "outputs": [
        {
          "internalType": "address",
          "name": "",
          "type": "address"
        }
      ],
      "stateMutability": "view",
      "type": "function"
    },
    {
      "inputs": [
        {
          "internalType": "uint256",
          "name": "marketItemId",
          "type": "uint256"
        }
      ],
      "name": "getItemTokenId",
      "outputs": [
        {
          "internalType": "uint256",
          "name": "",
          "type": "uint256"
        }
      ],
      "stateMutability": "view",
      "type": "function"
    },
    {
      "inputs": [],
      "name": "owner",
      "outputs": [
        {
          "internalType": "address",
          "name": "",
          "type": "address"
        }
      ],
      "stateMutability": "view",
      "type": "function"
    },
    {
      "inputs": [],
      "name": "renounceOwnership",
      "outputs": [],
      "stateMutability": "nonpayable",
      "type": "function"
    },
    {
      "inputs": [
        {
          "internalType": "address",
          "name": "bidder",
          "type": "address"
        },
        {
          "internalType": "uint256",
          "name": "bid",
          "type": "uint256"
        },
        {
          "internalType": "uint256",
          "name": "marketItemId",
          "type": "uint256"
        }
      ],
      "name": "setItemBid",
      "outputs": [],
      "stateMutability": "nonpayable",
      "type": "function"
    },
    {
      "inputs": [
        {
          "internalType": "uint256",
          "name": "tokenId",
          "type": "uint256"
        },
        {
          "internalType": "address",
          "name": "newOwner",
          "type": "address"
        },
        {
          "internalType": "uint256",
          "name": "price",
          "type": "uint256"
        }
      ],
      "name": "setMarketSale",
      "outputs": [],
      "stateMutability": "nonpayable",
      "type": "function"
    },
    {
      "inputs": [
        {
          "internalType": "address",
          "name": "nftyLazyFactory",
          "type": "address"
        }
      ],
      "name": "setSignerRole",
      "outputs": [],
      "stateMutability": "nonpayable",
      "type": "function"
    },
    {
      "inputs": [
        {
          "internalType": "address",
          "name": "creator",
          "type": "address"
        },
        {
          "internalType": "address",
          "name": "publisherOne",
          "type": "address"
        },
        {
          "internalType": "address",
          "name": "publisherTwo",
          "type": "address"
        },
        {
          "internalType": "uint256",
          "name": "price",
          "type": "uint256"
        },
        {
          "internalType": "uint256",
          "name": "bredRoyaltyValue",
          "type": "uint256"
        }
      ],
      "name": "storeBredItem",
      "outputs": [
        {
          "internalType": "uint256",
          "name": "",
          "type": "uint256"
        }
      ],
      "stateMutability": "nonpayable",
      "type": "function"
    },
    {
      "inputs": [
        {
          "internalType": "uint256",
          "name": "marketItemId",
          "type": "uint256"
        },
        {
          "internalType": "address",
          "name": "owner",
          "type": "address"
        }
      ],
      "name": "storeDelistData",
      "outputs": [],
      "stateMutability": "nonpayable",
      "type": "function"
    },
    {
      "inputs": [
        {
          "internalType": "address",
          "name": "signer",
          "type": "address"
        },
        {
          "internalType": "address",
          "name": "buyer",
          "type": "address"
        },
        {
          "internalType": "uint256",
          "name": "price",
          "type": "uint256"
        },
        {
          "internalType": "uint256",
          "name": "royaltyAmount",
          "type": "uint256"
        }
      ],
      "name": "storeLazyMintedItem",
      "outputs": [
        {
          "internalType": "uint256",
          "name": "",
          "type": "uint256"
        }
      ],
      "stateMutability": "nonpayable",
      "type": "function"
    },
    {
      "inputs": [
        {
          "internalType": "uint256",
          "name": "tokenId",
          "type": "uint256"
        },
        {
          "internalType": "address",
          "name": "seller",
          "type": "address"
        },
        {
          "internalType": "address",
          "name": "royaltyAddress",
          "type": "address"
        },
        {
          "internalType": "uint256",
          "name": "royaltyAmount",
          "type": "uint256"
        },
        {
          "internalType": "uint256",
          "name": "price",
          "type": "uint256"
        },
        {
          "internalType": "address",
          "name": "tokenAddress",
          "type": "address"
        }
      ],
      "name": "storeMarketItem",
      "outputs": [],
      "stateMutability": "nonpayable",
      "type": "function"
    },
    {
      "inputs": [
        {
          "internalType": "uint256",
          "name": "marketItemId",
          "type": "uint256"
        },
        {
          "internalType": "address",
          "name": "owner",
          "type": "address"
        },
        {
          "internalType": "uint256",
          "name": "price",
          "type": "uint256"
        }
      ],
      "name": "storeResellData",
      "outputs": [],
      "stateMutability": "nonpayable",
      "type": "function"
    },
    {
      "inputs": [
        {
          "internalType": "address",
          "name": "newOwner",
          "type": "address"
        }
      ],
      "name": "transferOwnership",
      "outputs": [],
      "stateMutability": "nonpayable",
      "type": "function"
    },
    {
      "inputs": [
        {
          "internalType": "address",
          "name": "bidder",
          "type": "address"
        },
        {
          "internalType": "uint256",
          "name": "marketItemId",
          "type": "uint256"
        }
      ],
      "name": "withdrawItemBid",
      "outputs": [],
      "stateMutability": "nonpayable",
      "type": "function"
    }
  ],
  "bytecode": "0x60806040523480156200001157600080fd5b50604051620038e5380380620038e5833981810160405281019062000037919062000182565b620000576200004b6200009f60201b60201c565b620000a760201b60201c565b80600460006101000a81548173ffffffffffffffffffffffffffffffffffffffff021916908373ffffffffffffffffffffffffffffffffffffffff16021790555050620001fc565b600033905090565b60008060009054906101000a900473ffffffffffffffffffffffffffffffffffffffff169050816000806101000a81548173ffffffffffffffffffffffffffffffffffffffff021916908373ffffffffffffffffffffffffffffffffffffffff1602179055508173ffffffffffffffffffffffffffffffffffffffff168173ffffffffffffffffffffffffffffffffffffffff167f8be0079c531659141344cd1fd0a4f28419497f9722a3daafe3b4186f6b6457e060405160405180910390a35050565b6000815190506200017c81620001e2565b92915050565b6000602082840312156200019557600080fd5b6000620001a5848285016200016b565b91505092915050565b6000620001bb82620001c2565b9050919050565b600073ffffffffffffffffffffffffffffffffffffffff82169050919050565b620001ed81620001ae565b8114620001f957600080fd5b50565b6136d9806200020c6000396000f3fe608060405234801561001057600080fd5b506004361061018e5760003560e01c8063929151c6116100de578063a917f66f11610097578063cf41b05611610071578063cf41b056146104b9578063dbd82b03146104e9578063e8fc9caa14610519578063f2fde38b146105495761018e565b8063a917f66f14610429578063be3791b814610459578063c74292b3146104895761018e565b8063929151c61461035757806398f25289146103875780639e50d61a146103a3578063a1ebf35d146103bf578063a36a6982146103dd578063a785c3901461040d5761018e565b80633e14ba311161014b578063715018a611610125578063715018a6146102e357806383073043146102ed5780638a410b1a146103095780638da5cb5b146103395761018e565b80633e14ba31146102675780634a090dbf146102835780634c4df870146102b35761018e565b80630f08efe0146101935780631d1440fd146101b15780631e5ffb79146101e1578063202e3740146101fd578063249de7521461021b578063370ef45a14610237575b600080fd5b61019b610565565b6040516101a891906132df565b60405180910390f35b6101cb60048036038101906101c69190612e8a565b610973565b6040516101d89190613237565b60405180910390f35b6101fb60048036038101906101f69190612fa1565b6109b3565b005b610205610b32565b60405161021291906132df565b60405180910390f35b61023560048036038101906102309190612e3b565b610f94565b005b610251600480360381019061024c9190612e8a565b61115c565b60405161025e91906133e0565b60405180910390f35b610281600480360381019061027c9190612edc565b61117c565b005b61029d60048036038101906102989190612d9c565b6112df565b6040516102aa91906133e0565b60405180910390f35b6102cd60048036038101906102c89190612e8a565b611668565b6040516102da91906133e0565b60405180910390f35b6102eb611688565b005b61030760048036038101906103029190612fa1565b611710565b005b610323600480360381019061031e9190612cfc565b61188f565b60405161033091906132df565b60405180910390f35b610341611df0565b60405161034e9190613237565b60405180910390f35b610371600480360381019061036c9190612e8a565b611e19565b60405161037e9190613301565b60405180910390f35b6103a1600480360381019061039c9190612cfc565b611e46565b005b6103bd60048036038101906103b89190612dff565b611ed6565b005b6103c7611fac565b6040516103d4919061331c565b60405180910390f35b6103f760048036038101906103f29190612e8a565b611fd0565b60405161040491906133e0565b60405180910390f35b61042760048036038101906104229190612f18565b611ff0565b005b610443600480360381019061043e9190612e8a565b612369565b6040516104509190613237565b60405180910390f35b610473600480360381019061046e9190612d25565b6123a9565b60405161048091906133e0565b60405180910390f35b6104a3600480360381019061049e9190612edc565b612728565b6040516104b091906133e0565b60405180910390f35b6104d360048036038101906104ce9190612e8a565b612783565b6040516104e09190613237565b60405180910390f35b61050360048036038101906104fe9190612e8a565b6127c3565b6040516105109190613237565b60405180910390f35b610533600480360381019061052e9190612dff565b612803565b6040516105409190613301565b60405180910390f35b610563600480360381019061055e9190612cfc565b6128f2565b005b6060600061057360016129ea565b905061058761058260026129ea565b6129f8565b600061059360026129ea565b61059d60016129ea565b6105a7919061349b565b90506000806105b4611df0565b905060008467ffffffffffffffff8111156105f8577f4e487b7100000000000000000000000000000000000000000000000000000000600052604160045260246000fd5b60405190808252806020026020018201604052801561063157816020015b61061e612bf8565b8152602001906001900390816106165790505b50905060005b85811015610967578273ffffffffffffffffffffffffffffffffffffffff16600660006001846106679190613445565b815260200190815260200160002060020160009054906101000a900473ffffffffffffffffffffffffffffffffffffffff1673ffffffffffffffffffffffffffffffffffffffff1614156109545760006001826106c49190613445565b90506106cf816129f8565b6106d8866129f8565b60006006600083815260200190815260200160002090508060405180610140016040529081600082015481526020016001820160009054906101000a900473ffffffffffffffffffffffffffffffffffffffff1673ffffffffffffffffffffffffffffffffffffffff1673ffffffffffffffffffffffffffffffffffffffff1681526020016002820160009054906101000a900473ffffffffffffffffffffffffffffffffffffffff1673ffffffffffffffffffffffffffffffffffffffff1673ffffffffffffffffffffffffffffffffffffffff1681526020016003820160009054906101000a900473ffffffffffffffffffffffffffffffffffffffff1673ffffffffffffffffffffffffffffffffffffffff1673ffffffffffffffffffffffffffffffffffffffff1681526020016004820160009054906101000a900473ffffffffffffffffffffffffffffffffffffffff1673ffffffffffffffffffffffffffffffffffffffff1673ffffffffffffffffffffffffffffffffffffffff1681526020016005820160009054906101000a900473ffffffffffffffffffffffffffffffffffffffff1673ffffffffffffffffffffffffffffffffffffffff1673ffffffffffffffffffffffffffffffffffffffff16815260200160068201548152602001600782015481526020016008820160009054906101000a900460ff161515151581526020016008820160019054906101000a900460ff161515151581525050848781518110610937577f4e487b7100000000000000000000000000000000000000000000000000000000600052603260045260246000fd5b602002602001018190525060018661094f9190613445565b955050505b808061095f90613533565b915050610637565b50809550505050505090565b60006006600083815260200190815260200160002060020160009054906101000a900473ffffffffffffffffffffffffffffffffffffffff169050919050565b6109bb612a91565b73ffffffffffffffffffffffffffffffffffffffff166109d9611df0565b73ffffffffffffffffffffffffffffffffffffffff1614610a2f576040517f08c379a0000000000000000000000000000000000000000000000000000000008152600401610a26906133a0565b60405180910390fd5b610a396002612a99565b816006600085815260200190815260200160002060020160006101000a81548173ffffffffffffffffffffffffffffffffffffffff021916908373ffffffffffffffffffffffffffffffffffffffff16021790555060016006600085815260200190815260200160002060080160006101000a81548160ff021916908315150217905550336006600085815260200190815260200160002060010160006101000a81548173ffffffffffffffffffffffffffffffffffffffff021916908373ffffffffffffffffffffffffffffffffffffffff160217905550806006600085815260200190815260200160002060060181905550505050565b60606000610b4060016129ea565b905060008060005b83811015610be9573373ffffffffffffffffffffffffffffffffffffffff1660066000600184610b789190613445565b815260200190815260200160002060020160009054906101000a900473ffffffffffffffffffffffffffffffffffffffff1673ffffffffffffffffffffffffffffffffffffffff161415610bd657600183610bd39190613445565b92505b8080610be190613533565b915050610b48565b5060008267ffffffffffffffff811115610c2c577f4e487b7100000000000000000000000000000000000000000000000000000000600052604160045260246000fd5b604051908082528060200260200182016040528015610c6557816020015b610c52612bf8565b815260200190600190039081610c4a5790505b50905060005b84811015610f89573373ffffffffffffffffffffffffffffffffffffffff1660066000600184610c9b9190613445565b815260200190815260200160002060020160009054906101000a900473ffffffffffffffffffffffffffffffffffffffff1673ffffffffffffffffffffffffffffffffffffffff161415610f76576000600182610cf89190613445565b905060006006600083815260200190815260200160002090508060405180610140016040529081600082015481526020016001820160009054906101000a900473ffffffffffffffffffffffffffffffffffffffff1673ffffffffffffffffffffffffffffffffffffffff1673ffffffffffffffffffffffffffffffffffffffff1681526020016002820160009054906101000a900473ffffffffffffffffffffffffffffffffffffffff1673ffffffffffffffffffffffffffffffffffffffff1673ffffffffffffffffffffffffffffffffffffffff1681526020016003820160009054906101000a900473ffffffffffffffffffffffffffffffffffffffff1673ffffffffffffffffffffffffffffffffffffffff1673ffffffffffffffffffffffffffffffffffffffff1681526020016004820160009054906101000a900473ffffffffffffffffffffffffffffffffffffffff1673ffffffffffffffffffffffffffffffffffffffff1673ffffffffffffffffffffffffffffffffffffffff1681526020016005820160009054906101000a900473ffffffffffffffffffffffffffffffffffffffff1673ffffffffffffffffffffffffffffffffffffffff1673ffffffffffffffffffffffffffffffffffffffff16815260200160068201548152602001600782015481526020016008820160009054906101000a900460ff161515151581526020016008820160019054906101000a900460ff161515151581525050848681518110610f59577f4e487b7100000000000000000000000000000000000000000000000000000000600052603260045260246000fd5b6020026020010181905250600185610f719190613445565b945050505b8080610f8190613533565b915050610c6b565b508094505050505090565b610f9c612a91565b73ffffffffffffffffffffffffffffffffffffffff16610fba611df0565b73ffffffffffffffffffffffffffffffffffffffff1614611010576040517f08c379a0000000000000000000000000000000000000000000000000000000008152600401611007906133a0565b60405180910390fd5b6000600460009054906101000a900473ffffffffffffffffffffffffffffffffffffffff169050828173ffffffffffffffffffffffffffffffffffffffff166370a08231336040518263ffffffff1660e01b81526004016110719190613237565b60206040518083038186803b15801561108957600080fd5b505afa15801561109d573d6000803e3d6000fd5b505050506040513d601f19601f820116820180604052508101906110c19190612eb3565b11611101576040517f08c379a00000000000000000000000000000000000000000000000000000000081526004016110f8906133c0565b60405180910390fd5b826005600084815260200190815260200160002060008673ffffffffffffffffffffffffffffffffffffffff1673ffffffffffffffffffffffffffffffffffffffff1681526020019081526020016000208190555050505050565b600060066000838152602001908152602001600020600001549050919050565b611184612a91565b73ffffffffffffffffffffffffffffffffffffffff166111a2611df0565b73ffffffffffffffffffffffffffffffffffffffff16146111f8576040517f08c379a00000000000000000000000000000000000000000000000000000000081526004016111ef906133a0565b60405180910390fd5b60016006600084815260200190815260200160002060080160006101000a81548160ff021916908315150217905550336006600084815260200190815260200160002060010160006101000a81548173ffffffffffffffffffffffffffffffffffffffff021916908373ffffffffffffffffffffffffffffffffffffffff160217905550806006600084815260200190815260200160002060020160006101000a81548173ffffffffffffffffffffffffffffffffffffffff021916908373ffffffffffffffffffffffffffffffffffffffff1602179055506112db6002612a99565b5050565b60006112e9612a91565b73ffffffffffffffffffffffffffffffffffffffff16611307611df0565b73ffffffffffffffffffffffffffffffffffffffff161461135d576040517f08c379a0000000000000000000000000000000000000000000000000000000008152600401611354906133a0565b60405180910390fd5b6113676001612a99565b6113716002612a99565b600061137d60016129ea565b90506040518061014001604052808281526020018773ffffffffffffffffffffffffffffffffffffffff1681526020018673ffffffffffffffffffffffffffffffffffffffff1681526020018773ffffffffffffffffffffffffffffffffffffffff1681526020018773ffffffffffffffffffffffffffffffffffffffff1681526020013373ffffffffffffffffffffffffffffffffffffffff16815260200185815260200184815260200160011515815260200160001515815250600660008381526020019081526020016000206000820151816000015560208201518160010160006101000a81548173ffffffffffffffffffffffffffffffffffffffff021916908373ffffffffffffffffffffffffffffffffffffffff16021790555060408201518160020160006101000a81548173ffffffffffffffffffffffffffffffffffffffff021916908373ffffffffffffffffffffffffffffffffffffffff16021790555060608201518160030160006101000a81548173ffffffffffffffffffffffffffffffffffffffff021916908373ffffffffffffffffffffffffffffffffffffffff16021790555060808201518160040160006101000a81548173ffffffffffffffffffffffffffffffffffffffff021916908373ffffffffffffffffffffffffffffffffffffffff16021790555060a08201518160050160006101000a81548173ffffffffffffffffffffffffffffffffffffffff021916908373ffffffffffffffffffffffffffffffffffffffff16021790555060c0820151816006015560e082015181600701556101008201518160080160006101000a81548160ff0219169083151502179055506101208201518160080160016101000a81548160ff021916908315150217905550905050807f862b935210c9bfb60f9133da3b3c9d525016de4b1d75c2682abb92fa96ea219d8787898a338a8a6001600060405161165499989796959493929190613252565b60405180910390a280915050949350505050565b600060066000838152602001908152602001600020600601549050919050565b611690612a91565b73ffffffffffffffffffffffffffffffffffffffff166116ae611df0565b73ffffffffffffffffffffffffffffffffffffffff1614611704576040517f08c379a00000000000000000000000000000000000000000000000000000000081526004016116fb906133a0565b60405180910390fd5b61170e6000612aaf565b565b611718612a91565b73ffffffffffffffffffffffffffffffffffffffff16611736611df0565b73ffffffffffffffffffffffffffffffffffffffff161461178c576040517f08c379a0000000000000000000000000000000000000000000000000000000008152600401611783906133a0565b60405180910390fd5b60006006600085815260200190815260200160002060080160006101000a81548160ff021916908315150217905550806006600085815260200190815260200160002060060181905550816006600085815260200190815260200160002060010160006101000a81548173ffffffffffffffffffffffffffffffffffffffff021916908373ffffffffffffffffffffffffffffffffffffffff160217905550336006600085815260200190815260200160002060020160006101000a81548173ffffffffffffffffffffffffffffffffffffffff021916908373ffffffffffffffffffffffffffffffffffffffff16021790555061188a6002612b73565b505050565b6060600061189d60016129ea565b905060008060006118ac611df0565b905060005b848110156119ca573373ffffffffffffffffffffffffffffffffffffffff16600660006001846118e19190613445565b815260200190815260200160002060010160009054906101000a900473ffffffffffffffffffffffffffffffffffffffff1673ffffffffffffffffffffffffffffffffffffffff1614806119a257508173ffffffffffffffffffffffffffffffffffffffff16600660006001846119589190613445565b815260200190815260200160002060020160009054906101000a900473ffffffffffffffffffffffffffffffffffffffff1673ffffffffffffffffffffffffffffffffffffffff16145b156119b7576001846119b49190613445565b93505b80806119c290613533565b9150506118b1565b5060008367ffffffffffffffff811115611a0d577f4e487b7100000000000000000000000000000000000000000000000000000000600052604160045260246000fd5b604051908082528060200260200182016040528015611a4657816020015b611a33612bf8565b815260200190600190039081611a2b5790505b50905060005b85811015611de2573373ffffffffffffffffffffffffffffffffffffffff1660066000600184611a7c9190613445565b815260200190815260200160002060010160009054906101000a900473ffffffffffffffffffffffffffffffffffffffff1673ffffffffffffffffffffffffffffffffffffffff161480611b3d57508273ffffffffffffffffffffffffffffffffffffffff1660066000600184611af39190613445565b815260200190815260200160002060020160009054906101000a900473ffffffffffffffffffffffffffffffffffffffff1673ffffffffffffffffffffffffffffffffffffffff16145b15611dcf576000600182611b519190613445565b905060006006600083815260200190815260200160002090508060405180610140016040529081600082015481526020016001820160009054906101000a900473ffffffffffffffffffffffffffffffffffffffff1673ffffffffffffffffffffffffffffffffffffffff1673ffffffffffffffffffffffffffffffffffffffff1681526020016002820160009054906101000a900473ffffffffffffffffffffffffffffffffffffffff1673ffffffffffffffffffffffffffffffffffffffff1673ffffffffffffffffffffffffffffffffffffffff1681526020016003820160009054906101000a900473ffffffffffffffffffffffffffffffffffffffff1673ffffffffffffffffffffffffffffffffffffffff1673ffffffffffffffffffffffffffffffffffffffff1681526020016004820160009054906101000a900473ffffffffffffffffffffffffffffffffffffffff1673ffffffffffffffffffffffffffffffffffffffff1673ffffffffffffffffffffffffffffffffffffffff1681526020016005820160009054906101000a900473ffffffffffffffffffffffffffffffffffffffff1673ffffffffffffffffffffffffffffffffffffffff1673ffffffffffffffffffffffffffffffffffffffff16815260200160068201548152602001600782015481526020016008820160009054906101000a900460ff161515151581526020016008820160019054906101000a900460ff161515151581525050848781518110611db2577f4e487b7100000000000000000000000000000000000000000000000000000000600052603260045260246000fd5b6020026020010181905250600186611dca9190613445565b955050505b8080611dda90613533565b915050611a4c565b508095505050505050919050565b60008060009054906101000a900473ffffffffffffffffffffffffffffffffffffffff16905090565b60006006600083815260200190815260200160002060080160019054906101000a900460ff169050919050565b8073ffffffffffffffffffffffffffffffffffffffff16632f2ff15d7fe2f4eaae4a9751e85a3e4a7b9587827a877f29914755229b07a7b2da98285f70336040518363ffffffff1660e01b8152600401611ea1929190613337565b600060405180830381600087803b158015611ebb57600080fd5b505af1158015611ecf573d6000803e3d6000fd5b5050505050565b611ede612a91565b73ffffffffffffffffffffffffffffffffffffffff16611efc611df0565b73ffffffffffffffffffffffffffffffffffffffff1614611f52576040517f08c379a0000000000000000000000000000000000000000000000000000000008152600401611f49906133a0565b60405180910390fd5b60006005600083815260200190815260200160002060008473ffffffffffffffffffffffffffffffffffffffff1673ffffffffffffffffffffffffffffffffffffffff168152602001908152602001600020819055505050565b7fe2f4eaae4a9751e85a3e4a7b9587827a877f29914755229b07a7b2da98285f7081565b600060066000838152602001908152602001600020600701549050919050565b611ff8612a91565b73ffffffffffffffffffffffffffffffffffffffff16612016611df0565b73ffffffffffffffffffffffffffffffffffffffff161461206c576040517f08c379a0000000000000000000000000000000000000000000000000000000008152600401612063906133a0565b60405180910390fd5b6120766001612a99565b600061208260016129ea565b90506040518061014001604052808281526020018773ffffffffffffffffffffffffffffffffffffffff1681526020013373ffffffffffffffffffffffffffffffffffffffff1681526020018673ffffffffffffffffffffffffffffffffffffffff1681526020018673ffffffffffffffffffffffffffffffffffffffff1681526020018373ffffffffffffffffffffffffffffffffffffffff16815260200184815260200185815260200160001515815260200160001515815250600660008381526020019081526020016000206000820151816000015560208201518160010160006101000a81548173ffffffffffffffffffffffffffffffffffffffff021916908373ffffffffffffffffffffffffffffffffffffffff16021790555060408201518160020160006101000a81548173ffffffffffffffffffffffffffffffffffffffff021916908373ffffffffffffffffffffffffffffffffffffffff16021790555060608201518160030160006101000a81548173ffffffffffffffffffffffffffffffffffffffff021916908373ffffffffffffffffffffffffffffffffffffffff16021790555060808201518160040160006101000a81548173ffffffffffffffffffffffffffffffffffffffff021916908373ffffffffffffffffffffffffffffffffffffffff16021790555060a08201518160050160006101000a81548173ffffffffffffffffffffffffffffffffffffffff021916908373ffffffffffffffffffffffffffffffffffffffff16021790555060c0820151816006015560e082015181600701556101008201518160080160006101000a81548160ff0219169083151502179055506101208201518160080160016101000a81548160ff021916908315150217905550905050807f862b935210c9bfb60f9133da3b3c9d525016de4b1d75c2682abb92fa96ea219d8733888987898b60008060405161235899989796959493929190613252565b60405180910390a250505050505050565b60006006600083815260200190815260200160002060010160009054906101000a900473ffffffffffffffffffffffffffffffffffffffff169050919050565b60006123b3612a91565b73ffffffffffffffffffffffffffffffffffffffff166123d1611df0565b73ffffffffffffffffffffffffffffffffffffffff1614612427576040517f08c379a000000000000000000000000000000000000000000000000000000000815260040161241e906133a0565b60405180910390fd5b6124316001612a99565b600061243d60016129ea565b90506040518061014001604052808281526020018873ffffffffffffffffffffffffffffffffffffffff1681526020018873ffffffffffffffffffffffffffffffffffffffff1681526020018773ffffffffffffffffffffffffffffffffffffffff1681526020018673ffffffffffffffffffffffffffffffffffffffff1681526020013373ffffffffffffffffffffffffffffffffffffffff16815260200185815260200184815260200160011515815260200160011515815250600660008381526020019081526020016000206000820151816000015560208201518160010160006101000a81548173ffffffffffffffffffffffffffffffffffffffff021916908373ffffffffffffffffffffffffffffffffffffffff16021790555060408201518160020160006101000a81548173ffffffffffffffffffffffffffffffffffffffff021916908373ffffffffffffffffffffffffffffffffffffffff16021790555060608201518160030160006101000a81548173ffffffffffffffffffffffffffffffffffffffff021916908373ffffffffffffffffffffffffffffffffffffffff16021790555060808201518160040160006101000a81548173ffffffffffffffffffffffffffffffffffffffff021916908373ffffffffffffffffffffffffffffffffffffffff16021790555060a08201518160050160006101000a81548173ffffffffffffffffffffffffffffffffffffffff021916908373ffffffffffffffffffffffffffffffffffffffff16021790555060c0820151816006015560e082015181600701556101008201518160080160006101000a81548160ff0219169083151502179055506101208201518160080160016101000a81548160ff021916908315150217905550905050807f862b935210c9bfb60f9133da3b3c9d525016de4b1d75c2682abb92fa96ea219d88898989338a8a60018060405161271399989796959493929190613252565b60405180910390a28091505095945050505050565b60006005600084815260200190815260200160002060008373ffffffffffffffffffffffffffffffffffffffff1673ffffffffffffffffffffffffffffffffffffffff16815260200190815260200160002054905092915050565b60006006600083815260200190815260200160002060030160009054906101000a900473ffffffffffffffffffffffffffffffffffffffff169050919050565b60006006600083815260200190815260200160002060040160009054906101000a900473ffffffffffffffffffffffffffffffffffffffff169050919050565b60008061281060016129ea565b905060008060005b838110156128e35785600660006001846128329190613445565b8152602001908152602001600020600001541480156128be57508673ffffffffffffffffffffffffffffffffffffffff16600660006001846128749190613445565b815260200190815260200160002060050160009054906101000a900473ffffffffffffffffffffffffffffffffffffffff1673ffffffffffffffffffffffffffffffffffffffff16145b156128d05760019450505050506128ec565b80806128db90613533565b915050612818565b50600093505050505b92915050565b6128fa612a91565b73ffffffffffffffffffffffffffffffffffffffff16612918611df0565b73ffffffffffffffffffffffffffffffffffffffff161461296e576040517f08c379a0000000000000000000000000000000000000000000000000000000008152600401612965906133a0565b60405180910390fd5b600073ffffffffffffffffffffffffffffffffffffffff168173ffffffffffffffffffffffffffffffffffffffff1614156129de576040517f08c379a00000000000000000000000000000000000000000000000000000000081526004016129d590613380565b60405180910390fd5b6129e781612aaf565b50565b600081600001549050919050565b612a8e81604051602401612a0c91906133e0565b6040516020818303038152906040527ff5b1bba9000000000000000000000000000000000000000000000000000000007bffffffffffffffffffffffffffffffffffffffffffffffffffffffff19166020820180517bffffffffffffffffffffffffffffffffffffffffffffffffffffffff8381831617835250505050612bcf565b50565b600033905090565b6001816000016000828254019250508190555050565b60008060009054906101000a900473ffffffffffffffffffffffffffffffffffffffff169050816000806101000a81548173ffffffffffffffffffffffffffffffffffffffff021916908373ffffffffffffffffffffffffffffffffffffffff1602179055508173ffffffffffffffffffffffffffffffffffffffff168173ffffffffffffffffffffffffffffffffffffffff167f8be0079c531659141344cd1fd0a4f28419497f9722a3daafe3b4186f6b6457e060405160405180910390a35050565b60008160000154905060008111612bbf576040517f08c379a0000000000000000000000000000000000000000000000000000000008152600401612bb690613360565b60405180910390fd5b6001810382600001819055505050565b60008151905060006a636f6e736f6c652e6c6f679050602083016000808483855afa5050505050565b60405180610140016040528060008152602001600073ffffffffffffffffffffffffffffffffffffffff168152602001600073ffffffffffffffffffffffffffffffffffffffff168152602001600073ffffffffffffffffffffffffffffffffffffffff168152602001600073ffffffffffffffffffffffffffffffffffffffff168152602001600073ffffffffffffffffffffffffffffffffffffffff16815260200160008152602001600081526020016000151581526020016000151581525090565b600081359050612ccc81613675565b92915050565b600081359050612ce18161368c565b92915050565b600081519050612cf68161368c565b92915050565b600060208284031215612d0e57600080fd5b6000612d1c84828501612cbd565b91505092915050565b600080600080600060a08688031215612d3d57600080fd5b6000612d4b88828901612cbd565b9550506020612d5c88828901612cbd565b9450506040612d6d88828901612cbd565b9350506060612d7e88828901612cd2565b9250506080612d8f88828901612cd2565b9150509295509295909350565b60008060008060808587031215612db257600080fd5b6000612dc087828801612cbd565b9450506020612dd187828801612cbd565b9350506040612de287828801612cd2565b9250506060612df387828801612cd2565b91505092959194509250565b60008060408385031215612e1257600080fd5b6000612e2085828601612cbd565b9250506020612e3185828601612cd2565b9150509250929050565b600080600060608486031215612e5057600080fd5b6000612e5e86828701612cbd565b9350506020612e6f86828701612cd2565b9250506040612e8086828701612cd2565b9150509250925092565b600060208284031215612e9c57600080fd5b6000612eaa84828501612cd2565b91505092915050565b600060208284031215612ec557600080fd5b6000612ed384828501612ce7565b91505092915050565b60008060408385031215612eef57600080fd5b6000612efd85828601612cd2565b9250506020612f0e85828601612cbd565b9150509250929050565b60008060008060008060c08789031215612f3157600080fd5b6000612f3f89828a01612cd2565b9650506020612f5089828a01612cbd565b9550506040612f6189828a01612cbd565b9450506060612f7289828a01612cd2565b9350506080612f8389828a01612cd2565b92505060a0612f9489828a01612cbd565b9150509295509295509295565b600080600060608486031215612fb657600080fd5b6000612fc486828701612cd2565b9350506020612fd586828701612cbd565b9250506040612fe686828701612cd2565b9150509250925092565b6000612ffc838361314d565b6101408301905092915050565b613012816134e1565b82525050565b613021816134cf565b82525050565b613030816134cf565b82525050565b60006130418261340b565b61304b8185613423565b9350613056836133fb565b8060005b8381101561308757815161306e8882612ff0565b975061307983613416565b92505060018101905061305a565b5085935050505092915050565b61309d816134f3565b82525050565b6130ac816134f3565b82525050565b6130bb816134ff565b82525050565b60006130ce601b83613434565b91506130d9826135ab565b602082019050919050565b60006130f1602683613434565b91506130fc826135d4565b604082019050919050565b6000613114602083613434565b915061311f82613623565b602082019050919050565b6000613137601a83613434565b91506131428261364c565b602082019050919050565b610140820160008201516131646000850182613219565b5060208201516131776020850182613009565b50604082015161318a6040850182613009565b50606082015161319d6060850182613009565b5060808201516131b06080850182613009565b5060a08201516131c360a0850182613018565b5060c08201516131d660c0850182613219565b5060e08201516131e960e0850182613219565b506101008201516131fe610100850182613094565b50610120820151613213610120850182613094565b50505050565b61322281613529565b82525050565b61323181613529565b82525050565b600060208201905061324c6000830184613027565b92915050565b600061012082019050613268600083018c613027565b613275602083018b613027565b613282604083018a613027565b61328f6060830189613027565b61329c6080830188613027565b6132a960a0830187613228565b6132b660c0830186613228565b6132c360e08301856130a3565b6132d16101008301846130a3565b9a9950505050505050505050565b600060208201905081810360008301526132f98184613036565b905092915050565b600060208201905061331660008301846130a3565b92915050565b600060208201905061333160008301846130b2565b92915050565b600060408201905061334c60008301856130b2565b6133596020830184613027565b9392505050565b60006020820190508181036000830152613379816130c1565b9050919050565b60006020820190508181036000830152613399816130e4565b9050919050565b600060208201905081810360008301526133b981613107565b9050919050565b600060208201905081810360008301526133d98161312a565b9050919050565b60006020820190506133f56000830184613228565b92915050565b6000819050602082019050919050565b600081519050919050565b6000602082019050919050565b600082825260208201905092915050565b600082825260208201905092915050565b600061345082613529565b915061345b83613529565b9250827fffffffffffffffffffffffffffffffffffffffffffffffffffffffffffffffff038211156134905761348f61357c565b5b828201905092915050565b60006134a682613529565b91506134b183613529565b9250828210156134c4576134c361357c565b5b828203905092915050565b60006134da82613509565b9050919050565b60006134ec82613509565b9050919050565b60008115159050919050565b6000819050919050565b600073ffffffffffffffffffffffffffffffffffffffff82169050919050565b6000819050919050565b600061353e82613529565b91507fffffffffffffffffffffffffffffffffffffffffffffffffffffffffffffffff8214156135715761357061357c565b5b600182019050919050565b7f4e487b7100000000000000000000000000000000000000000000000000000000600052601160045260246000fd5b7f436f756e7465723a2064656372656d656e74206f766572666c6f770000000000600082015250565b7f4f776e61626c653a206e6577206f776e657220697320746865207a65726f206160008201527f6464726573730000000000000000000000000000000000000000000000000000602082015250565b7f4f776e61626c653a2063616c6c6572206973206e6f7420746865206f776e6572600082015250565b7f596f7520646f6e2774206861766520656e6f7567682057455448000000000000600082015250565b61367e816134cf565b811461368957600080fd5b50565b61369581613529565b81146136a057600080fd5b5056fea264697066735822122074d05ae5b565c54327d3941d6dfe4789e3f95c0048ce8c2342dd938e4eac552364736f6c63430008040033",
  "linkReferences": {},
  "deployedLinkReferences": {}
}