{
  "_format": "hh-sol-artifact-1",
  "contractName": "NFTMarketplace",
  "sourceName": "contracts/NFTMarketplace.sol",
  "abi": [
    {
      "inputs": [],
      "stateMutability": "nonpayable",
      "type": "constructor"
    },
    {
      "anonymous": false,
      "inputs": [
        {
          "indexed": true,
          "internalType": "address",
          "name": "owner",
          "type": "address"
        },
        {
          "indexed": true,
          "internalType": "address",
          "name": "approved",
          "type": "address"
        },
        {
          "indexed": true,
          "internalType": "uint256",
          "name": "tokenId",
          "type": "uint256"
        }
      ],
      "name": "Approval",
      "type": "event"
    },
    {
      "anonymous": false,
      "inputs": [
        {
          "indexed": true,
          "internalType": "address",
          "name": "owner",
          "type": "address"
        },
        {
          "indexed": true,
          "internalType": "address",
          "name": "operator",
          "type": "address"
        },
        {
          "indexed": false,
          "internalType": "bool",
          "name": "approved",
          "type": "bool"
        }
      ],
      "name": "ApprovalForAll",
      "type": "event"
    },
    {
      "anonymous": false,
      "inputs": [
        {
          "indexed": true,
          "internalType": "uint256",
          "name": "tokenId",
          "type": "uint256"
        },
        {
          "indexed": false,
          "internalType": "address",
          "name": "galleryAddress",
          "type": "address"
        },
        {
          "indexed": false,
          "internalType": "address",
          "name": "seller",
          "type": "address"
        },
        {
          "indexed": false,
          "internalType": "address",
          "name": "owner",
          "type": "address"
        },
        {
          "indexed": false,
          "internalType": "address",
          "name": "publisher",
          "type": "address"
        },
        {
          "indexed": false,
          "internalType": "uint256",
          "name": "price",
          "type": "uint256"
        },
        {
          "indexed": false,
          "internalType": "uint256",
          "name": "royalty",
          "type": "uint256"
        },
        {
          "indexed": false,
          "internalType": "bool",
          "name": "sold",
          "type": "bool"
        }
      ],
      "name": "MarketItemCreated",
      "type": "event"
    },
    {
      "anonymous": false,
      "inputs": [
        {
          "indexed": true,
          "internalType": "address",
          "name": "from",
          "type": "address"
        },
        {
          "indexed": true,
          "internalType": "address",
          "name": "to",
          "type": "address"
        },
        {
          "indexed": true,
          "internalType": "uint256",
          "name": "tokenId",
          "type": "uint256"
        }
      ],
      "name": "Transfer",
      "type": "event"
    },
    {
      "anonymous": false,
      "inputs": [
        {
          "indexed": false,
          "internalType": "address",
          "name": "",
          "type": "address"
        },
        {
          "indexed": false,
          "internalType": "uint256",
          "name": "",
          "type": "uint256"
        }
      ],
      "name": "received",
      "type": "event"
    },
    {
      "inputs": [
        {
          "internalType": "address",
          "name": "to",
          "type": "address"
        },
        {
          "internalType": "uint256",
          "name": "tokenId",
          "type": "uint256"
        }
      ],
      "name": "approve",
      "outputs": [],
      "stateMutability": "nonpayable",
      "type": "function"
    },
    {
      "inputs": [
        {
          "internalType": "address",
          "name": "owner",
          "type": "address"
        }
      ],
      "name": "balanceOf",
      "outputs": [
        {
          "internalType": "uint256",
          "name": "",
          "type": "uint256"
        }
      ],
      "stateMutability": "view",
      "type": "function"
    },
    {
      "inputs": [
        {
          "internalType": "address",
          "name": "galleryAddress",
          "type": "address"
        },
        {
          "internalType": "uint256",
          "name": "tokenId",
          "type": "uint256"
        },
        {
          "internalType": "uint256",
          "name": "price",
          "type": "uint256"
        },
        {
          "internalType": "uint256",
          "name": "royaltyValue",
          "type": "uint256"
        }
      ],
      "name": "createMarketItem",
      "outputs": [],
      "stateMutability": "payable",
      "type": "function"
    },
    {
      "inputs": [
        {
          "internalType": "uint256",
          "name": "tokenId",
          "type": "uint256"
        }
      ],
      "name": "createMarketSale",
      "outputs": [],
      "stateMutability": "payable",
      "type": "function"
    },
    {
      "inputs": [
        {
          "internalType": "address",
          "name": "galleryAddress",
          "type": "address"
        },
        {
          "internalType": "string",
          "name": "tokenUri",
          "type": "string"
        },
        {
          "internalType": "uint256",
          "name": "price",
          "type": "uint256"
        },
        {
          "internalType": "uint256",
          "name": "artworkId",
          "type": "uint256"
        },
        {
          "internalType": "uint256",
          "name": "royaltyValue",
          "type": "uint256"
        },
        {
          "internalType": "address",
          "name": "signer",
          "type": "address"
        },
        {
          "internalType": "address",
          "name": "buyer",
          "type": "address"
        }
      ],
      "name": "createOwnedToken",
      "outputs": [
        {
          "internalType": "uint256",
          "name": "",
          "type": "uint256"
        }
      ],
      "stateMutability": "payable",
      "type": "function"
    },
    {
      "inputs": [
        {
          "internalType": "address",
          "name": "galleryAddress",
          "type": "address"
        },
        {
          "internalType": "uint256",
          "name": "tokenId",
          "type": "uint256"
        },
        {
          "internalType": "uint256",
          "name": "price",
          "type": "uint256"
        },
        {
          "internalType": "uint256",
          "name": "royaltyValue",
          "type": "uint256"
        }
      ],
      "name": "createToken",
      "outputs": [
        {
          "internalType": "uint256",
          "name": "",
          "type": "uint256"
        }
      ],
      "stateMutability": "payable",
      "type": "function"
    },
    {
      "inputs": [
        {
          "internalType": "uint256",
          "name": "tokenId",
          "type": "uint256"
        }
      ],
      "name": "delistToken",
      "outputs": [],
      "stateMutability": "payable",
      "type": "function"
    },
    {
      "inputs": [],
      "name": "fetchItemsListed",
      "outputs": [
        {
          "components": [
            {
              "internalType": "uint256",
              "name": "tokenId",
              "type": "uint256"
            },
            {
              "internalType": "address",
              "name": "galleryAddress",
              "type": "address"
            },
            {
              "internalType": "address payable",
              "name": "seller",
              "type": "address"
            },
            {
              "internalType": "address payable",
              "name": "owner",
              "type": "address"
            },
            {
              "internalType": "address payable",
              "name": "publisher",
              "type": "address"
            },
            {
              "internalType": "uint256",
              "name": "price",
              "type": "uint256"
            },
            {
              "internalType": "uint256",
              "name": "royalty",
              "type": "uint256"
            },
            {
              "internalType": "bool",
              "name": "sold",
              "type": "bool"
            }
          ],
          "internalType": "struct NFTMarketplace.MarketItem[]",
          "name": "",
          "type": "tuple[]"
        }
      ],
      "stateMutability": "view",
      "type": "function"
    },
    {
      "inputs": [],
      "name": "fetchMarketItems",
      "outputs": [
        {
          "components": [
            {
              "internalType": "uint256",
              "name": "tokenId",
              "type": "uint256"
            },
            {
              "internalType": "address",
              "name": "galleryAddress",
              "type": "address"
            },
            {
              "internalType": "address payable",
              "name": "seller",
              "type": "address"
            },
            {
              "internalType": "address payable",
              "name": "owner",
              "type": "address"
            },
            {
              "internalType": "address payable",
              "name": "publisher",
              "type": "address"
            },
            {
              "internalType": "uint256",
              "name": "price",
              "type": "uint256"
            },
            {
              "internalType": "uint256",
              "name": "royalty",
              "type": "uint256"
            },
            {
              "internalType": "bool",
              "name": "sold",
              "type": "bool"
            }
          ],
          "internalType": "struct NFTMarketplace.MarketItem[]",
          "name": "",
          "type": "tuple[]"
        }
      ],
      "stateMutability": "view",
      "type": "function"
    },
    {
      "inputs": [],
      "name": "fetchMyNFTs",
      "outputs": [
        {
          "components": [
            {
              "internalType": "uint256",
              "name": "tokenId",
              "type": "uint256"
            },
            {
              "internalType": "address",
              "name": "galleryAddress",
              "type": "address"
            },
            {
              "internalType": "address payable",
              "name": "seller",
              "type": "address"
            },
            {
              "internalType": "address payable",
              "name": "owner",
              "type": "address"
            },
            {
              "internalType": "address payable",
              "name": "publisher",
              "type": "address"
            },
            {
              "internalType": "uint256",
              "name": "price",
              "type": "uint256"
            },
            {
              "internalType": "uint256",
              "name": "royalty",
              "type": "uint256"
            },
            {
              "internalType": "bool",
              "name": "sold",
              "type": "bool"
            }
          ],
          "internalType": "struct NFTMarketplace.MarketItem[]",
          "name": "",
          "type": "tuple[]"
        }
      ],
      "stateMutability": "view",
      "type": "function"
    },
    {
      "inputs": [
        {
          "internalType": "uint256",
          "name": "tokenId",
          "type": "uint256"
        }
      ],
      "name": "getApproved",
      "outputs": [
        {
          "internalType": "address",
          "name": "",
          "type": "address"
        }
      ],
      "stateMutability": "view",
      "type": "function"
    },
    {
      "inputs": [],
      "name": "getListingPrice",
      "outputs": [
        {
          "internalType": "uint256",
          "name": "",
          "type": "uint256"
        }
      ],
      "stateMutability": "view",
      "type": "function"
    },
    {
      "inputs": [
        {
          "internalType": "address",
          "name": "owner",
          "type": "address"
        },
        {
          "internalType": "address",
          "name": "operator",
          "type": "address"
        }
      ],
      "name": "isApprovedForAll",
      "outputs": [
        {
          "internalType": "bool",
          "name": "",
          "type": "bool"
        }
      ],
      "stateMutability": "view",
      "type": "function"
    },
    {
      "inputs": [],
      "name": "name",
      "outputs": [
        {
          "internalType": "string",
          "name": "",
          "type": "string"
        }
      ],
      "stateMutability": "view",
      "type": "function"
    },
    {
      "inputs": [
        {
          "internalType": "uint256",
          "name": "tokenId",
          "type": "uint256"
        }
      ],
      "name": "ownerOf",
      "outputs": [
        {
          "internalType": "address",
          "name": "",
          "type": "address"
        }
      ],
      "stateMutability": "view",
      "type": "function"
    },
    {
      "inputs": [
        {
          "internalType": "uint256",
          "name": "tokenId",
          "type": "uint256"
        },
        {
          "internalType": "uint256",
          "name": "price",
          "type": "uint256"
        }
      ],
      "name": "resellToken",
      "outputs": [],
      "stateMutability": "payable",
      "type": "function"
    },
    {
      "inputs": [
        {
          "internalType": "address",
          "name": "from",
          "type": "address"
        },
        {
          "internalType": "address",
          "name": "to",
          "type": "address"
        },
        {
          "internalType": "uint256",
          "name": "tokenId",
          "type": "uint256"
        }
      ],
      "name": "safeTransferFrom",
      "outputs": [],
      "stateMutability": "nonpayable",
      "type": "function"
    },
    {
      "inputs": [
        {
          "internalType": "address",
          "name": "from",
          "type": "address"
        },
        {
          "internalType": "address",
          "name": "to",
          "type": "address"
        },
        {
          "internalType": "uint256",
          "name": "tokenId",
          "type": "uint256"
        },
        {
          "internalType": "bytes",
          "name": "_data",
          "type": "bytes"
        }
      ],
      "name": "safeTransferFrom",
      "outputs": [],
      "stateMutability": "nonpayable",
      "type": "function"
    },
    {
      "inputs": [
        {
          "internalType": "address",
          "name": "operator",
          "type": "address"
        },
        {
          "internalType": "bool",
          "name": "approved",
          "type": "bool"
        }
      ],
      "name": "setApprovalForAll",
      "outputs": [],
      "stateMutability": "nonpayable",
      "type": "function"
    },
    {
      "inputs": [
        {
          "internalType": "bytes4",
          "name": "interfaceId",
          "type": "bytes4"
        }
      ],
      "name": "supportsInterface",
      "outputs": [
        {
          "internalType": "bool",
          "name": "",
          "type": "bool"
        }
      ],
      "stateMutability": "view",
      "type": "function"
    },
    {
      "inputs": [],
      "name": "symbol",
      "outputs": [
        {
          "internalType": "string",
          "name": "",
          "type": "string"
        }
      ],
      "stateMutability": "view",
      "type": "function"
    },
    {
      "inputs": [
        {
          "internalType": "uint256",
          "name": "tokenId",
          "type": "uint256"
        }
      ],
      "name": "tokenURI",
      "outputs": [
        {
          "internalType": "string",
          "name": "",
          "type": "string"
        }
      ],
      "stateMutability": "view",
      "type": "function"
    },
    {
      "inputs": [
        {
          "internalType": "address",
          "name": "from",
          "type": "address"
        },
        {
          "internalType": "address",
          "name": "to",
          "type": "address"
        },
        {
          "internalType": "uint256",
          "name": "tokenId",
          "type": "uint256"
        }
      ],
      "name": "transferFrom",
      "outputs": [],
      "stateMutability": "nonpayable",
      "type": "function"
    },
    {
      "inputs": [
        {
          "internalType": "uint256",
          "name": "_listingPrice",
          "type": "uint256"
        }
      ],
      "name": "updateListingPrice",
      "outputs": [],
      "stateMutability": "payable",
      "type": "function"
    },
    {
      "stateMutability": "payable",
      "type": "receive"
    }
  ],
  "bytecode": "0x608060405264174876e800600a553480156200001a57600080fd5b506040518060400160405280601081526020017f4e66747954756e657320546f6b656e73000000000000000000000000000000008152506040518060400160405280600481526020017f4e4654590000000000000000000000000000000000000000000000000000000081525081600090805190602001906200009f9291906200010a565b508060019080519060200190620000b89291906200010a565b505050600160078190555033600b60006101000a81548173ffffffffffffffffffffffffffffffffffffffff021916908373ffffffffffffffffffffffffffffffffffffffff1602179055506200021f565b8280546200011890620001ba565b90600052602060002090601f0160209004810192826200013c576000855562000188565b82601f106200015757805160ff191683800117855562000188565b8280016001018555821562000188579182015b82811115620001875782518255916020019190600101906200016a565b5b5090506200019791906200019b565b5090565b5b80821115620001b65760008160009055506001016200019c565b5090565b60006002820490506001821680620001d357607f821691505b60208210811415620001ea57620001e9620001f0565b5b50919050565b7f4e487b7100000000000000000000000000000000000000000000000000000000600052602260045260246000fd5b614fd1806200022f6000396000f3fe60806040526004361061014f5760003560e01c8063599ba234116100b6578063b88d4fde1161006f578063b88d4fde146104c6578063be9af536146104ef578063bed659bc1461050b578063c87b56dd14610527578063e219fc7514610564578063e985e9c5146105805761018f565b8063599ba234146103c05780636352211e146103dc57806370a082311461041957806395d89b4114610456578063a22cb46514610481578063ae677aa3146104aa5761018f565b806312e855851161010857806312e85585146102bd578063202e3740146102e857806323b872dd146103135780633b4289631461033c57806342842e0e1461036c57806345f8fa80146103955761018f565b806301ffc9a71461019457806306846dd7146101d157806306fdde0314610201578063081812fc1461022c578063095ea7b3146102695780630f08efe0146102925761018f565b3661018f577ff11e547d796cc64acdf758e7cee90439494fd886a19159454aa61e473fdbafef333460405161018592919061408e565b60405180910390a1005b600080fd5b3480156101a057600080fd5b506101bb60048036038101906101b69190613939565b6105bd565b6040516101c891906140d9565b60405180910390f35b6101eb60048036038101906101e691906137e4565b61069f565b6040516101f89190614416565b60405180910390f35b34801561020d57600080fd5b50610216610949565b60405161022391906140f4565b60405180910390f35b34801561023857600080fd5b50610253600480360381019061024e919061398b565b6109db565b6040516102609190613f81565b60405180910390f35b34801561027557600080fd5b50610290600480360381019061028b919061389a565b610a60565b005b34801561029e57600080fd5b506102a7610b78565b6040516102b491906140b7565b60405180910390f35b3480156102c957600080fd5b506102d2610ee4565b6040516102df9190614416565b60405180910390f35b3480156102f457600080fd5b506102fd610eee565b60405161030a91906140b7565b60405180910390f35b34801561031f57600080fd5b5061033a600480360381019061033591906136de565b6112df565b005b610356600480360381019061035191906138d6565b61133f565b6040516103639190614416565b60405180910390f35b34801561037857600080fd5b50610393600480360381019061038e91906136de565b6113e0565b005b3480156103a157600080fd5b506103aa611400565b6040516103b791906140b7565b60405180910390f35b6103da60048036038101906103d591906138d6565b6117f1565b005b3480156103e857600080fd5b5061040360048036038101906103fe919061398b565b611ae5565b6040516104109190613f81565b60405180910390f35b34801561042557600080fd5b50610440600480360381019061043b9190613679565b611b97565b60405161044d9190614416565b60405180910390f35b34801561046257600080fd5b5061046b611c4f565b60405161047891906140f4565b60405180910390f35b34801561048d57600080fd5b506104a860048036038101906104a391906137a8565b611ce1565b005b6104c460048036038101906104bf919061398b565b611cf7565b005b3480156104d257600080fd5b506104ed60048036038101906104e8919061372d565b611d91565b005b6105096004803603810190610504919061398b565b611df3565b005b6105256004803603810190610520919061398b565b6120ec565b005b34801561053357600080fd5b5061054e6004803603810190610549919061398b565b612281565b60405161055b91906140f4565b60405180910390f35b61057e600480360381019061057991906139b4565b6123d3565b005b34801561058c57600080fd5b506105a760048036038101906105a291906136a2565b6125c8565b6040516105b491906140d9565b60405180910390f35b60007f80ac58cd000000000000000000000000000000000000000000000000000000007bffffffffffffffffffffffffffffffffffffffffffffffffffffffff1916827bffffffffffffffffffffffffffffffffffffffffffffffffffffffff1916148061068857507f5b5e139f000000000000000000000000000000000000000000000000000000007bffffffffffffffffffffffffffffffffffffffffffffffffffffffff1916827bffffffffffffffffffffffffffffffffffffffffffffffffffffffff1916145b8061069857506106978261265c565b5b9050919050565b60006106ab60086126c6565b60006106b760086126dc565b90506106c384826126ea565b6106cd81896128c4565b6106d8843383612938565b80600d6000888152602001908152602001600020819055506040518061010001604052808281526020018a73ffffffffffffffffffffffffffffffffffffffff1681526020018573ffffffffffffffffffffffffffffffffffffffff1681526020013373ffffffffffffffffffffffffffffffffffffffff1681526020018573ffffffffffffffffffffffffffffffffffffffff16815260200188815260200186815260200160011515815250600c60008381526020019081526020016000206000820151816000015560208201518160010160006101000a81548173ffffffffffffffffffffffffffffffffffffffff021916908373ffffffffffffffffffffffffffffffffffffffff16021790555060408201518160020160006101000a81548173ffffffffffffffffffffffffffffffffffffffff021916908373ffffffffffffffffffffffffffffffffffffffff16021790555060608201518160030160006101000a81548173ffffffffffffffffffffffffffffffffffffffff021916908373ffffffffffffffffffffffffffffffffffffffff16021790555060808201518160040160006101000a81548173ffffffffffffffffffffffffffffffffffffffff021916908373ffffffffffffffffffffffffffffffffffffffff16021790555060a0820151816005015560c0820151816006015560e08201518160070160006101000a81548160ff021916908315150217905550905050807fd2d96840c07180d82205d4a828d49ebfb08cafe6ef3bea1c4c3197ab085425aa8a8633888c8b60016040516109329796959493929190613f9c565b60405180910390a280915050979650505050505050565b60606000805461095890614711565b80601f016020809104026020016040519081016040528092919081815260200182805461098490614711565b80156109d15780601f106109a6576101008083540402835291602001916109d1565b820191906000526020600020905b8154815290600101906020018083116109b457829003601f168201915b5050505050905090565b60006109e682612b9f565b610a25576040517f08c379a0000000000000000000000000000000000000000000000000000000008152600401610a1c90614316565b60405180910390fd5b6004600083815260200190815260200160002060009054906101000a900473ffffffffffffffffffffffffffffffffffffffff169050919050565b6000610a6b82611ae5565b90508073ffffffffffffffffffffffffffffffffffffffff168373ffffffffffffffffffffffffffffffffffffffff161415610adc576040517f08c379a0000000000000000000000000000000000000000000000000000000008152600401610ad390614356565b60405180910390fd5b8073ffffffffffffffffffffffffffffffffffffffff16610afb612c0b565b73ffffffffffffffffffffffffffffffffffffffff161480610b2a5750610b2981610b24612c0b565b6125c8565b5b610b69576040517f08c379a0000000000000000000000000000000000000000000000000000000008152600401610b6090614216565b60405180910390fd5b610b738383612c13565b505050565b60606000610b8660086126dc565b90506000610b9460096126dc565b610b9e60086126dc565b610ba89190614615565b90506000808267ffffffffffffffff811115610bed577f4e487b7100000000000000000000000000000000000000000000000000000000600052604160045260246000fd5b604051908082528060200260200182016040528015610c2657816020015b610c136133fe565b815260200190600190039081610c0b5790505b50905060005b84811015610ed9573073ffffffffffffffffffffffffffffffffffffffff16600c6000600184610c5c9190614534565b815260200190815260200160002060030160009054906101000a900473ffffffffffffffffffffffffffffffffffffffff1673ffffffffffffffffffffffffffffffffffffffff161415610ec6576000600182610cb99190614534565b90506000600c600083815260200190815260200160002090508060405180610100016040529081600082015481526020016001820160009054906101000a900473ffffffffffffffffffffffffffffffffffffffff1673ffffffffffffffffffffffffffffffffffffffff1673ffffffffffffffffffffffffffffffffffffffff1681526020016002820160009054906101000a900473ffffffffffffffffffffffffffffffffffffffff1673ffffffffffffffffffffffffffffffffffffffff1673ffffffffffffffffffffffffffffffffffffffff1681526020016003820160009054906101000a900473ffffffffffffffffffffffffffffffffffffffff1673ffffffffffffffffffffffffffffffffffffffff1673ffffffffffffffffffffffffffffffffffffffff1681526020016004820160009054906101000a900473ffffffffffffffffffffffffffffffffffffffff1673ffffffffffffffffffffffffffffffffffffffff1673ffffffffffffffffffffffffffffffffffffffff16815260200160058201548152602001600682015481526020016007820160009054906101000a900460ff161515151581525050848681518110610ea9577f4e487b7100000000000000000000000000000000000000000000000000000000600052603260045260246000fd5b6020026020010181905250600185610ec19190614534565b945050505b8080610ed190614774565b915050610c2c565b508094505050505090565b6000600a54905090565b60606000610efc60086126dc565b905060008060005b83811015610fa5573373ffffffffffffffffffffffffffffffffffffffff16600c6000600184610f349190614534565b815260200190815260200160002060030160009054906101000a900473ffffffffffffffffffffffffffffffffffffffff1673ffffffffffffffffffffffffffffffffffffffff161415610f9257600183610f8f9190614534565b92505b8080610f9d90614774565b915050610f04565b5060008267ffffffffffffffff811115610fe8577f4e487b7100000000000000000000000000000000000000000000000000000000600052604160045260246000fd5b60405190808252806020026020018201604052801561102157816020015b61100e6133fe565b8152602001906001900390816110065790505b50905060005b848110156112d4573373ffffffffffffffffffffffffffffffffffffffff16600c60006001846110579190614534565b815260200190815260200160002060030160009054906101000a900473ffffffffffffffffffffffffffffffffffffffff1673ffffffffffffffffffffffffffffffffffffffff1614156112c15760006001826110b49190614534565b90506000600c600083815260200190815260200160002090508060405180610100016040529081600082015481526020016001820160009054906101000a900473ffffffffffffffffffffffffffffffffffffffff1673ffffffffffffffffffffffffffffffffffffffff1673ffffffffffffffffffffffffffffffffffffffff1681526020016002820160009054906101000a900473ffffffffffffffffffffffffffffffffffffffff1673ffffffffffffffffffffffffffffffffffffffff1673ffffffffffffffffffffffffffffffffffffffff1681526020016003820160009054906101000a900473ffffffffffffffffffffffffffffffffffffffff1673ffffffffffffffffffffffffffffffffffffffff1673ffffffffffffffffffffffffffffffffffffffff1681526020016004820160009054906101000a900473ffffffffffffffffffffffffffffffffffffffff1673ffffffffffffffffffffffffffffffffffffffff1673ffffffffffffffffffffffffffffffffffffffff16815260200160058201548152602001600682015481526020016007820160009054906101000a900460ff1615151515815250508486815181106112a4577f4e487b7100000000000000000000000000000000000000000000000000000000600052603260045260246000fd5b60200260200101819052506001856112bc9190614534565b945050505b80806112cc90614774565b915050611027565b508094505050505090565b6112f06112ea612c0b565b82612ccc565b61132f576040517f08c379a000000000000000000000000000000000000000000000000000000000815260040161132690614396565b60405180910390fd5b61133a838383612938565b505050565b600061134b60086126c6565b600061135760086126dc565b90508573ffffffffffffffffffffffffffffffffffffffff166323b872dd3330886040518463ffffffff1660e01b81526004016113969392919061400b565b600060405180830381600087803b1580156113b057600080fd5b505af11580156113c4573d6000803e3d6000fd5b505050506113d4868286866117f1565b80915050949350505050565b6113fb83838360405180602001604052806000815250611d91565b505050565b6060600061140e60086126dc565b905060008060005b838110156114b7573373ffffffffffffffffffffffffffffffffffffffff16600c60006001846114469190614534565b815260200190815260200160002060020160009054906101000a900473ffffffffffffffffffffffffffffffffffffffff1673ffffffffffffffffffffffffffffffffffffffff1614156114a4576001836114a19190614534565b92505b80806114af90614774565b915050611416565b5060008267ffffffffffffffff8111156114fa577f4e487b7100000000000000000000000000000000000000000000000000000000600052604160045260246000fd5b60405190808252806020026020018201604052801561153357816020015b6115206133fe565b8152602001906001900390816115185790505b50905060005b848110156117e6573373ffffffffffffffffffffffffffffffffffffffff16600c60006001846115699190614534565b815260200190815260200160002060020160009054906101000a900473ffffffffffffffffffffffffffffffffffffffff1673ffffffffffffffffffffffffffffffffffffffff1614156117d35760006001826115c69190614534565b90506000600c600083815260200190815260200160002090508060405180610100016040529081600082015481526020016001820160009054906101000a900473ffffffffffffffffffffffffffffffffffffffff1673ffffffffffffffffffffffffffffffffffffffff1673ffffffffffffffffffffffffffffffffffffffff1681526020016002820160009054906101000a900473ffffffffffffffffffffffffffffffffffffffff1673ffffffffffffffffffffffffffffffffffffffff1673ffffffffffffffffffffffffffffffffffffffff1681526020016003820160009054906101000a900473ffffffffffffffffffffffffffffffffffffffff1673ffffffffffffffffffffffffffffffffffffffff1673ffffffffffffffffffffffffffffffffffffffff1681526020016004820160009054906101000a900473ffffffffffffffffffffffffffffffffffffffff1673ffffffffffffffffffffffffffffffffffffffff1673ffffffffffffffffffffffffffffffffffffffff16815260200160058201548152602001600682015481526020016007820160009054906101000a900460ff1615151515815250508486815181106117b6577f4e487b7100000000000000000000000000000000000000000000000000000000600052603260045260246000fd5b60200260200101819052506001856117ce9190614534565b945050505b80806117de90614774565b915050611539565b508094505050505090565b60026007541415611837576040517f08c379a000000000000000000000000000000000000000000000000000000000815260040161182e906143d6565b60405180910390fd5b600260078190555060008211611882576040517f08c379a0000000000000000000000000000000000000000000000000000000008152600401611879906143f6565b60405180910390fd5b6040518061010001604052808481526020018573ffffffffffffffffffffffffffffffffffffffff1681526020013373ffffffffffffffffffffffffffffffffffffffff1681526020013073ffffffffffffffffffffffffffffffffffffffff1681526020013373ffffffffffffffffffffffffffffffffffffffff16815260200183815260200182815260200160001515815250600c60008581526020019081526020016000206000820151816000015560208201518160010160006101000a81548173ffffffffffffffffffffffffffffffffffffffff021916908373ffffffffffffffffffffffffffffffffffffffff16021790555060408201518160020160006101000a81548173ffffffffffffffffffffffffffffffffffffffff021916908373ffffffffffffffffffffffffffffffffffffffff16021790555060608201518160030160006101000a81548173ffffffffffffffffffffffffffffffffffffffff021916908373ffffffffffffffffffffffffffffffffffffffff16021790555060808201518160040160006101000a81548173ffffffffffffffffffffffffffffffffffffffff021916908373ffffffffffffffffffffffffffffffffffffffff16021790555060a0820151816005015560c0820151816006015560e08201518160070160006101000a81548160ff021916908315150217905550905050611a92333085612938565b827fd2d96840c07180d82205d4a828d49ebfb08cafe6ef3bea1c4c3197ab085425aa8533303387876000604051611acf9796959493929190613f9c565b60405180910390a2600160078190555050505050565b6000806002600084815260200190815260200160002060009054906101000a900473ffffffffffffffffffffffffffffffffffffffff169050600073ffffffffffffffffffffffffffffffffffffffff168173ffffffffffffffffffffffffffffffffffffffff161415611b8e576040517f08c379a0000000000000000000000000000000000000000000000000000000008152600401611b8590614256565b60405180910390fd5b80915050919050565b60008073ffffffffffffffffffffffffffffffffffffffff168273ffffffffffffffffffffffffffffffffffffffff161415611c08576040517f08c379a0000000000000000000000000000000000000000000000000000000008152600401611bff90614236565b60405180910390fd5b600360008373ffffffffffffffffffffffffffffffffffffffff1673ffffffffffffffffffffffffffffffffffffffff168152602001908152602001600020549050919050565b606060018054611c5e90614711565b80601f0160208091040260200160405190810160405280929190818152602001828054611c8a90614711565b8015611cd75780601f10611cac57610100808354040283529160200191611cd7565b820191906000526020600020905b815481529060010190602001808311611cba57829003601f168201915b5050505050905090565b611cf3611cec612c0b565b8383612daa565b5050565b3373ffffffffffffffffffffffffffffffffffffffff16600b60009054906101000a900473ffffffffffffffffffffffffffffffffffffffff1673ffffffffffffffffffffffffffffffffffffffff1614611d87576040517f08c379a0000000000000000000000000000000000000000000000000000000008152600401611d7e906143b6565b60405180910390fd5b80600a8190555050565b611da2611d9c612c0b565b83612ccc565b611de1576040517f08c379a0000000000000000000000000000000000000000000000000000000008152600401611dd890614396565b60405180910390fd5b611ded84848484612f17565b50505050565b6000600c600083815260200190815260200160002060050154905060006064600c60008581526020019081526020016000206006015434611e3491906145bb565b611e3e919061458a565b90506000600c600085815260200190815260200160002060020160009054906101000a900473ffffffffffffffffffffffffffffffffffffffff169050823414611ebd576040517f08c379a0000000000000000000000000000000000000000000000000000000008152600401611eb490614296565b60405180910390fd5b33600c600086815260200190815260200160002060030160006101000a81548173ffffffffffffffffffffffffffffffffffffffff021916908373ffffffffffffffffffffffffffffffffffffffff1602179055506001600c600086815260200190815260200160002060070160006101000a81548160ff0219169083151502179055506000600c600086815260200190815260200160002060020160006101000a81548173ffffffffffffffffffffffffffffffffffffffff021916908373ffffffffffffffffffffffffffffffffffffffff160217905550611fa160096126c6565b611fac303386612938565b600b60009054906101000a900473ffffffffffffffffffffffffffffffffffffffff1673ffffffffffffffffffffffffffffffffffffffff166108fc600a549081150290604051600060405180830381858888f19350505050158015612016573d6000803e3d6000fd5b50600c600085815260200190815260200160002060040160009054906101000a900473ffffffffffffffffffffffffffffffffffffffff1673ffffffffffffffffffffffffffffffffffffffff166108fc839081150290604051600060405180830381858888f19350505050158015612093573d6000803e3d6000fd5b508073ffffffffffffffffffffffffffffffffffffffff166108fc83346120ba9190614615565b9081150290604051600060405180830381858888f193505050501580156120e5573d6000803e3d6000fd5b5050505050565b3373ffffffffffffffffffffffffffffffffffffffff16600c600083815260200190815260200160002060020160009054906101000a900473ffffffffffffffffffffffffffffffffffffffff1673ffffffffffffffffffffffffffffffffffffffff1614612190576040517f08c379a0000000000000000000000000000000000000000000000000000000008152600401612187906141d6565b60405180910390fd5b6001600c600083815260200190815260200160002060070160006101000a81548160ff02191690831515021790555030600c600083815260200190815260200160002060020160006101000a81548173ffffffffffffffffffffffffffffffffffffffff021916908373ffffffffffffffffffffffffffffffffffffffff16021790555033600c600083815260200190815260200160002060030160006101000a81548173ffffffffffffffffffffffffffffffffffffffff021916908373ffffffffffffffffffffffffffffffffffffffff16021790555061227360096126c6565b61227e303383612938565b50565b606061228c82612b9f565b6122cb576040517f08c379a00000000000000000000000000000000000000000000000000000000081526004016122c2906142d6565b60405180910390fd5b60006006600084815260200190815260200160002080546122eb90614711565b80601f016020809104026020016040519081016040528092919081815260200182805461231790614711565b80156123645780601f1061233957610100808354040283529160200191612364565b820191906000526020600020905b81548152906001019060200180831161234757829003601f168201915b505050505090506000612375612f73565b905060008151141561238b5781925050506123ce565b6000825111156123c05780826040516020016123a8929190613f5d565b604051602081830303815290604052925050506123ce565b6123c984612f8a565b925050505b919050565b3373ffffffffffffffffffffffffffffffffffffffff16600c600084815260200190815260200160002060030160009054906101000a900473ffffffffffffffffffffffffffffffffffffffff1673ffffffffffffffffffffffffffffffffffffffff1614612477576040517f08c379a000000000000000000000000000000000000000000000000000000000815260040161246e906142f6565b60405180910390fd5b600a5434146124bb576040517f08c379a00000000000000000000000000000000000000000000000000000000081526004016124b290614376565b60405180910390fd5b6000600c600084815260200190815260200160002060070160006101000a81548160ff02191690831515021790555080600c60008481526020019081526020016000206005018190555033600c600084815260200190815260200160002060020160006101000a81548173ffffffffffffffffffffffffffffffffffffffff021916908373ffffffffffffffffffffffffffffffffffffffff16021790555030600c600084815260200190815260200160002060030160006101000a81548173ffffffffffffffffffffffffffffffffffffffff021916908373ffffffffffffffffffffffffffffffffffffffff1602179055506125b96009613031565b6125c4333084612938565b5050565b6000600560008473ffffffffffffffffffffffffffffffffffffffff1673ffffffffffffffffffffffffffffffffffffffff16815260200190815260200160002060008373ffffffffffffffffffffffffffffffffffffffff1673ffffffffffffffffffffffffffffffffffffffff16815260200190815260200160002060009054906101000a900460ff16905092915050565b60007f01ffc9a7000000000000000000000000000000000000000000000000000000007bffffffffffffffffffffffffffffffffffffffffffffffffffffffff1916827bffffffffffffffffffffffffffffffffffffffffffffffffffffffff1916149050919050565b6001816000016000828254019250508190555050565b600081600001549050919050565b600073ffffffffffffffffffffffffffffffffffffffff168273ffffffffffffffffffffffffffffffffffffffff16141561275a576040517f08c379a0000000000000000000000000000000000000000000000000000000008152600401612751906142b6565b60405180910390fd5b61276381612b9f565b156127a3576040517f08c379a000000000000000000000000000000000000000000000000000000000815260040161279a90614176565b60405180910390fd5b6127af6000838361308d565b6001600360008473ffffffffffffffffffffffffffffffffffffffff1673ffffffffffffffffffffffffffffffffffffffff16815260200190815260200160002060008282546127ff9190614534565b92505081905550816002600083815260200190815260200160002060006101000a81548173ffffffffffffffffffffffffffffffffffffffff021916908373ffffffffffffffffffffffffffffffffffffffff160217905550808273ffffffffffffffffffffffffffffffffffffffff16600073ffffffffffffffffffffffffffffffffffffffff167fddf252ad1be2c89b69c2b068fc378daa952ba7f163c4a11628f55a4df523b3ef60405160405180910390a46128c060008383613092565b5050565b6128cd82612b9f565b61290c576040517f08c379a000000000000000000000000000000000000000000000000000000000815260040161290390614276565b60405180910390fd5b8060066000848152602001908152602001600020908051906020019061293392919061349d565b505050565b8273ffffffffffffffffffffffffffffffffffffffff1661295882611ae5565b73ffffffffffffffffffffffffffffffffffffffff16146129ae576040517f08c379a00000000000000000000000000000000000000000000000000000000081526004016129a590614156565b60405180910390fd5b600073ffffffffffffffffffffffffffffffffffffffff168273ffffffffffffffffffffffffffffffffffffffff161415612a1e576040517f08c379a0000000000000000000000000000000000000000000000000000000008152600401612a1590614196565b60405180910390fd5b612a2983838361308d565b612a34600082612c13565b6001600360008573ffffffffffffffffffffffffffffffffffffffff1673ffffffffffffffffffffffffffffffffffffffff1681526020019081526020016000206000828254612a849190614615565b925050819055506001600360008473ffffffffffffffffffffffffffffffffffffffff1673ffffffffffffffffffffffffffffffffffffffff1681526020019081526020016000206000828254612adb9190614534565b92505081905550816002600083815260200190815260200160002060006101000a81548173ffffffffffffffffffffffffffffffffffffffff021916908373ffffffffffffffffffffffffffffffffffffffff160217905550808273ffffffffffffffffffffffffffffffffffffffff168473ffffffffffffffffffffffffffffffffffffffff167fddf252ad1be2c89b69c2b068fc378daa952ba7f163c4a11628f55a4df523b3ef60405160405180910390a4612b9a838383613092565b505050565b60008073ffffffffffffffffffffffffffffffffffffffff166002600084815260200190815260200160002060009054906101000a900473ffffffffffffffffffffffffffffffffffffffff1673ffffffffffffffffffffffffffffffffffffffff1614159050919050565b600033905090565b816004600083815260200190815260200160002060006101000a81548173ffffffffffffffffffffffffffffffffffffffff021916908373ffffffffffffffffffffffffffffffffffffffff160217905550808273ffffffffffffffffffffffffffffffffffffffff16612c8683611ae5565b73ffffffffffffffffffffffffffffffffffffffff167f8c5be1e5ebec7d5bd14f71427d1e84f3dd0314c0f7b2291e5b200ac8c7c3b92560405160405180910390a45050565b6000612cd782612b9f565b612d16576040517f08c379a0000000000000000000000000000000000000000000000000000000008152600401612d0d906141f6565b60405180910390fd5b6000612d2183611ae5565b90508073ffffffffffffffffffffffffffffffffffffffff168473ffffffffffffffffffffffffffffffffffffffff161480612d9057508373ffffffffffffffffffffffffffffffffffffffff16612d78846109db565b73ffffffffffffffffffffffffffffffffffffffff16145b80612da15750612da081856125c8565b5b91505092915050565b8173ffffffffffffffffffffffffffffffffffffffff168373ffffffffffffffffffffffffffffffffffffffff161415612e19576040517f08c379a0000000000000000000000000000000000000000000000000000000008152600401612e10906141b6565b60405180910390fd5b80600560008573ffffffffffffffffffffffffffffffffffffffff1673ffffffffffffffffffffffffffffffffffffffff16815260200190815260200160002060008473ffffffffffffffffffffffffffffffffffffffff1673ffffffffffffffffffffffffffffffffffffffff16815260200190815260200160002060006101000a81548160ff0219169083151502179055508173ffffffffffffffffffffffffffffffffffffffff168373ffffffffffffffffffffffffffffffffffffffff167f17307eab39ab6107e8899845ad3d59bd9653f200f220920489ca2b5937696c3183604051612f0a91906140d9565b60405180910390a3505050565b612f22848484612938565b612f2e84848484613097565b612f6d576040517f08c379a0000000000000000000000000000000000000000000000000000000008152600401612f6490614136565b60405180910390fd5b50505050565b606060405180602001604052806000815250905090565b6060612f9582612b9f565b612fd4576040517f08c379a0000000000000000000000000000000000000000000000000000000008152600401612fcb90614336565b60405180910390fd5b6000612fde612f73565b90506000815111612ffe5760405180602001604052806000815250613029565b806130088461322e565b604051602001613019929190613f5d565b6040516020818303038152906040525b915050919050565b6000816000015490506000811161307d576040517f08c379a000000000000000000000000000000000000000000000000000000000815260040161307490614116565b60405180910390fd5b6001810382600001819055505050565b505050565b505050565b60006130b88473ffffffffffffffffffffffffffffffffffffffff166133db565b15613221578373ffffffffffffffffffffffffffffffffffffffff1663150b7a026130e1612c0b565b8786866040518563ffffffff1660e01b81526004016131039493929190614042565b602060405180830381600087803b15801561311d57600080fd5b505af192505050801561314e57506040513d601f19601f8201168201806040525081019061314b9190613962565b60015b6131d1573d806000811461317e576040519150601f19603f3d011682016040523d82523d6000602084013e613183565b606091505b506000815114156131c9576040517f08c379a00000000000000000000000000000000000000000000000000000000081526004016131c090614136565b60405180910390fd5b805181602001fd5b63150b7a0260e01b7bffffffffffffffffffffffffffffffffffffffffffffffffffffffff1916817bffffffffffffffffffffffffffffffffffffffffffffffffffffffff191614915050613226565b600190505b949350505050565b60606000821415613276576040518060400160405280600181526020017f300000000000000000000000000000000000000000000000000000000000000081525090506133d6565b600082905060005b600082146132a857808061329190614774565b915050600a826132a1919061458a565b915061327e565b60008167ffffffffffffffff8111156132ea577f4e487b7100000000000000000000000000000000000000000000000000000000600052604160045260246000fd5b6040519080825280601f01601f19166020018201604052801561331c5781602001600182028036833780820191505090505b5090505b600085146133cf576001826133359190614615565b9150600a8561334491906147bd565b60306133509190614534565b60f81b81838151811061338c577f4e487b7100000000000000000000000000000000000000000000000000000000600052603260045260246000fd5b60200101907effffffffffffffffffffffffffffffffffffffffffffffffffffffffffffff1916908160001a905350600a856133c8919061458a565b9450613320565b8093505050505b919050565b6000808273ffffffffffffffffffffffffffffffffffffffff163b119050919050565b60405180610100016040528060008152602001600073ffffffffffffffffffffffffffffffffffffffff168152602001600073ffffffffffffffffffffffffffffffffffffffff168152602001600073ffffffffffffffffffffffffffffffffffffffff168152602001600073ffffffffffffffffffffffffffffffffffffffff16815260200160008152602001600081526020016000151581525090565b8280546134a990614711565b90600052602060002090601f0160209004810192826134cb5760008555613512565b82601f106134e457805160ff1916838001178555613512565b82800160010185558215613512579182015b828111156135115782518255916020019190600101906134f6565b5b50905061351f9190613523565b5090565b5b8082111561353c576000816000905550600101613524565b5090565b600061355361354e84614456565b614431565b90508281526020810184848401111561356b57600080fd5b6135768482856146cf565b509392505050565b600061359161358c84614487565b614431565b9050828152602081018484840111156135a957600080fd5b6135b48482856146cf565b509392505050565b6000813590506135cb81614f3f565b92915050565b6000813590506135e081614f56565b92915050565b6000813590506135f581614f6d565b92915050565b60008151905061360a81614f6d565b92915050565b600082601f83011261362157600080fd5b8135613631848260208601613540565b91505092915050565b600082601f83011261364b57600080fd5b813561365b84826020860161357e565b91505092915050565b60008135905061367381614f84565b92915050565b60006020828403121561368b57600080fd5b6000613699848285016135bc565b91505092915050565b600080604083850312156136b557600080fd5b60006136c3858286016135bc565b92505060206136d4858286016135bc565b9150509250929050565b6000806000606084860312156136f357600080fd5b6000613701868287016135bc565b9350506020613712868287016135bc565b925050604061372386828701613664565b9150509250925092565b6000806000806080858703121561374357600080fd5b6000613751878288016135bc565b9450506020613762878288016135bc565b935050604061377387828801613664565b925050606085013567ffffffffffffffff81111561379057600080fd5b61379c87828801613610565b91505092959194509250565b600080604083850312156137bb57600080fd5b60006137c9858286016135bc565b92505060206137da858286016135d1565b9150509250929050565b600080600080600080600060e0888a0312156137ff57600080fd5b600061380d8a828b016135bc565b975050602088013567ffffffffffffffff81111561382a57600080fd5b6138368a828b0161363a565b96505060406138478a828b01613664565b95505060606138588a828b01613664565b94505060806138698a828b01613664565b93505060a061387a8a828b016135bc565b92505060c061388b8a828b016135bc565b91505092959891949750929550565b600080604083850312156138ad57600080fd5b60006138bb858286016135bc565b92505060206138cc85828601613664565b9150509250929050565b600080600080608085870312156138ec57600080fd5b60006138fa878288016135bc565b945050602061390b87828801613664565b935050604061391c87828801613664565b925050606061392d87828801613664565b91505092959194509250565b60006020828403121561394b57600080fd5b6000613959848285016135e6565b91505092915050565b60006020828403121561397457600080fd5b6000613982848285016135fb565b91505092915050565b60006020828403121561399d57600080fd5b60006139ab84828501613664565b91505092915050565b600080604083850312156139c757600080fd5b60006139d585828601613664565b92505060206139e685828601613664565b9150509250929050565b60006139fc8383613e9d565b6101008301905092915050565b613a128161465b565b82525050565b613a2181614649565b82525050565b613a3081614649565b82525050565b6000613a41826144c8565b613a4b81856144f6565b9350613a56836144b8565b8060005b83811015613a87578151613a6e88826139f0565b9750613a79836144e9565b925050600181019050613a5a565b5085935050505092915050565b613a9d8161466d565b82525050565b613aac8161466d565b82525050565b6000613abd826144d3565b613ac78185614507565b9350613ad78185602086016146de565b613ae0816148aa565b840191505092915050565b6000613af6826144de565b613b008185614518565b9350613b108185602086016146de565b613b19816148aa565b840191505092915050565b6000613b2f826144de565b613b398185614529565b9350613b498185602086016146de565b80840191505092915050565b6000613b62601b83614518565b9150613b6d826148bb565b602082019050919050565b6000613b85603283614518565b9150613b90826148e4565b604082019050919050565b6000613ba8602583614518565b9150613bb382614933565b604082019050919050565b6000613bcb601c83614518565b9150613bd682614982565b602082019050919050565b6000613bee602483614518565b9150613bf9826149ab565b604082019050919050565b6000613c11601983614518565b9150613c1c826149fa565b602082019050919050565b6000613c34602b83614518565b9150613c3f82614a23565b604082019050919050565b6000613c57602c83614518565b9150613c6282614a72565b604082019050919050565b6000613c7a603883614518565b9150613c8582614ac1565b604082019050919050565b6000613c9d602a83614518565b9150613ca882614b10565b604082019050919050565b6000613cc0602983614518565b9150613ccb82614b5f565b604082019050919050565b6000613ce3602e83614518565b9150613cee82614bae565b604082019050919050565b6000613d06604083614518565b9150613d1182614bfd565b604082019050919050565b6000613d29602083614518565b9150613d3482614c4c565b602082019050919050565b6000613d4c603183614518565b9150613d5782614c75565b604082019050919050565b6000613d6f602a83614518565b9150613d7a82614cc4565b604082019050919050565b6000613d92602c83614518565b9150613d9d82614d13565b604082019050919050565b6000613db5602f83614518565b9150613dc082614d62565b604082019050919050565b6000613dd8602183614518565b9150613de382614db1565b604082019050919050565b6000613dfb602483614518565b9150613e0682614e00565b604082019050919050565b6000613e1e603183614518565b9150613e2982614e4f565b604082019050919050565b6000613e41603083614518565b9150613e4c82614e9e565b604082019050919050565b6000613e64601f83614518565b9150613e6f82614eed565b602082019050919050565b6000613e87601c83614518565b9150613e9282614f16565b602082019050919050565b61010082016000820151613eb46000850182613f3f565b506020820151613ec76020850182613a18565b506040820151613eda6040850182613a09565b506060820151613eed6060850182613a09565b506080820151613f006080850182613a09565b5060a0820151613f1360a0850182613f3f565b5060c0820151613f2660c0850182613f3f565b5060e0820151613f3960e0850182613a94565b50505050565b613f48816146c5565b82525050565b613f57816146c5565b82525050565b6000613f698285613b24565b9150613f758284613b24565b91508190509392505050565b6000602082019050613f966000830184613a27565b92915050565b600060e082019050613fb1600083018a613a27565b613fbe6020830189613a27565b613fcb6040830188613a27565b613fd86060830187613a27565b613fe56080830186613f4e565b613ff260a0830185613f4e565b613fff60c0830184613aa3565b98975050505050505050565b60006060820190506140206000830186613a27565b61402d6020830185613a27565b61403a6040830184613f4e565b949350505050565b60006080820190506140576000830187613a27565b6140646020830186613a27565b6140716040830185613f4e565b81810360608301526140838184613ab2565b905095945050505050565b60006040820190506140a36000830185613a27565b6140b06020830184613f4e565b9392505050565b600060208201905081810360008301526140d18184613a36565b905092915050565b60006020820190506140ee6000830184613aa3565b92915050565b6000602082019050818103600083015261410e8184613aeb565b905092915050565b6000602082019050818103600083015261412f81613b55565b9050919050565b6000602082019050818103600083015261414f81613b78565b9050919050565b6000602082019050818103600083015261416f81613b9b565b9050919050565b6000602082019050818103600083015261418f81613bbe565b9050919050565b600060208201905081810360008301526141af81613be1565b9050919050565b600060208201905081810360008301526141cf81613c04565b9050919050565b600060208201905081810360008301526141ef81613c27565b9050919050565b6000602082019050818103600083015261420f81613c4a565b9050919050565b6000602082019050818103600083015261422f81613c6d565b9050919050565b6000602082019050818103600083015261424f81613c90565b9050919050565b6000602082019050818103600083015261426f81613cb3565b9050919050565b6000602082019050818103600083015261428f81613cd6565b9050919050565b600060208201905081810360008301526142af81613cf9565b9050919050565b600060208201905081810360008301526142cf81613d1c565b9050919050565b600060208201905081810360008301526142ef81613d3f565b9050919050565b6000602082019050818103600083015261430f81613d62565b9050919050565b6000602082019050818103600083015261432f81613d85565b9050919050565b6000602082019050818103600083015261434f81613da8565b9050919050565b6000602082019050818103600083015261436f81613dcb565b9050919050565b6000602082019050818103600083015261438f81613dee565b9050919050565b600060208201905081810360008301526143af81613e11565b9050919050565b600060208201905081810360008301526143cf81613e34565b9050919050565b600060208201905081810360008301526143ef81613e57565b9050919050565b6000602082019050818103600083015261440f81613e7a565b9050919050565b600060208201905061442b6000830184613f4e565b92915050565b600061443b61444c565b90506144478282614743565b919050565b6000604051905090565b600067ffffffffffffffff8211156144715761447061487b565b5b61447a826148aa565b9050602081019050919050565b600067ffffffffffffffff8211156144a2576144a161487b565b5b6144ab826148aa565b9050602081019050919050565b6000819050602082019050919050565b600081519050919050565b600081519050919050565b600081519050919050565b6000602082019050919050565b600082825260208201905092915050565b600082825260208201905092915050565b600082825260208201905092915050565b600081905092915050565b600061453f826146c5565b915061454a836146c5565b9250827fffffffffffffffffffffffffffffffffffffffffffffffffffffffffffffffff0382111561457f5761457e6147ee565b5b828201905092915050565b6000614595826146c5565b91506145a0836146c5565b9250826145b0576145af61481d565b5b828204905092915050565b60006145c6826146c5565b91506145d1836146c5565b9250817fffffffffffffffffffffffffffffffffffffffffffffffffffffffffffffffff048311821515161561460a576146096147ee565b5b828202905092915050565b6000614620826146c5565b915061462b836146c5565b92508282101561463e5761463d6147ee565b5b828203905092915050565b6000614654826146a5565b9050919050565b6000614666826146a5565b9050919050565b60008115159050919050565b60007fffffffff0000000000000000000000000000000000000000000000000000000082169050919050565b600073ffffffffffffffffffffffffffffffffffffffff82169050919050565b6000819050919050565b82818337600083830152505050565b60005b838110156146fc5780820151818401526020810190506146e1565b8381111561470b576000848401525b50505050565b6000600282049050600182168061472957607f821691505b6020821081141561473d5761473c61484c565b5b50919050565b61474c826148aa565b810181811067ffffffffffffffff8211171561476b5761476a61487b565b5b80604052505050565b600061477f826146c5565b91507fffffffffffffffffffffffffffffffffffffffffffffffffffffffffffffffff8214156147b2576147b16147ee565b5b600182019050919050565b60006147c8826146c5565b91506147d3836146c5565b9250826147e3576147e261481d565b5b828206905092915050565b7f4e487b7100000000000000000000000000000000000000000000000000000000600052601160045260246000fd5b7f4e487b7100000000000000000000000000000000000000000000000000000000600052601260045260246000fd5b7f4e487b7100000000000000000000000000000000000000000000000000000000600052602260045260246000fd5b7f4e487b7100000000000000000000000000000000000000000000000000000000600052604160045260246000fd5b6000601f19601f8301169050919050565b7f436f756e7465723a2064656372656d656e74206f766572666c6f770000000000600082015250565b7f4552433732313a207472616e7366657220746f206e6f6e20455243373231526560008201527f63656976657220696d706c656d656e7465720000000000000000000000000000602082015250565b7f4552433732313a207472616e736665722066726f6d20696e636f72726563742060008201527f6f776e6572000000000000000000000000000000000000000000000000000000602082015250565b7f4552433732313a20746f6b656e20616c7265616479206d696e74656400000000600082015250565b7f4552433732313a207472616e7366657220746f20746865207a65726f2061646460008201527f7265737300000000000000000000000000000000000000000000000000000000602082015250565b7f4552433732313a20617070726f766520746f2063616c6c657200000000000000600082015250565b7f4f6e6c79206974656d2073656c6c65722063616e20706572666f726d2074686960008201527f73206f7065726174696f6e000000000000000000000000000000000000000000602082015250565b7f4552433732313a206f70657261746f7220717565727920666f72206e6f6e657860008201527f697374656e7420746f6b656e0000000000000000000000000000000000000000602082015250565b7f4552433732313a20617070726f76652063616c6c6572206973206e6f74206f7760008201527f6e6572206e6f7220617070726f76656420666f7220616c6c0000000000000000602082015250565b7f4552433732313a2062616c616e636520717565727920666f7220746865207a6560008201527f726f206164647265737300000000000000000000000000000000000000000000602082015250565b7f4552433732313a206f776e657220717565727920666f72206e6f6e657869737460008201527f656e7420746f6b656e0000000000000000000000000000000000000000000000602082015250565b7f45524337323155524953746f726167653a2055524920736574206f66206e6f6e60008201527f6578697374656e7420746f6b656e000000000000000000000000000000000000602082015250565b7f506c65617365207375626d6974207468652061736b696e67207072696365206960008201527f6e206f7264657220746f20636f6d706c65746520746865207075726368617365602082015250565b7f4552433732313a206d696e7420746f20746865207a65726f2061646472657373600082015250565b7f45524337323155524953746f726167653a2055524920717565727920666f722060008201527f6e6f6e6578697374656e7420746f6b656e000000000000000000000000000000602082015250565b7f4f6e6c79206974656d206f776e65722063616e20706572666f726d207468697360008201527f206f7065726174696f6e00000000000000000000000000000000000000000000602082015250565b7f4552433732313a20617070726f76656420717565727920666f72206e6f6e657860008201527f697374656e7420746f6b656e0000000000000000000000000000000000000000602082015250565b7f4552433732314d657461646174613a2055524920717565727920666f72206e6f60008201527f6e6578697374656e7420746f6b656e0000000000000000000000000000000000602082015250565b7f4552433732313a20617070726f76616c20746f2063757272656e74206f776e6560008201527f7200000000000000000000000000000000000000000000000000000000000000602082015250565b7f5072696365206d75737420626520657175616c20746f206c697374696e67207060008201527f7269636500000000000000000000000000000000000000000000000000000000602082015250565b7f4552433732313a207472616e736665722063616c6c6572206973206e6f74206f60008201527f776e6572206e6f7220617070726f766564000000000000000000000000000000602082015250565b7f4f6e6c79206d61726b6574706c616365206f776e65722063616e20757064617460008201527f65206c697374696e672070726963652e00000000000000000000000000000000602082015250565b7f5265656e7472616e637947756172643a207265656e7472616e742063616c6c00600082015250565b7f5072696365206d757374206265206174206c6561737420312077656900000000600082015250565b614f4881614649565b8114614f5357600080fd5b50565b614f5f8161466d565b8114614f6a57600080fd5b50565b614f7681614679565b8114614f8157600080fd5b50565b614f8d816146c5565b8114614f9857600080fd5b5056fea2646970667358221220a8ce3181cfd8f20c46ffa934ed600a326ab9a2a8d4efa37d55d7e9ad636645eb64736f6c63430008040033",
  "linkReferences": {},
  "deployedLinkReferences": {}
}