{
  "_format": "hh-sol-artifact-1",
  "contractName": "NFTMarketplace",
  "sourceName": "contracts/NFTMarketplace.sol",
  "abi": [
    {
      "inputs": [
        {
          "internalType": "address",
          "name": "NFTStorage",
          "type": "address"
        },
        {
          "internalType": "address",
          "name": "_WETH",
          "type": "address"
        }
      ],
      "stateMutability": "nonpayable",
      "type": "constructor"
    },
    {
      "anonymous": false,
      "inputs": [
        {
          "indexed": true,
          "internalType": "address",
          "name": "owner",
          "type": "address"
        },
        {
          "indexed": true,
          "internalType": "address",
          "name": "approved",
          "type": "address"
        },
        {
          "indexed": true,
          "internalType": "uint256",
          "name": "tokenId",
          "type": "uint256"
        }
      ],
      "name": "Approval",
      "type": "event"
    },
    {
      "anonymous": false,
      "inputs": [
        {
          "indexed": true,
          "internalType": "address",
          "name": "owner",
          "type": "address"
        },
        {
          "indexed": true,
          "internalType": "address",
          "name": "operator",
          "type": "address"
        },
        {
          "indexed": false,
          "internalType": "bool",
          "name": "approved",
          "type": "bool"
        }
      ],
      "name": "ApprovalForAll",
      "type": "event"
    },
    {
      "anonymous": false,
      "inputs": [
        {
          "indexed": true,
          "internalType": "address",
          "name": "from",
          "type": "address"
        },
        {
          "indexed": true,
          "internalType": "address",
          "name": "to",
          "type": "address"
        },
        {
          "indexed": true,
          "internalType": "uint256",
          "name": "tokenId",
          "type": "uint256"
        }
      ],
      "name": "Transfer",
      "type": "event"
    },
    {
      "anonymous": false,
      "inputs": [
        {
          "indexed": false,
          "internalType": "address",
          "name": "",
          "type": "address"
        },
        {
          "indexed": false,
          "internalType": "uint256",
          "name": "",
          "type": "uint256"
        }
      ],
      "name": "received",
      "type": "event"
    },
    {
      "inputs": [],
      "name": "SIGNER_ROLE",
      "outputs": [
        {
          "internalType": "bytes32",
          "name": "",
          "type": "bytes32"
        }
      ],
      "stateMutability": "view",
      "type": "function"
    },
    {
      "inputs": [
        {
          "internalType": "address",
          "name": "to",
          "type": "address"
        },
        {
          "internalType": "uint256",
          "name": "tokenId",
          "type": "uint256"
        }
      ],
      "name": "approve",
      "outputs": [],
      "stateMutability": "nonpayable",
      "type": "function"
    },
    {
      "inputs": [
        {
          "internalType": "address",
          "name": "owner",
          "type": "address"
        }
      ],
      "name": "balanceOf",
      "outputs": [
        {
          "internalType": "uint256",
          "name": "",
          "type": "uint256"
        }
      ],
      "stateMutability": "view",
      "type": "function"
    },
    {
      "inputs": [
        {
          "internalType": "uint256",
          "name": "marketItemId",
          "type": "uint256"
        }
      ],
      "name": "createMarketSale",
      "outputs": [],
      "stateMutability": "payable",
      "type": "function"
    },
    {
      "inputs": [
        {
          "internalType": "address",
          "name": "galleryAddress",
          "type": "address"
        },
        {
          "internalType": "string",
          "name": "tokenUri",
          "type": "string"
        },
        {
          "internalType": "uint256",
          "name": "price",
          "type": "uint256"
        },
        {
          "internalType": "uint96",
          "name": "royaltyValue",
          "type": "uint96"
        },
        {
          "internalType": "address",
          "name": "signer",
          "type": "address"
        },
        {
          "internalType": "address",
          "name": "buyer",
          "type": "address"
        }
      ],
      "name": "createOwnedTokenFromLazy",
      "outputs": [],
      "stateMutability": "payable",
      "type": "function"
    },
    {
      "inputs": [
        {
          "internalType": "uint256",
          "name": "marketItemId",
          "type": "uint256"
        }
      ],
      "name": "delistToken",
      "outputs": [],
      "stateMutability": "payable",
      "type": "function"
    },
    {
      "inputs": [
        {
          "internalType": "uint256",
          "name": "tokenId",
          "type": "uint256"
        }
      ],
      "name": "getApproved",
      "outputs": [
        {
          "internalType": "address",
          "name": "",
          "type": "address"
        }
      ],
      "stateMutability": "view",
      "type": "function"
    },
    {
      "inputs": [
        {
          "internalType": "address",
          "name": "owner",
          "type": "address"
        },
        {
          "internalType": "address",
          "name": "operator",
          "type": "address"
        }
      ],
      "name": "isApprovedForAll",
      "outputs": [
        {
          "internalType": "bool",
          "name": "",
          "type": "bool"
        }
      ],
      "stateMutability": "view",
      "type": "function"
    },
    {
      "inputs": [],
      "name": "name",
      "outputs": [
        {
          "internalType": "string",
          "name": "",
          "type": "string"
        }
      ],
      "stateMutability": "view",
      "type": "function"
    },
    {
      "inputs": [
        {
          "internalType": "uint256",
          "name": "tokenId",
          "type": "uint256"
        }
      ],
      "name": "ownerOf",
      "outputs": [
        {
          "internalType": "address",
          "name": "",
          "type": "address"
        }
      ],
      "stateMutability": "view",
      "type": "function"
    },
    {
      "inputs": [
        {
          "internalType": "uint256",
          "name": "tokenId",
          "type": "uint256"
        },
        {
          "internalType": "uint256",
          "name": "price",
          "type": "uint256"
        },
        {
          "internalType": "address",
          "name": "nftContract",
          "type": "address"
        }
      ],
      "name": "resellToken",
      "outputs": [],
      "stateMutability": "payable",
      "type": "function"
    },
    {
      "inputs": [
        {
          "internalType": "uint256",
          "name": "_tokenId",
          "type": "uint256"
        },
        {
          "internalType": "uint256",
          "name": "_salePrice",
          "type": "uint256"
        }
      ],
      "name": "royaltyInfo",
      "outputs": [
        {
          "internalType": "address",
          "name": "",
          "type": "address"
        },
        {
          "internalType": "uint256",
          "name": "",
          "type": "uint256"
        }
      ],
      "stateMutability": "view",
      "type": "function"
    },
    {
      "inputs": [
        {
          "internalType": "address",
          "name": "from",
          "type": "address"
        },
        {
          "internalType": "address",
          "name": "to",
          "type": "address"
        },
        {
          "internalType": "uint256",
          "name": "tokenId",
          "type": "uint256"
        }
      ],
      "name": "safeTransferFrom",
      "outputs": [],
      "stateMutability": "nonpayable",
      "type": "function"
    },
    {
      "inputs": [
        {
          "internalType": "address",
          "name": "from",
          "type": "address"
        },
        {
          "internalType": "address",
          "name": "to",
          "type": "address"
        },
        {
          "internalType": "uint256",
          "name": "tokenId",
          "type": "uint256"
        },
        {
          "internalType": "bytes",
          "name": "_data",
          "type": "bytes"
        }
      ],
      "name": "safeTransferFrom",
      "outputs": [],
      "stateMutability": "nonpayable",
      "type": "function"
    },
    {
      "inputs": [
        {
          "internalType": "address",
          "name": "operator",
          "type": "address"
        },
        {
          "internalType": "bool",
          "name": "approved",
          "type": "bool"
        }
      ],
      "name": "setApprovalForAll",
      "outputs": [],
      "stateMutability": "nonpayable",
      "type": "function"
    },
    {
      "inputs": [
        {
          "internalType": "bytes4",
          "name": "interfaceId",
          "type": "bytes4"
        }
      ],
      "name": "supportsInterface",
      "outputs": [
        {
          "internalType": "bool",
          "name": "",
          "type": "bool"
        }
      ],
      "stateMutability": "view",
      "type": "function"
    },
    {
      "inputs": [],
      "name": "symbol",
      "outputs": [
        {
          "internalType": "string",
          "name": "",
          "type": "string"
        }
      ],
      "stateMutability": "view",
      "type": "function"
    },
    {
      "inputs": [
        {
          "internalType": "uint256",
          "name": "tokenId",
          "type": "uint256"
        }
      ],
      "name": "tokenURI",
      "outputs": [
        {
          "internalType": "string",
          "name": "",
          "type": "string"
        }
      ],
      "stateMutability": "view",
      "type": "function"
    },
    {
      "inputs": [
        {
          "internalType": "address",
          "name": "from",
          "type": "address"
        },
        {
          "internalType": "address",
          "name": "to",
          "type": "address"
        },
        {
          "internalType": "uint256",
          "name": "tokenId",
          "type": "uint256"
        }
      ],
      "name": "transferFrom",
      "outputs": [],
      "stateMutability": "nonpayable",
      "type": "function"
    },
    {
      "inputs": [],
      "name": "withdrawFunds",
      "outputs": [
        {
          "internalType": "bool",
          "name": "",
          "type": "bool"
        }
      ],
      "stateMutability": "payable",
      "type": "function"
    },
    {
      "stateMutability": "payable",
      "type": "receive"
    }
  ],
  "bytecode": "0x60806040526005600a553480156200001657600080fd5b50604051620051e4380380620051e483398181016040528101906200003c919062000276565b6040518060400160405280601081526020017f4e66747954756e657320546f6b656e73000000000000000000000000000000008152506040518060400160405280600481526020017f4e465459000000000000000000000000000000000000000000000000000000008152508160009080519060200190620000c0929190620001af565b508060019080519060200190620000d9929190620001af565b505050600160078190555033600b60006101000a81548173ffffffffffffffffffffffffffffffffffffffff021916908373ffffffffffffffffffffffffffffffffffffffff16021790555081600c60006101000a81548173ffffffffffffffffffffffffffffffffffffffff021916908373ffffffffffffffffffffffffffffffffffffffff16021790555080600d60006101000a81548173ffffffffffffffffffffffffffffffffffffffff021916908373ffffffffffffffffffffffffffffffffffffffff16021790555050506200036a565b828054620001bd90620002eb565b90600052602060002090601f016020900481019282620001e157600085556200022d565b82601f10620001fc57805160ff19168380011785556200022d565b828001600101855582156200022d579182015b828111156200022c5782518255916020019190600101906200020f565b5b5090506200023c919062000240565b5090565b5b808211156200025b57600081600090555060010162000241565b5090565b600081519050620002708162000350565b92915050565b600080604083850312156200028a57600080fd5b60006200029a858286016200025f565b9250506020620002ad858286016200025f565b9150509250929050565b6000620002c482620002cb565b9050919050565b600073ffffffffffffffffffffffffffffffffffffffff82169050919050565b600060028204905060018216806200030457607f821691505b602082108114156200031b576200031a62000321565b5b50919050565b7f4e487b7100000000000000000000000000000000000000000000000000000000600052602260045260246000fd5b6200035b81620002b7565b81146200036757600080fd5b50565b614e6a806200037a6000396000f3fe6080604052600436106101235760003560e01c806395d89b41116100a0578063bed659bc11610064578063bed659bc14610422578063c87b56dd1461043e578063dd10a2b81461047b578063e985e9c514610497578063effaa4a9146104d457610163565b806395d89b411461035e578063a1ebf35d14610389578063a22cb465146103b4578063b88d4fde146103dd578063be9af5361461040657610163565b806324600fc3116100e757806324600fc31461025f5780632a55205a1461027d57806342842e0e146102bb5780636352211e146102e457806370a082311461032157610163565b806301ffc9a71461016857806306fdde03146101a5578063081812fc146101d0578063095ea7b31461020d57806323b872dd1461023657610163565b36610163577ff11e547d796cc64acdf758e7cee90439494fd886a19159454aa61e473fdbafef3334604051610159929190613d43565b60405180910390a1005b600080fd5b34801561017457600080fd5b5061018f600480360381019061018a919061366e565b6104f0565b60405161019c9190613d6c565b60405180910390f35b3480156101b157600080fd5b506101ba610502565b6040516101c79190613da2565b60405180910390f35b3480156101dc57600080fd5b506101f760048036038101906101f291906136c0565b610594565b6040516102049190613c60565b60405180910390f35b34801561021957600080fd5b50610234600480360381019061022f91906135cd565b610619565b005b34801561024257600080fd5b5061025d60048036038101906102589190613426565b610731565b005b610267610791565b6040516102749190613d6c565b60405180910390f35b34801561028957600080fd5b506102a4600480360381019061029f9190613712565b610893565b6040516102b2929190613d43565b60405180910390f35b3480156102c757600080fd5b506102e260048036038101906102dd9190613426565b610a7e565b005b3480156102f057600080fd5b5061030b600480360381019061030691906136c0565b610a9e565b6040516103189190613c60565b60405180910390f35b34801561032d57600080fd5b5061034860048036038101906103439190613398565b610b50565b6040516103559190614124565b60405180910390f35b34801561036a57600080fd5b50610373610c08565b6040516103809190613da2565b60405180910390f35b34801561039557600080fd5b5061039e610c9a565b6040516103ab9190613d87565b60405180910390f35b3480156103c057600080fd5b506103db60048036038101906103d691906134f0565b610cbe565b005b3480156103e957600080fd5b5061040460048036038101906103ff9190613475565b610cd4565b005b610420600480360381019061041b91906136c0565b610d36565b005b61043c600480360381019061043791906136c0565b6116ca565b005b34801561044a57600080fd5b50610465600480360381019061046091906136c0565b61194d565b6040516104729190613da2565b60405180910390f35b6104956004803603810190610490919061374e565b611a9f565b005b3480156104a357600080fd5b506104be60048036038101906104b991906133ea565b611ef0565b6040516104cb9190613d6c565b60405180910390f35b6104ee60048036038101906104e9919061352c565b611f84565b005b60006104fb82612138565b9050919050565b606060008054610511906144f2565b80601f016020809104026020016040519081016040528092919081815260200182805461053d906144f2565b801561058a5780601f1061055f5761010080835404028352916020019161058a565b820191906000526020600020905b81548152906001019060200180831161056d57829003601f168201915b5050505050905090565b600061059f826121b2565b6105de576040517f08c379a00000000000000000000000000000000000000000000000000000000081526004016105d590614004565b60405180910390fd5b6004600083815260200190815260200160002060009054906101000a900473ffffffffffffffffffffffffffffffffffffffff169050919050565b600061062482610a9e565b90508073ffffffffffffffffffffffffffffffffffffffff168373ffffffffffffffffffffffffffffffffffffffff161415610695576040517f08c379a000000000000000000000000000000000000000000000000000000000815260040161068c90614044565b60405180910390fd5b8073ffffffffffffffffffffffffffffffffffffffff166106b461221e565b73ffffffffffffffffffffffffffffffffffffffff1614806106e357506106e2816106dd61221e565b611ef0565b5b610722576040517f08c379a000000000000000000000000000000000000000000000000000000000815260040161071990613ee4565b60405180910390fd5b61072c8383612226565b505050565b61074261073c61221e565b826122df565b610781576040517f08c379a000000000000000000000000000000000000000000000000000000000815260040161077890614064565b60405180910390fd5b61078c8383836123bd565b505050565b60003373ffffffffffffffffffffffffffffffffffffffff16600b60009054906101000a900473ffffffffffffffffffffffffffffffffffffffff1673ffffffffffffffffffffffffffffffffffffffff1614610823576040517f08c379a000000000000000000000000000000000000000000000000000000000815260040161081a90613e64565b60405180910390fd5b600b60009054906101000a900473ffffffffffffffffffffffffffffffffffffffff1673ffffffffffffffffffffffffffffffffffffffff166108fc479081150290604051600060405180830381858888f1935050505015801561088b573d6000803e3d6000fd5b506001905090565b6000806000600960008681526020019081526020016000206040518060400160405290816000820160009054906101000a900473ffffffffffffffffffffffffffffffffffffffff1673ffffffffffffffffffffffffffffffffffffffff1673ffffffffffffffffffffffffffffffffffffffff1681526020016000820160149054906101000a90046bffffffffffffffffffffffff166bffffffffffffffffffffffff166bffffffffffffffffffffffff16815250509050600073ffffffffffffffffffffffffffffffffffffffff16816000015173ffffffffffffffffffffffffffffffffffffffff161415610a295760086040518060400160405290816000820160009054906101000a900473ffffffffffffffffffffffffffffffffffffffff1673ffffffffffffffffffffffffffffffffffffffff1673ffffffffffffffffffffffffffffffffffffffff1681526020016000820160149054906101000a90046bffffffffffffffffffffffff166bffffffffffffffffffffffff166bffffffffffffffffffffffff168152505090505b6000610a33612624565b6bffffffffffffffffffffffff1682602001516bffffffffffffffffffffffff1686610a5f919061437a565b610a699190614349565b90508160000151819350935050509250929050565b610a9983838360405180602001604052806000815250610cd4565b505050565b6000806002600084815260200190815260200160002060009054906101000a900473ffffffffffffffffffffffffffffffffffffffff169050600073ffffffffffffffffffffffffffffffffffffffff168173ffffffffffffffffffffffffffffffffffffffff161415610b47576040517f08c379a0000000000000000000000000000000000000000000000000000000008152600401610b3e90613f44565b60405180910390fd5b80915050919050565b60008073ffffffffffffffffffffffffffffffffffffffff168273ffffffffffffffffffffffffffffffffffffffff161415610bc1576040517f08c379a0000000000000000000000000000000000000000000000000000000008152600401610bb890613f24565b60405180910390fd5b600360008373ffffffffffffffffffffffffffffffffffffffff1673ffffffffffffffffffffffffffffffffffffffff168152602001908152602001600020549050919050565b606060018054610c17906144f2565b80601f0160208091040260200160405190810160405280929190818152602001828054610c43906144f2565b8015610c905780601f10610c6557610100808354040283529160200191610c90565b820191906000526020600020905b815481529060010190602001808311610c7357829003601f168201915b5050505050905090565b7fe2f4eaae4a9751e85a3e4a7b9587827a877f29914755229b07a7b2da98285f7081565b610cd0610cc961221e565b838361262e565b5050565b610ce5610cdf61221e565b836122df565b610d24576040517f08c379a0000000000000000000000000000000000000000000000000000000008152600401610d1b90614064565b60405180910390fd5b610d308484848461279b565b50505050565b6000600c60009054906101000a900473ffffffffffffffffffffffffffffffffffffffff16905060008173ffffffffffffffffffffffffffffffffffffffff1663370ef45a846040518263ffffffff1660e01b8152600401610d989190614124565b60206040518083038186803b158015610db057600080fd5b505afa158015610dc4573d6000803e3d6000fd5b505050506040513d601f19601f82011682018060405250810190610de891906136e9565b905060008273ffffffffffffffffffffffffffffffffffffffff16631d1440fd856040518263ffffffff1660e01b8152600401610e259190614124565b60206040518083038186803b158015610e3d57600080fd5b505afa158015610e51573d6000803e3d6000fd5b505050506040513d601f19601f82011682018060405250810190610e7591906133c1565b905060008373ffffffffffffffffffffffffffffffffffffffff1663a917f66f866040518263ffffffff1660e01b8152600401610eb29190614124565b60206040518083038186803b158015610eca57600080fd5b505afa158015610ede573d6000803e3d6000fd5b505050506040513d601f19601f82011682018060405250810190610f0291906133c1565b905060008473ffffffffffffffffffffffffffffffffffffffff16634c4df870876040518263ffffffff1660e01b8152600401610f3f9190614124565b60206040518083038186803b158015610f5757600080fd5b505afa158015610f6b573d6000803e3d6000fd5b505050506040513d601f19601f82011682018060405250810190610f8f91906136e9565b905060008573ffffffffffffffffffffffffffffffffffffffff1663929151c6886040518263ffffffff1660e01b8152600401610fcc9190614124565b60206040518083038186803b158015610fe457600080fd5b505afa158015610ff8573d6000803e3d6000fd5b505050506040513d601f19601f8201168201806040525081019061101c9190613645565b905060008673ffffffffffffffffffffffffffffffffffffffff1663a36a6982896040518263ffffffff1660e01b81526004016110599190614124565b60206040518083038186803b15801561107157600080fd5b505afa158015611085573d6000803e3d6000fd5b505050506040513d601f19601f820116820180604052508101906110a991906136e9565b905060008773ffffffffffffffffffffffffffffffffffffffff1663cf41b0568a6040518263ffffffff1660e01b81526004016110e69190614124565b60206040518083038186803b1580156110fe57600080fd5b505afa158015611112573d6000803e3d6000fd5b505050506040513d601f19601f8201168201806040525081019061113691906133c1565b905060008873ffffffffffffffffffffffffffffffffffffffff1663dbd82b038b6040518263ffffffff1660e01b81526004016111739190614124565b60206040518083038186803b15801561118b57600080fd5b505afa15801561119f573d6000803e3d6000fd5b505050506040513d601f19601f820116820180604052508101906111c391906133c1565b90506000612710600a54346111d8919061437a565b6111e29190614349565b9050600061271085346111f5919061437a565b6111ff9190614349565b90503073ffffffffffffffffffffffffffffffffffffffff168973ffffffffffffffffffffffffffffffffffffffff161461126f576040517f08c379a0000000000000000000000000000000000000000000000000000000008152600401611266906140a4565b60405180910390fd5b8634146112b1576040517f08c379a00000000000000000000000000000000000000000000000000000000081526004016112a890613fa4565b60405180910390fd5b600015158b73ffffffffffffffffffffffffffffffffffffffff1663fb7236488e6040518263ffffffff1660e01b81526004016112ee9190614124565b60206040518083038186803b15801561130657600080fd5b505afa15801561131a573d6000803e3d6000fd5b505050506040513d601f19601f8201168201806040525081019061133e9190613645565b151514611380576040517f08c379a000000000000000000000000000000000000000000000000000000000815260040161137790613f04565b60405180910390fd5b6000151586151514156114f7578a73ffffffffffffffffffffffffffffffffffffffff16631e5ffb798d33346040518463ffffffff1660e01b81526004016113ca939291906141c9565b600060405180830381600087803b1580156113e457600080fd5b505af11580156113f8573d6000803e3d6000fd5b5050505061140730338c6123bd565b8373ffffffffffffffffffffffffffffffffffffffff166108fc829081150290604051600060405180830381858888f1935050505015801561144d573d6000803e3d6000fd5b503073ffffffffffffffffffffffffffffffffffffffff166108fc839081150290604051600060405180830381858888f19350505050158015611494573d6000803e3d6000fd5b508773ffffffffffffffffffffffffffffffffffffffff166108fc8383346114bc91906143d4565b6114c691906143d4565b9081150290604051600060405180830381858888f193505050501580156114f1573d6000803e3d6000fd5b506116bc565b8a73ffffffffffffffffffffffffffffffffffffffff16631e5ffb798d33346040518463ffffffff1660e01b8152600401611534939291906141c9565b600060405180830381600087803b15801561154e57600080fd5b505af1158015611562573d6000803e3d6000fd5b5050505061157130338c6123bd565b8373ffffffffffffffffffffffffffffffffffffffff166108fc6002836115989190614349565b9081150290604051600060405180830381858888f193505050501580156115c3573d6000803e3d6000fd5b508273ffffffffffffffffffffffffffffffffffffffff166108fc6002836115eb9190614349565b9081150290604051600060405180830381858888f19350505050158015611616573d6000803e3d6000fd5b503073ffffffffffffffffffffffffffffffffffffffff166108fc839081150290604051600060405180830381858888f1935050505015801561165d573d6000803e3d6000fd5b508773ffffffffffffffffffffffffffffffffffffffff166108fc83833461168591906143d4565b61168f91906143d4565b9081150290604051600060405180830381858888f193505050501580156116ba573d6000803e3d6000fd5b505b505050505050505050505050565b60026007541415611710576040517f08c379a000000000000000000000000000000000000000000000000000000000815260040161170790614104565b60405180910390fd5b60026007819055506000600c60009054906101000a900473ffffffffffffffffffffffffffffffffffffffff16905060008173ffffffffffffffffffffffffffffffffffffffff1663a917f66f846040518263ffffffff1660e01b815260040161177a9190614124565b60206040518083038186803b15801561179257600080fd5b505afa1580156117a6573d6000803e3d6000fd5b505050506040513d601f19601f820116820180604052508101906117ca91906133c1565b905060008273ffffffffffffffffffffffffffffffffffffffff1663370ef45a856040518263ffffffff1660e01b81526004016118079190614124565b60206040518083038186803b15801561181f57600080fd5b505afa158015611833573d6000803e3d6000fd5b505050506040513d601f19601f8201168201806040525081019061185791906136e9565b90503373ffffffffffffffffffffffffffffffffffffffff168273ffffffffffffffffffffffffffffffffffffffff16146118c7576040517f08c379a00000000000000000000000000000000000000000000000000000000081526004016118be906140c4565b60405180910390fd5b8273ffffffffffffffffffffffffffffffffffffffff16633e14ba3185336040518363ffffffff1660e01b815260040161190292919061413f565b600060405180830381600087803b15801561191c57600080fd5b505af1158015611930573d6000803e3d6000fd5b5050505061193f3033836123bd565b505050600160078190555050565b6060611958826121b2565b611997576040517f08c379a000000000000000000000000000000000000000000000000000000000815260040161198e90613fe4565b60405180910390fd5b60006006600084815260200190815260200160002080546119b7906144f2565b80601f01602080910402602001604051908101604052809291908181526020018280546119e3906144f2565b8015611a305780601f10611a0557610100808354040283529160200191611a30565b820191906000526020600020905b815481529060010190602001808311611a1357829003601f168201915b505050505090506000611a416127f7565b9050600081511415611a57578192505050611a9a565b600082511115611a8c578082604051602001611a74929190613c3c565b60405160208183030381529060405292505050611a9a565b611a958461280e565b925050505b919050565b3373ffffffffffffffffffffffffffffffffffffffff168173ffffffffffffffffffffffffffffffffffffffff16636352211e856040518263ffffffff1660e01b8152600401611aef9190614124565b60206040518083038186803b158015611b0757600080fd5b505afa158015611b1b573d6000803e3d6000fd5b505050506040513d601f19601f82011682018060405250810190611b3f91906133c1565b73ffffffffffffffffffffffffffffffffffffffff1614611b95576040517f08c379a0000000000000000000000000000000000000000000000000000000008152600401611b8c90613dc4565b60405180910390fd5b60008211611bd8576040517f08c379a0000000000000000000000000000000000000000000000000000000008152600401611bcf90613f84565b60405180910390fd5b6000600c60009054906101000a900473ffffffffffffffffffffffffffffffffffffffff1690508073ffffffffffffffffffffffffffffffffffffffff1663e8fc9caa83866040518363ffffffff1660e01b8152600401611c3a929190613d43565b60206040518083038186803b158015611c5257600080fd5b505afa158015611c66573d6000803e3d6000fd5b505050506040513d601f19601f82011682018060405250810190611c8a9190613645565b15611d72578073ffffffffffffffffffffffffffffffffffffffff1663830730438533866040518463ffffffff1660e01b8152600401611ccc939291906141c9565b600060405180830381600087803b158015611ce657600080fd5b505af1158015611cfa573d6000803e3d6000fd5b505050508173ffffffffffffffffffffffffffffffffffffffff166323b872dd3330876040518463ffffffff1660e01b8152600401611d3b93929190613c7b565b600060405180830381600087803b158015611d5557600080fd5b505af1158015611d69573d6000803e3d6000fd5b50505050611eea565b6000808373ffffffffffffffffffffffffffffffffffffffff16632a55205a87876040518363ffffffff1660e01b8152600401611db0929190614200565b604080518083038186803b158015611dc757600080fd5b505afa158015611ddb573d6000803e3d6000fd5b505050506040513d601f19601f82011682018060405250810190611dff9190613609565b915091508273ffffffffffffffffffffffffffffffffffffffff1663a785c390873385858a8a6040518763ffffffff1660e01b8152600401611e4696959493929190614168565b600060405180830381600087803b158015611e6057600080fd5b505af1158015611e74573d6000803e3d6000fd5b505050508373ffffffffffffffffffffffffffffffffffffffff166323b872dd3330896040518463ffffffff1660e01b8152600401611eb593929190613c7b565b600060405180830381600087803b158015611ecf57600080fd5b505af1158015611ee3573d6000803e3d6000fd5b5050505050505b50505050565b6000600560008473ffffffffffffffffffffffffffffffffffffffff1673ffffffffffffffffffffffffffffffffffffffff16815260200190815260200160002060008373ffffffffffffffffffffffffffffffffffffffff1673ffffffffffffffffffffffffffffffffffffffff16815260200190815260200160002060009054906101000a900460ff16905092915050565b60026007541415611fca576040517f08c379a0000000000000000000000000000000000000000000000000000000008152600401611fc190614104565b60405180910390fd5b60026007819055508573ffffffffffffffffffffffffffffffffffffffff163373ffffffffffffffffffffffffffffffffffffffff1614612040576040517f08c379a000000000000000000000000000000000000000000000000000000000815260040161203790613de4565b60405180910390fd5b6000600c60009054906101000a900473ffffffffffffffffffffffffffffffffffffffff16905060008173ffffffffffffffffffffffffffffffffffffffff16634a090dbf858589896040518563ffffffff1660e01b81526004016120a89493929190613cfe565b602060405180830381600087803b1580156120c257600080fd5b505af11580156120d6573d6000803e3d6000fd5b505050506040513d601f19601f820116820180604052508101906120fa91906136e9565b905061210684826128b5565b6121108188612a8f565b61211b818587612b03565b6121268484836123bd565b50506001600781905550505050505050565b60007f2a55205a000000000000000000000000000000000000000000000000000000007bffffffffffffffffffffffffffffffffffffffffffffffffffffffff1916827bffffffffffffffffffffffffffffffffffffffffffffffffffffffff191614806121ab57506121aa82612cab565b5b9050919050565b60008073ffffffffffffffffffffffffffffffffffffffff166002600084815260200190815260200160002060009054906101000a900473ffffffffffffffffffffffffffffffffffffffff1673ffffffffffffffffffffffffffffffffffffffff1614159050919050565b600033905090565b816004600083815260200190815260200160002060006101000a81548173ffffffffffffffffffffffffffffffffffffffff021916908373ffffffffffffffffffffffffffffffffffffffff160217905550808273ffffffffffffffffffffffffffffffffffffffff1661229983610a9e565b73ffffffffffffffffffffffffffffffffffffffff167f8c5be1e5ebec7d5bd14f71427d1e84f3dd0314c0f7b2291e5b200ac8c7c3b92560405160405180910390a45050565b60006122ea826121b2565b612329576040517f08c379a000000000000000000000000000000000000000000000000000000000815260040161232090613ec4565b60405180910390fd5b600061233483610a9e565b90508073ffffffffffffffffffffffffffffffffffffffff168473ffffffffffffffffffffffffffffffffffffffff1614806123a357508373ffffffffffffffffffffffffffffffffffffffff1661238b84610594565b73ffffffffffffffffffffffffffffffffffffffff16145b806123b457506123b38185611ef0565b5b91505092915050565b8273ffffffffffffffffffffffffffffffffffffffff166123dd82610a9e565b73ffffffffffffffffffffffffffffffffffffffff1614612433576040517f08c379a000000000000000000000000000000000000000000000000000000000815260040161242a90613e24565b60405180910390fd5b600073ffffffffffffffffffffffffffffffffffffffff168273ffffffffffffffffffffffffffffffffffffffff1614156124a3576040517f08c379a000000000000000000000000000000000000000000000000000000000815260040161249a90613e84565b60405180910390fd5b6124ae838383612d8d565b6124b9600082612226565b6001600360008573ffffffffffffffffffffffffffffffffffffffff1673ffffffffffffffffffffffffffffffffffffffff168152602001908152602001600020600082825461250991906143d4565b925050819055506001600360008473ffffffffffffffffffffffffffffffffffffffff1673ffffffffffffffffffffffffffffffffffffffff168152602001908152602001600020600082825461256091906142f3565b92505081905550816002600083815260200190815260200160002060006101000a81548173ffffffffffffffffffffffffffffffffffffffff021916908373ffffffffffffffffffffffffffffffffffffffff160217905550808273ffffffffffffffffffffffffffffffffffffffff168473ffffffffffffffffffffffffffffffffffffffff167fddf252ad1be2c89b69c2b068fc378daa952ba7f163c4a11628f55a4df523b3ef60405160405180910390a461261f838383612d92565b505050565b6000612710905090565b8173ffffffffffffffffffffffffffffffffffffffff168373ffffffffffffffffffffffffffffffffffffffff16141561269d576040517f08c379a000000000000000000000000000000000000000000000000000000000815260040161269490613ea4565b60405180910390fd5b80600560008573ffffffffffffffffffffffffffffffffffffffff1673ffffffffffffffffffffffffffffffffffffffff16815260200190815260200160002060008473ffffffffffffffffffffffffffffffffffffffff1673ffffffffffffffffffffffffffffffffffffffff16815260200190815260200160002060006101000a81548160ff0219169083151502179055508173ffffffffffffffffffffffffffffffffffffffff168373ffffffffffffffffffffffffffffffffffffffff167f17307eab39ab6107e8899845ad3d59bd9653f200f220920489ca2b5937696c318360405161278e9190613d6c565b60405180910390a3505050565b6127a68484846123bd565b6127b284848484612d97565b6127f1576040517f08c379a00000000000000000000000000000000000000000000000000000000081526004016127e890613e04565b60405180910390fd5b50505050565b606060405180602001604052806000815250905090565b6060612819826121b2565b612858576040517f08c379a000000000000000000000000000000000000000000000000000000000815260040161284f90614024565b60405180910390fd5b60006128626127f7565b9050600081511161288257604051806020016040528060008152506128ad565b8061288c84612f2e565b60405160200161289d929190613c3c565b6040516020818303038152906040525b915050919050565b600073ffffffffffffffffffffffffffffffffffffffff168273ffffffffffffffffffffffffffffffffffffffff161415612925576040517f08c379a000000000000000000000000000000000000000000000000000000000815260040161291c90613fc4565b60405180910390fd5b61292e816121b2565b1561296e576040517f08c379a000000000000000000000000000000000000000000000000000000000815260040161296590613e44565b60405180910390fd5b61297a60008383612d8d565b6001600360008473ffffffffffffffffffffffffffffffffffffffff1673ffffffffffffffffffffffffffffffffffffffff16815260200190815260200160002060008282546129ca91906142f3565b92505081905550816002600083815260200190815260200160002060006101000a81548173ffffffffffffffffffffffffffffffffffffffff021916908373ffffffffffffffffffffffffffffffffffffffff160217905550808273ffffffffffffffffffffffffffffffffffffffff16600073ffffffffffffffffffffffffffffffffffffffff167fddf252ad1be2c89b69c2b068fc378daa952ba7f163c4a11628f55a4df523b3ef60405160405180910390a4612a8b60008383612d92565b5050565b612a98826121b2565b612ad7576040517f08c379a0000000000000000000000000000000000000000000000000000000008152600401612ace90613f64565b60405180910390fd5b80600660008481526020019081526020016000209080519060200190612afe929190613168565b505050565b612b0b612624565b6bffffffffffffffffffffffff16816bffffffffffffffffffffffff161115612b69576040517f08c379a0000000000000000000000000000000000000000000000000000000008152600401612b60906140e4565b60405180910390fd5b600073ffffffffffffffffffffffffffffffffffffffff168273ffffffffffffffffffffffffffffffffffffffff161415612bd9576040517f08c379a0000000000000000000000000000000000000000000000000000000008152600401612bd090614084565b60405180910390fd5b60405180604001604052808373ffffffffffffffffffffffffffffffffffffffff168152602001826bffffffffffffffffffffffff168152506009600085815260200190815260200160002060008201518160000160006101000a81548173ffffffffffffffffffffffffffffffffffffffff021916908373ffffffffffffffffffffffffffffffffffffffff16021790555060208201518160000160146101000a8154816bffffffffffffffffffffffff02191690836bffffffffffffffffffffffff160217905550905050505050565b60007f80ac58cd000000000000000000000000000000000000000000000000000000007bffffffffffffffffffffffffffffffffffffffffffffffffffffffff1916827bffffffffffffffffffffffffffffffffffffffffffffffffffffffff19161480612d7657507f5b5e139f000000000000000000000000000000000000000000000000000000007bffffffffffffffffffffffffffffffffffffffffffffffffffffffff1916827bffffffffffffffffffffffffffffffffffffffffffffffffffffffff1916145b80612d865750612d85826130db565b5b9050919050565b505050565b505050565b6000612db88473ffffffffffffffffffffffffffffffffffffffff16613145565b15612f21578373ffffffffffffffffffffffffffffffffffffffff1663150b7a02612de161221e565b8786866040518563ffffffff1660e01b8152600401612e039493929190613cb2565b602060405180830381600087803b158015612e1d57600080fd5b505af1925050508015612e4e57506040513d601f19601f82011682018060405250810190612e4b9190613697565b60015b612ed1573d8060008114612e7e576040519150601f19603f3d011682016040523d82523d6000602084013e612e83565b606091505b50600081511415612ec9576040517f08c379a0000000000000000000000000000000000000000000000000000000008152600401612ec090613e04565b60405180910390fd5b805181602001fd5b63150b7a0260e01b7bffffffffffffffffffffffffffffffffffffffffffffffffffffffff1916817bffffffffffffffffffffffffffffffffffffffffffffffffffffffff191614915050612f26565b600190505b949350505050565b60606000821415612f76576040518060400160405280600181526020017f300000000000000000000000000000000000000000000000000000000000000081525090506130d6565b600082905060005b60008214612fa8578080612f9190614555565b915050600a82612fa19190614349565b9150612f7e565b60008167ffffffffffffffff811115612fea577f4e487b7100000000000000000000000000000000000000000000000000000000600052604160045260246000fd5b6040519080825280601f01601f19166020018201604052801561301c5781602001600182028036833780820191505090505b5090505b600085146130cf5760018261303591906143d4565b9150600a85613044919061459e565b603061305091906142f3565b60f81b81838151811061308c577f4e487b7100000000000000000000000000000000000000000000000000000000600052603260045260246000fd5b60200101907effffffffffffffffffffffffffffffffffffffffffffffffffffffffffffff1916908160001a905350600a856130c89190614349565b9450613020565b8093505050505b919050565b60007f01ffc9a7000000000000000000000000000000000000000000000000000000007bffffffffffffffffffffffffffffffffffffffffffffffffffffffff1916827bffffffffffffffffffffffffffffffffffffffffffffffffffffffff1916149050919050565b6000808273ffffffffffffffffffffffffffffffffffffffff163b119050919050565b828054613174906144f2565b90600052602060002090601f01602090048101928261319657600085556131dd565b82601f106131af57805160ff19168380011785556131dd565b828001600101855582156131dd579182015b828111156131dc5782518255916020019190600101906131c1565b5b5090506131ea91906131ee565b5090565b5b808211156132075760008160009055506001016131ef565b5090565b600061321e6132198461424e565b614229565b90508281526020810184848401111561323657600080fd5b6132418482856144b0565b509392505050565b600061325c6132578461427f565b614229565b90508281526020810184848401111561327457600080fd5b61327f8482856144b0565b509392505050565b60008135905061329681614dc1565b92915050565b6000815190506132ab81614dc1565b92915050565b6000813590506132c081614dd8565b92915050565b6000815190506132d581614dd8565b92915050565b6000813590506132ea81614def565b92915050565b6000815190506132ff81614def565b92915050565b600082601f83011261331657600080fd5b813561332684826020860161320b565b91505092915050565b600082601f83011261334057600080fd5b8135613350848260208601613249565b91505092915050565b60008135905061336881614e06565b92915050565b60008151905061337d81614e06565b92915050565b60008135905061339281614e1d565b92915050565b6000602082840312156133aa57600080fd5b60006133b884828501613287565b91505092915050565b6000602082840312156133d357600080fd5b60006133e18482850161329c565b91505092915050565b600080604083850312156133fd57600080fd5b600061340b85828601613287565b925050602061341c85828601613287565b9150509250929050565b60008060006060848603121561343b57600080fd5b600061344986828701613287565b935050602061345a86828701613287565b925050604061346b86828701613359565b9150509250925092565b6000806000806080858703121561348b57600080fd5b600061349987828801613287565b94505060206134aa87828801613287565b93505060406134bb87828801613359565b925050606085013567ffffffffffffffff8111156134d857600080fd5b6134e487828801613305565b91505092959194509250565b6000806040838503121561350357600080fd5b600061351185828601613287565b9250506020613522858286016132b1565b9150509250929050565b60008060008060008060c0878903121561354557600080fd5b600061355389828a01613287565b965050602087013567ffffffffffffffff81111561357057600080fd5b61357c89828a0161332f565b955050604061358d89828a01613359565b945050606061359e89828a01613383565b93505060806135af89828a01613287565b92505060a06135c089828a01613287565b9150509295509295509295565b600080604083850312156135e057600080fd5b60006135ee85828601613287565b92505060206135ff85828601613359565b9150509250929050565b6000806040838503121561361c57600080fd5b600061362a8582860161329c565b925050602061363b8582860161336e565b9150509250929050565b60006020828403121561365757600080fd5b6000613665848285016132c6565b91505092915050565b60006020828403121561368057600080fd5b600061368e848285016132db565b91505092915050565b6000602082840312156136a957600080fd5b60006136b7848285016132f0565b91505092915050565b6000602082840312156136d257600080fd5b60006136e084828501613359565b91505092915050565b6000602082840312156136fb57600080fd5b60006137098482850161336e565b91505092915050565b6000806040838503121561372557600080fd5b600061373385828601613359565b925050602061374485828601613359565b9150509250929050565b60008060006060848603121561376357600080fd5b600061377186828701613359565b935050602061378286828701613359565b925050604061379386828701613287565b9150509250925092565b6137a681614408565b82525050565b6137b58161441a565b82525050565b6137c481614426565b82525050565b60006137d5826142b0565b6137df81856142c6565b93506137ef8185602086016144bf565b6137f88161468b565b840191505092915050565b600061380e826142bb565b61381881856142d7565b93506138288185602086016144bf565b6138318161468b565b840191505092915050565b6000613847826142bb565b61385181856142e8565b93506138618185602086016144bf565b80840191505092915050565b600061387a6019836142d7565b91506138858261469c565b602082019050919050565b600061389d602c836142d7565b91506138a8826146c5565b604082019050919050565b60006138c06032836142d7565b91506138cb82614714565b604082019050919050565b60006138e36025836142d7565b91506138ee82614763565b604082019050919050565b6000613906601c836142d7565b9150613911826147b2565b602082019050919050565b60006139296019836142d7565b9150613934826147db565b602082019050919050565b600061394c6024836142d7565b915061395782614804565b604082019050919050565b600061396f6019836142d7565b915061397a82614853565b602082019050919050565b6000613992602c836142d7565b915061399d8261487c565b604082019050919050565b60006139b56038836142d7565b91506139c0826148cb565b604082019050919050565b60006139d86024836142d7565b91506139e38261491a565b604082019050919050565b60006139fb602a836142d7565b9150613a0682614969565b604082019050919050565b6000613a1e6029836142d7565b9150613a29826149b8565b604082019050919050565b6000613a41602e836142d7565b9150613a4c82614a07565b604082019050919050565b6000613a646016836142d7565b9150613a6f82614a56565b602082019050919050565b6000613a876040836142d7565b9150613a9282614a7f565b604082019050919050565b6000613aaa6020836142d7565b9150613ab582614ace565b602082019050919050565b6000613acd6031836142d7565b9150613ad882614af7565b604082019050919050565b6000613af0602c836142d7565b9150613afb82614b46565b604082019050919050565b6000613b13602f836142d7565b9150613b1e82614b95565b604082019050919050565b6000613b366021836142d7565b9150613b4182614be4565b604082019050919050565b6000613b596031836142d7565b9150613b6482614c33565b604082019050919050565b6000613b7c601b836142d7565b9150613b8782614c82565b602082019050919050565b6000613b9f6024836142d7565b9150613baa82614cab565b604082019050919050565b6000613bc26022836142d7565b9150613bcd82614cfa565b604082019050919050565b6000613be5602a836142d7565b9150613bf082614d49565b604082019050919050565b6000613c08601f836142d7565b9150613c1382614d98565b602082019050919050565b613c278161447c565b82525050565b613c368161449e565b82525050565b6000613c48828561383c565b9150613c54828461383c565b91508190509392505050565b6000602082019050613c75600083018461379d565b92915050565b6000606082019050613c90600083018661379d565b613c9d602083018561379d565b613caa6040830184613c1e565b949350505050565b6000608082019050613cc7600083018761379d565b613cd4602083018661379d565b613ce16040830185613c1e565b8181036060830152613cf381846137ca565b905095945050505050565b6000608082019050613d13600083018761379d565b613d20602083018661379d565b613d2d6040830185613c1e565b613d3a6060830184613c2d565b95945050505050565b6000604082019050613d58600083018561379d565b613d656020830184613c1e565b9392505050565b6000602082019050613d8160008301846137ac565b92915050565b6000602082019050613d9c60008301846137bb565b92915050565b60006020820190508181036000830152613dbc8184613803565b905092915050565b60006020820190508181036000830152613ddd8161386d565b9050919050565b60006020820190508181036000830152613dfd81613890565b9050919050565b60006020820190508181036000830152613e1d816138b3565b9050919050565b60006020820190508181036000830152613e3d816138d6565b9050919050565b60006020820190508181036000830152613e5d816138f9565b9050919050565b60006020820190508181036000830152613e7d8161391c565b9050919050565b60006020820190508181036000830152613e9d8161393f565b9050919050565b60006020820190508181036000830152613ebd81613962565b9050919050565b60006020820190508181036000830152613edd81613985565b9050919050565b60006020820190508181036000830152613efd816139a8565b9050919050565b60006020820190508181036000830152613f1d816139cb565b9050919050565b60006020820190508181036000830152613f3d816139ee565b9050919050565b60006020820190508181036000830152613f5d81613a11565b9050919050565b60006020820190508181036000830152613f7d81613a34565b9050919050565b60006020820190508181036000830152613f9d81613a57565b9050919050565b60006020820190508181036000830152613fbd81613a7a565b9050919050565b60006020820190508181036000830152613fdd81613a9d565b9050919050565b60006020820190508181036000830152613ffd81613ac0565b9050919050565b6000602082019050818103600083015261401d81613ae3565b9050919050565b6000602082019050818103600083015261403d81613b06565b9050919050565b6000602082019050818103600083015261405d81613b29565b9050919050565b6000602082019050818103600083015261407d81613b4c565b9050919050565b6000602082019050818103600083015261409d81613b6f565b9050919050565b600060208201905081810360008301526140bd81613b92565b9050919050565b600060208201905081810360008301526140dd81613bb5565b9050919050565b600060208201905081810360008301526140fd81613bd8565b9050919050565b6000602082019050818103600083015261411d81613bfb565b9050919050565b60006020820190506141396000830184613c1e565b92915050565b60006040820190506141546000830185613c1e565b614161602083018461379d565b9392505050565b600060c08201905061417d6000830189613c1e565b61418a602083018861379d565b614197604083018761379d565b6141a46060830186613c1e565b6141b16080830185613c1e565b6141be60a083018461379d565b979650505050505050565b60006060820190506141de6000830186613c1e565b6141eb602083018561379d565b6141f86040830184613c1e565b949350505050565b60006040820190506142156000830185613c1e565b6142226020830184613c1e565b9392505050565b6000614233614244565b905061423f8282614524565b919050565b6000604051905090565b600067ffffffffffffffff8211156142695761426861465c565b5b6142728261468b565b9050602081019050919050565b600067ffffffffffffffff82111561429a5761429961465c565b5b6142a38261468b565b9050602081019050919050565b600081519050919050565b600081519050919050565b600082825260208201905092915050565b600082825260208201905092915050565b600081905092915050565b60006142fe8261447c565b91506143098361447c565b9250827fffffffffffffffffffffffffffffffffffffffffffffffffffffffffffffffff0382111561433e5761433d6145cf565b5b828201905092915050565b60006143548261447c565b915061435f8361447c565b92508261436f5761436e6145fe565b5b828204905092915050565b60006143858261447c565b91506143908361447c565b9250817fffffffffffffffffffffffffffffffffffffffffffffffffffffffffffffffff04831182151516156143c9576143c86145cf565b5b828202905092915050565b60006143df8261447c565b91506143ea8361447c565b9250828210156143fd576143fc6145cf565b5b828203905092915050565b60006144138261445c565b9050919050565b60008115159050919050565b6000819050919050565b60007fffffffff0000000000000000000000000000000000000000000000000000000082169050919050565b600073ffffffffffffffffffffffffffffffffffffffff82169050919050565b6000819050919050565b60006bffffffffffffffffffffffff82169050919050565b60006144a982614486565b9050919050565b82818337600083830152505050565b60005b838110156144dd5780820151818401526020810190506144c2565b838111156144ec576000848401525b50505050565b6000600282049050600182168061450a57607f821691505b6020821081141561451e5761451d61462d565b5b50919050565b61452d8261468b565b810181811067ffffffffffffffff8211171561454c5761454b61465c565b5b80604052505050565b60006145608261447c565b91507fffffffffffffffffffffffffffffffffffffffffffffffffffffffffffffffff821415614593576145926145cf565b5b600182019050919050565b60006145a98261447c565b91506145b48361447c565b9250826145c4576145c36145fe565b5b828206905092915050565b7f4e487b7100000000000000000000000000000000000000000000000000000000600052601160045260246000fd5b7f4e487b7100000000000000000000000000000000000000000000000000000000600052601260045260246000fd5b7f4e487b7100000000000000000000000000000000000000000000000000000000600052602260045260246000fd5b7f4e487b7100000000000000000000000000000000000000000000000000000000600052604160045260246000fd5b6000601f19601f8301169050919050565b7f596f7520646f206e6f74206f776e207468697320746f6b656e00000000000000600082015250565b7f4f6e6c792074686520636f6e74726f6c6c65722063616e20616363657373207460008201527f6869732066756e6374696f6e0000000000000000000000000000000000000000602082015250565b7f4552433732313a207472616e7366657220746f206e6f6e20455243373231526560008201527f63656976657220696d706c656d656e7465720000000000000000000000000000602082015250565b7f4552433732313a207472616e736665722066726f6d20696e636f72726563742060008201527f6f776e6572000000000000000000000000000000000000000000000000000000602082015250565b7f4552433732313a20746f6b656e20616c7265616479206d696e74656400000000600082015250565b7f4d757374206265206f776e657220746f20776974686472617700000000000000600082015250565b7f4552433732313a207472616e7366657220746f20746865207a65726f2061646460008201527f7265737300000000000000000000000000000000000000000000000000000000602082015250565b7f4552433732313a20617070726f766520746f2063616c6c657200000000000000600082015250565b7f4552433732313a206f70657261746f7220717565727920666f72206e6f6e657860008201527f697374656e7420746f6b656e0000000000000000000000000000000000000000602082015250565b7f4552433732313a20617070726f76652063616c6c6572206973206e6f74206f7760008201527f6e6572206e6f7220617070726f76656420666f7220616c6c0000000000000000602082015250565b7f5468697320746f6b656e206973206c6f636b65642064756520746f206272656560008201527f64696e6700000000000000000000000000000000000000000000000000000000602082015250565b7f4552433732313a2062616c616e636520717565727920666f7220746865207a6560008201527f726f206164647265737300000000000000000000000000000000000000000000602082015250565b7f4552433732313a206f776e657220717565727920666f72206e6f6e657869737460008201527f656e7420746f6b656e0000000000000000000000000000000000000000000000602082015250565b7f45524337323155524953746f726167653a2055524920736574206f66206e6f6e60008201527f6578697374656e7420746f6b656e000000000000000000000000000000000000602082015250565b7f43616e6e6f742068617665207a65726f20707269636500000000000000000000600082015250565b7f506c65617365207375626d6974207468652061736b696e67207072696365206960008201527f6e206f7264657220746f20636f6d706c65746520746865207075726368617365602082015250565b7f4552433732313a206d696e7420746f20746865207a65726f2061646472657373600082015250565b7f45524337323155524953746f726167653a2055524920717565727920666f722060008201527f6e6f6e6578697374656e7420746f6b656e000000000000000000000000000000602082015250565b7f4552433732313a20617070726f76656420717565727920666f72206e6f6e657860008201527f697374656e7420746f6b656e0000000000000000000000000000000000000000602082015250565b7f4552433732314d657461646174613a2055524920717565727920666f72206e6f60008201527f6e6578697374656e7420746f6b656e0000000000000000000000000000000000602082015250565b7f4552433732313a20617070726f76616c20746f2063757272656e74206f776e6560008201527f7200000000000000000000000000000000000000000000000000000000000000602082015250565b7f4552433732313a207472616e736665722063616c6c6572206973206e6f74206f60008201527f776e6572206e6f7220617070726f766564000000000000000000000000000000602082015250565b7f455243323938313a20496e76616c696420706172616d65746572730000000000600082015250565b7f4f6e6c79206d61726b6574706c616365206974656d732063616e20626520626f60008201527f7567687400000000000000000000000000000000000000000000000000000000602082015250565b7f43616e6e6f742064656c69737420616e6f746865722075736572277320746f6b60008201527f656e000000000000000000000000000000000000000000000000000000000000602082015250565b7f455243323938313a20726f79616c7479206665652077696c6c2065786365656460008201527f2073616c65507269636500000000000000000000000000000000000000000000602082015250565b7f5265656e7472616e637947756172643a207265656e7472616e742063616c6c00600082015250565b614dca81614408565b8114614dd557600080fd5b50565b614de18161441a565b8114614dec57600080fd5b50565b614df881614430565b8114614e0357600080fd5b50565b614e0f8161447c565b8114614e1a57600080fd5b50565b614e2681614486565b8114614e3157600080fd5b5056fea26469706673582212205a76cbc38d96c3e44792946ea80029b77b6dc61035ca2345d6587cb5db74827464736f6c63430008040033",
  "linkReferences": {},
  "deployedLinkReferences": {}
}