{
  "_format": "hh-sol-artifact-1",
  "contractName": "NFTMarketplaceStorage",
  "sourceName": "contracts/NFTMarketplace.sol",
  "abi": [
    {
      "anonymous": false,
      "inputs": [
        {
          "indexed": true,
          "internalType": "uint256",
          "name": "tokenId",
          "type": "uint256"
        },
        {
          "indexed": true,
          "internalType": "uint256",
          "name": "marketItemId",
          "type": "uint256"
        },
        {
          "indexed": false,
          "internalType": "address",
          "name": "seller",
          "type": "address"
        },
        {
          "indexed": false,
          "internalType": "address",
          "name": "owner",
          "type": "address"
        },
        {
          "indexed": false,
          "internalType": "address",
          "name": "publisher",
          "type": "address"
        },
        {
          "indexed": false,
          "internalType": "address",
          "name": "publisherTwo",
          "type": "address"
        },
        {
          "indexed": false,
          "internalType": "uint256",
          "name": "price",
          "type": "uint256"
        },
        {
          "indexed": false,
          "internalType": "uint256",
          "name": "royalty",
          "type": "uint256"
        },
        {
          "indexed": false,
          "internalType": "bool",
          "name": "sold",
          "type": "bool"
        },
        {
          "indexed": false,
          "internalType": "bool",
          "name": "bred",
          "type": "bool"
        },
        {
          "indexed": false,
          "internalType": "bool",
          "name": "isNftyLoop",
          "type": "bool"
        },
        {
          "indexed": false,
          "internalType": "address",
          "name": "highestBidder",
          "type": "address"
        },
        {
          "indexed": false,
          "internalType": "uint256",
          "name": "highestBid",
          "type": "uint256"
        }
      ],
      "name": "MarketItemCreated",
      "type": "event"
    },
    {
      "anonymous": false,
      "inputs": [
        {
          "indexed": true,
          "internalType": "address",
          "name": "previousOwner",
          "type": "address"
        },
        {
          "indexed": true,
          "internalType": "address",
          "name": "newOwner",
          "type": "address"
        }
      ],
      "name": "OwnershipTransferred",
      "type": "event"
    },
    {
      "anonymous": false,
      "inputs": [
        {
          "indexed": true,
          "internalType": "uint256",
          "name": "bid",
          "type": "uint256"
        },
        {
          "indexed": false,
          "internalType": "address",
          "name": "bidder",
          "type": "address"
        }
      ],
      "name": "bidPlaced",
      "type": "event"
    },
    {
      "inputs": [
        {
          "internalType": "uint256",
          "name": "tokenId",
          "type": "uint256"
        },
        {
          "internalType": "address",
          "name": "seller",
          "type": "address"
        }
      ],
      "name": "deleteMarketItem",
      "outputs": [],
      "stateMutability": "nonpayable",
      "type": "function"
    },
    {
      "inputs": [
        {
          "internalType": "uint256",
          "name": "tokenId",
          "type": "uint256"
        },
        {
          "internalType": "address",
          "name": "previousOwner",
          "type": "address"
        }
      ],
      "name": "deleteOwnedItem",
      "outputs": [],
      "stateMutability": "nonpayable",
      "type": "function"
    },
    {
      "inputs": [
        {
          "internalType": "address",
          "name": "seller",
          "type": "address"
        }
      ],
      "name": "fetchItemsListed",
      "outputs": [
        {
          "components": [
            {
              "internalType": "uint256",
              "name": "tokenId",
              "type": "uint256"
            },
            {
              "internalType": "uint256",
              "name": "marketItemId",
              "type": "uint256"
            },
            {
              "internalType": "address payable",
              "name": "seller",
              "type": "address"
            },
            {
              "internalType": "address payable",
              "name": "owner",
              "type": "address"
            },
            {
              "internalType": "address payable",
              "name": "publisher",
              "type": "address"
            },
            {
              "internalType": "address payable",
              "name": "publisherTwo",
              "type": "address"
            },
            {
              "internalType": "uint256",
              "name": "price",
              "type": "uint256"
            },
            {
              "internalType": "uint256",
              "name": "royalty",
              "type": "uint256"
            },
            {
              "internalType": "bool",
              "name": "sold",
              "type": "bool"
            },
            {
              "internalType": "bool",
              "name": "bred",
              "type": "bool"
            },
            {
              "internalType": "bool",
              "name": "isNftyLoop",
              "type": "bool"
            },
            {
              "internalType": "address",
              "name": "highestBidder",
              "type": "address"
            },
            {
              "internalType": "uint256",
              "name": "highestBid",
              "type": "uint256"
            }
          ],
          "internalType": "struct NFTMarketplaceStorage.MarketItem[]",
          "name": "",
          "type": "tuple[]"
        }
      ],
      "stateMutability": "view",
      "type": "function"
    },
    {
      "inputs": [],
      "name": "fetchMarketItems",
      "outputs": [
        {
          "components": [
            {
              "internalType": "uint256",
              "name": "tokenId",
              "type": "uint256"
            },
            {
              "internalType": "uint256",
              "name": "marketItemId",
              "type": "uint256"
            },
            {
              "internalType": "address payable",
              "name": "seller",
              "type": "address"
            },
            {
              "internalType": "address payable",
              "name": "owner",
              "type": "address"
            },
            {
              "internalType": "address payable",
              "name": "publisher",
              "type": "address"
            },
            {
              "internalType": "address payable",
              "name": "publisherTwo",
              "type": "address"
            },
            {
              "internalType": "uint256",
              "name": "price",
              "type": "uint256"
            },
            {
              "internalType": "uint256",
              "name": "royalty",
              "type": "uint256"
            },
            {
              "internalType": "bool",
              "name": "sold",
              "type": "bool"
            },
            {
              "internalType": "bool",
              "name": "bred",
              "type": "bool"
            },
            {
              "internalType": "bool",
              "name": "isNftyLoop",
              "type": "bool"
            },
            {
              "internalType": "address",
              "name": "highestBidder",
              "type": "address"
            },
            {
              "internalType": "uint256",
              "name": "highestBid",
              "type": "uint256"
            }
          ],
          "internalType": "struct NFTMarketplaceStorage.MarketItem[]",
          "name": "",
          "type": "tuple[]"
        }
      ],
      "stateMutability": "view",
      "type": "function"
    },
    {
      "inputs": [],
      "name": "fetchMyNFTs",
      "outputs": [
        {
          "components": [
            {
              "internalType": "uint256",
              "name": "tokenId",
              "type": "uint256"
            },
            {
              "internalType": "uint256",
              "name": "marketItemId",
              "type": "uint256"
            },
            {
              "internalType": "address payable",
              "name": "seller",
              "type": "address"
            },
            {
              "internalType": "address payable",
              "name": "owner",
              "type": "address"
            },
            {
              "internalType": "address payable",
              "name": "publisher",
              "type": "address"
            },
            {
              "internalType": "address payable",
              "name": "publisherTwo",
              "type": "address"
            },
            {
              "internalType": "uint256",
              "name": "price",
              "type": "uint256"
            },
            {
              "internalType": "uint256",
              "name": "royalty",
              "type": "uint256"
            },
            {
              "internalType": "bool",
              "name": "sold",
              "type": "bool"
            },
            {
              "internalType": "bool",
              "name": "bred",
              "type": "bool"
            },
            {
              "internalType": "bool",
              "name": "isNftyLoop",
              "type": "bool"
            },
            {
              "internalType": "address",
              "name": "highestBidder",
              "type": "address"
            },
            {
              "internalType": "uint256",
              "name": "highestBid",
              "type": "uint256"
            }
          ],
          "internalType": "struct NFTMarketplaceStorage.MarketItem[]",
          "name": "",
          "type": "tuple[]"
        }
      ],
      "stateMutability": "view",
      "type": "function"
    },
    {
      "inputs": [
        {
          "internalType": "uint256",
          "name": "tokenId",
          "type": "uint256"
        }
      ],
      "name": "getBidDetails",
      "outputs": [
        {
          "internalType": "address",
          "name": "",
          "type": "address"
        },
        {
          "internalType": "address",
          "name": "",
          "type": "address"
        },
        {
          "internalType": "bool",
          "name": "",
          "type": "bool"
        },
        {
          "internalType": "uint256",
          "name": "",
          "type": "uint256"
        },
        {
          "internalType": "address",
          "name": "",
          "type": "address"
        },
        {
          "internalType": "address",
          "name": "",
          "type": "address"
        }
      ],
      "stateMutability": "view",
      "type": "function"
    },
    {
      "inputs": [
        {
          "internalType": "uint256",
          "name": "tokenId",
          "type": "uint256"
        }
      ],
      "name": "getHighestBid",
      "outputs": [
        {
          "internalType": "address",
          "name": "",
          "type": "address"
        },
        {
          "internalType": "uint256",
          "name": "",
          "type": "uint256"
        }
      ],
      "stateMutability": "view",
      "type": "function"
    },
    {
      "inputs": [
        {
          "internalType": "uint256",
          "name": "tokenId",
          "type": "uint256"
        }
      ],
      "name": "getItemDetails",
      "outputs": [
        {
          "internalType": "address",
          "name": "",
          "type": "address"
        },
        {
          "internalType": "address",
          "name": "",
          "type": "address"
        },
        {
          "internalType": "uint256",
          "name": "",
          "type": "uint256"
        },
        {
          "internalType": "bool",
          "name": "",
          "type": "bool"
        },
        {
          "internalType": "uint256",
          "name": "",
          "type": "uint256"
        },
        {
          "internalType": "address",
          "name": "",
          "type": "address"
        },
        {
          "internalType": "address",
          "name": "",
          "type": "address"
        }
      ],
      "stateMutability": "view",
      "type": "function"
    },
    {
      "inputs": [],
      "name": "owner",
      "outputs": [
        {
          "internalType": "address",
          "name": "",
          "type": "address"
        }
      ],
      "stateMutability": "view",
      "type": "function"
    },
    {
      "inputs": [],
      "name": "renounceOwnership",
      "outputs": [],
      "stateMutability": "nonpayable",
      "type": "function"
    },
    {
      "inputs": [
        {
          "internalType": "uint256",
          "name": "tokenId",
          "type": "uint256"
        },
        {
          "internalType": "address",
          "name": "newOwner",
          "type": "address"
        },
        {
          "internalType": "uint256",
          "name": "paymentAmount",
          "type": "uint256"
        }
      ],
      "name": "setMarketSale",
      "outputs": [],
      "stateMutability": "nonpayable",
      "type": "function"
    },
    {
      "inputs": [
        {
          "internalType": "uint256",
          "name": "tokenId",
          "type": "uint256"
        },
        {
          "internalType": "address",
          "name": "bidder",
          "type": "address"
        },
        {
          "internalType": "uint256",
          "name": "bid",
          "type": "uint256"
        }
      ],
      "name": "storeBid",
      "outputs": [
        {
          "internalType": "uint256",
          "name": "",
          "type": "uint256"
        }
      ],
      "stateMutability": "nonpayable",
      "type": "function"
    },
    {
      "inputs": [
        {
          "internalType": "address",
          "name": "creator",
          "type": "address"
        },
        {
          "internalType": "address",
          "name": "publisherOne",
          "type": "address"
        },
        {
          "internalType": "address",
          "name": "publisherTwo",
          "type": "address"
        },
        {
          "internalType": "uint256",
          "name": "price",
          "type": "uint256"
        },
        {
          "internalType": "uint256",
          "name": "bredRoyaltyValue",
          "type": "uint256"
        }
      ],
      "name": "storeBredItem",
      "outputs": [
        {
          "internalType": "uint256",
          "name": "",
          "type": "uint256"
        }
      ],
      "stateMutability": "nonpayable",
      "type": "function"
    },
    {
      "inputs": [
        {
          "internalType": "address",
          "name": "signer",
          "type": "address"
        },
        {
          "internalType": "address",
          "name": "buyer",
          "type": "address"
        },
        {
          "internalType": "uint256",
          "name": "price",
          "type": "uint256"
        },
        {
          "internalType": "uint256",
          "name": "royaltyAmount",
          "type": "uint256"
        }
      ],
      "name": "storeLazyMintedItem",
      "outputs": [
        {
          "internalType": "uint256",
          "name": "",
          "type": "uint256"
        }
      ],
      "stateMutability": "nonpayable",
      "type": "function"
    },
    {
      "inputs": [
        {
          "internalType": "uint256",
          "name": "tokenId",
          "type": "uint256"
        },
        {
          "internalType": "address",
          "name": "seller",
          "type": "address"
        },
        {
          "internalType": "address",
          "name": "royaltyAddress",
          "type": "address"
        },
        {
          "internalType": "uint256",
          "name": "royaltyAmount",
          "type": "uint256"
        },
        {
          "internalType": "uint256",
          "name": "price",
          "type": "uint256"
        }
      ],
      "name": "storeMarketItem",
      "outputs": [],
      "stateMutability": "nonpayable",
      "type": "function"
    },
    {
      "inputs": [
        {
          "internalType": "uint256",
          "name": "tokenId",
          "type": "uint256"
        },
        {
          "internalType": "address",
          "name": "owner",
          "type": "address"
        },
        {
          "internalType": "uint256",
          "name": "price",
          "type": "uint256"
        }
      ],
      "name": "storeResellData",
      "outputs": [],
      "stateMutability": "nonpayable",
      "type": "function"
    },
    {
      "inputs": [
        {
          "internalType": "address",
          "name": "newOwner",
          "type": "address"
        }
      ],
      "name": "transferOwnership",
      "outputs": [],
      "stateMutability": "nonpayable",
      "type": "function"
    }
  ],
  "bytecode": "0x60806040523480156200001157600080fd5b5062000032620000266200003860201b60201c565b6200004060201b60201c565b62000104565b600033905090565b60008060009054906101000a900473ffffffffffffffffffffffffffffffffffffffff169050816000806101000a81548173ffffffffffffffffffffffffffffffffffffffff021916908373ffffffffffffffffffffffffffffffffffffffff1602179055508173ffffffffffffffffffffffffffffffffffffffff168173ffffffffffffffffffffffffffffffffffffffff167f8be0079c531659141344cd1fd0a4f28419497f9722a3daafe3b4186f6b6457e060405160405180910390a35050565b613a6080620001146000396000f3fe608060405234801561001057600080fd5b506004361061010b5760003560e01c806383073043116100a2578063be3791b811610071578063be3791b8146102bf578063d71240a3146102ef578063e597675c1461030b578063e61b9aab14610340578063f2fde38b1461035c5761010b565b806383073043146102245780638a410b1a146102405780638da5cb5b146102705780638f2886441461028e5761010b565b80633664a060116100de5780633664a060146101985780634a090dbf146101b4578063715018a6146101e457806373004ca0146101ee5761010b565b806308b77812146101105780630f08efe0146101405780631e5ffb791461015e578063202e37401461017a575b600080fd5b61012a600480360381019061012591906130df565b610378565b604051610137919061369b565b60405180910390f35b610148610696565b60405161015591906135b9565b60405180910390f35b610178600480360381019061017391906130df565b610ae5565b005b610182610c64565b60405161018f91906135b9565b60405180910390f35b6101b260048036038101906101ad9190613068565b6110f5565b005b6101ce60048036038101906101c99190612fa0565b6114c2565b6040516101db919061369b565b60405180910390f35b6101ec6118a0565b005b61020860048036038101906102039190613003565b611928565b60405161021b9796959493929190613521565b60405180910390f35b61023e600480360381019061023991906130df565b611a7a565b005b61025a60048036038101906102559190612f00565b611bf9565b60405161026791906135b9565b60405180910390f35b61027861208c565b60405161028591906133fa565b60405180910390f35b6102a860048036038101906102a39190613003565b6120b5565b6040516102b6929190613590565b60405180910390f35b6102d960048036038101906102d49190612f29565b612155565b6040516102e6919061369b565b60405180910390f35b6103096004803603810190610304919061302c565b612529565b005b61032560048036038101906103209190613003565b6126c5565b604051610337969594939291906134c0565b60405180910390f35b61035a6004803603810190610355919061302c565b6127fa565b005b61037660048036038101906103719190612f00565b612a5b565b005b6000610382612b53565b73ffffffffffffffffffffffffffffffffffffffff166103a061208c565b73ffffffffffffffffffffffffffffffffffffffff16146103f6576040517f08c379a00000000000000000000000000000000000000000000000000000000081526004016103ed9061365b565b60405180910390fd5b6000826004600087815260200190815260200160002060008673ffffffffffffffffffffffffffffffffffffffff1673ffffffffffffffffffffffffffffffffffffffff168152602001908152602001600020546104549190613700565b9050806004600087815260200190815260200160002060006006600089815260200190815260200160002060080160039054906101000a900473ffffffffffffffffffffffffffffffffffffffff1673ffffffffffffffffffffffffffffffffffffffff1673ffffffffffffffffffffffffffffffffffffffff168152602001908152602001600020541061051e576040517f08c379a00000000000000000000000000000000000000000000000000000000081526004016105159061363b565b60405180910390fd5b826004600087815260200190815260200160002060008673ffffffffffffffffffffffffffffffffffffffff1673ffffffffffffffffffffffffffffffffffffffff168152602001908152602001600020600082825461057e9190613700565b92505081905550836006600087815260200190815260200160002060080160036101000a81548173ffffffffffffffffffffffffffffffffffffffff021916908373ffffffffffffffffffffffffffffffffffffffff1602179055508260066000878152602001908152602001600020600901819055506106146006600087815260200190815260200160002060090154612b5b565b6106536006600087815260200190815260200160002060080160039054906101000a900473ffffffffffffffffffffffffffffffffffffffff16612bf4565b827fce733589f6fe449ec10b6f072d7f78761a45049ca21fce7f042706c447327a448560405161068391906133fa565b60405180910390a2809150509392505050565b60606106aa6106a56001612c8d565b612b5b565b60006106b66001612c8d565b90506106ca6106c56002612c8d565b612b5b565b60006106d66002612c8d565b6106e06001612c8d565b6106ea9190613756565b90506000806106f761208c565b905060008467ffffffffffffffff81111561073b577f4e487b7100000000000000000000000000000000000000000000000000000000600052604160045260246000fd5b60405190808252806020026020018201604052801561077457816020015b610761612dfa565b8152602001906001900390816107595790505b50905060005b85811015610ad9578273ffffffffffffffffffffffffffffffffffffffff16600660006001846107aa9190613700565b815260200190815260200160002060030160009054906101000a900473ffffffffffffffffffffffffffffffffffffffff1673ffffffffffffffffffffffffffffffffffffffff161415610ac65760006001826108079190613700565b905061081281612b5b565b61081b86612b5b565b600060066000838152602001908152602001600020905080604051806101a001604052908160008201548152602001600182015481526020016002820160009054906101000a900473ffffffffffffffffffffffffffffffffffffffff1673ffffffffffffffffffffffffffffffffffffffff1673ffffffffffffffffffffffffffffffffffffffff1681526020016003820160009054906101000a900473ffffffffffffffffffffffffffffffffffffffff1673ffffffffffffffffffffffffffffffffffffffff1673ffffffffffffffffffffffffffffffffffffffff1681526020016004820160009054906101000a900473ffffffffffffffffffffffffffffffffffffffff1673ffffffffffffffffffffffffffffffffffffffff1673ffffffffffffffffffffffffffffffffffffffff1681526020016005820160009054906101000a900473ffffffffffffffffffffffffffffffffffffffff1673ffffffffffffffffffffffffffffffffffffffff1673ffffffffffffffffffffffffffffffffffffffff16815260200160068201548152602001600782015481526020016008820160009054906101000a900460ff161515151581526020016008820160019054906101000a900460ff161515151581526020016008820160029054906101000a900460ff161515151581526020016008820160039054906101000a900473ffffffffffffffffffffffffffffffffffffffff1673ffffffffffffffffffffffffffffffffffffffff1673ffffffffffffffffffffffffffffffffffffffff168152602001600982015481525050848781518110610aa9577f4e487b7100000000000000000000000000000000000000000000000000000000600052603260045260246000fd5b6020026020010181905250600186610ac19190613700565b955050505b8080610ad1906137f6565b91505061077a565b50809550505050505090565b610aed612b53565b73ffffffffffffffffffffffffffffffffffffffff16610b0b61208c565b73ffffffffffffffffffffffffffffffffffffffff1614610b61576040517f08c379a0000000000000000000000000000000000000000000000000000000008152600401610b589061365b565b60405180910390fd5b610b6b6002612c9b565b816006600085815260200190815260200160002060030160006101000a81548173ffffffffffffffffffffffffffffffffffffffff021916908373ffffffffffffffffffffffffffffffffffffffff16021790555060016006600085815260200190815260200160002060080160006101000a81548160ff021916908315150217905550336006600085815260200190815260200160002060020160006101000a81548173ffffffffffffffffffffffffffffffffffffffff021916908373ffffffffffffffffffffffffffffffffffffffff160217905550806006600085815260200190815260200160002060060181905550505050565b60606000610c726001612c8d565b905060008060005b83811015610d1b573373ffffffffffffffffffffffffffffffffffffffff1660066000600184610caa9190613700565b815260200190815260200160002060030160009054906101000a900473ffffffffffffffffffffffffffffffffffffffff1673ffffffffffffffffffffffffffffffffffffffff161415610d0857600183610d059190613700565b92505b8080610d13906137f6565b915050610c7a565b5060008267ffffffffffffffff811115610d5e577f4e487b7100000000000000000000000000000000000000000000000000000000600052604160045260246000fd5b604051908082528060200260200182016040528015610d9757816020015b610d84612dfa565b815260200190600190039081610d7c5790505b50905060005b848110156110ea573373ffffffffffffffffffffffffffffffffffffffff1660066000600184610dcd9190613700565b815260200190815260200160002060030160009054906101000a900473ffffffffffffffffffffffffffffffffffffffff1673ffffffffffffffffffffffffffffffffffffffff1614156110d7576000600182610e2a9190613700565b9050600060066000838152602001908152602001600020905080604051806101a001604052908160008201548152602001600182015481526020016002820160009054906101000a900473ffffffffffffffffffffffffffffffffffffffff1673ffffffffffffffffffffffffffffffffffffffff1673ffffffffffffffffffffffffffffffffffffffff1681526020016003820160009054906101000a900473ffffffffffffffffffffffffffffffffffffffff1673ffffffffffffffffffffffffffffffffffffffff1673ffffffffffffffffffffffffffffffffffffffff1681526020016004820160009054906101000a900473ffffffffffffffffffffffffffffffffffffffff1673ffffffffffffffffffffffffffffffffffffffff1673ffffffffffffffffffffffffffffffffffffffff1681526020016005820160009054906101000a900473ffffffffffffffffffffffffffffffffffffffff1673ffffffffffffffffffffffffffffffffffffffff1673ffffffffffffffffffffffffffffffffffffffff16815260200160068201548152602001600782015481526020016008820160009054906101000a900460ff161515151581526020016008820160019054906101000a900460ff161515151581526020016008820160029054906101000a900460ff161515151581526020016008820160039054906101000a900473ffffffffffffffffffffffffffffffffffffffff1673ffffffffffffffffffffffffffffffffffffffff1673ffffffffffffffffffffffffffffffffffffffff1681526020016009820154815250508486815181106110ba577f4e487b7100000000000000000000000000000000000000000000000000000000600052603260045260246000fd5b60200260200101819052506001856110d29190613700565b945050505b80806110e2906137f6565b915050610d9d565b508094505050505090565b6110fd612b53565b73ffffffffffffffffffffffffffffffffffffffff1661111b61208c565b73ffffffffffffffffffffffffffffffffffffffff1614611171576040517f08c379a00000000000000000000000000000000000000000000000000000000081526004016111689061365b565b60405180910390fd5b61117b6001612c9b565b60006111876001612c8d565b9050604051806101a001604052808781526020018281526020018673ffffffffffffffffffffffffffffffffffffffff1681526020013373ffffffffffffffffffffffffffffffffffffffff1681526020018573ffffffffffffffffffffffffffffffffffffffff1681526020018573ffffffffffffffffffffffffffffffffffffffff168152602001838152602001848152602001600015158152602001600015158152602001600015158152602001600073ffffffffffffffffffffffffffffffffffffffff168152602001600081525060066000838152602001908152602001600020600082015181600001556020820151816001015560408201518160020160006101000a81548173ffffffffffffffffffffffffffffffffffffffff021916908373ffffffffffffffffffffffffffffffffffffffff16021790555060608201518160030160006101000a81548173ffffffffffffffffffffffffffffffffffffffff021916908373ffffffffffffffffffffffffffffffffffffffff16021790555060808201518160040160006101000a81548173ffffffffffffffffffffffffffffffffffffffff021916908373ffffffffffffffffffffffffffffffffffffffff16021790555060a08201518160050160006101000a81548173ffffffffffffffffffffffffffffffffffffffff021916908373ffffffffffffffffffffffffffffffffffffffff16021790555060c0820151816006015560e082015181600701556101008201518160080160006101000a81548160ff0219169083151502179055506101208201518160080160016101000a81548160ff0219169083151502179055506101408201518160080160026101000a81548160ff0219169083151502179055506101608201518160080160036101000a81548173ffffffffffffffffffffffffffffffffffffffff021916908373ffffffffffffffffffffffffffffffffffffffff160217905550610180820151816009015590505080867f1d6df683ff5c1f5463347efa6cfd253c88dd34b1feedaa49491464c7fc91286087338889888a60008060008060006040516114b29b9a99989796959493929190613415565b60405180910390a3505050505050565b60006114cc612b53565b73ffffffffffffffffffffffffffffffffffffffff166114ea61208c565b73ffffffffffffffffffffffffffffffffffffffff1614611540576040517f08c379a00000000000000000000000000000000000000000000000000000000081526004016115379061365b565b60405180910390fd5b61154a6001612c9b565b6115546002612c9b565b60006115606001612c8d565b9050604051806101a001604052808281526020018281526020018773ffffffffffffffffffffffffffffffffffffffff1681526020018673ffffffffffffffffffffffffffffffffffffffff1681526020018773ffffffffffffffffffffffffffffffffffffffff1681526020018773ffffffffffffffffffffffffffffffffffffffff168152602001858152602001848152602001600115158152602001600015158152602001600115158152602001600073ffffffffffffffffffffffffffffffffffffffff168152602001600081525060066000838152602001908152602001600020600082015181600001556020820151816001015560408201518160020160006101000a81548173ffffffffffffffffffffffffffffffffffffffff021916908373ffffffffffffffffffffffffffffffffffffffff16021790555060608201518160030160006101000a81548173ffffffffffffffffffffffffffffffffffffffff021916908373ffffffffffffffffffffffffffffffffffffffff16021790555060808201518160040160006101000a81548173ffffffffffffffffffffffffffffffffffffffff021916908373ffffffffffffffffffffffffffffffffffffffff16021790555060a08201518160050160006101000a81548173ffffffffffffffffffffffffffffffffffffffff021916908373ffffffffffffffffffffffffffffffffffffffff16021790555060c0820151816006015560e082015181600701556101008201518160080160006101000a81548160ff0219169083151502179055506101208201518160080160016101000a81548160ff0219169083151502179055506101408201518160080160026101000a81548160ff0219169083151502179055506101608201518160080160036101000a81548173ffffffffffffffffffffffffffffffffffffffff021916908373ffffffffffffffffffffffffffffffffffffffff160217905550610180820151816009015590505080817f1d6df683ff5c1f5463347efa6cfd253c88dd34b1feedaa49491464c7fc91286088888a8b8a8a60016000600160008060405161188c9b9a99989796959493929190613415565b60405180910390a380915050949350505050565b6118a8612b53565b73ffffffffffffffffffffffffffffffffffffffff166118c661208c565b73ffffffffffffffffffffffffffffffffffffffff161461191c576040517f08c379a00000000000000000000000000000000000000000000000000000000081526004016119139061365b565b60405180910390fd5b6119266000612cb1565b565b60008060008060008060006006600089815260200190815260200160002060030160009054906101000a900473ffffffffffffffffffffffffffffffffffffffff16600660008a815260200190815260200160002060020160009054906101000a900473ffffffffffffffffffffffffffffffffffffffff16600660008b815260200190815260200160002060060154600660008c815260200190815260200160002060080160019054906101000a900460ff16600660008d815260200190815260200160002060070154600660008e815260200190815260200160002060040160009054906101000a900473ffffffffffffffffffffffffffffffffffffffff16600660008f815260200190815260200160002060050160009054906101000a900473ffffffffffffffffffffffffffffffffffffffff169650965096509650965096509650919395979092949650565b611a82612b53565b73ffffffffffffffffffffffffffffffffffffffff16611aa061208c565b73ffffffffffffffffffffffffffffffffffffffff1614611af6576040517f08c379a0000000000000000000000000000000000000000000000000000000008152600401611aed9061365b565b60405180910390fd5b60006006600085815260200190815260200160002060080160006101000a81548160ff021916908315150217905550806006600085815260200190815260200160002060060181905550816006600085815260200190815260200160002060020160006101000a81548173ffffffffffffffffffffffffffffffffffffffff021916908373ffffffffffffffffffffffffffffffffffffffff160217905550336006600085815260200190815260200160002060030160006101000a81548173ffffffffffffffffffffffffffffffffffffffff021916908373ffffffffffffffffffffffffffffffffffffffff160217905550611bf46002612d75565b505050565b60606000611c076001612c8d565b905060008060005b83811015611cb0573373ffffffffffffffffffffffffffffffffffffffff1660066000600184611c3f9190613700565b815260200190815260200160002060020160009054906101000a900473ffffffffffffffffffffffffffffffffffffffff1673ffffffffffffffffffffffffffffffffffffffff161415611c9d57600183611c9a9190613700565b92505b8080611ca8906137f6565b915050611c0f565b5060008267ffffffffffffffff811115611cf3577f4e487b7100000000000000000000000000000000000000000000000000000000600052604160045260246000fd5b604051908082528060200260200182016040528015611d2c57816020015b611d19612dfa565b815260200190600190039081611d115790505b50905060005b8481101561207f573373ffffffffffffffffffffffffffffffffffffffff1660066000600184611d629190613700565b815260200190815260200160002060020160009054906101000a900473ffffffffffffffffffffffffffffffffffffffff1673ffffffffffffffffffffffffffffffffffffffff16141561206c576000600182611dbf9190613700565b9050600060066000838152602001908152602001600020905080604051806101a001604052908160008201548152602001600182015481526020016002820160009054906101000a900473ffffffffffffffffffffffffffffffffffffffff1673ffffffffffffffffffffffffffffffffffffffff1673ffffffffffffffffffffffffffffffffffffffff1681526020016003820160009054906101000a900473ffffffffffffffffffffffffffffffffffffffff1673ffffffffffffffffffffffffffffffffffffffff1673ffffffffffffffffffffffffffffffffffffffff1681526020016004820160009054906101000a900473ffffffffffffffffffffffffffffffffffffffff1673ffffffffffffffffffffffffffffffffffffffff1673ffffffffffffffffffffffffffffffffffffffff1681526020016005820160009054906101000a900473ffffffffffffffffffffffffffffffffffffffff1673ffffffffffffffffffffffffffffffffffffffff1673ffffffffffffffffffffffffffffffffffffffff16815260200160068201548152602001600782015481526020016008820160009054906101000a900460ff161515151581526020016008820160019054906101000a900460ff161515151581526020016008820160029054906101000a900460ff161515151581526020016008820160039054906101000a900473ffffffffffffffffffffffffffffffffffffffff1673ffffffffffffffffffffffffffffffffffffffff1673ffffffffffffffffffffffffffffffffffffffff16815260200160098201548152505084868151811061204f577f4e487b7100000000000000000000000000000000000000000000000000000000600052603260045260246000fd5b60200260200101819052506001856120679190613700565b945050505b8080612077906137f6565b915050611d32565b5080945050505050919050565b60008060009054906101000a900473ffffffffffffffffffffffffffffffffffffffff16905090565b60008060006006600085815260200190815260200160002060080160039054906101000a900473ffffffffffffffffffffffffffffffffffffffff16905060006004600086815260200190815260200160002060008373ffffffffffffffffffffffffffffffffffffffff1673ffffffffffffffffffffffffffffffffffffffff1681526020019081526020016000205490508181935093505050915091565b600061215f612b53565b73ffffffffffffffffffffffffffffffffffffffff1661217d61208c565b73ffffffffffffffffffffffffffffffffffffffff16146121d3576040517f08c379a00000000000000000000000000000000000000000000000000000000081526004016121ca9061365b565b60405180910390fd5b6121dd6001612c9b565b60006121e96001612c8d565b9050604051806101a001604052808281526020018281526020018873ffffffffffffffffffffffffffffffffffffffff1681526020018873ffffffffffffffffffffffffffffffffffffffff1681526020018773ffffffffffffffffffffffffffffffffffffffff1681526020018673ffffffffffffffffffffffffffffffffffffffff168152602001858152602001848152602001600115158152602001600115158152602001600115158152602001600073ffffffffffffffffffffffffffffffffffffffff168152602001600081525060066000838152602001908152602001600020600082015181600001556020820151816001015560408201518160020160006101000a81548173ffffffffffffffffffffffffffffffffffffffff021916908373ffffffffffffffffffffffffffffffffffffffff16021790555060608201518160030160006101000a81548173ffffffffffffffffffffffffffffffffffffffff021916908373ffffffffffffffffffffffffffffffffffffffff16021790555060808201518160040160006101000a81548173ffffffffffffffffffffffffffffffffffffffff021916908373ffffffffffffffffffffffffffffffffffffffff16021790555060a08201518160050160006101000a81548173ffffffffffffffffffffffffffffffffffffffff021916908373ffffffffffffffffffffffffffffffffffffffff16021790555060c0820151816006015560e082015181600701556101008201518160080160006101000a81548160ff0219169083151502179055506101208201518160080160016101000a81548160ff0219169083151502179055506101408201518160080160026101000a81548160ff0219169083151502179055506101608201518160080160036101000a81548173ffffffffffffffffffffffffffffffffffffffff021916908373ffffffffffffffffffffffffffffffffffffffff160217905550610180820151816009015590505080817f1d6df683ff5c1f5463347efa6cfd253c88dd34b1feedaa49491464c7fc912860898a8a8a8a8a60018060016000806040516125149b9a99989796959493929190613415565b60405180910390a38091505095945050505050565b612531612b53565b73ffffffffffffffffffffffffffffffffffffffff1661254f61208c565b73ffffffffffffffffffffffffffffffffffffffff16146125a5576040517f08c379a000000000000000000000000000000000000000000000000000000000815260040161259c9061365b565b60405180910390fd5b8073ffffffffffffffffffffffffffffffffffffffff166006600084815260200190815260200160002060020160009054906101000a900473ffffffffffffffffffffffffffffffffffffffff1673ffffffffffffffffffffffffffffffffffffffff1614612649576040517f08c379a00000000000000000000000000000000000000000000000000000000081526004016126409061361b565b60405180910390fd5b3373ffffffffffffffffffffffffffffffffffffffff166006600084815260200190815260200160002060030160009054906101000a900473ffffffffffffffffffffffffffffffffffffffff1673ffffffffffffffffffffffffffffffffffffffff16146126b757600080fd5b6126c16002612c9b565b5050565b6000806000806000806006600088815260200190815260200160002060030160009054906101000a900473ffffffffffffffffffffffffffffffffffffffff166006600089815260200190815260200160002060020160009054906101000a900473ffffffffffffffffffffffffffffffffffffffff16600660008a815260200190815260200160002060080160019054906101000a900460ff16600660008b815260200190815260200160002060070154600660008c815260200190815260200160002060040160009054906101000a900473ffffffffffffffffffffffffffffffffffffffff16600660008d815260200190815260200160002060050160009054906101000a900473ffffffffffffffffffffffffffffffffffffffff1695509550955095509550955091939550919395565b612802612b53565b73ffffffffffffffffffffffffffffffffffffffff1661282061208c565b73ffffffffffffffffffffffffffffffffffffffff1614612876576040517f08c379a000000000000000000000000000000000000000000000000000000000815260040161286d9061365b565b60405180910390fd5b8073ffffffffffffffffffffffffffffffffffffffff166006600084815260200190815260200160002060030160009054906101000a900473ffffffffffffffffffffffffffffffffffffffff1673ffffffffffffffffffffffffffffffffffffffff161461291a576040517f08c379a00000000000000000000000000000000000000000000000000000000081526004016129119061367b565b60405180910390fd5b6006600083815260200190815260200160002060008082016000905560018201600090556002820160006101000a81549073ffffffffffffffffffffffffffffffffffffffff02191690556003820160006101000a81549073ffffffffffffffffffffffffffffffffffffffff02191690556004820160006101000a81549073ffffffffffffffffffffffffffffffffffffffff02191690556005820160006101000a81549073ffffffffffffffffffffffffffffffffffffffff0219169055600682016000905560078201600090556008820160006101000a81549060ff02191690556008820160016101000a81549060ff02191690556008820160026101000a81549060ff02191690556008820160036101000a81549073ffffffffffffffffffffffffffffffffffffffff0219169055600982016000905550505050565b612a63612b53565b73ffffffffffffffffffffffffffffffffffffffff16612a8161208c565b73ffffffffffffffffffffffffffffffffffffffff1614612ad7576040517f08c379a0000000000000000000000000000000000000000000000000000000008152600401612ace9061365b565b60405180910390fd5b600073ffffffffffffffffffffffffffffffffffffffff168173ffffffffffffffffffffffffffffffffffffffff161415612b47576040517f08c379a0000000000000000000000000000000000000000000000000000000008152600401612b3e906135fb565b60405180910390fd5b612b5081612cb1565b50565b600033905090565b612bf181604051602401612b6f919061369b565b6040516020818303038152906040527ff5b1bba9000000000000000000000000000000000000000000000000000000007bffffffffffffffffffffffffffffffffffffffffffffffffffffffff19166020820180517bffffffffffffffffffffffffffffffffffffffffffffffffffffffff8381831617835250505050612dd1565b50565b612c8a81604051602401612c0891906133fa565b6040516020818303038152906040527f2c2ecbc2000000000000000000000000000000000000000000000000000000007bffffffffffffffffffffffffffffffffffffffffffffffffffffffff19166020820180517bffffffffffffffffffffffffffffffffffffffffffffffffffffffff8381831617835250505050612dd1565b50565b600081600001549050919050565b6001816000016000828254019250508190555050565b60008060009054906101000a900473ffffffffffffffffffffffffffffffffffffffff169050816000806101000a81548173ffffffffffffffffffffffffffffffffffffffff021916908373ffffffffffffffffffffffffffffffffffffffff1602179055508173ffffffffffffffffffffffffffffffffffffffff168173ffffffffffffffffffffffffffffffffffffffff167f8be0079c531659141344cd1fd0a4f28419497f9722a3daafe3b4186f6b6457e060405160405180910390a35050565b60008160000154905060008111612dc1576040517f08c379a0000000000000000000000000000000000000000000000000000000008152600401612db8906135db565b60405180910390fd5b6001810382600001819055505050565b60008151905060006a636f6e736f6c652e6c6f679050602083016000808483855afa5050505050565b604051806101a001604052806000815260200160008152602001600073ffffffffffffffffffffffffffffffffffffffff168152602001600073ffffffffffffffffffffffffffffffffffffffff168152602001600073ffffffffffffffffffffffffffffffffffffffff168152602001600073ffffffffffffffffffffffffffffffffffffffff1681526020016000815260200160008152602001600015158152602001600015158152602001600015158152602001600073ffffffffffffffffffffffffffffffffffffffff168152602001600081525090565b600081359050612ee5816139fc565b92915050565b600081359050612efa81613a13565b92915050565b600060208284031215612f1257600080fd5b6000612f2084828501612ed6565b91505092915050565b600080600080600060a08688031215612f4157600080fd5b6000612f4f88828901612ed6565b9550506020612f6088828901612ed6565b9450506040612f7188828901612ed6565b9350506060612f8288828901612eeb565b9250506080612f9388828901612eeb565b9150509295509295909350565b60008060008060808587031215612fb657600080fd5b6000612fc487828801612ed6565b9450506020612fd587828801612ed6565b9350506040612fe687828801612eeb565b9250506060612ff787828801612eeb565b91505092959194509250565b60006020828403121561301557600080fd5b600061302384828501612eeb565b91505092915050565b6000806040838503121561303f57600080fd5b600061304d85828601612eeb565b925050602061305e85828601612ed6565b9150509250929050565b600080600080600060a0868803121561308057600080fd5b600061308e88828901612eeb565b955050602061309f88828901612ed6565b94505060406130b088828901612ed6565b93505060606130c188828901612eeb565b92505060806130d288828901612eeb565b9150509295509295909350565b6000806000606084860312156130f457600080fd5b600061310286828701612eeb565b935050602061311386828701612ed6565b925050604061312486828701612eeb565b9150509250925092565b600061313a83836132d1565b6101a08301905092915050565b6131508161379c565b82525050565b61315f8161378a565b82525050565b61316e8161378a565b82525050565b600061317f826136c6565b61318981856136de565b9350613194836136b6565b8060005b838110156131c55781516131ac888261312e565b97506131b7836136d1565b925050600181019050613198565b5085935050505092915050565b6131db816137ae565b82525050565b6131ea816137ae565b82525050565b6131f9816137e4565b82525050565b600061320c601b836136ef565b91506132178261386e565b602082019050919050565b600061322f6026836136ef565b915061323a82613897565b604082019050919050565b6000613252602b836136ef565b915061325d826138e6565b604082019050919050565b60006132756042836136ef565b915061328082613935565b606082019050919050565b60006132986020836136ef565b91506132a3826139aa565b602082019050919050565b60006132bb601e836136ef565b91506132c6826139d3565b602082019050919050565b6101a0820160008201516132e860008501826133dc565b5060208201516132fb60208501826133dc565b50604082015161330e6040850182613147565b5060608201516133216060850182613147565b5060808201516133346080850182613147565b5060a082015161334760a0850182613147565b5060c082015161335a60c08501826133dc565b5060e082015161336d60e08501826133dc565b506101008201516133826101008501826131d2565b506101208201516133976101208501826131d2565b506101408201516133ac6101408501826131d2565b506101608201516133c1610160850182613156565b506101808201516133d66101808501826133dc565b50505050565b6133e5816137da565b82525050565b6133f4816137da565b82525050565b600060208201905061340f6000830184613165565b92915050565b60006101608201905061342b600083018e613165565b613438602083018d613165565b613445604083018c613165565b613452606083018b613165565b61345f608083018a6133eb565b61346c60a08301896133eb565b61347960c08301886131e1565b61348660e08301876131e1565b6134946101008301866131e1565b6134a2610120830185613165565b6134b06101408301846131f0565b9c9b505050505050505050505050565b600060c0820190506134d56000830189613165565b6134e26020830188613165565b6134ef60408301876131e1565b6134fc60608301866133eb565b6135096080830185613165565b61351660a0830184613165565b979650505050505050565b600060e082019050613536600083018a613165565b6135436020830189613165565b61355060408301886133eb565b61355d60608301876131e1565b61356a60808301866133eb565b61357760a0830185613165565b61358460c0830184613165565b98975050505050505050565b60006040820190506135a56000830185613165565b6135b260208301846133eb565b9392505050565b600060208201905081810360008301526135d38184613174565b905092915050565b600060208201905081810360008301526135f4816131ff565b9050919050565b6000602082019050818103600083015261361481613222565b9050919050565b6000602082019050818103600083015261363481613245565b9050919050565b6000602082019050818103600083015261365481613268565b9050919050565b600060208201905081810360008301526136748161328b565b9050919050565b60006020820190508181036000830152613694816132ae565b9050919050565b60006020820190506136b060008301846133eb565b92915050565b6000819050602082019050919050565b600081519050919050565b6000602082019050919050565b600082825260208201905092915050565b600082825260208201905092915050565b600061370b826137da565b9150613716836137da565b9250827fffffffffffffffffffffffffffffffffffffffffffffffffffffffffffffffff0382111561374b5761374a61383f565b5b828201905092915050565b6000613761826137da565b915061376c836137da565b92508282101561377f5761377e61383f565b5b828203905092915050565b6000613795826137ba565b9050919050565b60006137a7826137ba565b9050919050565b60008115159050919050565b600073ffffffffffffffffffffffffffffffffffffffff82169050919050565b6000819050919050565b60006137ef826137da565b9050919050565b6000613801826137da565b91507fffffffffffffffffffffffffffffffffffffffffffffffffffffffffffffffff8214156138345761383361383f565b5b600182019050919050565b7f4e487b7100000000000000000000000000000000000000000000000000000000600052601160045260246000fd5b7f436f756e7465723a2064656372656d656e74206f766572666c6f770000000000600082015250565b7f4f776e61626c653a206e6577206f776e657220697320746865207a65726f206160008201527f6464726573730000000000000000000000000000000000000000000000000000602082015250565b7f4f6e6c79206974656d2073656c6c65722063616e20706572666f726d2074686960008201527f73206f7065726174696f6e000000000000000000000000000000000000000000602082015250565b7f43616e6e6f74207375626d6974206120626964206c657373207468616e206f7260008201527f20657175616c20746f2074686520686967686573742070726576696f7573206260208201527f6964000000000000000000000000000000000000000000000000000000000000604082015250565b7f4f776e61626c653a2063616c6c6572206973206e6f7420746865206f776e6572600082015250565b7f4f6e6c792070726576696f7573206f776e65722063616e2064656c6574650000600082015250565b613a058161378a565b8114613a1057600080fd5b50565b613a1c816137da565b8114613a2757600080fd5b5056fea2646970667358221220ce621a7eca3aec762c2f4f93fa982a9fe83ad6a9275e3337be9cc4d594c97f7e64736f6c63430008040033",
  "linkReferences": {},
  "deployedLinkReferences": {}
}