{
  "_format": "hh-sol-artifact-1",
  "contractName": "NFTMarketplaceStorage",
  "sourceName": "contracts/NFTMarketplace.sol",
  "abi": [
    {
      "inputs": [
        {
          "internalType": "address",
          "name": "_WETH",
          "type": "address"
        }
      ],
      "stateMutability": "nonpayable",
      "type": "constructor"
    },
    {
      "anonymous": false,
      "inputs": [
        {
          "indexed": true,
          "internalType": "uint256",
          "name": "tokenId",
          "type": "uint256"
        },
        {
          "indexed": false,
          "internalType": "address",
          "name": "seller",
          "type": "address"
        },
        {
          "indexed": false,
          "internalType": "address",
          "name": "owner",
          "type": "address"
        },
        {
          "indexed": false,
          "internalType": "address",
          "name": "publisher",
          "type": "address"
        },
        {
          "indexed": false,
          "internalType": "address",
          "name": "publisherTwo",
          "type": "address"
        },
        {
          "indexed": false,
          "internalType": "address",
          "name": "tokenAddress",
          "type": "address"
        },
        {
          "indexed": false,
          "internalType": "uint256",
          "name": "price",
          "type": "uint256"
        },
        {
          "indexed": false,
          "internalType": "uint256",
          "name": "royalty",
          "type": "uint256"
        },
        {
          "indexed": false,
          "internalType": "bool",
          "name": "sold",
          "type": "bool"
        },
        {
          "indexed": false,
          "internalType": "bool",
          "name": "bred",
          "type": "bool"
        }
      ],
      "name": "MarketItemCreated",
      "type": "event"
    },
    {
      "anonymous": false,
      "inputs": [
        {
          "indexed": true,
          "internalType": "address",
          "name": "previousOwner",
          "type": "address"
        },
        {
          "indexed": true,
          "internalType": "address",
          "name": "newOwner",
          "type": "address"
        }
      ],
      "name": "OwnershipTransferred",
      "type": "event"
    },
    {
      "anonymous": false,
      "inputs": [
        {
          "indexed": true,
          "internalType": "uint256",
          "name": "bid",
          "type": "uint256"
        },
        {
          "indexed": false,
          "internalType": "address",
          "name": "bidder",
          "type": "address"
        }
      ],
      "name": "bidPlaced",
      "type": "event"
    },
    {
      "inputs": [
        {
          "internalType": "address",
          "name": "tokenAddress",
          "type": "address"
        },
        {
          "internalType": "uint256",
          "name": "tokenId",
          "type": "uint256"
        }
      ],
      "name": "checkIfItemExists",
      "outputs": [
        {
          "internalType": "bool",
          "name": "",
          "type": "bool"
        }
      ],
      "stateMutability": "view",
      "type": "function"
    },
    {
      "inputs": [
        {
          "internalType": "address",
          "name": "seller",
          "type": "address"
        }
      ],
      "name": "fetchItemsListed",
      "outputs": [
        {
          "components": [
            {
              "internalType": "uint256",
              "name": "tokenId",
              "type": "uint256"
            },
            {
              "internalType": "address payable",
              "name": "seller",
              "type": "address"
            },
            {
              "internalType": "address payable",
              "name": "owner",
              "type": "address"
            },
            {
              "internalType": "address payable",
              "name": "publisher",
              "type": "address"
            },
            {
              "internalType": "address payable",
              "name": "publisherTwo",
              "type": "address"
            },
            {
              "internalType": "address",
              "name": "tokenAddress",
              "type": "address"
            },
            {
              "internalType": "uint256",
              "name": "price",
              "type": "uint256"
            },
            {
              "internalType": "uint256",
              "name": "royalty",
              "type": "uint256"
            },
            {
              "internalType": "bool",
              "name": "sold",
              "type": "bool"
            },
            {
              "internalType": "bool",
              "name": "bred",
              "type": "bool"
            }
          ],
          "internalType": "struct NFTMarketplaceStorage.MarketItem[]",
          "name": "",
          "type": "tuple[]"
        }
      ],
      "stateMutability": "view",
      "type": "function"
    },
    {
      "inputs": [],
      "name": "fetchMarketItems",
      "outputs": [
        {
          "components": [
            {
              "internalType": "uint256",
              "name": "tokenId",
              "type": "uint256"
            },
            {
              "internalType": "address payable",
              "name": "seller",
              "type": "address"
            },
            {
              "internalType": "address payable",
              "name": "owner",
              "type": "address"
            },
            {
              "internalType": "address payable",
              "name": "publisher",
              "type": "address"
            },
            {
              "internalType": "address payable",
              "name": "publisherTwo",
              "type": "address"
            },
            {
              "internalType": "address",
              "name": "tokenAddress",
              "type": "address"
            },
            {
              "internalType": "uint256",
              "name": "price",
              "type": "uint256"
            },
            {
              "internalType": "uint256",
              "name": "royalty",
              "type": "uint256"
            },
            {
              "internalType": "bool",
              "name": "sold",
              "type": "bool"
            },
            {
              "internalType": "bool",
              "name": "bred",
              "type": "bool"
            }
          ],
          "internalType": "struct NFTMarketplaceStorage.MarketItem[]",
          "name": "",
          "type": "tuple[]"
        }
      ],
      "stateMutability": "view",
      "type": "function"
    },
    {
      "inputs": [],
      "name": "fetchMyNFTs",
      "outputs": [
        {
          "components": [
            {
              "internalType": "uint256",
              "name": "tokenId",
              "type": "uint256"
            },
            {
              "internalType": "address payable",
              "name": "seller",
              "type": "address"
            },
            {
              "internalType": "address payable",
              "name": "owner",
              "type": "address"
            },
            {
              "internalType": "address payable",
              "name": "publisher",
              "type": "address"
            },
            {
              "internalType": "address payable",
              "name": "publisherTwo",
              "type": "address"
            },
            {
              "internalType": "address",
              "name": "tokenAddress",
              "type": "address"
            },
            {
              "internalType": "uint256",
              "name": "price",
              "type": "uint256"
            },
            {
              "internalType": "uint256",
              "name": "royalty",
              "type": "uint256"
            },
            {
              "internalType": "bool",
              "name": "sold",
              "type": "bool"
            },
            {
              "internalType": "bool",
              "name": "bred",
              "type": "bool"
            }
          ],
          "internalType": "struct NFTMarketplaceStorage.MarketItem[]",
          "name": "",
          "type": "tuple[]"
        }
      ],
      "stateMutability": "view",
      "type": "function"
    },
    {
      "inputs": [
        {
          "internalType": "uint256",
          "name": "marketItemId",
          "type": "uint256"
        },
        {
          "internalType": "address",
          "name": "bidder",
          "type": "address"
        }
      ],
      "name": "getItemBid",
      "outputs": [
        {
          "internalType": "uint256",
          "name": "",
          "type": "uint256"
        }
      ],
      "stateMutability": "view",
      "type": "function"
    },
    {
      "inputs": [
        {
          "internalType": "uint256",
          "name": "marketItemId",
          "type": "uint256"
        }
      ],
      "name": "getItemBred",
      "outputs": [
        {
          "internalType": "bool",
          "name": "",
          "type": "bool"
        }
      ],
      "stateMutability": "view",
      "type": "function"
    },
    {
      "inputs": [
        {
          "internalType": "uint256",
          "name": "marketItemId",
          "type": "uint256"
        }
      ],
      "name": "getItemOwner",
      "outputs": [
        {
          "internalType": "address",
          "name": "",
          "type": "address"
        }
      ],
      "stateMutability": "view",
      "type": "function"
    },
    {
      "inputs": [
        {
          "internalType": "uint256",
          "name": "marketItemId",
          "type": "uint256"
        }
      ],
      "name": "getItemPrice",
      "outputs": [
        {
          "internalType": "uint256",
          "name": "",
          "type": "uint256"
        }
      ],
      "stateMutability": "view",
      "type": "function"
    },
    {
      "inputs": [
        {
          "internalType": "uint256",
          "name": "marketItemId",
          "type": "uint256"
        }
      ],
      "name": "getItemPublisherOne",
      "outputs": [
        {
          "internalType": "address",
          "name": "",
          "type": "address"
        }
      ],
      "stateMutability": "view",
      "type": "function"
    },
    {
      "inputs": [
        {
          "internalType": "uint256",
          "name": "marketItemId",
          "type": "uint256"
        }
      ],
      "name": "getItemPublisherTwo",
      "outputs": [
        {
          "internalType": "address",
          "name": "",
          "type": "address"
        }
      ],
      "stateMutability": "view",
      "type": "function"
    },
    {
      "inputs": [
        {
          "internalType": "uint256",
          "name": "marketItemId",
          "type": "uint256"
        }
      ],
      "name": "getItemRoyalty",
      "outputs": [
        {
          "internalType": "uint256",
          "name": "",
          "type": "uint256"
        }
      ],
      "stateMutability": "view",
      "type": "function"
    },
    {
      "inputs": [
        {
          "internalType": "uint256",
          "name": "marketItemId",
          "type": "uint256"
        }
      ],
      "name": "getItemSeller",
      "outputs": [
        {
          "internalType": "address",
          "name": "",
          "type": "address"
        }
      ],
      "stateMutability": "view",
      "type": "function"
    },
    {
      "inputs": [
        {
          "internalType": "uint256",
          "name": "marketItemId",
          "type": "uint256"
        }
      ],
      "name": "getItemTokenId",
      "outputs": [
        {
          "internalType": "uint256",
          "name": "",
          "type": "uint256"
        }
      ],
      "stateMutability": "view",
      "type": "function"
    },
    {
      "inputs": [],
      "name": "owner",
      "outputs": [
        {
          "internalType": "address",
          "name": "",
          "type": "address"
        }
      ],
      "stateMutability": "view",
      "type": "function"
    },
    {
      "inputs": [],
      "name": "renounceOwnership",
      "outputs": [],
      "stateMutability": "nonpayable",
      "type": "function"
    },
    {
      "inputs": [
        {
          "internalType": "address",
          "name": "bidder",
          "type": "address"
        },
        {
          "internalType": "uint256",
          "name": "bid",
          "type": "uint256"
        },
        {
          "internalType": "uint256",
          "name": "marketItemId",
          "type": "uint256"
        }
      ],
      "name": "setItemBid",
      "outputs": [],
      "stateMutability": "nonpayable",
      "type": "function"
    },
    {
      "inputs": [
        {
          "internalType": "uint256",
          "name": "tokenId",
          "type": "uint256"
        },
        {
          "internalType": "address",
          "name": "newOwner",
          "type": "address"
        },
        {
          "internalType": "uint256",
          "name": "price",
          "type": "uint256"
        }
      ],
      "name": "setMarketSale",
      "outputs": [],
      "stateMutability": "nonpayable",
      "type": "function"
    },
    {
      "inputs": [
        {
          "internalType": "address",
          "name": "creator",
          "type": "address"
        },
        {
          "internalType": "address",
          "name": "publisherOne",
          "type": "address"
        },
        {
          "internalType": "address",
          "name": "publisherTwo",
          "type": "address"
        },
        {
          "internalType": "uint256",
          "name": "price",
          "type": "uint256"
        },
        {
          "internalType": "uint256",
          "name": "bredRoyaltyValue",
          "type": "uint256"
        }
      ],
      "name": "storeBredItem",
      "outputs": [
        {
          "internalType": "uint256",
          "name": "",
          "type": "uint256"
        }
      ],
      "stateMutability": "nonpayable",
      "type": "function"
    },
    {
      "inputs": [
        {
          "internalType": "uint256",
          "name": "marketItemId",
          "type": "uint256"
        },
        {
          "internalType": "address",
          "name": "owner",
          "type": "address"
        }
      ],
      "name": "storeDelistData",
      "outputs": [],
      "stateMutability": "nonpayable",
      "type": "function"
    },
    {
      "inputs": [
        {
          "internalType": "address",
          "name": "signer",
          "type": "address"
        },
        {
          "internalType": "address",
          "name": "buyer",
          "type": "address"
        },
        {
          "internalType": "uint256",
          "name": "price",
          "type": "uint256"
        },
        {
          "internalType": "uint256",
          "name": "royaltyAmount",
          "type": "uint256"
        }
      ],
      "name": "storeLazyMintedItem",
      "outputs": [
        {
          "internalType": "uint256",
          "name": "",
          "type": "uint256"
        }
      ],
      "stateMutability": "nonpayable",
      "type": "function"
    },
    {
      "inputs": [
        {
          "internalType": "uint256",
          "name": "tokenId",
          "type": "uint256"
        },
        {
          "internalType": "address",
          "name": "seller",
          "type": "address"
        },
        {
          "internalType": "address",
          "name": "royaltyAddress",
          "type": "address"
        },
        {
          "internalType": "uint256",
          "name": "royaltyAmount",
          "type": "uint256"
        },
        {
          "internalType": "uint256",
          "name": "price",
          "type": "uint256"
        },
        {
          "internalType": "address",
          "name": "tokenAddress",
          "type": "address"
        }
      ],
      "name": "storeMarketItem",
      "outputs": [],
      "stateMutability": "nonpayable",
      "type": "function"
    },
    {
      "inputs": [
        {
          "internalType": "uint256",
          "name": "marketItemId",
          "type": "uint256"
        },
        {
          "internalType": "address",
          "name": "owner",
          "type": "address"
        },
        {
          "internalType": "uint256",
          "name": "price",
          "type": "uint256"
        }
      ],
      "name": "storeResellData",
      "outputs": [],
      "stateMutability": "nonpayable",
      "type": "function"
    },
    {
      "inputs": [
        {
          "internalType": "address",
          "name": "newOwner",
          "type": "address"
        }
      ],
      "name": "transferOwnership",
      "outputs": [],
      "stateMutability": "nonpayable",
      "type": "function"
    },
    {
      "inputs": [
        {
          "internalType": "address",
          "name": "bidder",
          "type": "address"
        },
        {
          "internalType": "uint256",
          "name": "marketItemId",
          "type": "uint256"
        }
      ],
      "name": "withdrawItemBid",
      "outputs": [],
      "stateMutability": "nonpayable",
      "type": "function"
    }
  ],
  "bytecode": "0x60806040523480156200001157600080fd5b506040516200366738038062003667833981810160405281019062000037919062000182565b620000576200004b6200009f60201b60201c565b620000a760201b60201c565b80600460006101000a81548173ffffffffffffffffffffffffffffffffffffffff021916908373ffffffffffffffffffffffffffffffffffffffff16021790555050620001fc565b600033905090565b60008060009054906101000a900473ffffffffffffffffffffffffffffffffffffffff169050816000806101000a81548173ffffffffffffffffffffffffffffffffffffffff021916908373ffffffffffffffffffffffffffffffffffffffff1602179055508173ffffffffffffffffffffffffffffffffffffffff168173ffffffffffffffffffffffffffffffffffffffff167f8be0079c531659141344cd1fd0a4f28419497f9722a3daafe3b4186f6b6457e060405160405180910390a35050565b6000815190506200017c81620001e2565b92915050565b6000602082840312156200019557600080fd5b6000620001a5848285016200016b565b91505092915050565b6000620001bb82620001c2565b9050919050565b600073ffffffffffffffffffffffffffffffffffffffff82169050919050565b620001ed81620001ae565b8114620001f957600080fd5b50565b61345b806200020c6000396000f3fe608060405234801561001057600080fd5b50600436106101585760003560e01c80638da5cb5b116100c3578063be3791b81161007c578063be3791b8146103e9578063c74292b314610419578063cf41b05614610449578063dbd82b0314610479578063e8fc9caa146104a9578063f2fde38b146104d957610158565b80638da5cb5b14610303578063929151c6146103215780639e50d61a14610351578063a36a69821461036d578063a785c3901461039d578063a917f66f146103b957610158565b80633e14ba31116101155780633e14ba31146102315780634a090dbf1461024d5780634c4df8701461027d578063715018a6146102ad57806383073043146102b75780638a410b1a146102d357610158565b80630f08efe01461015d5780631d1440fd1461017b5780631e5ffb79146101ab578063202e3740146101c7578063249de752146101e5578063370ef45a14610201575b600080fd5b6101656104f5565b60405161017291906130af565b60405180910390f35b61019560048036038101906101909190612c69565b610903565b6040516101a29190613007565b60405180910390f35b6101c560048036038101906101c09190612d80565b610943565b005b6101cf610ac2565b6040516101dc91906130af565b60405180910390f35b6101ff60048036038101906101fa9190612c1a565b610f24565b005b61021b60048036038101906102169190612c69565b6110ec565b604051610228919061316c565b60405180910390f35b61024b60048036038101906102469190612cbb565b61110c565b005b61026760048036038101906102629190612b7b565b61126f565b604051610274919061316c565b60405180910390f35b61029760048036038101906102929190612c69565b6115f8565b6040516102a4919061316c565b60405180910390f35b6102b5611618565b005b6102d160048036038101906102cc9190612d80565b6116a0565b005b6102ed60048036038101906102e89190612adb565b61181f565b6040516102fa91906130af565b60405180910390f35b61030b611c83565b6040516103189190613007565b60405180910390f35b61033b60048036038101906103369190612c69565b611cac565b60405161034891906130d1565b60405180910390f35b61036b60048036038101906103669190612bde565b611cd9565b005b61038760048036038101906103829190612c69565b611daf565b604051610394919061316c565b60405180910390f35b6103b760048036038101906103b29190612cf7565b611dcf565b005b6103d360048036038101906103ce9190612c69565b612148565b6040516103e09190613007565b60405180910390f35b61040360048036038101906103fe9190612b04565b612188565b604051610410919061316c565b60405180910390f35b610433600480360381019061042e9190612cbb565b612507565b604051610440919061316c565b60405180910390f35b610463600480360381019061045e9190612c69565b612562565b6040516104709190613007565b60405180910390f35b610493600480360381019061048e9190612c69565b6125a2565b6040516104a09190613007565b60405180910390f35b6104c360048036038101906104be9190612bde565b6125e2565b6040516104d091906130d1565b60405180910390f35b6104f360048036038101906104ee9190612adb565b6126d1565b005b6060600061050360016127c9565b905061051761051260026127c9565b6127d7565b600061052360026127c9565b61052d60016127c9565b6105379190613227565b9050600080610544611c83565b905060008467ffffffffffffffff811115610588577f4e487b7100000000000000000000000000000000000000000000000000000000600052604160045260246000fd5b6040519080825280602002602001820160405280156105c157816020015b6105ae6129d7565b8152602001906001900390816105a65790505b50905060005b858110156108f7578273ffffffffffffffffffffffffffffffffffffffff16600660006001846105f791906131d1565b815260200190815260200160002060020160009054906101000a900473ffffffffffffffffffffffffffffffffffffffff1673ffffffffffffffffffffffffffffffffffffffff1614156108e457600060018261065491906131d1565b905061065f816127d7565b610668866127d7565b60006006600083815260200190815260200160002090508060405180610140016040529081600082015481526020016001820160009054906101000a900473ffffffffffffffffffffffffffffffffffffffff1673ffffffffffffffffffffffffffffffffffffffff1673ffffffffffffffffffffffffffffffffffffffff1681526020016002820160009054906101000a900473ffffffffffffffffffffffffffffffffffffffff1673ffffffffffffffffffffffffffffffffffffffff1673ffffffffffffffffffffffffffffffffffffffff1681526020016003820160009054906101000a900473ffffffffffffffffffffffffffffffffffffffff1673ffffffffffffffffffffffffffffffffffffffff1673ffffffffffffffffffffffffffffffffffffffff1681526020016004820160009054906101000a900473ffffffffffffffffffffffffffffffffffffffff1673ffffffffffffffffffffffffffffffffffffffff1673ffffffffffffffffffffffffffffffffffffffff1681526020016005820160009054906101000a900473ffffffffffffffffffffffffffffffffffffffff1673ffffffffffffffffffffffffffffffffffffffff1673ffffffffffffffffffffffffffffffffffffffff16815260200160068201548152602001600782015481526020016008820160009054906101000a900460ff161515151581526020016008820160019054906101000a900460ff1615151515815250508487815181106108c7577f4e487b7100000000000000000000000000000000000000000000000000000000600052603260045260246000fd5b60200260200101819052506001866108df91906131d1565b955050505b80806108ef906132b5565b9150506105c7565b50809550505050505090565b60006006600083815260200190815260200160002060020160009054906101000a900473ffffffffffffffffffffffffffffffffffffffff169050919050565b61094b612870565b73ffffffffffffffffffffffffffffffffffffffff16610969611c83565b73ffffffffffffffffffffffffffffffffffffffff16146109bf576040517f08c379a00000000000000000000000000000000000000000000000000000000081526004016109b69061312c565b60405180910390fd5b6109c96002612878565b816006600085815260200190815260200160002060020160006101000a81548173ffffffffffffffffffffffffffffffffffffffff021916908373ffffffffffffffffffffffffffffffffffffffff16021790555060016006600085815260200190815260200160002060080160006101000a81548160ff021916908315150217905550336006600085815260200190815260200160002060010160006101000a81548173ffffffffffffffffffffffffffffffffffffffff021916908373ffffffffffffffffffffffffffffffffffffffff160217905550806006600085815260200190815260200160002060060181905550505050565b60606000610ad060016127c9565b905060008060005b83811015610b79573373ffffffffffffffffffffffffffffffffffffffff1660066000600184610b0891906131d1565b815260200190815260200160002060020160009054906101000a900473ffffffffffffffffffffffffffffffffffffffff1673ffffffffffffffffffffffffffffffffffffffff161415610b6657600183610b6391906131d1565b92505b8080610b71906132b5565b915050610ad8565b5060008267ffffffffffffffff811115610bbc577f4e487b7100000000000000000000000000000000000000000000000000000000600052604160045260246000fd5b604051908082528060200260200182016040528015610bf557816020015b610be26129d7565b815260200190600190039081610bda5790505b50905060005b84811015610f19573373ffffffffffffffffffffffffffffffffffffffff1660066000600184610c2b91906131d1565b815260200190815260200160002060020160009054906101000a900473ffffffffffffffffffffffffffffffffffffffff1673ffffffffffffffffffffffffffffffffffffffff161415610f06576000600182610c8891906131d1565b905060006006600083815260200190815260200160002090508060405180610140016040529081600082015481526020016001820160009054906101000a900473ffffffffffffffffffffffffffffffffffffffff1673ffffffffffffffffffffffffffffffffffffffff1673ffffffffffffffffffffffffffffffffffffffff1681526020016002820160009054906101000a900473ffffffffffffffffffffffffffffffffffffffff1673ffffffffffffffffffffffffffffffffffffffff1673ffffffffffffffffffffffffffffffffffffffff1681526020016003820160009054906101000a900473ffffffffffffffffffffffffffffffffffffffff1673ffffffffffffffffffffffffffffffffffffffff1673ffffffffffffffffffffffffffffffffffffffff1681526020016004820160009054906101000a900473ffffffffffffffffffffffffffffffffffffffff1673ffffffffffffffffffffffffffffffffffffffff1673ffffffffffffffffffffffffffffffffffffffff1681526020016005820160009054906101000a900473ffffffffffffffffffffffffffffffffffffffff1673ffffffffffffffffffffffffffffffffffffffff1673ffffffffffffffffffffffffffffffffffffffff16815260200160068201548152602001600782015481526020016008820160009054906101000a900460ff161515151581526020016008820160019054906101000a900460ff161515151581525050848681518110610ee9577f4e487b7100000000000000000000000000000000000000000000000000000000600052603260045260246000fd5b6020026020010181905250600185610f0191906131d1565b945050505b8080610f11906132b5565b915050610bfb565b508094505050505090565b610f2c612870565b73ffffffffffffffffffffffffffffffffffffffff16610f4a611c83565b73ffffffffffffffffffffffffffffffffffffffff1614610fa0576040517f08c379a0000000000000000000000000000000000000000000000000000000008152600401610f979061312c565b60405180910390fd5b6000600460009054906101000a900473ffffffffffffffffffffffffffffffffffffffff169050828173ffffffffffffffffffffffffffffffffffffffff166370a08231336040518263ffffffff1660e01b81526004016110019190613007565b60206040518083038186803b15801561101957600080fd5b505afa15801561102d573d6000803e3d6000fd5b505050506040513d601f19601f820116820180604052508101906110519190612c92565b11611091576040517f08c379a00000000000000000000000000000000000000000000000000000000081526004016110889061314c565b60405180910390fd5b826005600084815260200190815260200160002060008673ffffffffffffffffffffffffffffffffffffffff1673ffffffffffffffffffffffffffffffffffffffff1681526020019081526020016000208190555050505050565b600060066000838152602001908152602001600020600001549050919050565b611114612870565b73ffffffffffffffffffffffffffffffffffffffff16611132611c83565b73ffffffffffffffffffffffffffffffffffffffff1614611188576040517f08c379a000000000000000000000000000000000000000000000000000000000815260040161117f9061312c565b60405180910390fd5b60016006600084815260200190815260200160002060080160006101000a81548160ff021916908315150217905550336006600084815260200190815260200160002060010160006101000a81548173ffffffffffffffffffffffffffffffffffffffff021916908373ffffffffffffffffffffffffffffffffffffffff160217905550806006600084815260200190815260200160002060020160006101000a81548173ffffffffffffffffffffffffffffffffffffffff021916908373ffffffffffffffffffffffffffffffffffffffff16021790555061126b6002612878565b5050565b6000611279612870565b73ffffffffffffffffffffffffffffffffffffffff16611297611c83565b73ffffffffffffffffffffffffffffffffffffffff16146112ed576040517f08c379a00000000000000000000000000000000000000000000000000000000081526004016112e49061312c565b60405180910390fd5b6112f76001612878565b6113016002612878565b600061130d60016127c9565b90506040518061014001604052808281526020018773ffffffffffffffffffffffffffffffffffffffff1681526020018673ffffffffffffffffffffffffffffffffffffffff1681526020018773ffffffffffffffffffffffffffffffffffffffff1681526020018773ffffffffffffffffffffffffffffffffffffffff1681526020013373ffffffffffffffffffffffffffffffffffffffff16815260200185815260200184815260200160011515815260200160001515815250600660008381526020019081526020016000206000820151816000015560208201518160010160006101000a81548173ffffffffffffffffffffffffffffffffffffffff021916908373ffffffffffffffffffffffffffffffffffffffff16021790555060408201518160020160006101000a81548173ffffffffffffffffffffffffffffffffffffffff021916908373ffffffffffffffffffffffffffffffffffffffff16021790555060608201518160030160006101000a81548173ffffffffffffffffffffffffffffffffffffffff021916908373ffffffffffffffffffffffffffffffffffffffff16021790555060808201518160040160006101000a81548173ffffffffffffffffffffffffffffffffffffffff021916908373ffffffffffffffffffffffffffffffffffffffff16021790555060a08201518160050160006101000a81548173ffffffffffffffffffffffffffffffffffffffff021916908373ffffffffffffffffffffffffffffffffffffffff16021790555060c0820151816006015560e082015181600701556101008201518160080160006101000a81548160ff0219169083151502179055506101208201518160080160016101000a81548160ff021916908315150217905550905050807f862b935210c9bfb60f9133da3b3c9d525016de4b1d75c2682abb92fa96ea219d8787898a338a8a600160006040516115e499989796959493929190613022565b60405180910390a280915050949350505050565b600060066000838152602001908152602001600020600601549050919050565b611620612870565b73ffffffffffffffffffffffffffffffffffffffff1661163e611c83565b73ffffffffffffffffffffffffffffffffffffffff1614611694576040517f08c379a000000000000000000000000000000000000000000000000000000000815260040161168b9061312c565b60405180910390fd5b61169e600061288e565b565b6116a8612870565b73ffffffffffffffffffffffffffffffffffffffff166116c6611c83565b73ffffffffffffffffffffffffffffffffffffffff161461171c576040517f08c379a00000000000000000000000000000000000000000000000000000000081526004016117139061312c565b60405180910390fd5b60006006600085815260200190815260200160002060080160006101000a81548160ff021916908315150217905550806006600085815260200190815260200160002060060181905550816006600085815260200190815260200160002060010160006101000a81548173ffffffffffffffffffffffffffffffffffffffff021916908373ffffffffffffffffffffffffffffffffffffffff160217905550336006600085815260200190815260200160002060020160006101000a81548173ffffffffffffffffffffffffffffffffffffffff021916908373ffffffffffffffffffffffffffffffffffffffff16021790555061181a6002612952565b505050565b6060600061182d60016127c9565b905060008060005b838110156118d6573373ffffffffffffffffffffffffffffffffffffffff166006600060018461186591906131d1565b815260200190815260200160002060010160009054906101000a900473ffffffffffffffffffffffffffffffffffffffff1673ffffffffffffffffffffffffffffffffffffffff1614156118c3576001836118c091906131d1565b92505b80806118ce906132b5565b915050611835565b5060008267ffffffffffffffff811115611919577f4e487b7100000000000000000000000000000000000000000000000000000000600052604160045260246000fd5b60405190808252806020026020018201604052801561195257816020015b61193f6129d7565b8152602001906001900390816119375790505b50905060005b84811015611c76573373ffffffffffffffffffffffffffffffffffffffff166006600060018461198891906131d1565b815260200190815260200160002060010160009054906101000a900473ffffffffffffffffffffffffffffffffffffffff1673ffffffffffffffffffffffffffffffffffffffff161415611c635760006001826119e591906131d1565b905060006006600083815260200190815260200160002090508060405180610140016040529081600082015481526020016001820160009054906101000a900473ffffffffffffffffffffffffffffffffffffffff1673ffffffffffffffffffffffffffffffffffffffff1673ffffffffffffffffffffffffffffffffffffffff1681526020016002820160009054906101000a900473ffffffffffffffffffffffffffffffffffffffff1673ffffffffffffffffffffffffffffffffffffffff1673ffffffffffffffffffffffffffffffffffffffff1681526020016003820160009054906101000a900473ffffffffffffffffffffffffffffffffffffffff1673ffffffffffffffffffffffffffffffffffffffff1673ffffffffffffffffffffffffffffffffffffffff1681526020016004820160009054906101000a900473ffffffffffffffffffffffffffffffffffffffff1673ffffffffffffffffffffffffffffffffffffffff1673ffffffffffffffffffffffffffffffffffffffff1681526020016005820160009054906101000a900473ffffffffffffffffffffffffffffffffffffffff1673ffffffffffffffffffffffffffffffffffffffff1673ffffffffffffffffffffffffffffffffffffffff16815260200160068201548152602001600782015481526020016008820160009054906101000a900460ff161515151581526020016008820160019054906101000a900460ff161515151581525050848681518110611c46577f4e487b7100000000000000000000000000000000000000000000000000000000600052603260045260246000fd5b6020026020010181905250600185611c5e91906131d1565b945050505b8080611c6e906132b5565b915050611958565b5080945050505050919050565b60008060009054906101000a900473ffffffffffffffffffffffffffffffffffffffff16905090565b60006006600083815260200190815260200160002060080160019054906101000a900460ff169050919050565b611ce1612870565b73ffffffffffffffffffffffffffffffffffffffff16611cff611c83565b73ffffffffffffffffffffffffffffffffffffffff1614611d55576040517f08c379a0000000000000000000000000000000000000000000000000000000008152600401611d4c9061312c565b60405180910390fd5b60006005600083815260200190815260200160002060008473ffffffffffffffffffffffffffffffffffffffff1673ffffffffffffffffffffffffffffffffffffffff168152602001908152602001600020819055505050565b600060066000838152602001908152602001600020600701549050919050565b611dd7612870565b73ffffffffffffffffffffffffffffffffffffffff16611df5611c83565b73ffffffffffffffffffffffffffffffffffffffff1614611e4b576040517f08c379a0000000000000000000000000000000000000000000000000000000008152600401611e429061312c565b60405180910390fd5b611e556001612878565b6000611e6160016127c9565b90506040518061014001604052808281526020018773ffffffffffffffffffffffffffffffffffffffff1681526020013373ffffffffffffffffffffffffffffffffffffffff1681526020018673ffffffffffffffffffffffffffffffffffffffff1681526020018673ffffffffffffffffffffffffffffffffffffffff1681526020018373ffffffffffffffffffffffffffffffffffffffff16815260200184815260200185815260200160001515815260200160001515815250600660008381526020019081526020016000206000820151816000015560208201518160010160006101000a81548173ffffffffffffffffffffffffffffffffffffffff021916908373ffffffffffffffffffffffffffffffffffffffff16021790555060408201518160020160006101000a81548173ffffffffffffffffffffffffffffffffffffffff021916908373ffffffffffffffffffffffffffffffffffffffff16021790555060608201518160030160006101000a81548173ffffffffffffffffffffffffffffffffffffffff021916908373ffffffffffffffffffffffffffffffffffffffff16021790555060808201518160040160006101000a81548173ffffffffffffffffffffffffffffffffffffffff021916908373ffffffffffffffffffffffffffffffffffffffff16021790555060a08201518160050160006101000a81548173ffffffffffffffffffffffffffffffffffffffff021916908373ffffffffffffffffffffffffffffffffffffffff16021790555060c0820151816006015560e082015181600701556101008201518160080160006101000a81548160ff0219169083151502179055506101208201518160080160016101000a81548160ff021916908315150217905550905050807f862b935210c9bfb60f9133da3b3c9d525016de4b1d75c2682abb92fa96ea219d8733888987898b60008060405161213799989796959493929190613022565b60405180910390a250505050505050565b60006006600083815260200190815260200160002060010160009054906101000a900473ffffffffffffffffffffffffffffffffffffffff169050919050565b6000612192612870565b73ffffffffffffffffffffffffffffffffffffffff166121b0611c83565b73ffffffffffffffffffffffffffffffffffffffff1614612206576040517f08c379a00000000000000000000000000000000000000000000000000000000081526004016121fd9061312c565b60405180910390fd5b6122106001612878565b600061221c60016127c9565b90506040518061014001604052808281526020018873ffffffffffffffffffffffffffffffffffffffff1681526020018873ffffffffffffffffffffffffffffffffffffffff1681526020018773ffffffffffffffffffffffffffffffffffffffff1681526020018673ffffffffffffffffffffffffffffffffffffffff1681526020013373ffffffffffffffffffffffffffffffffffffffff16815260200185815260200184815260200160011515815260200160011515815250600660008381526020019081526020016000206000820151816000015560208201518160010160006101000a81548173ffffffffffffffffffffffffffffffffffffffff021916908373ffffffffffffffffffffffffffffffffffffffff16021790555060408201518160020160006101000a81548173ffffffffffffffffffffffffffffffffffffffff021916908373ffffffffffffffffffffffffffffffffffffffff16021790555060608201518160030160006101000a81548173ffffffffffffffffffffffffffffffffffffffff021916908373ffffffffffffffffffffffffffffffffffffffff16021790555060808201518160040160006101000a81548173ffffffffffffffffffffffffffffffffffffffff021916908373ffffffffffffffffffffffffffffffffffffffff16021790555060a08201518160050160006101000a81548173ffffffffffffffffffffffffffffffffffffffff021916908373ffffffffffffffffffffffffffffffffffffffff16021790555060c0820151816006015560e082015181600701556101008201518160080160006101000a81548160ff0219169083151502179055506101208201518160080160016101000a81548160ff021916908315150217905550905050807f862b935210c9bfb60f9133da3b3c9d525016de4b1d75c2682abb92fa96ea219d88898989338a8a6001806040516124f299989796959493929190613022565b60405180910390a28091505095945050505050565b60006005600084815260200190815260200160002060008373ffffffffffffffffffffffffffffffffffffffff1673ffffffffffffffffffffffffffffffffffffffff16815260200190815260200160002054905092915050565b60006006600083815260200190815260200160002060030160009054906101000a900473ffffffffffffffffffffffffffffffffffffffff169050919050565b60006006600083815260200190815260200160002060040160009054906101000a900473ffffffffffffffffffffffffffffffffffffffff169050919050565b6000806125ef60016127c9565b905060008060005b838110156126c257856006600060018461261191906131d1565b81526020019081526020016000206000015414801561269d57508673ffffffffffffffffffffffffffffffffffffffff166006600060018461265391906131d1565b815260200190815260200160002060050160009054906101000a900473ffffffffffffffffffffffffffffffffffffffff1673ffffffffffffffffffffffffffffffffffffffff16145b156126af5760019450505050506126cb565b80806126ba906132b5565b9150506125f7565b50600093505050505b92915050565b6126d9612870565b73ffffffffffffffffffffffffffffffffffffffff166126f7611c83565b73ffffffffffffffffffffffffffffffffffffffff161461274d576040517f08c379a00000000000000000000000000000000000000000000000000000000081526004016127449061312c565b60405180910390fd5b600073ffffffffffffffffffffffffffffffffffffffff168173ffffffffffffffffffffffffffffffffffffffff1614156127bd576040517f08c379a00000000000000000000000000000000000000000000000000000000081526004016127b49061310c565b60405180910390fd5b6127c68161288e565b50565b600081600001549050919050565b61286d816040516024016127eb919061316c565b6040516020818303038152906040527ff5b1bba9000000000000000000000000000000000000000000000000000000007bffffffffffffffffffffffffffffffffffffffffffffffffffffffff19166020820180517bffffffffffffffffffffffffffffffffffffffffffffffffffffffff83818316178352505050506129ae565b50565b600033905090565b6001816000016000828254019250508190555050565b60008060009054906101000a900473ffffffffffffffffffffffffffffffffffffffff169050816000806101000a81548173ffffffffffffffffffffffffffffffffffffffff021916908373ffffffffffffffffffffffffffffffffffffffff1602179055508173ffffffffffffffffffffffffffffffffffffffff168173ffffffffffffffffffffffffffffffffffffffff167f8be0079c531659141344cd1fd0a4f28419497f9722a3daafe3b4186f6b6457e060405160405180910390a35050565b6000816000015490506000811161299e576040517f08c379a0000000000000000000000000000000000000000000000000000000008152600401612995906130ec565b60405180910390fd5b6001810382600001819055505050565b60008151905060006a636f6e736f6c652e6c6f679050602083016000808483855afa5050505050565b60405180610140016040528060008152602001600073ffffffffffffffffffffffffffffffffffffffff168152602001600073ffffffffffffffffffffffffffffffffffffffff168152602001600073ffffffffffffffffffffffffffffffffffffffff168152602001600073ffffffffffffffffffffffffffffffffffffffff168152602001600073ffffffffffffffffffffffffffffffffffffffff16815260200160008152602001600081526020016000151581526020016000151581525090565b600081359050612aab816133f7565b92915050565b600081359050612ac08161340e565b92915050565b600081519050612ad58161340e565b92915050565b600060208284031215612aed57600080fd5b6000612afb84828501612a9c565b91505092915050565b600080600080600060a08688031215612b1c57600080fd5b6000612b2a88828901612a9c565b9550506020612b3b88828901612a9c565b9450506040612b4c88828901612a9c565b9350506060612b5d88828901612ab1565b9250506080612b6e88828901612ab1565b9150509295509295909350565b60008060008060808587031215612b9157600080fd5b6000612b9f87828801612a9c565b9450506020612bb087828801612a9c565b9350506040612bc187828801612ab1565b9250506060612bd287828801612ab1565b91505092959194509250565b60008060408385031215612bf157600080fd5b6000612bff85828601612a9c565b9250506020612c1085828601612ab1565b9150509250929050565b600080600060608486031215612c2f57600080fd5b6000612c3d86828701612a9c565b9350506020612c4e86828701612ab1565b9250506040612c5f86828701612ab1565b9150509250925092565b600060208284031215612c7b57600080fd5b6000612c8984828501612ab1565b91505092915050565b600060208284031215612ca457600080fd5b6000612cb284828501612ac6565b91505092915050565b60008060408385031215612cce57600080fd5b6000612cdc85828601612ab1565b9250506020612ced85828601612a9c565b9150509250929050565b60008060008060008060c08789031215612d1057600080fd5b6000612d1e89828a01612ab1565b9650506020612d2f89828a01612a9c565b9550506040612d4089828a01612a9c565b9450506060612d5189828a01612ab1565b9350506080612d6289828a01612ab1565b92505060a0612d7389828a01612a9c565b9150509295509295509295565b600080600060608486031215612d9557600080fd5b6000612da386828701612ab1565b9350506020612db486828701612a9c565b9250506040612dc586828701612ab1565b9150509250925092565b6000612ddb8383612f1d565b6101408301905092915050565b612df18161326d565b82525050565b612e008161325b565b82525050565b612e0f8161325b565b82525050565b6000612e2082613197565b612e2a81856131af565b9350612e3583613187565b8060005b83811015612e66578151612e4d8882612dcf565b9750612e58836131a2565b925050600181019050612e39565b5085935050505092915050565b612e7c8161327f565b82525050565b612e8b8161327f565b82525050565b6000612e9e601b836131c0565b9150612ea98261332d565b602082019050919050565b6000612ec16026836131c0565b9150612ecc82613356565b604082019050919050565b6000612ee46020836131c0565b9150612eef826133a5565b602082019050919050565b6000612f07601a836131c0565b9150612f12826133ce565b602082019050919050565b61014082016000820151612f346000850182612fe9565b506020820151612f476020850182612de8565b506040820151612f5a6040850182612de8565b506060820151612f6d6060850182612de8565b506080820151612f806080850182612de8565b5060a0820151612f9360a0850182612df7565b5060c0820151612fa660c0850182612fe9565b5060e0820151612fb960e0850182612fe9565b50610100820151612fce610100850182612e73565b50610120820151612fe3610120850182612e73565b50505050565b612ff2816132ab565b82525050565b613001816132ab565b82525050565b600060208201905061301c6000830184612e06565b92915050565b600061012082019050613038600083018c612e06565b613045602083018b612e06565b613052604083018a612e06565b61305f6060830189612e06565b61306c6080830188612e06565b61307960a0830187612ff8565b61308660c0830186612ff8565b61309360e0830185612e82565b6130a1610100830184612e82565b9a9950505050505050505050565b600060208201905081810360008301526130c98184612e15565b905092915050565b60006020820190506130e66000830184612e82565b92915050565b6000602082019050818103600083015261310581612e91565b9050919050565b6000602082019050818103600083015261312581612eb4565b9050919050565b6000602082019050818103600083015261314581612ed7565b9050919050565b6000602082019050818103600083015261316581612efa565b9050919050565b60006020820190506131816000830184612ff8565b92915050565b6000819050602082019050919050565b600081519050919050565b6000602082019050919050565b600082825260208201905092915050565b600082825260208201905092915050565b60006131dc826132ab565b91506131e7836132ab565b9250827fffffffffffffffffffffffffffffffffffffffffffffffffffffffffffffffff0382111561321c5761321b6132fe565b5b828201905092915050565b6000613232826132ab565b915061323d836132ab565b9250828210156132505761324f6132fe565b5b828203905092915050565b60006132668261328b565b9050919050565b60006132788261328b565b9050919050565b60008115159050919050565b600073ffffffffffffffffffffffffffffffffffffffff82169050919050565b6000819050919050565b60006132c0826132ab565b91507fffffffffffffffffffffffffffffffffffffffffffffffffffffffffffffffff8214156132f3576132f26132fe565b5b600182019050919050565b7f4e487b7100000000000000000000000000000000000000000000000000000000600052601160045260246000fd5b7f436f756e7465723a2064656372656d656e74206f766572666c6f770000000000600082015250565b7f4f776e61626c653a206e6577206f776e657220697320746865207a65726f206160008201527f6464726573730000000000000000000000000000000000000000000000000000602082015250565b7f4f776e61626c653a2063616c6c6572206973206e6f7420746865206f776e6572600082015250565b7f596f7520646f6e2774206861766520656e6f7567682057455448000000000000600082015250565b6134008161325b565b811461340b57600080fd5b50565b613417816132ab565b811461342257600080fd5b5056fea26469706673582212208da7e9cd67f374bc346d8c05e0914126a4a44d1ab4b530425042325f6f05b6a464736f6c63430008040033",
  "linkReferences": {},
  "deployedLinkReferences": {}
}