{
  "_format": "hh-sol-artifact-1",
  "contractName": "NFTMarketplace",
  "sourceName": "contracts/NFTMarketplace.sol",
  "abi": [
    {
      "inputs": [
        {
          "internalType": "address",
          "name": "NFTStorage",
          "type": "address"
        },
        {
          "internalType": "address",
          "name": "_WETH",
          "type": "address"
        }
      ],
      "stateMutability": "nonpayable",
      "type": "constructor"
    },
    {
      "anonymous": false,
      "inputs": [
        {
          "indexed": true,
          "internalType": "address",
          "name": "owner",
          "type": "address"
        },
        {
          "indexed": true,
          "internalType": "address",
          "name": "approved",
          "type": "address"
        },
        {
          "indexed": true,
          "internalType": "uint256",
          "name": "tokenId",
          "type": "uint256"
        }
      ],
      "name": "Approval",
      "type": "event"
    },
    {
      "anonymous": false,
      "inputs": [
        {
          "indexed": true,
          "internalType": "address",
          "name": "owner",
          "type": "address"
        },
        {
          "indexed": true,
          "internalType": "address",
          "name": "operator",
          "type": "address"
        },
        {
          "indexed": false,
          "internalType": "bool",
          "name": "approved",
          "type": "bool"
        }
      ],
      "name": "ApprovalForAll",
      "type": "event"
    },
    {
      "anonymous": false,
      "inputs": [
        {
          "indexed": true,
          "internalType": "address",
          "name": "from",
          "type": "address"
        },
        {
          "indexed": true,
          "internalType": "address",
          "name": "to",
          "type": "address"
        },
        {
          "indexed": true,
          "internalType": "uint256",
          "name": "tokenId",
          "type": "uint256"
        }
      ],
      "name": "Transfer",
      "type": "event"
    },
    {
      "anonymous": false,
      "inputs": [
        {
          "indexed": false,
          "internalType": "address",
          "name": "",
          "type": "address"
        },
        {
          "indexed": false,
          "internalType": "uint256",
          "name": "",
          "type": "uint256"
        }
      ],
      "name": "received",
      "type": "event"
    },
    {
      "inputs": [
        {
          "internalType": "uint256",
          "name": "marketItemId",
          "type": "uint256"
        },
        {
          "internalType": "address",
          "name": "bidder",
          "type": "address"
        }
      ],
      "name": "acceptBid",
      "outputs": [],
      "stateMutability": "payable",
      "type": "function"
    },
    {
      "inputs": [
        {
          "internalType": "address",
          "name": "to",
          "type": "address"
        },
        {
          "internalType": "uint256",
          "name": "tokenId",
          "type": "uint256"
        }
      ],
      "name": "approve",
      "outputs": [],
      "stateMutability": "nonpayable",
      "type": "function"
    },
    {
      "inputs": [
        {
          "internalType": "address",
          "name": "owner",
          "type": "address"
        }
      ],
      "name": "balanceOf",
      "outputs": [
        {
          "internalType": "uint256",
          "name": "",
          "type": "uint256"
        }
      ],
      "stateMutability": "view",
      "type": "function"
    },
    {
      "inputs": [
        {
          "internalType": "uint256",
          "name": "tokenIdOne",
          "type": "uint256"
        },
        {
          "internalType": "address",
          "name": "tokenIdOneContract",
          "type": "address"
        },
        {
          "internalType": "uint256",
          "name": "tokenIdTwo",
          "type": "uint256"
        },
        {
          "internalType": "address",
          "name": "tokenIdTwoContract",
          "type": "address"
        },
        {
          "internalType": "string",
          "name": "bredTokenUri",
          "type": "string"
        }
      ],
      "name": "createBredToken",
      "outputs": [
        {
          "internalType": "uint256",
          "name": "",
          "type": "uint256"
        }
      ],
      "stateMutability": "payable",
      "type": "function"
    },
    {
      "inputs": [
        {
          "internalType": "uint256",
          "name": "marketItemId",
          "type": "uint256"
        }
      ],
      "name": "createMarketSale",
      "outputs": [],
      "stateMutability": "payable",
      "type": "function"
    },
    {
      "inputs": [
        {
          "internalType": "address",
          "name": "galleryAddress",
          "type": "address"
        },
        {
          "internalType": "string",
          "name": "tokenUri",
          "type": "string"
        },
        {
          "internalType": "uint256",
          "name": "price",
          "type": "uint256"
        },
        {
          "internalType": "uint96",
          "name": "royaltyValue",
          "type": "uint96"
        },
        {
          "internalType": "address",
          "name": "signer",
          "type": "address"
        },
        {
          "internalType": "address",
          "name": "buyer",
          "type": "address"
        }
      ],
      "name": "createOwnedTokenFromLazy",
      "outputs": [],
      "stateMutability": "payable",
      "type": "function"
    },
    {
      "inputs": [
        {
          "internalType": "uint256",
          "name": "marketItemId",
          "type": "uint256"
        }
      ],
      "name": "delistToken",
      "outputs": [],
      "stateMutability": "payable",
      "type": "function"
    },
    {
      "inputs": [
        {
          "internalType": "uint256",
          "name": "tokenId",
          "type": "uint256"
        }
      ],
      "name": "getApproved",
      "outputs": [
        {
          "internalType": "address",
          "name": "",
          "type": "address"
        }
      ],
      "stateMutability": "view",
      "type": "function"
    },
    {
      "inputs": [
        {
          "internalType": "address",
          "name": "owner",
          "type": "address"
        },
        {
          "internalType": "address",
          "name": "operator",
          "type": "address"
        }
      ],
      "name": "isApprovedForAll",
      "outputs": [
        {
          "internalType": "bool",
          "name": "",
          "type": "bool"
        }
      ],
      "stateMutability": "view",
      "type": "function"
    },
    {
      "inputs": [],
      "name": "name",
      "outputs": [
        {
          "internalType": "string",
          "name": "",
          "type": "string"
        }
      ],
      "stateMutability": "view",
      "type": "function"
    },
    {
      "inputs": [
        {
          "internalType": "uint256",
          "name": "tokenId",
          "type": "uint256"
        }
      ],
      "name": "ownerOf",
      "outputs": [
        {
          "internalType": "address",
          "name": "",
          "type": "address"
        }
      ],
      "stateMutability": "view",
      "type": "function"
    },
    {
      "inputs": [
        {
          "internalType": "uint256",
          "name": "tokenId",
          "type": "uint256"
        },
        {
          "internalType": "uint256",
          "name": "price",
          "type": "uint256"
        },
        {
          "internalType": "address",
          "name": "nftContract",
          "type": "address"
        }
      ],
      "name": "resellToken",
      "outputs": [],
      "stateMutability": "payable",
      "type": "function"
    },
    {
      "inputs": [
        {
          "internalType": "uint256",
          "name": "_tokenId",
          "type": "uint256"
        },
        {
          "internalType": "uint256",
          "name": "_salePrice",
          "type": "uint256"
        }
      ],
      "name": "royaltyInfo",
      "outputs": [
        {
          "internalType": "address",
          "name": "",
          "type": "address"
        },
        {
          "internalType": "uint256",
          "name": "",
          "type": "uint256"
        }
      ],
      "stateMutability": "view",
      "type": "function"
    },
    {
      "inputs": [
        {
          "internalType": "address",
          "name": "from",
          "type": "address"
        },
        {
          "internalType": "address",
          "name": "to",
          "type": "address"
        },
        {
          "internalType": "uint256",
          "name": "tokenId",
          "type": "uint256"
        }
      ],
      "name": "safeTransferFrom",
      "outputs": [],
      "stateMutability": "nonpayable",
      "type": "function"
    },
    {
      "inputs": [
        {
          "internalType": "address",
          "name": "from",
          "type": "address"
        },
        {
          "internalType": "address",
          "name": "to",
          "type": "address"
        },
        {
          "internalType": "uint256",
          "name": "tokenId",
          "type": "uint256"
        },
        {
          "internalType": "bytes",
          "name": "_data",
          "type": "bytes"
        }
      ],
      "name": "safeTransferFrom",
      "outputs": [],
      "stateMutability": "nonpayable",
      "type": "function"
    },
    {
      "inputs": [
        {
          "internalType": "address",
          "name": "operator",
          "type": "address"
        },
        {
          "internalType": "bool",
          "name": "approved",
          "type": "bool"
        }
      ],
      "name": "setApprovalForAll",
      "outputs": [],
      "stateMutability": "nonpayable",
      "type": "function"
    },
    {
      "inputs": [
        {
          "internalType": "bytes4",
          "name": "interfaceId",
          "type": "bytes4"
        }
      ],
      "name": "supportsInterface",
      "outputs": [
        {
          "internalType": "bool",
          "name": "",
          "type": "bool"
        }
      ],
      "stateMutability": "view",
      "type": "function"
    },
    {
      "inputs": [],
      "name": "symbol",
      "outputs": [
        {
          "internalType": "string",
          "name": "",
          "type": "string"
        }
      ],
      "stateMutability": "view",
      "type": "function"
    },
    {
      "inputs": [
        {
          "internalType": "uint256",
          "name": "tokenId",
          "type": "uint256"
        }
      ],
      "name": "tokenURI",
      "outputs": [
        {
          "internalType": "string",
          "name": "",
          "type": "string"
        }
      ],
      "stateMutability": "view",
      "type": "function"
    },
    {
      "inputs": [
        {
          "internalType": "address",
          "name": "from",
          "type": "address"
        },
        {
          "internalType": "address",
          "name": "to",
          "type": "address"
        },
        {
          "internalType": "uint256",
          "name": "tokenId",
          "type": "uint256"
        }
      ],
      "name": "transferFrom",
      "outputs": [],
      "stateMutability": "nonpayable",
      "type": "function"
    },
    {
      "stateMutability": "payable",
      "type": "receive"
    }
  ],
  "bytecode": "0x60806040526005600a553480156200001657600080fd5b50604051620062d1380380620062d183398181016040528101906200003c919062000276565b6040518060400160405280601081526020017f4e66747954756e657320546f6b656e73000000000000000000000000000000008152506040518060400160405280600481526020017f4e465459000000000000000000000000000000000000000000000000000000008152508160009080519060200190620000c0929190620001af565b508060019080519060200190620000d9929190620001af565b505050600160078190555033600b60006101000a81548173ffffffffffffffffffffffffffffffffffffffff021916908373ffffffffffffffffffffffffffffffffffffffff16021790555081600c60006101000a81548173ffffffffffffffffffffffffffffffffffffffff021916908373ffffffffffffffffffffffffffffffffffffffff16021790555080600d60006101000a81548173ffffffffffffffffffffffffffffffffffffffff021916908373ffffffffffffffffffffffffffffffffffffffff16021790555050506200036a565b828054620001bd90620002eb565b90600052602060002090601f016020900481019282620001e157600085556200022d565b82601f10620001fc57805160ff19168380011785556200022d565b828001600101855582156200022d579182015b828111156200022c5782518255916020019190600101906200020f565b5b5090506200023c919062000240565b5090565b5b808211156200025b57600081600090555060010162000241565b5090565b600081519050620002708162000350565b92915050565b600080604083850312156200028a57600080fd5b60006200029a858286016200025f565b9250506020620002ad858286016200025f565b9150509250929050565b6000620002c482620002cb565b9050919050565b600073ffffffffffffffffffffffffffffffffffffffff82169050919050565b600060028204905060018216806200030457607f821691505b602082108114156200031b576200031a62000321565b5b50919050565b7f4e487b7100000000000000000000000000000000000000000000000000000000600052602260045260246000fd5b6200035b81620002b7565b81146200036757600080fd5b50565b615f57806200037a6000396000f3fe6080604052600436106101235760003560e01c806370a08231116100a0578063bed659bc11610064578063bed659bc14610425578063c87b56dd14610441578063dd10a2b81461047e578063e985e9c51461049a578063effaa4a9146104d757610163565b806370a082311461034f57806395d89b411461038c578063a22cb465146103b7578063b88d4fde146103e0578063be9af5361461040957610163565b806323b872dd116100e757806323b872dd146102525780632a55205a1461027b57806342842e0e146102b95780636352211e146102e2578063692461801461031f57610163565b806301ffc9a71461016857806302068664146101a557806306fdde03146101c1578063081812fc146101ec578063095ea7b31461022957610163565b36610163577ff11e547d796cc64acdf758e7cee90439494fd886a19159454aa61e473fdbafef3334604051610159929190614d9d565b60405180910390a1005b600080fd5b34801561017457600080fd5b5061018f600480360381019061018a9190614573565b6104f3565b60405161019c9190614dc6565b60405180910390f35b6101bf60048036038101906101ba9190614617565b610505565b005b3480156101cd57600080fd5b506101d66111a6565b6040516101e39190614de1565b60405180910390f35b3480156101f857600080fd5b50610213600480360381019061020e91906145c5565b611238565b6040516102209190614c67565b60405180910390f35b34801561023557600080fd5b50610250600480360381019061024b91906144d2565b6112bd565b005b34801561025e57600080fd5b506102796004803603810190610274919061432b565b6113d5565b005b34801561028757600080fd5b506102a2600480360381019061029d91906146e2565b611435565b6040516102b0929190614d9d565b60405180910390f35b3480156102c557600080fd5b506102e060048036038101906102db919061432b565b611620565b005b3480156102ee57600080fd5b50610309600480360381019061030491906145c5565b611640565b6040516103169190614c67565b60405180910390f35b61033960048036038101906103349190614653565b6116f2565b60405161034691906151a3565b60405180910390f35b34801561035b57600080fd5b506103766004803603810190610371919061429d565b611b32565b60405161038391906151a3565b60405180910390f35b34801561039857600080fd5b506103a1611bea565b6040516103ae9190614de1565b60405180910390f35b3480156103c357600080fd5b506103de60048036038101906103d991906143f5565b611c7c565b005b3480156103ec57600080fd5b506104076004803603810190610402919061437a565b611c92565b005b610423600480360381019061041e91906145c5565b611cf4565b005b61043f600480360381019061043a91906145c5565b6125b9565b005b34801561044d57600080fd5b50610468600480360381019061046391906145c5565b61283c565b6040516104759190614de1565b60405180910390f35b6104986004803603810190610493919061471e565b61298e565b005b3480156104a657600080fd5b506104c160048036038101906104bc91906142ef565b612df5565b6040516104ce9190614dc6565b60405180910390f35b6104f160048036038101906104ec9190614431565b612e89565b005b60006104fe8261303d565b9050919050565b6000600c60009054906101000a900473ffffffffffffffffffffffffffffffffffffffff1690506000600d60009054906101000a900473ffffffffffffffffffffffffffffffffffffffff16905060008273ffffffffffffffffffffffffffffffffffffffff1663370ef45a866040518263ffffffff1660e01b815260040161058e91906151a3565b60206040518083038186803b1580156105a657600080fd5b505afa1580156105ba573d6000803e3d6000fd5b505050506040513d601f19601f820116820180604052508101906105de91906145ee565b905060008373ffffffffffffffffffffffffffffffffffffffff16631d1440fd876040518263ffffffff1660e01b815260040161061b91906151a3565b60206040518083038186803b15801561063357600080fd5b505afa158015610647573d6000803e3d6000fd5b505050506040513d601f19601f8201168201806040525081019061066b91906142c6565b905060008473ffffffffffffffffffffffffffffffffffffffff1663a917f66f886040518263ffffffff1660e01b81526004016106a891906151a3565b60206040518083038186803b1580156106c057600080fd5b505afa1580156106d4573d6000803e3d6000fd5b505050506040513d601f19601f820116820180604052508101906106f891906142c6565b905060008573ffffffffffffffffffffffffffffffffffffffff16634c4df870896040518263ffffffff1660e01b815260040161073591906151a3565b60206040518083038186803b15801561074d57600080fd5b505afa158015610761573d6000803e3d6000fd5b505050506040513d601f19601f8201168201806040525081019061078591906145ee565b905060008673ffffffffffffffffffffffffffffffffffffffff1663929151c68a6040518263ffffffff1660e01b81526004016107c291906151a3565b60206040518083038186803b1580156107da57600080fd5b505afa1580156107ee573d6000803e3d6000fd5b505050506040513d601f19601f82011682018060405250810190610812919061454a565b905060008773ffffffffffffffffffffffffffffffffffffffff1663a36a69828b6040518263ffffffff1660e01b815260040161084f91906151a3565b60206040518083038186803b15801561086757600080fd5b505afa15801561087b573d6000803e3d6000fd5b505050506040513d601f19601f8201168201806040525081019061089f91906145ee565b905060008873ffffffffffffffffffffffffffffffffffffffff1663cf41b0568c6040518263ffffffff1660e01b81526004016108dc91906151a3565b60206040518083038186803b1580156108f457600080fd5b505afa158015610908573d6000803e3d6000fd5b505050506040513d601f19601f8201168201806040525081019061092c91906142c6565b905060008973ffffffffffffffffffffffffffffffffffffffff1663dbd82b038d6040518263ffffffff1660e01b815260040161096991906151a3565b60206040518083038186803b15801561098157600080fd5b505afa158015610995573d6000803e3d6000fd5b505050506040513d601f19601f820116820180604052508101906109b991906142c6565b905060008a73ffffffffffffffffffffffffffffffffffffffff1663c74292b38e8e6040518363ffffffff1660e01b81526004016109f89291906151be565b60206040518083038186803b158015610a1057600080fd5b505afa158015610a24573d6000803e3d6000fd5b505050506040513d601f19601f82011682018060405250810190610a4891906145ee565b90503373ffffffffffffffffffffffffffffffffffffffff168773ffffffffffffffffffffffffffffffffffffffff1614610ab8576040517f08c379a0000000000000000000000000000000000000000000000000000000008152600401610aaf90614f63565b60405180910390fd5b808a73ffffffffffffffffffffffffffffffffffffffff166370a082318e6040518263ffffffff1660e01b8152600401610af29190614c67565b60206040518083038186803b158015610b0a57600080fd5b505afa158015610b1e573d6000803e3d6000fd5b505050506040513d601f19601f82011682018060405250810190610b4291906145ee565b11610b82576040517f08c379a0000000000000000000000000000000000000000000000000000000008152600401610b7990615183565b60405180910390fd5b8a73ffffffffffffffffffffffffffffffffffffffff16639e50d61a338f6040518363ffffffff1660e01b8152600401610bbd929190614d9d565b600060405180830381600087803b158015610bd757600080fd5b505af1158015610beb573d6000803e3d6000fd5b505050508a73ffffffffffffffffffffffffffffffffffffffff16631e5ffb798a8e846040518463ffffffff1660e01b8152600401610c2c93929190615248565b600060405180830381600087803b158015610c4657600080fd5b505af1158015610c5a573d6000803e3d6000fd5b50505050600015158515151415610ea3578973ffffffffffffffffffffffffffffffffffffffff166323b872dd8d856127108886610c9891906153f9565b610ca291906153c8565b6040518463ffffffff1660e01b8152600401610cc093929190614cd5565b602060405180830381600087803b158015610cda57600080fd5b505af1158015610cee573d6000803e3d6000fd5b505050506040513d601f19601f82011682018060405250810190610d12919061454a565b508973ffffffffffffffffffffffffffffffffffffffff166323b872dd8d306064600a5486610d4191906153f9565b610d4b91906153c8565b6040518463ffffffff1660e01b8152600401610d6993929190614cd5565b602060405180830381600087803b158015610d8357600080fd5b505af1158015610d97573d6000803e3d6000fd5b505050506040513d601f19601f82011682018060405250810190610dbb919061454a565b508973ffffffffffffffffffffffffffffffffffffffff166323b872dd8d896064600a5486610dea91906153f9565b610df491906153c8565b6127108987610e0391906153f9565b610e0d91906153c8565b86610e189190615453565b610e229190615453565b6040518463ffffffff1660e01b8152600401610e4093929190614cd5565b602060405180830381600087803b158015610e5a57600080fd5b505af1158015610e6e573d6000803e3d6000fd5b505050506040513d601f19601f82011682018060405250810190610e92919061454a565b50610e9e308d8b6130b7565b611197565b8973ffffffffffffffffffffffffffffffffffffffff166323b872dd8d8560026127108987610ed291906153f9565b610edc91906153c8565b610ee691906153c8565b6040518463ffffffff1660e01b8152600401610f0493929190614cd5565b602060405180830381600087803b158015610f1e57600080fd5b505af1158015610f32573d6000803e3d6000fd5b505050506040513d601f19601f82011682018060405250810190610f56919061454a565b508973ffffffffffffffffffffffffffffffffffffffff166323b872dd8d8560026127108987610f8691906153f9565b610f9091906153c8565b610f9a91906153c8565b6040518463ffffffff1660e01b8152600401610fb893929190614cd5565b602060405180830381600087803b158015610fd257600080fd5b505af1158015610fe6573d6000803e3d6000fd5b505050506040513d601f19601f8201168201806040525081019061100a919061454a565b508973ffffffffffffffffffffffffffffffffffffffff166323b872dd8d306064600a548661103991906153f9565b61104391906153c8565b6040518463ffffffff1660e01b815260040161106193929190614cd5565b602060405180830381600087803b15801561107b57600080fd5b505af115801561108f573d6000803e3d6000fd5b505050506040513d601f19601f820116820180604052508101906110b3919061454a565b508973ffffffffffffffffffffffffffffffffffffffff166323b872dd8d896064600a54866110e291906153f9565b6110ec91906153c8565b61271089876110fb91906153f9565b61110591906153c8565b866111109190615453565b61111a9190615453565b6040518463ffffffff1660e01b815260040161113893929190614cd5565b602060405180830381600087803b15801561115257600080fd5b505af1158015611166573d6000803e3d6000fd5b505050506040513d601f19601f8201168201806040525081019061118a919061454a565b50611196308d8b6130b7565b5b50505050505050505050505050565b6060600080546111b590615567565b80601f01602080910402602001604051908101604052809291908181526020018280546111e190615567565b801561122e5780601f106112035761010080835404028352916020019161122e565b820191906000526020600020905b81548152906001019060200180831161121157829003601f168201915b5050505050905090565b60006112438261331e565b611282576040517f08c379a000000000000000000000000000000000000000000000000000000000815260040161127990615023565b60405180910390fd5b6004600083815260200190815260200160002060009054906101000a900473ffffffffffffffffffffffffffffffffffffffff169050919050565b60006112c882611640565b90508073ffffffffffffffffffffffffffffffffffffffff168373ffffffffffffffffffffffffffffffffffffffff161415611339576040517f08c379a000000000000000000000000000000000000000000000000000000000815260040161133090615083565b60405180910390fd5b8073ffffffffffffffffffffffffffffffffffffffff1661135861338a565b73ffffffffffffffffffffffffffffffffffffffff16148061138757506113868161138161338a565b612df5565b5b6113c6576040517f08c379a00000000000000000000000000000000000000000000000000000000081526004016113bd90614f03565b60405180910390fd5b6113d08383613392565b505050565b6113e66113e061338a565b8261344b565b611425576040517f08c379a000000000000000000000000000000000000000000000000000000000815260040161141c906150c3565b60405180910390fd5b6114308383836130b7565b505050565b6000806000600960008681526020019081526020016000206040518060400160405290816000820160009054906101000a900473ffffffffffffffffffffffffffffffffffffffff1673ffffffffffffffffffffffffffffffffffffffff1673ffffffffffffffffffffffffffffffffffffffff1681526020016000820160149054906101000a90046bffffffffffffffffffffffff166bffffffffffffffffffffffff166bffffffffffffffffffffffff16815250509050600073ffffffffffffffffffffffffffffffffffffffff16816000015173ffffffffffffffffffffffffffffffffffffffff1614156115cb5760086040518060400160405290816000820160009054906101000a900473ffffffffffffffffffffffffffffffffffffffff1673ffffffffffffffffffffffffffffffffffffffff1673ffffffffffffffffffffffffffffffffffffffff1681526020016000820160149054906101000a90046bffffffffffffffffffffffff166bffffffffffffffffffffffff166bffffffffffffffffffffffff168152505090505b60006115d5613529565b6bffffffffffffffffffffffff1682602001516bffffffffffffffffffffffff168661160191906153f9565b61160b91906153c8565b90508160000151819350935050509250929050565b61163b83838360405180602001604052806000815250611c92565b505050565b6000806002600084815260200190815260200160002060009054906101000a900473ffffffffffffffffffffffffffffffffffffffff169050600073ffffffffffffffffffffffffffffffffffffffff168173ffffffffffffffffffffffffffffffffffffffff1614156116e9576040517f08c379a00000000000000000000000000000000000000000000000000000000081526004016116e090614f83565b60405180910390fd5b80915050919050565b60003373ffffffffffffffffffffffffffffffffffffffff168573ffffffffffffffffffffffffffffffffffffffff16636352211e886040518263ffffffff1660e01b815260040161174491906151a3565b60206040518083038186803b15801561175c57600080fd5b505afa158015611770573d6000803e3d6000fd5b505050506040513d601f19601f8201168201806040525081019061179491906142c6565b73ffffffffffffffffffffffffffffffffffffffff16146117ea576040517f08c379a00000000000000000000000000000000000000000000000000000000081526004016117e1906150a3565b60405180910390fd5b3373ffffffffffffffffffffffffffffffffffffffff168373ffffffffffffffffffffffffffffffffffffffff16636352211e866040518263ffffffff1660e01b815260040161183a91906151a3565b60206040518083038186803b15801561185257600080fd5b505afa158015611866573d6000803e3d6000fd5b505050506040513d601f19601f8201168201806040525081019061188a91906142c6565b73ffffffffffffffffffffffffffffffffffffffff16146118e0576040517f08c379a00000000000000000000000000000000000000000000000000000000081526004016118d790615043565b60405180910390fd5b6000670de0b6b3a764000090506000808773ffffffffffffffffffffffffffffffffffffffff16632a55205a8a856040518363ffffffff1660e01b815260040161192b92919061527f565b604080518083038186803b15801561194257600080fd5b505afa158015611956573d6000803e3d6000fd5b505050506040513d601f19601f8201168201806040525081019061197a919061450e565b915091506000808773ffffffffffffffffffffffffffffffffffffffff16632a55205a8a876040518363ffffffff1660e01b81526004016119bc92919061527f565b604080518083038186803b1580156119d357600080fd5b505afa1580156119e7573d6000803e3d6000fd5b505050506040513d601f19601f82011682018060405250810190611a0b919061450e565b91509150600060028683611a1f91906153f9565b8786611a2b91906153f9565b611a359190615372565b611a3f91906153c8565b90506000600c60009054906101000a900473ffffffffffffffffffffffffffffffffffffffff16905060008173ffffffffffffffffffffffffffffffffffffffff1663be3791b83389888c886040518663ffffffff1660e01b8152600401611aab959493929190614c82565b602060405180830381600087803b158015611ac557600080fd5b505af1158015611ad9573d6000803e3d6000fd5b505050506040513d601f19601f82011682018060405250810190611afd91906145ee565b9050611b093382613533565b611b13818b61370d565b611b1e3033836130b7565b809850505050505050505095945050505050565b60008073ffffffffffffffffffffffffffffffffffffffff168273ffffffffffffffffffffffffffffffffffffffff161415611ba3576040517f08c379a0000000000000000000000000000000000000000000000000000000008152600401611b9a90614f43565b60405180910390fd5b600360008373ffffffffffffffffffffffffffffffffffffffff1673ffffffffffffffffffffffffffffffffffffffff168152602001908152602001600020549050919050565b606060018054611bf990615567565b80601f0160208091040260200160405190810160405280929190818152602001828054611c2590615567565b8015611c725780601f10611c4757610100808354040283529160200191611c72565b820191906000526020600020905b815481529060010190602001808311611c5557829003601f168201915b5050505050905090565b611c8e611c8761338a565b8383613781565b5050565b611ca3611c9d61338a565b8361344b565b611ce2576040517f08c379a0000000000000000000000000000000000000000000000000000000008152600401611cd9906150c3565b60405180910390fd5b611cee848484846138ee565b50505050565b6000600c60009054906101000a900473ffffffffffffffffffffffffffffffffffffffff16905060008173ffffffffffffffffffffffffffffffffffffffff1663370ef45a846040518263ffffffff1660e01b8152600401611d5691906151a3565b60206040518083038186803b158015611d6e57600080fd5b505afa158015611d82573d6000803e3d6000fd5b505050506040513d601f19601f82011682018060405250810190611da691906145ee565b905060008273ffffffffffffffffffffffffffffffffffffffff16631d1440fd856040518263ffffffff1660e01b8152600401611de391906151a3565b60206040518083038186803b158015611dfb57600080fd5b505afa158015611e0f573d6000803e3d6000fd5b505050506040513d601f19601f82011682018060405250810190611e3391906142c6565b905060008373ffffffffffffffffffffffffffffffffffffffff1663a917f66f866040518263ffffffff1660e01b8152600401611e7091906151a3565b60206040518083038186803b158015611e8857600080fd5b505afa158015611e9c573d6000803e3d6000fd5b505050506040513d601f19601f82011682018060405250810190611ec091906142c6565b905060008473ffffffffffffffffffffffffffffffffffffffff16634c4df870876040518263ffffffff1660e01b8152600401611efd91906151a3565b60206040518083038186803b158015611f1557600080fd5b505afa158015611f29573d6000803e3d6000fd5b505050506040513d601f19601f82011682018060405250810190611f4d91906145ee565b905060008573ffffffffffffffffffffffffffffffffffffffff1663929151c6886040518263ffffffff1660e01b8152600401611f8a91906151a3565b60206040518083038186803b158015611fa257600080fd5b505afa158015611fb6573d6000803e3d6000fd5b505050506040513d601f19601f82011682018060405250810190611fda919061454a565b905060008673ffffffffffffffffffffffffffffffffffffffff1663a36a6982896040518263ffffffff1660e01b815260040161201791906151a3565b60206040518083038186803b15801561202f57600080fd5b505afa158015612043573d6000803e3d6000fd5b505050506040513d601f19601f8201168201806040525081019061206791906145ee565b905060008773ffffffffffffffffffffffffffffffffffffffff1663cf41b0568a6040518263ffffffff1660e01b81526004016120a491906151a3565b60206040518083038186803b1580156120bc57600080fd5b505afa1580156120d0573d6000803e3d6000fd5b505050506040513d601f19601f820116820180604052508101906120f491906142c6565b905060008873ffffffffffffffffffffffffffffffffffffffff1663dbd82b038b6040518263ffffffff1660e01b815260040161213191906151a3565b60206040518083038186803b15801561214957600080fd5b505afa15801561215d573d6000803e3d6000fd5b505050506040513d601f19601f8201168201806040525081019061218191906142c6565b90506000612710600a543461219691906153f9565b6121a091906153c8565b9050600061271085346121b391906153f9565b6121bd91906153c8565b90503073ffffffffffffffffffffffffffffffffffffffff168973ffffffffffffffffffffffffffffffffffffffff161461222d576040517f08c379a000000000000000000000000000000000000000000000000000000000815260040161222490615103565b60405180910390fd5b86341461226f576040517f08c379a000000000000000000000000000000000000000000000000000000000815260040161226690614fc3565b60405180910390fd5b6000151586151514156123e6578a73ffffffffffffffffffffffffffffffffffffffff16631e5ffb798d33346040518463ffffffff1660e01b81526004016122b993929190615248565b600060405180830381600087803b1580156122d357600080fd5b505af11580156122e7573d6000803e3d6000fd5b505050506122f630338c6130b7565b8373ffffffffffffffffffffffffffffffffffffffff166108fc829081150290604051600060405180830381858888f1935050505015801561233c573d6000803e3d6000fd5b503073ffffffffffffffffffffffffffffffffffffffff166108fc839081150290604051600060405180830381858888f19350505050158015612383573d6000803e3d6000fd5b508773ffffffffffffffffffffffffffffffffffffffff166108fc8383346123ab9190615453565b6123b59190615453565b9081150290604051600060405180830381858888f193505050501580156123e0573d6000803e3d6000fd5b506125ab565b8a73ffffffffffffffffffffffffffffffffffffffff16631e5ffb798d33346040518463ffffffff1660e01b815260040161242393929190615248565b600060405180830381600087803b15801561243d57600080fd5b505af1158015612451573d6000803e3d6000fd5b5050505061246030338c6130b7565b8373ffffffffffffffffffffffffffffffffffffffff166108fc60028361248791906153c8565b9081150290604051600060405180830381858888f193505050501580156124b2573d6000803e3d6000fd5b508273ffffffffffffffffffffffffffffffffffffffff166108fc6002836124da91906153c8565b9081150290604051600060405180830381858888f19350505050158015612505573d6000803e3d6000fd5b503073ffffffffffffffffffffffffffffffffffffffff166108fc839081150290604051600060405180830381858888f1935050505015801561254c573d6000803e3d6000fd5b508773ffffffffffffffffffffffffffffffffffffffff166108fc8383346125749190615453565b61257e9190615453565b9081150290604051600060405180830381858888f193505050501580156125a9573d6000803e3d6000fd5b505b505050505050505050505050565b600260075414156125ff576040517f08c379a00000000000000000000000000000000000000000000000000000000081526004016125f690615163565b60405180910390fd5b60026007819055506000600c60009054906101000a900473ffffffffffffffffffffffffffffffffffffffff16905060008173ffffffffffffffffffffffffffffffffffffffff1663a917f66f846040518263ffffffff1660e01b815260040161266991906151a3565b60206040518083038186803b15801561268157600080fd5b505afa158015612695573d6000803e3d6000fd5b505050506040513d601f19601f820116820180604052508101906126b991906142c6565b905060008273ffffffffffffffffffffffffffffffffffffffff1663370ef45a856040518263ffffffff1660e01b81526004016126f691906151a3565b60206040518083038186803b15801561270e57600080fd5b505afa158015612722573d6000803e3d6000fd5b505050506040513d601f19601f8201168201806040525081019061274691906145ee565b90503373ffffffffffffffffffffffffffffffffffffffff168273ffffffffffffffffffffffffffffffffffffffff16146127b6576040517f08c379a00000000000000000000000000000000000000000000000000000000081526004016127ad90615123565b60405180910390fd5b8273ffffffffffffffffffffffffffffffffffffffff16633e14ba3185336040518363ffffffff1660e01b81526004016127f19291906151be565b600060405180830381600087803b15801561280b57600080fd5b505af115801561281f573d6000803e3d6000fd5b5050505061282e3033836130b7565b505050600160078190555050565b60606128478261331e565b612886576040517f08c379a000000000000000000000000000000000000000000000000000000000815260040161287d90615003565b60405180910390fd5b60006006600084815260200190815260200160002080546128a690615567565b80601f01602080910402602001604051908101604052809291908181526020018280546128d290615567565b801561291f5780601f106128f45761010080835404028352916020019161291f565b820191906000526020600020905b81548152906001019060200180831161290257829003601f168201915b50505050509050600061293061394a565b9050600081511415612946578192505050612989565b60008251111561297b578082604051602001612963929190614c43565b60405160208183030381529060405292505050612989565b61298484613961565b925050505b919050565b3373ffffffffffffffffffffffffffffffffffffffff168173ffffffffffffffffffffffffffffffffffffffff16636352211e856040518263ffffffff1660e01b81526004016129de91906151a3565b60206040518083038186803b1580156129f657600080fd5b505afa158015612a0a573d6000803e3d6000fd5b505050506040513d601f19601f82011682018060405250810190612a2e91906142c6565b73ffffffffffffffffffffffffffffffffffffffff1614612a84576040517f08c379a0000000000000000000000000000000000000000000000000000000008152600401612a7b90614e03565b60405180910390fd5b60008211612ac7576040517f08c379a0000000000000000000000000000000000000000000000000000000008152600401612abe90614f23565b60405180910390fd5b6000600c60009054906101000a900473ffffffffffffffffffffffffffffffffffffffff1690508073ffffffffffffffffffffffffffffffffffffffff1663e8fc9caa83866040518363ffffffff1660e01b8152600401612b29929190614d9d565b60206040518083038186803b158015612b4157600080fd5b505afa158015612b55573d6000803e3d6000fd5b505050506040513d601f19601f82011682018060405250810190612b79919061454a565b15612c6c578073ffffffffffffffffffffffffffffffffffffffff1663830730438533866040518463ffffffff1660e01b8152600401612bbb93929190615248565b600060405180830381600087803b158015612bd557600080fd5b505af1158015612be9573d6000803e3d6000fd5b50505050612bf8306001611c7c565b8173ffffffffffffffffffffffffffffffffffffffff166323b872dd3330876040518463ffffffff1660e01b8152600401612c3593929190614cd5565b600060405180830381600087803b158015612c4f57600080fd5b505af1158015612c63573d6000803e3d6000fd5b50505050612def565b6000808373ffffffffffffffffffffffffffffffffffffffff16632a55205a87876040518363ffffffff1660e01b8152600401612caa92919061527f565b604080518083038186803b158015612cc157600080fd5b505afa158015612cd5573d6000803e3d6000fd5b505050506040513d601f19601f82011682018060405250810190612cf9919061450e565b91509150612d08306001611c7c565b8273ffffffffffffffffffffffffffffffffffffffff1663a785c390873385858a8a6040518763ffffffff1660e01b8152600401612d4b969594939291906151e7565b600060405180830381600087803b158015612d6557600080fd5b505af1158015612d79573d6000803e3d6000fd5b505050508373ffffffffffffffffffffffffffffffffffffffff166323b872dd3330896040518463ffffffff1660e01b8152600401612dba93929190614cd5565b600060405180830381600087803b158015612dd457600080fd5b505af1158015612de8573d6000803e3d6000fd5b5050505050505b50505050565b6000600560008473ffffffffffffffffffffffffffffffffffffffff1673ffffffffffffffffffffffffffffffffffffffff16815260200190815260200160002060008373ffffffffffffffffffffffffffffffffffffffff1673ffffffffffffffffffffffffffffffffffffffff16815260200190815260200160002060009054906101000a900460ff16905092915050565b60026007541415612ecf576040517f08c379a0000000000000000000000000000000000000000000000000000000008152600401612ec690615163565b60405180910390fd5b60026007819055508573ffffffffffffffffffffffffffffffffffffffff163373ffffffffffffffffffffffffffffffffffffffff1614612f45576040517f08c379a0000000000000000000000000000000000000000000000000000000008152600401612f3c90614e23565b60405180910390fd5b6000600c60009054906101000a900473ffffffffffffffffffffffffffffffffffffffff16905060008173ffffffffffffffffffffffffffffffffffffffff16634a090dbf858589896040518563ffffffff1660e01b8152600401612fad9493929190614d58565b602060405180830381600087803b158015612fc757600080fd5b505af1158015612fdb573d6000803e3d6000fd5b505050506040513d601f19601f82011682018060405250810190612fff91906145ee565b905061300b8482613533565b613015818861370d565b613020818587613a08565b61302b8484836130b7565b50506001600781905550505050505050565b60007f2a55205a000000000000000000000000000000000000000000000000000000007bffffffffffffffffffffffffffffffffffffffffffffffffffffffff1916827bffffffffffffffffffffffffffffffffffffffffffffffffffffffff191614806130b057506130af82613bb0565b5b9050919050565b8273ffffffffffffffffffffffffffffffffffffffff166130d782611640565b73ffffffffffffffffffffffffffffffffffffffff161461312d576040517f08c379a000000000000000000000000000000000000000000000000000000000815260040161312490614e63565b60405180910390fd5b600073ffffffffffffffffffffffffffffffffffffffff168273ffffffffffffffffffffffffffffffffffffffff16141561319d576040517f08c379a000000000000000000000000000000000000000000000000000000000815260040161319490614ea3565b60405180910390fd5b6131a8838383613c92565b6131b3600082613392565b6001600360008573ffffffffffffffffffffffffffffffffffffffff1673ffffffffffffffffffffffffffffffffffffffff16815260200190815260200160002060008282546132039190615453565b925050819055506001600360008473ffffffffffffffffffffffffffffffffffffffff1673ffffffffffffffffffffffffffffffffffffffff168152602001908152602001600020600082825461325a9190615372565b92505081905550816002600083815260200190815260200160002060006101000a81548173ffffffffffffffffffffffffffffffffffffffff021916908373ffffffffffffffffffffffffffffffffffffffff160217905550808273ffffffffffffffffffffffffffffffffffffffff168473ffffffffffffffffffffffffffffffffffffffff167fddf252ad1be2c89b69c2b068fc378daa952ba7f163c4a11628f55a4df523b3ef60405160405180910390a4613319838383613c97565b505050565b60008073ffffffffffffffffffffffffffffffffffffffff166002600084815260200190815260200160002060009054906101000a900473ffffffffffffffffffffffffffffffffffffffff1673ffffffffffffffffffffffffffffffffffffffff1614159050919050565b600033905090565b816004600083815260200190815260200160002060006101000a81548173ffffffffffffffffffffffffffffffffffffffff021916908373ffffffffffffffffffffffffffffffffffffffff160217905550808273ffffffffffffffffffffffffffffffffffffffff1661340583611640565b73ffffffffffffffffffffffffffffffffffffffff167f8c5be1e5ebec7d5bd14f71427d1e84f3dd0314c0f7b2291e5b200ac8c7c3b92560405160405180910390a45050565b60006134568261331e565b613495576040517f08c379a000000000000000000000000000000000000000000000000000000000815260040161348c90614ee3565b60405180910390fd5b60006134a083611640565b90508073ffffffffffffffffffffffffffffffffffffffff168473ffffffffffffffffffffffffffffffffffffffff16148061350f57508373ffffffffffffffffffffffffffffffffffffffff166134f784611238565b73ffffffffffffffffffffffffffffffffffffffff16145b80613520575061351f8185612df5565b5b91505092915050565b6000612710905090565b600073ffffffffffffffffffffffffffffffffffffffff168273ffffffffffffffffffffffffffffffffffffffff1614156135a3576040517f08c379a000000000000000000000000000000000000000000000000000000000815260040161359a90614fe3565b60405180910390fd5b6135ac8161331e565b156135ec576040517f08c379a00000000000000000000000000000000000000000000000000000000081526004016135e390614e83565b60405180910390fd5b6135f860008383613c92565b6001600360008473ffffffffffffffffffffffffffffffffffffffff1673ffffffffffffffffffffffffffffffffffffffff16815260200190815260200160002060008282546136489190615372565b92505081905550816002600083815260200190815260200160002060006101000a81548173ffffffffffffffffffffffffffffffffffffffff021916908373ffffffffffffffffffffffffffffffffffffffff160217905550808273ffffffffffffffffffffffffffffffffffffffff16600073ffffffffffffffffffffffffffffffffffffffff167fddf252ad1be2c89b69c2b068fc378daa952ba7f163c4a11628f55a4df523b3ef60405160405180910390a461370960008383613c97565b5050565b6137168261331e565b613755576040517f08c379a000000000000000000000000000000000000000000000000000000000815260040161374c90614fa3565b60405180910390fd5b8060066000848152602001908152602001600020908051906020019061377c92919061406d565b505050565b8173ffffffffffffffffffffffffffffffffffffffff168373ffffffffffffffffffffffffffffffffffffffff1614156137f0576040517f08c379a00000000000000000000000000000000000000000000000000000000081526004016137e790614ec3565b60405180910390fd5b80600560008573ffffffffffffffffffffffffffffffffffffffff1673ffffffffffffffffffffffffffffffffffffffff16815260200190815260200160002060008473ffffffffffffffffffffffffffffffffffffffff1673ffffffffffffffffffffffffffffffffffffffff16815260200190815260200160002060006101000a81548160ff0219169083151502179055508173ffffffffffffffffffffffffffffffffffffffff168373ffffffffffffffffffffffffffffffffffffffff167f17307eab39ab6107e8899845ad3d59bd9653f200f220920489ca2b5937696c31836040516138e19190614dc6565b60405180910390a3505050565b6138f98484846130b7565b61390584848484613c9c565b613944576040517f08c379a000000000000000000000000000000000000000000000000000000000815260040161393b90614e43565b60405180910390fd5b50505050565b606060405180602001604052806000815250905090565b606061396c8261331e565b6139ab576040517f08c379a00000000000000000000000000000000000000000000000000000000081526004016139a290615063565b60405180910390fd5b60006139b561394a565b905060008151116139d55760405180602001604052806000815250613a00565b806139df84613e33565b6040516020016139f0929190614c43565b6040516020818303038152906040525b915050919050565b613a10613529565b6bffffffffffffffffffffffff16816bffffffffffffffffffffffff161115613a6e576040517f08c379a0000000000000000000000000000000000000000000000000000000008152600401613a6590615143565b60405180910390fd5b600073ffffffffffffffffffffffffffffffffffffffff168273ffffffffffffffffffffffffffffffffffffffff161415613ade576040517f08c379a0000000000000000000000000000000000000000000000000000000008152600401613ad5906150e3565b60405180910390fd5b60405180604001604052808373ffffffffffffffffffffffffffffffffffffffff168152602001826bffffffffffffffffffffffff168152506009600085815260200190815260200160002060008201518160000160006101000a81548173ffffffffffffffffffffffffffffffffffffffff021916908373ffffffffffffffffffffffffffffffffffffffff16021790555060208201518160000160146101000a8154816bffffffffffffffffffffffff02191690836bffffffffffffffffffffffff160217905550905050505050565b60007f80ac58cd000000000000000000000000000000000000000000000000000000007bffffffffffffffffffffffffffffffffffffffffffffffffffffffff1916827bffffffffffffffffffffffffffffffffffffffffffffffffffffffff19161480613c7b57507f5b5e139f000000000000000000000000000000000000000000000000000000007bffffffffffffffffffffffffffffffffffffffffffffffffffffffff1916827bffffffffffffffffffffffffffffffffffffffffffffffffffffffff1916145b80613c8b5750613c8a82613fe0565b5b9050919050565b505050565b505050565b6000613cbd8473ffffffffffffffffffffffffffffffffffffffff1661404a565b15613e26578373ffffffffffffffffffffffffffffffffffffffff1663150b7a02613ce661338a565b8786866040518563ffffffff1660e01b8152600401613d089493929190614d0c565b602060405180830381600087803b158015613d2257600080fd5b505af1925050508015613d5357506040513d601f19601f82011682018060405250810190613d50919061459c565b60015b613dd6573d8060008114613d83576040519150601f19603f3d011682016040523d82523d6000602084013e613d88565b606091505b50600081511415613dce576040517f08c379a0000000000000000000000000000000000000000000000000000000008152600401613dc590614e43565b60405180910390fd5b805181602001fd5b63150b7a0260e01b7bffffffffffffffffffffffffffffffffffffffffffffffffffffffff1916817bffffffffffffffffffffffffffffffffffffffffffffffffffffffff191614915050613e2b565b600190505b949350505050565b60606000821415613e7b576040518060400160405280600181526020017f30000000000000000000000000000000000000000000000000000000000000008152509050613fdb565b600082905060005b60008214613ead578080613e96906155ca565b915050600a82613ea691906153c8565b9150613e83565b60008167ffffffffffffffff811115613eef577f4e487b7100000000000000000000000000000000000000000000000000000000600052604160045260246000fd5b6040519080825280601f01601f191660200182016040528015613f215781602001600182028036833780820191505090505b5090505b60008514613fd457600182613f3a9190615453565b9150600a85613f499190615613565b6030613f559190615372565b60f81b818381518110613f91577f4e487b7100000000000000000000000000000000000000000000000000000000600052603260045260246000fd5b60200101907effffffffffffffffffffffffffffffffffffffffffffffffffffffffffffff1916908160001a905350600a85613fcd91906153c8565b9450613f25565b8093505050505b919050565b60007f01ffc9a7000000000000000000000000000000000000000000000000000000007bffffffffffffffffffffffffffffffffffffffffffffffffffffffff1916827bffffffffffffffffffffffffffffffffffffffffffffffffffffffff1916149050919050565b6000808273ffffffffffffffffffffffffffffffffffffffff163b119050919050565b82805461407990615567565b90600052602060002090601f01602090048101928261409b57600085556140e2565b82601f106140b457805160ff19168380011785556140e2565b828001600101855582156140e2579182015b828111156140e15782518255916020019190600101906140c6565b5b5090506140ef91906140f3565b5090565b5b8082111561410c5760008160009055506001016140f4565b5090565b600061412361411e846152cd565b6152a8565b90508281526020810184848401111561413b57600080fd5b614146848285615525565b509392505050565b600061416161415c846152fe565b6152a8565b90508281526020810184848401111561417957600080fd5b614184848285615525565b509392505050565b60008135905061419b81615eae565b92915050565b6000815190506141b081615eae565b92915050565b6000813590506141c581615ec5565b92915050565b6000815190506141da81615ec5565b92915050565b6000813590506141ef81615edc565b92915050565b60008151905061420481615edc565b92915050565b600082601f83011261421b57600080fd5b813561422b848260208601614110565b91505092915050565b600082601f83011261424557600080fd5b813561425584826020860161414e565b91505092915050565b60008135905061426d81615ef3565b92915050565b60008151905061428281615ef3565b92915050565b60008135905061429781615f0a565b92915050565b6000602082840312156142af57600080fd5b60006142bd8482850161418c565b91505092915050565b6000602082840312156142d857600080fd5b60006142e6848285016141a1565b91505092915050565b6000806040838503121561430257600080fd5b60006143108582860161418c565b92505060206143218582860161418c565b9150509250929050565b60008060006060848603121561434057600080fd5b600061434e8682870161418c565b935050602061435f8682870161418c565b92505060406143708682870161425e565b9150509250925092565b6000806000806080858703121561439057600080fd5b600061439e8782880161418c565b94505060206143af8782880161418c565b93505060406143c08782880161425e565b925050606085013567ffffffffffffffff8111156143dd57600080fd5b6143e98782880161420a565b91505092959194509250565b6000806040838503121561440857600080fd5b60006144168582860161418c565b9250506020614427858286016141b6565b9150509250929050565b60008060008060008060c0878903121561444a57600080fd5b600061445889828a0161418c565b965050602087013567ffffffffffffffff81111561447557600080fd5b61448189828a01614234565b955050604061449289828a0161425e565b94505060606144a389828a01614288565b93505060806144b489828a0161418c565b92505060a06144c589828a0161418c565b9150509295509295509295565b600080604083850312156144e557600080fd5b60006144f38582860161418c565b92505060206145048582860161425e565b9150509250929050565b6000806040838503121561452157600080fd5b600061452f858286016141a1565b925050602061454085828601614273565b9150509250929050565b60006020828403121561455c57600080fd5b600061456a848285016141cb565b91505092915050565b60006020828403121561458557600080fd5b6000614593848285016141e0565b91505092915050565b6000602082840312156145ae57600080fd5b60006145bc848285016141f5565b91505092915050565b6000602082840312156145d757600080fd5b60006145e58482850161425e565b91505092915050565b60006020828403121561460057600080fd5b600061460e84828501614273565b91505092915050565b6000806040838503121561462a57600080fd5b60006146388582860161425e565b92505060206146498582860161418c565b9150509250929050565b600080600080600060a0868803121561466b57600080fd5b60006146798882890161425e565b955050602061468a8882890161418c565b945050604061469b8882890161425e565b93505060606146ac8882890161418c565b925050608086013567ffffffffffffffff8111156146c957600080fd5b6146d588828901614234565b9150509295509295909350565b600080604083850312156146f557600080fd5b60006147038582860161425e565b92505060206147148582860161425e565b9150509250929050565b60008060006060848603121561473357600080fd5b60006147418682870161425e565b93505060206147528682870161425e565b92505060406147638682870161418c565b9150509250925092565b61477681615487565b82525050565b61478581615499565b82525050565b60006147968261532f565b6147a08185615345565b93506147b0818560208601615534565b6147b981615700565b840191505092915050565b60006147cf8261533a565b6147d98185615356565b93506147e9818560208601615534565b6147f281615700565b840191505092915050565b60006148088261533a565b6148128185615367565b9350614822818560208601615534565b80840191505092915050565b600061483b601983615356565b915061484682615711565b602082019050919050565b600061485e602c83615356565b91506148698261573a565b604082019050919050565b6000614881603283615356565b915061488c82615789565b604082019050919050565b60006148a4602583615356565b91506148af826157d8565b604082019050919050565b60006148c7601c83615356565b91506148d282615827565b602082019050919050565b60006148ea602483615356565b91506148f582615850565b604082019050919050565b600061490d601983615356565b91506149188261589f565b602082019050919050565b6000614930602c83615356565b915061493b826158c8565b604082019050919050565b6000614953603883615356565b915061495e82615917565b604082019050919050565b6000614976601c83615356565b915061498182615966565b602082019050919050565b6000614999602a83615356565b91506149a48261598f565b604082019050919050565b60006149bc601883615356565b91506149c7826159de565b602082019050919050565b60006149df602983615356565b91506149ea82615a07565b604082019050919050565b6000614a02602e83615356565b9150614a0d82615a56565b604082019050919050565b6000614a25604083615356565b9150614a3082615aa5565b604082019050919050565b6000614a48602083615356565b9150614a5382615af4565b602082019050919050565b6000614a6b603183615356565b9150614a7682615b1d565b604082019050919050565b6000614a8e602c83615356565b9150614a9982615b6c565b604082019050919050565b6000614ab1602c83615356565b9150614abc82615bbb565b604082019050919050565b6000614ad4602f83615356565b9150614adf82615c0a565b604082019050919050565b6000614af7602183615356565b9150614b0282615c59565b604082019050919050565b6000614b1a602c83615356565b9150614b2582615ca8565b604082019050919050565b6000614b3d603183615356565b9150614b4882615cf7565b604082019050919050565b6000614b60601b83615356565b9150614b6b82615d46565b602082019050919050565b6000614b83602483615356565b9150614b8e82615d6f565b604082019050919050565b6000614ba6602283615356565b9150614bb182615dbe565b604082019050919050565b6000614bc9602a83615356565b9150614bd482615e0d565b604082019050919050565b6000614bec601f83615356565b9150614bf782615e5c565b602082019050919050565b6000614c0f602083615356565b9150614c1a82615e85565b602082019050919050565b614c2e816154f1565b82525050565b614c3d81615513565b82525050565b6000614c4f82856147fd565b9150614c5b82846147fd565b91508190509392505050565b6000602082019050614c7c600083018461476d565b92915050565b600060a082019050614c97600083018861476d565b614ca4602083018761476d565b614cb1604083018661476d565b614cbe6060830185614c25565b614ccb6080830184614c25565b9695505050505050565b6000606082019050614cea600083018661476d565b614cf7602083018561476d565b614d046040830184614c25565b949350505050565b6000608082019050614d21600083018761476d565b614d2e602083018661476d565b614d3b6040830185614c25565b8181036060830152614d4d818461478b565b905095945050505050565b6000608082019050614d6d600083018761476d565b614d7a602083018661476d565b614d876040830185614c25565b614d946060830184614c34565b95945050505050565b6000604082019050614db2600083018561476d565b614dbf6020830184614c25565b9392505050565b6000602082019050614ddb600083018461477c565b92915050565b60006020820190508181036000830152614dfb81846147c4565b905092915050565b60006020820190508181036000830152614e1c8161482e565b9050919050565b60006020820190508181036000830152614e3c81614851565b9050919050565b60006020820190508181036000830152614e5c81614874565b9050919050565b60006020820190508181036000830152614e7c81614897565b9050919050565b60006020820190508181036000830152614e9c816148ba565b9050919050565b60006020820190508181036000830152614ebc816148dd565b9050919050565b60006020820190508181036000830152614edc81614900565b9050919050565b60006020820190508181036000830152614efc81614923565b9050919050565b60006020820190508181036000830152614f1c81614946565b9050919050565b60006020820190508181036000830152614f3c81614969565b9050919050565b60006020820190508181036000830152614f5c8161498c565b9050919050565b60006020820190508181036000830152614f7c816149af565b9050919050565b60006020820190508181036000830152614f9c816149d2565b9050919050565b60006020820190508181036000830152614fbc816149f5565b9050919050565b60006020820190508181036000830152614fdc81614a18565b9050919050565b60006020820190508181036000830152614ffc81614a3b565b9050919050565b6000602082019050818103600083015261501c81614a5e565b9050919050565b6000602082019050818103600083015261503c81614a81565b9050919050565b6000602082019050818103600083015261505c81614aa4565b9050919050565b6000602082019050818103600083015261507c81614ac7565b9050919050565b6000602082019050818103600083015261509c81614aea565b9050919050565b600060208201905081810360008301526150bc81614b0d565b9050919050565b600060208201905081810360008301526150dc81614b30565b9050919050565b600060208201905081810360008301526150fc81614b53565b9050919050565b6000602082019050818103600083015261511c81614b76565b9050919050565b6000602082019050818103600083015261513c81614b99565b9050919050565b6000602082019050818103600083015261515c81614bbc565b9050919050565b6000602082019050818103600083015261517c81614bdf565b9050919050565b6000602082019050818103600083015261519c81614c02565b9050919050565b60006020820190506151b86000830184614c25565b92915050565b60006040820190506151d36000830185614c25565b6151e0602083018461476d565b9392505050565b600060c0820190506151fc6000830189614c25565b615209602083018861476d565b615216604083018761476d565b6152236060830186614c25565b6152306080830185614c25565b61523d60a083018461476d565b979650505050505050565b600060608201905061525d6000830186614c25565b61526a602083018561476d565b6152776040830184614c25565b949350505050565b60006040820190506152946000830185614c25565b6152a16020830184614c25565b9392505050565b60006152b26152c3565b90506152be8282615599565b919050565b6000604051905090565b600067ffffffffffffffff8211156152e8576152e76156d1565b5b6152f182615700565b9050602081019050919050565b600067ffffffffffffffff821115615319576153186156d1565b5b61532282615700565b9050602081019050919050565b600081519050919050565b600081519050919050565b600082825260208201905092915050565b600082825260208201905092915050565b600081905092915050565b600061537d826154f1565b9150615388836154f1565b9250827fffffffffffffffffffffffffffffffffffffffffffffffffffffffffffffffff038211156153bd576153bc615644565b5b828201905092915050565b60006153d3826154f1565b91506153de836154f1565b9250826153ee576153ed615673565b5b828204905092915050565b6000615404826154f1565b915061540f836154f1565b9250817fffffffffffffffffffffffffffffffffffffffffffffffffffffffffffffffff048311821515161561544857615447615644565b5b828202905092915050565b600061545e826154f1565b9150615469836154f1565b92508282101561547c5761547b615644565b5b828203905092915050565b6000615492826154d1565b9050919050565b60008115159050919050565b60007fffffffff0000000000000000000000000000000000000000000000000000000082169050919050565b600073ffffffffffffffffffffffffffffffffffffffff82169050919050565b6000819050919050565b60006bffffffffffffffffffffffff82169050919050565b600061551e826154fb565b9050919050565b82818337600083830152505050565b60005b83811015615552578082015181840152602081019050615537565b83811115615561576000848401525b50505050565b6000600282049050600182168061557f57607f821691505b60208210811415615593576155926156a2565b5b50919050565b6155a282615700565b810181811067ffffffffffffffff821117156155c1576155c06156d1565b5b80604052505050565b60006155d5826154f1565b91507fffffffffffffffffffffffffffffffffffffffffffffffffffffffffffffffff82141561560857615607615644565b5b600182019050919050565b600061561e826154f1565b9150615629836154f1565b92508261563957615638615673565b5b828206905092915050565b7f4e487b7100000000000000000000000000000000000000000000000000000000600052601160045260246000fd5b7f4e487b7100000000000000000000000000000000000000000000000000000000600052601260045260246000fd5b7f4e487b7100000000000000000000000000000000000000000000000000000000600052602260045260246000fd5b7f4e487b7100000000000000000000000000000000000000000000000000000000600052604160045260246000fd5b6000601f19601f8301169050919050565b7f596f7520646f206e6f74206f776e207468697320746f6b656e00000000000000600082015250565b7f4f6e6c792074686520636f6e74726f6c6c65722063616e20616363657373207460008201527f6869732066756e6374696f6e0000000000000000000000000000000000000000602082015250565b7f4552433732313a207472616e7366657220746f206e6f6e20455243373231526560008201527f63656976657220696d706c656d656e7465720000000000000000000000000000602082015250565b7f4552433732313a207472616e736665722066726f6d20696e636f72726563742060008201527f6f776e6572000000000000000000000000000000000000000000000000000000602082015250565b7f4552433732313a20746f6b656e20616c7265616479206d696e74656400000000600082015250565b7f4552433732313a207472616e7366657220746f20746865207a65726f2061646460008201527f7265737300000000000000000000000000000000000000000000000000000000602082015250565b7f4552433732313a20617070726f766520746f2063616c6c657200000000000000600082015250565b7f4552433732313a206f70657261746f7220717565727920666f72206e6f6e657860008201527f697374656e7420746f6b656e0000000000000000000000000000000000000000602082015250565b7f4552433732313a20617070726f76652063616c6c6572206973206e6f74206f7760008201527f6e6572206e6f7220617070726f76656420666f7220616c6c0000000000000000602082015250565b7f43616e6e6f7420686176652061206e6f6e2d7a65726f20707269636500000000600082015250565b7f4552433732313a2062616c616e636520717565727920666f7220746865207a6560008201527f726f206164647265737300000000000000000000000000000000000000000000602082015250565b7f596f7520646f6e2774206f776e207468697320746f6b656e0000000000000000600082015250565b7f4552433732313a206f776e657220717565727920666f72206e6f6e657869737460008201527f656e7420746f6b656e0000000000000000000000000000000000000000000000602082015250565b7f45524337323155524953746f726167653a2055524920736574206f66206e6f6e60008201527f6578697374656e7420746f6b656e000000000000000000000000000000000000602082015250565b7f506c65617365207375626d6974207468652061736b696e67207072696365206960008201527f6e206f7264657220746f20636f6d706c65746520746865207075726368617365602082015250565b7f4552433732313a206d696e7420746f20746865207a65726f2061646472657373600082015250565b7f45524337323155524953746f726167653a2055524920717565727920666f722060008201527f6e6f6e6578697374656e7420746f6b656e000000000000000000000000000000602082015250565b7f4552433732313a20617070726f76656420717565727920666f72206e6f6e657860008201527f697374656e7420746f6b656e0000000000000000000000000000000000000000602082015250565b7f4f6e6c79206974656d2032206f776e65722063616e20706572666f726d20746860008201527f6973206f7065726174696f6e0000000000000000000000000000000000000000602082015250565b7f4552433732314d657461646174613a2055524920717565727920666f72206e6f60008201527f6e6578697374656e7420746f6b656e0000000000000000000000000000000000602082015250565b7f4552433732313a20617070726f76616c20746f2063757272656e74206f776e6560008201527f7200000000000000000000000000000000000000000000000000000000000000602082015250565b7f4f6e6c79206974656d2031206f776e65722063616e20706572666f726d20746860008201527f6973206f7065726174696f6e0000000000000000000000000000000000000000602082015250565b7f4552433732313a207472616e736665722063616c6c6572206973206e6f74206f60008201527f776e6572206e6f7220617070726f766564000000000000000000000000000000602082015250565b7f455243323938313a20496e76616c696420706172616d65746572730000000000600082015250565b7f4f6e6c79206d61726b6574706c616365206974656d732063616e20626520626f60008201527f7567687400000000000000000000000000000000000000000000000000000000602082015250565b7f43616e6e6f742064656c69737420616e6f746865722075736572277320746f6b60008201527f656e000000000000000000000000000000000000000000000000000000000000602082015250565b7f455243323938313a20726f79616c7479206665652077696c6c2065786365656460008201527f2073616c65507269636500000000000000000000000000000000000000000000602082015250565b7f5265656e7472616e637947756172643a207265656e7472616e742063616c6c00600082015250565b7f42696464657220646f65736e2774206861766520656e6f756768206d6f6e6579600082015250565b615eb781615487565b8114615ec257600080fd5b50565b615ece81615499565b8114615ed957600080fd5b50565b615ee5816154a5565b8114615ef057600080fd5b50565b615efc816154f1565b8114615f0757600080fd5b50565b615f13816154fb565b8114615f1e57600080fd5b5056fea26469706673582212209b04e282e4d661972d51a6d536c4c638210d8d9fdf108e79b956a67322cf7b7264736f6c63430008040033",
  "linkReferences": {},
  "deployedLinkReferences": {}
}