{
  "_format": "hh-sol-artifact-1",
  "contractName": "NFTMarketplace",
  "sourceName": "contracts/NFTMarketplace.sol",
  "abi": [
    {
      "inputs": [],
      "stateMutability": "nonpayable",
      "type": "constructor"
    },
    {
      "anonymous": false,
      "inputs": [
        {
          "indexed": true,
          "internalType": "address",
          "name": "owner",
          "type": "address"
        },
        {
          "indexed": true,
          "internalType": "address",
          "name": "approved",
          "type": "address"
        },
        {
          "indexed": true,
          "internalType": "uint256",
          "name": "tokenId",
          "type": "uint256"
        }
      ],
      "name": "Approval",
      "type": "event"
    },
    {
      "anonymous": false,
      "inputs": [
        {
          "indexed": true,
          "internalType": "address",
          "name": "owner",
          "type": "address"
        },
        {
          "indexed": true,
          "internalType": "address",
          "name": "operator",
          "type": "address"
        },
        {
          "indexed": false,
          "internalType": "bool",
          "name": "approved",
          "type": "bool"
        }
      ],
      "name": "ApprovalForAll",
      "type": "event"
    },
    {
      "anonymous": false,
      "inputs": [
        {
          "indexed": true,
          "internalType": "uint256",
          "name": "tokenId",
          "type": "uint256"
        },
        {
          "indexed": false,
          "internalType": "address",
          "name": "seller",
          "type": "address"
        },
        {
          "indexed": false,
          "internalType": "address",
          "name": "owner",
          "type": "address"
        },
        {
          "indexed": false,
          "internalType": "address",
          "name": "publisher",
          "type": "address"
        },
        {
          "indexed": false,
          "internalType": "uint256",
          "name": "price",
          "type": "uint256"
        },
        {
          "indexed": false,
          "internalType": "uint256",
          "name": "royalty",
          "type": "uint256"
        },
        {
          "indexed": false,
          "internalType": "bool",
          "name": "sold",
          "type": "bool"
        }
      ],
      "name": "MarketItemCreated",
      "type": "event"
    },
    {
      "anonymous": false,
      "inputs": [
        {
          "indexed": true,
          "internalType": "address",
          "name": "from",
          "type": "address"
        },
        {
          "indexed": true,
          "internalType": "address",
          "name": "to",
          "type": "address"
        },
        {
          "indexed": true,
          "internalType": "uint256",
          "name": "tokenId",
          "type": "uint256"
        }
      ],
      "name": "Transfer",
      "type": "event"
    },
    {
      "inputs": [
        {
          "internalType": "address",
          "name": "to",
          "type": "address"
        },
        {
          "internalType": "uint256",
          "name": "tokenId",
          "type": "uint256"
        }
      ],
      "name": "approve",
      "outputs": [],
      "stateMutability": "nonpayable",
      "type": "function"
    },
    {
      "inputs": [
        {
          "internalType": "address",
          "name": "owner",
          "type": "address"
        }
      ],
      "name": "balanceOf",
      "outputs": [
        {
          "internalType": "uint256",
          "name": "",
          "type": "uint256"
        }
      ],
      "stateMutability": "view",
      "type": "function"
    },
    {
      "inputs": [
        {
          "internalType": "uint256",
          "name": "tokenId",
          "type": "uint256"
        },
        {
          "internalType": "uint256",
          "name": "price",
          "type": "uint256"
        },
        {
          "internalType": "uint256",
          "name": "royaltyValue",
          "type": "uint256"
        }
      ],
      "name": "createMarketItem",
      "outputs": [],
      "stateMutability": "payable",
      "type": "function"
    },
    {
      "inputs": [
        {
          "internalType": "uint256",
          "name": "tokenId",
          "type": "uint256"
        }
      ],
      "name": "createMarketSale",
      "outputs": [],
      "stateMutability": "payable",
      "type": "function"
    },
    {
      "inputs": [
        {
          "internalType": "string",
          "name": "tokenURI",
          "type": "string"
        },
        {
          "internalType": "uint256",
          "name": "price",
          "type": "uint256"
        },
        {
          "internalType": "uint256",
          "name": "royaltyValue",
          "type": "uint256"
        }
      ],
      "name": "createToken",
      "outputs": [
        {
          "internalType": "uint256",
          "name": "",
          "type": "uint256"
        }
      ],
      "stateMutability": "payable",
      "type": "function"
    },
    {
      "inputs": [
        {
          "internalType": "uint256",
          "name": "tokenId",
          "type": "uint256"
        }
      ],
      "name": "delistToken",
      "outputs": [],
      "stateMutability": "payable",
      "type": "function"
    },
    {
      "inputs": [],
      "name": "fetchItemsListed",
      "outputs": [
        {
          "components": [
            {
              "internalType": "uint256",
              "name": "tokenId",
              "type": "uint256"
            },
            {
              "internalType": "address payable",
              "name": "seller",
              "type": "address"
            },
            {
              "internalType": "address payable",
              "name": "owner",
              "type": "address"
            },
            {
              "internalType": "address payable",
              "name": "publisher",
              "type": "address"
            },
            {
              "internalType": "uint256",
              "name": "price",
              "type": "uint256"
            },
            {
              "internalType": "uint256",
              "name": "royalty",
              "type": "uint256"
            },
            {
              "internalType": "bool",
              "name": "sold",
              "type": "bool"
            }
          ],
          "internalType": "struct NFTMarketplace.MarketItem[]",
          "name": "",
          "type": "tuple[]"
        }
      ],
      "stateMutability": "view",
      "type": "function"
    },
    {
      "inputs": [],
      "name": "fetchMarketItems",
      "outputs": [
        {
          "components": [
            {
              "internalType": "uint256",
              "name": "tokenId",
              "type": "uint256"
            },
            {
              "internalType": "address payable",
              "name": "seller",
              "type": "address"
            },
            {
              "internalType": "address payable",
              "name": "owner",
              "type": "address"
            },
            {
              "internalType": "address payable",
              "name": "publisher",
              "type": "address"
            },
            {
              "internalType": "uint256",
              "name": "price",
              "type": "uint256"
            },
            {
              "internalType": "uint256",
              "name": "royalty",
              "type": "uint256"
            },
            {
              "internalType": "bool",
              "name": "sold",
              "type": "bool"
            }
          ],
          "internalType": "struct NFTMarketplace.MarketItem[]",
          "name": "",
          "type": "tuple[]"
        }
      ],
      "stateMutability": "view",
      "type": "function"
    },
    {
      "inputs": [],
      "name": "fetchMyNFTs",
      "outputs": [
        {
          "components": [
            {
              "internalType": "uint256",
              "name": "tokenId",
              "type": "uint256"
            },
            {
              "internalType": "address payable",
              "name": "seller",
              "type": "address"
            },
            {
              "internalType": "address payable",
              "name": "owner",
              "type": "address"
            },
            {
              "internalType": "address payable",
              "name": "publisher",
              "type": "address"
            },
            {
              "internalType": "uint256",
              "name": "price",
              "type": "uint256"
            },
            {
              "internalType": "uint256",
              "name": "royalty",
              "type": "uint256"
            },
            {
              "internalType": "bool",
              "name": "sold",
              "type": "bool"
            }
          ],
          "internalType": "struct NFTMarketplace.MarketItem[]",
          "name": "",
          "type": "tuple[]"
        }
      ],
      "stateMutability": "view",
      "type": "function"
    },
    {
      "inputs": [
        {
          "internalType": "uint256",
          "name": "tokenId",
          "type": "uint256"
        }
      ],
      "name": "getApproved",
      "outputs": [
        {
          "internalType": "address",
          "name": "",
          "type": "address"
        }
      ],
      "stateMutability": "view",
      "type": "function"
    },
    {
      "inputs": [],
      "name": "getListingPrice",
      "outputs": [
        {
          "internalType": "uint256",
          "name": "",
          "type": "uint256"
        }
      ],
      "stateMutability": "view",
      "type": "function"
    },
    {
      "inputs": [
        {
          "internalType": "address",
          "name": "owner",
          "type": "address"
        },
        {
          "internalType": "address",
          "name": "operator",
          "type": "address"
        }
      ],
      "name": "isApprovedForAll",
      "outputs": [
        {
          "internalType": "bool",
          "name": "",
          "type": "bool"
        }
      ],
      "stateMutability": "view",
      "type": "function"
    },
    {
      "inputs": [],
      "name": "name",
      "outputs": [
        {
          "internalType": "string",
          "name": "",
          "type": "string"
        }
      ],
      "stateMutability": "view",
      "type": "function"
    },
    {
      "inputs": [
        {
          "internalType": "uint256",
          "name": "tokenId",
          "type": "uint256"
        }
      ],
      "name": "ownerOf",
      "outputs": [
        {
          "internalType": "address",
          "name": "",
          "type": "address"
        }
      ],
      "stateMutability": "view",
      "type": "function"
    },
    {
      "inputs": [
        {
          "internalType": "uint256",
          "name": "tokenId",
          "type": "uint256"
        },
        {
          "internalType": "uint256",
          "name": "price",
          "type": "uint256"
        }
      ],
      "name": "resellToken",
      "outputs": [],
      "stateMutability": "payable",
      "type": "function"
    },
    {
      "inputs": [
        {
          "internalType": "address",
          "name": "from",
          "type": "address"
        },
        {
          "internalType": "address",
          "name": "to",
          "type": "address"
        },
        {
          "internalType": "uint256",
          "name": "tokenId",
          "type": "uint256"
        }
      ],
      "name": "safeTransferFrom",
      "outputs": [],
      "stateMutability": "nonpayable",
      "type": "function"
    },
    {
      "inputs": [
        {
          "internalType": "address",
          "name": "from",
          "type": "address"
        },
        {
          "internalType": "address",
          "name": "to",
          "type": "address"
        },
        {
          "internalType": "uint256",
          "name": "tokenId",
          "type": "uint256"
        },
        {
          "internalType": "bytes",
          "name": "_data",
          "type": "bytes"
        }
      ],
      "name": "safeTransferFrom",
      "outputs": [],
      "stateMutability": "nonpayable",
      "type": "function"
    },
    {
      "inputs": [
        {
          "internalType": "address",
          "name": "operator",
          "type": "address"
        },
        {
          "internalType": "bool",
          "name": "approved",
          "type": "bool"
        }
      ],
      "name": "setApprovalForAll",
      "outputs": [],
      "stateMutability": "nonpayable",
      "type": "function"
    },
    {
      "inputs": [
        {
          "internalType": "bytes4",
          "name": "interfaceId",
          "type": "bytes4"
        }
      ],
      "name": "supportsInterface",
      "outputs": [
        {
          "internalType": "bool",
          "name": "",
          "type": "bool"
        }
      ],
      "stateMutability": "view",
      "type": "function"
    },
    {
      "inputs": [],
      "name": "symbol",
      "outputs": [
        {
          "internalType": "string",
          "name": "",
          "type": "string"
        }
      ],
      "stateMutability": "view",
      "type": "function"
    },
    {
      "inputs": [
        {
          "internalType": "uint256",
          "name": "tokenId",
          "type": "uint256"
        }
      ],
      "name": "tokenURI",
      "outputs": [
        {
          "internalType": "string",
          "name": "",
          "type": "string"
        }
      ],
      "stateMutability": "view",
      "type": "function"
    },
    {
      "inputs": [
        {
          "internalType": "address",
          "name": "from",
          "type": "address"
        },
        {
          "internalType": "address",
          "name": "to",
          "type": "address"
        },
        {
          "internalType": "uint256",
          "name": "tokenId",
          "type": "uint256"
        }
      ],
      "name": "transferFrom",
      "outputs": [],
      "stateMutability": "nonpayable",
      "type": "function"
    },
    {
      "inputs": [
        {
          "internalType": "uint256",
          "name": "_listingPrice",
          "type": "uint256"
        }
      ],
      "name": "updateListingPrice",
      "outputs": [],
      "stateMutability": "payable",
      "type": "function"
    }
  ],
  "bytecode": "0x608060405264174876e800600a553480156200001a57600080fd5b506040518060400160405280601081526020017f4e66747954756e657320546f6b656e73000000000000000000000000000000008152506040518060400160405280600481526020017f4e4654590000000000000000000000000000000000000000000000000000000081525081600090805190602001906200009f9291906200010a565b508060019080519060200190620000b89291906200010a565b505050600160078190555033600b60006101000a81548173ffffffffffffffffffffffffffffffffffffffff021916908373ffffffffffffffffffffffffffffffffffffffff1602179055506200021f565b8280546200011890620001ba565b90600052602060002090601f0160209004810192826200013c576000855562000188565b82601f106200015757805160ff191683800117855562000188565b8280016001018555821562000188579182015b82811115620001875782518255916020019190600101906200016a565b5b5090506200019791906200019b565b5090565b5b80821115620001b65760008160009055506001016200019c565b5090565b60006002820490506001821680620001d357607f821691505b60208210811415620001ea57620001e9620001f0565b5b50919050565b7f4e487b7100000000000000000000000000000000000000000000000000000000600052602260045260246000fd5b6149cc806200022f6000396000f3fe6080604052600436106101405760003560e01c80636352211e116100b6578063be9af5361161006f578063be9af53614610440578063bec2a7c51461045c578063bed659bc1461048c578063c87b56dd146104a8578063e219fc75146104e5578063e985e9c51461050157610140565b80636352211e1461032d57806370a082311461036a57806395d89b41146103a7578063a22cb465146103d2578063ae677aa3146103fb578063b88d4fde1461041757610140565b806312e855851161010857806312e855851461023e578063202e37401461026957806323b872dd14610294578063320343da146102bd57806342842e0e146102d957806345f8fa801461030257610140565b806301ffc9a71461014557806306fdde0314610182578063081812fc146101ad578063095ea7b3146101ea5780630f08efe014610213575b600080fd5b34801561015157600080fd5b5061016c60048036038101906101679190613310565b61053e565b6040516101799190613ad4565b60405180910390f35b34801561018e57600080fd5b50610197610620565b6040516101a49190613aef565b60405180910390f35b3480156101b957600080fd5b506101d460048036038101906101cf91906133c9565b6106b2565b6040516101e191906139ea565b60405180910390f35b3480156101f657600080fd5b50610211600480360381019061020c91906132d4565b610737565b005b34801561021f57600080fd5b5061022861084f565b6040516102359190613ab2565b60405180910390f35b34801561024a57600080fd5b50610253610b64565b6040516102609190613e11565b60405180910390f35b34801561027557600080fd5b5061027e610b6e565b60405161028b9190613ab2565b60405180910390f35b3480156102a057600080fd5b506102bb60048036038101906102b691906131ce565b610f08565b005b6102d760048036038101906102d2919061342e565b610f68565b005b3480156102e557600080fd5b5061030060048036038101906102fb91906131ce565b6111f5565b005b34801561030e57600080fd5b50610317611215565b6040516103249190613ab2565b60405180910390f35b34801561033957600080fd5b50610354600480360381019061034f91906133c9565b6115af565b60405161036191906139ea565b60405180910390f35b34801561037657600080fd5b50610391600480360381019061038c9190613169565b611661565b60405161039e9190613e11565b60405180910390f35b3480156103b357600080fd5b506103bc611719565b6040516103c99190613aef565b60405180910390f35b3480156103de57600080fd5b506103f960048036038101906103f49190613298565b6117ab565b005b610415600480360381019061041091906133c9565b6117c1565b005b34801561042357600080fd5b5061043e6004803603810190610439919061321d565b61185b565b005b61045a600480360381019061045591906133c9565b6118bd565b005b61047660048036038101906104719190613362565b611bb6565b6040516104839190613e11565b60405180910390f35b6104a660048036038101906104a191906133c9565b611bfa565b005b3480156104b457600080fd5b506104cf60048036038101906104ca91906133c9565b611d8f565b6040516104dc9190613aef565b60405180910390f35b6104ff60048036038101906104fa91906133f2565b611ee1565b005b34801561050d57600080fd5b5061052860048036038101906105239190613192565b6120d6565b6040516105359190613ad4565b60405180910390f35b60007f80ac58cd000000000000000000000000000000000000000000000000000000007bffffffffffffffffffffffffffffffffffffffffffffffffffffffff1916827bffffffffffffffffffffffffffffffffffffffffffffffffffffffff1916148061060957507f5b5e139f000000000000000000000000000000000000000000000000000000007bffffffffffffffffffffffffffffffffffffffffffffffffffffffff1916827bffffffffffffffffffffffffffffffffffffffffffffffffffffffff1916145b8061061957506106188261216a565b5b9050919050565b60606000805461062f9061410c565b80601f016020809104026020016040519081016040528092919081815260200182805461065b9061410c565b80156106a85780601f1061067d576101008083540402835291602001916106a8565b820191906000526020600020905b81548152906001019060200180831161068b57829003601f168201915b5050505050905090565b60006106bd826121d4565b6106fc576040517f08c379a00000000000000000000000000000000000000000000000000000000081526004016106f390613d11565b60405180910390fd5b6004600083815260200190815260200160002060009054906101000a900473ffffffffffffffffffffffffffffffffffffffff169050919050565b6000610742826115af565b90508073ffffffffffffffffffffffffffffffffffffffff168373ffffffffffffffffffffffffffffffffffffffff1614156107b3576040517f08c379a00000000000000000000000000000000000000000000000000000000081526004016107aa90613d51565b60405180910390fd5b8073ffffffffffffffffffffffffffffffffffffffff166107d2612240565b73ffffffffffffffffffffffffffffffffffffffff1614806108015750610800816107fb612240565b6120d6565b5b610840576040517f08c379a000000000000000000000000000000000000000000000000000000000815260040161083790613c11565b60405180910390fd5b61084a8383612248565b505050565b6060600061085d6008612301565b9050600061086b6009612301565b6108756008612301565b61087f9190614010565b90506000808267ffffffffffffffff8111156108c4577f4e487b7100000000000000000000000000000000000000000000000000000000600052604160045260246000fd5b6040519080825280602002602001820160405280156108fd57816020015b6108ea612f0c565b8152602001906001900390816108e25790505b50905060005b84811015610b59573073ffffffffffffffffffffffffffffffffffffffff16600c60006001846109339190613f2f565b815260200190815260200160002060020160009054906101000a900473ffffffffffffffffffffffffffffffffffffffff1673ffffffffffffffffffffffffffffffffffffffff161415610b465760006001826109909190613f2f565b90506000600c60008381526020019081526020016000209050806040518060e0016040529081600082015481526020016001820160009054906101000a900473ffffffffffffffffffffffffffffffffffffffff1673ffffffffffffffffffffffffffffffffffffffff1673ffffffffffffffffffffffffffffffffffffffff1681526020016002820160009054906101000a900473ffffffffffffffffffffffffffffffffffffffff1673ffffffffffffffffffffffffffffffffffffffff1673ffffffffffffffffffffffffffffffffffffffff1681526020016003820160009054906101000a900473ffffffffffffffffffffffffffffffffffffffff1673ffffffffffffffffffffffffffffffffffffffff1673ffffffffffffffffffffffffffffffffffffffff16815260200160048201548152602001600582015481526020016006820160009054906101000a900460ff161515151581525050848681518110610b29577f4e487b7100000000000000000000000000000000000000000000000000000000600052603260045260246000fd5b6020026020010181905250600185610b419190613f2f565b945050505b8080610b519061416f565b915050610903565b508094505050505090565b6000600a54905090565b60606000610b7c6008612301565b905060008060005b83811015610c25573373ffffffffffffffffffffffffffffffffffffffff16600c6000600184610bb49190613f2f565b815260200190815260200160002060020160009054906101000a900473ffffffffffffffffffffffffffffffffffffffff1673ffffffffffffffffffffffffffffffffffffffff161415610c1257600183610c0f9190613f2f565b92505b8080610c1d9061416f565b915050610b84565b5060008267ffffffffffffffff811115610c68577f4e487b7100000000000000000000000000000000000000000000000000000000600052604160045260246000fd5b604051908082528060200260200182016040528015610ca157816020015b610c8e612f0c565b815260200190600190039081610c865790505b50905060005b84811015610efd573373ffffffffffffffffffffffffffffffffffffffff16600c6000600184610cd79190613f2f565b815260200190815260200160002060020160009054906101000a900473ffffffffffffffffffffffffffffffffffffffff1673ffffffffffffffffffffffffffffffffffffffff161415610eea576000600182610d349190613f2f565b90506000600c60008381526020019081526020016000209050806040518060e0016040529081600082015481526020016001820160009054906101000a900473ffffffffffffffffffffffffffffffffffffffff1673ffffffffffffffffffffffffffffffffffffffff1673ffffffffffffffffffffffffffffffffffffffff1681526020016002820160009054906101000a900473ffffffffffffffffffffffffffffffffffffffff1673ffffffffffffffffffffffffffffffffffffffff1673ffffffffffffffffffffffffffffffffffffffff1681526020016003820160009054906101000a900473ffffffffffffffffffffffffffffffffffffffff1673ffffffffffffffffffffffffffffffffffffffff1673ffffffffffffffffffffffffffffffffffffffff16815260200160048201548152602001600582015481526020016006820160009054906101000a900460ff161515151581525050848681518110610ecd577f4e487b7100000000000000000000000000000000000000000000000000000000600052603260045260246000fd5b6020026020010181905250600185610ee59190613f2f565b945050505b8080610ef59061416f565b915050610ca7565b508094505050505090565b610f19610f13612240565b8261230f565b610f58576040517f08c379a0000000000000000000000000000000000000000000000000000000008152600401610f4f90613d91565b60405180910390fd5b610f638383836123ed565b505050565b60026007541415610fae576040517f08c379a0000000000000000000000000000000000000000000000000000000008152600401610fa590613dd1565b60405180910390fd5b600260078190555060008211610ff9576040517f08c379a0000000000000000000000000000000000000000000000000000000008152600401610ff090613df1565b60405180910390fd5b6040518060e001604052808481526020013373ffffffffffffffffffffffffffffffffffffffff1681526020013073ffffffffffffffffffffffffffffffffffffffff1681526020013373ffffffffffffffffffffffffffffffffffffffff16815260200183815260200182815260200160001515815250600c60008581526020019081526020016000206000820151816000015560208201518160010160006101000a81548173ffffffffffffffffffffffffffffffffffffffff021916908373ffffffffffffffffffffffffffffffffffffffff16021790555060408201518160020160006101000a81548173ffffffffffffffffffffffffffffffffffffffff021916908373ffffffffffffffffffffffffffffffffffffffff16021790555060608201518160030160006101000a81548173ffffffffffffffffffffffffffffffffffffffff021916908373ffffffffffffffffffffffffffffffffffffffff1602179055506080820151816004015560a0820151816005015560c08201518160060160006101000a81548160ff0219169083151502179055509050506111a53330856123ed565b827fa5d9d913ac4de93e8f5dc9a8834f347d521cd0daf35756b44fe413e9f3401979333033868660006040516111e096959493929190613a05565b60405180910390a26001600781905550505050565b6112108383836040518060200160405280600081525061185b565b505050565b606060006112236008612301565b905060008060005b838110156112cc573373ffffffffffffffffffffffffffffffffffffffff16600c600060018461125b9190613f2f565b815260200190815260200160002060010160009054906101000a900473ffffffffffffffffffffffffffffffffffffffff1673ffffffffffffffffffffffffffffffffffffffff1614156112b9576001836112b69190613f2f565b92505b80806112c49061416f565b91505061122b565b5060008267ffffffffffffffff81111561130f577f4e487b7100000000000000000000000000000000000000000000000000000000600052604160045260246000fd5b60405190808252806020026020018201604052801561134857816020015b611335612f0c565b81526020019060019003908161132d5790505b50905060005b848110156115a4573373ffffffffffffffffffffffffffffffffffffffff16600c600060018461137e9190613f2f565b815260200190815260200160002060010160009054906101000a900473ffffffffffffffffffffffffffffffffffffffff1673ffffffffffffffffffffffffffffffffffffffff1614156115915760006001826113db9190613f2f565b90506000600c60008381526020019081526020016000209050806040518060e0016040529081600082015481526020016001820160009054906101000a900473ffffffffffffffffffffffffffffffffffffffff1673ffffffffffffffffffffffffffffffffffffffff1673ffffffffffffffffffffffffffffffffffffffff1681526020016002820160009054906101000a900473ffffffffffffffffffffffffffffffffffffffff1673ffffffffffffffffffffffffffffffffffffffff1673ffffffffffffffffffffffffffffffffffffffff1681526020016003820160009054906101000a900473ffffffffffffffffffffffffffffffffffffffff1673ffffffffffffffffffffffffffffffffffffffff1673ffffffffffffffffffffffffffffffffffffffff16815260200160048201548152602001600582015481526020016006820160009054906101000a900460ff161515151581525050848681518110611574577f4e487b7100000000000000000000000000000000000000000000000000000000600052603260045260246000fd5b602002602001018190525060018561158c9190613f2f565b945050505b808061159c9061416f565b91505061134e565b508094505050505090565b6000806002600084815260200190815260200160002060009054906101000a900473ffffffffffffffffffffffffffffffffffffffff169050600073ffffffffffffffffffffffffffffffffffffffff168173ffffffffffffffffffffffffffffffffffffffff161415611658576040517f08c379a000000000000000000000000000000000000000000000000000000000815260040161164f90613c51565b60405180910390fd5b80915050919050565b60008073ffffffffffffffffffffffffffffffffffffffff168273ffffffffffffffffffffffffffffffffffffffff1614156116d2576040517f08c379a00000000000000000000000000000000000000000000000000000000081526004016116c990613c31565b60405180910390fd5b600360008373ffffffffffffffffffffffffffffffffffffffff1673ffffffffffffffffffffffffffffffffffffffff168152602001908152602001600020549050919050565b6060600180546117289061410c565b80601f01602080910402602001604051908101604052809291908181526020018280546117549061410c565b80156117a15780601f10611776576101008083540402835291602001916117a1565b820191906000526020600020905b81548152906001019060200180831161178457829003601f168201915b5050505050905090565b6117bd6117b6612240565b8383612654565b5050565b3373ffffffffffffffffffffffffffffffffffffffff16600b60009054906101000a900473ffffffffffffffffffffffffffffffffffffffff1673ffffffffffffffffffffffffffffffffffffffff1614611851576040517f08c379a000000000000000000000000000000000000000000000000000000000815260040161184890613db1565b60405180910390fd5b80600a8190555050565b61186c611866612240565b8361230f565b6118ab576040517f08c379a00000000000000000000000000000000000000000000000000000000081526004016118a290613d91565b60405180910390fd5b6118b7848484846127c1565b50505050565b6000600c600083815260200190815260200160002060040154905060006064600c600085815260200190815260200160002060050154346118fe9190613fb6565b6119089190613f85565b90506000600c600085815260200190815260200160002060010160009054906101000a900473ffffffffffffffffffffffffffffffffffffffff169050823414611987576040517f08c379a000000000000000000000000000000000000000000000000000000000815260040161197e90613c91565b60405180910390fd5b33600c600086815260200190815260200160002060020160006101000a81548173ffffffffffffffffffffffffffffffffffffffff021916908373ffffffffffffffffffffffffffffffffffffffff1602179055506001600c600086815260200190815260200160002060060160006101000a81548160ff0219169083151502179055506000600c600086815260200190815260200160002060010160006101000a81548173ffffffffffffffffffffffffffffffffffffffff021916908373ffffffffffffffffffffffffffffffffffffffff160217905550611a6b600961281d565b611a763033866123ed565b600b60009054906101000a900473ffffffffffffffffffffffffffffffffffffffff1673ffffffffffffffffffffffffffffffffffffffff166108fc600a549081150290604051600060405180830381858888f19350505050158015611ae0573d6000803e3d6000fd5b50600c600085815260200190815260200160002060030160009054906101000a900473ffffffffffffffffffffffffffffffffffffffff1673ffffffffffffffffffffffffffffffffffffffff166108fc839081150290604051600060405180830381858888f19350505050158015611b5d573d6000803e3d6000fd5b508073ffffffffffffffffffffffffffffffffffffffff166108fc8334611b849190614010565b9081150290604051600060405180830381858888f19350505050158015611baf573d6000803e3d6000fd5b5050505050565b6000611bc2600861281d565b6000611bce6008612301565b9050611bda3382612833565b611be48186612a0d565b611bef818585610f68565b809150509392505050565b3373ffffffffffffffffffffffffffffffffffffffff16600c600083815260200190815260200160002060010160009054906101000a900473ffffffffffffffffffffffffffffffffffffffff1673ffffffffffffffffffffffffffffffffffffffff1614611c9e576040517f08c379a0000000000000000000000000000000000000000000000000000000008152600401611c9590613bd1565b60405180910390fd5b6001600c600083815260200190815260200160002060060160006101000a81548160ff02191690831515021790555030600c600083815260200190815260200160002060010160006101000a81548173ffffffffffffffffffffffffffffffffffffffff021916908373ffffffffffffffffffffffffffffffffffffffff16021790555033600c600083815260200190815260200160002060020160006101000a81548173ffffffffffffffffffffffffffffffffffffffff021916908373ffffffffffffffffffffffffffffffffffffffff160217905550611d81600961281d565b611d8c3033836123ed565b50565b6060611d9a826121d4565b611dd9576040517f08c379a0000000000000000000000000000000000000000000000000000000008152600401611dd090613cd1565b60405180910390fd5b6000600660008481526020019081526020016000208054611df99061410c565b80601f0160208091040260200160405190810160405280929190818152602001828054611e259061410c565b8015611e725780601f10611e4757610100808354040283529160200191611e72565b820191906000526020600020905b815481529060010190602001808311611e5557829003601f168201915b505050505090506000611e83612a81565b9050600081511415611e99578192505050611edc565b600082511115611ece578082604051602001611eb69291906139c6565b60405160208183030381529060405292505050611edc565b611ed784612a98565b925050505b919050565b3373ffffffffffffffffffffffffffffffffffffffff16600c600084815260200190815260200160002060020160009054906101000a900473ffffffffffffffffffffffffffffffffffffffff1673ffffffffffffffffffffffffffffffffffffffff1614611f85576040517f08c379a0000000000000000000000000000000000000000000000000000000008152600401611f7c90613cf1565b60405180910390fd5b600a543414611fc9576040517f08c379a0000000000000000000000000000000000000000000000000000000008152600401611fc090613d71565b60405180910390fd5b6000600c600084815260200190815260200160002060060160006101000a81548160ff02191690831515021790555080600c60008481526020019081526020016000206004018190555033600c600084815260200190815260200160002060010160006101000a81548173ffffffffffffffffffffffffffffffffffffffff021916908373ffffffffffffffffffffffffffffffffffffffff16021790555030600c600084815260200190815260200160002060020160006101000a81548173ffffffffffffffffffffffffffffffffffffffff021916908373ffffffffffffffffffffffffffffffffffffffff1602179055506120c76009612b3f565b6120d23330846123ed565b5050565b6000600560008473ffffffffffffffffffffffffffffffffffffffff1673ffffffffffffffffffffffffffffffffffffffff16815260200190815260200160002060008373ffffffffffffffffffffffffffffffffffffffff1673ffffffffffffffffffffffffffffffffffffffff16815260200190815260200160002060009054906101000a900460ff16905092915050565b60007f01ffc9a7000000000000000000000000000000000000000000000000000000007bffffffffffffffffffffffffffffffffffffffffffffffffffffffff1916827bffffffffffffffffffffffffffffffffffffffffffffffffffffffff1916149050919050565b60008073ffffffffffffffffffffffffffffffffffffffff166002600084815260200190815260200160002060009054906101000a900473ffffffffffffffffffffffffffffffffffffffff1673ffffffffffffffffffffffffffffffffffffffff1614159050919050565b600033905090565b816004600083815260200190815260200160002060006101000a81548173ffffffffffffffffffffffffffffffffffffffff021916908373ffffffffffffffffffffffffffffffffffffffff160217905550808273ffffffffffffffffffffffffffffffffffffffff166122bb836115af565b73ffffffffffffffffffffffffffffffffffffffff167f8c5be1e5ebec7d5bd14f71427d1e84f3dd0314c0f7b2291e5b200ac8c7c3b92560405160405180910390a45050565b600081600001549050919050565b600061231a826121d4565b612359576040517f08c379a000000000000000000000000000000000000000000000000000000000815260040161235090613bf1565b60405180910390fd5b6000612364836115af565b90508073ffffffffffffffffffffffffffffffffffffffff168473ffffffffffffffffffffffffffffffffffffffff1614806123d357508373ffffffffffffffffffffffffffffffffffffffff166123bb846106b2565b73ffffffffffffffffffffffffffffffffffffffff16145b806123e457506123e381856120d6565b5b91505092915050565b8273ffffffffffffffffffffffffffffffffffffffff1661240d826115af565b73ffffffffffffffffffffffffffffffffffffffff1614612463576040517f08c379a000000000000000000000000000000000000000000000000000000000815260040161245a90613b51565b60405180910390fd5b600073ffffffffffffffffffffffffffffffffffffffff168273ffffffffffffffffffffffffffffffffffffffff1614156124d3576040517f08c379a00000000000000000000000000000000000000000000000000000000081526004016124ca90613b91565b60405180910390fd5b6124de838383612b9b565b6124e9600082612248565b6001600360008573ffffffffffffffffffffffffffffffffffffffff1673ffffffffffffffffffffffffffffffffffffffff16815260200190815260200160002060008282546125399190614010565b925050819055506001600360008473ffffffffffffffffffffffffffffffffffffffff1673ffffffffffffffffffffffffffffffffffffffff16815260200190815260200160002060008282546125909190613f2f565b92505081905550816002600083815260200190815260200160002060006101000a81548173ffffffffffffffffffffffffffffffffffffffff021916908373ffffffffffffffffffffffffffffffffffffffff160217905550808273ffffffffffffffffffffffffffffffffffffffff168473ffffffffffffffffffffffffffffffffffffffff167fddf252ad1be2c89b69c2b068fc378daa952ba7f163c4a11628f55a4df523b3ef60405160405180910390a461264f838383612ba0565b505050565b8173ffffffffffffffffffffffffffffffffffffffff168373ffffffffffffffffffffffffffffffffffffffff1614156126c3576040517f08c379a00000000000000000000000000000000000000000000000000000000081526004016126ba90613bb1565b60405180910390fd5b80600560008573ffffffffffffffffffffffffffffffffffffffff1673ffffffffffffffffffffffffffffffffffffffff16815260200190815260200160002060008473ffffffffffffffffffffffffffffffffffffffff1673ffffffffffffffffffffffffffffffffffffffff16815260200190815260200160002060006101000a81548160ff0219169083151502179055508173ffffffffffffffffffffffffffffffffffffffff168373ffffffffffffffffffffffffffffffffffffffff167f17307eab39ab6107e8899845ad3d59bd9653f200f220920489ca2b5937696c31836040516127b49190613ad4565b60405180910390a3505050565b6127cc8484846123ed565b6127d884848484612ba5565b612817576040517f08c379a000000000000000000000000000000000000000000000000000000000815260040161280e90613b31565b60405180910390fd5b50505050565b6001816000016000828254019250508190555050565b600073ffffffffffffffffffffffffffffffffffffffff168273ffffffffffffffffffffffffffffffffffffffff1614156128a3576040517f08c379a000000000000000000000000000000000000000000000000000000000815260040161289a90613cb1565b60405180910390fd5b6128ac816121d4565b156128ec576040517f08c379a00000000000000000000000000000000000000000000000000000000081526004016128e390613b71565b60405180910390fd5b6128f860008383612b9b565b6001600360008473ffffffffffffffffffffffffffffffffffffffff1673ffffffffffffffffffffffffffffffffffffffff16815260200190815260200160002060008282546129489190613f2f565b92505081905550816002600083815260200190815260200160002060006101000a81548173ffffffffffffffffffffffffffffffffffffffff021916908373ffffffffffffffffffffffffffffffffffffffff160217905550808273ffffffffffffffffffffffffffffffffffffffff16600073ffffffffffffffffffffffffffffffffffffffff167fddf252ad1be2c89b69c2b068fc378daa952ba7f163c4a11628f55a4df523b3ef60405160405180910390a4612a0960008383612ba0565b5050565b612a16826121d4565b612a55576040517f08c379a0000000000000000000000000000000000000000000000000000000008152600401612a4c90613c71565b60405180910390fd5b80600660008481526020019081526020016000209080519060200190612a7c929190612f8d565b505050565b606060405180602001604052806000815250905090565b6060612aa3826121d4565b612ae2576040517f08c379a0000000000000000000000000000000000000000000000000000000008152600401612ad990613d31565b60405180910390fd5b6000612aec612a81565b90506000815111612b0c5760405180602001604052806000815250612b37565b80612b1684612d3c565b604051602001612b279291906139c6565b6040516020818303038152906040525b915050919050565b60008160000154905060008111612b8b576040517f08c379a0000000000000000000000000000000000000000000000000000000008152600401612b8290613b11565b60405180910390fd5b6001810382600001819055505050565b505050565b505050565b6000612bc68473ffffffffffffffffffffffffffffffffffffffff16612ee9565b15612d2f578373ffffffffffffffffffffffffffffffffffffffff1663150b7a02612bef612240565b8786866040518563ffffffff1660e01b8152600401612c119493929190613a66565b602060405180830381600087803b158015612c2b57600080fd5b505af1925050508015612c5c57506040513d601f19601f82011682018060405250810190612c599190613339565b60015b612cdf573d8060008114612c8c576040519150601f19603f3d011682016040523d82523d6000602084013e612c91565b606091505b50600081511415612cd7576040517f08c379a0000000000000000000000000000000000000000000000000000000008152600401612cce90613b31565b60405180910390fd5b805181602001fd5b63150b7a0260e01b7bffffffffffffffffffffffffffffffffffffffffffffffffffffffff1916817bffffffffffffffffffffffffffffffffffffffffffffffffffffffff191614915050612d34565b600190505b949350505050565b60606000821415612d84576040518060400160405280600181526020017f30000000000000000000000000000000000000000000000000000000000000008152509050612ee4565b600082905060005b60008214612db6578080612d9f9061416f565b915050600a82612daf9190613f85565b9150612d8c565b60008167ffffffffffffffff811115612df8577f4e487b7100000000000000000000000000000000000000000000000000000000600052604160045260246000fd5b6040519080825280601f01601f191660200182016040528015612e2a5781602001600182028036833780820191505090505b5090505b60008514612edd57600182612e439190614010565b9150600a85612e5291906141b8565b6030612e5e9190613f2f565b60f81b818381518110612e9a577f4e487b7100000000000000000000000000000000000000000000000000000000600052603260045260246000fd5b60200101907effffffffffffffffffffffffffffffffffffffffffffffffffffffffffffff1916908160001a905350600a85612ed69190613f85565b9450612e2e565b8093505050505b919050565b6000808273ffffffffffffffffffffffffffffffffffffffff163b119050919050565b6040518060e0016040528060008152602001600073ffffffffffffffffffffffffffffffffffffffff168152602001600073ffffffffffffffffffffffffffffffffffffffff168152602001600073ffffffffffffffffffffffffffffffffffffffff16815260200160008152602001600081526020016000151581525090565b828054612f999061410c565b90600052602060002090601f016020900481019282612fbb5760008555613002565b82601f10612fd457805160ff1916838001178555613002565b82800160010185558215613002579182015b82811115613001578251825591602001919060010190612fe6565b5b50905061300f9190613013565b5090565b5b8082111561302c576000816000905550600101613014565b5090565b600061304361303e84613e51565b613e2c565b90508281526020810184848401111561305b57600080fd5b6130668482856140ca565b509392505050565b600061308161307c84613e82565b613e2c565b90508281526020810184848401111561309957600080fd5b6130a48482856140ca565b509392505050565b6000813590506130bb8161493a565b92915050565b6000813590506130d081614951565b92915050565b6000813590506130e581614968565b92915050565b6000815190506130fa81614968565b92915050565b600082601f83011261311157600080fd5b8135613121848260208601613030565b91505092915050565b600082601f83011261313b57600080fd5b813561314b84826020860161306e565b91505092915050565b6000813590506131638161497f565b92915050565b60006020828403121561317b57600080fd5b6000613189848285016130ac565b91505092915050565b600080604083850312156131a557600080fd5b60006131b3858286016130ac565b92505060206131c4858286016130ac565b9150509250929050565b6000806000606084860312156131e357600080fd5b60006131f1868287016130ac565b9350506020613202868287016130ac565b925050604061321386828701613154565b9150509250925092565b6000806000806080858703121561323357600080fd5b6000613241878288016130ac565b9450506020613252878288016130ac565b935050604061326387828801613154565b925050606085013567ffffffffffffffff81111561328057600080fd5b61328c87828801613100565b91505092959194509250565b600080604083850312156132ab57600080fd5b60006132b9858286016130ac565b92505060206132ca858286016130c1565b9150509250929050565b600080604083850312156132e757600080fd5b60006132f5858286016130ac565b925050602061330685828601613154565b9150509250929050565b60006020828403121561332257600080fd5b6000613330848285016130d6565b91505092915050565b60006020828403121561334b57600080fd5b6000613359848285016130eb565b91505092915050565b60008060006060848603121561337757600080fd5b600084013567ffffffffffffffff81111561339157600080fd5b61339d8682870161312a565b93505060206133ae86828701613154565b92505060406133bf86828701613154565b9150509250925092565b6000602082840312156133db57600080fd5b60006133e984828501613154565b91505092915050565b6000806040838503121561340557600080fd5b600061341385828601613154565b925050602061342485828601613154565b9150509250929050565b60008060006060848603121561344357600080fd5b600061345186828701613154565b935050602061346286828701613154565b925050604061347386828701613154565b9150509250925092565b6000613489838361391a565b60e08301905092915050565b61349e81614056565b82525050565b6134ad81614044565b82525050565b60006134be82613ec3565b6134c88185613ef1565b93506134d383613eb3565b8060005b838110156135045781516134eb888261347d565b97506134f683613ee4565b9250506001810190506134d7565b5085935050505092915050565b61351a81614068565b82525050565b61352981614068565b82525050565b600061353a82613ece565b6135448185613f02565b93506135548185602086016140d9565b61355d816142a5565b840191505092915050565b600061357382613ed9565b61357d8185613f13565b935061358d8185602086016140d9565b613596816142a5565b840191505092915050565b60006135ac82613ed9565b6135b68185613f24565b93506135c68185602086016140d9565b80840191505092915050565b60006135df601b83613f13565b91506135ea826142b6565b602082019050919050565b6000613602603283613f13565b915061360d826142df565b604082019050919050565b6000613625602583613f13565b91506136308261432e565b604082019050919050565b6000613648601c83613f13565b91506136538261437d565b602082019050919050565b600061366b602483613f13565b9150613676826143a6565b604082019050919050565b600061368e601983613f13565b9150613699826143f5565b602082019050919050565b60006136b1602b83613f13565b91506136bc8261441e565b604082019050919050565b60006136d4602c83613f13565b91506136df8261446d565b604082019050919050565b60006136f7603883613f13565b9150613702826144bc565b604082019050919050565b600061371a602a83613f13565b91506137258261450b565b604082019050919050565b600061373d602983613f13565b91506137488261455a565b604082019050919050565b6000613760602e83613f13565b915061376b826145a9565b604082019050919050565b6000613783604083613f13565b915061378e826145f8565b604082019050919050565b60006137a6602083613f13565b91506137b182614647565b602082019050919050565b60006137c9603183613f13565b91506137d482614670565b604082019050919050565b60006137ec602a83613f13565b91506137f7826146bf565b604082019050919050565b600061380f602c83613f13565b915061381a8261470e565b604082019050919050565b6000613832602f83613f13565b915061383d8261475d565b604082019050919050565b6000613855602183613f13565b9150613860826147ac565b604082019050919050565b6000613878602483613f13565b9150613883826147fb565b604082019050919050565b600061389b603183613f13565b91506138a68261484a565b604082019050919050565b60006138be603083613f13565b91506138c982614899565b604082019050919050565b60006138e1601f83613f13565b91506138ec826148e8565b602082019050919050565b6000613904601c83613f13565b915061390f82614911565b602082019050919050565b60e08201600082015161393060008501826139a8565b5060208201516139436020850182613495565b5060408201516139566040850182613495565b5060608201516139696060850182613495565b50608082015161397c60808501826139a8565b5060a082015161398f60a08501826139a8565b5060c08201516139a260c0850182613511565b50505050565b6139b1816140c0565b82525050565b6139c0816140c0565b82525050565b60006139d282856135a1565b91506139de82846135a1565b91508190509392505050565b60006020820190506139ff60008301846134a4565b92915050565b600060c082019050613a1a60008301896134a4565b613a2760208301886134a4565b613a3460408301876134a4565b613a4160608301866139b7565b613a4e60808301856139b7565b613a5b60a0830184613520565b979650505050505050565b6000608082019050613a7b60008301876134a4565b613a8860208301866134a4565b613a9560408301856139b7565b8181036060830152613aa7818461352f565b905095945050505050565b60006020820190508181036000830152613acc81846134b3565b905092915050565b6000602082019050613ae96000830184613520565b92915050565b60006020820190508181036000830152613b098184613568565b905092915050565b60006020820190508181036000830152613b2a816135d2565b9050919050565b60006020820190508181036000830152613b4a816135f5565b9050919050565b60006020820190508181036000830152613b6a81613618565b9050919050565b60006020820190508181036000830152613b8a8161363b565b9050919050565b60006020820190508181036000830152613baa8161365e565b9050919050565b60006020820190508181036000830152613bca81613681565b9050919050565b60006020820190508181036000830152613bea816136a4565b9050919050565b60006020820190508181036000830152613c0a816136c7565b9050919050565b60006020820190508181036000830152613c2a816136ea565b9050919050565b60006020820190508181036000830152613c4a8161370d565b9050919050565b60006020820190508181036000830152613c6a81613730565b9050919050565b60006020820190508181036000830152613c8a81613753565b9050919050565b60006020820190508181036000830152613caa81613776565b9050919050565b60006020820190508181036000830152613cca81613799565b9050919050565b60006020820190508181036000830152613cea816137bc565b9050919050565b60006020820190508181036000830152613d0a816137df565b9050919050565b60006020820190508181036000830152613d2a81613802565b9050919050565b60006020820190508181036000830152613d4a81613825565b9050919050565b60006020820190508181036000830152613d6a81613848565b9050919050565b60006020820190508181036000830152613d8a8161386b565b9050919050565b60006020820190508181036000830152613daa8161388e565b9050919050565b60006020820190508181036000830152613dca816138b1565b9050919050565b60006020820190508181036000830152613dea816138d4565b9050919050565b60006020820190508181036000830152613e0a816138f7565b9050919050565b6000602082019050613e2660008301846139b7565b92915050565b6000613e36613e47565b9050613e42828261413e565b919050565b6000604051905090565b600067ffffffffffffffff821115613e6c57613e6b614276565b5b613e75826142a5565b9050602081019050919050565b600067ffffffffffffffff821115613e9d57613e9c614276565b5b613ea6826142a5565b9050602081019050919050565b6000819050602082019050919050565b600081519050919050565b600081519050919050565b600081519050919050565b6000602082019050919050565b600082825260208201905092915050565b600082825260208201905092915050565b600082825260208201905092915050565b600081905092915050565b6000613f3a826140c0565b9150613f45836140c0565b9250827fffffffffffffffffffffffffffffffffffffffffffffffffffffffffffffffff03821115613f7a57613f796141e9565b5b828201905092915050565b6000613f90826140c0565b9150613f9b836140c0565b925082613fab57613faa614218565b5b828204905092915050565b6000613fc1826140c0565b9150613fcc836140c0565b9250817fffffffffffffffffffffffffffffffffffffffffffffffffffffffffffffffff0483118215151615614005576140046141e9565b5b828202905092915050565b600061401b826140c0565b9150614026836140c0565b925082821015614039576140386141e9565b5b828203905092915050565b600061404f826140a0565b9050919050565b6000614061826140a0565b9050919050565b60008115159050919050565b60007fffffffff0000000000000000000000000000000000000000000000000000000082169050919050565b600073ffffffffffffffffffffffffffffffffffffffff82169050919050565b6000819050919050565b82818337600083830152505050565b60005b838110156140f75780820151818401526020810190506140dc565b83811115614106576000848401525b50505050565b6000600282049050600182168061412457607f821691505b6020821081141561413857614137614247565b5b50919050565b614147826142a5565b810181811067ffffffffffffffff8211171561416657614165614276565b5b80604052505050565b600061417a826140c0565b91507fffffffffffffffffffffffffffffffffffffffffffffffffffffffffffffffff8214156141ad576141ac6141e9565b5b600182019050919050565b60006141c3826140c0565b91506141ce836140c0565b9250826141de576141dd614218565b5b828206905092915050565b7f4e487b7100000000000000000000000000000000000000000000000000000000600052601160045260246000fd5b7f4e487b7100000000000000000000000000000000000000000000000000000000600052601260045260246000fd5b7f4e487b7100000000000000000000000000000000000000000000000000000000600052602260045260246000fd5b7f4e487b7100000000000000000000000000000000000000000000000000000000600052604160045260246000fd5b6000601f19601f8301169050919050565b7f436f756e7465723a2064656372656d656e74206f766572666c6f770000000000600082015250565b7f4552433732313a207472616e7366657220746f206e6f6e20455243373231526560008201527f63656976657220696d706c656d656e7465720000000000000000000000000000602082015250565b7f4552433732313a207472616e736665722066726f6d20696e636f72726563742060008201527f6f776e6572000000000000000000000000000000000000000000000000000000602082015250565b7f4552433732313a20746f6b656e20616c7265616479206d696e74656400000000600082015250565b7f4552433732313a207472616e7366657220746f20746865207a65726f2061646460008201527f7265737300000000000000000000000000000000000000000000000000000000602082015250565b7f4552433732313a20617070726f766520746f2063616c6c657200000000000000600082015250565b7f4f6e6c79206974656d2073656c6c65722063616e20706572666f726d2074686960008201527f73206f7065726174696f6e000000000000000000000000000000000000000000602082015250565b7f4552433732313a206f70657261746f7220717565727920666f72206e6f6e657860008201527f697374656e7420746f6b656e0000000000000000000000000000000000000000602082015250565b7f4552433732313a20617070726f76652063616c6c6572206973206e6f74206f7760008201527f6e6572206e6f7220617070726f76656420666f7220616c6c0000000000000000602082015250565b7f4552433732313a2062616c616e636520717565727920666f7220746865207a6560008201527f726f206164647265737300000000000000000000000000000000000000000000602082015250565b7f4552433732313a206f776e657220717565727920666f72206e6f6e657869737460008201527f656e7420746f6b656e0000000000000000000000000000000000000000000000602082015250565b7f45524337323155524953746f726167653a2055524920736574206f66206e6f6e60008201527f6578697374656e7420746f6b656e000000000000000000000000000000000000602082015250565b7f506c65617365207375626d6974207468652061736b696e67207072696365206960008201527f6e206f7264657220746f20636f6d706c65746520746865207075726368617365602082015250565b7f4552433732313a206d696e7420746f20746865207a65726f2061646472657373600082015250565b7f45524337323155524953746f726167653a2055524920717565727920666f722060008201527f6e6f6e6578697374656e7420746f6b656e000000000000000000000000000000602082015250565b7f4f6e6c79206974656d206f776e65722063616e20706572666f726d207468697360008201527f206f7065726174696f6e00000000000000000000000000000000000000000000602082015250565b7f4552433732313a20617070726f76656420717565727920666f72206e6f6e657860008201527f697374656e7420746f6b656e0000000000000000000000000000000000000000602082015250565b7f4552433732314d657461646174613a2055524920717565727920666f72206e6f60008201527f6e6578697374656e7420746f6b656e0000000000000000000000000000000000602082015250565b7f4552433732313a20617070726f76616c20746f2063757272656e74206f776e6560008201527f7200000000000000000000000000000000000000000000000000000000000000602082015250565b7f5072696365206d75737420626520657175616c20746f206c697374696e67207060008201527f7269636500000000000000000000000000000000000000000000000000000000602082015250565b7f4552433732313a207472616e736665722063616c6c6572206973206e6f74206f60008201527f776e6572206e6f7220617070726f766564000000000000000000000000000000602082015250565b7f4f6e6c79206d61726b6574706c616365206f776e65722063616e20757064617460008201527f65206c697374696e672070726963652e00000000000000000000000000000000602082015250565b7f5265656e7472616e637947756172643a207265656e7472616e742063616c6c00600082015250565b7f5072696365206d757374206265206174206c6561737420312077656900000000600082015250565b61494381614044565b811461494e57600080fd5b50565b61495a81614068565b811461496557600080fd5b50565b61497181614074565b811461497c57600080fd5b50565b614988816140c0565b811461499357600080fd5b5056fea264697066735822122028a634243df07c26411dc87671fc27fc325c64f21f8a5c71170df5f2b63bb60d64736f6c63430008040033",
  "linkReferences": {},
  "deployedLinkReferences": {}
}