{
  "_format": "hh-sol-artifact-1",
  "contractName": "NFTMarketplaceStorage",
  "sourceName": "contracts/NFTMarketplace.sol",
  "abi": [
    {
      "inputs": [
        {
          "internalType": "address",
          "name": "_WETH",
          "type": "address"
        }
      ],
      "stateMutability": "nonpayable",
      "type": "constructor"
    },
    {
      "anonymous": false,
      "inputs": [
        {
          "indexed": true,
          "internalType": "uint256",
          "name": "tokenId",
          "type": "uint256"
        },
        {
          "indexed": false,
          "internalType": "address",
          "name": "seller",
          "type": "address"
        },
        {
          "indexed": false,
          "internalType": "address",
          "name": "owner",
          "type": "address"
        },
        {
          "indexed": false,
          "internalType": "address",
          "name": "publisher",
          "type": "address"
        },
        {
          "indexed": false,
          "internalType": "address",
          "name": "publisherTwo",
          "type": "address"
        },
        {
          "indexed": false,
          "internalType": "address",
          "name": "tokenAddress",
          "type": "address"
        },
        {
          "indexed": false,
          "internalType": "uint256",
          "name": "price",
          "type": "uint256"
        },
        {
          "indexed": false,
          "internalType": "uint256",
          "name": "royalty",
          "type": "uint256"
        },
        {
          "indexed": false,
          "internalType": "bool",
          "name": "sold",
          "type": "bool"
        },
        {
          "indexed": false,
          "internalType": "bool",
          "name": "bred",
          "type": "bool"
        },
        {
          "indexed": false,
          "internalType": "bool",
          "name": "locked",
          "type": "bool"
        }
      ],
      "name": "MarketItemCreated",
      "type": "event"
    },
    {
      "anonymous": false,
      "inputs": [
        {
          "indexed": true,
          "internalType": "address",
          "name": "previousOwner",
          "type": "address"
        },
        {
          "indexed": true,
          "internalType": "address",
          "name": "newOwner",
          "type": "address"
        }
      ],
      "name": "OwnershipTransferred",
      "type": "event"
    },
    {
      "anonymous": false,
      "inputs": [
        {
          "indexed": true,
          "internalType": "uint256",
          "name": "bid",
          "type": "uint256"
        },
        {
          "indexed": false,
          "internalType": "address",
          "name": "bidder",
          "type": "address"
        }
      ],
      "name": "bidPlaced",
      "type": "event"
    },
    {
      "inputs": [
        {
          "internalType": "address",
          "name": "tokenAddress",
          "type": "address"
        },
        {
          "internalType": "uint256",
          "name": "tokenId",
          "type": "uint256"
        }
      ],
      "name": "checkIfItemExists",
      "outputs": [
        {
          "internalType": "bool",
          "name": "",
          "type": "bool"
        }
      ],
      "stateMutability": "view",
      "type": "function"
    },
    {
      "inputs": [
        {
          "internalType": "address",
          "name": "seller",
          "type": "address"
        }
      ],
      "name": "fetchItemsListed",
      "outputs": [
        {
          "components": [
            {
              "internalType": "uint256",
              "name": "tokenId",
              "type": "uint256"
            },
            {
              "internalType": "address payable",
              "name": "seller",
              "type": "address"
            },
            {
              "internalType": "address payable",
              "name": "owner",
              "type": "address"
            },
            {
              "internalType": "address payable",
              "name": "publisher",
              "type": "address"
            },
            {
              "internalType": "address payable",
              "name": "publisherTwo",
              "type": "address"
            },
            {
              "internalType": "address",
              "name": "tokenAddress",
              "type": "address"
            },
            {
              "internalType": "uint256",
              "name": "price",
              "type": "uint256"
            },
            {
              "internalType": "uint256",
              "name": "royalty",
              "type": "uint256"
            },
            {
              "internalType": "bool",
              "name": "sold",
              "type": "bool"
            },
            {
              "internalType": "bool",
              "name": "bred",
              "type": "bool"
            },
            {
              "internalType": "bool",
              "name": "locked",
              "type": "bool"
            }
          ],
          "internalType": "struct NFTMarketplaceStorage.MarketItem[]",
          "name": "",
          "type": "tuple[]"
        }
      ],
      "stateMutability": "view",
      "type": "function"
    },
    {
      "inputs": [],
      "name": "fetchMarketItems",
      "outputs": [
        {
          "components": [
            {
              "internalType": "uint256",
              "name": "tokenId",
              "type": "uint256"
            },
            {
              "internalType": "address payable",
              "name": "seller",
              "type": "address"
            },
            {
              "internalType": "address payable",
              "name": "owner",
              "type": "address"
            },
            {
              "internalType": "address payable",
              "name": "publisher",
              "type": "address"
            },
            {
              "internalType": "address payable",
              "name": "publisherTwo",
              "type": "address"
            },
            {
              "internalType": "address",
              "name": "tokenAddress",
              "type": "address"
            },
            {
              "internalType": "uint256",
              "name": "price",
              "type": "uint256"
            },
            {
              "internalType": "uint256",
              "name": "royalty",
              "type": "uint256"
            },
            {
              "internalType": "bool",
              "name": "sold",
              "type": "bool"
            },
            {
              "internalType": "bool",
              "name": "bred",
              "type": "bool"
            },
            {
              "internalType": "bool",
              "name": "locked",
              "type": "bool"
            }
          ],
          "internalType": "struct NFTMarketplaceStorage.MarketItem[]",
          "name": "",
          "type": "tuple[]"
        }
      ],
      "stateMutability": "view",
      "type": "function"
    },
    {
      "inputs": [],
      "name": "fetchMyNFTs",
      "outputs": [
        {
          "components": [
            {
              "internalType": "uint256",
              "name": "tokenId",
              "type": "uint256"
            },
            {
              "internalType": "address payable",
              "name": "seller",
              "type": "address"
            },
            {
              "internalType": "address payable",
              "name": "owner",
              "type": "address"
            },
            {
              "internalType": "address payable",
              "name": "publisher",
              "type": "address"
            },
            {
              "internalType": "address payable",
              "name": "publisherTwo",
              "type": "address"
            },
            {
              "internalType": "address",
              "name": "tokenAddress",
              "type": "address"
            },
            {
              "internalType": "uint256",
              "name": "price",
              "type": "uint256"
            },
            {
              "internalType": "uint256",
              "name": "royalty",
              "type": "uint256"
            },
            {
              "internalType": "bool",
              "name": "sold",
              "type": "bool"
            },
            {
              "internalType": "bool",
              "name": "bred",
              "type": "bool"
            },
            {
              "internalType": "bool",
              "name": "locked",
              "type": "bool"
            }
          ],
          "internalType": "struct NFTMarketplaceStorage.MarketItem[]",
          "name": "",
          "type": "tuple[]"
        }
      ],
      "stateMutability": "view",
      "type": "function"
    },
    {
      "inputs": [
        {
          "internalType": "uint256",
          "name": "marketItemId",
          "type": "uint256"
        },
        {
          "internalType": "address",
          "name": "bidder",
          "type": "address"
        }
      ],
      "name": "getItemBid",
      "outputs": [
        {
          "internalType": "uint256",
          "name": "",
          "type": "uint256"
        }
      ],
      "stateMutability": "view",
      "type": "function"
    },
    {
      "inputs": [
        {
          "internalType": "uint256",
          "name": "marketItemId",
          "type": "uint256"
        }
      ],
      "name": "getItemBred",
      "outputs": [
        {
          "internalType": "bool",
          "name": "",
          "type": "bool"
        }
      ],
      "stateMutability": "view",
      "type": "function"
    },
    {
      "inputs": [
        {
          "internalType": "address",
          "name": "tokenAddress",
          "type": "address"
        },
        {
          "internalType": "uint256",
          "name": "tokenId",
          "type": "uint256"
        }
      ],
      "name": "getItemId",
      "outputs": [
        {
          "internalType": "uint256",
          "name": "",
          "type": "uint256"
        }
      ],
      "stateMutability": "view",
      "type": "function"
    },
    {
      "inputs": [
        {
          "internalType": "uint256",
          "name": "marketItemId",
          "type": "uint256"
        }
      ],
      "name": "getItemLocked",
      "outputs": [
        {
          "internalType": "bool",
          "name": "",
          "type": "bool"
        }
      ],
      "stateMutability": "view",
      "type": "function"
    },
    {
      "inputs": [
        {
          "internalType": "uint256",
          "name": "marketItemId",
          "type": "uint256"
        }
      ],
      "name": "getItemOwner",
      "outputs": [
        {
          "internalType": "address",
          "name": "",
          "type": "address"
        }
      ],
      "stateMutability": "view",
      "type": "function"
    },
    {
      "inputs": [
        {
          "internalType": "uint256",
          "name": "marketItemId",
          "type": "uint256"
        }
      ],
      "name": "getItemPrice",
      "outputs": [
        {
          "internalType": "uint256",
          "name": "",
          "type": "uint256"
        }
      ],
      "stateMutability": "view",
      "type": "function"
    },
    {
      "inputs": [
        {
          "internalType": "uint256",
          "name": "marketItemId",
          "type": "uint256"
        }
      ],
      "name": "getItemPublisherOne",
      "outputs": [
        {
          "internalType": "address",
          "name": "",
          "type": "address"
        }
      ],
      "stateMutability": "view",
      "type": "function"
    },
    {
      "inputs": [
        {
          "internalType": "uint256",
          "name": "marketItemId",
          "type": "uint256"
        }
      ],
      "name": "getItemPublisherTwo",
      "outputs": [
        {
          "internalType": "address",
          "name": "",
          "type": "address"
        }
      ],
      "stateMutability": "view",
      "type": "function"
    },
    {
      "inputs": [
        {
          "internalType": "uint256",
          "name": "marketItemId",
          "type": "uint256"
        }
      ],
      "name": "getItemRoyalty",
      "outputs": [
        {
          "internalType": "uint256",
          "name": "",
          "type": "uint256"
        }
      ],
      "stateMutability": "view",
      "type": "function"
    },
    {
      "inputs": [
        {
          "internalType": "uint256",
          "name": "marketItemId",
          "type": "uint256"
        }
      ],
      "name": "getItemSeller",
      "outputs": [
        {
          "internalType": "address",
          "name": "",
          "type": "address"
        }
      ],
      "stateMutability": "view",
      "type": "function"
    },
    {
      "inputs": [
        {
          "internalType": "uint256",
          "name": "marketItemId",
          "type": "uint256"
        }
      ],
      "name": "getItemTokenId",
      "outputs": [
        {
          "internalType": "uint256",
          "name": "",
          "type": "uint256"
        }
      ],
      "stateMutability": "view",
      "type": "function"
    },
    {
      "inputs": [
        {
          "internalType": "uint256",
          "name": "marketItemId",
          "type": "uint256"
        }
      ],
      "name": "getTokenIdOne",
      "outputs": [
        {
          "internalType": "uint256",
          "name": "",
          "type": "uint256"
        }
      ],
      "stateMutability": "view",
      "type": "function"
    },
    {
      "inputs": [
        {
          "internalType": "uint256",
          "name": "marketItemId",
          "type": "uint256"
        }
      ],
      "name": "getTokenIdOneAddress",
      "outputs": [
        {
          "internalType": "address",
          "name": "",
          "type": "address"
        }
      ],
      "stateMutability": "view",
      "type": "function"
    },
    {
      "inputs": [
        {
          "internalType": "uint256",
          "name": "marketItemId",
          "type": "uint256"
        }
      ],
      "name": "getTokenIdTwo",
      "outputs": [
        {
          "internalType": "uint256",
          "name": "",
          "type": "uint256"
        }
      ],
      "stateMutability": "view",
      "type": "function"
    },
    {
      "inputs": [
        {
          "internalType": "uint256",
          "name": "marketItemId",
          "type": "uint256"
        }
      ],
      "name": "getTokenIdTwoAddress",
      "outputs": [
        {
          "internalType": "address",
          "name": "",
          "type": "address"
        }
      ],
      "stateMutability": "view",
      "type": "function"
    },
    {
      "inputs": [],
      "name": "owner",
      "outputs": [
        {
          "internalType": "address",
          "name": "",
          "type": "address"
        }
      ],
      "stateMutability": "view",
      "type": "function"
    },
    {
      "inputs": [],
      "name": "renounceOwnership",
      "outputs": [],
      "stateMutability": "nonpayable",
      "type": "function"
    },
    {
      "inputs": [
        {
          "internalType": "uint256",
          "name": "tokenIdOne",
          "type": "uint256"
        },
        {
          "internalType": "uint256",
          "name": "tokenIdTwo",
          "type": "uint256"
        },
        {
          "internalType": "address",
          "name": "tokenIdOneContract",
          "type": "address"
        },
        {
          "internalType": "address",
          "name": "tokenIdTwoContract",
          "type": "address"
        },
        {
          "internalType": "uint256",
          "name": "marketItemId",
          "type": "uint256"
        }
      ],
      "name": "setBredContractInfo",
      "outputs": [],
      "stateMutability": "nonpayable",
      "type": "function"
    },
    {
      "inputs": [
        {
          "internalType": "address",
          "name": "bidder",
          "type": "address"
        },
        {
          "internalType": "uint256",
          "name": "bid",
          "type": "uint256"
        },
        {
          "internalType": "uint256",
          "name": "marketItemId",
          "type": "uint256"
        }
      ],
      "name": "setItemBid",
      "outputs": [],
      "stateMutability": "nonpayable",
      "type": "function"
    },
    {
      "inputs": [
        {
          "internalType": "uint256",
          "name": "tokenId",
          "type": "uint256"
        },
        {
          "internalType": "address",
          "name": "newOwner",
          "type": "address"
        },
        {
          "internalType": "uint256",
          "name": "price",
          "type": "uint256"
        }
      ],
      "name": "setMarketSale",
      "outputs": [],
      "stateMutability": "nonpayable",
      "type": "function"
    },
    {
      "inputs": [
        {
          "internalType": "address",
          "name": "creator",
          "type": "address"
        },
        {
          "internalType": "address",
          "name": "publisherOne",
          "type": "address"
        },
        {
          "internalType": "address",
          "name": "publisherTwo",
          "type": "address"
        },
        {
          "internalType": "uint256",
          "name": "bredRoyaltyValue",
          "type": "uint256"
        }
      ],
      "name": "storeBredItem",
      "outputs": [
        {
          "internalType": "uint256",
          "name": "",
          "type": "uint256"
        }
      ],
      "stateMutability": "nonpayable",
      "type": "function"
    },
    {
      "inputs": [
        {
          "internalType": "uint256",
          "name": "marketItemId",
          "type": "uint256"
        },
        {
          "internalType": "address",
          "name": "owner",
          "type": "address"
        }
      ],
      "name": "storeDelistData",
      "outputs": [],
      "stateMutability": "nonpayable",
      "type": "function"
    },
    {
      "inputs": [
        {
          "internalType": "address",
          "name": "signer",
          "type": "address"
        },
        {
          "internalType": "address",
          "name": "buyer",
          "type": "address"
        },
        {
          "internalType": "uint256",
          "name": "price",
          "type": "uint256"
        },
        {
          "internalType": "uint256",
          "name": "royaltyAmount",
          "type": "uint256"
        }
      ],
      "name": "storeLazyMintedItem",
      "outputs": [
        {
          "internalType": "uint256",
          "name": "",
          "type": "uint256"
        }
      ],
      "stateMutability": "nonpayable",
      "type": "function"
    },
    {
      "inputs": [
        {
          "internalType": "uint256",
          "name": "marketItemId",
          "type": "uint256"
        },
        {
          "internalType": "address",
          "name": "owner",
          "type": "address"
        }
      ],
      "name": "storeLockedData",
      "outputs": [],
      "stateMutability": "nonpayable",
      "type": "function"
    },
    {
      "inputs": [
        {
          "internalType": "uint256",
          "name": "tokenId",
          "type": "uint256"
        },
        {
          "internalType": "address",
          "name": "seller",
          "type": "address"
        },
        {
          "internalType": "address",
          "name": "royaltyAddress",
          "type": "address"
        },
        {
          "internalType": "uint256",
          "name": "royaltyAmount",
          "type": "uint256"
        },
        {
          "internalType": "address",
          "name": "tokenAddress",
          "type": "address"
        }
      ],
      "name": "storeLockedItem",
      "outputs": [],
      "stateMutability": "nonpayable",
      "type": "function"
    },
    {
      "inputs": [
        {
          "internalType": "uint256",
          "name": "tokenId",
          "type": "uint256"
        },
        {
          "internalType": "address",
          "name": "seller",
          "type": "address"
        },
        {
          "internalType": "address",
          "name": "royaltyAddress",
          "type": "address"
        },
        {
          "internalType": "uint256",
          "name": "royaltyAmount",
          "type": "uint256"
        },
        {
          "internalType": "uint256",
          "name": "price",
          "type": "uint256"
        },
        {
          "internalType": "address",
          "name": "tokenAddress",
          "type": "address"
        }
      ],
      "name": "storeMarketItem",
      "outputs": [],
      "stateMutability": "nonpayable",
      "type": "function"
    },
    {
      "inputs": [
        {
          "internalType": "uint256",
          "name": "marketItemId",
          "type": "uint256"
        },
        {
          "internalType": "address",
          "name": "owner",
          "type": "address"
        },
        {
          "internalType": "uint256",
          "name": "price",
          "type": "uint256"
        }
      ],
      "name": "storeResellData",
      "outputs": [],
      "stateMutability": "nonpayable",
      "type": "function"
    },
    {
      "inputs": [
        {
          "internalType": "address",
          "name": "newOwner",
          "type": "address"
        }
      ],
      "name": "transferOwnership",
      "outputs": [],
      "stateMutability": "nonpayable",
      "type": "function"
    },
    {
      "inputs": [
        {
          "internalType": "address",
          "name": "bidder",
          "type": "address"
        },
        {
          "internalType": "uint256",
          "name": "marketItemId",
          "type": "uint256"
        }
      ],
      "name": "withdrawItemBid",
      "outputs": [],
      "stateMutability": "nonpayable",
      "type": "function"
    }
  ],
  "bytecode": "0x60806040523480156200001157600080fd5b506040516200476338038062004763833981810160405281019062000037919062000182565b620000576200004b6200009f60201b60201c565b620000a760201b60201c565b80600460006101000a81548173ffffffffffffffffffffffffffffffffffffffff021916908373ffffffffffffffffffffffffffffffffffffffff16021790555050620001fc565b600033905090565b60008060009054906101000a900473ffffffffffffffffffffffffffffffffffffffff169050816000806101000a81548173ffffffffffffffffffffffffffffffffffffffff021916908373ffffffffffffffffffffffffffffffffffffffff1602179055508173ffffffffffffffffffffffffffffffffffffffff168173ffffffffffffffffffffffffffffffffffffffff167f8be0079c531659141344cd1fd0a4f28419497f9722a3daafe3b4186f6b6457e060405160405180910390a35050565b6000815190506200017c81620001e2565b92915050565b6000602082840312156200019557600080fd5b6000620001a5848285016200016b565b91505092915050565b6000620001bb82620001c2565b9050919050565b600073ffffffffffffffffffffffffffffffffffffffff82169050919050565b620001ed81620001ae565b8114620001f957600080fd5b50565b614557806200020c6000396000f3fe608060405234801561001057600080fd5b50600436106101fb5760003560e01c80639034bb201161011a578063bd2e9992116100ad578063e26630bd1161007c578063e26630bd14610630578063e2bb872c14610660578063e8fc9caa14610690578063f2fde38b146106c0578063fb723648146106dc576101fb565b8063bd2e999214610570578063c74292b3146105a0578063cf41b056146105d0578063dbd82b0314610600576101fb565b8063a2b25a0a116100e9578063a2b25a0a146104c4578063a36a6982146104f4578063a785c39014610524578063a917f66f14610540576101fb565b80639034bb2014610440578063929151c61461045c5780639885a0611461048c5780639e50d61a146104a8576101fb565b80634c4df8701161019257806389fa42081161016157806389fa4208146103a65780638a410b1a146103c25780638da5cb5b146103f25780638f4e9cbb14610410576101fb565b80634c4df870146103205780636c74cac414610350578063715018a614610380578063830730431461038a576101fb565b8063249de752116101ce578063249de75214610288578063370ef45a146102a45780633e14ba31146102d45780634a090dbf146102f0576101fb565b80630f08efe0146102005780631d1440fd1461021e5780631e5ffb791461024e578063202e37401461026a575b600080fd5b61020861070c565b6040516102159190614199565b60405180910390f35b61023860048036038101906102339190613b96565b610b74565b6040516102459190614046565b60405180910390f35b61026860048036038101906102639190613d24565b610bb4565b005b610272610f65565b60405161027f9190614199565b60405180910390f35b6102a2600480360381019061029d9190613b47565b6113e2565b005b6102be60048036038101906102b99190613b96565b6115aa565b6040516102cb9190614256565b60405180910390f35b6102ee60048036038101906102e99190613be8565b6115ca565b005b61030a60048036038101906103059190613aa8565b61172d565b6040516103179190614256565b60405180910390f35b61033a60048036038101906103359190613b96565b611ae2565b6040516103479190614256565b60405180910390f35b61036a60048036038101906103659190613a45565b611b02565b6040516103779190614256565b60405180910390f35b610388611ec4565b005b6103a4600480360381019061039f9190613d24565b611f4c565b005b6103c060048036038101906103bb9190613d73565b6120cb565b005b6103dc60048036038101906103d79190613a1c565b61222e565b6040516103e99190614199565b60405180910390f35b6103fa61282a565b6040516104079190614046565b60405180910390f35b61042a60048036038101906104259190613b0b565b612853565b6040516104379190614256565b60405180910390f35b61045a60048036038101906104559190613be8565b612949565b005b61047660048036038101906104719190613b96565b612aa2565b60405161048391906141bb565b60405180910390f35b6104a660048036038101906104a19190613c24565b612acf565b005b6104c260048036038101906104bd9190613b0b565b612e76565b005b6104de60048036038101906104d99190613b96565b612f4c565b6040516104eb9190614046565b60405180910390f35b61050e60048036038101906105099190613b96565b612f8c565b60405161051b9190614256565b60405180910390f35b61053e60048036038101906105399190613c9b565b612fac565b005b61055a60048036038101906105559190613b96565b613352565b6040516105679190614046565b60405180910390f35b61058a60048036038101906105859190613b96565b613392565b6040516105979190614046565b60405180910390f35b6105ba60048036038101906105b59190613be8565b6133d2565b6040516105c79190614256565b60405180910390f35b6105ea60048036038101906105e59190613b96565b61342d565b6040516105f79190614046565b60405180910390f35b61061a60048036038101906106159190613b96565b61346d565b6040516106279190614046565b60405180910390f35b61064a60048036038101906106459190613b96565b6134ad565b6040516106579190614256565b60405180910390f35b61067a60048036038101906106759190613b96565b6134cd565b6040516106879190614256565b60405180910390f35b6106aa60048036038101906106a59190613b0b565b6134ed565b6040516106b791906141bb565b60405180910390f35b6106da60048036038101906106d59190613a1c565b6135dc565b005b6106f660048036038101906106f19190613b96565b6136d4565b60405161070391906141bb565b60405180910390f35b6060600061071a6001613701565b905061072e6107296002613701565b61370f565b600061073a6002613701565b6107446001613701565b61074e9190614311565b905060008061075b61282a565b905060008467ffffffffffffffff81111561079f577f4e487b7100000000000000000000000000000000000000000000000000000000600052604160045260246000fd5b6040519080825280602002602001820160405280156107d857816020015b6107c561390f565b8152602001906001900390816107bd5790505b50905060005b85811015610b68578273ffffffffffffffffffffffffffffffffffffffff166007600060018461080e91906142bb565b815260200190815260200160002060020160009054906101000a900473ffffffffffffffffffffffffffffffffffffffff1673ffffffffffffffffffffffffffffffffffffffff161480156108965750600015156007600060018461087391906142bb565b815260200190815260200160002060080160029054906101000a900460ff161515145b15610b555760006001826108aa91906142bb565b90506108b58161370f565b6108be8661370f565b60006007600083815260200190815260200160002090508060405180610160016040529081600082015481526020016001820160009054906101000a900473ffffffffffffffffffffffffffffffffffffffff1673ffffffffffffffffffffffffffffffffffffffff1673ffffffffffffffffffffffffffffffffffffffff1681526020016002820160009054906101000a900473ffffffffffffffffffffffffffffffffffffffff1673ffffffffffffffffffffffffffffffffffffffff1673ffffffffffffffffffffffffffffffffffffffff1681526020016003820160009054906101000a900473ffffffffffffffffffffffffffffffffffffffff1673ffffffffffffffffffffffffffffffffffffffff1673ffffffffffffffffffffffffffffffffffffffff1681526020016004820160009054906101000a900473ffffffffffffffffffffffffffffffffffffffff1673ffffffffffffffffffffffffffffffffffffffff1673ffffffffffffffffffffffffffffffffffffffff1681526020016005820160009054906101000a900473ffffffffffffffffffffffffffffffffffffffff1673ffffffffffffffffffffffffffffffffffffffff1673ffffffffffffffffffffffffffffffffffffffff16815260200160068201548152602001600782015481526020016008820160009054906101000a900460ff161515151581526020016008820160019054906101000a900460ff161515151581526020016008820160029054906101000a900460ff161515151581525050848781518110610b38577f4e487b7100000000000000000000000000000000000000000000000000000000600052603260045260246000fd5b6020026020010181905250600186610b5091906142bb565b955050505b8080610b60906143b1565b9150506107de565b50809550505050505090565b60006007600083815260200190815260200160002060020160009054906101000a900473ffffffffffffffffffffffffffffffffffffffff169050919050565b610bbc6137a8565b73ffffffffffffffffffffffffffffffffffffffff16610bda61282a565b73ffffffffffffffffffffffffffffffffffffffff1614610c30576040517f08c379a0000000000000000000000000000000000000000000000000000000008152600401610c2790614216565b60405180910390fd5b610c3a60026137b0565b816007600085815260200190815260200160002060020160006101000a81548173ffffffffffffffffffffffffffffffffffffffff021916908373ffffffffffffffffffffffffffffffffffffffff16021790555060016007600085815260200190815260200160002060080160006101000a81548160ff021916908315150217905550336007600085815260200190815260200160002060010160006101000a81548173ffffffffffffffffffffffffffffffffffffffff021916908373ffffffffffffffffffffffffffffffffffffffff1602179055508060076000858152602001908152602001600020600601819055506007600084815260200190815260200160002060080160019054906101000a900460ff1615610f60576000610d62846134cd565b90506000610d6f856134ad565b90506000610d7c86613392565b90506000610d8987612f4c565b90506000610d978386612853565b90506000610da58386612853565b9050876007600084815260200190815260200160002060020160006101000a81548173ffffffffffffffffffffffffffffffffffffffff021916908373ffffffffffffffffffffffffffffffffffffffff16021790555060016007600084815260200190815260200160002060080160006101000a81548160ff021916908315150217905550336007600084815260200190815260200160002060010160006101000a81548173ffffffffffffffffffffffffffffffffffffffff021916908373ffffffffffffffffffffffffffffffffffffffff160217905550876007600083815260200190815260200160002060020160006101000a81548173ffffffffffffffffffffffffffffffffffffffff021916908373ffffffffffffffffffffffffffffffffffffffff16021790555060016007600083815260200190815260200160002060080160006101000a81548160ff021916908315150217905550336007600083815260200190815260200160002060010160006101000a81548173ffffffffffffffffffffffffffffffffffffffff021916908373ffffffffffffffffffffffffffffffffffffffff1602179055505050505050505b505050565b60606000610f736001613701565b905060008060005b8381101561101c573373ffffffffffffffffffffffffffffffffffffffff1660076000600184610fab91906142bb565b815260200190815260200160002060020160009054906101000a900473ffffffffffffffffffffffffffffffffffffffff1673ffffffffffffffffffffffffffffffffffffffff1614156110095760018361100691906142bb565b92505b8080611014906143b1565b915050610f7b565b5060008267ffffffffffffffff81111561105f577f4e487b7100000000000000000000000000000000000000000000000000000000600052604160045260246000fd5b60405190808252806020026020018201604052801561109857816020015b61108561390f565b81526020019060019003908161107d5790505b50905060005b848110156113d7573373ffffffffffffffffffffffffffffffffffffffff16600760006001846110ce91906142bb565b815260200190815260200160002060020160009054906101000a900473ffffffffffffffffffffffffffffffffffffffff1673ffffffffffffffffffffffffffffffffffffffff1614156113c457600060018261112b91906142bb565b905060006007600083815260200190815260200160002090508060405180610160016040529081600082015481526020016001820160009054906101000a900473ffffffffffffffffffffffffffffffffffffffff1673ffffffffffffffffffffffffffffffffffffffff1673ffffffffffffffffffffffffffffffffffffffff1681526020016002820160009054906101000a900473ffffffffffffffffffffffffffffffffffffffff1673ffffffffffffffffffffffffffffffffffffffff1673ffffffffffffffffffffffffffffffffffffffff1681526020016003820160009054906101000a900473ffffffffffffffffffffffffffffffffffffffff1673ffffffffffffffffffffffffffffffffffffffff1673ffffffffffffffffffffffffffffffffffffffff1681526020016004820160009054906101000a900473ffffffffffffffffffffffffffffffffffffffff1673ffffffffffffffffffffffffffffffffffffffff1673ffffffffffffffffffffffffffffffffffffffff1681526020016005820160009054906101000a900473ffffffffffffffffffffffffffffffffffffffff1673ffffffffffffffffffffffffffffffffffffffff1673ffffffffffffffffffffffffffffffffffffffff16815260200160068201548152602001600782015481526020016008820160009054906101000a900460ff161515151581526020016008820160019054906101000a900460ff161515151581526020016008820160029054906101000a900460ff1615151515815250508486815181106113a7577f4e487b7100000000000000000000000000000000000000000000000000000000600052603260045260246000fd5b60200260200101819052506001856113bf91906142bb565b945050505b80806113cf906143b1565b91505061109e565b508094505050505090565b6113ea6137a8565b73ffffffffffffffffffffffffffffffffffffffff1661140861282a565b73ffffffffffffffffffffffffffffffffffffffff161461145e576040517f08c379a000000000000000000000000000000000000000000000000000000000815260040161145590614216565b60405180910390fd5b6000600460009054906101000a900473ffffffffffffffffffffffffffffffffffffffff169050828173ffffffffffffffffffffffffffffffffffffffff166370a08231336040518263ffffffff1660e01b81526004016114bf9190614046565b60206040518083038186803b1580156114d757600080fd5b505afa1580156114eb573d6000803e3d6000fd5b505050506040513d601f19601f8201168201806040525081019061150f9190613bbf565b1161154f576040517f08c379a000000000000000000000000000000000000000000000000000000000815260040161154690614236565b60405180910390fd5b826005600084815260200190815260200160002060008673ffffffffffffffffffffffffffffffffffffffff1673ffffffffffffffffffffffffffffffffffffffff1681526020019081526020016000208190555050505050565b600060076000838152602001908152602001600020600001549050919050565b6115d26137a8565b73ffffffffffffffffffffffffffffffffffffffff166115f061282a565b73ffffffffffffffffffffffffffffffffffffffff1614611646576040517f08c379a000000000000000000000000000000000000000000000000000000000815260040161163d90614216565b60405180910390fd5b60016007600084815260200190815260200160002060080160006101000a81548160ff021916908315150217905550336007600084815260200190815260200160002060010160006101000a81548173ffffffffffffffffffffffffffffffffffffffff021916908373ffffffffffffffffffffffffffffffffffffffff160217905550806007600084815260200190815260200160002060020160006101000a81548173ffffffffffffffffffffffffffffffffffffffff021916908373ffffffffffffffffffffffffffffffffffffffff16021790555061172960026137b0565b5050565b60006117376137a8565b73ffffffffffffffffffffffffffffffffffffffff1661175561282a565b73ffffffffffffffffffffffffffffffffffffffff16146117ab576040517f08c379a00000000000000000000000000000000000000000000000000000000081526004016117a290614216565b60405180910390fd5b6117b560016137b0565b6117bf60026137b0565b60006117cb6001613701565b90506040518061016001604052808281526020018773ffffffffffffffffffffffffffffffffffffffff1681526020018673ffffffffffffffffffffffffffffffffffffffff1681526020018773ffffffffffffffffffffffffffffffffffffffff1681526020018773ffffffffffffffffffffffffffffffffffffffff1681526020013373ffffffffffffffffffffffffffffffffffffffff16815260200185815260200184815260200160011515815260200160001515815260200160001515815250600760008381526020019081526020016000206000820151816000015560208201518160010160006101000a81548173ffffffffffffffffffffffffffffffffffffffff021916908373ffffffffffffffffffffffffffffffffffffffff16021790555060408201518160020160006101000a81548173ffffffffffffffffffffffffffffffffffffffff021916908373ffffffffffffffffffffffffffffffffffffffff16021790555060608201518160030160006101000a81548173ffffffffffffffffffffffffffffffffffffffff021916908373ffffffffffffffffffffffffffffffffffffffff16021790555060808201518160040160006101000a81548173ffffffffffffffffffffffffffffffffffffffff021916908373ffffffffffffffffffffffffffffffffffffffff16021790555060a08201518160050160006101000a81548173ffffffffffffffffffffffffffffffffffffffff021916908373ffffffffffffffffffffffffffffffffffffffff16021790555060c0820151816006015560e082015181600701556101008201518160080160006101000a81548160ff0219169083151502179055506101208201518160080160016101000a81548160ff0219169083151502179055506101408201518160080160026101000a81548160ff021916908315150217905550905050807fba4fbc96cd00744e39746314a857136f58025bd9aea935ae35416e57e86609b48787898a338a8a6001600080604051611ace9a999897969594939291906140fd565b60405180910390a280915050949350505050565b600060076000838152602001908152602001600020600601549050919050565b6000611b0c6137a8565b73ffffffffffffffffffffffffffffffffffffffff16611b2a61282a565b73ffffffffffffffffffffffffffffffffffffffff1614611b80576040517f08c379a0000000000000000000000000000000000000000000000000000000008152600401611b7790614216565b60405180910390fd5b611b8a60016137b0565b604051806101600160405280611ba06001613701565b81526020018673ffffffffffffffffffffffffffffffffffffffff1681526020018673ffffffffffffffffffffffffffffffffffffffff1681526020018573ffffffffffffffffffffffffffffffffffffffff1681526020018473ffffffffffffffffffffffffffffffffffffffff1681526020013373ffffffffffffffffffffffffffffffffffffffff168152602001600081526020018381526020016001151581526020016001151581526020016000151581525060076000611c656001613701565b81526020019081526020016000206000820151816000015560208201518160010160006101000a81548173ffffffffffffffffffffffffffffffffffffffff021916908373ffffffffffffffffffffffffffffffffffffffff16021790555060408201518160020160006101000a81548173ffffffffffffffffffffffffffffffffffffffff021916908373ffffffffffffffffffffffffffffffffffffffff16021790555060608201518160030160006101000a81548173ffffffffffffffffffffffffffffffffffffffff021916908373ffffffffffffffffffffffffffffffffffffffff16021790555060808201518160040160006101000a81548173ffffffffffffffffffffffffffffffffffffffff021916908373ffffffffffffffffffffffffffffffffffffffff16021790555060a08201518160050160006101000a81548173ffffffffffffffffffffffffffffffffffffffff021916908373ffffffffffffffffffffffffffffffffffffffff16021790555060c0820151816006015560e082015181600701556101008201518160080160006101000a81548160ff0219169083151502179055506101208201518160080160016101000a81548160ff0219169083151502179055506101408201518160080160026101000a81548160ff021916908315150217905550905050611e646001613701565b7fba4fbc96cd00744e39746314a857136f58025bd9aea935ae35416e57e86609b486878787336000896001806000604051611ea89a99989796959493929190614061565b60405180910390a2611eba6001613701565b9050949350505050565b611ecc6137a8565b73ffffffffffffffffffffffffffffffffffffffff16611eea61282a565b73ffffffffffffffffffffffffffffffffffffffff1614611f40576040517f08c379a0000000000000000000000000000000000000000000000000000000008152600401611f3790614216565b60405180910390fd5b611f4a60006137c6565b565b611f546137a8565b73ffffffffffffffffffffffffffffffffffffffff16611f7261282a565b73ffffffffffffffffffffffffffffffffffffffff1614611fc8576040517f08c379a0000000000000000000000000000000000000000000000000000000008152600401611fbf90614216565b60405180910390fd5b60006007600085815260200190815260200160002060080160006101000a81548160ff021916908315150217905550806007600085815260200190815260200160002060060181905550816007600085815260200190815260200160002060010160006101000a81548173ffffffffffffffffffffffffffffffffffffffff021916908373ffffffffffffffffffffffffffffffffffffffff160217905550336007600085815260200190815260200160002060020160006101000a81548173ffffffffffffffffffffffffffffffffffffffff021916908373ffffffffffffffffffffffffffffffffffffffff1602179055506120c6600261388a565b505050565b6120d36137a8565b73ffffffffffffffffffffffffffffffffffffffff166120f161282a565b73ffffffffffffffffffffffffffffffffffffffff1614612147576040517f08c379a000000000000000000000000000000000000000000000000000000000815260040161213e90614216565b60405180910390fd5b846006600083815260200190815260200160002060000181905550836006600083815260200190815260200160002060010181905550826006600083815260200190815260200160002060020160006101000a81548173ffffffffffffffffffffffffffffffffffffffff021916908373ffffffffffffffffffffffffffffffffffffffff160217905550816006600083815260200190815260200160002060030160006101000a81548173ffffffffffffffffffffffffffffffffffffffff021916908373ffffffffffffffffffffffffffffffffffffffff1602179055505050505050565b6060600061223c6001613701565b9050600080600061224b61282a565b905060005b848110156123a9573373ffffffffffffffffffffffffffffffffffffffff166007600060018461228091906142bb565b815260200190815260200160002060010160009054906101000a900473ffffffffffffffffffffffffffffffffffffffff1673ffffffffffffffffffffffffffffffffffffffff1614801561234257508173ffffffffffffffffffffffffffffffffffffffff16600760006001846122f891906142bb565b815260200190815260200160002060020160009054906101000a900473ffffffffffffffffffffffffffffffffffffffff1673ffffffffffffffffffffffffffffffffffffffff16145b80156123815750600015156007600060018461235e91906142bb565b815260200190815260200160002060080160029054906101000a900460ff161515145b156123965760018461239391906142bb565b93505b80806123a1906143b1565b915050612250565b5060008367ffffffffffffffff8111156123ec577f4e487b7100000000000000000000000000000000000000000000000000000000600052604160045260246000fd5b60405190808252806020026020018201604052801561242557816020015b61241261390f565b81526020019060019003908161240a5790505b50905060005b8581101561281c573373ffffffffffffffffffffffffffffffffffffffff166007600060018461245b91906142bb565b815260200190815260200160002060010160009054906101000a900473ffffffffffffffffffffffffffffffffffffffff1673ffffffffffffffffffffffffffffffffffffffff1614801561251d57508273ffffffffffffffffffffffffffffffffffffffff16600760006001846124d391906142bb565b815260200190815260200160002060020160009054906101000a900473ffffffffffffffffffffffffffffffffffffffff1673ffffffffffffffffffffffffffffffffffffffff16145b801561255c5750600015156007600060018461253991906142bb565b815260200190815260200160002060080160029054906101000a900460ff161515145b1561280957600060018261257091906142bb565b905060006007600083815260200190815260200160002090508060405180610160016040529081600082015481526020016001820160009054906101000a900473ffffffffffffffffffffffffffffffffffffffff1673ffffffffffffffffffffffffffffffffffffffff1673ffffffffffffffffffffffffffffffffffffffff1681526020016002820160009054906101000a900473ffffffffffffffffffffffffffffffffffffffff1673ffffffffffffffffffffffffffffffffffffffff1673ffffffffffffffffffffffffffffffffffffffff1681526020016003820160009054906101000a900473ffffffffffffffffffffffffffffffffffffffff1673ffffffffffffffffffffffffffffffffffffffff1673ffffffffffffffffffffffffffffffffffffffff1681526020016004820160009054906101000a900473ffffffffffffffffffffffffffffffffffffffff1673ffffffffffffffffffffffffffffffffffffffff1673ffffffffffffffffffffffffffffffffffffffff1681526020016005820160009054906101000a900473ffffffffffffffffffffffffffffffffffffffff1673ffffffffffffffffffffffffffffffffffffffff1673ffffffffffffffffffffffffffffffffffffffff16815260200160068201548152602001600782015481526020016008820160009054906101000a900460ff161515151581526020016008820160019054906101000a900460ff161515151581526020016008820160029054906101000a900460ff1615151515815250508487815181106127ec577f4e487b7100000000000000000000000000000000000000000000000000000000600052603260045260246000fd5b602002602001018190525060018661280491906142bb565b955050505b8080612814906143b1565b91505061242b565b508095505050505050919050565b60008060009054906101000a900473ffffffffffffffffffffffffffffffffffffffff16905090565b6000806128606001613701565b905060008060005b8381101561293e57856007600060018461288291906142bb565b81526020019081526020016000206000015414801561290e57508673ffffffffffffffffffffffffffffffffffffffff16600760006001846128c491906142bb565b815260200190815260200160002060050160009054906101000a900473ffffffffffffffffffffffffffffffffffffffff1673ffffffffffffffffffffffffffffffffffffffff16145b1561292b5760018161292091906142bb565b945050505050612943565b8080612936906143b1565b915050612868565b505050505b92915050565b6129516137a8565b73ffffffffffffffffffffffffffffffffffffffff1661296f61282a565b73ffffffffffffffffffffffffffffffffffffffff16146129c5576040517f08c379a00000000000000000000000000000000000000000000000000000000081526004016129bc90614216565b60405180910390fd5b806007600084815260200190815260200160002060010160006101000a81548173ffffffffffffffffffffffffffffffffffffffff021916908373ffffffffffffffffffffffffffffffffffffffff160217905550336007600084815260200190815260200160002060020160006101000a81548173ffffffffffffffffffffffffffffffffffffffff021916908373ffffffffffffffffffffffffffffffffffffffff16021790555060016007600084815260200190815260200160002060080160026101000a81548160ff0219169083151502179055505050565b60006007600083815260200190815260200160002060080160019054906101000a900460ff169050919050565b612ad76137a8565b73ffffffffffffffffffffffffffffffffffffffff16612af561282a565b73ffffffffffffffffffffffffffffffffffffffff1614612b4b576040517f08c379a0000000000000000000000000000000000000000000000000000000008152600401612b4290614216565b60405180910390fd5b612b5560016137b0565b6000612b616001613701565b90506040518061016001604052808281526020018673ffffffffffffffffffffffffffffffffffffffff1681526020013373ffffffffffffffffffffffffffffffffffffffff1681526020018573ffffffffffffffffffffffffffffffffffffffff1681526020018573ffffffffffffffffffffffffffffffffffffffff1681526020018373ffffffffffffffffffffffffffffffffffffffff1681526020016000815260200184815260200160001515815260200160001515815260200160011515815250600760008381526020019081526020016000206000820151816000015560208201518160010160006101000a81548173ffffffffffffffffffffffffffffffffffffffff021916908373ffffffffffffffffffffffffffffffffffffffff16021790555060408201518160020160006101000a81548173ffffffffffffffffffffffffffffffffffffffff021916908373ffffffffffffffffffffffffffffffffffffffff16021790555060608201518160030160006101000a81548173ffffffffffffffffffffffffffffffffffffffff021916908373ffffffffffffffffffffffffffffffffffffffff16021790555060808201518160040160006101000a81548173ffffffffffffffffffffffffffffffffffffffff021916908373ffffffffffffffffffffffffffffffffffffffff16021790555060a08201518160050160006101000a81548173ffffffffffffffffffffffffffffffffffffffff021916908373ffffffffffffffffffffffffffffffffffffffff16021790555060c0820151816006015560e082015181600701556101008201518160080160006101000a81548160ff0219169083151502179055506101208201518160080160016101000a81548160ff0219169083151502179055506101408201518160080160026101000a81548160ff021916908315150217905550905050807fba4fbc96cd00744e39746314a857136f58025bd9aea935ae35416e57e86609b4863387888760008a6000806001604051612e669a99989796959493929190614061565b60405180910390a2505050505050565b612e7e6137a8565b73ffffffffffffffffffffffffffffffffffffffff16612e9c61282a565b73ffffffffffffffffffffffffffffffffffffffff1614612ef2576040517f08c379a0000000000000000000000000000000000000000000000000000000008152600401612ee990614216565b60405180910390fd5b60006005600083815260200190815260200160002060008473ffffffffffffffffffffffffffffffffffffffff1673ffffffffffffffffffffffffffffffffffffffff168152602001908152602001600020819055505050565b60006006600083815260200190815260200160002060030160009054906101000a900473ffffffffffffffffffffffffffffffffffffffff169050919050565b600060076000838152602001908152602001600020600701549050919050565b612fb46137a8565b73ffffffffffffffffffffffffffffffffffffffff16612fd261282a565b73ffffffffffffffffffffffffffffffffffffffff1614613028576040517f08c379a000000000000000000000000000000000000000000000000000000000815260040161301f90614216565b60405180910390fd5b61303260016137b0565b600061303e6001613701565b90506040518061016001604052808281526020018773ffffffffffffffffffffffffffffffffffffffff1681526020013373ffffffffffffffffffffffffffffffffffffffff1681526020018673ffffffffffffffffffffffffffffffffffffffff1681526020018673ffffffffffffffffffffffffffffffffffffffff1681526020018373ffffffffffffffffffffffffffffffffffffffff16815260200184815260200185815260200160001515815260200160001515815260200160001515815250600760008381526020019081526020016000206000820151816000015560208201518160010160006101000a81548173ffffffffffffffffffffffffffffffffffffffff021916908373ffffffffffffffffffffffffffffffffffffffff16021790555060408201518160020160006101000a81548173ffffffffffffffffffffffffffffffffffffffff021916908373ffffffffffffffffffffffffffffffffffffffff16021790555060608201518160030160006101000a81548173ffffffffffffffffffffffffffffffffffffffff021916908373ffffffffffffffffffffffffffffffffffffffff16021790555060808201518160040160006101000a81548173ffffffffffffffffffffffffffffffffffffffff021916908373ffffffffffffffffffffffffffffffffffffffff16021790555060a08201518160050160006101000a81548173ffffffffffffffffffffffffffffffffffffffff021916908373ffffffffffffffffffffffffffffffffffffffff16021790555060c0820151816006015560e082015181600701556101008201518160080160006101000a81548160ff0219169083151502179055506101208201518160080160016101000a81548160ff0219169083151502179055506101408201518160080160026101000a81548160ff021916908315150217905550905050807fba4fbc96cd00744e39746314a857136f58025bd9aea935ae35416e57e86609b48733888987898b60008060006040516133419a999897969594939291906140fd565b60405180910390a250505050505050565b60006007600083815260200190815260200160002060010160009054906101000a900473ffffffffffffffffffffffffffffffffffffffff169050919050565b60006006600083815260200190815260200160002060020160009054906101000a900473ffffffffffffffffffffffffffffffffffffffff169050919050565b60006005600084815260200190815260200160002060008373ffffffffffffffffffffffffffffffffffffffff1673ffffffffffffffffffffffffffffffffffffffff16815260200190815260200160002054905092915050565b60006007600083815260200190815260200160002060030160009054906101000a900473ffffffffffffffffffffffffffffffffffffffff169050919050565b60006007600083815260200190815260200160002060040160009054906101000a900473ffffffffffffffffffffffffffffffffffffffff169050919050565b600060066000838152602001908152602001600020600101549050919050565b600060066000838152602001908152602001600020600001549050919050565b6000806134fa6001613701565b905060008060005b838110156135cd57856007600060018461351c91906142bb565b8152602001908152602001600020600001541480156135a857508673ffffffffffffffffffffffffffffffffffffffff166007600060018461355e91906142bb565b815260200190815260200160002060050160009054906101000a900473ffffffffffffffffffffffffffffffffffffffff1673ffffffffffffffffffffffffffffffffffffffff16145b156135ba5760019450505050506135d6565b80806135c5906143b1565b915050613502565b50600093505050505b92915050565b6135e46137a8565b73ffffffffffffffffffffffffffffffffffffffff1661360261282a565b73ffffffffffffffffffffffffffffffffffffffff1614613658576040517f08c379a000000000000000000000000000000000000000000000000000000000815260040161364f90614216565b60405180910390fd5b600073ffffffffffffffffffffffffffffffffffffffff168173ffffffffffffffffffffffffffffffffffffffff1614156136c8576040517f08c379a00000000000000000000000000000000000000000000000000000000081526004016136bf906141f6565b60405180910390fd5b6136d1816137c6565b50565b60006007600083815260200190815260200160002060080160029054906101000a900460ff169050919050565b600081600001549050919050565b6137a5816040516024016137239190614256565b6040516020818303038152906040527ff5b1bba9000000000000000000000000000000000000000000000000000000007bffffffffffffffffffffffffffffffffffffffffffffffffffffffff19166020820180517bffffffffffffffffffffffffffffffffffffffffffffffffffffffff83818316178352505050506138e6565b50565b600033905090565b6001816000016000828254019250508190555050565b60008060009054906101000a900473ffffffffffffffffffffffffffffffffffffffff169050816000806101000a81548173ffffffffffffffffffffffffffffffffffffffff021916908373ffffffffffffffffffffffffffffffffffffffff1602179055508173ffffffffffffffffffffffffffffffffffffffff168173ffffffffffffffffffffffffffffffffffffffff167f8be0079c531659141344cd1fd0a4f28419497f9722a3daafe3b4186f6b6457e060405160405180910390a35050565b600081600001549050600081116138d6576040517f08c379a00000000000000000000000000000000000000000000000000000000081526004016138cd906141d6565b60405180910390fd5b6001810382600001819055505050565b60008151905060006a636f6e736f6c652e6c6f679050602083016000808483855afa5050505050565b60405180610160016040528060008152602001600073ffffffffffffffffffffffffffffffffffffffff168152602001600073ffffffffffffffffffffffffffffffffffffffff168152602001600073ffffffffffffffffffffffffffffffffffffffff168152602001600073ffffffffffffffffffffffffffffffffffffffff168152602001600073ffffffffffffffffffffffffffffffffffffffff16815260200160008152602001600081526020016000151581526020016000151581526020016000151581525090565b6000813590506139ec816144f3565b92915050565b600081359050613a018161450a565b92915050565b600081519050613a168161450a565b92915050565b600060208284031215613a2e57600080fd5b6000613a3c848285016139dd565b91505092915050565b60008060008060808587031215613a5b57600080fd5b6000613a69878288016139dd565b9450506020613a7a878288016139dd565b9350506040613a8b878288016139dd565b9250506060613a9c878288016139f2565b91505092959194509250565b60008060008060808587031215613abe57600080fd5b6000613acc878288016139dd565b9450506020613add878288016139dd565b9350506040613aee878288016139f2565b9250506060613aff878288016139f2565b91505092959194509250565b60008060408385031215613b1e57600080fd5b6000613b2c858286016139dd565b9250506020613b3d858286016139f2565b9150509250929050565b600080600060608486031215613b5c57600080fd5b6000613b6a868287016139dd565b9350506020613b7b868287016139f2565b9250506040613b8c868287016139f2565b9150509250925092565b600060208284031215613ba857600080fd5b6000613bb6848285016139f2565b91505092915050565b600060208284031215613bd157600080fd5b6000613bdf84828501613a07565b91505092915050565b60008060408385031215613bfb57600080fd5b6000613c09858286016139f2565b9250506020613c1a858286016139dd565b9150509250929050565b600080600080600060a08688031215613c3c57600080fd5b6000613c4a888289016139f2565b9550506020613c5b888289016139dd565b9450506040613c6c888289016139dd565b9350506060613c7d888289016139f2565b9250506080613c8e888289016139dd565b9150509295509295909350565b60008060008060008060c08789031215613cb457600080fd5b6000613cc289828a016139f2565b9650506020613cd389828a016139dd565b9550506040613ce489828a016139dd565b9450506060613cf589828a016139f2565b9350506080613d0689828a016139f2565b92505060a0613d1789828a016139dd565b9150509295509295509295565b600080600060608486031215613d3957600080fd5b6000613d47868287016139f2565b9350506020613d58868287016139dd565b9250506040613d69868287016139f2565b9150509250925092565b600080600080600060a08688031215613d8b57600080fd5b6000613d99888289016139f2565b9550506020613daa888289016139f2565b9450506040613dbb888289016139dd565b9350506060613dcc888289016139dd565b9250506080613ddd888289016139f2565b9150509295509295909350565b6000613df68383613f47565b6101608301905092915050565b613e0c81614357565b82525050565b613e1b81614345565b82525050565b613e2a81614345565b82525050565b6000613e3b82614281565b613e458185614299565b9350613e5083614271565b8060005b83811015613e81578151613e688882613dea565b9750613e738361428c565b925050600181019050613e54565b5085935050505092915050565b613e9781614369565b82525050565b613ea681614369565b82525050565b613eb58161439f565b82525050565b6000613ec8601b836142aa565b9150613ed382614429565b602082019050919050565b6000613eeb6026836142aa565b9150613ef682614452565b604082019050919050565b6000613f0e6020836142aa565b9150613f19826144a1565b602082019050919050565b6000613f31601a836142aa565b9150613f3c826144ca565b602082019050919050565b61016082016000820151613f5e6000850182614028565b506020820151613f716020850182613e03565b506040820151613f846040850182613e03565b506060820151613f976060850182613e03565b506080820151613faa6080850182613e03565b5060a0820151613fbd60a0850182613e12565b5060c0820151613fd060c0850182614028565b5060e0820151613fe360e0850182614028565b50610100820151613ff8610100850182613e8e565b5061012082015161400d610120850182613e8e565b50610140820151614022610140850182613e8e565b50505050565b61403181614395565b82525050565b61404081614395565b82525050565b600060208201905061405b6000830184613e21565b92915050565b600061014082019050614077600083018d613e21565b614084602083018c613e21565b614091604083018b613e21565b61409e606083018a613e21565b6140ab6080830189613e21565b6140b860a0830188613eac565b6140c560c0830187614037565b6140d260e0830186613e9d565b6140e0610100830185613e9d565b6140ee610120830184613e9d565b9b9a5050505050505050505050565b600061014082019050614113600083018d613e21565b614120602083018c613e21565b61412d604083018b613e21565b61413a606083018a613e21565b6141476080830189613e21565b61415460a0830188614037565b61416160c0830187614037565b61416e60e0830186613e9d565b61417c610100830185613e9d565b61418a610120830184613e9d565b9b9a5050505050505050505050565b600060208201905081810360008301526141b38184613e30565b905092915050565b60006020820190506141d06000830184613e9d565b92915050565b600060208201905081810360008301526141ef81613ebb565b9050919050565b6000602082019050818103600083015261420f81613ede565b9050919050565b6000602082019050818103600083015261422f81613f01565b9050919050565b6000602082019050818103600083015261424f81613f24565b9050919050565b600060208201905061426b6000830184614037565b92915050565b6000819050602082019050919050565b600081519050919050565b6000602082019050919050565b600082825260208201905092915050565b600082825260208201905092915050565b60006142c682614395565b91506142d183614395565b9250827fffffffffffffffffffffffffffffffffffffffffffffffffffffffffffffffff03821115614306576143056143fa565b5b828201905092915050565b600061431c82614395565b915061432783614395565b92508282101561433a576143396143fa565b5b828203905092915050565b600061435082614375565b9050919050565b600061436282614375565b9050919050565b60008115159050919050565b600073ffffffffffffffffffffffffffffffffffffffff82169050919050565b6000819050919050565b60006143aa82614395565b9050919050565b60006143bc82614395565b91507fffffffffffffffffffffffffffffffffffffffffffffffffffffffffffffffff8214156143ef576143ee6143fa565b5b600182019050919050565b7f4e487b7100000000000000000000000000000000000000000000000000000000600052601160045260246000fd5b7f436f756e7465723a2064656372656d656e74206f766572666c6f770000000000600082015250565b7f4f776e61626c653a206e6577206f776e657220697320746865207a65726f206160008201527f6464726573730000000000000000000000000000000000000000000000000000602082015250565b7f4f776e61626c653a2063616c6c6572206973206e6f7420746865206f776e6572600082015250565b7f596f7520646f6e2774206861766520656e6f7567682057455448000000000000600082015250565b6144fc81614345565b811461450757600080fd5b50565b61451381614395565b811461451e57600080fd5b5056fea2646970667358221220df48d2b5476935f625bd40cc31daf2c4d263080e8141aa2632c295d17023778b64736f6c63430008040033",
  "linkReferences": {},
  "deployedLinkReferences": {}
}