{
  "_format": "hh-sol-artifact-1",
  "contractName": "NFTMarketplace",
  "sourceName": "contracts/NFTMarketplace.sol",
  "abi": [
    {
      "inputs": [
        {
          "internalType": "address",
          "name": "NFTStorage",
          "type": "address"
        },
        {
          "internalType": "address",
          "name": "_WETH",
          "type": "address"
        }
      ],
      "stateMutability": "nonpayable",
      "type": "constructor"
    },
    {
      "anonymous": false,
      "inputs": [
        {
          "indexed": true,
          "internalType": "address",
          "name": "owner",
          "type": "address"
        },
        {
          "indexed": true,
          "internalType": "address",
          "name": "approved",
          "type": "address"
        },
        {
          "indexed": true,
          "internalType": "uint256",
          "name": "tokenId",
          "type": "uint256"
        }
      ],
      "name": "Approval",
      "type": "event"
    },
    {
      "anonymous": false,
      "inputs": [
        {
          "indexed": true,
          "internalType": "address",
          "name": "owner",
          "type": "address"
        },
        {
          "indexed": true,
          "internalType": "address",
          "name": "operator",
          "type": "address"
        },
        {
          "indexed": false,
          "internalType": "bool",
          "name": "approved",
          "type": "bool"
        }
      ],
      "name": "ApprovalForAll",
      "type": "event"
    },
    {
      "anonymous": false,
      "inputs": [
        {
          "indexed": true,
          "internalType": "address",
          "name": "from",
          "type": "address"
        },
        {
          "indexed": true,
          "internalType": "address",
          "name": "to",
          "type": "address"
        },
        {
          "indexed": true,
          "internalType": "uint256",
          "name": "tokenId",
          "type": "uint256"
        }
      ],
      "name": "Transfer",
      "type": "event"
    },
    {
      "anonymous": false,
      "inputs": [
        {
          "indexed": false,
          "internalType": "address",
          "name": "",
          "type": "address"
        },
        {
          "indexed": false,
          "internalType": "uint256",
          "name": "",
          "type": "uint256"
        }
      ],
      "name": "received",
      "type": "event"
    },
    {
      "inputs": [],
      "name": "SIGNER_ROLE",
      "outputs": [
        {
          "internalType": "bytes32",
          "name": "",
          "type": "bytes32"
        }
      ],
      "stateMutability": "view",
      "type": "function"
    },
    {
      "inputs": [
        {
          "internalType": "address",
          "name": "to",
          "type": "address"
        },
        {
          "internalType": "uint256",
          "name": "tokenId",
          "type": "uint256"
        }
      ],
      "name": "approve",
      "outputs": [],
      "stateMutability": "nonpayable",
      "type": "function"
    },
    {
      "inputs": [
        {
          "internalType": "address",
          "name": "owner",
          "type": "address"
        }
      ],
      "name": "balanceOf",
      "outputs": [
        {
          "internalType": "uint256",
          "name": "",
          "type": "uint256"
        }
      ],
      "stateMutability": "view",
      "type": "function"
    },
    {
      "inputs": [
        {
          "internalType": "uint256",
          "name": "tokenIdOne",
          "type": "uint256"
        },
        {
          "internalType": "address",
          "name": "tokenIdOneContract",
          "type": "address"
        },
        {
          "internalType": "uint256",
          "name": "tokenIdTwo",
          "type": "uint256"
        },
        {
          "internalType": "address",
          "name": "tokenIdTwoContract",
          "type": "address"
        },
        {
          "internalType": "string",
          "name": "bredTokenUri",
          "type": "string"
        }
      ],
      "name": "createBredToken",
      "outputs": [
        {
          "internalType": "uint256",
          "name": "",
          "type": "uint256"
        }
      ],
      "stateMutability": "payable",
      "type": "function"
    },
    {
      "inputs": [
        {
          "internalType": "uint256",
          "name": "marketItemId",
          "type": "uint256"
        }
      ],
      "name": "createMarketSale",
      "outputs": [],
      "stateMutability": "payable",
      "type": "function"
    },
    {
      "inputs": [
        {
          "internalType": "address",
          "name": "galleryAddress",
          "type": "address"
        },
        {
          "internalType": "string",
          "name": "tokenUri",
          "type": "string"
        },
        {
          "internalType": "uint256",
          "name": "price",
          "type": "uint256"
        },
        {
          "internalType": "uint96",
          "name": "royaltyValue",
          "type": "uint96"
        },
        {
          "internalType": "address",
          "name": "signer",
          "type": "address"
        },
        {
          "internalType": "address",
          "name": "buyer",
          "type": "address"
        }
      ],
      "name": "createOwnedTokenFromLazy",
      "outputs": [],
      "stateMutability": "payable",
      "type": "function"
    },
    {
      "inputs": [
        {
          "internalType": "uint256",
          "name": "marketItemId",
          "type": "uint256"
        }
      ],
      "name": "delistToken",
      "outputs": [],
      "stateMutability": "payable",
      "type": "function"
    },
    {
      "inputs": [
        {
          "internalType": "uint256",
          "name": "tokenId",
          "type": "uint256"
        }
      ],
      "name": "getApproved",
      "outputs": [
        {
          "internalType": "address",
          "name": "",
          "type": "address"
        }
      ],
      "stateMutability": "view",
      "type": "function"
    },
    {
      "inputs": [
        {
          "internalType": "address",
          "name": "owner",
          "type": "address"
        },
        {
          "internalType": "address",
          "name": "operator",
          "type": "address"
        }
      ],
      "name": "isApprovedForAll",
      "outputs": [
        {
          "internalType": "bool",
          "name": "",
          "type": "bool"
        }
      ],
      "stateMutability": "view",
      "type": "function"
    },
    {
      "inputs": [],
      "name": "name",
      "outputs": [
        {
          "internalType": "string",
          "name": "",
          "type": "string"
        }
      ],
      "stateMutability": "view",
      "type": "function"
    },
    {
      "inputs": [
        {
          "internalType": "uint256",
          "name": "tokenId",
          "type": "uint256"
        }
      ],
      "name": "ownerOf",
      "outputs": [
        {
          "internalType": "address",
          "name": "",
          "type": "address"
        }
      ],
      "stateMutability": "view",
      "type": "function"
    },
    {
      "inputs": [
        {
          "internalType": "uint256",
          "name": "tokenId",
          "type": "uint256"
        },
        {
          "internalType": "uint256",
          "name": "price",
          "type": "uint256"
        },
        {
          "internalType": "address",
          "name": "nftContract",
          "type": "address"
        }
      ],
      "name": "resellToken",
      "outputs": [],
      "stateMutability": "payable",
      "type": "function"
    },
    {
      "inputs": [
        {
          "internalType": "uint256",
          "name": "_tokenId",
          "type": "uint256"
        },
        {
          "internalType": "uint256",
          "name": "_salePrice",
          "type": "uint256"
        }
      ],
      "name": "royaltyInfo",
      "outputs": [
        {
          "internalType": "address",
          "name": "",
          "type": "address"
        },
        {
          "internalType": "uint256",
          "name": "",
          "type": "uint256"
        }
      ],
      "stateMutability": "view",
      "type": "function"
    },
    {
      "inputs": [
        {
          "internalType": "address",
          "name": "from",
          "type": "address"
        },
        {
          "internalType": "address",
          "name": "to",
          "type": "address"
        },
        {
          "internalType": "uint256",
          "name": "tokenId",
          "type": "uint256"
        }
      ],
      "name": "safeTransferFrom",
      "outputs": [],
      "stateMutability": "nonpayable",
      "type": "function"
    },
    {
      "inputs": [
        {
          "internalType": "address",
          "name": "from",
          "type": "address"
        },
        {
          "internalType": "address",
          "name": "to",
          "type": "address"
        },
        {
          "internalType": "uint256",
          "name": "tokenId",
          "type": "uint256"
        },
        {
          "internalType": "bytes",
          "name": "_data",
          "type": "bytes"
        }
      ],
      "name": "safeTransferFrom",
      "outputs": [],
      "stateMutability": "nonpayable",
      "type": "function"
    },
    {
      "inputs": [
        {
          "internalType": "address",
          "name": "operator",
          "type": "address"
        },
        {
          "internalType": "bool",
          "name": "approved",
          "type": "bool"
        }
      ],
      "name": "setApprovalForAll",
      "outputs": [],
      "stateMutability": "nonpayable",
      "type": "function"
    },
    {
      "inputs": [
        {
          "internalType": "address",
          "name": "nftyLazyFactory",
          "type": "address"
        }
      ],
      "name": "setSignerRole",
      "outputs": [],
      "stateMutability": "nonpayable",
      "type": "function"
    },
    {
      "inputs": [
        {
          "internalType": "bytes4",
          "name": "interfaceId",
          "type": "bytes4"
        }
      ],
      "name": "supportsInterface",
      "outputs": [
        {
          "internalType": "bool",
          "name": "",
          "type": "bool"
        }
      ],
      "stateMutability": "view",
      "type": "function"
    },
    {
      "inputs": [],
      "name": "symbol",
      "outputs": [
        {
          "internalType": "string",
          "name": "",
          "type": "string"
        }
      ],
      "stateMutability": "view",
      "type": "function"
    },
    {
      "inputs": [
        {
          "internalType": "uint256",
          "name": "tokenId",
          "type": "uint256"
        }
      ],
      "name": "tokenURI",
      "outputs": [
        {
          "internalType": "string",
          "name": "",
          "type": "string"
        }
      ],
      "stateMutability": "view",
      "type": "function"
    },
    {
      "inputs": [
        {
          "internalType": "address",
          "name": "from",
          "type": "address"
        },
        {
          "internalType": "address",
          "name": "to",
          "type": "address"
        },
        {
          "internalType": "uint256",
          "name": "tokenId",
          "type": "uint256"
        }
      ],
      "name": "transferFrom",
      "outputs": [],
      "stateMutability": "nonpayable",
      "type": "function"
    },
    {
      "inputs": [
        {
          "internalType": "uint256",
          "name": "marketItemId",
          "type": "uint256"
        }
      ],
      "name": "unBreedToken",
      "outputs": [
        {
          "internalType": "uint256",
          "name": "",
          "type": "uint256"
        },
        {
          "internalType": "uint256",
          "name": "",
          "type": "uint256"
        }
      ],
      "stateMutability": "payable",
      "type": "function"
    },
    {
      "stateMutability": "payable",
      "type": "receive"
    }
  ],
  "bytecode": "0x60806040526005600a553480156200001657600080fd5b50604051620065613803806200656183398181016040528101906200003c919062000276565b6040518060400160405280601081526020017f4e66747954756e657320546f6b656e73000000000000000000000000000000008152506040518060400160405280600481526020017f4e465459000000000000000000000000000000000000000000000000000000008152508160009080519060200190620000c0929190620001af565b508060019080519060200190620000d9929190620001af565b505050600160078190555033600b60006101000a81548173ffffffffffffffffffffffffffffffffffffffff021916908373ffffffffffffffffffffffffffffffffffffffff16021790555081600c60006101000a81548173ffffffffffffffffffffffffffffffffffffffff021916908373ffffffffffffffffffffffffffffffffffffffff16021790555080600d60006101000a81548173ffffffffffffffffffffffffffffffffffffffff021916908373ffffffffffffffffffffffffffffffffffffffff16021790555050506200036a565b828054620001bd90620002eb565b90600052602060002090601f016020900481019282620001e157600085556200022d565b82601f10620001fc57805160ff19168380011785556200022d565b828001600101855582156200022d579182015b828111156200022c5782518255916020019190600101906200020f565b5b5090506200023c919062000240565b5090565b5b808211156200025b57600081600090555060010162000241565b5090565b600081519050620002708162000350565b92915050565b600080604083850312156200028a57600080fd5b60006200029a858286016200025f565b9250506020620002ad858286016200025f565b9150509250929050565b6000620002c482620002cb565b9050919050565b600073ffffffffffffffffffffffffffffffffffffffff82169050919050565b600060028204905060018216806200030457607f821691505b602082108114156200031b576200031a62000321565b5b50919050565b7f4e487b7100000000000000000000000000000000000000000000000000000000600052602260045260246000fd5b6200035b81620002b7565b81146200036757600080fd5b50565b6161e7806200037a6000396000f3fe6080604052600436106101395760003560e01c806398f25289116100ab578063bed659bc1161006f578063bed659bc14610473578063c7a3ab491461048f578063c87b56dd146104c0578063dd10a2b8146104fd578063e985e9c514610519578063effaa4a91461055657610179565b806398f25289146103b1578063a1ebf35d146103da578063a22cb46514610405578063b88d4fde1461042e578063be9af5361461045757610179565b80632a55205a116100fd5780632a55205a1461027557806342842e0e146102b35780636352211e146102dc578063692461801461031957806370a082311461034957806395d89b411461038657610179565b806301ffc9a71461017e57806306fdde03146101bb578063081812fc146101e6578063095ea7b31461022357806323b872dd1461024c57610179565b36610179577ff11e547d796cc64acdf758e7cee90439494fd886a19159454aa61e473fdbafef333460405161016f929190614eb2565b60405180910390a1005b600080fd5b34801561018a57600080fd5b506101a560048036038101906101a091906146b4565b610572565b6040516101b29190614edb565b60405180910390f35b3480156101c757600080fd5b506101d0610584565b6040516101dd9190614f3a565b60405180910390f35b3480156101f257600080fd5b5061020d60048036038101906102089190614706565b610616565b60405161021a9190614d8a565b60405180910390f35b34801561022f57600080fd5b5061024a60048036038101906102459190614613565b61069b565b005b34801561025857600080fd5b50610273600480360381019061026e919061446c565b6107b3565b005b34801561028157600080fd5b5061029c600480360381019061029791906147e7565b610813565b6040516102aa929190614eb2565b60405180910390f35b3480156102bf57600080fd5b506102da60048036038101906102d5919061446c565b6109fe565b005b3480156102e857600080fd5b5061030360048036038101906102fe9190614706565b610a1e565b6040516103109190614d8a565b60405180910390f35b610333600480360381019061032e9190614758565b610ad0565b60405161034091906152fc565b60405180910390f35b34801561035557600080fd5b50610370600480360381019061036b91906143de565b611546565b60405161037d91906152fc565b60405180910390f35b34801561039257600080fd5b5061039b6115fe565b6040516103a89190614f3a565b60405180910390f35b3480156103bd57600080fd5b506103d860048036038101906103d391906143de565b611690565b005b3480156103e657600080fd5b506103ef611720565b6040516103fc9190614ef6565b60405180910390f35b34801561041157600080fd5b5061042c60048036038101906104279190614536565b611744565b005b34801561043a57600080fd5b50610455600480360381019061045091906144bb565b61175a565b005b610471600480360381019061046c9190614706565b6117bc565b005b61048d60048036038101906104889190614706565b612150565b005b6104a960048036038101906104a49190614706565b6123d3565b6040516104b7929190615454565b60405180910390f35b3480156104cc57600080fd5b506104e760048036038101906104e29190614706565b6128b9565b6040516104f49190614f3a565b60405180910390f35b61051760048036038101906105129190614823565b612a0b565b005b34801561052557600080fd5b50610540600480360381019061053b9190614430565b612f36565b60405161054d9190614edb565b60405180910390f35b610570600480360381019061056b9190614572565b612fca565b005b600061057d8261317e565b9050919050565b606060008054610593906157ab565b80601f01602080910402602001604051908101604052809291908181526020018280546105bf906157ab565b801561060c5780601f106105e15761010080835404028352916020019161060c565b820191906000526020600020905b8154815290600101906020018083116105ef57829003601f168201915b5050505050905090565b6000610621826131f8565b610660576040517f08c379a00000000000000000000000000000000000000000000000000000000081526004016106579061519c565b60405180910390fd5b6004600083815260200190815260200160002060009054906101000a900473ffffffffffffffffffffffffffffffffffffffff169050919050565b60006106a682610a1e565b90508073ffffffffffffffffffffffffffffffffffffffff168373ffffffffffffffffffffffffffffffffffffffff161415610717576040517f08c379a000000000000000000000000000000000000000000000000000000000815260040161070e906151fc565b60405180910390fd5b8073ffffffffffffffffffffffffffffffffffffffff16610736613264565b73ffffffffffffffffffffffffffffffffffffffff16148061076557506107648161075f613264565b612f36565b5b6107a4576040517f08c379a000000000000000000000000000000000000000000000000000000000815260040161079b9061505c565b60405180910390fd5b6107ae838361326c565b505050565b6107c46107be613264565b82613325565b610803576040517f08c379a00000000000000000000000000000000000000000000000000000000081526004016107fa9061523c565b60405180910390fd5b61080e838383613403565b505050565b6000806000600960008681526020019081526020016000206040518060400160405290816000820160009054906101000a900473ffffffffffffffffffffffffffffffffffffffff1673ffffffffffffffffffffffffffffffffffffffff1673ffffffffffffffffffffffffffffffffffffffff1681526020016000820160149054906101000a90046bffffffffffffffffffffffff166bffffffffffffffffffffffff166bffffffffffffffffffffffff16815250509050600073ffffffffffffffffffffffffffffffffffffffff16816000015173ffffffffffffffffffffffffffffffffffffffff1614156109a95760086040518060400160405290816000820160009054906101000a900473ffffffffffffffffffffffffffffffffffffffff1673ffffffffffffffffffffffffffffffffffffffff1673ffffffffffffffffffffffffffffffffffffffff1681526020016000820160149054906101000a90046bffffffffffffffffffffffff166bffffffffffffffffffffffff166bffffffffffffffffffffffff168152505090505b60006109b361366a565b6bffffffffffffffffffffffff1682602001516bffffffffffffffffffffffff16866109df9190615621565b6109e991906155f0565b90508160000151819350935050509250929050565b610a198383836040518060200160405280600081525061175a565b505050565b6000806002600084815260200190815260200160002060009054906101000a900473ffffffffffffffffffffffffffffffffffffffff169050600073ffffffffffffffffffffffffffffffffffffffff168173ffffffffffffffffffffffffffffffffffffffff161415610ac7576040517f08c379a0000000000000000000000000000000000000000000000000000000008152600401610abe906150dc565b60405180910390fd5b80915050919050565b60003373ffffffffffffffffffffffffffffffffffffffff168573ffffffffffffffffffffffffffffffffffffffff16636352211e886040518263ffffffff1660e01b8152600401610b2291906152fc565b60206040518083038186803b158015610b3a57600080fd5b505afa158015610b4e573d6000803e3d6000fd5b505050506040513d601f19601f82011682018060405250810190610b729190614407565b73ffffffffffffffffffffffffffffffffffffffff1614610bc8576040517f08c379a0000000000000000000000000000000000000000000000000000000008152600401610bbf9061521c565b60405180910390fd5b3373ffffffffffffffffffffffffffffffffffffffff168373ffffffffffffffffffffffffffffffffffffffff16636352211e866040518263ffffffff1660e01b8152600401610c1891906152fc565b60206040518083038186803b158015610c3057600080fd5b505afa158015610c44573d6000803e3d6000fd5b505050506040513d601f19601f82011682018060405250810190610c689190614407565b73ffffffffffffffffffffffffffffffffffffffff1614610cbe576040517f08c379a0000000000000000000000000000000000000000000000000000000008152600401610cb5906151bc565b60405180910390fd5b6000808673ffffffffffffffffffffffffffffffffffffffff16632a55205a89670de0b6b3a76400006040518363ffffffff1660e01b8152600401610d0492919061542b565b604080518083038186803b158015610d1b57600080fd5b505afa158015610d2f573d6000803e3d6000fd5b505050506040513d601f19601f82011682018060405250810190610d53919061464f565b915091506000808673ffffffffffffffffffffffffffffffffffffffff16632a55205a89670de0b6b3a76400006040518363ffffffff1660e01b8152600401610d9d92919061542b565b604080518083038186803b158015610db457600080fd5b505afa158015610dc8573d6000803e3d6000fd5b505050506040513d601f19601f82011682018060405250810190610dec919061464f565b915091506000600c60009054906101000a900473ffffffffffffffffffffffffffffffffffffffff1690508073ffffffffffffffffffffffffffffffffffffffff1663e8fc9caa8b8d6040518363ffffffff1660e01b8152600401610e52929190614eb2565b60206040518083038186803b158015610e6a57600080fd5b505afa158015610e7e573d6000803e3d6000fd5b505050506040513d601f19601f82011682018060405250810190610ea2919061468b565b15610fa95760008173ffffffffffffffffffffffffffffffffffffffff16638f4e9cbb8c8e6040518363ffffffff1660e01b8152600401610ee4929190614eb2565b60206040518083038186803b158015610efc57600080fd5b505afa158015610f10573d6000803e3d6000fd5b505050506040513d601f19601f82011682018060405250810190610f34919061472f565b90508173ffffffffffffffffffffffffffffffffffffffff16639034bb2082336040518363ffffffff1660e01b8152600401610f71929190615317565b600060405180830381600087803b158015610f8b57600080fd5b505af1158015610f9f573d6000803e3d6000fd5b505050505061101d565b8073ffffffffffffffffffffffffffffffffffffffff16639885a0618c3388888f6040518663ffffffff1660e01b8152600401610fea959493929190615340565b600060405180830381600087803b15801561100457600080fd5b505af1158015611018573d6000803e3d6000fd5b505050505b8073ffffffffffffffffffffffffffffffffffffffff1663e8fc9caa898b6040518363ffffffff1660e01b8152600401611058929190614eb2565b60206040518083038186803b15801561107057600080fd5b505afa158015611084573d6000803e3d6000fd5b505050506040513d601f19601f820116820180604052508101906110a8919061468b565b156111af5760008173ffffffffffffffffffffffffffffffffffffffff16638f4e9cbb8a8c6040518363ffffffff1660e01b81526004016110ea929190614eb2565b60206040518083038186803b15801561110257600080fd5b505afa158015611116573d6000803e3d6000fd5b505050506040513d601f19601f8201168201806040525081019061113a919061472f565b90508173ffffffffffffffffffffffffffffffffffffffff16639034bb2082336040518363ffffffff1660e01b8152600401611177929190615317565b600060405180830381600087803b15801561119157600080fd5b505af11580156111a5573d6000803e3d6000fd5b5050505050611223565b8073ffffffffffffffffffffffffffffffffffffffff16639885a0618a3386868d6040518663ffffffff1660e01b81526004016111f0959493929190615340565b600060405180830381600087803b15801561120a57600080fd5b505af115801561121e573d6000803e3d6000fd5b505050505b8973ffffffffffffffffffffffffffffffffffffffff1663095ea7b3308d6040518363ffffffff1660e01b815260040161125e929190614eb2565b600060405180830381600087803b15801561127857600080fd5b505af115801561128c573d6000803e3d6000fd5b505050508973ffffffffffffffffffffffffffffffffffffffff166323b872dd33308e6040518463ffffffff1660e01b81526004016112cd93929190614dea565b600060405180830381600087803b1580156112e757600080fd5b505af11580156112fb573d6000803e3d6000fd5b505050508773ffffffffffffffffffffffffffffffffffffffff1663095ea7b3308b6040518363ffffffff1660e01b815260040161133a929190614eb2565b600060405180830381600087803b15801561135457600080fd5b505af1158015611368573d6000803e3d6000fd5b505050508973ffffffffffffffffffffffffffffffffffffffff166323b872dd33308c6040518463ffffffff1660e01b81526004016113a993929190614dea565b600060405180830381600087803b1580156113c357600080fd5b505af11580156113d7573d6000803e3d6000fd5b5050505060008173ffffffffffffffffffffffffffffffffffffffff16636c74cac43388876002670de0b6b3a7640000896114129190615621565b670de0b6b3a76400008c6114269190615621565b611430919061559a565b61143a91906155f0565b6040518563ffffffff1660e01b81526004016114599493929190614da5565b602060405180830381600087803b15801561147357600080fd5b505af1158015611487573d6000803e3d6000fd5b505050506040513d601f19601f820116820180604052508101906114ab919061472f565b90508173ffffffffffffffffffffffffffffffffffffffff166389fa42088d8c8e8d866040518663ffffffff1660e01b81526004016114ee95949392919061547d565b600060405180830381600087803b15801561150857600080fd5b505af115801561151c573d6000803e3d6000fd5b5050505061152a3382613674565b611534818961384e565b80965050505050505095945050505050565b60008073ffffffffffffffffffffffffffffffffffffffff168273ffffffffffffffffffffffffffffffffffffffff1614156115b7576040517f08c379a00000000000000000000000000000000000000000000000000000000081526004016115ae906150bc565b60405180910390fd5b600360008373ffffffffffffffffffffffffffffffffffffffff1673ffffffffffffffffffffffffffffffffffffffff168152602001908152602001600020549050919050565b60606001805461160d906157ab565b80601f0160208091040260200160405190810160405280929190818152602001828054611639906157ab565b80156116865780601f1061165b57610100808354040283529160200191611686565b820191906000526020600020905b81548152906001019060200180831161166957829003601f168201915b5050505050905090565b8073ffffffffffffffffffffffffffffffffffffffff16632f2ff15d7fe2f4eaae4a9751e85a3e4a7b9587827a877f29914755229b07a7b2da98285f70336040518363ffffffff1660e01b81526004016116eb929190614f11565b600060405180830381600087803b15801561170557600080fd5b505af1158015611719573d6000803e3d6000fd5b5050505050565b7fe2f4eaae4a9751e85a3e4a7b9587827a877f29914755229b07a7b2da98285f7081565b61175661174f613264565b83836138c2565b5050565b61176b611765613264565b83613325565b6117aa576040517f08c379a00000000000000000000000000000000000000000000000000000000081526004016117a19061523c565b60405180910390fd5b6117b684848484613a2f565b50505050565b6000600c60009054906101000a900473ffffffffffffffffffffffffffffffffffffffff16905060008173ffffffffffffffffffffffffffffffffffffffff1663370ef45a846040518263ffffffff1660e01b815260040161181e91906152fc565b60206040518083038186803b15801561183657600080fd5b505afa15801561184a573d6000803e3d6000fd5b505050506040513d601f19601f8201168201806040525081019061186e919061472f565b905060008273ffffffffffffffffffffffffffffffffffffffff16631d1440fd856040518263ffffffff1660e01b81526004016118ab91906152fc565b60206040518083038186803b1580156118c357600080fd5b505afa1580156118d7573d6000803e3d6000fd5b505050506040513d601f19601f820116820180604052508101906118fb9190614407565b905060008373ffffffffffffffffffffffffffffffffffffffff1663a917f66f866040518263ffffffff1660e01b815260040161193891906152fc565b60206040518083038186803b15801561195057600080fd5b505afa158015611964573d6000803e3d6000fd5b505050506040513d601f19601f820116820180604052508101906119889190614407565b905060008473ffffffffffffffffffffffffffffffffffffffff16634c4df870876040518263ffffffff1660e01b81526004016119c591906152fc565b60206040518083038186803b1580156119dd57600080fd5b505afa1580156119f1573d6000803e3d6000fd5b505050506040513d601f19601f82011682018060405250810190611a15919061472f565b905060008573ffffffffffffffffffffffffffffffffffffffff1663929151c6886040518263ffffffff1660e01b8152600401611a5291906152fc565b60206040518083038186803b158015611a6a57600080fd5b505afa158015611a7e573d6000803e3d6000fd5b505050506040513d601f19601f82011682018060405250810190611aa2919061468b565b905060008673ffffffffffffffffffffffffffffffffffffffff1663a36a6982896040518263ffffffff1660e01b8152600401611adf91906152fc565b60206040518083038186803b158015611af757600080fd5b505afa158015611b0b573d6000803e3d6000fd5b505050506040513d601f19601f82011682018060405250810190611b2f919061472f565b905060008773ffffffffffffffffffffffffffffffffffffffff1663cf41b0568a6040518263ffffffff1660e01b8152600401611b6c91906152fc565b60206040518083038186803b158015611b8457600080fd5b505afa158015611b98573d6000803e3d6000fd5b505050506040513d601f19601f82011682018060405250810190611bbc9190614407565b905060008873ffffffffffffffffffffffffffffffffffffffff1663dbd82b038b6040518263ffffffff1660e01b8152600401611bf991906152fc565b60206040518083038186803b158015611c1157600080fd5b505afa158015611c25573d6000803e3d6000fd5b505050506040513d601f19601f82011682018060405250810190611c499190614407565b90506000612710600a5434611c5e9190615621565b611c6891906155f0565b905060006127108534611c7b9190615621565b611c8591906155f0565b90503073ffffffffffffffffffffffffffffffffffffffff168973ffffffffffffffffffffffffffffffffffffffff1614611cf5576040517f08c379a0000000000000000000000000000000000000000000000000000000008152600401611cec9061527c565b60405180910390fd5b863414611d37576040517f08c379a0000000000000000000000000000000000000000000000000000000008152600401611d2e9061513c565b60405180910390fd5b600015158b73ffffffffffffffffffffffffffffffffffffffff1663fb7236488e6040518263ffffffff1660e01b8152600401611d7491906152fc565b60206040518083038186803b158015611d8c57600080fd5b505afa158015611da0573d6000803e3d6000fd5b505050506040513d601f19601f82011682018060405250810190611dc4919061468b565b151514611e06576040517f08c379a0000000000000000000000000000000000000000000000000000000008152600401611dfd9061507c565b60405180910390fd5b600015158615151415611f7d578a73ffffffffffffffffffffffffffffffffffffffff16631e5ffb798d33346040518463ffffffff1660e01b8152600401611e50939291906153f4565b600060405180830381600087803b158015611e6a57600080fd5b505af1158015611e7e573d6000803e3d6000fd5b50505050611e8d30338c613403565b8373ffffffffffffffffffffffffffffffffffffffff166108fc829081150290604051600060405180830381858888f19350505050158015611ed3573d6000803e3d6000fd5b503073ffffffffffffffffffffffffffffffffffffffff166108fc839081150290604051600060405180830381858888f19350505050158015611f1a573d6000803e3d6000fd5b508773ffffffffffffffffffffffffffffffffffffffff166108fc838334611f42919061567b565b611f4c919061567b565b9081150290604051600060405180830381858888f19350505050158015611f77573d6000803e3d6000fd5b50612142565b8a73ffffffffffffffffffffffffffffffffffffffff16631e5ffb798d33346040518463ffffffff1660e01b8152600401611fba939291906153f4565b600060405180830381600087803b158015611fd457600080fd5b505af1158015611fe8573d6000803e3d6000fd5b50505050611ff730338c613403565b8373ffffffffffffffffffffffffffffffffffffffff166108fc60028361201e91906155f0565b9081150290604051600060405180830381858888f19350505050158015612049573d6000803e3d6000fd5b508273ffffffffffffffffffffffffffffffffffffffff166108fc60028361207191906155f0565b9081150290604051600060405180830381858888f1935050505015801561209c573d6000803e3d6000fd5b503073ffffffffffffffffffffffffffffffffffffffff166108fc839081150290604051600060405180830381858888f193505050501580156120e3573d6000803e3d6000fd5b508773ffffffffffffffffffffffffffffffffffffffff166108fc83833461210b919061567b565b612115919061567b565b9081150290604051600060405180830381858888f19350505050158015612140573d6000803e3d6000fd5b505b505050505050505050505050565b60026007541415612196576040517f08c379a000000000000000000000000000000000000000000000000000000000815260040161218d906152dc565b60405180910390fd5b60026007819055506000600c60009054906101000a900473ffffffffffffffffffffffffffffffffffffffff16905060008173ffffffffffffffffffffffffffffffffffffffff1663a917f66f846040518263ffffffff1660e01b815260040161220091906152fc565b60206040518083038186803b15801561221857600080fd5b505afa15801561222c573d6000803e3d6000fd5b505050506040513d601f19601f820116820180604052508101906122509190614407565b905060008273ffffffffffffffffffffffffffffffffffffffff1663370ef45a856040518263ffffffff1660e01b815260040161228d91906152fc565b60206040518083038186803b1580156122a557600080fd5b505afa1580156122b9573d6000803e3d6000fd5b505050506040513d601f19601f820116820180604052508101906122dd919061472f565b90503373ffffffffffffffffffffffffffffffffffffffff168273ffffffffffffffffffffffffffffffffffffffff161461234d576040517f08c379a00000000000000000000000000000000000000000000000000000000081526004016123449061529c565b60405180910390fd5b8273ffffffffffffffffffffffffffffffffffffffff16633e14ba3185336040518363ffffffff1660e01b8152600401612388929190615317565b600060405180830381600087803b1580156123a257600080fd5b505af11580156123b6573d6000803e3d6000fd5b505050506123c5303383613403565b505050600160078190555050565b6000806000600c60009054906101000a900473ffffffffffffffffffffffffffffffffffffffff16905060008173ffffffffffffffffffffffffffffffffffffffff16631d1440fd866040518263ffffffff1660e01b815260040161243891906152fc565b60206040518083038186803b15801561245057600080fd5b505afa158015612464573d6000803e3d6000fd5b505050506040513d601f19601f820116820180604052508101906124889190614407565b905060008273ffffffffffffffffffffffffffffffffffffffff1663929151c6876040518263ffffffff1660e01b81526004016124c591906152fc565b60206040518083038186803b1580156124dd57600080fd5b505afa1580156124f1573d6000803e3d6000fd5b505050506040513d601f19601f82011682018060405250810190612515919061468b565b90503373ffffffffffffffffffffffffffffffffffffffff168273ffffffffffffffffffffffffffffffffffffffff1614612585576040517f08c379a000000000000000000000000000000000000000000000000000000000815260040161257c90614f5c565b60405180910390fd5b806125c5576040517f08c379a00000000000000000000000000000000000000000000000000000000081526004016125bc9061511c565b60405180910390fd5b60008373ffffffffffffffffffffffffffffffffffffffff1663e2bb872c886040518263ffffffff1660e01b815260040161260091906152fc565b60206040518083038186803b15801561261857600080fd5b505afa15801561262c573d6000803e3d6000fd5b505050506040513d601f19601f82011682018060405250810190612650919061472f565b905060008473ffffffffffffffffffffffffffffffffffffffff1663e26630bd896040518263ffffffff1660e01b815260040161268d91906152fc565b60206040518083038186803b1580156126a557600080fd5b505afa1580156126b9573d6000803e3d6000fd5b505050506040513d601f19601f820116820180604052508101906126dd919061472f565b905060008573ffffffffffffffffffffffffffffffffffffffff1663bd2e99928a6040518263ffffffff1660e01b815260040161271a91906152fc565b60206040518083038186803b15801561273257600080fd5b505afa158015612746573d6000803e3d6000fd5b505050506040513d601f19601f8201168201806040525081019061276a9190614407565b905060008673ffffffffffffffffffffffffffffffffffffffff1663a2b25a0a8b6040518263ffffffff1660e01b81526004016127a791906152fc565b60206040518083038186803b1580156127bf57600080fd5b505afa1580156127d3573d6000803e3d6000fd5b505050506040513d601f19601f820116820180604052508101906127f79190614407565b90508673ffffffffffffffffffffffffffffffffffffffff16638f4e9cbb83866040518363ffffffff1660e01b8152600401612834929190614eb2565b60206040518083038186803b15801561284c57600080fd5b505afa158015612860573d6000803e3d6000fd5b505050506040513d601f19601f82011682018060405250810190612884919061472f565b50612890303386613403565b61289b303385613403565b6128a73360008c613403565b83839850985050505050505050915091565b60606128c4826131f8565b612903576040517f08c379a00000000000000000000000000000000000000000000000000000000081526004016128fa9061517c565b60405180910390fd5b6000600660008481526020019081526020016000208054612923906157ab565b80601f016020809104026020016040519081016040528092919081815260200182805461294f906157ab565b801561299c5780601f106129715761010080835404028352916020019161299c565b820191906000526020600020905b81548152906001019060200180831161297f57829003601f168201915b5050505050905060006129ad613a8b565b90506000815114156129c3578192505050612a06565b6000825111156129f85780826040516020016129e0929190614d66565b60405160208183030381529060405292505050612a06565b612a0184613aa2565b925050505b919050565b3373ffffffffffffffffffffffffffffffffffffffff168173ffffffffffffffffffffffffffffffffffffffff16636352211e856040518263ffffffff1660e01b8152600401612a5b91906152fc565b60206040518083038186803b158015612a7357600080fd5b505afa158015612a87573d6000803e3d6000fd5b505050506040513d601f19601f82011682018060405250810190612aab9190614407565b73ffffffffffffffffffffffffffffffffffffffff1614612b01576040517f08c379a0000000000000000000000000000000000000000000000000000000008152600401612af890614f5c565b60405180910390fd5b60008211612b44576040517f08c379a0000000000000000000000000000000000000000000000000000000008152600401612b3b9061509c565b60405180910390fd5b6000600c60009054906101000a900473ffffffffffffffffffffffffffffffffffffffff1690508073ffffffffffffffffffffffffffffffffffffffff1663e8fc9caa83866040518363ffffffff1660e01b8152600401612ba6929190614eb2565b60206040518083038186803b158015612bbe57600080fd5b505afa158015612bd2573d6000803e3d6000fd5b505050506040513d601f19601f82011682018060405250810190612bf6919061468b565b15612d4b578073ffffffffffffffffffffffffffffffffffffffff1663830730438533866040518463ffffffff1660e01b8152600401612c38939291906153f4565b600060405180830381600087803b158015612c5257600080fd5b505af1158015612c66573d6000803e3d6000fd5b505050508173ffffffffffffffffffffffffffffffffffffffff1663095ea7b330866040518363ffffffff1660e01b8152600401612ca5929190614eb2565b600060405180830381600087803b158015612cbf57600080fd5b505af1158015612cd3573d6000803e3d6000fd5b505050508173ffffffffffffffffffffffffffffffffffffffff166323b872dd3330876040518463ffffffff1660e01b8152600401612d1493929190614dea565b600060405180830381600087803b158015612d2e57600080fd5b505af1158015612d42573d6000803e3d6000fd5b50505050612f30565b6000808373ffffffffffffffffffffffffffffffffffffffff16632a55205a87876040518363ffffffff1660e01b8152600401612d89929190615454565b604080518083038186803b158015612da057600080fd5b505afa158015612db4573d6000803e3d6000fd5b505050506040513d601f19601f82011682018060405250810190612dd8919061464f565b915091508373ffffffffffffffffffffffffffffffffffffffff1663095ea7b330886040518363ffffffff1660e01b8152600401612e17929190614eb2565b600060405180830381600087803b158015612e3157600080fd5b505af1158015612e45573d6000803e3d6000fd5b505050508273ffffffffffffffffffffffffffffffffffffffff1663a785c390873385858a8a6040518763ffffffff1660e01b8152600401612e8c96959493929190615393565b600060405180830381600087803b158015612ea657600080fd5b505af1158015612eba573d6000803e3d6000fd5b505050508373ffffffffffffffffffffffffffffffffffffffff166323b872dd3330896040518463ffffffff1660e01b8152600401612efb93929190614dea565b600060405180830381600087803b158015612f1557600080fd5b505af1158015612f29573d6000803e3d6000fd5b5050505050505b50505050565b6000600560008473ffffffffffffffffffffffffffffffffffffffff1673ffffffffffffffffffffffffffffffffffffffff16815260200190815260200160002060008373ffffffffffffffffffffffffffffffffffffffff1673ffffffffffffffffffffffffffffffffffffffff16815260200190815260200160002060009054906101000a900460ff16905092915050565b60026007541415613010576040517f08c379a0000000000000000000000000000000000000000000000000000000008152600401613007906152dc565b60405180910390fd5b60026007819055508573ffffffffffffffffffffffffffffffffffffffff163373ffffffffffffffffffffffffffffffffffffffff1614613086576040517f08c379a000000000000000000000000000000000000000000000000000000000815260040161307d90614f7c565b60405180910390fd5b6000600c60009054906101000a900473ffffffffffffffffffffffffffffffffffffffff16905060008173ffffffffffffffffffffffffffffffffffffffff16634a090dbf858589896040518563ffffffff1660e01b81526004016130ee9493929190614e6d565b602060405180830381600087803b15801561310857600080fd5b505af115801561311c573d6000803e3d6000fd5b505050506040513d601f19601f82011682018060405250810190613140919061472f565b905061314c8482613674565b613156818861384e565b613161818587613b49565b61316c848483613403565b50506001600781905550505050505050565b60007f2a55205a000000000000000000000000000000000000000000000000000000007bffffffffffffffffffffffffffffffffffffffffffffffffffffffff1916827bffffffffffffffffffffffffffffffffffffffffffffffffffffffff191614806131f157506131f082613cf1565b5b9050919050565b60008073ffffffffffffffffffffffffffffffffffffffff166002600084815260200190815260200160002060009054906101000a900473ffffffffffffffffffffffffffffffffffffffff1673ffffffffffffffffffffffffffffffffffffffff1614159050919050565b600033905090565b816004600083815260200190815260200160002060006101000a81548173ffffffffffffffffffffffffffffffffffffffff021916908373ffffffffffffffffffffffffffffffffffffffff160217905550808273ffffffffffffffffffffffffffffffffffffffff166132df83610a1e565b73ffffffffffffffffffffffffffffffffffffffff167f8c5be1e5ebec7d5bd14f71427d1e84f3dd0314c0f7b2291e5b200ac8c7c3b92560405160405180910390a45050565b6000613330826131f8565b61336f576040517f08c379a00000000000000000000000000000000000000000000000000000000081526004016133669061503c565b60405180910390fd5b600061337a83610a1e565b90508073ffffffffffffffffffffffffffffffffffffffff168473ffffffffffffffffffffffffffffffffffffffff1614806133e957508373ffffffffffffffffffffffffffffffffffffffff166133d184610616565b73ffffffffffffffffffffffffffffffffffffffff16145b806133fa57506133f98185612f36565b5b91505092915050565b8273ffffffffffffffffffffffffffffffffffffffff1661342382610a1e565b73ffffffffffffffffffffffffffffffffffffffff1614613479576040517f08c379a000000000000000000000000000000000000000000000000000000000815260040161347090614fbc565b60405180910390fd5b600073ffffffffffffffffffffffffffffffffffffffff168273ffffffffffffffffffffffffffffffffffffffff1614156134e9576040517f08c379a00000000000000000000000000000000000000000000000000000000081526004016134e090614ffc565b60405180910390fd5b6134f4838383613dd3565b6134ff60008261326c565b6001600360008573ffffffffffffffffffffffffffffffffffffffff1673ffffffffffffffffffffffffffffffffffffffff168152602001908152602001600020600082825461354f919061567b565b925050819055506001600360008473ffffffffffffffffffffffffffffffffffffffff1673ffffffffffffffffffffffffffffffffffffffff16815260200190815260200160002060008282546135a6919061559a565b92505081905550816002600083815260200190815260200160002060006101000a81548173ffffffffffffffffffffffffffffffffffffffff021916908373ffffffffffffffffffffffffffffffffffffffff160217905550808273ffffffffffffffffffffffffffffffffffffffff168473ffffffffffffffffffffffffffffffffffffffff167fddf252ad1be2c89b69c2b068fc378daa952ba7f163c4a11628f55a4df523b3ef60405160405180910390a4613665838383613dd8565b505050565b6000612710905090565b600073ffffffffffffffffffffffffffffffffffffffff168273ffffffffffffffffffffffffffffffffffffffff1614156136e4576040517f08c379a00000000000000000000000000000000000000000000000000000000081526004016136db9061515c565b60405180910390fd5b6136ed816131f8565b1561372d576040517f08c379a000000000000000000000000000000000000000000000000000000000815260040161372490614fdc565b60405180910390fd5b61373960008383613dd3565b6001600360008473ffffffffffffffffffffffffffffffffffffffff1673ffffffffffffffffffffffffffffffffffffffff1681526020019081526020016000206000828254613789919061559a565b92505081905550816002600083815260200190815260200160002060006101000a81548173ffffffffffffffffffffffffffffffffffffffff021916908373ffffffffffffffffffffffffffffffffffffffff160217905550808273ffffffffffffffffffffffffffffffffffffffff16600073ffffffffffffffffffffffffffffffffffffffff167fddf252ad1be2c89b69c2b068fc378daa952ba7f163c4a11628f55a4df523b3ef60405160405180910390a461384a60008383613dd8565b5050565b613857826131f8565b613896576040517f08c379a000000000000000000000000000000000000000000000000000000000815260040161388d906150fc565b60405180910390fd5b806006600084815260200190815260200160002090805190602001906138bd9291906141ae565b505050565b8173ffffffffffffffffffffffffffffffffffffffff168373ffffffffffffffffffffffffffffffffffffffff161415613931576040517f08c379a00000000000000000000000000000000000000000000000000000000081526004016139289061501c565b60405180910390fd5b80600560008573ffffffffffffffffffffffffffffffffffffffff1673ffffffffffffffffffffffffffffffffffffffff16815260200190815260200160002060008473ffffffffffffffffffffffffffffffffffffffff1673ffffffffffffffffffffffffffffffffffffffff16815260200190815260200160002060006101000a81548160ff0219169083151502179055508173ffffffffffffffffffffffffffffffffffffffff168373ffffffffffffffffffffffffffffffffffffffff167f17307eab39ab6107e8899845ad3d59bd9653f200f220920489ca2b5937696c3183604051613a229190614edb565b60405180910390a3505050565b613a3a848484613403565b613a4684848484613ddd565b613a85576040517f08c379a0000000000000000000000000000000000000000000000000000000008152600401613a7c90614f9c565b60405180910390fd5b50505050565b606060405180602001604052806000815250905090565b6060613aad826131f8565b613aec576040517f08c379a0000000000000000000000000000000000000000000000000000000008152600401613ae3906151dc565b60405180910390fd5b6000613af6613a8b565b90506000815111613b165760405180602001604052806000815250613b41565b80613b2084613f74565b604051602001613b31929190614d66565b6040516020818303038152906040525b915050919050565b613b5161366a565b6bffffffffffffffffffffffff16816bffffffffffffffffffffffff161115613baf576040517f08c379a0000000000000000000000000000000000000000000000000000000008152600401613ba6906152bc565b60405180910390fd5b600073ffffffffffffffffffffffffffffffffffffffff168273ffffffffffffffffffffffffffffffffffffffff161415613c1f576040517f08c379a0000000000000000000000000000000000000000000000000000000008152600401613c169061525c565b60405180910390fd5b60405180604001604052808373ffffffffffffffffffffffffffffffffffffffff168152602001826bffffffffffffffffffffffff168152506009600085815260200190815260200160002060008201518160000160006101000a81548173ffffffffffffffffffffffffffffffffffffffff021916908373ffffffffffffffffffffffffffffffffffffffff16021790555060208201518160000160146101000a8154816bffffffffffffffffffffffff02191690836bffffffffffffffffffffffff160217905550905050505050565b60007f80ac58cd000000000000000000000000000000000000000000000000000000007bffffffffffffffffffffffffffffffffffffffffffffffffffffffff1916827bffffffffffffffffffffffffffffffffffffffffffffffffffffffff19161480613dbc57507f5b5e139f000000000000000000000000000000000000000000000000000000007bffffffffffffffffffffffffffffffffffffffffffffffffffffffff1916827bffffffffffffffffffffffffffffffffffffffffffffffffffffffff1916145b80613dcc5750613dcb82614121565b5b9050919050565b505050565b505050565b6000613dfe8473ffffffffffffffffffffffffffffffffffffffff1661418b565b15613f67578373ffffffffffffffffffffffffffffffffffffffff1663150b7a02613e27613264565b8786866040518563ffffffff1660e01b8152600401613e499493929190614e21565b602060405180830381600087803b158015613e6357600080fd5b505af1925050508015613e9457506040513d601f19601f82011682018060405250810190613e9191906146dd565b60015b613f17573d8060008114613ec4576040519150601f19603f3d011682016040523d82523d6000602084013e613ec9565b606091505b50600081511415613f0f576040517f08c379a0000000000000000000000000000000000000000000000000000000008152600401613f0690614f9c565b60405180910390fd5b805181602001fd5b63150b7a0260e01b7bffffffffffffffffffffffffffffffffffffffffffffffffffffffff1916817bffffffffffffffffffffffffffffffffffffffffffffffffffffffff191614915050613f6c565b600190505b949350505050565b60606000821415613fbc576040518060400160405280600181526020017f3000000000000000000000000000000000000000000000000000000000000000815250905061411c565b600082905060005b60008214613fee578080613fd79061580e565b915050600a82613fe791906155f0565b9150613fc4565b60008167ffffffffffffffff811115614030577f4e487b7100000000000000000000000000000000000000000000000000000000600052604160045260246000fd5b6040519080825280601f01601f1916602001820160405280156140625781602001600182028036833780820191505090505b5090505b600085146141155760018261407b919061567b565b9150600a8561408a9190615857565b6030614096919061559a565b60f81b8183815181106140d2577f4e487b7100000000000000000000000000000000000000000000000000000000600052603260045260246000fd5b60200101907effffffffffffffffffffffffffffffffffffffffffffffffffffffffffffff1916908160001a905350600a8561410e91906155f0565b9450614066565b8093505050505b919050565b60007f01ffc9a7000000000000000000000000000000000000000000000000000000007bffffffffffffffffffffffffffffffffffffffffffffffffffffffff1916827bffffffffffffffffffffffffffffffffffffffffffffffffffffffff1916149050919050565b6000808273ffffffffffffffffffffffffffffffffffffffff163b119050919050565b8280546141ba906157ab565b90600052602060002090601f0160209004810192826141dc5760008555614223565b82601f106141f557805160ff1916838001178555614223565b82800160010185558215614223579182015b82811115614222578251825591602001919060010190614207565b5b5090506142309190614234565b5090565b5b8082111561424d576000816000905550600101614235565b5090565b600061426461425f846154f5565b6154d0565b90508281526020810184848401111561427c57600080fd5b614287848285615769565b509392505050565b60006142a261429d84615526565b6154d0565b9050828152602081018484840111156142ba57600080fd5b6142c5848285615769565b509392505050565b6000813590506142dc8161613e565b92915050565b6000815190506142f18161613e565b92915050565b60008135905061430681616155565b92915050565b60008151905061431b81616155565b92915050565b6000813590506143308161616c565b92915050565b6000815190506143458161616c565b92915050565b600082601f83011261435c57600080fd5b813561436c848260208601614251565b91505092915050565b600082601f83011261438657600080fd5b813561439684826020860161428f565b91505092915050565b6000813590506143ae81616183565b92915050565b6000815190506143c381616183565b92915050565b6000813590506143d88161619a565b92915050565b6000602082840312156143f057600080fd5b60006143fe848285016142cd565b91505092915050565b60006020828403121561441957600080fd5b6000614427848285016142e2565b91505092915050565b6000806040838503121561444357600080fd5b6000614451858286016142cd565b9250506020614462858286016142cd565b9150509250929050565b60008060006060848603121561448157600080fd5b600061448f868287016142cd565b93505060206144a0868287016142cd565b92505060406144b18682870161439f565b9150509250925092565b600080600080608085870312156144d157600080fd5b60006144df878288016142cd565b94505060206144f0878288016142cd565b93505060406145018782880161439f565b925050606085013567ffffffffffffffff81111561451e57600080fd5b61452a8782880161434b565b91505092959194509250565b6000806040838503121561454957600080fd5b6000614557858286016142cd565b9250506020614568858286016142f7565b9150509250929050565b60008060008060008060c0878903121561458b57600080fd5b600061459989828a016142cd565b965050602087013567ffffffffffffffff8111156145b657600080fd5b6145c289828a01614375565b95505060406145d389828a0161439f565b94505060606145e489828a016143c9565b93505060806145f589828a016142cd565b92505060a061460689828a016142cd565b9150509295509295509295565b6000806040838503121561462657600080fd5b6000614634858286016142cd565b92505060206146458582860161439f565b9150509250929050565b6000806040838503121561466257600080fd5b6000614670858286016142e2565b9250506020614681858286016143b4565b9150509250929050565b60006020828403121561469d57600080fd5b60006146ab8482850161430c565b91505092915050565b6000602082840312156146c657600080fd5b60006146d484828501614321565b91505092915050565b6000602082840312156146ef57600080fd5b60006146fd84828501614336565b91505092915050565b60006020828403121561471857600080fd5b60006147268482850161439f565b91505092915050565b60006020828403121561474157600080fd5b600061474f848285016143b4565b91505092915050565b600080600080600060a0868803121561477057600080fd5b600061477e8882890161439f565b955050602061478f888289016142cd565b94505060406147a08882890161439f565b93505060606147b1888289016142cd565b925050608086013567ffffffffffffffff8111156147ce57600080fd5b6147da88828901614375565b9150509295509295909350565b600080604083850312156147fa57600080fd5b60006148088582860161439f565b92505060206148198582860161439f565b9150509250929050565b60008060006060848603121561483857600080fd5b60006148468682870161439f565b93505060206148578682870161439f565b9250506040614868868287016142cd565b9150509250925092565b61487b816156af565b82525050565b61488a816156c1565b82525050565b614899816156cd565b82525050565b60006148aa82615557565b6148b4818561556d565b93506148c4818560208601615778565b6148cd81615944565b840191505092915050565b6148e181615745565b82525050565b60006148f282615562565b6148fc818561557e565b935061490c818560208601615778565b61491581615944565b840191505092915050565b600061492b82615562565b614935818561558f565b9350614945818560208601615778565b80840191505092915050565b600061495e60198361557e565b915061496982615955565b602082019050919050565b6000614981602c8361557e565b915061498c8261597e565b604082019050919050565b60006149a460328361557e565b91506149af826159cd565b604082019050919050565b60006149c760258361557e565b91506149d282615a1c565b604082019050919050565b60006149ea601c8361557e565b91506149f582615a6b565b602082019050919050565b6000614a0d60248361557e565b9150614a1882615a94565b604082019050919050565b6000614a3060198361557e565b9150614a3b82615ae3565b602082019050919050565b6000614a53602c8361557e565b9150614a5e82615b0c565b604082019050919050565b6000614a7660388361557e565b9150614a8182615b5b565b604082019050919050565b6000614a9960248361557e565b9150614aa482615baa565b604082019050919050565b6000614abc601c8361557e565b9150614ac782615bf9565b602082019050919050565b6000614adf602a8361557e565b9150614aea82615c22565b604082019050919050565b6000614b0260298361557e565b9150614b0d82615c71565b604082019050919050565b6000614b25602e8361557e565b9150614b3082615cc0565b604082019050919050565b6000614b4860228361557e565b9150614b5382615d0f565b604082019050919050565b6000614b6b60408361557e565b9150614b7682615d5e565b604082019050919050565b6000614b8e60208361557e565b9150614b9982615dad565b602082019050919050565b6000614bb160318361557e565b9150614bbc82615dd6565b604082019050919050565b6000614bd4602c8361557e565b9150614bdf82615e25565b604082019050919050565b6000614bf7602c8361557e565b9150614c0282615e74565b604082019050919050565b6000614c1a602f8361557e565b9150614c2582615ec3565b604082019050919050565b6000614c3d60218361557e565b9150614c4882615f12565b604082019050919050565b6000614c60602c8361557e565b9150614c6b82615f61565b604082019050919050565b6000614c8360318361557e565b9150614c8e82615fb0565b604082019050919050565b6000614ca6601b8361557e565b9150614cb182615fff565b602082019050919050565b6000614cc960248361557e565b9150614cd482616028565b604082019050919050565b6000614cec60228361557e565b9150614cf782616077565b604082019050919050565b6000614d0f602a8361557e565b9150614d1a826160c6565b604082019050919050565b6000614d32601f8361557e565b9150614d3d82616115565b602082019050919050565b614d5181615723565b82525050565b614d6081615757565b82525050565b6000614d728285614920565b9150614d7e8284614920565b91508190509392505050565b6000602082019050614d9f6000830184614872565b92915050565b6000608082019050614dba6000830187614872565b614dc76020830186614872565b614dd46040830185614872565b614de16060830184614d48565b95945050505050565b6000606082019050614dff6000830186614872565b614e0c6020830185614872565b614e196040830184614d48565b949350505050565b6000608082019050614e366000830187614872565b614e436020830186614872565b614e506040830185614d48565b8181036060830152614e62818461489f565b905095945050505050565b6000608082019050614e826000830187614872565b614e8f6020830186614872565b614e9c6040830185614d48565b614ea96060830184614d57565b95945050505050565b6000604082019050614ec76000830185614872565b614ed46020830184614d48565b9392505050565b6000602082019050614ef06000830184614881565b92915050565b6000602082019050614f0b6000830184614890565b92915050565b6000604082019050614f266000830185614890565b614f336020830184614872565b9392505050565b60006020820190508181036000830152614f5481846148e7565b905092915050565b60006020820190508181036000830152614f7581614951565b9050919050565b60006020820190508181036000830152614f9581614974565b9050919050565b60006020820190508181036000830152614fb581614997565b9050919050565b60006020820190508181036000830152614fd5816149ba565b9050919050565b60006020820190508181036000830152614ff5816149dd565b9050919050565b6000602082019050818103600083015261501581614a00565b9050919050565b6000602082019050818103600083015261503581614a23565b9050919050565b6000602082019050818103600083015261505581614a46565b9050919050565b6000602082019050818103600083015261507581614a69565b9050919050565b6000602082019050818103600083015261509581614a8c565b9050919050565b600060208201905081810360008301526150b581614aaf565b9050919050565b600060208201905081810360008301526150d581614ad2565b9050919050565b600060208201905081810360008301526150f581614af5565b9050919050565b6000602082019050818103600083015261511581614b18565b9050919050565b6000602082019050818103600083015261513581614b3b565b9050919050565b6000602082019050818103600083015261515581614b5e565b9050919050565b6000602082019050818103600083015261517581614b81565b9050919050565b6000602082019050818103600083015261519581614ba4565b9050919050565b600060208201905081810360008301526151b581614bc7565b9050919050565b600060208201905081810360008301526151d581614bea565b9050919050565b600060208201905081810360008301526151f581614c0d565b9050919050565b6000602082019050818103600083015261521581614c30565b9050919050565b6000602082019050818103600083015261523581614c53565b9050919050565b6000602082019050818103600083015261525581614c76565b9050919050565b6000602082019050818103600083015261527581614c99565b9050919050565b6000602082019050818103600083015261529581614cbc565b9050919050565b600060208201905081810360008301526152b581614cdf565b9050919050565b600060208201905081810360008301526152d581614d02565b9050919050565b600060208201905081810360008301526152f581614d25565b9050919050565b60006020820190506153116000830184614d48565b92915050565b600060408201905061532c6000830185614d48565b6153396020830184614872565b9392505050565b600060a0820190506153556000830188614d48565b6153626020830187614872565b61536f6040830186614872565b61537c6060830185614d48565b6153896080830184614872565b9695505050505050565b600060c0820190506153a86000830189614d48565b6153b56020830188614872565b6153c26040830187614872565b6153cf6060830186614d48565b6153dc6080830185614d48565b6153e960a0830184614872565b979650505050505050565b60006060820190506154096000830186614d48565b6154166020830185614872565b6154236040830184614d48565b949350505050565b60006040820190506154406000830185614d48565b61544d60208301846148d8565b9392505050565b60006040820190506154696000830185614d48565b6154766020830184614d48565b9392505050565b600060a0820190506154926000830188614d48565b61549f6020830187614d48565b6154ac6040830186614872565b6154b96060830185614872565b6154c66080830184614d48565b9695505050505050565b60006154da6154eb565b90506154e682826157dd565b919050565b6000604051905090565b600067ffffffffffffffff8211156155105761550f615915565b5b61551982615944565b9050602081019050919050565b600067ffffffffffffffff82111561554157615540615915565b5b61554a82615944565b9050602081019050919050565b600081519050919050565b600081519050919050565b600082825260208201905092915050565b600082825260208201905092915050565b600081905092915050565b60006155a582615723565b91506155b083615723565b9250827fffffffffffffffffffffffffffffffffffffffffffffffffffffffffffffffff038211156155e5576155e4615888565b5b828201905092915050565b60006155fb82615723565b915061560683615723565b925082615616576156156158b7565b5b828204905092915050565b600061562c82615723565b915061563783615723565b9250817fffffffffffffffffffffffffffffffffffffffffffffffffffffffffffffffff04831182151516156156705761566f615888565b5b828202905092915050565b600061568682615723565b915061569183615723565b9250828210156156a4576156a3615888565b5b828203905092915050565b60006156ba82615703565b9050919050565b60008115159050919050565b6000819050919050565b60007fffffffff0000000000000000000000000000000000000000000000000000000082169050919050565b600073ffffffffffffffffffffffffffffffffffffffff82169050919050565b6000819050919050565b60006bffffffffffffffffffffffff82169050919050565b600061575082615723565b9050919050565b60006157628261572d565b9050919050565b82818337600083830152505050565b60005b8381101561579657808201518184015260208101905061577b565b838111156157a5576000848401525b50505050565b600060028204905060018216806157c357607f821691505b602082108114156157d7576157d66158e6565b5b50919050565b6157e682615944565b810181811067ffffffffffffffff8211171561580557615804615915565b5b80604052505050565b600061581982615723565b91507fffffffffffffffffffffffffffffffffffffffffffffffffffffffffffffffff82141561584c5761584b615888565b5b600182019050919050565b600061586282615723565b915061586d83615723565b92508261587d5761587c6158b7565b5b828206905092915050565b7f4e487b7100000000000000000000000000000000000000000000000000000000600052601160045260246000fd5b7f4e487b7100000000000000000000000000000000000000000000000000000000600052601260045260246000fd5b7f4e487b7100000000000000000000000000000000000000000000000000000000600052602260045260246000fd5b7f4e487b7100000000000000000000000000000000000000000000000000000000600052604160045260246000fd5b6000601f19601f8301169050919050565b7f596f7520646f206e6f74206f776e207468697320746f6b656e00000000000000600082015250565b7f4f6e6c792074686520636f6e74726f6c6c65722063616e20616363657373207460008201527f6869732066756e6374696f6e0000000000000000000000000000000000000000602082015250565b7f4552433732313a207472616e7366657220746f206e6f6e20455243373231526560008201527f63656976657220696d706c656d656e7465720000000000000000000000000000602082015250565b7f4552433732313a207472616e736665722066726f6d20696e636f72726563742060008201527f6f776e6572000000000000000000000000000000000000000000000000000000602082015250565b7f4552433732313a20746f6b656e20616c7265616479206d696e74656400000000600082015250565b7f4552433732313a207472616e7366657220746f20746865207a65726f2061646460008201527f7265737300000000000000000000000000000000000000000000000000000000602082015250565b7f4552433732313a20617070726f766520746f2063616c6c657200000000000000600082015250565b7f4552433732313a206f70657261746f7220717565727920666f72206e6f6e657860008201527f697374656e7420746f6b656e0000000000000000000000000000000000000000602082015250565b7f4552433732313a20617070726f76652063616c6c6572206973206e6f74206f7760008201527f6e6572206e6f7220617070726f76656420666f7220616c6c0000000000000000602082015250565b7f5468697320746f6b656e206973206c6f636b65642064756520746f206272656560008201527f64696e6700000000000000000000000000000000000000000000000000000000602082015250565b7f43616e6e6f7420686176652061206e6f6e2d7a65726f20707269636500000000600082015250565b7f4552433732313a2062616c616e636520717565727920666f7220746865207a6560008201527f726f206164647265737300000000000000000000000000000000000000000000602082015250565b7f4552433732313a206f776e657220717565727920666f72206e6f6e657869737460008201527f656e7420746f6b656e0000000000000000000000000000000000000000000000602082015250565b7f45524337323155524953746f726167653a2055524920736574206f66206e6f6e60008201527f6578697374656e7420746f6b656e000000000000000000000000000000000000602082015250565b7f54686973206973206e6f742061204e66747954756e6573206272656420746f6b60008201527f656e000000000000000000000000000000000000000000000000000000000000602082015250565b7f506c65617365207375626d6974207468652061736b696e67207072696365206960008201527f6e206f7264657220746f20636f6d706c65746520746865207075726368617365602082015250565b7f4552433732313a206d696e7420746f20746865207a65726f2061646472657373600082015250565b7f45524337323155524953746f726167653a2055524920717565727920666f722060008201527f6e6f6e6578697374656e7420746f6b656e000000000000000000000000000000602082015250565b7f4552433732313a20617070726f76656420717565727920666f72206e6f6e657860008201527f697374656e7420746f6b656e0000000000000000000000000000000000000000602082015250565b7f4f6e6c79206974656d2032206f776e65722063616e20706572666f726d20746860008201527f6973206f7065726174696f6e0000000000000000000000000000000000000000602082015250565b7f4552433732314d657461646174613a2055524920717565727920666f72206e6f60008201527f6e6578697374656e7420746f6b656e0000000000000000000000000000000000602082015250565b7f4552433732313a20617070726f76616c20746f2063757272656e74206f776e6560008201527f7200000000000000000000000000000000000000000000000000000000000000602082015250565b7f4f6e6c79206974656d2031206f776e65722063616e20706572666f726d20746860008201527f6973206f7065726174696f6e0000000000000000000000000000000000000000602082015250565b7f4552433732313a207472616e736665722063616c6c6572206973206e6f74206f60008201527f776e6572206e6f7220617070726f766564000000000000000000000000000000602082015250565b7f455243323938313a20496e76616c696420706172616d65746572730000000000600082015250565b7f4f6e6c79206d61726b6574706c616365206974656d732063616e20626520626f60008201527f7567687400000000000000000000000000000000000000000000000000000000602082015250565b7f43616e6e6f742064656c69737420616e6f746865722075736572277320746f6b60008201527f656e000000000000000000000000000000000000000000000000000000000000602082015250565b7f455243323938313a20726f79616c7479206665652077696c6c2065786365656460008201527f2073616c65507269636500000000000000000000000000000000000000000000602082015250565b7f5265656e7472616e637947756172643a207265656e7472616e742063616c6c00600082015250565b616147816156af565b811461615257600080fd5b50565b61615e816156c1565b811461616957600080fd5b50565b616175816156d7565b811461618057600080fd5b50565b61618c81615723565b811461619757600080fd5b50565b6161a38161572d565b81146161ae57600080fd5b5056fea26469706673582212209ab2524eeadfa3a04fbe73efc0ee22549af27e394894a7b5b1d3d7c01dee48f264736f6c63430008040033",
  "linkReferences": {},
  "deployedLinkReferences": {}
}