{
  "_format": "hh-sol-artifact-1",
  "contractName": "NFTMarketplaceStorage",
  "sourceName": "contracts/NFTMarketplace.sol",
  "abi": [
    {
      "inputs": [
        {
          "internalType": "address",
          "name": "_WETH",
          "type": "address"
        }
      ],
      "stateMutability": "nonpayable",
      "type": "constructor"
    },
    {
      "anonymous": false,
      "inputs": [
        {
          "indexed": true,
          "internalType": "uint256",
          "name": "tokenId",
          "type": "uint256"
        },
        {
          "indexed": false,
          "internalType": "address",
          "name": "seller",
          "type": "address"
        },
        {
          "indexed": false,
          "internalType": "address",
          "name": "owner",
          "type": "address"
        },
        {
          "indexed": false,
          "internalType": "address",
          "name": "publisher",
          "type": "address"
        },
        {
          "indexed": false,
          "internalType": "address",
          "name": "publisherTwo",
          "type": "address"
        },
        {
          "indexed": false,
          "internalType": "address",
          "name": "tokenAddress",
          "type": "address"
        },
        {
          "indexed": false,
          "internalType": "uint256",
          "name": "price",
          "type": "uint256"
        },
        {
          "indexed": false,
          "internalType": "uint256",
          "name": "royalty",
          "type": "uint256"
        },
        {
          "indexed": false,
          "internalType": "bool",
          "name": "sold",
          "type": "bool"
        },
        {
          "indexed": false,
          "internalType": "bool",
          "name": "bred",
          "type": "bool"
        }
      ],
      "name": "MarketItemCreated",
      "type": "event"
    },
    {
      "anonymous": false,
      "inputs": [
        {
          "indexed": true,
          "internalType": "address",
          "name": "previousOwner",
          "type": "address"
        },
        {
          "indexed": true,
          "internalType": "address",
          "name": "newOwner",
          "type": "address"
        }
      ],
      "name": "OwnershipTransferred",
      "type": "event"
    },
    {
      "anonymous": false,
      "inputs": [
        {
          "indexed": true,
          "internalType": "uint256",
          "name": "bid",
          "type": "uint256"
        },
        {
          "indexed": false,
          "internalType": "address",
          "name": "bidder",
          "type": "address"
        }
      ],
      "name": "bidPlaced",
      "type": "event"
    },
    {
      "inputs": [
        {
          "internalType": "address",
          "name": "tokenAddress",
          "type": "address"
        },
        {
          "internalType": "uint256",
          "name": "tokenId",
          "type": "uint256"
        }
      ],
      "name": "checkIfItemExists",
      "outputs": [
        {
          "internalType": "bool",
          "name": "",
          "type": "bool"
        }
      ],
      "stateMutability": "view",
      "type": "function"
    },
    {
      "inputs": [
        {
          "internalType": "address",
          "name": "seller",
          "type": "address"
        }
      ],
      "name": "fetchItemsListed",
      "outputs": [
        {
          "components": [
            {
              "internalType": "uint256",
              "name": "tokenId",
              "type": "uint256"
            },
            {
              "internalType": "address payable",
              "name": "seller",
              "type": "address"
            },
            {
              "internalType": "address payable",
              "name": "owner",
              "type": "address"
            },
            {
              "internalType": "address payable",
              "name": "publisher",
              "type": "address"
            },
            {
              "internalType": "address payable",
              "name": "publisherTwo",
              "type": "address"
            },
            {
              "internalType": "address",
              "name": "tokenAddress",
              "type": "address"
            },
            {
              "internalType": "uint256",
              "name": "price",
              "type": "uint256"
            },
            {
              "internalType": "uint256",
              "name": "royalty",
              "type": "uint256"
            },
            {
              "internalType": "bool",
              "name": "sold",
              "type": "bool"
            },
            {
              "internalType": "bool",
              "name": "bred",
              "type": "bool"
            }
          ],
          "internalType": "struct NFTMarketplaceStorage.MarketItem[]",
          "name": "",
          "type": "tuple[]"
        }
      ],
      "stateMutability": "view",
      "type": "function"
    },
    {
      "inputs": [],
      "name": "fetchMarketItems",
      "outputs": [
        {
          "components": [
            {
              "internalType": "uint256",
              "name": "tokenId",
              "type": "uint256"
            },
            {
              "internalType": "address payable",
              "name": "seller",
              "type": "address"
            },
            {
              "internalType": "address payable",
              "name": "owner",
              "type": "address"
            },
            {
              "internalType": "address payable",
              "name": "publisher",
              "type": "address"
            },
            {
              "internalType": "address payable",
              "name": "publisherTwo",
              "type": "address"
            },
            {
              "internalType": "address",
              "name": "tokenAddress",
              "type": "address"
            },
            {
              "internalType": "uint256",
              "name": "price",
              "type": "uint256"
            },
            {
              "internalType": "uint256",
              "name": "royalty",
              "type": "uint256"
            },
            {
              "internalType": "bool",
              "name": "sold",
              "type": "bool"
            },
            {
              "internalType": "bool",
              "name": "bred",
              "type": "bool"
            }
          ],
          "internalType": "struct NFTMarketplaceStorage.MarketItem[]",
          "name": "",
          "type": "tuple[]"
        }
      ],
      "stateMutability": "view",
      "type": "function"
    },
    {
      "inputs": [],
      "name": "fetchMyNFTs",
      "outputs": [
        {
          "components": [
            {
              "internalType": "uint256",
              "name": "tokenId",
              "type": "uint256"
            },
            {
              "internalType": "address payable",
              "name": "seller",
              "type": "address"
            },
            {
              "internalType": "address payable",
              "name": "owner",
              "type": "address"
            },
            {
              "internalType": "address payable",
              "name": "publisher",
              "type": "address"
            },
            {
              "internalType": "address payable",
              "name": "publisherTwo",
              "type": "address"
            },
            {
              "internalType": "address",
              "name": "tokenAddress",
              "type": "address"
            },
            {
              "internalType": "uint256",
              "name": "price",
              "type": "uint256"
            },
            {
              "internalType": "uint256",
              "name": "royalty",
              "type": "uint256"
            },
            {
              "internalType": "bool",
              "name": "sold",
              "type": "bool"
            },
            {
              "internalType": "bool",
              "name": "bred",
              "type": "bool"
            }
          ],
          "internalType": "struct NFTMarketplaceStorage.MarketItem[]",
          "name": "",
          "type": "tuple[]"
        }
      ],
      "stateMutability": "view",
      "type": "function"
    },
    {
      "inputs": [
        {
          "internalType": "uint256",
          "name": "marketItemId",
          "type": "uint256"
        },
        {
          "internalType": "address",
          "name": "bidder",
          "type": "address"
        }
      ],
      "name": "getItemBid",
      "outputs": [
        {
          "internalType": "uint256",
          "name": "",
          "type": "uint256"
        }
      ],
      "stateMutability": "view",
      "type": "function"
    },
    {
      "inputs": [
        {
          "internalType": "uint256",
          "name": "marketItemId",
          "type": "uint256"
        }
      ],
      "name": "getItemBred",
      "outputs": [
        {
          "internalType": "bool",
          "name": "",
          "type": "bool"
        }
      ],
      "stateMutability": "view",
      "type": "function"
    },
    {
      "inputs": [
        {
          "internalType": "uint256",
          "name": "marketItemId",
          "type": "uint256"
        }
      ],
      "name": "getItemOwner",
      "outputs": [
        {
          "internalType": "address",
          "name": "",
          "type": "address"
        }
      ],
      "stateMutability": "view",
      "type": "function"
    },
    {
      "inputs": [
        {
          "internalType": "uint256",
          "name": "marketItemId",
          "type": "uint256"
        }
      ],
      "name": "getItemPrice",
      "outputs": [
        {
          "internalType": "uint256",
          "name": "",
          "type": "uint256"
        }
      ],
      "stateMutability": "view",
      "type": "function"
    },
    {
      "inputs": [
        {
          "internalType": "uint256",
          "name": "marketItemId",
          "type": "uint256"
        }
      ],
      "name": "getItemPublisherOne",
      "outputs": [
        {
          "internalType": "address",
          "name": "",
          "type": "address"
        }
      ],
      "stateMutability": "view",
      "type": "function"
    },
    {
      "inputs": [
        {
          "internalType": "uint256",
          "name": "marketItemId",
          "type": "uint256"
        }
      ],
      "name": "getItemPublisherTwo",
      "outputs": [
        {
          "internalType": "address",
          "name": "",
          "type": "address"
        }
      ],
      "stateMutability": "view",
      "type": "function"
    },
    {
      "inputs": [
        {
          "internalType": "uint256",
          "name": "marketItemId",
          "type": "uint256"
        }
      ],
      "name": "getItemRoyalty",
      "outputs": [
        {
          "internalType": "uint256",
          "name": "",
          "type": "uint256"
        }
      ],
      "stateMutability": "view",
      "type": "function"
    },
    {
      "inputs": [
        {
          "internalType": "uint256",
          "name": "marketItemId",
          "type": "uint256"
        }
      ],
      "name": "getItemSeller",
      "outputs": [
        {
          "internalType": "address",
          "name": "",
          "type": "address"
        }
      ],
      "stateMutability": "view",
      "type": "function"
    },
    {
      "inputs": [
        {
          "internalType": "uint256",
          "name": "marketItemId",
          "type": "uint256"
        }
      ],
      "name": "getItemTokenId",
      "outputs": [
        {
          "internalType": "uint256",
          "name": "",
          "type": "uint256"
        }
      ],
      "stateMutability": "view",
      "type": "function"
    },
    {
      "inputs": [],
      "name": "owner",
      "outputs": [
        {
          "internalType": "address",
          "name": "",
          "type": "address"
        }
      ],
      "stateMutability": "view",
      "type": "function"
    },
    {
      "inputs": [],
      "name": "renounceOwnership",
      "outputs": [],
      "stateMutability": "nonpayable",
      "type": "function"
    },
    {
      "inputs": [
        {
          "internalType": "address",
          "name": "bidder",
          "type": "address"
        },
        {
          "internalType": "uint256",
          "name": "bid",
          "type": "uint256"
        },
        {
          "internalType": "uint256",
          "name": "marketItemId",
          "type": "uint256"
        }
      ],
      "name": "setItemBid",
      "outputs": [],
      "stateMutability": "nonpayable",
      "type": "function"
    },
    {
      "inputs": [
        {
          "internalType": "uint256",
          "name": "tokenId",
          "type": "uint256"
        },
        {
          "internalType": "address",
          "name": "newOwner",
          "type": "address"
        },
        {
          "internalType": "uint256",
          "name": "price",
          "type": "uint256"
        }
      ],
      "name": "setMarketSale",
      "outputs": [],
      "stateMutability": "nonpayable",
      "type": "function"
    },
    {
      "inputs": [
        {
          "internalType": "address",
          "name": "creator",
          "type": "address"
        },
        {
          "internalType": "address",
          "name": "publisherOne",
          "type": "address"
        },
        {
          "internalType": "address",
          "name": "publisherTwo",
          "type": "address"
        },
        {
          "internalType": "uint256",
          "name": "price",
          "type": "uint256"
        },
        {
          "internalType": "uint256",
          "name": "bredRoyaltyValue",
          "type": "uint256"
        }
      ],
      "name": "storeBredItem",
      "outputs": [
        {
          "internalType": "uint256",
          "name": "",
          "type": "uint256"
        }
      ],
      "stateMutability": "nonpayable",
      "type": "function"
    },
    {
      "inputs": [
        {
          "internalType": "uint256",
          "name": "marketItemId",
          "type": "uint256"
        },
        {
          "internalType": "address",
          "name": "owner",
          "type": "address"
        }
      ],
      "name": "storeDelistData",
      "outputs": [],
      "stateMutability": "nonpayable",
      "type": "function"
    },
    {
      "inputs": [
        {
          "internalType": "address",
          "name": "signer",
          "type": "address"
        },
        {
          "internalType": "address",
          "name": "buyer",
          "type": "address"
        },
        {
          "internalType": "uint256",
          "name": "price",
          "type": "uint256"
        },
        {
          "internalType": "uint256",
          "name": "royaltyAmount",
          "type": "uint256"
        }
      ],
      "name": "storeLazyMintedItem",
      "outputs": [
        {
          "internalType": "uint256",
          "name": "",
          "type": "uint256"
        }
      ],
      "stateMutability": "nonpayable",
      "type": "function"
    },
    {
      "inputs": [
        {
          "internalType": "uint256",
          "name": "tokenId",
          "type": "uint256"
        },
        {
          "internalType": "address",
          "name": "seller",
          "type": "address"
        },
        {
          "internalType": "address",
          "name": "royaltyAddress",
          "type": "address"
        },
        {
          "internalType": "uint256",
          "name": "royaltyAmount",
          "type": "uint256"
        },
        {
          "internalType": "uint256",
          "name": "price",
          "type": "uint256"
        },
        {
          "internalType": "address",
          "name": "tokenAddress",
          "type": "address"
        }
      ],
      "name": "storeMarketItem",
      "outputs": [],
      "stateMutability": "nonpayable",
      "type": "function"
    },
    {
      "inputs": [
        {
          "internalType": "uint256",
          "name": "marketItemId",
          "type": "uint256"
        },
        {
          "internalType": "address",
          "name": "owner",
          "type": "address"
        },
        {
          "internalType": "uint256",
          "name": "price",
          "type": "uint256"
        }
      ],
      "name": "storeResellData",
      "outputs": [],
      "stateMutability": "nonpayable",
      "type": "function"
    },
    {
      "inputs": [
        {
          "internalType": "address",
          "name": "newOwner",
          "type": "address"
        }
      ],
      "name": "transferOwnership",
      "outputs": [],
      "stateMutability": "nonpayable",
      "type": "function"
    },
    {
      "inputs": [
        {
          "internalType": "address",
          "name": "bidder",
          "type": "address"
        },
        {
          "internalType": "uint256",
          "name": "marketItemId",
          "type": "uint256"
        }
      ],
      "name": "withdrawItemBid",
      "outputs": [],
      "stateMutability": "nonpayable",
      "type": "function"
    }
  ],
  "bytecode": "0x60806040523480156200001157600080fd5b506040516200376438038062003764833981810160405281019062000037919062000182565b620000576200004b6200009f60201b60201c565b620000a760201b60201c565b80600460006101000a81548173ffffffffffffffffffffffffffffffffffffffff021916908373ffffffffffffffffffffffffffffffffffffffff16021790555050620001fc565b600033905090565b60008060009054906101000a900473ffffffffffffffffffffffffffffffffffffffff169050816000806101000a81548173ffffffffffffffffffffffffffffffffffffffff021916908373ffffffffffffffffffffffffffffffffffffffff1602179055508173ffffffffffffffffffffffffffffffffffffffff168173ffffffffffffffffffffffffffffffffffffffff167f8be0079c531659141344cd1fd0a4f28419497f9722a3daafe3b4186f6b6457e060405160405180910390a35050565b6000815190506200017c81620001e2565b92915050565b6000602082840312156200019557600080fd5b6000620001a5848285016200016b565b91505092915050565b6000620001bb82620001c2565b9050919050565b600073ffffffffffffffffffffffffffffffffffffffff82169050919050565b620001ed81620001ae565b8114620001f957600080fd5b50565b613558806200020c6000396000f3fe608060405234801561001057600080fd5b50600436106101585760003560e01c80638da5cb5b116100c3578063be3791b81161007c578063be3791b8146103e9578063c74292b314610419578063cf41b05614610449578063dbd82b0314610479578063e8fc9caa146104a9578063f2fde38b146104d957610158565b80638da5cb5b14610303578063929151c6146103215780639e50d61a14610351578063a36a69821461036d578063a785c3901461039d578063a917f66f146103b957610158565b80633e14ba31116101155780633e14ba31146102315780634a090dbf1461024d5780634c4df8701461027d578063715018a6146102ad57806383073043146102b75780638a410b1a146102d357610158565b80630f08efe01461015d5780631d1440fd1461017b5780631e5ffb79146101ab578063202e3740146101c7578063249de752146101e5578063370ef45a14610201575b600080fd5b6101656104f5565b60405161017291906131ac565b60405180910390f35b61019560048036038101906101909190612d66565b610903565b6040516101a29190613104565b60405180910390f35b6101c560048036038101906101c09190612e7d565b610943565b005b6101cf610ac2565b6040516101dc91906131ac565b60405180910390f35b6101ff60048036038101906101fa9190612d17565b610f24565b005b61021b60048036038101906102169190612d66565b6110ec565b6040516102289190613269565b60405180910390f35b61024b60048036038101906102469190612db8565b61110c565b005b61026760048036038101906102629190612c78565b61126f565b6040516102749190613269565b60405180910390f35b61029760048036038101906102929190612d66565b6115f8565b6040516102a49190613269565b60405180910390f35b6102b5611618565b005b6102d160048036038101906102cc9190612e7d565b6116a0565b005b6102ed60048036038101906102e89190612bd8565b61181f565b6040516102fa91906131ac565b60405180910390f35b61030b611d80565b6040516103189190613104565b60405180910390f35b61033b60048036038101906103369190612d66565b611da9565b60405161034891906131ce565b60405180910390f35b61036b60048036038101906103669190612cdb565b611dd6565b005b61038760048036038101906103829190612d66565b611eac565b6040516103949190613269565b60405180910390f35b6103b760048036038101906103b29190612df4565b611ecc565b005b6103d360048036038101906103ce9190612d66565b612245565b6040516103e09190613104565b60405180910390f35b61040360048036038101906103fe9190612c01565b612285565b6040516104109190613269565b60405180910390f35b610433600480360381019061042e9190612db8565b612604565b6040516104409190613269565b60405180910390f35b610463600480360381019061045e9190612d66565b61265f565b6040516104709190613104565b60405180910390f35b610493600480360381019061048e9190612d66565b61269f565b6040516104a09190613104565b60405180910390f35b6104c360048036038101906104be9190612cdb565b6126df565b6040516104d091906131ce565b60405180910390f35b6104f360048036038101906104ee9190612bd8565b6127ce565b005b6060600061050360016128c6565b905061051761051260026128c6565b6128d4565b600061052360026128c6565b61052d60016128c6565b6105379190613324565b9050600080610544611d80565b905060008467ffffffffffffffff811115610588577f4e487b7100000000000000000000000000000000000000000000000000000000600052604160045260246000fd5b6040519080825280602002602001820160405280156105c157816020015b6105ae612ad4565b8152602001906001900390816105a65790505b50905060005b858110156108f7578273ffffffffffffffffffffffffffffffffffffffff16600660006001846105f791906132ce565b815260200190815260200160002060020160009054906101000a900473ffffffffffffffffffffffffffffffffffffffff1673ffffffffffffffffffffffffffffffffffffffff1614156108e457600060018261065491906132ce565b905061065f816128d4565b610668866128d4565b60006006600083815260200190815260200160002090508060405180610140016040529081600082015481526020016001820160009054906101000a900473ffffffffffffffffffffffffffffffffffffffff1673ffffffffffffffffffffffffffffffffffffffff1673ffffffffffffffffffffffffffffffffffffffff1681526020016002820160009054906101000a900473ffffffffffffffffffffffffffffffffffffffff1673ffffffffffffffffffffffffffffffffffffffff1673ffffffffffffffffffffffffffffffffffffffff1681526020016003820160009054906101000a900473ffffffffffffffffffffffffffffffffffffffff1673ffffffffffffffffffffffffffffffffffffffff1673ffffffffffffffffffffffffffffffffffffffff1681526020016004820160009054906101000a900473ffffffffffffffffffffffffffffffffffffffff1673ffffffffffffffffffffffffffffffffffffffff1673ffffffffffffffffffffffffffffffffffffffff1681526020016005820160009054906101000a900473ffffffffffffffffffffffffffffffffffffffff1673ffffffffffffffffffffffffffffffffffffffff1673ffffffffffffffffffffffffffffffffffffffff16815260200160068201548152602001600782015481526020016008820160009054906101000a900460ff161515151581526020016008820160019054906101000a900460ff1615151515815250508487815181106108c7577f4e487b7100000000000000000000000000000000000000000000000000000000600052603260045260246000fd5b60200260200101819052506001866108df91906132ce565b955050505b80806108ef906133b2565b9150506105c7565b50809550505050505090565b60006006600083815260200190815260200160002060020160009054906101000a900473ffffffffffffffffffffffffffffffffffffffff169050919050565b61094b61296d565b73ffffffffffffffffffffffffffffffffffffffff16610969611d80565b73ffffffffffffffffffffffffffffffffffffffff16146109bf576040517f08c379a00000000000000000000000000000000000000000000000000000000081526004016109b690613229565b60405180910390fd5b6109c96002612975565b816006600085815260200190815260200160002060020160006101000a81548173ffffffffffffffffffffffffffffffffffffffff021916908373ffffffffffffffffffffffffffffffffffffffff16021790555060016006600085815260200190815260200160002060080160006101000a81548160ff021916908315150217905550336006600085815260200190815260200160002060010160006101000a81548173ffffffffffffffffffffffffffffffffffffffff021916908373ffffffffffffffffffffffffffffffffffffffff160217905550806006600085815260200190815260200160002060060181905550505050565b60606000610ad060016128c6565b905060008060005b83811015610b79573373ffffffffffffffffffffffffffffffffffffffff1660066000600184610b0891906132ce565b815260200190815260200160002060020160009054906101000a900473ffffffffffffffffffffffffffffffffffffffff1673ffffffffffffffffffffffffffffffffffffffff161415610b6657600183610b6391906132ce565b92505b8080610b71906133b2565b915050610ad8565b5060008267ffffffffffffffff811115610bbc577f4e487b7100000000000000000000000000000000000000000000000000000000600052604160045260246000fd5b604051908082528060200260200182016040528015610bf557816020015b610be2612ad4565b815260200190600190039081610bda5790505b50905060005b84811015610f19573373ffffffffffffffffffffffffffffffffffffffff1660066000600184610c2b91906132ce565b815260200190815260200160002060020160009054906101000a900473ffffffffffffffffffffffffffffffffffffffff1673ffffffffffffffffffffffffffffffffffffffff161415610f06576000600182610c8891906132ce565b905060006006600083815260200190815260200160002090508060405180610140016040529081600082015481526020016001820160009054906101000a900473ffffffffffffffffffffffffffffffffffffffff1673ffffffffffffffffffffffffffffffffffffffff1673ffffffffffffffffffffffffffffffffffffffff1681526020016002820160009054906101000a900473ffffffffffffffffffffffffffffffffffffffff1673ffffffffffffffffffffffffffffffffffffffff1673ffffffffffffffffffffffffffffffffffffffff1681526020016003820160009054906101000a900473ffffffffffffffffffffffffffffffffffffffff1673ffffffffffffffffffffffffffffffffffffffff1673ffffffffffffffffffffffffffffffffffffffff1681526020016004820160009054906101000a900473ffffffffffffffffffffffffffffffffffffffff1673ffffffffffffffffffffffffffffffffffffffff1673ffffffffffffffffffffffffffffffffffffffff1681526020016005820160009054906101000a900473ffffffffffffffffffffffffffffffffffffffff1673ffffffffffffffffffffffffffffffffffffffff1673ffffffffffffffffffffffffffffffffffffffff16815260200160068201548152602001600782015481526020016008820160009054906101000a900460ff161515151581526020016008820160019054906101000a900460ff161515151581525050848681518110610ee9577f4e487b7100000000000000000000000000000000000000000000000000000000600052603260045260246000fd5b6020026020010181905250600185610f0191906132ce565b945050505b8080610f11906133b2565b915050610bfb565b508094505050505090565b610f2c61296d565b73ffffffffffffffffffffffffffffffffffffffff16610f4a611d80565b73ffffffffffffffffffffffffffffffffffffffff1614610fa0576040517f08c379a0000000000000000000000000000000000000000000000000000000008152600401610f9790613229565b60405180910390fd5b6000600460009054906101000a900473ffffffffffffffffffffffffffffffffffffffff169050828173ffffffffffffffffffffffffffffffffffffffff166370a08231336040518263ffffffff1660e01b81526004016110019190613104565b60206040518083038186803b15801561101957600080fd5b505afa15801561102d573d6000803e3d6000fd5b505050506040513d601f19601f820116820180604052508101906110519190612d8f565b11611091576040517f08c379a000000000000000000000000000000000000000000000000000000000815260040161108890613249565b60405180910390fd5b826005600084815260200190815260200160002060008673ffffffffffffffffffffffffffffffffffffffff1673ffffffffffffffffffffffffffffffffffffffff1681526020019081526020016000208190555050505050565b600060066000838152602001908152602001600020600001549050919050565b61111461296d565b73ffffffffffffffffffffffffffffffffffffffff16611132611d80565b73ffffffffffffffffffffffffffffffffffffffff1614611188576040517f08c379a000000000000000000000000000000000000000000000000000000000815260040161117f90613229565b60405180910390fd5b60016006600084815260200190815260200160002060080160006101000a81548160ff021916908315150217905550336006600084815260200190815260200160002060010160006101000a81548173ffffffffffffffffffffffffffffffffffffffff021916908373ffffffffffffffffffffffffffffffffffffffff160217905550806006600084815260200190815260200160002060020160006101000a81548173ffffffffffffffffffffffffffffffffffffffff021916908373ffffffffffffffffffffffffffffffffffffffff16021790555061126b6002612975565b5050565b600061127961296d565b73ffffffffffffffffffffffffffffffffffffffff16611297611d80565b73ffffffffffffffffffffffffffffffffffffffff16146112ed576040517f08c379a00000000000000000000000000000000000000000000000000000000081526004016112e490613229565b60405180910390fd5b6112f76001612975565b6113016002612975565b600061130d60016128c6565b90506040518061014001604052808281526020018773ffffffffffffffffffffffffffffffffffffffff1681526020018673ffffffffffffffffffffffffffffffffffffffff1681526020018773ffffffffffffffffffffffffffffffffffffffff1681526020018773ffffffffffffffffffffffffffffffffffffffff1681526020013373ffffffffffffffffffffffffffffffffffffffff16815260200185815260200184815260200160011515815260200160001515815250600660008381526020019081526020016000206000820151816000015560208201518160010160006101000a81548173ffffffffffffffffffffffffffffffffffffffff021916908373ffffffffffffffffffffffffffffffffffffffff16021790555060408201518160020160006101000a81548173ffffffffffffffffffffffffffffffffffffffff021916908373ffffffffffffffffffffffffffffffffffffffff16021790555060608201518160030160006101000a81548173ffffffffffffffffffffffffffffffffffffffff021916908373ffffffffffffffffffffffffffffffffffffffff16021790555060808201518160040160006101000a81548173ffffffffffffffffffffffffffffffffffffffff021916908373ffffffffffffffffffffffffffffffffffffffff16021790555060a08201518160050160006101000a81548173ffffffffffffffffffffffffffffffffffffffff021916908373ffffffffffffffffffffffffffffffffffffffff16021790555060c0820151816006015560e082015181600701556101008201518160080160006101000a81548160ff0219169083151502179055506101208201518160080160016101000a81548160ff021916908315150217905550905050807f862b935210c9bfb60f9133da3b3c9d525016de4b1d75c2682abb92fa96ea219d8787898a338a8a600160006040516115e49998979695949392919061311f565b60405180910390a280915050949350505050565b600060066000838152602001908152602001600020600601549050919050565b61162061296d565b73ffffffffffffffffffffffffffffffffffffffff1661163e611d80565b73ffffffffffffffffffffffffffffffffffffffff1614611694576040517f08c379a000000000000000000000000000000000000000000000000000000000815260040161168b90613229565b60405180910390fd5b61169e600061298b565b565b6116a861296d565b73ffffffffffffffffffffffffffffffffffffffff166116c6611d80565b73ffffffffffffffffffffffffffffffffffffffff161461171c576040517f08c379a000000000000000000000000000000000000000000000000000000000815260040161171390613229565b60405180910390fd5b60006006600085815260200190815260200160002060080160006101000a81548160ff021916908315150217905550806006600085815260200190815260200160002060060181905550816006600085815260200190815260200160002060010160006101000a81548173ffffffffffffffffffffffffffffffffffffffff021916908373ffffffffffffffffffffffffffffffffffffffff160217905550336006600085815260200190815260200160002060020160006101000a81548173ffffffffffffffffffffffffffffffffffffffff021916908373ffffffffffffffffffffffffffffffffffffffff16021790555061181a6002612a4f565b505050565b6060600061182d60016128c6565b9050600080600061183c611d80565b905060005b8481101561195a573373ffffffffffffffffffffffffffffffffffffffff166006600060018461187191906132ce565b815260200190815260200160002060010160009054906101000a900473ffffffffffffffffffffffffffffffffffffffff1673ffffffffffffffffffffffffffffffffffffffff16148061193257508173ffffffffffffffffffffffffffffffffffffffff16600660006001846118e891906132ce565b815260200190815260200160002060020160009054906101000a900473ffffffffffffffffffffffffffffffffffffffff1673ffffffffffffffffffffffffffffffffffffffff16145b156119475760018461194491906132ce565b93505b8080611952906133b2565b915050611841565b5060008367ffffffffffffffff81111561199d577f4e487b7100000000000000000000000000000000000000000000000000000000600052604160045260246000fd5b6040519080825280602002602001820160405280156119d657816020015b6119c3612ad4565b8152602001906001900390816119bb5790505b50905060005b85811015611d72573373ffffffffffffffffffffffffffffffffffffffff1660066000600184611a0c91906132ce565b815260200190815260200160002060010160009054906101000a900473ffffffffffffffffffffffffffffffffffffffff1673ffffffffffffffffffffffffffffffffffffffff161480611acd57508273ffffffffffffffffffffffffffffffffffffffff1660066000600184611a8391906132ce565b815260200190815260200160002060020160009054906101000a900473ffffffffffffffffffffffffffffffffffffffff1673ffffffffffffffffffffffffffffffffffffffff16145b15611d5f576000600182611ae191906132ce565b905060006006600083815260200190815260200160002090508060405180610140016040529081600082015481526020016001820160009054906101000a900473ffffffffffffffffffffffffffffffffffffffff1673ffffffffffffffffffffffffffffffffffffffff1673ffffffffffffffffffffffffffffffffffffffff1681526020016002820160009054906101000a900473ffffffffffffffffffffffffffffffffffffffff1673ffffffffffffffffffffffffffffffffffffffff1673ffffffffffffffffffffffffffffffffffffffff1681526020016003820160009054906101000a900473ffffffffffffffffffffffffffffffffffffffff1673ffffffffffffffffffffffffffffffffffffffff1673ffffffffffffffffffffffffffffffffffffffff1681526020016004820160009054906101000a900473ffffffffffffffffffffffffffffffffffffffff1673ffffffffffffffffffffffffffffffffffffffff1673ffffffffffffffffffffffffffffffffffffffff1681526020016005820160009054906101000a900473ffffffffffffffffffffffffffffffffffffffff1673ffffffffffffffffffffffffffffffffffffffff1673ffffffffffffffffffffffffffffffffffffffff16815260200160068201548152602001600782015481526020016008820160009054906101000a900460ff161515151581526020016008820160019054906101000a900460ff161515151581525050848781518110611d42577f4e487b7100000000000000000000000000000000000000000000000000000000600052603260045260246000fd5b6020026020010181905250600186611d5a91906132ce565b955050505b8080611d6a906133b2565b9150506119dc565b508095505050505050919050565b60008060009054906101000a900473ffffffffffffffffffffffffffffffffffffffff16905090565b60006006600083815260200190815260200160002060080160019054906101000a900460ff169050919050565b611dde61296d565b73ffffffffffffffffffffffffffffffffffffffff16611dfc611d80565b73ffffffffffffffffffffffffffffffffffffffff1614611e52576040517f08c379a0000000000000000000000000000000000000000000000000000000008152600401611e4990613229565b60405180910390fd5b60006005600083815260200190815260200160002060008473ffffffffffffffffffffffffffffffffffffffff1673ffffffffffffffffffffffffffffffffffffffff168152602001908152602001600020819055505050565b600060066000838152602001908152602001600020600701549050919050565b611ed461296d565b73ffffffffffffffffffffffffffffffffffffffff16611ef2611d80565b73ffffffffffffffffffffffffffffffffffffffff1614611f48576040517f08c379a0000000000000000000000000000000000000000000000000000000008152600401611f3f90613229565b60405180910390fd5b611f526001612975565b6000611f5e60016128c6565b90506040518061014001604052808281526020018773ffffffffffffffffffffffffffffffffffffffff1681526020013373ffffffffffffffffffffffffffffffffffffffff1681526020018673ffffffffffffffffffffffffffffffffffffffff1681526020018673ffffffffffffffffffffffffffffffffffffffff1681526020018373ffffffffffffffffffffffffffffffffffffffff16815260200184815260200185815260200160001515815260200160001515815250600660008381526020019081526020016000206000820151816000015560208201518160010160006101000a81548173ffffffffffffffffffffffffffffffffffffffff021916908373ffffffffffffffffffffffffffffffffffffffff16021790555060408201518160020160006101000a81548173ffffffffffffffffffffffffffffffffffffffff021916908373ffffffffffffffffffffffffffffffffffffffff16021790555060608201518160030160006101000a81548173ffffffffffffffffffffffffffffffffffffffff021916908373ffffffffffffffffffffffffffffffffffffffff16021790555060808201518160040160006101000a81548173ffffffffffffffffffffffffffffffffffffffff021916908373ffffffffffffffffffffffffffffffffffffffff16021790555060a08201518160050160006101000a81548173ffffffffffffffffffffffffffffffffffffffff021916908373ffffffffffffffffffffffffffffffffffffffff16021790555060c0820151816006015560e082015181600701556101008201518160080160006101000a81548160ff0219169083151502179055506101208201518160080160016101000a81548160ff021916908315150217905550905050807f862b935210c9bfb60f9133da3b3c9d525016de4b1d75c2682abb92fa96ea219d8733888987898b6000806040516122349998979695949392919061311f565b60405180910390a250505050505050565b60006006600083815260200190815260200160002060010160009054906101000a900473ffffffffffffffffffffffffffffffffffffffff169050919050565b600061228f61296d565b73ffffffffffffffffffffffffffffffffffffffff166122ad611d80565b73ffffffffffffffffffffffffffffffffffffffff1614612303576040517f08c379a00000000000000000000000000000000000000000000000000000000081526004016122fa90613229565b60405180910390fd5b61230d6001612975565b600061231960016128c6565b90506040518061014001604052808281526020018873ffffffffffffffffffffffffffffffffffffffff1681526020018873ffffffffffffffffffffffffffffffffffffffff1681526020018773ffffffffffffffffffffffffffffffffffffffff1681526020018673ffffffffffffffffffffffffffffffffffffffff1681526020013373ffffffffffffffffffffffffffffffffffffffff16815260200185815260200184815260200160011515815260200160011515815250600660008381526020019081526020016000206000820151816000015560208201518160010160006101000a81548173ffffffffffffffffffffffffffffffffffffffff021916908373ffffffffffffffffffffffffffffffffffffffff16021790555060408201518160020160006101000a81548173ffffffffffffffffffffffffffffffffffffffff021916908373ffffffffffffffffffffffffffffffffffffffff16021790555060608201518160030160006101000a81548173ffffffffffffffffffffffffffffffffffffffff021916908373ffffffffffffffffffffffffffffffffffffffff16021790555060808201518160040160006101000a81548173ffffffffffffffffffffffffffffffffffffffff021916908373ffffffffffffffffffffffffffffffffffffffff16021790555060a08201518160050160006101000a81548173ffffffffffffffffffffffffffffffffffffffff021916908373ffffffffffffffffffffffffffffffffffffffff16021790555060c0820151816006015560e082015181600701556101008201518160080160006101000a81548160ff0219169083151502179055506101208201518160080160016101000a81548160ff021916908315150217905550905050807f862b935210c9bfb60f9133da3b3c9d525016de4b1d75c2682abb92fa96ea219d88898989338a8a6001806040516125ef9998979695949392919061311f565b60405180910390a28091505095945050505050565b60006005600084815260200190815260200160002060008373ffffffffffffffffffffffffffffffffffffffff1673ffffffffffffffffffffffffffffffffffffffff16815260200190815260200160002054905092915050565b60006006600083815260200190815260200160002060030160009054906101000a900473ffffffffffffffffffffffffffffffffffffffff169050919050565b60006006600083815260200190815260200160002060040160009054906101000a900473ffffffffffffffffffffffffffffffffffffffff169050919050565b6000806126ec60016128c6565b905060008060005b838110156127bf57856006600060018461270e91906132ce565b81526020019081526020016000206000015414801561279a57508673ffffffffffffffffffffffffffffffffffffffff166006600060018461275091906132ce565b815260200190815260200160002060050160009054906101000a900473ffffffffffffffffffffffffffffffffffffffff1673ffffffffffffffffffffffffffffffffffffffff16145b156127ac5760019450505050506127c8565b80806127b7906133b2565b9150506126f4565b50600093505050505b92915050565b6127d661296d565b73ffffffffffffffffffffffffffffffffffffffff166127f4611d80565b73ffffffffffffffffffffffffffffffffffffffff161461284a576040517f08c379a000000000000000000000000000000000000000000000000000000000815260040161284190613229565b60405180910390fd5b600073ffffffffffffffffffffffffffffffffffffffff168173ffffffffffffffffffffffffffffffffffffffff1614156128ba576040517f08c379a00000000000000000000000000000000000000000000000000000000081526004016128b190613209565b60405180910390fd5b6128c38161298b565b50565b600081600001549050919050565b61296a816040516024016128e89190613269565b6040516020818303038152906040527ff5b1bba9000000000000000000000000000000000000000000000000000000007bffffffffffffffffffffffffffffffffffffffffffffffffffffffff19166020820180517bffffffffffffffffffffffffffffffffffffffffffffffffffffffff8381831617835250505050612aab565b50565b600033905090565b6001816000016000828254019250508190555050565b60008060009054906101000a900473ffffffffffffffffffffffffffffffffffffffff169050816000806101000a81548173ffffffffffffffffffffffffffffffffffffffff021916908373ffffffffffffffffffffffffffffffffffffffff1602179055508173ffffffffffffffffffffffffffffffffffffffff168173ffffffffffffffffffffffffffffffffffffffff167f8be0079c531659141344cd1fd0a4f28419497f9722a3daafe3b4186f6b6457e060405160405180910390a35050565b60008160000154905060008111612a9b576040517f08c379a0000000000000000000000000000000000000000000000000000000008152600401612a92906131e9565b60405180910390fd5b6001810382600001819055505050565b60008151905060006a636f6e736f6c652e6c6f679050602083016000808483855afa5050505050565b60405180610140016040528060008152602001600073ffffffffffffffffffffffffffffffffffffffff168152602001600073ffffffffffffffffffffffffffffffffffffffff168152602001600073ffffffffffffffffffffffffffffffffffffffff168152602001600073ffffffffffffffffffffffffffffffffffffffff168152602001600073ffffffffffffffffffffffffffffffffffffffff16815260200160008152602001600081526020016000151581526020016000151581525090565b600081359050612ba8816134f4565b92915050565b600081359050612bbd8161350b565b92915050565b600081519050612bd28161350b565b92915050565b600060208284031215612bea57600080fd5b6000612bf884828501612b99565b91505092915050565b600080600080600060a08688031215612c1957600080fd5b6000612c2788828901612b99565b9550506020612c3888828901612b99565b9450506040612c4988828901612b99565b9350506060612c5a88828901612bae565b9250506080612c6b88828901612bae565b9150509295509295909350565b60008060008060808587031215612c8e57600080fd5b6000612c9c87828801612b99565b9450506020612cad87828801612b99565b9350506040612cbe87828801612bae565b9250506060612ccf87828801612bae565b91505092959194509250565b60008060408385031215612cee57600080fd5b6000612cfc85828601612b99565b9250506020612d0d85828601612bae565b9150509250929050565b600080600060608486031215612d2c57600080fd5b6000612d3a86828701612b99565b9350506020612d4b86828701612bae565b9250506040612d5c86828701612bae565b9150509250925092565b600060208284031215612d7857600080fd5b6000612d8684828501612bae565b91505092915050565b600060208284031215612da157600080fd5b6000612daf84828501612bc3565b91505092915050565b60008060408385031215612dcb57600080fd5b6000612dd985828601612bae565b9250506020612dea85828601612b99565b9150509250929050565b60008060008060008060c08789031215612e0d57600080fd5b6000612e1b89828a01612bae565b9650506020612e2c89828a01612b99565b9550506040612e3d89828a01612b99565b9450506060612e4e89828a01612bae565b9350506080612e5f89828a01612bae565b92505060a0612e7089828a01612b99565b9150509295509295509295565b600080600060608486031215612e9257600080fd5b6000612ea086828701612bae565b9350506020612eb186828701612b99565b9250506040612ec286828701612bae565b9150509250925092565b6000612ed8838361301a565b6101408301905092915050565b612eee8161336a565b82525050565b612efd81613358565b82525050565b612f0c81613358565b82525050565b6000612f1d82613294565b612f2781856132ac565b9350612f3283613284565b8060005b83811015612f63578151612f4a8882612ecc565b9750612f558361329f565b925050600181019050612f36565b5085935050505092915050565b612f798161337c565b82525050565b612f888161337c565b82525050565b6000612f9b601b836132bd565b9150612fa68261342a565b602082019050919050565b6000612fbe6026836132bd565b9150612fc982613453565b604082019050919050565b6000612fe16020836132bd565b9150612fec826134a2565b602082019050919050565b6000613004601a836132bd565b915061300f826134cb565b602082019050919050565b6101408201600082015161303160008501826130e6565b5060208201516130446020850182612ee5565b5060408201516130576040850182612ee5565b50606082015161306a6060850182612ee5565b50608082015161307d6080850182612ee5565b5060a082015161309060a0850182612ef4565b5060c08201516130a360c08501826130e6565b5060e08201516130b660e08501826130e6565b506101008201516130cb610100850182612f70565b506101208201516130e0610120850182612f70565b50505050565b6130ef816133a8565b82525050565b6130fe816133a8565b82525050565b60006020820190506131196000830184612f03565b92915050565b600061012082019050613135600083018c612f03565b613142602083018b612f03565b61314f604083018a612f03565b61315c6060830189612f03565b6131696080830188612f03565b61317660a08301876130f5565b61318360c08301866130f5565b61319060e0830185612f7f565b61319e610100830184612f7f565b9a9950505050505050505050565b600060208201905081810360008301526131c68184612f12565b905092915050565b60006020820190506131e36000830184612f7f565b92915050565b6000602082019050818103600083015261320281612f8e565b9050919050565b6000602082019050818103600083015261322281612fb1565b9050919050565b6000602082019050818103600083015261324281612fd4565b9050919050565b6000602082019050818103600083015261326281612ff7565b9050919050565b600060208201905061327e60008301846130f5565b92915050565b6000819050602082019050919050565b600081519050919050565b6000602082019050919050565b600082825260208201905092915050565b600082825260208201905092915050565b60006132d9826133a8565b91506132e4836133a8565b9250827fffffffffffffffffffffffffffffffffffffffffffffffffffffffffffffffff03821115613319576133186133fb565b5b828201905092915050565b600061332f826133a8565b915061333a836133a8565b92508282101561334d5761334c6133fb565b5b828203905092915050565b600061336382613388565b9050919050565b600061337582613388565b9050919050565b60008115159050919050565b600073ffffffffffffffffffffffffffffffffffffffff82169050919050565b6000819050919050565b60006133bd826133a8565b91507fffffffffffffffffffffffffffffffffffffffffffffffffffffffffffffffff8214156133f0576133ef6133fb565b5b600182019050919050565b7f4e487b7100000000000000000000000000000000000000000000000000000000600052601160045260246000fd5b7f436f756e7465723a2064656372656d656e74206f766572666c6f770000000000600082015250565b7f4f776e61626c653a206e6577206f776e657220697320746865207a65726f206160008201527f6464726573730000000000000000000000000000000000000000000000000000602082015250565b7f4f776e61626c653a2063616c6c6572206973206e6f7420746865206f776e6572600082015250565b7f596f7520646f6e2774206861766520656e6f7567682057455448000000000000600082015250565b6134fd81613358565b811461350857600080fd5b50565b613514816133a8565b811461351f57600080fd5b5056fea26469706673582212205f6742c7fe5cd8d57a274c9eef8a42623a7cc95b2affeb3e513bb356ea57b01064736f6c63430008040033",
  "linkReferences": {},
  "deployedLinkReferences": {}
}