{
  "_format": "hh-sol-artifact-1",
  "contractName": "NFTMarketplace",
  "sourceName": "contracts/NFTMarketplace.sol",
  "abi": [
    {
      "inputs": [
        {
          "internalType": "address",
          "name": "NFTStorage",
          "type": "address"
        },
        {
          "internalType": "address",
          "name": "_WETH",
          "type": "address"
        }
      ],
      "stateMutability": "nonpayable",
      "type": "constructor"
    },
    {
      "anonymous": false,
      "inputs": [
        {
          "indexed": true,
          "internalType": "address",
          "name": "owner",
          "type": "address"
        },
        {
          "indexed": true,
          "internalType": "address",
          "name": "approved",
          "type": "address"
        },
        {
          "indexed": true,
          "internalType": "uint256",
          "name": "tokenId",
          "type": "uint256"
        }
      ],
      "name": "Approval",
      "type": "event"
    },
    {
      "anonymous": false,
      "inputs": [
        {
          "indexed": true,
          "internalType": "address",
          "name": "owner",
          "type": "address"
        },
        {
          "indexed": true,
          "internalType": "address",
          "name": "operator",
          "type": "address"
        },
        {
          "indexed": false,
          "internalType": "bool",
          "name": "approved",
          "type": "bool"
        }
      ],
      "name": "ApprovalForAll",
      "type": "event"
    },
    {
      "anonymous": false,
      "inputs": [
        {
          "indexed": true,
          "internalType": "address",
          "name": "from",
          "type": "address"
        },
        {
          "indexed": true,
          "internalType": "address",
          "name": "to",
          "type": "address"
        },
        {
          "indexed": true,
          "internalType": "uint256",
          "name": "tokenId",
          "type": "uint256"
        }
      ],
      "name": "Transfer",
      "type": "event"
    },
    {
      "anonymous": false,
      "inputs": [
        {
          "indexed": false,
          "internalType": "address",
          "name": "",
          "type": "address"
        },
        {
          "indexed": false,
          "internalType": "uint256",
          "name": "",
          "type": "uint256"
        }
      ],
      "name": "received",
      "type": "event"
    },
    {
      "inputs": [],
      "name": "SIGNER_ROLE",
      "outputs": [
        {
          "internalType": "bytes32",
          "name": "",
          "type": "bytes32"
        }
      ],
      "stateMutability": "view",
      "type": "function"
    },
    {
      "inputs": [
        {
          "internalType": "address",
          "name": "to",
          "type": "address"
        },
        {
          "internalType": "uint256",
          "name": "tokenId",
          "type": "uint256"
        }
      ],
      "name": "approve",
      "outputs": [],
      "stateMutability": "nonpayable",
      "type": "function"
    },
    {
      "inputs": [
        {
          "internalType": "address",
          "name": "owner",
          "type": "address"
        }
      ],
      "name": "balanceOf",
      "outputs": [
        {
          "internalType": "uint256",
          "name": "",
          "type": "uint256"
        }
      ],
      "stateMutability": "view",
      "type": "function"
    },
    {
      "inputs": [
        {
          "internalType": "uint256",
          "name": "tokenIdOne",
          "type": "uint256"
        },
        {
          "internalType": "address",
          "name": "tokenIdOneContract",
          "type": "address"
        },
        {
          "internalType": "uint256",
          "name": "tokenIdTwo",
          "type": "uint256"
        },
        {
          "internalType": "address",
          "name": "tokenIdTwoContract",
          "type": "address"
        },
        {
          "internalType": "string",
          "name": "bredTokenUri",
          "type": "string"
        }
      ],
      "name": "createBredToken",
      "outputs": [
        {
          "internalType": "uint256",
          "name": "",
          "type": "uint256"
        }
      ],
      "stateMutability": "payable",
      "type": "function"
    },
    {
      "inputs": [
        {
          "internalType": "uint256",
          "name": "marketItemId",
          "type": "uint256"
        }
      ],
      "name": "createMarketSale",
      "outputs": [],
      "stateMutability": "payable",
      "type": "function"
    },
    {
      "inputs": [
        {
          "internalType": "address",
          "name": "galleryAddress",
          "type": "address"
        },
        {
          "internalType": "string",
          "name": "tokenUri",
          "type": "string"
        },
        {
          "internalType": "uint256",
          "name": "price",
          "type": "uint256"
        },
        {
          "internalType": "uint96",
          "name": "royaltyValue",
          "type": "uint96"
        },
        {
          "internalType": "address",
          "name": "signer",
          "type": "address"
        },
        {
          "internalType": "address",
          "name": "buyer",
          "type": "address"
        }
      ],
      "name": "createOwnedTokenFromLazy",
      "outputs": [],
      "stateMutability": "payable",
      "type": "function"
    },
    {
      "inputs": [
        {
          "internalType": "uint256",
          "name": "marketItemId",
          "type": "uint256"
        }
      ],
      "name": "delistToken",
      "outputs": [],
      "stateMutability": "payable",
      "type": "function"
    },
    {
      "inputs": [
        {
          "internalType": "uint256",
          "name": "tokenId",
          "type": "uint256"
        }
      ],
      "name": "getApproved",
      "outputs": [
        {
          "internalType": "address",
          "name": "",
          "type": "address"
        }
      ],
      "stateMutability": "view",
      "type": "function"
    },
    {
      "inputs": [
        {
          "internalType": "address",
          "name": "owner",
          "type": "address"
        },
        {
          "internalType": "address",
          "name": "operator",
          "type": "address"
        }
      ],
      "name": "isApprovedForAll",
      "outputs": [
        {
          "internalType": "bool",
          "name": "",
          "type": "bool"
        }
      ],
      "stateMutability": "view",
      "type": "function"
    },
    {
      "inputs": [],
      "name": "name",
      "outputs": [
        {
          "internalType": "string",
          "name": "",
          "type": "string"
        }
      ],
      "stateMutability": "view",
      "type": "function"
    },
    {
      "inputs": [
        {
          "internalType": "uint256",
          "name": "tokenId",
          "type": "uint256"
        }
      ],
      "name": "ownerOf",
      "outputs": [
        {
          "internalType": "address",
          "name": "",
          "type": "address"
        }
      ],
      "stateMutability": "view",
      "type": "function"
    },
    {
      "inputs": [
        {
          "internalType": "uint256",
          "name": "tokenId",
          "type": "uint256"
        },
        {
          "internalType": "uint256",
          "name": "price",
          "type": "uint256"
        },
        {
          "internalType": "address",
          "name": "nftContract",
          "type": "address"
        }
      ],
      "name": "resellToken",
      "outputs": [],
      "stateMutability": "payable",
      "type": "function"
    },
    {
      "inputs": [
        {
          "internalType": "uint256",
          "name": "_tokenId",
          "type": "uint256"
        },
        {
          "internalType": "uint256",
          "name": "_salePrice",
          "type": "uint256"
        }
      ],
      "name": "royaltyInfo",
      "outputs": [
        {
          "internalType": "address",
          "name": "",
          "type": "address"
        },
        {
          "internalType": "uint256",
          "name": "",
          "type": "uint256"
        }
      ],
      "stateMutability": "view",
      "type": "function"
    },
    {
      "inputs": [
        {
          "internalType": "address",
          "name": "from",
          "type": "address"
        },
        {
          "internalType": "address",
          "name": "to",
          "type": "address"
        },
        {
          "internalType": "uint256",
          "name": "tokenId",
          "type": "uint256"
        }
      ],
      "name": "safeTransferFrom",
      "outputs": [],
      "stateMutability": "nonpayable",
      "type": "function"
    },
    {
      "inputs": [
        {
          "internalType": "address",
          "name": "from",
          "type": "address"
        },
        {
          "internalType": "address",
          "name": "to",
          "type": "address"
        },
        {
          "internalType": "uint256",
          "name": "tokenId",
          "type": "uint256"
        },
        {
          "internalType": "bytes",
          "name": "_data",
          "type": "bytes"
        }
      ],
      "name": "safeTransferFrom",
      "outputs": [],
      "stateMutability": "nonpayable",
      "type": "function"
    },
    {
      "inputs": [
        {
          "internalType": "address",
          "name": "operator",
          "type": "address"
        },
        {
          "internalType": "bool",
          "name": "approved",
          "type": "bool"
        }
      ],
      "name": "setApprovalForAll",
      "outputs": [],
      "stateMutability": "nonpayable",
      "type": "function"
    },
    {
      "inputs": [
        {
          "internalType": "address",
          "name": "nftyLazyFactory",
          "type": "address"
        }
      ],
      "name": "setSignerRole",
      "outputs": [],
      "stateMutability": "nonpayable",
      "type": "function"
    },
    {
      "inputs": [
        {
          "internalType": "bytes4",
          "name": "interfaceId",
          "type": "bytes4"
        }
      ],
      "name": "supportsInterface",
      "outputs": [
        {
          "internalType": "bool",
          "name": "",
          "type": "bool"
        }
      ],
      "stateMutability": "view",
      "type": "function"
    },
    {
      "inputs": [],
      "name": "symbol",
      "outputs": [
        {
          "internalType": "string",
          "name": "",
          "type": "string"
        }
      ],
      "stateMutability": "view",
      "type": "function"
    },
    {
      "inputs": [
        {
          "internalType": "uint256",
          "name": "tokenId",
          "type": "uint256"
        }
      ],
      "name": "tokenURI",
      "outputs": [
        {
          "internalType": "string",
          "name": "",
          "type": "string"
        }
      ],
      "stateMutability": "view",
      "type": "function"
    },
    {
      "inputs": [
        {
          "internalType": "address",
          "name": "from",
          "type": "address"
        },
        {
          "internalType": "address",
          "name": "to",
          "type": "address"
        },
        {
          "internalType": "uint256",
          "name": "tokenId",
          "type": "uint256"
        }
      ],
      "name": "transferFrom",
      "outputs": [],
      "stateMutability": "nonpayable",
      "type": "function"
    },
    {
      "stateMutability": "payable",
      "type": "receive"
    }
  ],
  "bytecode": "0x60806040526005600a553480156200001657600080fd5b5060405162005df938038062005df983398181016040528101906200003c919062000276565b6040518060400160405280601081526020017f4e66747954756e657320546f6b656e73000000000000000000000000000000008152506040518060400160405280600481526020017f4e465459000000000000000000000000000000000000000000000000000000008152508160009080519060200190620000c0929190620001af565b508060019080519060200190620000d9929190620001af565b505050600160078190555033600b60006101000a81548173ffffffffffffffffffffffffffffffffffffffff021916908373ffffffffffffffffffffffffffffffffffffffff16021790555081600c60006101000a81548173ffffffffffffffffffffffffffffffffffffffff021916908373ffffffffffffffffffffffffffffffffffffffff16021790555080600d60006101000a81548173ffffffffffffffffffffffffffffffffffffffff021916908373ffffffffffffffffffffffffffffffffffffffff16021790555050506200036a565b828054620001bd90620002eb565b90600052602060002090601f016020900481019282620001e157600085556200022d565b82601f10620001fc57805160ff19168380011785556200022d565b828001600101855582156200022d579182015b828111156200022c5782518255916020019190600101906200020f565b5b5090506200023c919062000240565b5090565b5b808211156200025b57600081600090555060010162000241565b5090565b600081519050620002708162000350565b92915050565b600080604083850312156200028a57600080fd5b60006200029a858286016200025f565b9250506020620002ad858286016200025f565b9150509250929050565b6000620002c482620002cb565b9050919050565b600073ffffffffffffffffffffffffffffffffffffffff82169050919050565b600060028204905060018216806200030457607f821691505b602082108114156200031b576200031a62000321565b5b50919050565b7f4e487b7100000000000000000000000000000000000000000000000000000000600052602260045260246000fd5b6200035b81620002b7565b81146200036757600080fd5b50565b615a7f806200037a6000396000f3fe60806040526004361061012e5760003560e01c806395d89b41116100ab578063be9af5361161006f578063be9af5361461044c578063bed659bc14610468578063c87b56dd14610484578063dd10a2b8146104c1578063e985e9c5146104dd578063effaa4a91461051a5761016e565b806395d89b411461037b57806398f25289146103a6578063a1ebf35d146103cf578063a22cb465146103fa578063b88d4fde146104235761016e565b80632a55205a116100f25780632a55205a1461026a57806342842e0e146102a85780636352211e146102d1578063692461801461030e57806370a082311461033e5761016e565b806301ffc9a71461017357806306fdde03146101b0578063081812fc146101db578063095ea7b31461021857806323b872dd146102415761016e565b3661016e577ff11e547d796cc64acdf758e7cee90439494fd886a19159454aa61e473fdbafef33346040516101649291906147b9565b60405180910390a1005b600080fd5b34801561017f57600080fd5b5061019a60048036038101906101959190613fde565b610536565b6040516101a791906147e2565b60405180910390f35b3480156101bc57600080fd5b506101c5610548565b6040516101d29190614841565b60405180910390f35b3480156101e757600080fd5b5061020260048036038101906101fd9190614030565b6105da565b60405161020f9190614691565b60405180910390f35b34801561022457600080fd5b5061023f600480360381019061023a9190613f3d565b61065f565b005b34801561024d57600080fd5b5061026860048036038101906102639190613d96565b610777565b005b34801561027657600080fd5b50610291600480360381019061028c9190614111565b6107d7565b60405161029f9291906147b9565b60405180910390f35b3480156102b457600080fd5b506102cf60048036038101906102ca9190613d96565b6109c2565b005b3480156102dd57600080fd5b506102f860048036038101906102f39190614030565b6109e2565b6040516103059190614691565b60405180910390f35b61032860048036038101906103239190614082565b610a94565b6040516103359190614be3565b60405180910390f35b34801561034a57600080fd5b5061036560048036038101906103609190613d08565b611430565b6040516103729190614be3565b60405180910390f35b34801561038757600080fd5b506103906114e8565b60405161039d9190614841565b60405180910390f35b3480156103b257600080fd5b506103cd60048036038101906103c89190613d08565b61157a565b005b3480156103db57600080fd5b506103e461160a565b6040516103f191906147fd565b60405180910390f35b34801561040657600080fd5b50610421600480360381019061041c9190613e60565b61162e565b005b34801561042f57600080fd5b5061044a60048036038101906104459190613de5565b611644565b005b61046660048036038101906104619190614030565b6116a6565b005b610482600480360381019061047d9190614030565b61203a565b005b34801561049057600080fd5b506104ab60048036038101906104a69190614030565b6122bd565b6040516104b89190614841565b60405180910390f35b6104db60048036038101906104d6919061414d565b61240f565b005b3480156104e957600080fd5b5061050460048036038101906104ff9190613d5a565b612860565b60405161051191906147e2565b60405180910390f35b610534600480360381019061052f9190613e9c565b6128f4565b005b600061054182612aa8565b9050919050565b60606000805461055790615092565b80601f016020809104026020016040519081016040528092919081815260200182805461058390615092565b80156105d05780601f106105a5576101008083540402835291602001916105d0565b820191906000526020600020905b8154815290600101906020018083116105b357829003601f168201915b5050505050905090565b60006105e582612b22565b610624576040517f08c379a000000000000000000000000000000000000000000000000000000000815260040161061b90614a83565b60405180910390fd5b6004600083815260200190815260200160002060009054906101000a900473ffffffffffffffffffffffffffffffffffffffff169050919050565b600061066a826109e2565b90508073ffffffffffffffffffffffffffffffffffffffff168373ffffffffffffffffffffffffffffffffffffffff1614156106db576040517f08c379a00000000000000000000000000000000000000000000000000000000081526004016106d290614ae3565b60405180910390fd5b8073ffffffffffffffffffffffffffffffffffffffff166106fa612b8e565b73ffffffffffffffffffffffffffffffffffffffff161480610729575061072881610723612b8e565b612860565b5b610768576040517f08c379a000000000000000000000000000000000000000000000000000000000815260040161075f90614963565b60405180910390fd5b6107728383612b96565b505050565b610788610782612b8e565b82612c4f565b6107c7576040517f08c379a00000000000000000000000000000000000000000000000000000000081526004016107be90614b23565b60405180910390fd5b6107d2838383612d2d565b505050565b6000806000600960008681526020019081526020016000206040518060400160405290816000820160009054906101000a900473ffffffffffffffffffffffffffffffffffffffff1673ffffffffffffffffffffffffffffffffffffffff1673ffffffffffffffffffffffffffffffffffffffff1681526020016000820160149054906101000a90046bffffffffffffffffffffffff166bffffffffffffffffffffffff166bffffffffffffffffffffffff16815250509050600073ffffffffffffffffffffffffffffffffffffffff16816000015173ffffffffffffffffffffffffffffffffffffffff16141561096d5760086040518060400160405290816000820160009054906101000a900473ffffffffffffffffffffffffffffffffffffffff1673ffffffffffffffffffffffffffffffffffffffff1673ffffffffffffffffffffffffffffffffffffffff1681526020016000820160149054906101000a90046bffffffffffffffffffffffff166bffffffffffffffffffffffff166bffffffffffffffffffffffff168152505090505b6000610977612f94565b6bffffffffffffffffffffffff1682602001516bffffffffffffffffffffffff16866109a39190614f08565b6109ad9190614ed7565b90508160000151819350935050509250929050565b6109dd83838360405180602001604052806000815250611644565b505050565b6000806002600084815260200190815260200160002060009054906101000a900473ffffffffffffffffffffffffffffffffffffffff169050600073ffffffffffffffffffffffffffffffffffffffff168173ffffffffffffffffffffffffffffffffffffffff161415610a8b576040517f08c379a0000000000000000000000000000000000000000000000000000000008152600401610a82906149c3565b60405180910390fd5b80915050919050565b60003373ffffffffffffffffffffffffffffffffffffffff168573ffffffffffffffffffffffffffffffffffffffff16636352211e886040518263ffffffff1660e01b8152600401610ae69190614be3565b60206040518083038186803b158015610afe57600080fd5b505afa158015610b12573d6000803e3d6000fd5b505050506040513d601f19601f82011682018060405250810190610b369190613d31565b73ffffffffffffffffffffffffffffffffffffffff1614610b8c576040517f08c379a0000000000000000000000000000000000000000000000000000000008152600401610b8390614b03565b60405180910390fd5b3373ffffffffffffffffffffffffffffffffffffffff168373ffffffffffffffffffffffffffffffffffffffff16636352211e866040518263ffffffff1660e01b8152600401610bdc9190614be3565b60206040518083038186803b158015610bf457600080fd5b505afa158015610c08573d6000803e3d6000fd5b505050506040513d601f19601f82011682018060405250810190610c2c9190613d31565b73ffffffffffffffffffffffffffffffffffffffff1614610c82576040517f08c379a0000000000000000000000000000000000000000000000000000000008152600401610c7990614aa3565b60405180910390fd5b6000808673ffffffffffffffffffffffffffffffffffffffff16632a55205a89670de0b6b3a76400006040518363ffffffff1660e01b8152600401610cc8929190614d12565b604080518083038186803b158015610cdf57600080fd5b505afa158015610cf3573d6000803e3d6000fd5b505050506040513d601f19601f82011682018060405250810190610d179190613f79565b915091506000808673ffffffffffffffffffffffffffffffffffffffff16632a55205a89670de0b6b3a76400006040518363ffffffff1660e01b8152600401610d61929190614d12565b604080518083038186803b158015610d7857600080fd5b505afa158015610d8c573d6000803e3d6000fd5b505050506040513d601f19601f82011682018060405250810190610db09190613f79565b915091506000600c60009054906101000a900473ffffffffffffffffffffffffffffffffffffffff1690508073ffffffffffffffffffffffffffffffffffffffff1663e8fc9caa8b8d6040518363ffffffff1660e01b8152600401610e169291906147b9565b60206040518083038186803b158015610e2e57600080fd5b505afa158015610e42573d6000803e3d6000fd5b505050506040513d601f19601f82011682018060405250810190610e669190613fb5565b15610f6d5760008173ffffffffffffffffffffffffffffffffffffffff16638f4e9cbb8c8e6040518363ffffffff1660e01b8152600401610ea89291906147b9565b60206040518083038186803b158015610ec057600080fd5b505afa158015610ed4573d6000803e3d6000fd5b505050506040513d601f19601f82011682018060405250810190610ef89190614059565b90508173ffffffffffffffffffffffffffffffffffffffff16639034bb2082336040518363ffffffff1660e01b8152600401610f35929190614bfe565b600060405180830381600087803b158015610f4f57600080fd5b505af1158015610f63573d6000803e3d6000fd5b5050505050610fe1565b8073ffffffffffffffffffffffffffffffffffffffff16639885a0618c3388888f6040518663ffffffff1660e01b8152600401610fae959493929190614c27565b600060405180830381600087803b158015610fc857600080fd5b505af1158015610fdc573d6000803e3d6000fd5b505050505b8073ffffffffffffffffffffffffffffffffffffffff1663e8fc9caa898b6040518363ffffffff1660e01b815260040161101c9291906147b9565b60206040518083038186803b15801561103457600080fd5b505afa158015611048573d6000803e3d6000fd5b505050506040513d601f19601f8201168201806040525081019061106c9190613fb5565b156111735760008173ffffffffffffffffffffffffffffffffffffffff16638f4e9cbb8a8c6040518363ffffffff1660e01b81526004016110ae9291906147b9565b60206040518083038186803b1580156110c657600080fd5b505afa1580156110da573d6000803e3d6000fd5b505050506040513d601f19601f820116820180604052508101906110fe9190614059565b90508173ffffffffffffffffffffffffffffffffffffffff16639034bb2082336040518363ffffffff1660e01b815260040161113b929190614bfe565b600060405180830381600087803b15801561115557600080fd5b505af1158015611169573d6000803e3d6000fd5b50505050506111e7565b8073ffffffffffffffffffffffffffffffffffffffff16639885a0618a3386868d6040518663ffffffff1660e01b81526004016111b4959493929190614c27565b600060405180830381600087803b1580156111ce57600080fd5b505af11580156111e2573d6000803e3d6000fd5b505050505b8973ffffffffffffffffffffffffffffffffffffffff166323b872dd33308e6040518463ffffffff1660e01b8152600401611224939291906146f1565b600060405180830381600087803b15801561123e57600080fd5b505af1158015611252573d6000803e3d6000fd5b505050508973ffffffffffffffffffffffffffffffffffffffff166323b872dd33308c6040518463ffffffff1660e01b8152600401611293939291906146f1565b600060405180830381600087803b1580156112ad57600080fd5b505af11580156112c1573d6000803e3d6000fd5b5050505060008173ffffffffffffffffffffffffffffffffffffffff16636c74cac43388876002670de0b6b3a7640000896112fc9190614f08565b670de0b6b3a76400008c6113109190614f08565b61131a9190614e81565b6113249190614ed7565b6040518563ffffffff1660e01b815260040161134394939291906146ac565b602060405180830381600087803b15801561135d57600080fd5b505af1158015611371573d6000803e3d6000fd5b505050506040513d601f19601f820116820180604052508101906113959190614059565b90508173ffffffffffffffffffffffffffffffffffffffff166389fa42088d8c8e8d866040518663ffffffff1660e01b81526004016113d8959493929190614d64565b600060405180830381600087803b1580156113f257600080fd5b505af1158015611406573d6000803e3d6000fd5b505050506114143382612f9e565b61141e8189613178565b80965050505050505095945050505050565b60008073ffffffffffffffffffffffffffffffffffffffff168273ffffffffffffffffffffffffffffffffffffffff1614156114a1576040517f08c379a0000000000000000000000000000000000000000000000000000000008152600401611498906149a3565b60405180910390fd5b600360008373ffffffffffffffffffffffffffffffffffffffff1673ffffffffffffffffffffffffffffffffffffffff168152602001908152602001600020549050919050565b6060600180546114f790615092565b80601f016020809104026020016040519081016040528092919081815260200182805461152390615092565b80156115705780601f1061154557610100808354040283529160200191611570565b820191906000526020600020905b81548152906001019060200180831161155357829003601f168201915b5050505050905090565b8073ffffffffffffffffffffffffffffffffffffffff16632f2ff15d7fe2f4eaae4a9751e85a3e4a7b9587827a877f29914755229b07a7b2da98285f70336040518363ffffffff1660e01b81526004016115d5929190614818565b600060405180830381600087803b1580156115ef57600080fd5b505af1158015611603573d6000803e3d6000fd5b5050505050565b7fe2f4eaae4a9751e85a3e4a7b9587827a877f29914755229b07a7b2da98285f7081565b611640611639612b8e565b83836131ec565b5050565b61165561164f612b8e565b83612c4f565b611694576040517f08c379a000000000000000000000000000000000000000000000000000000000815260040161168b90614b23565b60405180910390fd5b6116a084848484613359565b50505050565b6000600c60009054906101000a900473ffffffffffffffffffffffffffffffffffffffff16905060008173ffffffffffffffffffffffffffffffffffffffff1663370ef45a846040518263ffffffff1660e01b81526004016117089190614be3565b60206040518083038186803b15801561172057600080fd5b505afa158015611734573d6000803e3d6000fd5b505050506040513d601f19601f820116820180604052508101906117589190614059565b905060008273ffffffffffffffffffffffffffffffffffffffff16631d1440fd856040518263ffffffff1660e01b81526004016117959190614be3565b60206040518083038186803b1580156117ad57600080fd5b505afa1580156117c1573d6000803e3d6000fd5b505050506040513d601f19601f820116820180604052508101906117e59190613d31565b905060008373ffffffffffffffffffffffffffffffffffffffff1663a917f66f866040518263ffffffff1660e01b81526004016118229190614be3565b60206040518083038186803b15801561183a57600080fd5b505afa15801561184e573d6000803e3d6000fd5b505050506040513d601f19601f820116820180604052508101906118729190613d31565b905060008473ffffffffffffffffffffffffffffffffffffffff16634c4df870876040518263ffffffff1660e01b81526004016118af9190614be3565b60206040518083038186803b1580156118c757600080fd5b505afa1580156118db573d6000803e3d6000fd5b505050506040513d601f19601f820116820180604052508101906118ff9190614059565b905060008573ffffffffffffffffffffffffffffffffffffffff1663929151c6886040518263ffffffff1660e01b815260040161193c9190614be3565b60206040518083038186803b15801561195457600080fd5b505afa158015611968573d6000803e3d6000fd5b505050506040513d601f19601f8201168201806040525081019061198c9190613fb5565b905060008673ffffffffffffffffffffffffffffffffffffffff1663a36a6982896040518263ffffffff1660e01b81526004016119c99190614be3565b60206040518083038186803b1580156119e157600080fd5b505afa1580156119f5573d6000803e3d6000fd5b505050506040513d601f19601f82011682018060405250810190611a199190614059565b905060008773ffffffffffffffffffffffffffffffffffffffff1663cf41b0568a6040518263ffffffff1660e01b8152600401611a569190614be3565b60206040518083038186803b158015611a6e57600080fd5b505afa158015611a82573d6000803e3d6000fd5b505050506040513d601f19601f82011682018060405250810190611aa69190613d31565b905060008873ffffffffffffffffffffffffffffffffffffffff1663dbd82b038b6040518263ffffffff1660e01b8152600401611ae39190614be3565b60206040518083038186803b158015611afb57600080fd5b505afa158015611b0f573d6000803e3d6000fd5b505050506040513d601f19601f82011682018060405250810190611b339190613d31565b90506000612710600a5434611b489190614f08565b611b529190614ed7565b905060006127108534611b659190614f08565b611b6f9190614ed7565b90503073ffffffffffffffffffffffffffffffffffffffff168973ffffffffffffffffffffffffffffffffffffffff1614611bdf576040517f08c379a0000000000000000000000000000000000000000000000000000000008152600401611bd690614b63565b60405180910390fd5b863414611c21576040517f08c379a0000000000000000000000000000000000000000000000000000000008152600401611c1890614a23565b60405180910390fd5b600015158b73ffffffffffffffffffffffffffffffffffffffff1663fb7236488e6040518263ffffffff1660e01b8152600401611c5e9190614be3565b60206040518083038186803b158015611c7657600080fd5b505afa158015611c8a573d6000803e3d6000fd5b505050506040513d601f19601f82011682018060405250810190611cae9190613fb5565b151514611cf0576040517f08c379a0000000000000000000000000000000000000000000000000000000008152600401611ce790614983565b60405180910390fd5b600015158615151415611e67578a73ffffffffffffffffffffffffffffffffffffffff16631e5ffb798d33346040518463ffffffff1660e01b8152600401611d3a93929190614cdb565b600060405180830381600087803b158015611d5457600080fd5b505af1158015611d68573d6000803e3d6000fd5b50505050611d7730338c612d2d565b8373ffffffffffffffffffffffffffffffffffffffff166108fc829081150290604051600060405180830381858888f19350505050158015611dbd573d6000803e3d6000fd5b503073ffffffffffffffffffffffffffffffffffffffff166108fc839081150290604051600060405180830381858888f19350505050158015611e04573d6000803e3d6000fd5b508773ffffffffffffffffffffffffffffffffffffffff166108fc838334611e2c9190614f62565b611e369190614f62565b9081150290604051600060405180830381858888f19350505050158015611e61573d6000803e3d6000fd5b5061202c565b8a73ffffffffffffffffffffffffffffffffffffffff16631e5ffb798d33346040518463ffffffff1660e01b8152600401611ea493929190614cdb565b600060405180830381600087803b158015611ebe57600080fd5b505af1158015611ed2573d6000803e3d6000fd5b50505050611ee130338c612d2d565b8373ffffffffffffffffffffffffffffffffffffffff166108fc600283611f089190614ed7565b9081150290604051600060405180830381858888f19350505050158015611f33573d6000803e3d6000fd5b508273ffffffffffffffffffffffffffffffffffffffff166108fc600283611f5b9190614ed7565b9081150290604051600060405180830381858888f19350505050158015611f86573d6000803e3d6000fd5b503073ffffffffffffffffffffffffffffffffffffffff166108fc839081150290604051600060405180830381858888f19350505050158015611fcd573d6000803e3d6000fd5b508773ffffffffffffffffffffffffffffffffffffffff166108fc838334611ff59190614f62565b611fff9190614f62565b9081150290604051600060405180830381858888f1935050505015801561202a573d6000803e3d6000fd5b505b505050505050505050505050565b60026007541415612080576040517f08c379a000000000000000000000000000000000000000000000000000000000815260040161207790614bc3565b60405180910390fd5b60026007819055506000600c60009054906101000a900473ffffffffffffffffffffffffffffffffffffffff16905060008173ffffffffffffffffffffffffffffffffffffffff1663a917f66f846040518263ffffffff1660e01b81526004016120ea9190614be3565b60206040518083038186803b15801561210257600080fd5b505afa158015612116573d6000803e3d6000fd5b505050506040513d601f19601f8201168201806040525081019061213a9190613d31565b905060008273ffffffffffffffffffffffffffffffffffffffff1663370ef45a856040518263ffffffff1660e01b81526004016121779190614be3565b60206040518083038186803b15801561218f57600080fd5b505afa1580156121a3573d6000803e3d6000fd5b505050506040513d601f19601f820116820180604052508101906121c79190614059565b90503373ffffffffffffffffffffffffffffffffffffffff168273ffffffffffffffffffffffffffffffffffffffff1614612237576040517f08c379a000000000000000000000000000000000000000000000000000000000815260040161222e90614b83565b60405180910390fd5b8273ffffffffffffffffffffffffffffffffffffffff16633e14ba3185336040518363ffffffff1660e01b8152600401612272929190614bfe565b600060405180830381600087803b15801561228c57600080fd5b505af11580156122a0573d6000803e3d6000fd5b505050506122af303383612d2d565b505050600160078190555050565b60606122c882612b22565b612307576040517f08c379a00000000000000000000000000000000000000000000000000000000081526004016122fe90614a63565b60405180910390fd5b600060066000848152602001908152602001600020805461232790615092565b80601f016020809104026020016040519081016040528092919081815260200182805461235390615092565b80156123a05780601f10612375576101008083540402835291602001916123a0565b820191906000526020600020905b81548152906001019060200180831161238357829003601f168201915b5050505050905060006123b16133b5565b90506000815114156123c757819250505061240a565b6000825111156123fc5780826040516020016123e492919061466d565b6040516020818303038152906040529250505061240a565b612405846133cc565b925050505b919050565b3373ffffffffffffffffffffffffffffffffffffffff168173ffffffffffffffffffffffffffffffffffffffff16636352211e856040518263ffffffff1660e01b815260040161245f9190614be3565b60206040518083038186803b15801561247757600080fd5b505afa15801561248b573d6000803e3d6000fd5b505050506040513d601f19601f820116820180604052508101906124af9190613d31565b73ffffffffffffffffffffffffffffffffffffffff1614612505576040517f08c379a00000000000000000000000000000000000000000000000000000000081526004016124fc90614863565b60405180910390fd5b60008211612548576040517f08c379a000000000000000000000000000000000000000000000000000000000815260040161253f90614a03565b60405180910390fd5b6000600c60009054906101000a900473ffffffffffffffffffffffffffffffffffffffff1690508073ffffffffffffffffffffffffffffffffffffffff1663e8fc9caa83866040518363ffffffff1660e01b81526004016125aa9291906147b9565b60206040518083038186803b1580156125c257600080fd5b505afa1580156125d6573d6000803e3d6000fd5b505050506040513d601f19601f820116820180604052508101906125fa9190613fb5565b156126e2578073ffffffffffffffffffffffffffffffffffffffff1663830730438533866040518463ffffffff1660e01b815260040161263c93929190614cdb565b600060405180830381600087803b15801561265657600080fd5b505af115801561266a573d6000803e3d6000fd5b505050508173ffffffffffffffffffffffffffffffffffffffff166323b872dd3330876040518463ffffffff1660e01b81526004016126ab939291906146f1565b600060405180830381600087803b1580156126c557600080fd5b505af11580156126d9573d6000803e3d6000fd5b5050505061285a565b6000808373ffffffffffffffffffffffffffffffffffffffff16632a55205a87876040518363ffffffff1660e01b8152600401612720929190614d3b565b604080518083038186803b15801561273757600080fd5b505afa15801561274b573d6000803e3d6000fd5b505050506040513d601f19601f8201168201806040525081019061276f9190613f79565b915091508273ffffffffffffffffffffffffffffffffffffffff1663a785c390873385858a8a6040518763ffffffff1660e01b81526004016127b696959493929190614c7a565b600060405180830381600087803b1580156127d057600080fd5b505af11580156127e4573d6000803e3d6000fd5b505050508373ffffffffffffffffffffffffffffffffffffffff166323b872dd3330896040518463ffffffff1660e01b8152600401612825939291906146f1565b600060405180830381600087803b15801561283f57600080fd5b505af1158015612853573d6000803e3d6000fd5b5050505050505b50505050565b6000600560008473ffffffffffffffffffffffffffffffffffffffff1673ffffffffffffffffffffffffffffffffffffffff16815260200190815260200160002060008373ffffffffffffffffffffffffffffffffffffffff1673ffffffffffffffffffffffffffffffffffffffff16815260200190815260200160002060009054906101000a900460ff16905092915050565b6002600754141561293a576040517f08c379a000000000000000000000000000000000000000000000000000000000815260040161293190614bc3565b60405180910390fd5b60026007819055508573ffffffffffffffffffffffffffffffffffffffff163373ffffffffffffffffffffffffffffffffffffffff16146129b0576040517f08c379a00000000000000000000000000000000000000000000000000000000081526004016129a790614883565b60405180910390fd5b6000600c60009054906101000a900473ffffffffffffffffffffffffffffffffffffffff16905060008173ffffffffffffffffffffffffffffffffffffffff16634a090dbf858589896040518563ffffffff1660e01b8152600401612a189493929190614774565b602060405180830381600087803b158015612a3257600080fd5b505af1158015612a46573d6000803e3d6000fd5b505050506040513d601f19601f82011682018060405250810190612a6a9190614059565b9050612a768482612f9e565b612a808188613178565b612a8b818587613473565b612a96848483612d2d565b50506001600781905550505050505050565b60007f2a55205a000000000000000000000000000000000000000000000000000000007bffffffffffffffffffffffffffffffffffffffffffffffffffffffff1916827bffffffffffffffffffffffffffffffffffffffffffffffffffffffff19161480612b1b5750612b1a8261361b565b5b9050919050565b60008073ffffffffffffffffffffffffffffffffffffffff166002600084815260200190815260200160002060009054906101000a900473ffffffffffffffffffffffffffffffffffffffff1673ffffffffffffffffffffffffffffffffffffffff1614159050919050565b600033905090565b816004600083815260200190815260200160002060006101000a81548173ffffffffffffffffffffffffffffffffffffffff021916908373ffffffffffffffffffffffffffffffffffffffff160217905550808273ffffffffffffffffffffffffffffffffffffffff16612c09836109e2565b73ffffffffffffffffffffffffffffffffffffffff167f8c5be1e5ebec7d5bd14f71427d1e84f3dd0314c0f7b2291e5b200ac8c7c3b92560405160405180910390a45050565b6000612c5a82612b22565b612c99576040517f08c379a0000000000000000000000000000000000000000000000000000000008152600401612c9090614943565b60405180910390fd5b6000612ca4836109e2565b90508073ffffffffffffffffffffffffffffffffffffffff168473ffffffffffffffffffffffffffffffffffffffff161480612d1357508373ffffffffffffffffffffffffffffffffffffffff16612cfb846105da565b73ffffffffffffffffffffffffffffffffffffffff16145b80612d245750612d238185612860565b5b91505092915050565b8273ffffffffffffffffffffffffffffffffffffffff16612d4d826109e2565b73ffffffffffffffffffffffffffffffffffffffff1614612da3576040517f08c379a0000000000000000000000000000000000000000000000000000000008152600401612d9a906148c3565b60405180910390fd5b600073ffffffffffffffffffffffffffffffffffffffff168273ffffffffffffffffffffffffffffffffffffffff161415612e13576040517f08c379a0000000000000000000000000000000000000000000000000000000008152600401612e0a90614903565b60405180910390fd5b612e1e8383836136fd565b612e29600082612b96565b6001600360008573ffffffffffffffffffffffffffffffffffffffff1673ffffffffffffffffffffffffffffffffffffffff1681526020019081526020016000206000828254612e799190614f62565b925050819055506001600360008473ffffffffffffffffffffffffffffffffffffffff1673ffffffffffffffffffffffffffffffffffffffff1681526020019081526020016000206000828254612ed09190614e81565b92505081905550816002600083815260200190815260200160002060006101000a81548173ffffffffffffffffffffffffffffffffffffffff021916908373ffffffffffffffffffffffffffffffffffffffff160217905550808273ffffffffffffffffffffffffffffffffffffffff168473ffffffffffffffffffffffffffffffffffffffff167fddf252ad1be2c89b69c2b068fc378daa952ba7f163c4a11628f55a4df523b3ef60405160405180910390a4612f8f838383613702565b505050565b6000612710905090565b600073ffffffffffffffffffffffffffffffffffffffff168273ffffffffffffffffffffffffffffffffffffffff16141561300e576040517f08c379a000000000000000000000000000000000000000000000000000000000815260040161300590614a43565b60405180910390fd5b61301781612b22565b15613057576040517f08c379a000000000000000000000000000000000000000000000000000000000815260040161304e906148e3565b60405180910390fd5b613063600083836136fd565b6001600360008473ffffffffffffffffffffffffffffffffffffffff1673ffffffffffffffffffffffffffffffffffffffff16815260200190815260200160002060008282546130b39190614e81565b92505081905550816002600083815260200190815260200160002060006101000a81548173ffffffffffffffffffffffffffffffffffffffff021916908373ffffffffffffffffffffffffffffffffffffffff160217905550808273ffffffffffffffffffffffffffffffffffffffff16600073ffffffffffffffffffffffffffffffffffffffff167fddf252ad1be2c89b69c2b068fc378daa952ba7f163c4a11628f55a4df523b3ef60405160405180910390a461317460008383613702565b5050565b61318182612b22565b6131c0576040517f08c379a00000000000000000000000000000000000000000000000000000000081526004016131b7906149e3565b60405180910390fd5b806006600084815260200190815260200160002090805190602001906131e7929190613ad8565b505050565b8173ffffffffffffffffffffffffffffffffffffffff168373ffffffffffffffffffffffffffffffffffffffff16141561325b576040517f08c379a000000000000000000000000000000000000000000000000000000000815260040161325290614923565b60405180910390fd5b80600560008573ffffffffffffffffffffffffffffffffffffffff1673ffffffffffffffffffffffffffffffffffffffff16815260200190815260200160002060008473ffffffffffffffffffffffffffffffffffffffff1673ffffffffffffffffffffffffffffffffffffffff16815260200190815260200160002060006101000a81548160ff0219169083151502179055508173ffffffffffffffffffffffffffffffffffffffff168373ffffffffffffffffffffffffffffffffffffffff167f17307eab39ab6107e8899845ad3d59bd9653f200f220920489ca2b5937696c318360405161334c91906147e2565b60405180910390a3505050565b613364848484612d2d565b61337084848484613707565b6133af576040517f08c379a00000000000000000000000000000000000000000000000000000000081526004016133a6906148a3565b60405180910390fd5b50505050565b606060405180602001604052806000815250905090565b60606133d782612b22565b613416576040517f08c379a000000000000000000000000000000000000000000000000000000000815260040161340d90614ac3565b60405180910390fd5b60006134206133b5565b90506000815111613440576040518060200160405280600081525061346b565b8061344a8461389e565b60405160200161345b92919061466d565b6040516020818303038152906040525b915050919050565b61347b612f94565b6bffffffffffffffffffffffff16816bffffffffffffffffffffffff1611156134d9576040517f08c379a00000000000000000000000000000000000000000000000000000000081526004016134d090614ba3565b60405180910390fd5b600073ffffffffffffffffffffffffffffffffffffffff168273ffffffffffffffffffffffffffffffffffffffff161415613549576040517f08c379a000000000000000000000000000000000000000000000000000000000815260040161354090614b43565b60405180910390fd5b60405180604001604052808373ffffffffffffffffffffffffffffffffffffffff168152602001826bffffffffffffffffffffffff168152506009600085815260200190815260200160002060008201518160000160006101000a81548173ffffffffffffffffffffffffffffffffffffffff021916908373ffffffffffffffffffffffffffffffffffffffff16021790555060208201518160000160146101000a8154816bffffffffffffffffffffffff02191690836bffffffffffffffffffffffff160217905550905050505050565b60007f80ac58cd000000000000000000000000000000000000000000000000000000007bffffffffffffffffffffffffffffffffffffffffffffffffffffffff1916827bffffffffffffffffffffffffffffffffffffffffffffffffffffffff191614806136e657507f5b5e139f000000000000000000000000000000000000000000000000000000007bffffffffffffffffffffffffffffffffffffffffffffffffffffffff1916827bffffffffffffffffffffffffffffffffffffffffffffffffffffffff1916145b806136f657506136f582613a4b565b5b9050919050565b505050565b505050565b60006137288473ffffffffffffffffffffffffffffffffffffffff16613ab5565b15613891578373ffffffffffffffffffffffffffffffffffffffff1663150b7a02613751612b8e565b8786866040518563ffffffff1660e01b81526004016137739493929190614728565b602060405180830381600087803b15801561378d57600080fd5b505af19250505080156137be57506040513d601f19601f820116820180604052508101906137bb9190614007565b60015b613841573d80600081146137ee576040519150601f19603f3d011682016040523d82523d6000602084013e6137f3565b606091505b50600081511415613839576040517f08c379a0000000000000000000000000000000000000000000000000000000008152600401613830906148a3565b60405180910390fd5b805181602001fd5b63150b7a0260e01b7bffffffffffffffffffffffffffffffffffffffffffffffffffffffff1916817bffffffffffffffffffffffffffffffffffffffffffffffffffffffff191614915050613896565b600190505b949350505050565b606060008214156138e6576040518060400160405280600181526020017f30000000000000000000000000000000000000000000000000000000000000008152509050613a46565b600082905060005b60008214613918578080613901906150f5565b915050600a826139119190614ed7565b91506138ee565b60008167ffffffffffffffff81111561395a577f4e487b7100000000000000000000000000000000000000000000000000000000600052604160045260246000fd5b6040519080825280601f01601f19166020018201604052801561398c5781602001600182028036833780820191505090505b5090505b60008514613a3f576001826139a59190614f62565b9150600a856139b4919061513e565b60306139c09190614e81565b60f81b8183815181106139fc577f4e487b7100000000000000000000000000000000000000000000000000000000600052603260045260246000fd5b60200101907effffffffffffffffffffffffffffffffffffffffffffffffffffffffffffff1916908160001a905350600a85613a389190614ed7565b9450613990565b8093505050505b919050565b60007f01ffc9a7000000000000000000000000000000000000000000000000000000007bffffffffffffffffffffffffffffffffffffffffffffffffffffffff1916827bffffffffffffffffffffffffffffffffffffffffffffffffffffffff1916149050919050565b6000808273ffffffffffffffffffffffffffffffffffffffff163b119050919050565b828054613ae490615092565b90600052602060002090601f016020900481019282613b065760008555613b4d565b82601f10613b1f57805160ff1916838001178555613b4d565b82800160010185558215613b4d579182015b82811115613b4c578251825591602001919060010190613b31565b5b509050613b5a9190613b5e565b5090565b5b80821115613b77576000816000905550600101613b5f565b5090565b6000613b8e613b8984614ddc565b614db7565b905082815260208101848484011115613ba657600080fd5b613bb1848285615050565b509392505050565b6000613bcc613bc784614e0d565b614db7565b905082815260208101848484011115613be457600080fd5b613bef848285615050565b509392505050565b600081359050613c06816159d6565b92915050565b600081519050613c1b816159d6565b92915050565b600081359050613c30816159ed565b92915050565b600081519050613c45816159ed565b92915050565b600081359050613c5a81615a04565b92915050565b600081519050613c6f81615a04565b92915050565b600082601f830112613c8657600080fd5b8135613c96848260208601613b7b565b91505092915050565b600082601f830112613cb057600080fd5b8135613cc0848260208601613bb9565b91505092915050565b600081359050613cd881615a1b565b92915050565b600081519050613ced81615a1b565b92915050565b600081359050613d0281615a32565b92915050565b600060208284031215613d1a57600080fd5b6000613d2884828501613bf7565b91505092915050565b600060208284031215613d4357600080fd5b6000613d5184828501613c0c565b91505092915050565b60008060408385031215613d6d57600080fd5b6000613d7b85828601613bf7565b9250506020613d8c85828601613bf7565b9150509250929050565b600080600060608486031215613dab57600080fd5b6000613db986828701613bf7565b9350506020613dca86828701613bf7565b9250506040613ddb86828701613cc9565b9150509250925092565b60008060008060808587031215613dfb57600080fd5b6000613e0987828801613bf7565b9450506020613e1a87828801613bf7565b9350506040613e2b87828801613cc9565b925050606085013567ffffffffffffffff811115613e4857600080fd5b613e5487828801613c75565b91505092959194509250565b60008060408385031215613e7357600080fd5b6000613e8185828601613bf7565b9250506020613e9285828601613c21565b9150509250929050565b60008060008060008060c08789031215613eb557600080fd5b6000613ec389828a01613bf7565b965050602087013567ffffffffffffffff811115613ee057600080fd5b613eec89828a01613c9f565b9550506040613efd89828a01613cc9565b9450506060613f0e89828a01613cf3565b9350506080613f1f89828a01613bf7565b92505060a0613f3089828a01613bf7565b9150509295509295509295565b60008060408385031215613f5057600080fd5b6000613f5e85828601613bf7565b9250506020613f6f85828601613cc9565b9150509250929050565b60008060408385031215613f8c57600080fd5b6000613f9a85828601613c0c565b9250506020613fab85828601613cde565b9150509250929050565b600060208284031215613fc757600080fd5b6000613fd584828501613c36565b91505092915050565b600060208284031215613ff057600080fd5b6000613ffe84828501613c4b565b91505092915050565b60006020828403121561401957600080fd5b600061402784828501613c60565b91505092915050565b60006020828403121561404257600080fd5b600061405084828501613cc9565b91505092915050565b60006020828403121561406b57600080fd5b600061407984828501613cde565b91505092915050565b600080600080600060a0868803121561409a57600080fd5b60006140a888828901613cc9565b95505060206140b988828901613bf7565b94505060406140ca88828901613cc9565b93505060606140db88828901613bf7565b925050608086013567ffffffffffffffff8111156140f857600080fd5b61410488828901613c9f565b9150509295509295909350565b6000806040838503121561412457600080fd5b600061413285828601613cc9565b925050602061414385828601613cc9565b9150509250929050565b60008060006060848603121561416257600080fd5b600061417086828701613cc9565b935050602061418186828701613cc9565b925050604061419286828701613bf7565b9150509250925092565b6141a581614f96565b82525050565b6141b481614fa8565b82525050565b6141c381614fb4565b82525050565b60006141d482614e3e565b6141de8185614e54565b93506141ee81856020860161505f565b6141f78161522b565b840191505092915050565b61420b8161502c565b82525050565b600061421c82614e49565b6142268185614e65565b935061423681856020860161505f565b61423f8161522b565b840191505092915050565b600061425582614e49565b61425f8185614e76565b935061426f81856020860161505f565b80840191505092915050565b6000614288601983614e65565b91506142938261523c565b602082019050919050565b60006142ab602c83614e65565b91506142b682615265565b604082019050919050565b60006142ce603283614e65565b91506142d9826152b4565b604082019050919050565b60006142f1602583614e65565b91506142fc82615303565b604082019050919050565b6000614314601c83614e65565b915061431f82615352565b602082019050919050565b6000614337602483614e65565b91506143428261537b565b604082019050919050565b600061435a601983614e65565b9150614365826153ca565b602082019050919050565b600061437d602c83614e65565b9150614388826153f3565b604082019050919050565b60006143a0603883614e65565b91506143ab82615442565b604082019050919050565b60006143c3602483614e65565b91506143ce82615491565b604082019050919050565b60006143e6602a83614e65565b91506143f1826154e0565b604082019050919050565b6000614409602983614e65565b91506144148261552f565b604082019050919050565b600061442c602e83614e65565b91506144378261557e565b604082019050919050565b600061444f601683614e65565b915061445a826155cd565b602082019050919050565b6000614472604083614e65565b915061447d826155f6565b604082019050919050565b6000614495602083614e65565b91506144a082615645565b602082019050919050565b60006144b8603183614e65565b91506144c38261566e565b604082019050919050565b60006144db602c83614e65565b91506144e6826156bd565b604082019050919050565b60006144fe602c83614e65565b91506145098261570c565b604082019050919050565b6000614521602f83614e65565b915061452c8261575b565b604082019050919050565b6000614544602183614e65565b915061454f826157aa565b604082019050919050565b6000614567602c83614e65565b9150614572826157f9565b604082019050919050565b600061458a603183614e65565b915061459582615848565b604082019050919050565b60006145ad601b83614e65565b91506145b882615897565b602082019050919050565b60006145d0602483614e65565b91506145db826158c0565b604082019050919050565b60006145f3602283614e65565b91506145fe8261590f565b604082019050919050565b6000614616602a83614e65565b91506146218261595e565b604082019050919050565b6000614639601f83614e65565b9150614644826159ad565b602082019050919050565b6146588161500a565b82525050565b6146678161503e565b82525050565b6000614679828561424a565b9150614685828461424a565b91508190509392505050565b60006020820190506146a6600083018461419c565b92915050565b60006080820190506146c1600083018761419c565b6146ce602083018661419c565b6146db604083018561419c565b6146e8606083018461464f565b95945050505050565b6000606082019050614706600083018661419c565b614713602083018561419c565b614720604083018461464f565b949350505050565b600060808201905061473d600083018761419c565b61474a602083018661419c565b614757604083018561464f565b818103606083015261476981846141c9565b905095945050505050565b6000608082019050614789600083018761419c565b614796602083018661419c565b6147a3604083018561464f565b6147b0606083018461465e565b95945050505050565b60006040820190506147ce600083018561419c565b6147db602083018461464f565b9392505050565b60006020820190506147f760008301846141ab565b92915050565b600060208201905061481260008301846141ba565b92915050565b600060408201905061482d60008301856141ba565b61483a602083018461419c565b9392505050565b6000602082019050818103600083015261485b8184614211565b905092915050565b6000602082019050818103600083015261487c8161427b565b9050919050565b6000602082019050818103600083015261489c8161429e565b9050919050565b600060208201905081810360008301526148bc816142c1565b9050919050565b600060208201905081810360008301526148dc816142e4565b9050919050565b600060208201905081810360008301526148fc81614307565b9050919050565b6000602082019050818103600083015261491c8161432a565b9050919050565b6000602082019050818103600083015261493c8161434d565b9050919050565b6000602082019050818103600083015261495c81614370565b9050919050565b6000602082019050818103600083015261497c81614393565b9050919050565b6000602082019050818103600083015261499c816143b6565b9050919050565b600060208201905081810360008301526149bc816143d9565b9050919050565b600060208201905081810360008301526149dc816143fc565b9050919050565b600060208201905081810360008301526149fc8161441f565b9050919050565b60006020820190508181036000830152614a1c81614442565b9050919050565b60006020820190508181036000830152614a3c81614465565b9050919050565b60006020820190508181036000830152614a5c81614488565b9050919050565b60006020820190508181036000830152614a7c816144ab565b9050919050565b60006020820190508181036000830152614a9c816144ce565b9050919050565b60006020820190508181036000830152614abc816144f1565b9050919050565b60006020820190508181036000830152614adc81614514565b9050919050565b60006020820190508181036000830152614afc81614537565b9050919050565b60006020820190508181036000830152614b1c8161455a565b9050919050565b60006020820190508181036000830152614b3c8161457d565b9050919050565b60006020820190508181036000830152614b5c816145a0565b9050919050565b60006020820190508181036000830152614b7c816145c3565b9050919050565b60006020820190508181036000830152614b9c816145e6565b9050919050565b60006020820190508181036000830152614bbc81614609565b9050919050565b60006020820190508181036000830152614bdc8161462c565b9050919050565b6000602082019050614bf8600083018461464f565b92915050565b6000604082019050614c13600083018561464f565b614c20602083018461419c565b9392505050565b600060a082019050614c3c600083018861464f565b614c49602083018761419c565b614c56604083018661419c565b614c63606083018561464f565b614c70608083018461419c565b9695505050505050565b600060c082019050614c8f600083018961464f565b614c9c602083018861419c565b614ca9604083018761419c565b614cb6606083018661464f565b614cc3608083018561464f565b614cd060a083018461419c565b979650505050505050565b6000606082019050614cf0600083018661464f565b614cfd602083018561419c565b614d0a604083018461464f565b949350505050565b6000604082019050614d27600083018561464f565b614d346020830184614202565b9392505050565b6000604082019050614d50600083018561464f565b614d5d602083018461464f565b9392505050565b600060a082019050614d79600083018861464f565b614d86602083018761464f565b614d93604083018661419c565b614da0606083018561419c565b614dad608083018461464f565b9695505050505050565b6000614dc1614dd2565b9050614dcd82826150c4565b919050565b6000604051905090565b600067ffffffffffffffff821115614df757614df66151fc565b5b614e008261522b565b9050602081019050919050565b600067ffffffffffffffff821115614e2857614e276151fc565b5b614e318261522b565b9050602081019050919050565b600081519050919050565b600081519050919050565b600082825260208201905092915050565b600082825260208201905092915050565b600081905092915050565b6000614e8c8261500a565b9150614e978361500a565b9250827fffffffffffffffffffffffffffffffffffffffffffffffffffffffffffffffff03821115614ecc57614ecb61516f565b5b828201905092915050565b6000614ee28261500a565b9150614eed8361500a565b925082614efd57614efc61519e565b5b828204905092915050565b6000614f138261500a565b9150614f1e8361500a565b9250817fffffffffffffffffffffffffffffffffffffffffffffffffffffffffffffffff0483118215151615614f5757614f5661516f565b5b828202905092915050565b6000614f6d8261500a565b9150614f788361500a565b925082821015614f8b57614f8a61516f565b5b828203905092915050565b6000614fa182614fea565b9050919050565b60008115159050919050565b6000819050919050565b60007fffffffff0000000000000000000000000000000000000000000000000000000082169050919050565b600073ffffffffffffffffffffffffffffffffffffffff82169050919050565b6000819050919050565b60006bffffffffffffffffffffffff82169050919050565b60006150378261500a565b9050919050565b600061504982615014565b9050919050565b82818337600083830152505050565b60005b8381101561507d578082015181840152602081019050615062565b8381111561508c576000848401525b50505050565b600060028204905060018216806150aa57607f821691505b602082108114156150be576150bd6151cd565b5b50919050565b6150cd8261522b565b810181811067ffffffffffffffff821117156150ec576150eb6151fc565b5b80604052505050565b60006151008261500a565b91507fffffffffffffffffffffffffffffffffffffffffffffffffffffffffffffffff8214156151335761513261516f565b5b600182019050919050565b60006151498261500a565b91506151548361500a565b9250826151645761516361519e565b5b828206905092915050565b7f4e487b7100000000000000000000000000000000000000000000000000000000600052601160045260246000fd5b7f4e487b7100000000000000000000000000000000000000000000000000000000600052601260045260246000fd5b7f4e487b7100000000000000000000000000000000000000000000000000000000600052602260045260246000fd5b7f4e487b7100000000000000000000000000000000000000000000000000000000600052604160045260246000fd5b6000601f19601f8301169050919050565b7f596f7520646f206e6f74206f776e207468697320746f6b656e00000000000000600082015250565b7f4f6e6c792074686520636f6e74726f6c6c65722063616e20616363657373207460008201527f6869732066756e6374696f6e0000000000000000000000000000000000000000602082015250565b7f4552433732313a207472616e7366657220746f206e6f6e20455243373231526560008201527f63656976657220696d706c656d656e7465720000000000000000000000000000602082015250565b7f4552433732313a207472616e736665722066726f6d20696e636f72726563742060008201527f6f776e6572000000000000000000000000000000000000000000000000000000602082015250565b7f4552433732313a20746f6b656e20616c7265616479206d696e74656400000000600082015250565b7f4552433732313a207472616e7366657220746f20746865207a65726f2061646460008201527f7265737300000000000000000000000000000000000000000000000000000000602082015250565b7f4552433732313a20617070726f766520746f2063616c6c657200000000000000600082015250565b7f4552433732313a206f70657261746f7220717565727920666f72206e6f6e657860008201527f697374656e7420746f6b656e0000000000000000000000000000000000000000602082015250565b7f4552433732313a20617070726f76652063616c6c6572206973206e6f74206f7760008201527f6e6572206e6f7220617070726f76656420666f7220616c6c0000000000000000602082015250565b7f5468697320746f6b656e206973206c6f636b65642064756520746f206272656560008201527f64696e6700000000000000000000000000000000000000000000000000000000602082015250565b7f4552433732313a2062616c616e636520717565727920666f7220746865207a6560008201527f726f206164647265737300000000000000000000000000000000000000000000602082015250565b7f4552433732313a206f776e657220717565727920666f72206e6f6e657869737460008201527f656e7420746f6b656e0000000000000000000000000000000000000000000000602082015250565b7f45524337323155524953746f726167653a2055524920736574206f66206e6f6e60008201527f6578697374656e7420746f6b656e000000000000000000000000000000000000602082015250565b7f43616e6e6f742068617665207a65726f20707269636500000000000000000000600082015250565b7f506c65617365207375626d6974207468652061736b696e67207072696365206960008201527f6e206f7264657220746f20636f6d706c65746520746865207075726368617365602082015250565b7f4552433732313a206d696e7420746f20746865207a65726f2061646472657373600082015250565b7f45524337323155524953746f726167653a2055524920717565727920666f722060008201527f6e6f6e6578697374656e7420746f6b656e000000000000000000000000000000602082015250565b7f4552433732313a20617070726f76656420717565727920666f72206e6f6e657860008201527f697374656e7420746f6b656e0000000000000000000000000000000000000000602082015250565b7f4f6e6c79206974656d2032206f776e65722063616e20706572666f726d20746860008201527f6973206f7065726174696f6e0000000000000000000000000000000000000000602082015250565b7f4552433732314d657461646174613a2055524920717565727920666f72206e6f60008201527f6e6578697374656e7420746f6b656e0000000000000000000000000000000000602082015250565b7f4552433732313a20617070726f76616c20746f2063757272656e74206f776e6560008201527f7200000000000000000000000000000000000000000000000000000000000000602082015250565b7f4f6e6c79206974656d2031206f776e65722063616e20706572666f726d20746860008201527f6973206f7065726174696f6e0000000000000000000000000000000000000000602082015250565b7f4552433732313a207472616e736665722063616c6c6572206973206e6f74206f60008201527f776e6572206e6f7220617070726f766564000000000000000000000000000000602082015250565b7f455243323938313a20496e76616c696420706172616d65746572730000000000600082015250565b7f4f6e6c79206d61726b6574706c616365206974656d732063616e20626520626f60008201527f7567687400000000000000000000000000000000000000000000000000000000602082015250565b7f43616e6e6f742064656c69737420616e6f746865722075736572277320746f6b60008201527f656e000000000000000000000000000000000000000000000000000000000000602082015250565b7f455243323938313a20726f79616c7479206665652077696c6c2065786365656460008201527f2073616c65507269636500000000000000000000000000000000000000000000602082015250565b7f5265656e7472616e637947756172643a207265656e7472616e742063616c6c00600082015250565b6159df81614f96565b81146159ea57600080fd5b50565b6159f681614fa8565b8114615a0157600080fd5b50565b615a0d81614fbe565b8114615a1857600080fd5b50565b615a248161500a565b8114615a2f57600080fd5b50565b615a3b81615014565b8114615a4657600080fd5b5056fea264697066735822122010e563b5d4b7ea226d43a314b69655f477ce394e04374ec812b776e034b3fbbd64736f6c63430008040033",
  "linkReferences": {},
  "deployedLinkReferences": {}
}