{
  "_format": "hh-sol-artifact-1",
  "contractName": "NFTMarketplace",
  "sourceName": "contracts/NFTMarketplace.sol",
  "abi": [
    {
      "inputs": [
        {
          "internalType": "address",
          "name": "NFTStorage",
          "type": "address"
        },
        {
          "internalType": "address",
          "name": "_WETH",
          "type": "address"
        }
      ],
      "stateMutability": "nonpayable",
      "type": "constructor"
    },
    {
      "anonymous": false,
      "inputs": [
        {
          "indexed": true,
          "internalType": "address",
          "name": "owner",
          "type": "address"
        },
        {
          "indexed": true,
          "internalType": "address",
          "name": "approved",
          "type": "address"
        },
        {
          "indexed": true,
          "internalType": "uint256",
          "name": "tokenId",
          "type": "uint256"
        }
      ],
      "name": "Approval",
      "type": "event"
    },
    {
      "anonymous": false,
      "inputs": [
        {
          "indexed": true,
          "internalType": "address",
          "name": "owner",
          "type": "address"
        },
        {
          "indexed": true,
          "internalType": "address",
          "name": "operator",
          "type": "address"
        },
        {
          "indexed": false,
          "internalType": "bool",
          "name": "approved",
          "type": "bool"
        }
      ],
      "name": "ApprovalForAll",
      "type": "event"
    },
    {
      "anonymous": false,
      "inputs": [
        {
          "indexed": true,
          "internalType": "address",
          "name": "from",
          "type": "address"
        },
        {
          "indexed": true,
          "internalType": "address",
          "name": "to",
          "type": "address"
        },
        {
          "indexed": true,
          "internalType": "uint256",
          "name": "tokenId",
          "type": "uint256"
        }
      ],
      "name": "Transfer",
      "type": "event"
    },
    {
      "anonymous": false,
      "inputs": [
        {
          "indexed": false,
          "internalType": "address",
          "name": "",
          "type": "address"
        },
        {
          "indexed": false,
          "internalType": "uint256",
          "name": "",
          "type": "uint256"
        }
      ],
      "name": "received",
      "type": "event"
    },
    {
      "inputs": [
        {
          "internalType": "uint256",
          "name": "tokenId",
          "type": "uint256"
        }
      ],
      "name": "acceptBid",
      "outputs": [],
      "stateMutability": "payable",
      "type": "function"
    },
    {
      "inputs": [
        {
          "internalType": "address",
          "name": "to",
          "type": "address"
        },
        {
          "internalType": "uint256",
          "name": "tokenId",
          "type": "uint256"
        }
      ],
      "name": "approve",
      "outputs": [],
      "stateMutability": "nonpayable",
      "type": "function"
    },
    {
      "inputs": [
        {
          "internalType": "address",
          "name": "owner",
          "type": "address"
        }
      ],
      "name": "balanceOf",
      "outputs": [
        {
          "internalType": "uint256",
          "name": "",
          "type": "uint256"
        }
      ],
      "stateMutability": "view",
      "type": "function"
    },
    {
      "inputs": [
        {
          "internalType": "uint256",
          "name": "tokenIdOne",
          "type": "uint256"
        },
        {
          "internalType": "address",
          "name": "tokenIdOneContract",
          "type": "address"
        },
        {
          "internalType": "uint256",
          "name": "tokenIdTwo",
          "type": "uint256"
        },
        {
          "internalType": "address",
          "name": "tokenIdTwoContract",
          "type": "address"
        },
        {
          "internalType": "string",
          "name": "bredTokenUri",
          "type": "string"
        }
      ],
      "name": "createBredToken",
      "outputs": [
        {
          "internalType": "uint256",
          "name": "",
          "type": "uint256"
        }
      ],
      "stateMutability": "payable",
      "type": "function"
    },
    {
      "inputs": [
        {
          "internalType": "uint256",
          "name": "tokenId",
          "type": "uint256"
        },
        {
          "internalType": "uint256",
          "name": "price",
          "type": "uint256"
        },
        {
          "internalType": "address",
          "name": "nftContract",
          "type": "address"
        }
      ],
      "name": "createMarketItem",
      "outputs": [],
      "stateMutability": "payable",
      "type": "function"
    },
    {
      "inputs": [
        {
          "internalType": "uint256",
          "name": "tokenId",
          "type": "uint256"
        }
      ],
      "name": "createMarketSale",
      "outputs": [],
      "stateMutability": "payable",
      "type": "function"
    },
    {
      "inputs": [
        {
          "internalType": "address",
          "name": "galleryAddress",
          "type": "address"
        },
        {
          "internalType": "string",
          "name": "tokenUri",
          "type": "string"
        },
        {
          "internalType": "uint256",
          "name": "price",
          "type": "uint256"
        },
        {
          "internalType": "uint96",
          "name": "royaltyValue",
          "type": "uint96"
        },
        {
          "internalType": "address",
          "name": "signer",
          "type": "address"
        },
        {
          "internalType": "address",
          "name": "buyer",
          "type": "address"
        }
      ],
      "name": "createOwnedTokenFromLazy",
      "outputs": [],
      "stateMutability": "payable",
      "type": "function"
    },
    {
      "inputs": [
        {
          "internalType": "uint256",
          "name": "tokenId",
          "type": "uint256"
        }
      ],
      "name": "delistToken",
      "outputs": [],
      "stateMutability": "payable",
      "type": "function"
    },
    {
      "inputs": [],
      "name": "getAllowance",
      "outputs": [
        {
          "internalType": "uint256",
          "name": "",
          "type": "uint256"
        }
      ],
      "stateMutability": "view",
      "type": "function"
    },
    {
      "inputs": [
        {
          "internalType": "uint256",
          "name": "tokenId",
          "type": "uint256"
        }
      ],
      "name": "getApproved",
      "outputs": [
        {
          "internalType": "address",
          "name": "",
          "type": "address"
        }
      ],
      "stateMutability": "view",
      "type": "function"
    },
    {
      "inputs": [
        {
          "internalType": "address",
          "name": "owner",
          "type": "address"
        },
        {
          "internalType": "address",
          "name": "operator",
          "type": "address"
        }
      ],
      "name": "isApprovedForAll",
      "outputs": [
        {
          "internalType": "bool",
          "name": "",
          "type": "bool"
        }
      ],
      "stateMutability": "view",
      "type": "function"
    },
    {
      "inputs": [],
      "name": "name",
      "outputs": [
        {
          "internalType": "string",
          "name": "",
          "type": "string"
        }
      ],
      "stateMutability": "view",
      "type": "function"
    },
    {
      "inputs": [
        {
          "internalType": "uint256",
          "name": "tokenId",
          "type": "uint256"
        }
      ],
      "name": "ownerOf",
      "outputs": [
        {
          "internalType": "address",
          "name": "",
          "type": "address"
        }
      ],
      "stateMutability": "view",
      "type": "function"
    },
    {
      "inputs": [
        {
          "internalType": "uint256",
          "name": "tokenId",
          "type": "uint256"
        },
        {
          "internalType": "uint256",
          "name": "price",
          "type": "uint256"
        }
      ],
      "name": "placeBid",
      "outputs": [
        {
          "internalType": "uint256",
          "name": "",
          "type": "uint256"
        }
      ],
      "stateMutability": "payable",
      "type": "function"
    },
    {
      "inputs": [
        {
          "internalType": "uint256",
          "name": "tokenId",
          "type": "uint256"
        },
        {
          "internalType": "uint256",
          "name": "price",
          "type": "uint256"
        },
        {
          "internalType": "address",
          "name": "nftContract",
          "type": "address"
        }
      ],
      "name": "resellToken",
      "outputs": [],
      "stateMutability": "payable",
      "type": "function"
    },
    {
      "inputs": [
        {
          "internalType": "uint256",
          "name": "_tokenId",
          "type": "uint256"
        },
        {
          "internalType": "uint256",
          "name": "_salePrice",
          "type": "uint256"
        }
      ],
      "name": "royaltyInfo",
      "outputs": [
        {
          "internalType": "address",
          "name": "",
          "type": "address"
        },
        {
          "internalType": "uint256",
          "name": "",
          "type": "uint256"
        }
      ],
      "stateMutability": "view",
      "type": "function"
    },
    {
      "inputs": [
        {
          "internalType": "address",
          "name": "from",
          "type": "address"
        },
        {
          "internalType": "address",
          "name": "to",
          "type": "address"
        },
        {
          "internalType": "uint256",
          "name": "tokenId",
          "type": "uint256"
        }
      ],
      "name": "safeTransferFrom",
      "outputs": [],
      "stateMutability": "nonpayable",
      "type": "function"
    },
    {
      "inputs": [
        {
          "internalType": "address",
          "name": "from",
          "type": "address"
        },
        {
          "internalType": "address",
          "name": "to",
          "type": "address"
        },
        {
          "internalType": "uint256",
          "name": "tokenId",
          "type": "uint256"
        },
        {
          "internalType": "bytes",
          "name": "_data",
          "type": "bytes"
        }
      ],
      "name": "safeTransferFrom",
      "outputs": [],
      "stateMutability": "nonpayable",
      "type": "function"
    },
    {
      "inputs": [
        {
          "internalType": "address",
          "name": "operator",
          "type": "address"
        },
        {
          "internalType": "bool",
          "name": "approved",
          "type": "bool"
        }
      ],
      "name": "setApprovalForAll",
      "outputs": [],
      "stateMutability": "nonpayable",
      "type": "function"
    },
    {
      "inputs": [
        {
          "internalType": "bytes4",
          "name": "interfaceId",
          "type": "bytes4"
        }
      ],
      "name": "supportsInterface",
      "outputs": [
        {
          "internalType": "bool",
          "name": "",
          "type": "bool"
        }
      ],
      "stateMutability": "view",
      "type": "function"
    },
    {
      "inputs": [],
      "name": "symbol",
      "outputs": [
        {
          "internalType": "string",
          "name": "",
          "type": "string"
        }
      ],
      "stateMutability": "view",
      "type": "function"
    },
    {
      "inputs": [
        {
          "internalType": "uint256",
          "name": "tokenId",
          "type": "uint256"
        }
      ],
      "name": "tokenURI",
      "outputs": [
        {
          "internalType": "string",
          "name": "",
          "type": "string"
        }
      ],
      "stateMutability": "view",
      "type": "function"
    },
    {
      "inputs": [
        {
          "internalType": "address",
          "name": "from",
          "type": "address"
        },
        {
          "internalType": "address",
          "name": "to",
          "type": "address"
        },
        {
          "internalType": "uint256",
          "name": "tokenId",
          "type": "uint256"
        }
      ],
      "name": "transferFrom",
      "outputs": [],
      "stateMutability": "nonpayable",
      "type": "function"
    },
    {
      "stateMutability": "payable",
      "type": "receive"
    }
  ],
  "bytecode": "0x60806040526005600a553480156200001657600080fd5b506040516200615c3803806200615c83398181016040528101906200003c919062000276565b6040518060400160405280601081526020017f4e66747954756e657320546f6b656e73000000000000000000000000000000008152506040518060400160405280600481526020017f4e465459000000000000000000000000000000000000000000000000000000008152508160009080519060200190620000c0929190620001af565b508060019080519060200190620000d9929190620001af565b505050600160078190555033600b60006101000a81548173ffffffffffffffffffffffffffffffffffffffff021916908373ffffffffffffffffffffffffffffffffffffffff16021790555081600c60006101000a81548173ffffffffffffffffffffffffffffffffffffffff021916908373ffffffffffffffffffffffffffffffffffffffff16021790555080600d60006101000a81548173ffffffffffffffffffffffffffffffffffffffff021916908373ffffffffffffffffffffffffffffffffffffffff16021790555050506200036a565b828054620001bd90620002eb565b90600052602060002090601f016020900481019282620001e157600085556200022d565b82601f10620001fc57805160ff19168380011785556200022d565b828001600101855582156200022d579182015b828111156200022c5782518255916020019190600101906200020f565b5b5090506200023c919062000240565b5090565b5b808211156200025b57600081600090555060010162000241565b5090565b600081519050620002708162000350565b92915050565b600080604083850312156200028a57600080fd5b60006200029a858286016200025f565b9250506020620002ad858286016200025f565b9150509250929050565b6000620002c482620002cb565b9050919050565b600073ffffffffffffffffffffffffffffffffffffffff82169050919050565b600060028204905060018216806200030457607f821691505b602082108114156200031b576200031a62000321565b5b50919050565b7f4e487b7100000000000000000000000000000000000000000000000000000000600052602260045260246000fd5b6200035b81620002b7565b81146200036757600080fd5b50565b615de2806200037a6000396000f3fe6080604052600436106101445760003560e01c806369246180116100b6578063be9af5361161006f578063be9af536146104a1578063bed659bc146104bd578063c87b56dd146104d9578063dd10a2b814610516578063e985e9c514610532578063effaa4a91461056f57610184565b8063692461801461038c57806370a08231146103bc57806395d89b41146103f9578063973e9b8b14610424578063a22cb4651461044f578063b88d4fde1461047857610184565b80632a55205a116101085780632a55205a146102805780632b1fd58a146102be5780633af7bac6146102da57806342842e0e146102f657806357c90de51461031f5780636352211e1461034f57610184565b806301ffc9a71461018957806306fdde03146101c6578063081812fc146101f1578063095ea7b31461022e57806323b872dd1461025757610184565b36610184577ff11e547d796cc64acdf758e7cee90439494fd886a19159454aa61e473fdbafef333460405161017a929190614c5c565b60405180910390a1005b600080fd5b34801561019557600080fd5b506101b060048036038101906101ab9190614445565b61058b565b6040516101bd9190614c85565b60405180910390f35b3480156101d257600080fd5b506101db61059d565b6040516101e89190614ca0565b60405180910390f35b3480156101fd57600080fd5b5061021860048036038101906102139190614497565b61062f565b6040516102259190614afd565b60405180910390f35b34801561023a57600080fd5b50610255600480360381019061025091906143a4565b6106b4565b005b34801561026357600080fd5b5061027e6004803603810190610279919061415f565b6107cc565b005b34801561028c57600080fd5b506102a760048036038101906102a29190614578565b61082c565b6040516102b5929190614c5c565b60405180910390f35b6102d860048036038101906102d39190614497565b610a17565b005b6102f460048036038101906102ef91906145b4565b6112f7565b005b34801561030257600080fd5b5061031d6004803603810190610318919061415f565b611633565b005b61033960048036038101906103349190614578565b611653565b6040516103469190615062565b60405180910390f35b34801561035b57600080fd5b5061037660048036038101906103719190614497565b611814565b6040516103839190614afd565b60405180910390f35b6103a660048036038101906103a191906144e9565b6118c6565b6040516103b39190615062565b60405180910390f35b3480156103c857600080fd5b506103e360048036038101906103de9190614048565b611cfb565b6040516103f09190615062565b60405180910390f35b34801561040557600080fd5b5061040e611db3565b60405161041b9190614ca0565b60405180910390f35b34801561043057600080fd5b50610439611e45565b6040516104469190615062565b60405180910390f35b34801561045b57600080fd5b50610476600480360381019061047191906142c7565b611f11565b005b34801561048457600080fd5b5061049f600480360381019061049a919061424c565b611f27565b005b6104bb60048036038101906104b69190614497565b611f89565b005b6104d760048036038101906104d29190614497565b6124e0565b005b3480156104e557600080fd5b5061050060048036038101906104fb9190614497565b6125d9565b60405161050d9190614ca0565b60405180910390f35b610530600480360381019061052b91906145b4565b61272b565b005b34801561053e57600080fd5b506105596004803603810190610554919061409a565b6129ac565b6040516105669190614c85565b60405180910390f35b61058960048036038101906105849190614303565b612a40565b005b600061059682612bf4565b9050919050565b6060600080546105ac90615418565b80601f01602080910402602001604051908101604052809291908181526020018280546105d890615418565b80156106255780601f106105fa57610100808354040283529160200191610625565b820191906000526020600020905b81548152906001019060200180831161060857829003601f168201915b5050505050905090565b600061063a82612c6e565b610679576040517f08c379a000000000000000000000000000000000000000000000000000000000815260040161067090614ec2565b60405180910390fd5b6004600083815260200190815260200160002060009054906101000a900473ffffffffffffffffffffffffffffffffffffffff169050919050565b60006106bf82611814565b90508073ffffffffffffffffffffffffffffffffffffffff168373ffffffffffffffffffffffffffffffffffffffff161415610730576040517f08c379a000000000000000000000000000000000000000000000000000000000815260040161072790614f22565b60405180910390fd5b8073ffffffffffffffffffffffffffffffffffffffff1661074f612cda565b73ffffffffffffffffffffffffffffffffffffffff16148061077e575061077d81610778612cda565b6129ac565b5b6107bd576040517f08c379a00000000000000000000000000000000000000000000000000000000081526004016107b490614dc2565b60405180910390fd5b6107c78383612ce2565b505050565b6107dd6107d7612cda565b82612d9b565b61081c576040517f08c379a000000000000000000000000000000000000000000000000000000000815260040161081390614f62565b60405180910390fd5b610827838383612e79565b505050565b6000806000600960008681526020019081526020016000206040518060400160405290816000820160009054906101000a900473ffffffffffffffffffffffffffffffffffffffff1673ffffffffffffffffffffffffffffffffffffffff1673ffffffffffffffffffffffffffffffffffffffff1681526020016000820160149054906101000a90046bffffffffffffffffffffffff166bffffffffffffffffffffffff166bffffffffffffffffffffffff16815250509050600073ffffffffffffffffffffffffffffffffffffffff16816000015173ffffffffffffffffffffffffffffffffffffffff1614156109c25760086040518060400160405290816000820160009054906101000a900473ffffffffffffffffffffffffffffffffffffffff1673ffffffffffffffffffffffffffffffffffffffff1673ffffffffffffffffffffffffffffffffffffffff1681526020016000820160149054906101000a90046bffffffffffffffffffffffff166bffffffffffffffffffffffff166bffffffffffffffffffffffff168152505090505b60006109cc6130e0565b6bffffffffffffffffffffffff1682602001516bffffffffffffffffffffffff16866109f891906152aa565b610a029190615279565b90508160000151819350935050509250929050565b6000600c60009054906101000a900473ffffffffffffffffffffffffffffffffffffffff1690506000600d60009054906101000a900473ffffffffffffffffffffffffffffffffffffffff1690506000808373ffffffffffffffffffffffffffffffffffffffff16638f288644866040518263ffffffff1660e01b8152600401610aa19190615062565b604080518083038186803b158015610ab857600080fd5b505afa158015610acc573d6000803e3d6000fd5b505050506040513d601f19601f82011682018060405250810190610af091906143e0565b915091506000806000806000808973ffffffffffffffffffffffffffffffffffffffff1663e597675c8c6040518263ffffffff1660e01b8152600401610b369190615062565b60c06040518083038186803b158015610b4e57600080fd5b505afa158015610b62573d6000803e3d6000fd5b505050506040513d601f19601f82011682018060405250810190610b8691906140d6565b9550955095509550955095503373ffffffffffffffffffffffffffffffffffffffff168573ffffffffffffffffffffffffffffffffffffffff1614610c00576040517f08c379a0000000000000000000000000000000000000000000000000000000008152600401610bf790614e02565b60405180910390fd5b868973ffffffffffffffffffffffffffffffffffffffff166370a082318a6040518263ffffffff1660e01b8152600401610c3a9190614afd565b60206040518083038186803b158015610c5257600080fd5b505afa158015610c66573d6000803e3d6000fd5b505050506040513d601f19601f82011682018060405250810190610c8a91906144c0565b11610cca576040517f08c379a0000000000000000000000000000000000000000000000000000000008152600401610cc190615022565b60405180910390fd5b600015158415151415610f87578973ffffffffffffffffffffffffffffffffffffffff16631e5ffb798c8a8a6040518463ffffffff1660e01b8152600401610d14939291906150f9565b600060405180830381600087803b158015610d2e57600080fd5b505af1158015610d42573d6000803e3d6000fd5b50505050610d4f876130ea565b610d5a30898d612e79565b8873ffffffffffffffffffffffffffffffffffffffff166323b872dd8984612710878c610d8791906152aa565b610d919190615279565b6040518463ffffffff1660e01b8152600401610daf93929190614b94565b602060405180830381600087803b158015610dc957600080fd5b505af1158015610ddd573d6000803e3d6000fd5b505050506040513d601f19601f82011682018060405250810190610e01919061441c565b508873ffffffffffffffffffffffffffffffffffffffff166323b872dd89306064600a548c610e3091906152aa565b610e3a9190615279565b6040518463ffffffff1660e01b8152600401610e5893929190614b94565b602060405180830381600087803b158015610e7257600080fd5b505af1158015610e86573d6000803e3d6000fd5b505050506040513d601f19601f82011682018060405250810190610eaa919061441c565b508873ffffffffffffffffffffffffffffffffffffffff166323b872dd89876064600a548c610ed991906152aa565b610ee39190615279565b612710888d610ef291906152aa565b610efc9190615279565b8c610f079190615304565b610f119190615304565b6040518463ffffffff1660e01b8152600401610f2f93929190614b94565b602060405180830381600087803b158015610f4957600080fd5b505af1158015610f5d573d6000803e3d6000fd5b505050506040513d601f19601f82011682018060405250810190610f81919061441c565b506112ea565b8973ffffffffffffffffffffffffffffffffffffffff16631e5ffb798c8a8a6040518463ffffffff1660e01b8152600401610fc4939291906150f9565b600060405180830381600087803b158015610fde57600080fd5b505af1158015610ff2573d6000803e3d6000fd5b5050505061100130898d612e79565b8873ffffffffffffffffffffffffffffffffffffffff166323b872dd89846002612710888d61103091906152aa565b61103a9190615279565b6110449190615279565b6040518463ffffffff1660e01b815260040161106293929190614b94565b602060405180830381600087803b15801561107c57600080fd5b505af1158015611090573d6000803e3d6000fd5b505050506040513d601f19601f820116820180604052508101906110b4919061441c565b508873ffffffffffffffffffffffffffffffffffffffff166323b872dd89846002612710888d6110e491906152aa565b6110ee9190615279565b6110f89190615279565b6040518463ffffffff1660e01b815260040161111693929190614b94565b602060405180830381600087803b15801561113057600080fd5b505af1158015611144573d6000803e3d6000fd5b505050506040513d601f19601f82011682018060405250810190611168919061441c565b508873ffffffffffffffffffffffffffffffffffffffff166323b872dd89306064600a548c61119791906152aa565b6111a19190615279565b6040518463ffffffff1660e01b81526004016111bf93929190614b94565b602060405180830381600087803b1580156111d957600080fd5b505af11580156111ed573d6000803e3d6000fd5b505050506040513d601f19601f82011682018060405250810190611211919061441c565b508873ffffffffffffffffffffffffffffffffffffffff166323b872dd89876064600a548c61124091906152aa565b61124a9190615279565b612710888d61125991906152aa565b6112639190615279565b8c61126e9190615304565b6112789190615304565b6040518463ffffffff1660e01b815260040161129693929190614b94565b602060405180830381600087803b1580156112b057600080fd5b505af11580156112c4573d6000803e3d6000fd5b505050506040513d601f19601f820116820180604052508101906112e8919061441c565b505b5050505050505050505050565b6002600754141561133d576040517f08c379a000000000000000000000000000000000000000000000000000000000815260040161133490614fe2565b60405180910390fd5b600260078190555060008211611388576040517f08c379a000000000000000000000000000000000000000000000000000000000815260040161137f90615002565b60405180910390fd5b3373ffffffffffffffffffffffffffffffffffffffff168173ffffffffffffffffffffffffffffffffffffffff16636352211e856040518263ffffffff1660e01b81526004016113d89190615062565b60206040518083038186803b1580156113f057600080fd5b505afa158015611404573d6000803e3d6000fd5b505050506040513d601f19601f820116820180604052508101906114289190614071565b73ffffffffffffffffffffffffffffffffffffffff161461147e576040517f08c379a000000000000000000000000000000000000000000000000000000000815260040161147590614cc2565b60405180910390fd5b6000808273ffffffffffffffffffffffffffffffffffffffff16632a55205a86866040518363ffffffff1660e01b81526004016114bc929190615130565b604080518083038186803b1580156114d357600080fd5b505afa1580156114e7573d6000803e3d6000fd5b505050506040513d601f19601f8201168201806040525081019061150b91906143e0565b9150915061151a306001611f11565b6000600c60009054906101000a900473ffffffffffffffffffffffffffffffffffffffff1690508073ffffffffffffffffffffffffffffffffffffffff16633664a060873386868a6040518663ffffffff1660e01b81526004016115829594939291906150a6565b600060405180830381600087803b15801561159c57600080fd5b505af11580156115b0573d6000803e3d6000fd5b505050508373ffffffffffffffffffffffffffffffffffffffff166323b872dd3330896040518463ffffffff1660e01b81526004016115f193929190614b94565b600060405180830381600087803b15801561160b57600080fd5b505af115801561161f573d6000803e3d6000fd5b505050505050506001600781905550505050565b61164e83838360405180602001604052806000815250611f27565b505050565b600080600c60009054906101000a900473ffffffffffffffffffffffffffffffffffffffff1690506000600d60009054906101000a900473ffffffffffffffffffffffffffffffffffffffff169050838173ffffffffffffffffffffffffffffffffffffffff166370a08231336040518263ffffffff1660e01b81526004016116dc9190614afd565b60206040518083038186803b1580156116f457600080fd5b505afa158015611708573d6000803e3d6000fd5b505050506040513d601f19601f8201168201806040525081019061172c91906144c0565b1161176c576040517f08c379a000000000000000000000000000000000000000000000000000000000815260040161176390615042565b60405180910390fd5b611775846130ea565b60008273ffffffffffffffffffffffffffffffffffffffff166308b778128733886040518463ffffffff1660e01b81526004016117b4939291906150f9565b602060405180830381600087803b1580156117ce57600080fd5b505af11580156117e2573d6000803e3d6000fd5b505050506040513d601f19601f8201168201806040525081019061180691906144c0565b905080935050505092915050565b6000806002600084815260200190815260200160002060009054906101000a900473ffffffffffffffffffffffffffffffffffffffff169050600073ffffffffffffffffffffffffffffffffffffffff168173ffffffffffffffffffffffffffffffffffffffff1614156118bd576040517f08c379a00000000000000000000000000000000000000000000000000000000081526004016118b490614e22565b60405180910390fd5b80915050919050565b60003373ffffffffffffffffffffffffffffffffffffffff168573ffffffffffffffffffffffffffffffffffffffff16636352211e886040518263ffffffff1660e01b81526004016119189190615062565b60206040518083038186803b15801561193057600080fd5b505afa158015611944573d6000803e3d6000fd5b505050506040513d601f19601f820116820180604052508101906119689190614071565b73ffffffffffffffffffffffffffffffffffffffff16146119be576040517f08c379a00000000000000000000000000000000000000000000000000000000081526004016119b590614f42565b60405180910390fd5b3373ffffffffffffffffffffffffffffffffffffffff168373ffffffffffffffffffffffffffffffffffffffff16636352211e866040518263ffffffff1660e01b8152600401611a0e9190615062565b60206040518083038186803b158015611a2657600080fd5b505afa158015611a3a573d6000803e3d6000fd5b505050506040513d601f19601f82011682018060405250810190611a5e9190614071565b73ffffffffffffffffffffffffffffffffffffffff1614611ab4576040517f08c379a0000000000000000000000000000000000000000000000000000000008152600401611aab90614ee2565b60405180910390fd5b6000670de0b6b3a764000090506000808773ffffffffffffffffffffffffffffffffffffffff16632a55205a8a856040518363ffffffff1660e01b8152600401611aff929190615130565b604080518083038186803b158015611b1657600080fd5b505afa158015611b2a573d6000803e3d6000fd5b505050506040513d601f19601f82011682018060405250810190611b4e91906143e0565b915091506000808773ffffffffffffffffffffffffffffffffffffffff16632a55205a8a876040518363ffffffff1660e01b8152600401611b90929190615130565b604080518083038186803b158015611ba757600080fd5b505afa158015611bbb573d6000803e3d6000fd5b505050506040513d601f19601f82011682018060405250810190611bdf91906143e0565b91509150600060028683611bf391906152aa565b8786611bff91906152aa565b611c099190615223565b611c139190615279565b90506000600c60009054906101000a900473ffffffffffffffffffffffffffffffffffffffff16905060008173ffffffffffffffffffffffffffffffffffffffff1663be3791b83389888c886040518663ffffffff1660e01b8152600401611c7f959493929190614b41565b602060405180830381600087803b158015611c9957600080fd5b505af1158015611cad573d6000803e3d6000fd5b505050506040513d601f19601f82011682018060405250810190611cd191906144c0565b9050611cdd3382613183565b611ce7818b61335d565b809850505050505050505095945050505050565b60008073ffffffffffffffffffffffffffffffffffffffff168273ffffffffffffffffffffffffffffffffffffffff161415611d6c576040517f08c379a0000000000000000000000000000000000000000000000000000000008152600401611d6390614de2565b60405180910390fd5b600360008373ffffffffffffffffffffffffffffffffffffffff1673ffffffffffffffffffffffffffffffffffffffff168152602001908152602001600020549050919050565b606060018054611dc290615418565b80601f0160208091040260200160405190810160405280929190818152602001828054611dee90615418565b8015611e3b5780601f10611e1057610100808354040283529160200191611e3b565b820191906000526020600020905b815481529060010190602001808311611e1e57829003601f168201915b5050505050905090565b600080600d60009054906101000a900473ffffffffffffffffffffffffffffffffffffffff169050670de0b6b3a76400008173ffffffffffffffffffffffffffffffffffffffff1663dd62ed3e33306040518363ffffffff1660e01b8152600401611eb1929190614b18565b60206040518083038186803b158015611ec957600080fd5b505afa158015611edd573d6000803e3d6000fd5b505050506040513d601f19601f82011682018060405250810190611f0191906144c0565b611f0b9190615279565b91505090565b611f23611f1c612cda565b83836133d1565b5050565b611f38611f32612cda565b83612d9b565b611f77576040517f08c379a0000000000000000000000000000000000000000000000000000000008152600401611f6e90614f62565b60405180910390fd5b611f838484848461353e565b50505050565b6000600c60009054906101000a900473ffffffffffffffffffffffffffffffffffffffff16905060008060008060008060008773ffffffffffffffffffffffffffffffffffffffff166373004ca08a6040518263ffffffff1660e01b8152600401611ff49190615062565b60e06040518083038186803b15801561200c57600080fd5b505afa158015612020573d6000803e3d6000fd5b505050506040513d601f19601f8201168201806040525081019061204491906141ae565b965096509650965096509650965061205b836130ea565b6000612710600a543461206e91906152aa565b6120789190615279565b90503073ffffffffffffffffffffffffffffffffffffffff168873ffffffffffffffffffffffffffffffffffffffff16146120e8576040517f08c379a00000000000000000000000000000000000000000000000000000000081526004016120df90614fa2565b60405180910390fd5b85341461212a576040517f08c379a000000000000000000000000000000000000000000000000000000000815260040161212190614e62565b60405180910390fd5b6000151585151514156122c8578873ffffffffffffffffffffffffffffffffffffffff16631e5ffb798b33346040518463ffffffff1660e01b8152600401612174939291906150f9565b600060405180830381600087803b15801561218e57600080fd5b505af11580156121a2573d6000803e3d6000fd5b50505050600061271085346121b791906152aa565b6121c19190615279565b90506121cc8461359a565b6121d730338d612e79565b8373ffffffffffffffffffffffffffffffffffffffff166108fc829081150290604051600060405180830381858888f1935050505015801561221d573d6000803e3d6000fd5b503073ffffffffffffffffffffffffffffffffffffffff166108fc839081150290604051600060405180830381858888f19350505050158015612264573d6000803e3d6000fd5b508773ffffffffffffffffffffffffffffffffffffffff166108fc83833461228c9190615304565b6122969190615304565b9081150290604051600060405180830381858888f193505050501580156122c1573d6000803e3d6000fd5b50506124d4565b8873ffffffffffffffffffffffffffffffffffffffff16631e5ffb798b33346040518463ffffffff1660e01b8152600401612305939291906150f9565b600060405180830381600087803b15801561231f57600080fd5b505af1158015612333573d6000803e3d6000fd5b5050505060006002612710863461234a91906152aa565b6123549190615279565b61235e9190615279565b905060006002612710873461237391906152aa565b61237d9190615279565b6123879190615279565b905061239430338e612e79565b8473ffffffffffffffffffffffffffffffffffffffff166108fc839081150290604051600060405180830381858888f193505050501580156123da573d6000803e3d6000fd5b508373ffffffffffffffffffffffffffffffffffffffff166108fc829081150290604051600060405180830381858888f19350505050158015612421573d6000803e3d6000fd5b503073ffffffffffffffffffffffffffffffffffffffff166108fc849081150290604051600060405180830381858888f19350505050158015612468573d6000803e3d6000fd5b508873ffffffffffffffffffffffffffffffffffffffff166108fc848385346124919190615304565b61249b9190615304565b6124a59190615304565b9081150290604051600060405180830381858888f193505050501580156124d0573d6000803e3d6000fd5b5050505b50505050505050505050565b60026007541415612526576040517f08c379a000000000000000000000000000000000000000000000000000000000815260040161251d90614fe2565b60405180910390fd5b60026007819055506000600c60009054906101000a900473ffffffffffffffffffffffffffffffffffffffff1690508073ffffffffffffffffffffffffffffffffffffffff1663d71240a383336040518363ffffffff1660e01b815260040161259092919061507d565b600060405180830381600087803b1580156125aa57600080fd5b505af11580156125be573d6000803e3d6000fd5b505050506125cd303384612e79565b50600160078190555050565b60606125e482612c6e565b612623576040517f08c379a000000000000000000000000000000000000000000000000000000000815260040161261a90614ea2565b60405180910390fd5b600060066000848152602001908152602001600020805461264390615418565b80601f016020809104026020016040519081016040528092919081815260200182805461266f90615418565b80156126bc5780601f10612691576101008083540402835291602001916126bc565b820191906000526020600020905b81548152906001019060200180831161269f57829003601f168201915b5050505050905060006126cd613633565b90506000815114156126e3578192505050612726565b600082511115612718578082604051602001612700929190614ad9565b60405160208183030381529060405292505050612726565b6127218461364a565b925050505b919050565b6000600c60009054906101000a900473ffffffffffffffffffffffffffffffffffffffff1690503373ffffffffffffffffffffffffffffffffffffffff168273ffffffffffffffffffffffffffffffffffffffff16636352211e866040518263ffffffff1660e01b81526004016127a29190615062565b60206040518083038186803b1580156127ba57600080fd5b505afa1580156127ce573d6000803e3d6000fd5b505050506040513d601f19601f820116820180604052508101906127f29190614071565b73ffffffffffffffffffffffffffffffffffffffff16146128bd5761284b6040518060400160405280600281526020017f68690000000000000000000000000000000000000000000000000000000000008152506136f1565b8073ffffffffffffffffffffffffffffffffffffffff1663e61b9aab85336040518363ffffffff1660e01b815260040161288692919061507d565b600060405180830381600087803b1580156128a057600080fd5b505af11580156128b4573d6000803e3d6000fd5b50505050600080fd5b8073ffffffffffffffffffffffffffffffffffffffff1663830730438533866040518463ffffffff1660e01b81526004016128fa939291906150f9565b600060405180830381600087803b15801561291457600080fd5b505af1158015612928573d6000803e3d6000fd5b50505050612937306001611f11565b8173ffffffffffffffffffffffffffffffffffffffff166323b872dd3330876040518463ffffffff1660e01b815260040161297493929190614b94565b600060405180830381600087803b15801561298e57600080fd5b505af11580156129a2573d6000803e3d6000fd5b5050505050505050565b6000600560008473ffffffffffffffffffffffffffffffffffffffff1673ffffffffffffffffffffffffffffffffffffffff16815260200190815260200160002060008373ffffffffffffffffffffffffffffffffffffffff1673ffffffffffffffffffffffffffffffffffffffff16815260200190815260200160002060009054906101000a900460ff16905092915050565b60026007541415612a86576040517f08c379a0000000000000000000000000000000000000000000000000000000008152600401612a7d90614fe2565b60405180910390fd5b60026007819055508573ffffffffffffffffffffffffffffffffffffffff163373ffffffffffffffffffffffffffffffffffffffff1614612afc576040517f08c379a0000000000000000000000000000000000000000000000000000000008152600401612af390614ce2565b60405180910390fd5b6000600c60009054906101000a900473ffffffffffffffffffffffffffffffffffffffff16905060008173ffffffffffffffffffffffffffffffffffffffff16634a090dbf858589896040518563ffffffff1660e01b8152600401612b649493929190614c17565b602060405180830381600087803b158015612b7e57600080fd5b505af1158015612b92573d6000803e3d6000fd5b505050506040513d601f19601f82011682018060405250810190612bb691906144c0565b9050612bc28482613183565b612bcc818861335d565b612bd781858761378a565b612be2848483612e79565b50506001600781905550505050505050565b60007f2a55205a000000000000000000000000000000000000000000000000000000007bffffffffffffffffffffffffffffffffffffffffffffffffffffffff1916827bffffffffffffffffffffffffffffffffffffffffffffffffffffffff19161480612c675750612c6682613932565b5b9050919050565b60008073ffffffffffffffffffffffffffffffffffffffff166002600084815260200190815260200160002060009054906101000a900473ffffffffffffffffffffffffffffffffffffffff1673ffffffffffffffffffffffffffffffffffffffff1614159050919050565b600033905090565b816004600083815260200190815260200160002060006101000a81548173ffffffffffffffffffffffffffffffffffffffff021916908373ffffffffffffffffffffffffffffffffffffffff160217905550808273ffffffffffffffffffffffffffffffffffffffff16612d5583611814565b73ffffffffffffffffffffffffffffffffffffffff167f8c5be1e5ebec7d5bd14f71427d1e84f3dd0314c0f7b2291e5b200ac8c7c3b92560405160405180910390a45050565b6000612da682612c6e565b612de5576040517f08c379a0000000000000000000000000000000000000000000000000000000008152600401612ddc90614da2565b60405180910390fd5b6000612df083611814565b90508073ffffffffffffffffffffffffffffffffffffffff168473ffffffffffffffffffffffffffffffffffffffff161480612e5f57508373ffffffffffffffffffffffffffffffffffffffff16612e478461062f565b73ffffffffffffffffffffffffffffffffffffffff16145b80612e705750612e6f81856129ac565b5b91505092915050565b8273ffffffffffffffffffffffffffffffffffffffff16612e9982611814565b73ffffffffffffffffffffffffffffffffffffffff1614612eef576040517f08c379a0000000000000000000000000000000000000000000000000000000008152600401612ee690614d22565b60405180910390fd5b600073ffffffffffffffffffffffffffffffffffffffff168273ffffffffffffffffffffffffffffffffffffffff161415612f5f576040517f08c379a0000000000000000000000000000000000000000000000000000000008152600401612f5690614d62565b60405180910390fd5b612f6a838383613a14565b612f75600082612ce2565b6001600360008573ffffffffffffffffffffffffffffffffffffffff1673ffffffffffffffffffffffffffffffffffffffff1681526020019081526020016000206000828254612fc59190615304565b925050819055506001600360008473ffffffffffffffffffffffffffffffffffffffff1673ffffffffffffffffffffffffffffffffffffffff168152602001908152602001600020600082825461301c9190615223565b92505081905550816002600083815260200190815260200160002060006101000a81548173ffffffffffffffffffffffffffffffffffffffff021916908373ffffffffffffffffffffffffffffffffffffffff160217905550808273ffffffffffffffffffffffffffffffffffffffff168473ffffffffffffffffffffffffffffffffffffffff167fddf252ad1be2c89b69c2b068fc378daa952ba7f163c4a11628f55a4df523b3ef60405160405180910390a46130db838383613a19565b505050565b6000612710905090565b613180816040516024016130fe9190615062565b6040516020818303038152906040527ff5b1bba9000000000000000000000000000000000000000000000000000000007bffffffffffffffffffffffffffffffffffffffffffffffffffffffff19166020820180517bffffffffffffffffffffffffffffffffffffffffffffffffffffffff8381831617835250505050613a1e565b50565b600073ffffffffffffffffffffffffffffffffffffffff168273ffffffffffffffffffffffffffffffffffffffff1614156131f3576040517f08c379a00000000000000000000000000000000000000000000000000000000081526004016131ea90614e82565b60405180910390fd5b6131fc81612c6e565b1561323c576040517f08c379a000000000000000000000000000000000000000000000000000000000815260040161323390614d42565b60405180910390fd5b61324860008383613a14565b6001600360008473ffffffffffffffffffffffffffffffffffffffff1673ffffffffffffffffffffffffffffffffffffffff16815260200190815260200160002060008282546132989190615223565b92505081905550816002600083815260200190815260200160002060006101000a81548173ffffffffffffffffffffffffffffffffffffffff021916908373ffffffffffffffffffffffffffffffffffffffff160217905550808273ffffffffffffffffffffffffffffffffffffffff16600073ffffffffffffffffffffffffffffffffffffffff167fddf252ad1be2c89b69c2b068fc378daa952ba7f163c4a11628f55a4df523b3ef60405160405180910390a461335960008383613a19565b5050565b61336682612c6e565b6133a5576040517f08c379a000000000000000000000000000000000000000000000000000000000815260040161339c90614e42565b60405180910390fd5b806006600084815260200190815260200160002090805190602001906133cc929190613e18565b505050565b8173ffffffffffffffffffffffffffffffffffffffff168373ffffffffffffffffffffffffffffffffffffffff161415613440576040517f08c379a000000000000000000000000000000000000000000000000000000000815260040161343790614d82565b60405180910390fd5b80600560008573ffffffffffffffffffffffffffffffffffffffff1673ffffffffffffffffffffffffffffffffffffffff16815260200190815260200160002060008473ffffffffffffffffffffffffffffffffffffffff1673ffffffffffffffffffffffffffffffffffffffff16815260200190815260200160002060006101000a81548160ff0219169083151502179055508173ffffffffffffffffffffffffffffffffffffffff168373ffffffffffffffffffffffffffffffffffffffff167f17307eab39ab6107e8899845ad3d59bd9653f200f220920489ca2b5937696c31836040516135319190614c85565b60405180910390a3505050565b613549848484612e79565b61355584848484613a47565b613594576040517f08c379a000000000000000000000000000000000000000000000000000000000815260040161358b90614d02565b60405180910390fd5b50505050565b613630816040516024016135ae9190614afd565b6040516020818303038152906040527f2c2ecbc2000000000000000000000000000000000000000000000000000000007bffffffffffffffffffffffffffffffffffffffffffffffffffffffff19166020820180517bffffffffffffffffffffffffffffffffffffffffffffffffffffffff8381831617835250505050613a1e565b50565b606060405180602001604052806000815250905090565b606061365582612c6e565b613694576040517f08c379a000000000000000000000000000000000000000000000000000000000815260040161368b90614f02565b60405180910390fd5b600061369e613633565b905060008151116136be57604051806020016040528060008152506136e9565b806136c884613bde565b6040516020016136d9929190614ad9565b6040516020818303038152906040525b915050919050565b613787816040516024016137059190614ca0565b6040516020818303038152906040527f41304fac000000000000000000000000000000000000000000000000000000007bffffffffffffffffffffffffffffffffffffffffffffffffffffffff19166020820180517bffffffffffffffffffffffffffffffffffffffffffffffffffffffff8381831617835250505050613a1e565b50565b6137926130e0565b6bffffffffffffffffffffffff16816bffffffffffffffffffffffff1611156137f0576040517f08c379a00000000000000000000000000000000000000000000000000000000081526004016137e790614fc2565b60405180910390fd5b600073ffffffffffffffffffffffffffffffffffffffff168273ffffffffffffffffffffffffffffffffffffffff161415613860576040517f08c379a000000000000000000000000000000000000000000000000000000000815260040161385790614f82565b60405180910390fd5b60405180604001604052808373ffffffffffffffffffffffffffffffffffffffff168152602001826bffffffffffffffffffffffff168152506009600085815260200190815260200160002060008201518160000160006101000a81548173ffffffffffffffffffffffffffffffffffffffff021916908373ffffffffffffffffffffffffffffffffffffffff16021790555060208201518160000160146101000a8154816bffffffffffffffffffffffff02191690836bffffffffffffffffffffffff160217905550905050505050565b60007f80ac58cd000000000000000000000000000000000000000000000000000000007bffffffffffffffffffffffffffffffffffffffffffffffffffffffff1916827bffffffffffffffffffffffffffffffffffffffffffffffffffffffff191614806139fd57507f5b5e139f000000000000000000000000000000000000000000000000000000007bffffffffffffffffffffffffffffffffffffffffffffffffffffffff1916827bffffffffffffffffffffffffffffffffffffffffffffffffffffffff1916145b80613a0d5750613a0c82613d8b565b5b9050919050565b505050565b505050565b60008151905060006a636f6e736f6c652e6c6f679050602083016000808483855afa5050505050565b6000613a688473ffffffffffffffffffffffffffffffffffffffff16613df5565b15613bd1578373ffffffffffffffffffffffffffffffffffffffff1663150b7a02613a91612cda565b8786866040518563ffffffff1660e01b8152600401613ab39493929190614bcb565b602060405180830381600087803b158015613acd57600080fd5b505af1925050508015613afe57506040513d601f19601f82011682018060405250810190613afb919061446e565b60015b613b81573d8060008114613b2e576040519150601f19603f3d011682016040523d82523d6000602084013e613b33565b606091505b50600081511415613b79576040517f08c379a0000000000000000000000000000000000000000000000000000000008152600401613b7090614d02565b60405180910390fd5b805181602001fd5b63150b7a0260e01b7bffffffffffffffffffffffffffffffffffffffffffffffffffffffff1916817bffffffffffffffffffffffffffffffffffffffffffffffffffffffff191614915050613bd6565b600190505b949350505050565b60606000821415613c26576040518060400160405280600181526020017f30000000000000000000000000000000000000000000000000000000000000008152509050613d86565b600082905060005b60008214613c58578080613c419061547b565b915050600a82613c519190615279565b9150613c2e565b60008167ffffffffffffffff811115613c9a577f4e487b7100000000000000000000000000000000000000000000000000000000600052604160045260246000fd5b6040519080825280601f01601f191660200182016040528015613ccc5781602001600182028036833780820191505090505b5090505b60008514613d7f57600182613ce59190615304565b9150600a85613cf491906154c4565b6030613d009190615223565b60f81b818381518110613d3c577f4e487b7100000000000000000000000000000000000000000000000000000000600052603260045260246000fd5b60200101907effffffffffffffffffffffffffffffffffffffffffffffffffffffffffffff1916908160001a905350600a85613d789190615279565b9450613cd0565b8093505050505b919050565b60007f01ffc9a7000000000000000000000000000000000000000000000000000000007bffffffffffffffffffffffffffffffffffffffffffffffffffffffff1916827bffffffffffffffffffffffffffffffffffffffffffffffffffffffff1916149050919050565b6000808273ffffffffffffffffffffffffffffffffffffffff163b119050919050565b828054613e2490615418565b90600052602060002090601f016020900481019282613e465760008555613e8d565b82601f10613e5f57805160ff1916838001178555613e8d565b82800160010185558215613e8d579182015b82811115613e8c578251825591602001919060010190613e71565b5b509050613e9a9190613e9e565b5090565b5b80821115613eb7576000816000905550600101613e9f565b5090565b6000613ece613ec98461517e565b615159565b905082815260208101848484011115613ee657600080fd5b613ef18482856153d6565b509392505050565b6000613f0c613f07846151af565b615159565b905082815260208101848484011115613f2457600080fd5b613f2f8482856153d6565b509392505050565b600081359050613f4681615d39565b92915050565b600081519050613f5b81615d39565b92915050565b600081359050613f7081615d50565b92915050565b600081519050613f8581615d50565b92915050565b600081359050613f9a81615d67565b92915050565b600081519050613faf81615d67565b92915050565b600082601f830112613fc657600080fd5b8135613fd6848260208601613ebb565b91505092915050565b600082601f830112613ff057600080fd5b8135614000848260208601613ef9565b91505092915050565b60008135905061401881615d7e565b92915050565b60008151905061402d81615d7e565b92915050565b60008135905061404281615d95565b92915050565b60006020828403121561405a57600080fd5b600061406884828501613f37565b91505092915050565b60006020828403121561408357600080fd5b600061409184828501613f4c565b91505092915050565b600080604083850312156140ad57600080fd5b60006140bb85828601613f37565b92505060206140cc85828601613f37565b9150509250929050565b60008060008060008060c087890312156140ef57600080fd5b60006140fd89828a01613f4c565b965050602061410e89828a01613f4c565b955050604061411f89828a01613f76565b945050606061413089828a0161401e565b935050608061414189828a01613f4c565b92505060a061415289828a01613f4c565b9150509295509295509295565b60008060006060848603121561417457600080fd5b600061418286828701613f37565b935050602061419386828701613f37565b92505060406141a486828701614009565b9150509250925092565b600080600080600080600060e0888a0312156141c957600080fd5b60006141d78a828b01613f4c565b97505060206141e88a828b01613f4c565b96505060406141f98a828b0161401e565b955050606061420a8a828b01613f76565b945050608061421b8a828b0161401e565b93505060a061422c8a828b01613f4c565b92505060c061423d8a828b01613f4c565b91505092959891949750929550565b6000806000806080858703121561426257600080fd5b600061427087828801613f37565b945050602061428187828801613f37565b935050604061429287828801614009565b925050606085013567ffffffffffffffff8111156142af57600080fd5b6142bb87828801613fb5565b91505092959194509250565b600080604083850312156142da57600080fd5b60006142e885828601613f37565b92505060206142f985828601613f61565b9150509250929050565b60008060008060008060c0878903121561431c57600080fd5b600061432a89828a01613f37565b965050602087013567ffffffffffffffff81111561434757600080fd5b61435389828a01613fdf565b955050604061436489828a01614009565b945050606061437589828a01614033565b935050608061438689828a01613f37565b92505060a061439789828a01613f37565b9150509295509295509295565b600080604083850312156143b757600080fd5b60006143c585828601613f37565b92505060206143d685828601614009565b9150509250929050565b600080604083850312156143f357600080fd5b600061440185828601613f4c565b92505060206144128582860161401e565b9150509250929050565b60006020828403121561442e57600080fd5b600061443c84828501613f76565b91505092915050565b60006020828403121561445757600080fd5b600061446584828501613f8b565b91505092915050565b60006020828403121561448057600080fd5b600061448e84828501613fa0565b91505092915050565b6000602082840312156144a957600080fd5b60006144b784828501614009565b91505092915050565b6000602082840312156144d257600080fd5b60006144e08482850161401e565b91505092915050565b600080600080600060a0868803121561450157600080fd5b600061450f88828901614009565b955050602061452088828901613f37565b945050604061453188828901614009565b935050606061454288828901613f37565b925050608086013567ffffffffffffffff81111561455f57600080fd5b61456b88828901613fdf565b9150509295509295909350565b6000806040838503121561458b57600080fd5b600061459985828601614009565b92505060206145aa85828601614009565b9150509250929050565b6000806000606084860312156145c957600080fd5b60006145d786828701614009565b93505060206145e886828701614009565b92505060406145f986828701613f37565b9150509250925092565b61460c81615338565b82525050565b61461b8161534a565b82525050565b600061462c826151e0565b61463681856151f6565b93506146468185602086016153e5565b61464f816155b1565b840191505092915050565b6000614665826151eb565b61466f8185615207565b935061467f8185602086016153e5565b614688816155b1565b840191505092915050565b600061469e826151eb565b6146a88185615218565b93506146b88185602086016153e5565b80840191505092915050565b60006146d1601983615207565b91506146dc826155c2565b602082019050919050565b60006146f4602c83615207565b91506146ff826155eb565b604082019050919050565b6000614717603283615207565b91506147228261563a565b604082019050919050565b600061473a602583615207565b915061474582615689565b604082019050919050565b600061475d601c83615207565b9150614768826156d8565b602082019050919050565b6000614780602483615207565b915061478b82615701565b604082019050919050565b60006147a3601983615207565b91506147ae82615750565b602082019050919050565b60006147c6602c83615207565b91506147d182615779565b604082019050919050565b60006147e9603883615207565b91506147f4826157c8565b604082019050919050565b600061480c602a83615207565b915061481782615817565b604082019050919050565b600061482f601883615207565b915061483a82615866565b602082019050919050565b6000614852602983615207565b915061485d8261588f565b604082019050919050565b6000614875602e83615207565b9150614880826158de565b604082019050919050565b6000614898604083615207565b91506148a38261592d565b604082019050919050565b60006148bb602083615207565b91506148c68261597c565b602082019050919050565b60006148de603183615207565b91506148e9826159a5565b604082019050919050565b6000614901602c83615207565b915061490c826159f4565b604082019050919050565b6000614924602c83615207565b915061492f82615a43565b604082019050919050565b6000614947602f83615207565b915061495282615a92565b604082019050919050565b600061496a602183615207565b915061497582615ae1565b604082019050919050565b600061498d602c83615207565b915061499882615b30565b604082019050919050565b60006149b0603183615207565b91506149bb82615b7f565b604082019050919050565b60006149d3601b83615207565b91506149de82615bce565b602082019050919050565b60006149f6602483615207565b9150614a0182615bf7565b604082019050919050565b6000614a19602a83615207565b9150614a2482615c46565b604082019050919050565b6000614a3c601f83615207565b9150614a4782615c95565b602082019050919050565b6000614a5f601c83615207565b9150614a6a82615cbe565b602082019050919050565b6000614a82602083615207565b9150614a8d82615ce7565b602082019050919050565b6000614aa5601a83615207565b9150614ab082615d10565b602082019050919050565b614ac4816153a2565b82525050565b614ad3816153c4565b82525050565b6000614ae58285614693565b9150614af18284614693565b91508190509392505050565b6000602082019050614b126000830184614603565b92915050565b6000604082019050614b2d6000830185614603565b614b3a6020830184614603565b9392505050565b600060a082019050614b566000830188614603565b614b636020830187614603565b614b706040830186614603565b614b7d6060830185614abb565b614b8a6080830184614abb565b9695505050505050565b6000606082019050614ba96000830186614603565b614bb66020830185614603565b614bc36040830184614abb565b949350505050565b6000608082019050614be06000830187614603565b614bed6020830186614603565b614bfa6040830185614abb565b8181036060830152614c0c8184614621565b905095945050505050565b6000608082019050614c2c6000830187614603565b614c396020830186614603565b614c466040830185614abb565b614c536060830184614aca565b95945050505050565b6000604082019050614c716000830185614603565b614c7e6020830184614abb565b9392505050565b6000602082019050614c9a6000830184614612565b92915050565b60006020820190508181036000830152614cba818461465a565b905092915050565b60006020820190508181036000830152614cdb816146c4565b9050919050565b60006020820190508181036000830152614cfb816146e7565b9050919050565b60006020820190508181036000830152614d1b8161470a565b9050919050565b60006020820190508181036000830152614d3b8161472d565b9050919050565b60006020820190508181036000830152614d5b81614750565b9050919050565b60006020820190508181036000830152614d7b81614773565b9050919050565b60006020820190508181036000830152614d9b81614796565b9050919050565b60006020820190508181036000830152614dbb816147b9565b9050919050565b60006020820190508181036000830152614ddb816147dc565b9050919050565b60006020820190508181036000830152614dfb816147ff565b9050919050565b60006020820190508181036000830152614e1b81614822565b9050919050565b60006020820190508181036000830152614e3b81614845565b9050919050565b60006020820190508181036000830152614e5b81614868565b9050919050565b60006020820190508181036000830152614e7b8161488b565b9050919050565b60006020820190508181036000830152614e9b816148ae565b9050919050565b60006020820190508181036000830152614ebb816148d1565b9050919050565b60006020820190508181036000830152614edb816148f4565b9050919050565b60006020820190508181036000830152614efb81614917565b9050919050565b60006020820190508181036000830152614f1b8161493a565b9050919050565b60006020820190508181036000830152614f3b8161495d565b9050919050565b60006020820190508181036000830152614f5b81614980565b9050919050565b60006020820190508181036000830152614f7b816149a3565b9050919050565b60006020820190508181036000830152614f9b816149c6565b9050919050565b60006020820190508181036000830152614fbb816149e9565b9050919050565b60006020820190508181036000830152614fdb81614a0c565b9050919050565b60006020820190508181036000830152614ffb81614a2f565b9050919050565b6000602082019050818103600083015261501b81614a52565b9050919050565b6000602082019050818103600083015261503b81614a75565b9050919050565b6000602082019050818103600083015261505b81614a98565b9050919050565b60006020820190506150776000830184614abb565b92915050565b60006040820190506150926000830185614abb565b61509f6020830184614603565b9392505050565b600060a0820190506150bb6000830188614abb565b6150c86020830187614603565b6150d56040830186614603565b6150e26060830185614abb565b6150ef6080830184614abb565b9695505050505050565b600060608201905061510e6000830186614abb565b61511b6020830185614603565b6151286040830184614abb565b949350505050565b60006040820190506151456000830185614abb565b6151526020830184614abb565b9392505050565b6000615163615174565b905061516f828261544a565b919050565b6000604051905090565b600067ffffffffffffffff82111561519957615198615582565b5b6151a2826155b1565b9050602081019050919050565b600067ffffffffffffffff8211156151ca576151c9615582565b5b6151d3826155b1565b9050602081019050919050565b600081519050919050565b600081519050919050565b600082825260208201905092915050565b600082825260208201905092915050565b600081905092915050565b600061522e826153a2565b9150615239836153a2565b9250827fffffffffffffffffffffffffffffffffffffffffffffffffffffffffffffffff0382111561526e5761526d6154f5565b5b828201905092915050565b6000615284826153a2565b915061528f836153a2565b92508261529f5761529e615524565b5b828204905092915050565b60006152b5826153a2565b91506152c0836153a2565b9250817fffffffffffffffffffffffffffffffffffffffffffffffffffffffffffffffff04831182151516156152f9576152f86154f5565b5b828202905092915050565b600061530f826153a2565b915061531a836153a2565b92508282101561532d5761532c6154f5565b5b828203905092915050565b600061534382615382565b9050919050565b60008115159050919050565b60007fffffffff0000000000000000000000000000000000000000000000000000000082169050919050565b600073ffffffffffffffffffffffffffffffffffffffff82169050919050565b6000819050919050565b60006bffffffffffffffffffffffff82169050919050565b60006153cf826153ac565b9050919050565b82818337600083830152505050565b60005b838110156154035780820151818401526020810190506153e8565b83811115615412576000848401525b50505050565b6000600282049050600182168061543057607f821691505b6020821081141561544457615443615553565b5b50919050565b615453826155b1565b810181811067ffffffffffffffff8211171561547257615471615582565b5b80604052505050565b6000615486826153a2565b91507fffffffffffffffffffffffffffffffffffffffffffffffffffffffffffffffff8214156154b9576154b86154f5565b5b600182019050919050565b60006154cf826153a2565b91506154da836153a2565b9250826154ea576154e9615524565b5b828206905092915050565b7f4e487b7100000000000000000000000000000000000000000000000000000000600052601160045260246000fd5b7f4e487b7100000000000000000000000000000000000000000000000000000000600052601260045260246000fd5b7f4e487b7100000000000000000000000000000000000000000000000000000000600052602260045260246000fd5b7f4e487b7100000000000000000000000000000000000000000000000000000000600052604160045260246000fd5b6000601f19601f8301169050919050565b7f596f7520646f206e6f74206f776e207468697320746f6b656e00000000000000600082015250565b7f4f6e6c792074686520636f6e74726f6c6c65722063616e20616363657373207460008201527f6869732066756e6374696f6e0000000000000000000000000000000000000000602082015250565b7f4552433732313a207472616e7366657220746f206e6f6e20455243373231526560008201527f63656976657220696d706c656d656e7465720000000000000000000000000000602082015250565b7f4552433732313a207472616e736665722066726f6d20696e636f72726563742060008201527f6f776e6572000000000000000000000000000000000000000000000000000000602082015250565b7f4552433732313a20746f6b656e20616c7265616479206d696e74656400000000600082015250565b7f4552433732313a207472616e7366657220746f20746865207a65726f2061646460008201527f7265737300000000000000000000000000000000000000000000000000000000602082015250565b7f4552433732313a20617070726f766520746f2063616c6c657200000000000000600082015250565b7f4552433732313a206f70657261746f7220717565727920666f72206e6f6e657860008201527f697374656e7420746f6b656e0000000000000000000000000000000000000000602082015250565b7f4552433732313a20617070726f76652063616c6c6572206973206e6f74206f7760008201527f6e6572206e6f7220617070726f76656420666f7220616c6c0000000000000000602082015250565b7f4552433732313a2062616c616e636520717565727920666f7220746865207a6560008201527f726f206164647265737300000000000000000000000000000000000000000000602082015250565b7f596f7520646f6e2774206f776e207468697320746f6b656e0000000000000000600082015250565b7f4552433732313a206f776e657220717565727920666f72206e6f6e657869737460008201527f656e7420746f6b656e0000000000000000000000000000000000000000000000602082015250565b7f45524337323155524953746f726167653a2055524920736574206f66206e6f6e60008201527f6578697374656e7420746f6b656e000000000000000000000000000000000000602082015250565b7f506c65617365207375626d6974207468652061736b696e67207072696365206960008201527f6e206f7264657220746f20636f6d706c65746520746865207075726368617365602082015250565b7f4552433732313a206d696e7420746f20746865207a65726f2061646472657373600082015250565b7f45524337323155524953746f726167653a2055524920717565727920666f722060008201527f6e6f6e6578697374656e7420746f6b656e000000000000000000000000000000602082015250565b7f4552433732313a20617070726f76656420717565727920666f72206e6f6e657860008201527f697374656e7420746f6b656e0000000000000000000000000000000000000000602082015250565b7f4f6e6c79206974656d2032206f776e65722063616e20706572666f726d20746860008201527f6973206f7065726174696f6e0000000000000000000000000000000000000000602082015250565b7f4552433732314d657461646174613a2055524920717565727920666f72206e6f60008201527f6e6578697374656e7420746f6b656e0000000000000000000000000000000000602082015250565b7f4552433732313a20617070726f76616c20746f2063757272656e74206f776e6560008201527f7200000000000000000000000000000000000000000000000000000000000000602082015250565b7f4f6e6c79206974656d2031206f776e65722063616e20706572666f726d20746860008201527f6973206f7065726174696f6e0000000000000000000000000000000000000000602082015250565b7f4552433732313a207472616e736665722063616c6c6572206973206e6f74206f60008201527f776e6572206e6f7220617070726f766564000000000000000000000000000000602082015250565b7f455243323938313a20496e76616c696420706172616d65746572730000000000600082015250565b7f4f6e6c79206d61726b6574706c616365206974656d732063616e20626520626f60008201527f7567687400000000000000000000000000000000000000000000000000000000602082015250565b7f455243323938313a20726f79616c7479206665652077696c6c2065786365656460008201527f2073616c65507269636500000000000000000000000000000000000000000000602082015250565b7f5265656e7472616e637947756172643a207265656e7472616e742063616c6c00600082015250565b7f5072696365206d757374206265206174206c6561737420312077656900000000600082015250565b7f42696464657220646f65736e2774206861766520656e6f756768206d6f6e6579600082015250565b7f596f7520646f6e2774206861766520656e6f7567682057455448000000000000600082015250565b615d4281615338565b8114615d4d57600080fd5b50565b615d598161534a565b8114615d6457600080fd5b50565b615d7081615356565b8114615d7b57600080fd5b50565b615d87816153a2565b8114615d9257600080fd5b50565b615d9e816153ac565b8114615da957600080fd5b5056fea2646970667358221220157f719c569056381623ad911d186f7f464db6a49afe14de0ab1f186989adace64736f6c63430008040033",
  "linkReferences": {},
  "deployedLinkReferences": {}
}