{
  "_format": "hh-sol-artifact-1",
  "contractName": "NFTStaking",
  "sourceName": "contracts/NFTMarketplace.sol",
  "abi": [
    {
      "inputs": [
        {
          "internalType": "contract Collection",
          "name": "_nft",
          "type": "address"
        },
        {
          "internalType": "contract TUNES",
          "name": "_token",
          "type": "address"
        }
      ],
      "stateMutability": "nonpayable",
      "type": "constructor"
    },
    {
      "anonymous": false,
      "inputs": [
        {
          "indexed": false,
          "internalType": "address",
          "name": "owner",
          "type": "address"
        },
        {
          "indexed": false,
          "internalType": "uint256",
          "name": "amount",
          "type": "uint256"
        }
      ],
      "name": "Claimed",
      "type": "event"
    },
    {
      "anonymous": false,
      "inputs": [
        {
          "indexed": false,
          "internalType": "address",
          "name": "owner",
          "type": "address"
        },
        {
          "indexed": false,
          "internalType": "uint256",
          "name": "tokenId",
          "type": "uint256"
        },
        {
          "indexed": false,
          "internalType": "uint256",
          "name": "value",
          "type": "uint256"
        }
      ],
      "name": "NFTStaked",
      "type": "event"
    },
    {
      "anonymous": false,
      "inputs": [
        {
          "indexed": false,
          "internalType": "address",
          "name": "owner",
          "type": "address"
        },
        {
          "indexed": false,
          "internalType": "uint256",
          "name": "tokenId",
          "type": "uint256"
        },
        {
          "indexed": false,
          "internalType": "uint256",
          "name": "value",
          "type": "uint256"
        }
      ],
      "name": "NFTUnstaked",
      "type": "event"
    },
    {
      "anonymous": false,
      "inputs": [
        {
          "indexed": true,
          "internalType": "address",
          "name": "previousOwner",
          "type": "address"
        },
        {
          "indexed": true,
          "internalType": "address",
          "name": "newOwner",
          "type": "address"
        }
      ],
      "name": "OwnershipTransferred",
      "type": "event"
    },
    {
      "inputs": [
        {
          "internalType": "address",
          "name": "account",
          "type": "address"
        }
      ],
      "name": "balanceOf",
      "outputs": [
        {
          "internalType": "uint256",
          "name": "",
          "type": "uint256"
        }
      ],
      "stateMutability": "view",
      "type": "function"
    },
    {
      "inputs": [
        {
          "internalType": "uint256[]",
          "name": "tokenIds",
          "type": "uint256[]"
        }
      ],
      "name": "claim",
      "outputs": [],
      "stateMutability": "nonpayable",
      "type": "function"
    },
    {
      "inputs": [
        {
          "internalType": "address",
          "name": "account",
          "type": "address"
        },
        {
          "internalType": "uint256[]",
          "name": "tokenIds",
          "type": "uint256[]"
        }
      ],
      "name": "claimForAddress",
      "outputs": [],
      "stateMutability": "nonpayable",
      "type": "function"
    },
    {
      "inputs": [
        {
          "internalType": "uint256[]",
          "name": "tokenIds",
          "type": "uint256[]"
        }
      ],
      "name": "earningInfo",
      "outputs": [
        {
          "internalType": "uint256[2]",
          "name": "info",
          "type": "uint256[2]"
        }
      ],
      "stateMutability": "view",
      "type": "function"
    },
    {
      "inputs": [
        {
          "internalType": "address",
          "name": "",
          "type": "address"
        },
        {
          "internalType": "address",
          "name": "from",
          "type": "address"
        },
        {
          "internalType": "uint256",
          "name": "",
          "type": "uint256"
        },
        {
          "internalType": "bytes",
          "name": "",
          "type": "bytes"
        }
      ],
      "name": "onERC721Received",
      "outputs": [
        {
          "internalType": "bytes4",
          "name": "",
          "type": "bytes4"
        }
      ],
      "stateMutability": "pure",
      "type": "function"
    },
    {
      "inputs": [],
      "name": "owner",
      "outputs": [
        {
          "internalType": "address",
          "name": "",
          "type": "address"
        }
      ],
      "stateMutability": "view",
      "type": "function"
    },
    {
      "inputs": [],
      "name": "renounceOwnership",
      "outputs": [],
      "stateMutability": "nonpayable",
      "type": "function"
    },
    {
      "inputs": [
        {
          "internalType": "uint256[]",
          "name": "tokenIds",
          "type": "uint256[]"
        }
      ],
      "name": "stake",
      "outputs": [],
      "stateMutability": "nonpayable",
      "type": "function"
    },
    {
      "inputs": [
        {
          "internalType": "address",
          "name": "account",
          "type": "address"
        }
      ],
      "name": "tokensOfOwner",
      "outputs": [
        {
          "internalType": "uint256[]",
          "name": "ownerTokens",
          "type": "uint256[]"
        }
      ],
      "stateMutability": "view",
      "type": "function"
    },
    {
      "inputs": [],
      "name": "totalStaked",
      "outputs": [
        {
          "internalType": "uint256",
          "name": "",
          "type": "uint256"
        }
      ],
      "stateMutability": "view",
      "type": "function"
    },
    {
      "inputs": [
        {
          "internalType": "address",
          "name": "newOwner",
          "type": "address"
        }
      ],
      "name": "transferOwnership",
      "outputs": [],
      "stateMutability": "nonpayable",
      "type": "function"
    },
    {
      "inputs": [
        {
          "internalType": "uint256[]",
          "name": "tokenIds",
          "type": "uint256[]"
        }
      ],
      "name": "unstake",
      "outputs": [],
      "stateMutability": "nonpayable",
      "type": "function"
    },
    {
      "inputs": [
        {
          "internalType": "uint256",
          "name": "",
          "type": "uint256"
        }
      ],
      "name": "vault",
      "outputs": [
        {
          "internalType": "uint24",
          "name": "tokenId",
          "type": "uint24"
        },
        {
          "internalType": "uint48",
          "name": "timestamp",
          "type": "uint48"
        },
        {
          "internalType": "address",
          "name": "owner",
          "type": "address"
        }
      ],
      "stateMutability": "view",
      "type": "function"
    }
  ],
  "bytecode": "0x60806040523480156200001157600080fd5b50604051620024d8380380620024d88339818101604052810190620000379190620001db565b620000576200004b620000e160201b60201c565b620000e960201b60201c565b81600260006101000a81548173ffffffffffffffffffffffffffffffffffffffff021916908373ffffffffffffffffffffffffffffffffffffffff16021790555080600360006101000a81548173ffffffffffffffffffffffffffffffffffffffff021916908373ffffffffffffffffffffffffffffffffffffffff1602179055505050620002ac565b600033905090565b60008060009054906101000a900473ffffffffffffffffffffffffffffffffffffffff169050816000806101000a81548173ffffffffffffffffffffffffffffffffffffffff021916908373ffffffffffffffffffffffffffffffffffffffff1602179055508173ffffffffffffffffffffffffffffffffffffffff168173ffffffffffffffffffffffffffffffffffffffff167f8be0079c531659141344cd1fd0a4f28419497f9722a3daafe3b4186f6b6457e060405160405180910390a35050565b600081519050620001be8162000278565b92915050565b600081519050620001d58162000292565b92915050565b60008060408385031215620001ef57600080fd5b6000620001ff85828601620001ad565b92505060206200021285828601620001c4565b9150509250929050565b6000620002298262000258565b9050919050565b60006200023d826200021c565b9050919050565b600062000251826200021c565b9050919050565b600073ffffffffffffffffffffffffffffffffffffffff82169050919050565b620002838162000230565b81146200028f57600080fd5b50565b6200029d8162000244565b8114620002a957600080fd5b50565b61221c80620002bc6000396000f3fe608060405234801561001057600080fd5b50600436106100cf5760003560e01c8063817b1cd21161008c5780638da5cb5b116100665780638da5cb5b14610226578063c36be35714610244578063e449f34114610260578063f2fde38b1461027c576100cf565b8063817b1cd2146101a657806381a36fb6146101c45780638462151c146101f6576100cf565b80630fbf0a93146100d4578063150b7a02146100f05780633562b086146101205780636ba4c1381461015057806370a082311461016c578063715018a61461019c575b600080fd5b6100ee60048036038101906100e9919061190e565b610298565b005b61010a60048036038101906101059190611836565b61065b565b6040516101179190611c8d565b60405180910390f35b61013a6004803603810190610135919061190e565b6106de565b6040516101479190611c50565b60405180910390f35b61016a6004803603810190610165919061190e565b610858565b005b610186600480360381019061018191906117e4565b610869565b6040516101939190611d9f565b60405180910390f35b6101a46109ba565b005b6101ae610a42565b6040516101bb9190611d9f565b60405180910390f35b6101de60048036038101906101d99190611953565b610a48565b6040516101ed93929190611d68565b60405180910390f35b610210600480360381019061020b91906117e4565b610ab3565b60405161021d9190611c6b565b60405180910390f35b61022e610df9565b60405161023b9190611b9e565b60405180910390f35b61025e600480360381019061025991906118b6565b610e22565b005b61027a6004803603810190610275919061190e565b610e34565b005b610296600480360381019061029191906117e4565b610e45565b005b600082829050600160008282546102af9190611e31565b9250508190555060005b83839050811015610655578383828181106102fd577f4e487b7100000000000000000000000000000000000000000000000000000000600052603260045260246000fd5b9050602002013591503373ffffffffffffffffffffffffffffffffffffffff16600260009054906101000a900473ffffffffffffffffffffffffffffffffffffffff1673ffffffffffffffffffffffffffffffffffffffff16636352211e846040518263ffffffff1660e01b81526004016103789190611d9f565b60206040518083038186803b15801561039057600080fd5b505afa1580156103a4573d6000803e3d6000fd5b505050506040513d601f19601f820116820180604052508101906103c8919061180d565b73ffffffffffffffffffffffffffffffffffffffff161461041e576040517f08c379a000000000000000000000000000000000000000000000000000000000815260040161041590611cc8565b60405180910390fd5b60006004600084815260200190815260200160002060000160009054906101000a900462ffffff1662ffffff161461048b576040517f08c379a000000000000000000000000000000000000000000000000000000000815260040161048290611d48565b60405180910390fd5b600260009054906101000a900473ffffffffffffffffffffffffffffffffffffffff1673ffffffffffffffffffffffffffffffffffffffff166323b872dd3330856040518463ffffffff1660e01b81526004016104ea93929190611bb9565b600060405180830381600087803b15801561050457600080fd5b505af1158015610518573d6000803e3d6000fd5b505050507f36b3725f1783bad4ff05b7f4c077c3aa68eeb23a4d054ba189db4d01ac278d3933834260405161054f93929190611c19565b60405180910390a160405180606001604052808362ffffff1681526020014265ffffffffffff1681526020013373ffffffffffffffffffffffffffffffffffffffff168152506004600084815260200190815260200160002060008201518160000160006101000a81548162ffffff021916908362ffffff16021790555060208201518160000160036101000a81548165ffffffffffff021916908365ffffffffffff16021790555060408201518160000160096101000a81548173ffffffffffffffffffffffffffffffffffffffff021916908373ffffffffffffffffffffffffffffffffffffffff160217905550905050808061064d90611fcf565b9150506102b9565b50505050565b60008073ffffffffffffffffffffffffffffffffffffffff168573ffffffffffffffffffffffffffffffffffffffff16146106cb576040517f08c379a00000000000000000000000000000000000000000000000000000000081526004016106c290611d28565b60405180910390fd5b63150b7a0260e01b905095945050505050565b6106e66116da565b60008060009050600080600460008581526020019081526020016000206040518060600160405290816000820160009054906101000a900462ffffff1662ffffff1662ffffff1681526020016000820160039054906101000a900465ffffffffffff1665ffffffffffff1665ffffffffffff1681526020016000820160099054906101000a900473ffffffffffffffffffffffffffffffffffffffff1673ffffffffffffffffffffffffffffffffffffffff1673ffffffffffffffffffffffffffffffffffffffff168152505090506000816020015165ffffffffffff169050601e81426107d49190611f12565b69152d02c7e14af68000006107e99190611eb8565b6107f39190611e87565b836107fe9190611e31565b92506000601e670de0b6b3a7640000866108189190611eb8565b6108229190611e87565b9050620186a0816108339190611e87565b9050604051806040016040528085815260200182815250965050505050505092915050565b6108653383836000610f3d565b5050565b600080600090506000600260009054906101000a900473ffffffffffffffffffffffffffffffffffffffff1673ffffffffffffffffffffffffffffffffffffffff166318160ddd6040518163ffffffff1660e01b815260040160206040518083038186803b1580156108da57600080fd5b505afa1580156108ee573d6000803e3d6000fd5b505050506040513d601f19601f82011682018060405250810190610912919061197c565b90506000600190505b8181116109af578473ffffffffffffffffffffffffffffffffffffffff166004600083815260200190815260200160002060000160099054906101000a900473ffffffffffffffffffffffffffffffffffffffff1673ffffffffffffffffffffffffffffffffffffffff16141561099c576001836109999190611e31565b92505b80806109a790611fcf565b91505061091b565b508192505050919050565b6109c2611314565b73ffffffffffffffffffffffffffffffffffffffff166109e0610df9565b73ffffffffffffffffffffffffffffffffffffffff1614610a36576040517f08c379a0000000000000000000000000000000000000000000000000000000008152600401610a2d90611ce8565b60405180910390fd5b610a40600061131c565b565b60015481565b60046020528060005260406000206000915090508060000160009054906101000a900462ffffff16908060000160039054906101000a900465ffffffffffff16908060000160099054906101000a900473ffffffffffffffffffffffffffffffffffffffff16905083565b60606000600260009054906101000a900473ffffffffffffffffffffffffffffffffffffffff1673ffffffffffffffffffffffffffffffffffffffff166318160ddd6040518163ffffffff1660e01b815260040160206040518083038186803b158015610b1f57600080fd5b505afa158015610b33573d6000803e3d6000fd5b505050506040513d601f19601f82011682018060405250810190610b57919061197c565b905060008167ffffffffffffffff811115610b9b577f4e487b7100000000000000000000000000000000000000000000000000000000600052604160045260246000fd5b604051908082528060200260200182016040528015610bc95781602001602082028036833780820191505090505b5090506000805b838111610cd4578573ffffffffffffffffffffffffffffffffffffffff166004600083815260200190815260200160002060000160099054906101000a900473ffffffffffffffffffffffffffffffffffffffff1673ffffffffffffffffffffffffffffffffffffffff161415610cc1576004600082815260200190815260200160002060000160009054906101000a900462ffffff1662ffffff16838381518110610ca5577f4e487b7100000000000000000000000000000000000000000000000000000000600052603260045260246000fd5b602002602001018181525050600182610cbe9190611e31565b91505b8080610ccc90611fcf565b915050610bd0565b5060008167ffffffffffffffff811115610d17577f4e487b7100000000000000000000000000000000000000000000000000000000600052604160045260246000fd5b604051908082528060200260200182016040528015610d455781602001602082028036833780820191505090505b50905060005b82811015610dec57838181518110610d8c577f4e487b7100000000000000000000000000000000000000000000000000000000600052603260045260246000fd5b6020026020010151828281518110610dcd577f4e487b7100000000000000000000000000000000000000000000000000000000600052603260045260246000fd5b6020026020010181815250508080610de490611fcf565b915050610d4b565b5080945050505050919050565b60008060009054906101000a900473ffffffffffffffffffffffffffffffffffffffff16905090565b610e2f8383836000610f3d565b505050565b610e413383836001610f3d565b5050565b610e4d611314565b73ffffffffffffffffffffffffffffffffffffffff16610e6b610df9565b73ffffffffffffffffffffffffffffffffffffffff1614610ec1576040517f08c379a0000000000000000000000000000000000000000000000000000000008152600401610eb890611ce8565b60405180910390fd5b600073ffffffffffffffffffffffffffffffffffffffff168173ffffffffffffffffffffffffffffffffffffffff161415610f31576040517f08c379a0000000000000000000000000000000000000000000000000000000008152600401610f2890611ca8565b60405180910390fd5b610f3a8161131c565b50565b6000806000905060005b8585905081101561121857858582818110610f8b577f4e487b7100000000000000000000000000000000000000000000000000000000600052603260045260246000fd5b9050602002013592506000600460008581526020019081526020016000206040518060600160405290816000820160009054906101000a900462ffffff1662ffffff1662ffffff1681526020016000820160039054906101000a900465ffffffffffff1665ffffffffffff1665ffffffffffff1681526020016000820160099054906101000a900473ffffffffffffffffffffffffffffffffffffffff1673ffffffffffffffffffffffffffffffffffffffff1673ffffffffffffffffffffffffffffffffffffffff168152505090508773ffffffffffffffffffffffffffffffffffffffff16816040015173ffffffffffffffffffffffffffffffffffffffff16146110cd576040517f08c379a00000000000000000000000000000000000000000000000000000000081526004016110c490611d08565b60405180910390fd5b6000816020015165ffffffffffff169050601e81426110ec9190611f12565b69152d02c7e14af68000006111019190611eb8565b61110b9190611e87565b846111169190611e31565b935060405180606001604052808662ffffff1681526020014265ffffffffffff1681526020018a73ffffffffffffffffffffffffffffffffffffffff168152506004600087815260200190815260200160002060008201518160000160006101000a81548162ffffff021916908362ffffff16021790555060208201518160000160036101000a81548165ffffffffffff021916908365ffffffffffff16021790555060408201518160000160096101000a81548173ffffffffffffffffffffffffffffffffffffffff021916908373ffffffffffffffffffffffffffffffffffffffff1602179055509050505050808061121090611fcf565b915050610f47565b5060008111156112c157600a8161122f9190611e87565b9050600360009054906101000a900473ffffffffffffffffffffffffffffffffffffffff1673ffffffffffffffffffffffffffffffffffffffff166340c10f1987836040518363ffffffff1660e01b815260040161128e929190611bf0565b600060405180830381600087803b1580156112a857600080fd5b505af11580156112bc573d6000803e3d6000fd5b505050505b82156112d3576112d28686866113e0565b5b7fd8138f8a3f377c5259ca548e70e4c2de94f129f5a11036a15b69513cba2b426a8682604051611304929190611bf0565b60405180910390a1505050505050565b600033905090565b60008060009054906101000a900473ffffffffffffffffffffffffffffffffffffffff169050816000806101000a81548173ffffffffffffffffffffffffffffffffffffffff021916908373ffffffffffffffffffffffffffffffffffffffff1602179055508173ffffffffffffffffffffffffffffffffffffffff168173ffffffffffffffffffffffffffffffffffffffff167f8be0079c531659141344cd1fd0a4f28419497f9722a3daafe3b4186f6b6457e060405160405180910390a35050565b600082829050600160008282546113f79190611f12565b9250508190555060005b838390508110156116d357838382818110611445577f4e487b7100000000000000000000000000000000000000000000000000000000600052603260045260246000fd5b9050602002013591506000600460008481526020019081526020016000206040518060600160405290816000820160009054906101000a900462ffffff1662ffffff1662ffffff1681526020016000820160039054906101000a900465ffffffffffff1665ffffffffffff1665ffffffffffff1681526020016000820160099054906101000a900473ffffffffffffffffffffffffffffffffffffffff1673ffffffffffffffffffffffffffffffffffffffff1673ffffffffffffffffffffffffffffffffffffffff168152505090503373ffffffffffffffffffffffffffffffffffffffff16816040015173ffffffffffffffffffffffffffffffffffffffff1614611587576040517f08c379a000000000000000000000000000000000000000000000000000000000815260040161157e90611d08565b60405180910390fd5b60046000848152602001908152602001600020600080820160006101000a81549062ffffff02191690556000820160036101000a81549065ffffffffffff02191690556000820160096101000a81549073ffffffffffffffffffffffffffffffffffffffff021916905550507fc486b9458a8637650d84d262414833a5a457bc91ae86b7da110386c8c3fa255b86844260405161162693929190611c19565b60405180910390a1600260009054906101000a900473ffffffffffffffffffffffffffffffffffffffff1673ffffffffffffffffffffffffffffffffffffffff166323b872dd3088866040518463ffffffff1660e01b815260040161168d93929190611bb9565b600060405180830381600087803b1580156116a757600080fd5b505af11580156116bb573d6000803e3d6000fd5b505050505080806116cb90611fcf565b915050611401565b5050505050565b6040518060400160405280600290602082028036833780820191505090505090565b60008135905061170b816121b8565b92915050565b600081519050611720816121b8565b92915050565b60008083601f84011261173857600080fd5b8235905067ffffffffffffffff81111561175157600080fd5b60208301915083602082028301111561176957600080fd5b9250929050565b60008083601f84011261178257600080fd5b8235905067ffffffffffffffff81111561179b57600080fd5b6020830191508360018202830111156117b357600080fd5b9250929050565b6000813590506117c9816121cf565b92915050565b6000815190506117de816121cf565b92915050565b6000602082840312156117f657600080fd5b6000611804848285016116fc565b91505092915050565b60006020828403121561181f57600080fd5b600061182d84828501611711565b91505092915050565b60008060008060006080868803121561184e57600080fd5b600061185c888289016116fc565b955050602061186d888289016116fc565b945050604061187e888289016117ba565b935050606086013567ffffffffffffffff81111561189b57600080fd5b6118a788828901611770565b92509250509295509295909350565b6000806000604084860312156118cb57600080fd5b60006118d9868287016116fc565b935050602084013567ffffffffffffffff8111156118f657600080fd5b61190286828701611726565b92509250509250925092565b6000806020838503121561192157600080fd5b600083013567ffffffffffffffff81111561193b57600080fd5b61194785828601611726565b92509250509250929050565b60006020828403121561196557600080fd5b6000611973848285016117ba565b91505092915050565b60006020828403121561198e57600080fd5b600061199c848285016117cf565b91505092915050565b60006119b18383611b71565b60208301905092915050565b6119c681611f46565b82525050565b6119d581611dd4565b6119df8184611e04565b92506119ea82611dba565b8060005b83811015611a1b578151611a0287826119a5565b9650611a0d83611dea565b9250506001810190506119ee565b505050505050565b6000611a2e82611ddf565b611a388185611e0f565b9350611a4383611dc4565b8060005b83811015611a74578151611a5b88826119a5565b9750611a6683611df7565b925050600181019050611a47565b5085935050505092915050565b611a8a81611f58565b82525050565b6000611a9d602683611e20565b9150611aa882612076565b604082019050919050565b6000611ac0600e83611e20565b9150611acb826120c5565b602082019050919050565b6000611ae3602083611e20565b9150611aee826120ee565b602082019050919050565b6000611b06600c83611e20565b9150611b1182612117565b602082019050919050565b6000611b29602283611e20565b9150611b3482612140565b604082019050919050565b6000611b4c600e83611e20565b9150611b578261218f565b602082019050919050565b611b6b81611fa4565b82525050565b611b7a81611fb3565b82525050565b611b8981611fb3565b82525050565b611b9881611fbd565b82525050565b6000602082019050611bb360008301846119bd565b92915050565b6000606082019050611bce60008301866119bd565b611bdb60208301856119bd565b611be86040830184611b80565b949350505050565b6000604082019050611c0560008301856119bd565b611c126020830184611b80565b9392505050565b6000606082019050611c2e60008301866119bd565b611c3b6020830185611b80565b611c486040830184611b80565b949350505050565b6000604082019050611c6560008301846119cc565b92915050565b60006020820190508181036000830152611c858184611a23565b905092915050565b6000602082019050611ca26000830184611a81565b92915050565b60006020820190508181036000830152611cc181611a90565b9050919050565b60006020820190508181036000830152611ce181611ab3565b9050919050565b60006020820190508181036000830152611d0181611ad6565b9050919050565b60006020820190508181036000830152611d2181611af9565b9050919050565b60006020820190508181036000830152611d4181611b1c565b9050919050565b60006020820190508181036000830152611d6181611b3f565b9050919050565b6000606082019050611d7d6000830186611b62565b611d8a6020830185611b8f565b611d9760408301846119bd565b949350505050565b6000602082019050611db46000830184611b80565b92915050565b6000819050919050565b6000819050602082019050919050565b600060029050919050565b600081519050919050565b6000602082019050919050565b6000602082019050919050565b600081905092915050565b600082825260208201905092915050565b600082825260208201905092915050565b6000611e3c82611fb3565b9150611e4783611fb3565b9250827fffffffffffffffffffffffffffffffffffffffffffffffffffffffffffffffff03821115611e7c57611e7b612018565b5b828201905092915050565b6000611e9282611fb3565b9150611e9d83611fb3565b925082611ead57611eac612047565b5b828204905092915050565b6000611ec382611fb3565b9150611ece83611fb3565b9250817fffffffffffffffffffffffffffffffffffffffffffffffffffffffffffffffff0483118215151615611f0757611f06612018565b5b828202905092915050565b6000611f1d82611fb3565b9150611f2883611fb3565b925082821015611f3b57611f3a612018565b5b828203905092915050565b6000611f5182611f84565b9050919050565b60007fffffffff0000000000000000000000000000000000000000000000000000000082169050919050565b600073ffffffffffffffffffffffffffffffffffffffff82169050919050565b600062ffffff82169050919050565b6000819050919050565b600065ffffffffffff82169050919050565b6000611fda82611fb3565b91507fffffffffffffffffffffffffffffffffffffffffffffffffffffffffffffffff82141561200d5761200c612018565b5b600182019050919050565b7f4e487b7100000000000000000000000000000000000000000000000000000000600052601160045260246000fd5b7f4e487b7100000000000000000000000000000000000000000000000000000000600052601260045260246000fd5b7f4f776e61626c653a206e6577206f776e657220697320746865207a65726f206160008201527f6464726573730000000000000000000000000000000000000000000000000000602082015250565b7f6e6f7420796f757220746f6b656e000000000000000000000000000000000000600082015250565b7f4f776e61626c653a2063616c6c6572206973206e6f7420746865206f776e6572600082015250565b7f6e6f7420616e206f776e65720000000000000000000000000000000000000000600082015250565b7f43616e6e6f742073656e64206e66747320746f205661756c742064697265637460008201527f6c79000000000000000000000000000000000000000000000000000000000000602082015250565b7f616c7265616479207374616b6564000000000000000000000000000000000000600082015250565b6121c181611f46565b81146121cc57600080fd5b50565b6121d881611fb3565b81146121e357600080fd5b5056fea26469706673582212205478b60ffad3c6d51e6fc8e92a4c659facaa38568c64866d2e4a192a55ce7a0164736f6c63430008040033",
  "linkReferences": {},
  "deployedLinkReferences": {}
}