{
  "_format": "hh-sol-artifact-1",
  "contractName": "NftyLazyFactory",
  "sourceName": "contracts/NFTMarketplace.sol",
  "abi": [
    {
      "inputs": [
        {
          "internalType": "address payable",
          "name": "marketplaceAddress",
          "type": "address"
        }
      ],
      "stateMutability": "nonpayable",
      "type": "constructor"
    },
    {
      "anonymous": false,
      "inputs": [
        {
          "indexed": true,
          "internalType": "address",
          "name": "owner",
          "type": "address"
        },
        {
          "indexed": true,
          "internalType": "address",
          "name": "approved",
          "type": "address"
        },
        {
          "indexed": true,
          "internalType": "uint256",
          "name": "tokenId",
          "type": "uint256"
        }
      ],
      "name": "Approval",
      "type": "event"
    },
    {
      "anonymous": false,
      "inputs": [
        {
          "indexed": true,
          "internalType": "address",
          "name": "owner",
          "type": "address"
        },
        {
          "indexed": true,
          "internalType": "address",
          "name": "operator",
          "type": "address"
        },
        {
          "indexed": false,
          "internalType": "bool",
          "name": "approved",
          "type": "bool"
        }
      ],
      "name": "ApprovalForAll",
      "type": "event"
    },
    {
      "anonymous": false,
      "inputs": [
        {
          "indexed": true,
          "internalType": "uint256",
          "name": "tokenId",
          "type": "uint256"
        }
      ],
      "name": "RedeemedAndMinted",
      "type": "event"
    },
    {
      "anonymous": false,
      "inputs": [
        {
          "indexed": true,
          "internalType": "bytes32",
          "name": "role",
          "type": "bytes32"
        },
        {
          "indexed": true,
          "internalType": "bytes32",
          "name": "previousAdminRole",
          "type": "bytes32"
        },
        {
          "indexed": true,
          "internalType": "bytes32",
          "name": "newAdminRole",
          "type": "bytes32"
        }
      ],
      "name": "RoleAdminChanged",
      "type": "event"
    },
    {
      "anonymous": false,
      "inputs": [
        {
          "indexed": true,
          "internalType": "bytes32",
          "name": "role",
          "type": "bytes32"
        },
        {
          "indexed": true,
          "internalType": "address",
          "name": "account",
          "type": "address"
        },
        {
          "indexed": true,
          "internalType": "address",
          "name": "sender",
          "type": "address"
        }
      ],
      "name": "RoleGranted",
      "type": "event"
    },
    {
      "anonymous": false,
      "inputs": [
        {
          "indexed": true,
          "internalType": "bytes32",
          "name": "role",
          "type": "bytes32"
        },
        {
          "indexed": true,
          "internalType": "address",
          "name": "account",
          "type": "address"
        },
        {
          "indexed": true,
          "internalType": "address",
          "name": "sender",
          "type": "address"
        }
      ],
      "name": "RoleRevoked",
      "type": "event"
    },
    {
      "anonymous": false,
      "inputs": [
        {
          "indexed": true,
          "internalType": "address",
          "name": "from",
          "type": "address"
        },
        {
          "indexed": true,
          "internalType": "address",
          "name": "to",
          "type": "address"
        },
        {
          "indexed": true,
          "internalType": "uint256",
          "name": "tokenId",
          "type": "uint256"
        }
      ],
      "name": "Transfer",
      "type": "event"
    },
    {
      "inputs": [],
      "name": "DEFAULT_ADMIN_ROLE",
      "outputs": [
        {
          "internalType": "bytes32",
          "name": "",
          "type": "bytes32"
        }
      ],
      "stateMutability": "view",
      "type": "function"
    },
    {
      "inputs": [],
      "name": "SIGNER_ROLE",
      "outputs": [
        {
          "internalType": "bytes32",
          "name": "",
          "type": "bytes32"
        }
      ],
      "stateMutability": "view",
      "type": "function"
    },
    {
      "inputs": [
        {
          "internalType": "address",
          "name": "to",
          "type": "address"
        },
        {
          "internalType": "uint256",
          "name": "tokenId",
          "type": "uint256"
        }
      ],
      "name": "approve",
      "outputs": [],
      "stateMutability": "nonpayable",
      "type": "function"
    },
    {
      "inputs": [
        {
          "internalType": "address",
          "name": "owner",
          "type": "address"
        }
      ],
      "name": "balanceOf",
      "outputs": [
        {
          "internalType": "uint256",
          "name": "",
          "type": "uint256"
        }
      ],
      "stateMutability": "view",
      "type": "function"
    },
    {
      "inputs": [
        {
          "internalType": "uint256",
          "name": "tokenId",
          "type": "uint256"
        }
      ],
      "name": "getApproved",
      "outputs": [
        {
          "internalType": "address",
          "name": "",
          "type": "address"
        }
      ],
      "stateMutability": "view",
      "type": "function"
    },
    {
      "inputs": [],
      "name": "getChainID",
      "outputs": [
        {
          "internalType": "uint256",
          "name": "",
          "type": "uint256"
        }
      ],
      "stateMutability": "view",
      "type": "function"
    },
    {
      "inputs": [
        {
          "internalType": "bytes32",
          "name": "role",
          "type": "bytes32"
        }
      ],
      "name": "getRoleAdmin",
      "outputs": [
        {
          "internalType": "bytes32",
          "name": "",
          "type": "bytes32"
        }
      ],
      "stateMutability": "view",
      "type": "function"
    },
    {
      "inputs": [
        {
          "internalType": "bytes32",
          "name": "role",
          "type": "bytes32"
        },
        {
          "internalType": "address",
          "name": "account",
          "type": "address"
        }
      ],
      "name": "grantRole",
      "outputs": [],
      "stateMutability": "nonpayable",
      "type": "function"
    },
    {
      "inputs": [
        {
          "internalType": "bytes32",
          "name": "role",
          "type": "bytes32"
        },
        {
          "internalType": "address",
          "name": "account",
          "type": "address"
        }
      ],
      "name": "hasRole",
      "outputs": [
        {
          "internalType": "bool",
          "name": "",
          "type": "bool"
        }
      ],
      "stateMutability": "view",
      "type": "function"
    },
    {
      "inputs": [
        {
          "internalType": "address",
          "name": "owner",
          "type": "address"
        },
        {
          "internalType": "address",
          "name": "operator",
          "type": "address"
        }
      ],
      "name": "isApprovedForAll",
      "outputs": [
        {
          "internalType": "bool",
          "name": "",
          "type": "bool"
        }
      ],
      "stateMutability": "view",
      "type": "function"
    },
    {
      "inputs": [],
      "name": "name",
      "outputs": [
        {
          "internalType": "string",
          "name": "",
          "type": "string"
        }
      ],
      "stateMutability": "view",
      "type": "function"
    },
    {
      "inputs": [
        {
          "internalType": "uint256",
          "name": "tokenId",
          "type": "uint256"
        }
      ],
      "name": "ownerOf",
      "outputs": [
        {
          "internalType": "address",
          "name": "",
          "type": "address"
        }
      ],
      "stateMutability": "view",
      "type": "function"
    },
    {
      "inputs": [
        {
          "internalType": "address",
          "name": "buyer",
          "type": "address"
        },
        {
          "components": [
            {
              "internalType": "uint256",
              "name": "artworkId",
              "type": "uint256"
            },
            {
              "internalType": "string",
              "name": "title",
              "type": "string"
            },
            {
              "internalType": "uint256",
              "name": "priceWei",
              "type": "uint256"
            },
            {
              "internalType": "string",
              "name": "tokenUri",
              "type": "string"
            },
            {
              "internalType": "string",
              "name": "content",
              "type": "string"
            },
            {
              "internalType": "uint96",
              "name": "royalty",
              "type": "uint96"
            },
            {
              "internalType": "bytes",
              "name": "signature",
              "type": "bytes"
            }
          ],
          "internalType": "struct NftyLazyFactory.Voucher",
          "name": "voucher",
          "type": "tuple"
        },
        {
          "internalType": "address",
          "name": "signer",
          "type": "address"
        }
      ],
      "name": "redeem",
      "outputs": [],
      "stateMutability": "payable",
      "type": "function"
    },
    {
      "inputs": [
        {
          "internalType": "bytes32",
          "name": "role",
          "type": "bytes32"
        },
        {
          "internalType": "address",
          "name": "account",
          "type": "address"
        }
      ],
      "name": "renounceRole",
      "outputs": [],
      "stateMutability": "nonpayable",
      "type": "function"
    },
    {
      "inputs": [
        {
          "internalType": "bytes32",
          "name": "role",
          "type": "bytes32"
        },
        {
          "internalType": "address",
          "name": "account",
          "type": "address"
        }
      ],
      "name": "revokeRole",
      "outputs": [],
      "stateMutability": "nonpayable",
      "type": "function"
    },
    {
      "inputs": [
        {
          "internalType": "address",
          "name": "from",
          "type": "address"
        },
        {
          "internalType": "address",
          "name": "to",
          "type": "address"
        },
        {
          "internalType": "uint256",
          "name": "tokenId",
          "type": "uint256"
        }
      ],
      "name": "safeTransferFrom",
      "outputs": [],
      "stateMutability": "nonpayable",
      "type": "function"
    },
    {
      "inputs": [
        {
          "internalType": "address",
          "name": "from",
          "type": "address"
        },
        {
          "internalType": "address",
          "name": "to",
          "type": "address"
        },
        {
          "internalType": "uint256",
          "name": "tokenId",
          "type": "uint256"
        },
        {
          "internalType": "bytes",
          "name": "_data",
          "type": "bytes"
        }
      ],
      "name": "safeTransferFrom",
      "outputs": [],
      "stateMutability": "nonpayable",
      "type": "function"
    },
    {
      "inputs": [
        {
          "internalType": "address",
          "name": "operator",
          "type": "address"
        },
        {
          "internalType": "bool",
          "name": "approved",
          "type": "bool"
        }
      ],
      "name": "setApprovalForAll",
      "outputs": [],
      "stateMutability": "nonpayable",
      "type": "function"
    },
    {
      "inputs": [
        {
          "internalType": "bytes4",
          "name": "interfaceId",
          "type": "bytes4"
        }
      ],
      "name": "supportsInterface",
      "outputs": [
        {
          "internalType": "bool",
          "name": "",
          "type": "bool"
        }
      ],
      "stateMutability": "view",
      "type": "function"
    },
    {
      "inputs": [],
      "name": "symbol",
      "outputs": [
        {
          "internalType": "string",
          "name": "",
          "type": "string"
        }
      ],
      "stateMutability": "view",
      "type": "function"
    },
    {
      "inputs": [
        {
          "internalType": "uint256",
          "name": "tokenId",
          "type": "uint256"
        }
      ],
      "name": "tokenURI",
      "outputs": [
        {
          "internalType": "string",
          "name": "",
          "type": "string"
        }
      ],
      "stateMutability": "view",
      "type": "function"
    },
    {
      "inputs": [
        {
          "internalType": "address",
          "name": "from",
          "type": "address"
        },
        {
          "internalType": "address",
          "name": "to",
          "type": "address"
        },
        {
          "internalType": "uint256",
          "name": "tokenId",
          "type": "uint256"
        }
      ],
      "name": "transferFrom",
      "outputs": [],
      "stateMutability": "nonpayable",
      "type": "function"
    }
  ],
  "bytecode": "0x6101406040526007600c553480156200001757600080fd5b506040516200409c3803806200409c83398181016040528101906200003d919062000503565b6040518060400160405280600481526020017f4e465459000000000000000000000000000000000000000000000000000000008152506040518060400160405280600181526020017f31000000000000000000000000000000000000000000000000000000000000008152506040518060400160405280601081526020017f4e66747954756e657320546f6b656e73000000000000000000000000000000008152506040518060400160405280600481526020017f4e4654590000000000000000000000000000000000000000000000000000000081525081600090805190602001906200012d9291906200043c565b508060019080519060200190620001469291906200043c565b50505060008280519060200120905060008280519060200120905060007f8b73c3c69bb8fe3d512ecc4cf759cc79239f7b179b0ffacaa9a75d522b39400f90508260e081815250508161010081815250504660a08181525050620001b28184846200028560201b60201c565b608081815250503073ffffffffffffffffffffffffffffffffffffffff1660c08173ffffffffffffffffffffffffffffffffffffffff1660601b815250508061012081815250505050505050600160088190555080600a60006101000a81548173ffffffffffffffffffffffffffffffffffffffff021916908373ffffffffffffffffffffffffffffffffffffffff1602179055506200027e6000801b600a60009054906101000a900473ffffffffffffffffffffffffffffffffffffffff16620002c160201b60201c565b506200069a565b60008383834630604051602001620002a295949392919062000562565b6040516020818303038152906040528051906020012090509392505050565b620002d38282620002d760201b60201c565b5050565b620002e98282620003c960201b60201c565b620003c55760016007600084815260200190815260200160002060000160008373ffffffffffffffffffffffffffffffffffffffff1673ffffffffffffffffffffffffffffffffffffffff16815260200190815260200160002060006101000a81548160ff0219169083151502179055506200036a6200043460201b60201c565b73ffffffffffffffffffffffffffffffffffffffff168173ffffffffffffffffffffffffffffffffffffffff16837f2f8788117e7eff1d82e926ec794901d17c78024a50270940304540a733656f0d60405160405180910390a45b5050565b60006007600084815260200190815260200160002060000160008373ffffffffffffffffffffffffffffffffffffffff1673ffffffffffffffffffffffffffffffffffffffff16815260200190815260200160002060009054906101000a900460ff16905092915050565b600033905090565b8280546200044a906200061b565b90600052602060002090601f0160209004810192826200046e5760008555620004ba565b82601f106200048957805160ff1916838001178555620004ba565b82800160010185558215620004ba579182015b82811115620004b95782518255916020019190600101906200049c565b5b509050620004c99190620004cd565b5090565b5b80821115620004e8576000816000905550600101620004ce565b5090565b600081519050620004fd8162000680565b92915050565b6000602082840312156200051657600080fd5b60006200052684828501620004ec565b91505092915050565b6200053a81620005bf565b82525050565b6200054b81620005e7565b82525050565b6200055c8162000611565b82525050565b600060a08201905062000579600083018862000540565b62000588602083018762000540565b62000597604083018662000540565b620005a6606083018562000551565b620005b560808301846200052f565b9695505050505050565b6000620005cc82620005f1565b9050919050565b6000620005e082620005f1565b9050919050565b6000819050919050565b600073ffffffffffffffffffffffffffffffffffffffff82169050919050565b6000819050919050565b600060028204905060018216806200063457607f821691505b602082108114156200064b576200064a62000651565b5b50919050565b7f4e487b7100000000000000000000000000000000000000000000000000000000600052602260045260246000fd5b6200068b81620005d3565b81146200069757600080fd5b50565b60805160a05160c05160601c60e05161010051610120516139c1620006db6000396000505060005050600050506000505060005050600050506139c16000f3fe6080604052600436106101355760003560e01c806370a08231116100ab578063a217fddf1161006f578063a217fddf1461043d578063a22cb46514610468578063b88d4fde14610491578063c87b56dd146104ba578063d547741f146104f7578063e985e9c51461052057610135565b806370a08231146103515780638ed8f65f1461038e57806391d14854146103aa57806395d89b41146103e7578063a1ebf35d1461041257610135565b8063248a9ca3116100fd578063248a9ca3146102315780632f2ff15d1461026e57806336568abe1461029757806342842e0e146102c0578063564b81ef146102e95780636352211e1461031457610135565b806301ffc9a71461013a57806306fdde0314610177578063081812fc146101a2578063095ea7b3146101df57806323b872dd14610208575b600080fd5b34801561014657600080fd5b50610161600480360381019061015c9190612665565b61055d565b60405161016e9190612c0f565b60405180910390f35b34801561018357600080fd5b5061018c61057f565b6040516101999190612c45565b60405180910390f35b3480156101ae57600080fd5b506101c960048036038101906101c491906126b7565b610611565b6040516101d69190612b3e565b60405180910390f35b3480156101eb57600080fd5b50610206600480360381019061020191906125c4565b610696565b005b34801561021457600080fd5b5061022f600480360381019061022a9190612457565b6107ae565b005b34801561023d57600080fd5b5061025860048036038101906102539190612600565b61080e565b6040516102659190612c2a565b60405180910390f35b34801561027a57600080fd5b5061029560048036038101906102909190612629565b61082e565b005b3480156102a357600080fd5b506102be60048036038101906102b99190612629565b610857565b005b3480156102cc57600080fd5b506102e760048036038101906102e29190612457565b6108da565b005b3480156102f557600080fd5b506102fe6108fa565b60405161030b9190612ea7565b60405180910390f35b34801561032057600080fd5b5061033b600480360381019061033691906126b7565b610907565b6040516103489190612b3e565b60405180910390f35b34801561035d57600080fd5b50610378600480360381019061037391906123f2565b6109b9565b6040516103859190612ea7565b60405180910390f35b6103a860048036038101906103a3919061255d565b610a71565b005b3480156103b657600080fd5b506103d160048036038101906103cc9190612629565b610da3565b6040516103de9190612c0f565b60405180910390f35b3480156103f357600080fd5b506103fc610e0e565b6040516104099190612c45565b60405180910390f35b34801561041e57600080fd5b50610427610ea0565b6040516104349190612c2a565b60405180910390f35b34801561044957600080fd5b50610452610ec4565b60405161045f9190612c2a565b60405180910390f35b34801561047457600080fd5b5061048f600480360381019061048a9190612521565b610ecb565b005b34801561049d57600080fd5b506104b860048036038101906104b391906124a6565b610ee1565b005b3480156104c657600080fd5b506104e160048036038101906104dc91906126b7565b610f43565b6040516104ee9190612c45565b60405180910390f35b34801561050357600080fd5b5061051e60048036038101906105199190612629565b611095565b005b34801561052c57600080fd5b506105476004803603810190610542919061241b565b6110be565b6040516105549190612c0f565b60405180910390f35b600061056882611152565b80610578575061057782611234565b5b9050919050565b60606000805461058e9061320f565b80601f01602080910402602001604051908101604052809291908181526020018280546105ba9061320f565b80156106075780601f106105dc57610100808354040283529160200191610607565b820191906000526020600020905b8154815290600101906020018083116105ea57829003601f168201915b5050505050905090565b600061061c826112ae565b61065b576040517f08c379a000000000000000000000000000000000000000000000000000000000815260040161065290612dc7565b60405180910390fd5b6004600083815260200190815260200160002060009054906101000a900473ffffffffffffffffffffffffffffffffffffffff169050919050565b60006106a182610907565b90508073ffffffffffffffffffffffffffffffffffffffff168373ffffffffffffffffffffffffffffffffffffffff161415610712576040517f08c379a000000000000000000000000000000000000000000000000000000000815260040161070990612e07565b60405180910390fd5b8073ffffffffffffffffffffffffffffffffffffffff1661073161131a565b73ffffffffffffffffffffffffffffffffffffffff161480610760575061075f8161075a61131a565b6110be565b5b61079f576040517f08c379a000000000000000000000000000000000000000000000000000000000815260040161079690612d27565b60405180910390fd5b6107a98383611322565b505050565b6107bf6107b961131a565b826113db565b6107fe576040517f08c379a00000000000000000000000000000000000000000000000000000000081526004016107f590612e47565b60405180910390fd5b6108098383836114b9565b505050565b600060076000838152602001908152602001600020600101549050919050565b6108378261080e565b6108488161084361131a565b611720565b61085283836117bd565b505050565b61085f61131a565b73ffffffffffffffffffffffffffffffffffffffff168173ffffffffffffffffffffffffffffffffffffffff16146108cc576040517f08c379a00000000000000000000000000000000000000000000000000000000081526004016108c390612e87565b60405180910390fd5b6108d6828261189e565b5050565b6108f583838360405180602001604052806000815250610ee1565b505050565b6000804690508091505090565b6000806002600084815260200190815260200160002060009054906101000a900473ffffffffffffffffffffffffffffffffffffffff169050600073ffffffffffffffffffffffffffffffffffffffff168173ffffffffffffffffffffffffffffffffffffffff1614156109b0576040517f08c379a00000000000000000000000000000000000000000000000000000000081526004016109a790612d67565b60405180910390fd5b80915050919050565b60008073ffffffffffffffffffffffffffffffffffffffff168273ffffffffffffffffffffffffffffffffffffffff161415610a2a576040517f08c379a0000000000000000000000000000000000000000000000000000000008152600401610a2190612d47565b60405180910390fd5b600360008373ffffffffffffffffffffffffffffffffffffffff1673ffffffffffffffffffffffffffffffffffffffff168152602001908152602001600020549050919050565b60026008541415610ab7576040517f08c379a0000000000000000000000000000000000000000000000000000000008152600401610aae90612e67565b60405180910390fd5b600260088190555081604001353414610b05576040517f08c379a0000000000000000000000000000000000000000000000000000000008152600401610afc90612e27565b60405180910390fd5b8273ffffffffffffffffffffffffffffffffffffffff168173ffffffffffffffffffffffffffffffffffffffff161415610b74576040517f08c379a0000000000000000000000000000000000000000000000000000000008152600401610b6b90612d87565b60405180910390fd5b610ba1600a60009054906101000a900473ffffffffffffffffffffffffffffffffffffffff166001610ecb565b6000600a60009054906101000a900473ffffffffffffffffffffffffffffffffffffffff169050600060648460a0016020810190610bdf91906126e0565b610be99190613093565b905060003490508273ffffffffffffffffffffffffffffffffffffffff1663effaa4a930878060600190610c1d9190612ec2565b85878a8d6040518863ffffffff1660e01b8152600401610c439796959493929190612ba5565b600060405180830381600087803b158015610c5d57600080fd5b505af1158015610c71573d6000803e3d6000fd5b505050508373ffffffffffffffffffffffffffffffffffffffff166108fc6064600c5484610c9f9190613039565b610ca99190613008565b83610cb491906130d9565b9081150290604051600060405180830381858888f19350505050158015610cdf573d6000803e3d6000fd5b50600a60009054906101000a900473ffffffffffffffffffffffffffffffffffffffff1673ffffffffffffffffffffffffffffffffffffffff166108fc6064600c5484610d2c9190613039565b610d369190613008565b9081150290604051600060405180830381858888f19350505050158015610d61573d6000803e3d6000fd5b5084600001357fe925326602e433d1e45b5c79b4ff305e4a75ea3a9c63be961abb9e36bd29b47c60405160405180910390a25050506001600881905550505050565b60006007600084815260200190815260200160002060000160008373ffffffffffffffffffffffffffffffffffffffff1673ffffffffffffffffffffffffffffffffffffffff16815260200190815260200160002060009054906101000a900460ff16905092915050565b606060018054610e1d9061320f565b80601f0160208091040260200160405190810160405280929190818152602001828054610e499061320f565b8015610e965780601f10610e6b57610100808354040283529160200191610e96565b820191906000526020600020905b815481529060010190602001808311610e7957829003601f168201915b5050505050905090565b7fe2f4eaae4a9751e85a3e4a7b9587827a877f29914755229b07a7b2da98285f7081565b6000801b81565b610edd610ed661131a565b8383611980565b5050565b610ef2610eec61131a565b836113db565b610f31576040517f08c379a0000000000000000000000000000000000000000000000000000000008152600401610f2890612e47565b60405180910390fd5b610f3d84848484611aed565b50505050565b6060610f4e826112ae565b610f8d576040517f08c379a0000000000000000000000000000000000000000000000000000000008152600401610f8490612da7565b60405180910390fd5b6000600660008481526020019081526020016000208054610fad9061320f565b80601f0160208091040260200160405190810160405280929190818152602001828054610fd99061320f565b80156110265780601f10610ffb57610100808354040283529160200191611026565b820191906000526020600020905b81548152906001019060200180831161100957829003601f168201915b505050505090506000611037611b49565b905060008151141561104d578192505050611090565b60008251111561108257808260405160200161106a929190612ae0565b60405160208183030381529060405292505050611090565b61108b84611b60565b925050505b919050565b61109e8261080e565b6110af816110aa61131a565b611720565b6110b9838361189e565b505050565b6000600560008473ffffffffffffffffffffffffffffffffffffffff1673ffffffffffffffffffffffffffffffffffffffff16815260200190815260200160002060008373ffffffffffffffffffffffffffffffffffffffff1673ffffffffffffffffffffffffffffffffffffffff16815260200190815260200160002060009054906101000a900460ff16905092915050565b60007f80ac58cd000000000000000000000000000000000000000000000000000000007bffffffffffffffffffffffffffffffffffffffffffffffffffffffff1916827bffffffffffffffffffffffffffffffffffffffffffffffffffffffff1916148061121d57507f5b5e139f000000000000000000000000000000000000000000000000000000007bffffffffffffffffffffffffffffffffffffffffffffffffffffffff1916827bffffffffffffffffffffffffffffffffffffffffffffffffffffffff1916145b8061122d575061122c82611c07565b5b9050919050565b60007f7965db0b000000000000000000000000000000000000000000000000000000007bffffffffffffffffffffffffffffffffffffffffffffffffffffffff1916827bffffffffffffffffffffffffffffffffffffffffffffffffffffffff191614806112a757506112a682611152565b5b9050919050565b60008073ffffffffffffffffffffffffffffffffffffffff166002600084815260200190815260200160002060009054906101000a900473ffffffffffffffffffffffffffffffffffffffff1673ffffffffffffffffffffffffffffffffffffffff1614159050919050565b600033905090565b816004600083815260200190815260200160002060006101000a81548173ffffffffffffffffffffffffffffffffffffffff021916908373ffffffffffffffffffffffffffffffffffffffff160217905550808273ffffffffffffffffffffffffffffffffffffffff1661139583610907565b73ffffffffffffffffffffffffffffffffffffffff167f8c5be1e5ebec7d5bd14f71427d1e84f3dd0314c0f7b2291e5b200ac8c7c3b92560405160405180910390a45050565b60006113e6826112ae565b611425576040517f08c379a000000000000000000000000000000000000000000000000000000000815260040161141c90612d07565b60405180910390fd5b600061143083610907565b90508073ffffffffffffffffffffffffffffffffffffffff168473ffffffffffffffffffffffffffffffffffffffff16148061149f57508373ffffffffffffffffffffffffffffffffffffffff1661148784610611565b73ffffffffffffffffffffffffffffffffffffffff16145b806114b057506114af81856110be565b5b91505092915050565b8273ffffffffffffffffffffffffffffffffffffffff166114d982610907565b73ffffffffffffffffffffffffffffffffffffffff161461152f576040517f08c379a000000000000000000000000000000000000000000000000000000000815260040161152690612ca7565b60405180910390fd5b600073ffffffffffffffffffffffffffffffffffffffff168273ffffffffffffffffffffffffffffffffffffffff16141561159f576040517f08c379a000000000000000000000000000000000000000000000000000000000815260040161159690612cc7565b60405180910390fd5b6115aa838383611c71565b6115b5600082611322565b6001600360008573ffffffffffffffffffffffffffffffffffffffff1673ffffffffffffffffffffffffffffffffffffffff168152602001908152602001600020600082825461160591906130d9565b925050819055506001600360008473ffffffffffffffffffffffffffffffffffffffff1673ffffffffffffffffffffffffffffffffffffffff168152602001908152602001600020600082825461165c9190612fb2565b92505081905550816002600083815260200190815260200160002060006101000a81548173ffffffffffffffffffffffffffffffffffffffff021916908373ffffffffffffffffffffffffffffffffffffffff160217905550808273ffffffffffffffffffffffffffffffffffffffff168473ffffffffffffffffffffffffffffffffffffffff167fddf252ad1be2c89b69c2b068fc378daa952ba7f163c4a11628f55a4df523b3ef60405160405180910390a461171b838383611c76565b505050565b61172a8282610da3565b6117b95761174f8173ffffffffffffffffffffffffffffffffffffffff166014611c7b565b61175d8360001c6020611c7b565b60405160200161176e929190612b04565b6040516020818303038152906040526040517f08c379a00000000000000000000000000000000000000000000000000000000081526004016117b09190612c45565b60405180910390fd5b5050565b6117c78282610da3565b61189a5760016007600084815260200190815260200160002060000160008373ffffffffffffffffffffffffffffffffffffffff1673ffffffffffffffffffffffffffffffffffffffff16815260200190815260200160002060006101000a81548160ff02191690831515021790555061183f61131a565b73ffffffffffffffffffffffffffffffffffffffff168173ffffffffffffffffffffffffffffffffffffffff16837f2f8788117e7eff1d82e926ec794901d17c78024a50270940304540a733656f0d60405160405180910390a45b5050565b6118a88282610da3565b1561197c5760006007600084815260200190815260200160002060000160008373ffffffffffffffffffffffffffffffffffffffff1673ffffffffffffffffffffffffffffffffffffffff16815260200190815260200160002060006101000a81548160ff02191690831515021790555061192161131a565b73ffffffffffffffffffffffffffffffffffffffff168173ffffffffffffffffffffffffffffffffffffffff16837ff6391f5c32d9c69d2a47ea670b442974b53935d1edc7fd64eb21e047a839171b60405160405180910390a45b5050565b8173ffffffffffffffffffffffffffffffffffffffff168373ffffffffffffffffffffffffffffffffffffffff1614156119ef576040517f08c379a00000000000000000000000000000000000000000000000000000000081526004016119e690612ce7565b60405180910390fd5b80600560008573ffffffffffffffffffffffffffffffffffffffff1673ffffffffffffffffffffffffffffffffffffffff16815260200190815260200160002060008473ffffffffffffffffffffffffffffffffffffffff1673ffffffffffffffffffffffffffffffffffffffff16815260200190815260200160002060006101000a81548160ff0219169083151502179055508173ffffffffffffffffffffffffffffffffffffffff168373ffffffffffffffffffffffffffffffffffffffff167f17307eab39ab6107e8899845ad3d59bd9653f200f220920489ca2b5937696c3183604051611ae09190612c0f565b60405180910390a3505050565b611af88484846114b9565b611b0484848484611f75565b611b43576040517f08c379a0000000000000000000000000000000000000000000000000000000008152600401611b3a90612c87565b60405180910390fd5b50505050565b606060405180602001604052806000815250905090565b6060611b6b826112ae565b611baa576040517f08c379a0000000000000000000000000000000000000000000000000000000008152600401611ba190612de7565b60405180910390fd5b6000611bb4611b49565b90506000815111611bd45760405180602001604052806000815250611bff565b80611bde8461210c565b604051602001611bef929190612ae0565b6040516020818303038152906040525b915050919050565b60007f01ffc9a7000000000000000000000000000000000000000000000000000000007bffffffffffffffffffffffffffffffffffffffffffffffffffffffff1916827bffffffffffffffffffffffffffffffffffffffffffffffffffffffff1916149050919050565b505050565b505050565b606060006002836002611c8e9190613039565b611c989190612fb2565b67ffffffffffffffff811115611cd7577f4e487b7100000000000000000000000000000000000000000000000000000000600052604160045260246000fd5b6040519080825280601f01601f191660200182016040528015611d095781602001600182028036833780820191505090505b5090507f300000000000000000000000000000000000000000000000000000000000000081600081518110611d67577f4e487b7100000000000000000000000000000000000000000000000000000000600052603260045260246000fd5b60200101907effffffffffffffffffffffffffffffffffffffffffffffffffffffffffffff1916908160001a9053507f780000000000000000000000000000000000000000000000000000000000000081600181518110611df1577f4e487b7100000000000000000000000000000000000000000000000000000000600052603260045260246000fd5b60200101907effffffffffffffffffffffffffffffffffffffffffffffffffffffffffffff1916908160001a90535060006001846002611e319190613039565b611e3b9190612fb2565b90505b6001811115611f27577f3031323334353637383961626364656600000000000000000000000000000000600f861660108110611ea3577f4e487b7100000000000000000000000000000000000000000000000000000000600052603260045260246000fd5b1a60f81b828281518110611ee0577f4e487b7100000000000000000000000000000000000000000000000000000000600052603260045260246000fd5b60200101907effffffffffffffffffffffffffffffffffffffffffffffffffffffffffffff1916908160001a905350600485901c945080611f20906131e5565b9050611e3e565b5060008414611f6b576040517f08c379a0000000000000000000000000000000000000000000000000000000008152600401611f6290612c67565b60405180910390fd5b8091505092915050565b6000611f968473ffffffffffffffffffffffffffffffffffffffff166122b9565b156120ff578373ffffffffffffffffffffffffffffffffffffffff1663150b7a02611fbf61131a565b8786866040518563ffffffff1660e01b8152600401611fe19493929190612b59565b602060405180830381600087803b158015611ffb57600080fd5b505af192505050801561202c57506040513d601f19601f82011682018060405250810190612029919061268e565b60015b6120af573d806000811461205c576040519150601f19603f3d011682016040523d82523d6000602084013e612061565b606091505b506000815114156120a7576040517f08c379a000000000000000000000000000000000000000000000000000000000815260040161209e90612c87565b60405180910390fd5b805181602001fd5b63150b7a0260e01b7bffffffffffffffffffffffffffffffffffffffffffffffffffffffff1916817bffffffffffffffffffffffffffffffffffffffffffffffffffffffff191614915050612104565b600190505b949350505050565b60606000821415612154576040518060400160405280600181526020017f300000000000000000000000000000000000000000000000000000000000000081525090506122b4565b600082905060005b6000821461218657808061216f90613272565b915050600a8261217f9190613008565b915061215c565b60008167ffffffffffffffff8111156121c8577f4e487b7100000000000000000000000000000000000000000000000000000000600052604160045260246000fd5b6040519080825280601f01601f1916602001820160405280156121fa5781602001600182028036833780820191505090505b5090505b600085146122ad5760018261221391906130d9565b9150600a8561222291906132bb565b603061222e9190612fb2565b60f81b81838151811061226a577f4e487b7100000000000000000000000000000000000000000000000000000000600052603260045260246000fd5b60200101907effffffffffffffffffffffffffffffffffffffffffffffffffffffffffffff1916908160001a905350600a856122a69190613008565b94506121fe565b8093505050505b919050565b6000808273ffffffffffffffffffffffffffffffffffffffff163b119050919050565b60006122ef6122ea84612f3e565b612f19565b90508281526020810184848401111561230757600080fd5b6123128482856131a3565b509392505050565b60008135905061232981613901565b92915050565b60008135905061233e81613918565b92915050565b6000813590506123538161392f565b92915050565b60008135905061236881613946565b92915050565b60008151905061237d81613946565b92915050565b600082601f83011261239457600080fd5b81356123a48482602086016122dc565b91505092915050565b600060e082840312156123bf57600080fd5b81905092915050565b6000813590506123d78161395d565b92915050565b6000813590506123ec81613974565b92915050565b60006020828403121561240457600080fd5b60006124128482850161231a565b91505092915050565b6000806040838503121561242e57600080fd5b600061243c8582860161231a565b925050602061244d8582860161231a565b9150509250929050565b60008060006060848603121561246c57600080fd5b600061247a8682870161231a565b935050602061248b8682870161231a565b925050604061249c868287016123c8565b9150509250925092565b600080600080608085870312156124bc57600080fd5b60006124ca8782880161231a565b94505060206124db8782880161231a565b93505060406124ec878288016123c8565b925050606085013567ffffffffffffffff81111561250957600080fd5b61251587828801612383565b91505092959194509250565b6000806040838503121561253457600080fd5b60006125428582860161231a565b92505060206125538582860161232f565b9150509250929050565b60008060006060848603121561257257600080fd5b60006125808682870161231a565b935050602084013567ffffffffffffffff81111561259d57600080fd5b6125a9868287016123ad565b92505060406125ba8682870161231a565b9150509250925092565b600080604083850312156125d757600080fd5b60006125e58582860161231a565b92505060206125f6858286016123c8565b9150509250929050565b60006020828403121561261257600080fd5b600061262084828501612344565b91505092915050565b6000806040838503121561263c57600080fd5b600061264a85828601612344565b925050602061265b8582860161231a565b9150509250929050565b60006020828403121561267757600080fd5b600061268584828501612359565b91505092915050565b6000602082840312156126a057600080fd5b60006126ae8482850161236e565b91505092915050565b6000602082840312156126c957600080fd5b60006126d7848285016123c8565b91505092915050565b6000602082840312156126f257600080fd5b6000612700848285016123dd565b91505092915050565b6127128161310d565b82525050565b6127218161311f565b82525050565b6127308161312b565b82525050565b600061274182612f6f565b61274b8185612f85565b935061275b8185602086016131b2565b612764816133a8565b840191505092915050565b600061277b8385612f96565b93506127888385846131a3565b612791836133a8565b840190509392505050565b60006127a782612f7a565b6127b18185612f96565b93506127c18185602086016131b2565b6127ca816133a8565b840191505092915050565b60006127e082612f7a565b6127ea8185612fa7565b93506127fa8185602086016131b2565b80840191505092915050565b6000612813602083612f96565b915061281e826133b9565b602082019050919050565b6000612836603283612f96565b9150612841826133e2565b604082019050919050565b6000612859602583612f96565b915061286482613431565b604082019050919050565b600061287c602483612f96565b915061288782613480565b604082019050919050565b600061289f601983612f96565b91506128aa826134cf565b602082019050919050565b60006128c2602c83612f96565b91506128cd826134f8565b604082019050919050565b60006128e5603883612f96565b91506128f082613547565b604082019050919050565b6000612908602a83612f96565b915061291382613596565b604082019050919050565b600061292b602983612f96565b9150612936826135e5565b604082019050919050565b600061294e602383612f96565b915061295982613634565b604082019050919050565b6000612971603183612f96565b915061297c82613683565b604082019050919050565b6000612994602c83612f96565b915061299f826136d2565b604082019050919050565b60006129b7602f83612f96565b91506129c282613721565b604082019050919050565b60006129da602183612f96565b91506129e582613770565b604082019050919050565b60006129fd601783612f96565b9150612a08826137bf565b602082019050919050565b6000612a20603183612f96565b9150612a2b826137e8565b604082019050919050565b6000612a43601783612fa7565b9150612a4e82613837565b601782019050919050565b6000612a66601f83612f96565b9150612a7182613860565b602082019050919050565b6000612a89601183612fa7565b9150612a9482613889565b601182019050919050565b6000612aac602f83612f96565b9150612ab7826138b2565b604082019050919050565b612acb81613181565b82525050565b612ada8161318b565b82525050565b6000612aec82856127d5565b9150612af882846127d5565b91508190509392505050565b6000612b0f82612a36565b9150612b1b82856127d5565b9150612b2682612a7c565b9150612b3282846127d5565b91508190509392505050565b6000602082019050612b536000830184612709565b92915050565b6000608082019050612b6e6000830187612709565b612b7b6020830186612709565b612b886040830185612ac2565b8181036060830152612b9a8184612736565b905095945050505050565b600060c082019050612bba600083018a612709565b8181036020830152612bcd81888a61276f565b9050612bdc6040830187612ac2565b612be96060830186612ad1565b612bf66080830185612709565b612c0360a0830184612709565b98975050505050505050565b6000602082019050612c246000830184612718565b92915050565b6000602082019050612c3f6000830184612727565b92915050565b60006020820190508181036000830152612c5f818461279c565b905092915050565b60006020820190508181036000830152612c8081612806565b9050919050565b60006020820190508181036000830152612ca081612829565b9050919050565b60006020820190508181036000830152612cc08161284c565b9050919050565b60006020820190508181036000830152612ce08161286f565b9050919050565b60006020820190508181036000830152612d0081612892565b9050919050565b60006020820190508181036000830152612d20816128b5565b9050919050565b60006020820190508181036000830152612d40816128d8565b9050919050565b60006020820190508181036000830152612d60816128fb565b9050919050565b60006020820190508181036000830152612d808161291e565b9050919050565b60006020820190508181036000830152612da081612941565b9050919050565b60006020820190508181036000830152612dc081612964565b9050919050565b60006020820190508181036000830152612de081612987565b9050919050565b60006020820190508181036000830152612e00816129aa565b9050919050565b60006020820190508181036000830152612e20816129cd565b9050919050565b60006020820190508181036000830152612e40816129f0565b9050919050565b60006020820190508181036000830152612e6081612a13565b9050919050565b60006020820190508181036000830152612e8081612a59565b9050919050565b60006020820190508181036000830152612ea081612a9f565b9050919050565b6000602082019050612ebc6000830184612ac2565b92915050565b60008083356001602003843603038112612edb57600080fd5b80840192508235915067ffffffffffffffff821115612ef957600080fd5b602083019250600182023603831315612f1157600080fd5b509250929050565b6000612f23612f34565b9050612f2f8282613241565b919050565b6000604051905090565b600067ffffffffffffffff821115612f5957612f58613379565b5b612f62826133a8565b9050602081019050919050565b600081519050919050565b600081519050919050565b600082825260208201905092915050565b600082825260208201905092915050565b600081905092915050565b6000612fbd82613181565b9150612fc883613181565b9250827fffffffffffffffffffffffffffffffffffffffffffffffffffffffffffffffff03821115612ffd57612ffc6132ec565b5b828201905092915050565b600061301382613181565b915061301e83613181565b92508261302e5761302d61331b565b5b828204905092915050565b600061304482613181565b915061304f83613181565b9250817fffffffffffffffffffffffffffffffffffffffffffffffffffffffffffffffff0483118215151615613088576130876132ec565b5b828202905092915050565b600061309e8261318b565b91506130a98361318b565b9250816bffffffffffffffffffffffff04831182151516156130ce576130cd6132ec565b5b828202905092915050565b60006130e482613181565b91506130ef83613181565b925082821015613102576131016132ec565b5b828203905092915050565b600061311882613161565b9050919050565b60008115159050919050565b6000819050919050565b60007fffffffff0000000000000000000000000000000000000000000000000000000082169050919050565b600073ffffffffffffffffffffffffffffffffffffffff82169050919050565b6000819050919050565b60006bffffffffffffffffffffffff82169050919050565b82818337600083830152505050565b60005b838110156131d05780820151818401526020810190506131b5565b838111156131df576000848401525b50505050565b60006131f082613181565b91506000821415613204576132036132ec565b5b600182039050919050565b6000600282049050600182168061322757607f821691505b6020821081141561323b5761323a61334a565b5b50919050565b61324a826133a8565b810181811067ffffffffffffffff8211171561326957613268613379565b5b80604052505050565b600061327d82613181565b91507fffffffffffffffffffffffffffffffffffffffffffffffffffffffffffffffff8214156132b0576132af6132ec565b5b600182019050919050565b60006132c682613181565b91506132d183613181565b9250826132e1576132e061331b565b5b828206905092915050565b7f4e487b7100000000000000000000000000000000000000000000000000000000600052601160045260246000fd5b7f4e487b7100000000000000000000000000000000000000000000000000000000600052601260045260246000fd5b7f4e487b7100000000000000000000000000000000000000000000000000000000600052602260045260246000fd5b7f4e487b7100000000000000000000000000000000000000000000000000000000600052604160045260246000fd5b6000601f19601f8301169050919050565b7f537472696e67733a20686578206c656e67746820696e73756666696369656e74600082015250565b7f4552433732313a207472616e7366657220746f206e6f6e20455243373231526560008201527f63656976657220696d706c656d656e7465720000000000000000000000000000602082015250565b7f4552433732313a207472616e736665722066726f6d20696e636f72726563742060008201527f6f776e6572000000000000000000000000000000000000000000000000000000602082015250565b7f4552433732313a207472616e7366657220746f20746865207a65726f2061646460008201527f7265737300000000000000000000000000000000000000000000000000000000602082015250565b7f4552433732313a20617070726f766520746f2063616c6c657200000000000000600082015250565b7f4552433732313a206f70657261746f7220717565727920666f72206e6f6e657860008201527f697374656e7420746f6b656e0000000000000000000000000000000000000000602082015250565b7f4552433732313a20617070726f76652063616c6c6572206973206e6f74206f7760008201527f6e6572206e6f7220617070726f76656420666f7220616c6c0000000000000000602082015250565b7f4552433732313a2062616c616e636520717565727920666f7220746865207a6560008201527f726f206164647265737300000000000000000000000000000000000000000000602082015250565b7f4552433732313a206f776e657220717565727920666f72206e6f6e657869737460008201527f656e7420746f6b656e0000000000000000000000000000000000000000000000602082015250565b7f596f752063616e206e6f7420707572636861736520796f7572206f776e20746f60008201527f6b656e0000000000000000000000000000000000000000000000000000000000602082015250565b7f45524337323155524953746f726167653a2055524920717565727920666f722060008201527f6e6f6e6578697374656e7420746f6b656e000000000000000000000000000000602082015250565b7f4552433732313a20617070726f76656420717565727920666f72206e6f6e657860008201527f697374656e7420746f6b656e0000000000000000000000000000000000000000602082015250565b7f4552433732314d657461646174613a2055524920717565727920666f72206e6f60008201527f6e6578697374656e7420746f6b656e0000000000000000000000000000000000602082015250565b7f4552433732313a20617070726f76616c20746f2063757272656e74206f776e6560008201527f7200000000000000000000000000000000000000000000000000000000000000602082015250565b7f456e7465722074686520636f7272656374207072696365000000000000000000600082015250565b7f4552433732313a207472616e736665722063616c6c6572206973206e6f74206f60008201527f776e6572206e6f7220617070726f766564000000000000000000000000000000602082015250565b7f416363657373436f6e74726f6c3a206163636f756e7420000000000000000000600082015250565b7f5265656e7472616e637947756172643a207265656e7472616e742063616c6c00600082015250565b7f206973206d697373696e6720726f6c6520000000000000000000000000000000600082015250565b7f416363657373436f6e74726f6c3a2063616e206f6e6c792072656e6f756e636560008201527f20726f6c657320666f722073656c660000000000000000000000000000000000602082015250565b61390a8161310d565b811461391557600080fd5b50565b6139218161311f565b811461392c57600080fd5b50565b6139388161312b565b811461394357600080fd5b50565b61394f81613135565b811461395a57600080fd5b50565b61396681613181565b811461397157600080fd5b50565b61397d8161318b565b811461398857600080fd5b5056fea2646970667358221220b479839dcf5ad7159bdfe41616059cf08b9de32cd12cf4c27b33ac76db960bb064736f6c63430008040033",
  "linkReferences": {},
  "deployedLinkReferences": {}
}