{
  "_format": "hh-sol-artifact-1",
  "contractName": "TUNES",
  "sourceName": "contracts/NFTMarketplace.sol",
  "abi": [
    {
      "inputs": [],
      "stateMutability": "nonpayable",
      "type": "constructor"
    },
    {
      "anonymous": false,
      "inputs": [
        {
          "indexed": true,
          "internalType": "address",
          "name": "owner",
          "type": "address"
        },
        {
          "indexed": true,
          "internalType": "address",
          "name": "spender",
          "type": "address"
        },
        {
          "indexed": false,
          "internalType": "uint256",
          "name": "value",
          "type": "uint256"
        }
      ],
      "name": "Approval",
      "type": "event"
    },
    {
      "anonymous": false,
      "inputs": [
        {
          "indexed": true,
          "internalType": "address",
          "name": "previousOwner",
          "type": "address"
        },
        {
          "indexed": true,
          "internalType": "address",
          "name": "newOwner",
          "type": "address"
        }
      ],
      "name": "OwnershipTransferred",
      "type": "event"
    },
    {
      "anonymous": false,
      "inputs": [
        {
          "indexed": true,
          "internalType": "address",
          "name": "from",
          "type": "address"
        },
        {
          "indexed": true,
          "internalType": "address",
          "name": "to",
          "type": "address"
        },
        {
          "indexed": false,
          "internalType": "uint256",
          "name": "value",
          "type": "uint256"
        }
      ],
      "name": "Transfer",
      "type": "event"
    },
    {
      "inputs": [
        {
          "internalType": "address",
          "name": "controller",
          "type": "address"
        }
      ],
      "name": "addController",
      "outputs": [],
      "stateMutability": "nonpayable",
      "type": "function"
    },
    {
      "inputs": [
        {
          "internalType": "address",
          "name": "owner",
          "type": "address"
        },
        {
          "internalType": "address",
          "name": "spender",
          "type": "address"
        }
      ],
      "name": "allowance",
      "outputs": [
        {
          "internalType": "uint256",
          "name": "",
          "type": "uint256"
        }
      ],
      "stateMutability": "view",
      "type": "function"
    },
    {
      "inputs": [
        {
          "internalType": "address",
          "name": "spender",
          "type": "address"
        },
        {
          "internalType": "uint256",
          "name": "amount",
          "type": "uint256"
        }
      ],
      "name": "approve",
      "outputs": [
        {
          "internalType": "bool",
          "name": "",
          "type": "bool"
        }
      ],
      "stateMutability": "nonpayable",
      "type": "function"
    },
    {
      "inputs": [
        {
          "internalType": "address",
          "name": "account",
          "type": "address"
        }
      ],
      "name": "balanceOf",
      "outputs": [
        {
          "internalType": "uint256",
          "name": "",
          "type": "uint256"
        }
      ],
      "stateMutability": "view",
      "type": "function"
    },
    {
      "inputs": [
        {
          "internalType": "uint256",
          "name": "amount",
          "type": "uint256"
        }
      ],
      "name": "burn",
      "outputs": [],
      "stateMutability": "nonpayable",
      "type": "function"
    },
    {
      "inputs": [
        {
          "internalType": "address",
          "name": "account",
          "type": "address"
        },
        {
          "internalType": "uint256",
          "name": "amount",
          "type": "uint256"
        }
      ],
      "name": "burnFrom",
      "outputs": [],
      "stateMutability": "nonpayable",
      "type": "function"
    },
    {
      "inputs": [],
      "name": "decimals",
      "outputs": [
        {
          "internalType": "uint8",
          "name": "",
          "type": "uint8"
        }
      ],
      "stateMutability": "view",
      "type": "function"
    },
    {
      "inputs": [
        {
          "internalType": "address",
          "name": "spender",
          "type": "address"
        },
        {
          "internalType": "uint256",
          "name": "subtractedValue",
          "type": "uint256"
        }
      ],
      "name": "decreaseAllowance",
      "outputs": [
        {
          "internalType": "bool",
          "name": "",
          "type": "bool"
        }
      ],
      "stateMutability": "nonpayable",
      "type": "function"
    },
    {
      "inputs": [
        {
          "internalType": "address",
          "name": "spender",
          "type": "address"
        },
        {
          "internalType": "uint256",
          "name": "addedValue",
          "type": "uint256"
        }
      ],
      "name": "increaseAllowance",
      "outputs": [
        {
          "internalType": "bool",
          "name": "",
          "type": "bool"
        }
      ],
      "stateMutability": "nonpayable",
      "type": "function"
    },
    {
      "inputs": [
        {
          "internalType": "address",
          "name": "to",
          "type": "address"
        },
        {
          "internalType": "uint256",
          "name": "amount",
          "type": "uint256"
        }
      ],
      "name": "mint",
      "outputs": [],
      "stateMutability": "nonpayable",
      "type": "function"
    },
    {
      "inputs": [],
      "name": "name",
      "outputs": [
        {
          "internalType": "string",
          "name": "",
          "type": "string"
        }
      ],
      "stateMutability": "view",
      "type": "function"
    },
    {
      "inputs": [],
      "name": "owner",
      "outputs": [
        {
          "internalType": "address",
          "name": "",
          "type": "address"
        }
      ],
      "stateMutability": "view",
      "type": "function"
    },
    {
      "inputs": [
        {
          "internalType": "address",
          "name": "controller",
          "type": "address"
        }
      ],
      "name": "removeController",
      "outputs": [],
      "stateMutability": "nonpayable",
      "type": "function"
    },
    {
      "inputs": [],
      "name": "renounceOwnership",
      "outputs": [],
      "stateMutability": "nonpayable",
      "type": "function"
    },
    {
      "inputs": [],
      "name": "symbol",
      "outputs": [
        {
          "internalType": "string",
          "name": "",
          "type": "string"
        }
      ],
      "stateMutability": "view",
      "type": "function"
    },
    {
      "inputs": [],
      "name": "totalSupply",
      "outputs": [
        {
          "internalType": "uint256",
          "name": "",
          "type": "uint256"
        }
      ],
      "stateMutability": "view",
      "type": "function"
    },
    {
      "inputs": [
        {
          "internalType": "address",
          "name": "to",
          "type": "address"
        },
        {
          "internalType": "uint256",
          "name": "amount",
          "type": "uint256"
        }
      ],
      "name": "transfer",
      "outputs": [
        {
          "internalType": "bool",
          "name": "",
          "type": "bool"
        }
      ],
      "stateMutability": "nonpayable",
      "type": "function"
    },
    {
      "inputs": [
        {
          "internalType": "address",
          "name": "from",
          "type": "address"
        },
        {
          "internalType": "address",
          "name": "to",
          "type": "address"
        },
        {
          "internalType": "uint256",
          "name": "amount",
          "type": "uint256"
        }
      ],
      "name": "transferFrom",
      "outputs": [
        {
          "internalType": "bool",
          "name": "",
          "type": "bool"
        }
      ],
      "stateMutability": "nonpayable",
      "type": "function"
    },
    {
      "inputs": [
        {
          "internalType": "address",
          "name": "newOwner",
          "type": "address"
        }
      ],
      "name": "transferOwnership",
      "outputs": [],
      "stateMutability": "nonpayable",
      "type": "function"
    }
  ],
  "bytecode": "0x60806040523480156200001157600080fd5b506040518060400160405280600981526020017f4e66747954756e657300000000000000000000000000000000000000000000008152506040518060400160405280600581526020017f54554e4553000000000000000000000000000000000000000000000000000000815250816003908051906020019062000096929190620001a6565b508060049080519060200190620000af929190620001a6565b505050620000d2620000c6620000d860201b60201c565b620000e060201b60201c565b620002bb565b600033905090565b6000600560009054906101000a900473ffffffffffffffffffffffffffffffffffffffff16905081600560006101000a81548173ffffffffffffffffffffffffffffffffffffffff021916908373ffffffffffffffffffffffffffffffffffffffff1602179055508173ffffffffffffffffffffffffffffffffffffffff168173ffffffffffffffffffffffffffffffffffffffff167f8be0079c531659141344cd1fd0a4f28419497f9722a3daafe3b4186f6b6457e060405160405180910390a35050565b828054620001b49062000256565b90600052602060002090601f016020900481019282620001d8576000855562000224565b82601f10620001f357805160ff191683800117855562000224565b8280016001018555821562000224579182015b828111156200022357825182559160200191906001019062000206565b5b50905062000233919062000237565b5090565b5b808211156200025257600081600090555060010162000238565b5090565b600060028204905060018216806200026f57607f821691505b602082108114156200028657620002856200028c565b5b50919050565b7f4e487b7100000000000000000000000000000000000000000000000000000000600052602260045260246000fd5b61209580620002cb6000396000f3fe608060405234801561001057600080fd5b50600436106101215760003560e01c8063715018a6116100ad578063a7fc7a0711610071578063a7fc7a071461030a578063a9059cbb14610326578063dd62ed3e14610356578063f2fde38b14610386578063f6a74ed7146103a257610121565b8063715018a61461027857806379cc6790146102825780638da5cb5b1461029e57806395d89b41146102bc578063a457c2d7146102da57610121565b8063313ce567116100f4578063313ce567146101c257806339509351146101e057806340c10f191461021057806342966c681461022c57806370a082311461024857610121565b806306fdde0314610126578063095ea7b31461014457806318160ddd1461017457806323b872dd14610192575b600080fd5b61012e6103be565b60405161013b91906118ff565b60405180910390f35b61015e60048036038101906101599190611628565b610450565b60405161016b91906118e4565b60405180910390f35b61017c610473565b6040516101899190611ac1565b60405180910390f35b6101ac60048036038101906101a791906115d9565b61047d565b6040516101b991906118e4565b60405180910390f35b6101ca6104ac565b6040516101d79190611adc565b60405180910390f35b6101fa60048036038101906101f59190611628565b6104b5565b60405161020791906118e4565b60405180910390f35b61022a60048036038101906102259190611628565b61055f565b005b61024660048036038101906102419190611664565b6105f9565b005b610262600480360381019061025d9190611574565b61060d565b60405161026f9190611ac1565b60405180910390f35b610280610655565b005b61029c60048036038101906102979190611628565b6106dd565b005b6102a661074d565b6040516102b391906118c9565b60405180910390f35b6102c4610777565b6040516102d191906118ff565b60405180910390f35b6102f460048036038101906102ef9190611628565b610809565b60405161030191906118e4565b60405180910390f35b610324600480360381019061031f9190611574565b6108f3565b005b610340600480360381019061033b9190611628565b6109ca565b60405161034d91906118e4565b60405180910390f35b610370600480360381019061036b919061159d565b6109ed565b60405161037d9190611ac1565b60405180910390f35b6103a0600480360381019061039b9190611574565b610a74565b005b6103bc60048036038101906103b79190611574565b610b6c565b005b6060600380546103cd90611c25565b80601f01602080910402602001604051908101604052809291908181526020018280546103f990611c25565b80156104465780601f1061041b57610100808354040283529160200191610446565b820191906000526020600020905b81548152906001019060200180831161042957829003601f168201915b5050505050905090565b60008061045b610c43565b9050610468818585610c4b565b600191505092915050565b6000600254905090565b600080610488610c43565b9050610495858285610e16565b6104a0858585610ea2565b60019150509392505050565b60006012905090565b6000806104c0610c43565b9050610554818585600160008673ffffffffffffffffffffffffffffffffffffffff1673ffffffffffffffffffffffffffffffffffffffff16815260200190815260200160002060008973ffffffffffffffffffffffffffffffffffffffff1673ffffffffffffffffffffffffffffffffffffffff1681526020019081526020016000205461054f9190611b13565b610c4b565b600191505092915050565b600660003373ffffffffffffffffffffffffffffffffffffffff1673ffffffffffffffffffffffffffffffffffffffff16815260200190815260200160002060009054906101000a900460ff166105eb576040517f08c379a00000000000000000000000000000000000000000000000000000000081526004016105e2906119e1565b60405180910390fd5b6105f58282611123565b5050565b61060a610604610c43565b82611283565b50565b60008060008373ffffffffffffffffffffffffffffffffffffffff1673ffffffffffffffffffffffffffffffffffffffff168152602001908152602001600020549050919050565b61065d610c43565b73ffffffffffffffffffffffffffffffffffffffff1661067b61074d565b73ffffffffffffffffffffffffffffffffffffffff16146106d1576040517f08c379a00000000000000000000000000000000000000000000000000000000081526004016106c890611a01565b60405180910390fd5b6106db600061145a565b565b600660003373ffffffffffffffffffffffffffffffffffffffff1673ffffffffffffffffffffffffffffffffffffffff16815260200190815260200160002060009054906101000a900460ff161561073e576107398282611283565b610749565b6107488282611520565b5b5050565b6000600560009054906101000a900473ffffffffffffffffffffffffffffffffffffffff16905090565b60606004805461078690611c25565b80601f01602080910402602001604051908101604052809291908181526020018280546107b290611c25565b80156107ff5780601f106107d4576101008083540402835291602001916107ff565b820191906000526020600020905b8154815290600101906020018083116107e257829003601f168201915b5050505050905090565b600080610814610c43565b90506000600160008373ffffffffffffffffffffffffffffffffffffffff1673ffffffffffffffffffffffffffffffffffffffff16815260200190815260200160002060008673ffffffffffffffffffffffffffffffffffffffff1673ffffffffffffffffffffffffffffffffffffffff168152602001908152602001600020549050838110156108da576040517f08c379a00000000000000000000000000000000000000000000000000000000081526004016108d190611a81565b60405180910390fd5b6108e78286868403610c4b565b60019250505092915050565b6108fb610c43565b73ffffffffffffffffffffffffffffffffffffffff1661091961074d565b73ffffffffffffffffffffffffffffffffffffffff161461096f576040517f08c379a000000000000000000000000000000000000000000000000000000000815260040161096690611a01565b60405180910390fd5b6001600660008373ffffffffffffffffffffffffffffffffffffffff1673ffffffffffffffffffffffffffffffffffffffff16815260200190815260200160002060006101000a81548160ff02191690831515021790555050565b6000806109d5610c43565b90506109e2818585610ea2565b600191505092915050565b6000600160008473ffffffffffffffffffffffffffffffffffffffff1673ffffffffffffffffffffffffffffffffffffffff16815260200190815260200160002060008373ffffffffffffffffffffffffffffffffffffffff1673ffffffffffffffffffffffffffffffffffffffff16815260200190815260200160002054905092915050565b610a7c610c43565b73ffffffffffffffffffffffffffffffffffffffff16610a9a61074d565b73ffffffffffffffffffffffffffffffffffffffff1614610af0576040517f08c379a0000000000000000000000000000000000000000000000000000000008152600401610ae790611a01565b60405180910390fd5b600073ffffffffffffffffffffffffffffffffffffffff168173ffffffffffffffffffffffffffffffffffffffff161415610b60576040517f08c379a0000000000000000000000000000000000000000000000000000000008152600401610b5790611961565b60405180910390fd5b610b698161145a565b50565b610b74610c43565b73ffffffffffffffffffffffffffffffffffffffff16610b9261074d565b73ffffffffffffffffffffffffffffffffffffffff1614610be8576040517f08c379a0000000000000000000000000000000000000000000000000000000008152600401610bdf90611a01565b60405180910390fd5b6000600660008373ffffffffffffffffffffffffffffffffffffffff1673ffffffffffffffffffffffffffffffffffffffff16815260200190815260200160002060006101000a81548160ff02191690831515021790555050565b600033905090565b600073ffffffffffffffffffffffffffffffffffffffff168373ffffffffffffffffffffffffffffffffffffffff161415610cbb576040517f08c379a0000000000000000000000000000000000000000000000000000000008152600401610cb290611a61565b60405180910390fd5b600073ffffffffffffffffffffffffffffffffffffffff168273ffffffffffffffffffffffffffffffffffffffff161415610d2b576040517f08c379a0000000000000000000000000000000000000000000000000000000008152600401610d2290611981565b60405180910390fd5b80600160008573ffffffffffffffffffffffffffffffffffffffff1673ffffffffffffffffffffffffffffffffffffffff16815260200190815260200160002060008473ffffffffffffffffffffffffffffffffffffffff1673ffffffffffffffffffffffffffffffffffffffff168152602001908152602001600020819055508173ffffffffffffffffffffffffffffffffffffffff168373ffffffffffffffffffffffffffffffffffffffff167f8c5be1e5ebec7d5bd14f71427d1e84f3dd0314c0f7b2291e5b200ac8c7c3b92583604051610e099190611ac1565b60405180910390a3505050565b6000610e2284846109ed565b90507fffffffffffffffffffffffffffffffffffffffffffffffffffffffffffffffff8114610e9c5781811015610e8e576040517f08c379a0000000000000000000000000000000000000000000000000000000008152600401610e85906119a1565b60405180910390fd5b610e9b8484848403610c4b565b5b50505050565b600073ffffffffffffffffffffffffffffffffffffffff168373ffffffffffffffffffffffffffffffffffffffff161415610f12576040517f08c379a0000000000000000000000000000000000000000000000000000000008152600401610f0990611a41565b60405180910390fd5b600073ffffffffffffffffffffffffffffffffffffffff168273ffffffffffffffffffffffffffffffffffffffff161415610f82576040517f08c379a0000000000000000000000000000000000000000000000000000000008152600401610f7990611921565b60405180910390fd5b610f8d838383611540565b60008060008573ffffffffffffffffffffffffffffffffffffffff1673ffffffffffffffffffffffffffffffffffffffff16815260200190815260200160002054905081811015611013576040517f08c379a000000000000000000000000000000000000000000000000000000000815260040161100a906119c1565b60405180910390fd5b8181036000808673ffffffffffffffffffffffffffffffffffffffff1673ffffffffffffffffffffffffffffffffffffffff16815260200190815260200160002081905550816000808573ffffffffffffffffffffffffffffffffffffffff1673ffffffffffffffffffffffffffffffffffffffff16815260200190815260200160002060008282546110a69190611b13565b925050819055508273ffffffffffffffffffffffffffffffffffffffff168473ffffffffffffffffffffffffffffffffffffffff167fddf252ad1be2c89b69c2b068fc378daa952ba7f163c4a11628f55a4df523b3ef8460405161110a9190611ac1565b60405180910390a361111d848484611545565b50505050565b600073ffffffffffffffffffffffffffffffffffffffff168273ffffffffffffffffffffffffffffffffffffffff161415611193576040517f08c379a000000000000000000000000000000000000000000000000000000000815260040161118a90611aa1565b60405180910390fd5b61119f60008383611540565b80600260008282546111b19190611b13565b92505081905550806000808473ffffffffffffffffffffffffffffffffffffffff1673ffffffffffffffffffffffffffffffffffffffff16815260200190815260200160002060008282546112069190611b13565b925050819055508173ffffffffffffffffffffffffffffffffffffffff16600073ffffffffffffffffffffffffffffffffffffffff167fddf252ad1be2c89b69c2b068fc378daa952ba7f163c4a11628f55a4df523b3ef8360405161126b9190611ac1565b60405180910390a361127f60008383611545565b5050565b600073ffffffffffffffffffffffffffffffffffffffff168273ffffffffffffffffffffffffffffffffffffffff1614156112f3576040517f08c379a00000000000000000000000000000000000000000000000000000000081526004016112ea90611a21565b60405180910390fd5b6112ff82600083611540565b60008060008473ffffffffffffffffffffffffffffffffffffffff1673ffffffffffffffffffffffffffffffffffffffff16815260200190815260200160002054905081811015611385576040517f08c379a000000000000000000000000000000000000000000000000000000000815260040161137c90611941565b60405180910390fd5b8181036000808573ffffffffffffffffffffffffffffffffffffffff1673ffffffffffffffffffffffffffffffffffffffff1681526020019081526020016000208190555081600260008282546113dc9190611b69565b92505081905550600073ffffffffffffffffffffffffffffffffffffffff168373ffffffffffffffffffffffffffffffffffffffff167fddf252ad1be2c89b69c2b068fc378daa952ba7f163c4a11628f55a4df523b3ef846040516114419190611ac1565b60405180910390a361145583600084611545565b505050565b6000600560009054906101000a900473ffffffffffffffffffffffffffffffffffffffff16905081600560006101000a81548173ffffffffffffffffffffffffffffffffffffffff021916908373ffffffffffffffffffffffffffffffffffffffff1602179055508173ffffffffffffffffffffffffffffffffffffffff168173ffffffffffffffffffffffffffffffffffffffff167f8be0079c531659141344cd1fd0a4f28419497f9722a3daafe3b4186f6b6457e060405160405180910390a35050565b6115328261152c610c43565b83610e16565b61153c8282611283565b5050565b505050565b505050565b60008135905061155981612031565b92915050565b60008135905061156e81612048565b92915050565b60006020828403121561158657600080fd5b60006115948482850161154a565b91505092915050565b600080604083850312156115b057600080fd5b60006115be8582860161154a565b92505060206115cf8582860161154a565b9150509250929050565b6000806000606084860312156115ee57600080fd5b60006115fc8682870161154a565b935050602061160d8682870161154a565b925050604061161e8682870161155f565b9150509250925092565b6000806040838503121561163b57600080fd5b60006116498582860161154a565b925050602061165a8582860161155f565b9150509250929050565b60006020828403121561167657600080fd5b60006116848482850161155f565b91505092915050565b61169681611b9d565b82525050565b6116a581611baf565b82525050565b60006116b682611af7565b6116c08185611b02565b93506116d0818560208601611bf2565b6116d981611cb5565b840191505092915050565b60006116f1602383611b02565b91506116fc82611cc6565b604082019050919050565b6000611714602283611b02565b915061171f82611d15565b604082019050919050565b6000611737602683611b02565b915061174282611d64565b604082019050919050565b600061175a602283611b02565b915061176582611db3565b604082019050919050565b600061177d601d83611b02565b915061178882611e02565b602082019050919050565b60006117a0602683611b02565b91506117ab82611e2b565b604082019050919050565b60006117c3601983611b02565b91506117ce82611e7a565b602082019050919050565b60006117e6602083611b02565b91506117f182611ea3565b602082019050919050565b6000611809602183611b02565b915061181482611ecc565b604082019050919050565b600061182c602583611b02565b915061183782611f1b565b604082019050919050565b600061184f602483611b02565b915061185a82611f6a565b604082019050919050565b6000611872602583611b02565b915061187d82611fb9565b604082019050919050565b6000611895601f83611b02565b91506118a082612008565b602082019050919050565b6118b481611bdb565b82525050565b6118c381611be5565b82525050565b60006020820190506118de600083018461168d565b92915050565b60006020820190506118f9600083018461169c565b92915050565b6000602082019050818103600083015261191981846116ab565b905092915050565b6000602082019050818103600083015261193a816116e4565b9050919050565b6000602082019050818103600083015261195a81611707565b9050919050565b6000602082019050818103600083015261197a8161172a565b9050919050565b6000602082019050818103600083015261199a8161174d565b9050919050565b600060208201905081810360008301526119ba81611770565b9050919050565b600060208201905081810360008301526119da81611793565b9050919050565b600060208201905081810360008301526119fa816117b6565b9050919050565b60006020820190508181036000830152611a1a816117d9565b9050919050565b60006020820190508181036000830152611a3a816117fc565b9050919050565b60006020820190508181036000830152611a5a8161181f565b9050919050565b60006020820190508181036000830152611a7a81611842565b9050919050565b60006020820190508181036000830152611a9a81611865565b9050919050565b60006020820190508181036000830152611aba81611888565b9050919050565b6000602082019050611ad660008301846118ab565b92915050565b6000602082019050611af160008301846118ba565b92915050565b600081519050919050565b600082825260208201905092915050565b6000611b1e82611bdb565b9150611b2983611bdb565b9250827fffffffffffffffffffffffffffffffffffffffffffffffffffffffffffffffff03821115611b5e57611b5d611c57565b5b828201905092915050565b6000611b7482611bdb565b9150611b7f83611bdb565b925082821015611b9257611b91611c57565b5b828203905092915050565b6000611ba882611bbb565b9050919050565b60008115159050919050565b600073ffffffffffffffffffffffffffffffffffffffff82169050919050565b6000819050919050565b600060ff82169050919050565b60005b83811015611c10578082015181840152602081019050611bf5565b83811115611c1f576000848401525b50505050565b60006002820490506001821680611c3d57607f821691505b60208210811415611c5157611c50611c86565b5b50919050565b7f4e487b7100000000000000000000000000000000000000000000000000000000600052601160045260246000fd5b7f4e487b7100000000000000000000000000000000000000000000000000000000600052602260045260246000fd5b6000601f19601f8301169050919050565b7f45524332303a207472616e7366657220746f20746865207a65726f206164647260008201527f6573730000000000000000000000000000000000000000000000000000000000602082015250565b7f45524332303a206275726e20616d6f756e7420657863656564732062616c616e60008201527f6365000000000000000000000000000000000000000000000000000000000000602082015250565b7f4f776e61626c653a206e6577206f776e657220697320746865207a65726f206160008201527f6464726573730000000000000000000000000000000000000000000000000000602082015250565b7f45524332303a20617070726f766520746f20746865207a65726f20616464726560008201527f7373000000000000000000000000000000000000000000000000000000000000602082015250565b7f45524332303a20696e73756666696369656e7420616c6c6f77616e6365000000600082015250565b7f45524332303a207472616e7366657220616d6f756e742065786365656473206260008201527f616c616e63650000000000000000000000000000000000000000000000000000602082015250565b7f4f6e6c7920636f6e74726f6c6c6572732063616e206d696e7400000000000000600082015250565b7f4f776e61626c653a2063616c6c6572206973206e6f7420746865206f776e6572600082015250565b7f45524332303a206275726e2066726f6d20746865207a65726f2061646472657360008201527f7300000000000000000000000000000000000000000000000000000000000000602082015250565b7f45524332303a207472616e736665722066726f6d20746865207a65726f20616460008201527f6472657373000000000000000000000000000000000000000000000000000000602082015250565b7f45524332303a20617070726f76652066726f6d20746865207a65726f2061646460008201527f7265737300000000000000000000000000000000000000000000000000000000602082015250565b7f45524332303a2064656372656173656420616c6c6f77616e63652062656c6f7760008201527f207a65726f000000000000000000000000000000000000000000000000000000602082015250565b7f45524332303a206d696e7420746f20746865207a65726f206164647265737300600082015250565b61203a81611b9d565b811461204557600080fd5b50565b61205181611bdb565b811461205c57600080fd5b5056fea264697066735822122091e7cd3401417374f38249fcfebe40f94da664c5486cbf38905c9f05cc8724c864736f6c63430008040033",
  "linkReferences": {},
  "deployedLinkReferences": {}
}