{
  "_format": "hh-sol-artifact-1",
  "contractName": "WETH10",
  "sourceName": "contracts/NFTMarketplace.sol",
  "abi": [
    {
      "inputs": [],
      "stateMutability": "nonpayable",
      "type": "constructor"
    },
    {
      "anonymous": false,
      "inputs": [
        {
          "indexed": true,
          "internalType": "address",
          "name": "owner",
          "type": "address"
        },
        {
          "indexed": true,
          "internalType": "address",
          "name": "spender",
          "type": "address"
        },
        {
          "indexed": false,
          "internalType": "uint256",
          "name": "value",
          "type": "uint256"
        }
      ],
      "name": "Approval",
      "type": "event"
    },
    {
      "anonymous": false,
      "inputs": [
        {
          "indexed": true,
          "internalType": "address",
          "name": "from",
          "type": "address"
        },
        {
          "indexed": true,
          "internalType": "address",
          "name": "to",
          "type": "address"
        },
        {
          "indexed": false,
          "internalType": "uint256",
          "name": "value",
          "type": "uint256"
        }
      ],
      "name": "Transfer",
      "type": "event"
    },
    {
      "inputs": [
        {
          "internalType": "address",
          "name": "owner",
          "type": "address"
        },
        {
          "internalType": "address",
          "name": "spender",
          "type": "address"
        }
      ],
      "name": "allowance",
      "outputs": [
        {
          "internalType": "uint256",
          "name": "",
          "type": "uint256"
        }
      ],
      "stateMutability": "view",
      "type": "function"
    },
    {
      "inputs": [
        {
          "internalType": "address",
          "name": "spender",
          "type": "address"
        },
        {
          "internalType": "uint256",
          "name": "amount",
          "type": "uint256"
        }
      ],
      "name": "approve",
      "outputs": [
        {
          "internalType": "bool",
          "name": "",
          "type": "bool"
        }
      ],
      "stateMutability": "nonpayable",
      "type": "function"
    },
    {
      "inputs": [
        {
          "internalType": "address",
          "name": "marketplace",
          "type": "address"
        },
        {
          "internalType": "uint256",
          "name": "amount",
          "type": "uint256"
        }
      ],
      "name": "approveSpender",
      "outputs": [],
      "stateMutability": "nonpayable",
      "type": "function"
    },
    {
      "inputs": [
        {
          "internalType": "address",
          "name": "account",
          "type": "address"
        }
      ],
      "name": "balanceOf",
      "outputs": [
        {
          "internalType": "uint256",
          "name": "",
          "type": "uint256"
        }
      ],
      "stateMutability": "view",
      "type": "function"
    },
    {
      "inputs": [
        {
          "internalType": "uint256",
          "name": "amount",
          "type": "uint256"
        }
      ],
      "name": "burn",
      "outputs": [],
      "stateMutability": "nonpayable",
      "type": "function"
    },
    {
      "inputs": [],
      "name": "decimals",
      "outputs": [
        {
          "internalType": "uint8",
          "name": "",
          "type": "uint8"
        }
      ],
      "stateMutability": "view",
      "type": "function"
    },
    {
      "inputs": [
        {
          "internalType": "address",
          "name": "spender",
          "type": "address"
        },
        {
          "internalType": "uint256",
          "name": "subtractedValue",
          "type": "uint256"
        }
      ],
      "name": "decreaseAllowance",
      "outputs": [
        {
          "internalType": "bool",
          "name": "",
          "type": "bool"
        }
      ],
      "stateMutability": "nonpayable",
      "type": "function"
    },
    {
      "inputs": [
        {
          "internalType": "address",
          "name": "spender",
          "type": "address"
        },
        {
          "internalType": "uint256",
          "name": "addedValue",
          "type": "uint256"
        }
      ],
      "name": "increaseAllowance",
      "outputs": [
        {
          "internalType": "bool",
          "name": "",
          "type": "bool"
        }
      ],
      "stateMutability": "nonpayable",
      "type": "function"
    },
    {
      "inputs": [],
      "name": "mint",
      "outputs": [],
      "stateMutability": "payable",
      "type": "function"
    },
    {
      "inputs": [],
      "name": "name",
      "outputs": [
        {
          "internalType": "string",
          "name": "",
          "type": "string"
        }
      ],
      "stateMutability": "view",
      "type": "function"
    },
    {
      "inputs": [],
      "name": "symbol",
      "outputs": [
        {
          "internalType": "string",
          "name": "",
          "type": "string"
        }
      ],
      "stateMutability": "view",
      "type": "function"
    },
    {
      "inputs": [],
      "name": "totalSupply",
      "outputs": [
        {
          "internalType": "uint256",
          "name": "",
          "type": "uint256"
        }
      ],
      "stateMutability": "view",
      "type": "function"
    },
    {
      "inputs": [
        {
          "internalType": "address",
          "name": "to",
          "type": "address"
        },
        {
          "internalType": "uint256",
          "name": "amount",
          "type": "uint256"
        }
      ],
      "name": "transfer",
      "outputs": [
        {
          "internalType": "bool",
          "name": "",
          "type": "bool"
        }
      ],
      "stateMutability": "nonpayable",
      "type": "function"
    },
    {
      "inputs": [
        {
          "internalType": "address",
          "name": "from",
          "type": "address"
        },
        {
          "internalType": "address",
          "name": "to",
          "type": "address"
        },
        {
          "internalType": "uint256",
          "name": "amount",
          "type": "uint256"
        }
      ],
      "name": "transferFrom",
      "outputs": [
        {
          "internalType": "bool",
          "name": "",
          "type": "bool"
        }
      ],
      "stateMutability": "nonpayable",
      "type": "function"
    }
  ],
  "bytecode": "0x60806040523480156200001157600080fd5b506040518060400160405280600d81526020017f57726170706564204574686572000000000000000000000000000000000000008152506040518060400160405280600481526020017f5745544800000000000000000000000000000000000000000000000000000000815250816003908051906020019062000096929190620000b8565b508060049080519060200190620000af929190620000b8565b505050620001cd565b828054620000c69062000168565b90600052602060002090601f016020900481019282620000ea576000855562000136565b82601f106200010557805160ff191683800117855562000136565b8280016001018555821562000136579182015b828111156200013557825182559160200191906001019062000118565b5b50905062000145919062000149565b5090565b5b80821115620001645760008160009055506001016200014a565b5090565b600060028204905060018216806200018157607f821691505b602082108114156200019857620001976200019e565b5b50919050565b7f4e487b7100000000000000000000000000000000000000000000000000000000600052602260045260246000fd5b611a5e80620001dd6000396000f3fe6080604052600436106100dd5760003560e01c8063395093511161007f57806395d89b411161005957806395d89b41146102b3578063a457c2d7146102de578063a9059cbb1461031b578063dd62ed3e14610358576100dd565b8063395093511461021057806342966c681461024d57806370a0823114610276576100dd565b80631249c58b116100bb5780631249c58b1461017357806318160ddd1461017d57806323b872dd146101a8578063313ce567146101e5576100dd565b806306fdde03146100e2578063080d7c4d1461010d578063095ea7b314610136575b600080fd5b3480156100ee57600080fd5b506100f7610395565b604051610104919061136f565b60405180910390f35b34801561011957600080fd5b50610134600480360381019061012f919061112b565b610427565b005b34801561014257600080fd5b5061015d6004803603810190610158919061112b565b61044f565b60405161016a9190611354565b60405180910390f35b61017b610472565b005b34801561018957600080fd5b5061019261047e565b60405161019f91906114d1565b60405180910390f35b3480156101b457600080fd5b506101cf60048036038101906101ca91906110dc565b610488565b6040516101dc9190611354565b60405180910390f35b3480156101f157600080fd5b506101fa6104b7565b60405161020791906114ec565b60405180910390f35b34801561021c57600080fd5b506102376004803603810190610232919061112b565b6104c0565b6040516102449190611354565b60405180910390f35b34801561025957600080fd5b50610274600480360381019061026f9190611167565b61056a565b005b34801561028257600080fd5b5061029d60048036038101906102989190611077565b6105be565b6040516102aa91906114d1565b60405180910390f35b3480156102bf57600080fd5b506102c8610606565b6040516102d5919061136f565b60405180910390f35b3480156102ea57600080fd5b506103056004803603810190610300919061112b565b610698565b6040516103129190611354565b60405180910390f35b34801561032757600080fd5b50610342600480360381019061033d919061112b565b610782565b60405161034f9190611354565b60405180910390f35b34801561036457600080fd5b5061037f600480360381019061037a91906110a0565b6107a5565b60405161038c91906114d1565b60405180910390f35b6060600380546103a49061168f565b80601f01602080910402602001604051908101604052809291908181526020018280546103d09061168f565b801561041d5780601f106103f25761010080835404028352916020019161041d565b820191906000526020600020905b81548152906001019060200180831161040057829003601f168201915b5050505050905090565b6000670de0b6b3a76400008261043d9190611579565b9050610449838261044f565b50505050565b60008061045a61082c565b9050610467818585610834565b600191505092915050565b61047c33346109ff565b565b6000600254905090565b60008061049361082c565b90506104a0858285610b5f565b6104ab858585610beb565b60019150509392505050565b60006012905090565b6000806104cb61082c565b905061055f818585600160008673ffffffffffffffffffffffffffffffffffffffff1673ffffffffffffffffffffffffffffffffffffffff16815260200190815260200160002060008973ffffffffffffffffffffffffffffffffffffffff1673ffffffffffffffffffffffffffffffffffffffff1681526020019081526020016000205461055a9190611523565b610834565b600191505092915050565b6105743382610e6c565b3373ffffffffffffffffffffffffffffffffffffffff166108fc829081150290604051600060405180830381858888f193505050501580156105ba573d6000803e3d6000fd5b5050565b60008060008373ffffffffffffffffffffffffffffffffffffffff1673ffffffffffffffffffffffffffffffffffffffff168152602001908152602001600020549050919050565b6060600480546106159061168f565b80601f01602080910402602001604051908101604052809291908181526020018280546106419061168f565b801561068e5780601f106106635761010080835404028352916020019161068e565b820191906000526020600020905b81548152906001019060200180831161067157829003601f168201915b5050505050905090565b6000806106a361082c565b90506000600160008373ffffffffffffffffffffffffffffffffffffffff1673ffffffffffffffffffffffffffffffffffffffff16815260200190815260200160002060008673ffffffffffffffffffffffffffffffffffffffff1673ffffffffffffffffffffffffffffffffffffffff16815260200190815260200160002054905083811015610769576040517f08c379a000000000000000000000000000000000000000000000000000000000815260040161076090611491565b60405180910390fd5b6107768286868403610834565b60019250505092915050565b60008061078d61082c565b905061079a818585610beb565b600191505092915050565b6000600160008473ffffffffffffffffffffffffffffffffffffffff1673ffffffffffffffffffffffffffffffffffffffff16815260200190815260200160002060008373ffffffffffffffffffffffffffffffffffffffff1673ffffffffffffffffffffffffffffffffffffffff16815260200190815260200160002054905092915050565b600033905090565b600073ffffffffffffffffffffffffffffffffffffffff168373ffffffffffffffffffffffffffffffffffffffff1614156108a4576040517f08c379a000000000000000000000000000000000000000000000000000000000815260040161089b90611471565b60405180910390fd5b600073ffffffffffffffffffffffffffffffffffffffff168273ffffffffffffffffffffffffffffffffffffffff161415610914576040517f08c379a000000000000000000000000000000000000000000000000000000000815260040161090b906113d1565b60405180910390fd5b80600160008573ffffffffffffffffffffffffffffffffffffffff1673ffffffffffffffffffffffffffffffffffffffff16815260200190815260200160002060008473ffffffffffffffffffffffffffffffffffffffff1673ffffffffffffffffffffffffffffffffffffffff168152602001908152602001600020819055508173ffffffffffffffffffffffffffffffffffffffff168373ffffffffffffffffffffffffffffffffffffffff167f8c5be1e5ebec7d5bd14f71427d1e84f3dd0314c0f7b2291e5b200ac8c7c3b925836040516109f291906114d1565b60405180910390a3505050565b600073ffffffffffffffffffffffffffffffffffffffff168273ffffffffffffffffffffffffffffffffffffffff161415610a6f576040517f08c379a0000000000000000000000000000000000000000000000000000000008152600401610a66906114b1565b60405180910390fd5b610a7b60008383611043565b8060026000828254610a8d9190611523565b92505081905550806000808473ffffffffffffffffffffffffffffffffffffffff1673ffffffffffffffffffffffffffffffffffffffff1681526020019081526020016000206000828254610ae29190611523565b925050819055508173ffffffffffffffffffffffffffffffffffffffff16600073ffffffffffffffffffffffffffffffffffffffff167fddf252ad1be2c89b69c2b068fc378daa952ba7f163c4a11628f55a4df523b3ef83604051610b4791906114d1565b60405180910390a3610b5b60008383611048565b5050565b6000610b6b84846107a5565b90507fffffffffffffffffffffffffffffffffffffffffffffffffffffffffffffffff8114610be55781811015610bd7576040517f08c379a0000000000000000000000000000000000000000000000000000000008152600401610bce906113f1565b60405180910390fd5b610be48484848403610834565b5b50505050565b600073ffffffffffffffffffffffffffffffffffffffff168373ffffffffffffffffffffffffffffffffffffffff161415610c5b576040517f08c379a0000000000000000000000000000000000000000000000000000000008152600401610c5290611451565b60405180910390fd5b600073ffffffffffffffffffffffffffffffffffffffff168273ffffffffffffffffffffffffffffffffffffffff161415610ccb576040517f08c379a0000000000000000000000000000000000000000000000000000000008152600401610cc290611391565b60405180910390fd5b610cd6838383611043565b60008060008573ffffffffffffffffffffffffffffffffffffffff1673ffffffffffffffffffffffffffffffffffffffff16815260200190815260200160002054905081811015610d5c576040517f08c379a0000000000000000000000000000000000000000000000000000000008152600401610d5390611411565b60405180910390fd5b8181036000808673ffffffffffffffffffffffffffffffffffffffff1673ffffffffffffffffffffffffffffffffffffffff16815260200190815260200160002081905550816000808573ffffffffffffffffffffffffffffffffffffffff1673ffffffffffffffffffffffffffffffffffffffff1681526020019081526020016000206000828254610def9190611523565b925050819055508273ffffffffffffffffffffffffffffffffffffffff168473ffffffffffffffffffffffffffffffffffffffff167fddf252ad1be2c89b69c2b068fc378daa952ba7f163c4a11628f55a4df523b3ef84604051610e5391906114d1565b60405180910390a3610e66848484611048565b50505050565b600073ffffffffffffffffffffffffffffffffffffffff168273ffffffffffffffffffffffffffffffffffffffff161415610edc576040517f08c379a0000000000000000000000000000000000000000000000000000000008152600401610ed390611431565b60405180910390fd5b610ee882600083611043565b60008060008473ffffffffffffffffffffffffffffffffffffffff1673ffffffffffffffffffffffffffffffffffffffff16815260200190815260200160002054905081811015610f6e576040517f08c379a0000000000000000000000000000000000000000000000000000000008152600401610f65906113b1565b60405180910390fd5b8181036000808573ffffffffffffffffffffffffffffffffffffffff1673ffffffffffffffffffffffffffffffffffffffff168152602001908152602001600020819055508160026000828254610fc591906115d3565b92505081905550600073ffffffffffffffffffffffffffffffffffffffff168373ffffffffffffffffffffffffffffffffffffffff167fddf252ad1be2c89b69c2b068fc378daa952ba7f163c4a11628f55a4df523b3ef8460405161102a91906114d1565b60405180910390a361103e83600084611048565b505050565b505050565b505050565b60008135905061105c816119fa565b92915050565b60008135905061107181611a11565b92915050565b60006020828403121561108957600080fd5b60006110978482850161104d565b91505092915050565b600080604083850312156110b357600080fd5b60006110c18582860161104d565b92505060206110d28582860161104d565b9150509250929050565b6000806000606084860312156110f157600080fd5b60006110ff8682870161104d565b93505060206111108682870161104d565b925050604061112186828701611062565b9150509250925092565b6000806040838503121561113e57600080fd5b600061114c8582860161104d565b925050602061115d85828601611062565b9150509250929050565b60006020828403121561117957600080fd5b600061118784828501611062565b91505092915050565b61119981611619565b82525050565b60006111aa82611507565b6111b48185611512565b93506111c481856020860161165c565b6111cd8161171f565b840191505092915050565b60006111e5602383611512565b91506111f082611730565b604082019050919050565b6000611208602283611512565b91506112138261177f565b604082019050919050565b600061122b602283611512565b9150611236826117ce565b604082019050919050565b600061124e601d83611512565b91506112598261181d565b602082019050919050565b6000611271602683611512565b915061127c82611846565b604082019050919050565b6000611294602183611512565b915061129f82611895565b604082019050919050565b60006112b7602583611512565b91506112c2826118e4565b604082019050919050565b60006112da602483611512565b91506112e582611933565b604082019050919050565b60006112fd602583611512565b915061130882611982565b604082019050919050565b6000611320601f83611512565b915061132b826119d1565b602082019050919050565b61133f81611645565b82525050565b61134e8161164f565b82525050565b60006020820190506113696000830184611190565b92915050565b60006020820190508181036000830152611389818461119f565b905092915050565b600060208201905081810360008301526113aa816111d8565b9050919050565b600060208201905081810360008301526113ca816111fb565b9050919050565b600060208201905081810360008301526113ea8161121e565b9050919050565b6000602082019050818103600083015261140a81611241565b9050919050565b6000602082019050818103600083015261142a81611264565b9050919050565b6000602082019050818103600083015261144a81611287565b9050919050565b6000602082019050818103600083015261146a816112aa565b9050919050565b6000602082019050818103600083015261148a816112cd565b9050919050565b600060208201905081810360008301526114aa816112f0565b9050919050565b600060208201905081810360008301526114ca81611313565b9050919050565b60006020820190506114e66000830184611336565b92915050565b60006020820190506115016000830184611345565b92915050565b600081519050919050565b600082825260208201905092915050565b600061152e82611645565b915061153983611645565b9250827fffffffffffffffffffffffffffffffffffffffffffffffffffffffffffffffff0382111561156e5761156d6116c1565b5b828201905092915050565b600061158482611645565b915061158f83611645565b9250817fffffffffffffffffffffffffffffffffffffffffffffffffffffffffffffffff04831182151516156115c8576115c76116c1565b5b828202905092915050565b60006115de82611645565b91506115e983611645565b9250828210156115fc576115fb6116c1565b5b828203905092915050565b600061161282611625565b9050919050565b60008115159050919050565b600073ffffffffffffffffffffffffffffffffffffffff82169050919050565b6000819050919050565b600060ff82169050919050565b60005b8381101561167a57808201518184015260208101905061165f565b83811115611689576000848401525b50505050565b600060028204905060018216806116a757607f821691505b602082108114156116bb576116ba6116f0565b5b50919050565b7f4e487b7100000000000000000000000000000000000000000000000000000000600052601160045260246000fd5b7f4e487b7100000000000000000000000000000000000000000000000000000000600052602260045260246000fd5b6000601f19601f8301169050919050565b7f45524332303a207472616e7366657220746f20746865207a65726f206164647260008201527f6573730000000000000000000000000000000000000000000000000000000000602082015250565b7f45524332303a206275726e20616d6f756e7420657863656564732062616c616e60008201527f6365000000000000000000000000000000000000000000000000000000000000602082015250565b7f45524332303a20617070726f766520746f20746865207a65726f20616464726560008201527f7373000000000000000000000000000000000000000000000000000000000000602082015250565b7f45524332303a20696e73756666696369656e7420616c6c6f77616e6365000000600082015250565b7f45524332303a207472616e7366657220616d6f756e742065786365656473206260008201527f616c616e63650000000000000000000000000000000000000000000000000000602082015250565b7f45524332303a206275726e2066726f6d20746865207a65726f2061646472657360008201527f7300000000000000000000000000000000000000000000000000000000000000602082015250565b7f45524332303a207472616e736665722066726f6d20746865207a65726f20616460008201527f6472657373000000000000000000000000000000000000000000000000000000602082015250565b7f45524332303a20617070726f76652066726f6d20746865207a65726f2061646460008201527f7265737300000000000000000000000000000000000000000000000000000000602082015250565b7f45524332303a2064656372656173656420616c6c6f77616e63652062656c6f7760008201527f207a65726f000000000000000000000000000000000000000000000000000000602082015250565b7f45524332303a206d696e7420746f20746865207a65726f206164647265737300600082015250565b611a0381611607565b8114611a0e57600080fd5b50565b611a1a81611645565b8114611a2557600080fd5b5056fea2646970667358221220f122d480bdbd8ce97ade3a25702968b4d8a40586addf60fadfe6813877d721b364736f6c63430008040033",
  "linkReferences": {},
  "deployedLinkReferences": {}
}